{
  "abi": [
    {
      "inputs": [],
      "name": "BulkClaimsPaused",
      "type": "error"
    },
    {
      "inputs": [
        {
          "internalType": "address",
          "name": "holder",
          "type": "address"
        }
      ],
      "name": "HolderStreamsNotFound",
      "type": "error"
    },
    {
      "inputs": [],
      "name": "IneligibleClaim",
      "type": "error"
    },
    {
      "inputs": [
        {
          "internalType": "address",
          "name": "terminator",
          "type": "address"
        }
      ],
      "name": "NoEmergency",
      "type": "error"
    },
    {
      "inputs": [
        {
          "internalType": "address",
          "name": "terminator",
          "type": "address"
        }
      ],
      "name": "NotHost",
      "type": "error"
    },
    {
      "inputs": [
        {
          "internalType": "uint256",
          "name": "tokenId",
          "type": "uint256"
        }
      ],
      "name": "NotOwnerOfNFT",
      "type": "error"
    },
    {
      "inputs": [],
      "name": "NotTapCreator",
      "type": "error"
    },
    {
      "inputs": [
        {
          "internalType": "int96",
          "name": "ratePerNFT",
          "type": "int96"
        }
      ],
      "name": "SameClaimRate",
      "type": "error"
    },
    {
      "inputs": [
        {
          "internalType": "int96",
          "name": "ratePerNFT",
          "type": "int96"
        }
      ],
      "name": "SameTapRate",
      "type": "error"
    },
    {
      "inputs": [
        {
          "internalType": "address",
          "name": "prevHolder",
          "type": "address"
        }
      ],
      "name": "StreamAdjustmentFailedInReinstate",
      "type": "error"
    },
    {
      "inputs": [
        {
          "internalType": "uint256",
          "name": "tokenId",
          "type": "uint256"
        }
      ],
      "name": "StreamAlreadyClaimed",
      "type": "error"
    },
    {
      "inputs": [
        {
          "internalType": "uint256",
          "name": "tokenId",
          "type": "uint256"
        }
      ],
      "name": "StreamNotFound",
      "type": "error"
    },
    {
      "inputs": [
        {
          "internalType": "address",
          "name": "prevHolder",
          "type": "address"
        },
        {
          "internalType": "address",
          "name": "currHolder",
          "type": "address"
        }
      ],
      "name": "StreamsAdjustmentsFailed",
      "type": "error"
    },
    {
      "inputs": [
        {
          "internalType": "address",
          "name": "prevHolder",
          "type": "address"
        }
      ],
      "name": "StreamsAlreadyReinstated",
      "type": "error"
    },
    {
      "inputs": [],
      "name": "TapActive",
      "type": "error"
    },
    {
      "inputs": [
        {
          "internalType": "uint256",
          "name": "currTapBalance",
          "type": "uint256"
        },
        {
          "internalType": "uint256",
          "name": "reqTapBalance",
          "type": "uint256"
        }
      ],
      "name": "TapBalanceInsufficient",
      "type": "error"
    },
    {
      "inputs": [],
      "name": "TapExists",
      "type": "error"
    },
    {
      "inputs": [],
      "name": "TapInactive",
      "type": "error"
    },
    {
      "inputs": [
        {
          "internalType": "uint256",
          "name": "remainingAmount",
          "type": "uint256"
        },
        {
          "internalType": "uint256",
          "name": "minAmountRequried",
          "type": "uint256"
        }
      ],
      "name": "TapMinAmountLimit",
      "type": "error"
    },
    {
      "inputs": [],
      "name": "TapNotFound",
      "type": "error"
    },
    {
      "inputs": [],
      "name": "TransferFailed",
      "type": "error"
    },
    {
      "inputs": [
        {
          "internalType": "uint256",
          "name": "tokenId",
          "type": "uint256"
        },
        {
          "internalType": "address",
          "name": "terminator",
          "type": "address"
        }
      ],
      "name": "WrongStreamCloseAttempt",
      "type": "error"
    },
    {
      "inputs": [],
      "name": "ZeroAddress",
      "type": "error"
    },
    {
      "anonymous": false,
      "inputs": [
        {
          "indexed": true,
          "internalType": "address",
          "name": "holder",
          "type": "address"
        }
      ],
      "name": "EmergencyCloseInitiated",
      "type": "event"
    },
    {
      "anonymous": false,
      "inputs": [
        {
          "indexed": false,
          "internalType": "uint8",
          "name": "version",
          "type": "uint8"
        }
      ],
      "name": "Initialized",
      "type": "event"
    },
    {
      "anonymous": false,
      "inputs": [
        {
          "indexed": true,
          "internalType": "address",
          "name": "claimant",
          "type": "address"
        },
        {
          "indexed": false,
          "internalType": "uint256",
          "name": "tokenId",
          "type": "uint256"
        }
      ],
      "name": "StreamClaimedById",
      "type": "event"
    },
    {
      "anonymous": false,
      "inputs": [
        {
          "indexed": true,
          "internalType": "address",
          "name": "holder",
          "type": "address"
        },
        {
          "indexed": false,
          "internalType": "int96",
          "name": "oldRatePerNFT",
          "type": "int96"
        },
        {
          "indexed": false,
          "internalType": "int96",
          "name": "newRatePerNFT",
          "type": "int96"
        }
      ],
      "name": "StreamsAdjusted",
      "type": "event"
    },
    {
      "anonymous": false,
      "inputs": [
        {
          "indexed": true,
          "internalType": "address",
          "name": "claimant",
          "type": "address"
        },
        {
          "indexed": false,
          "internalType": "int96",
          "name": "oldStreamRate",
          "type": "int96"
        },
        {
          "indexed": false,
          "internalType": "int96",
          "name": "newStreamRate",
          "type": "int96"
        }
      ],
      "name": "StreamsClaimed",
      "type": "event"
    },
    {
      "anonymous": false,
      "inputs": [
        {
          "indexed": true,
          "internalType": "address",
          "name": "holder",
          "type": "address"
        },
        {
          "indexed": false,
          "internalType": "int96",
          "name": "numStreams",
          "type": "int96"
        },
        {
          "indexed": false,
          "internalType": "int96",
          "name": "newOutStreamRate",
          "type": "int96"
        },
        {
          "indexed": false,
          "internalType": "int96",
          "name": "ratePerNFT",
          "type": "int96"
        }
      ],
      "name": "StreamsReinstated",
      "type": "event"
    },
    {
      "anonymous": false,
      "inputs": [],
      "name": "TapActivated",
      "type": "event"
    },
    {
      "anonymous": false,
      "inputs": [
        {
          "indexed": false,
          "internalType": "string",
          "name": "name",
          "type": "string"
        },
        {
          "indexed": false,
          "internalType": "address",
          "name": "creator",
          "type": "address"
        },
        {
          "indexed": true,
          "internalType": "address",
          "name": "nft",
          "type": "address"
        },
        {
          "indexed": true,
          "internalType": "address",
          "name": "superToken",
          "type": "address"
        },
        {
          "indexed": false,
          "internalType": "uint96",
          "name": "ratePerNFT",
          "type": "uint96"
        }
      ],
      "name": "TapCreated",
      "type": "event"
    },
    {
      "anonymous": false,
      "inputs": [],
      "name": "TapDeactivated",
      "type": "event"
    },
    {
      "anonymous": false,
      "inputs": [
        {
          "indexed": true,
          "internalType": "address",
          "name": "streamToken",
          "type": "address"
        },
        {
          "indexed": false,
          "internalType": "uint256",
          "name": "drainAmount",
          "type": "uint256"
        }
      ],
      "name": "TapDrained",
      "type": "event"
    },
    {
      "anonymous": false,
      "inputs": [
        {
          "indexed": false,
          "internalType": "int96",
          "name": "oldRatePerNFT",
          "type": "int96"
        },
        {
          "indexed": false,
          "internalType": "int96",
          "name": "newRatePerNFT",
          "type": "int96"
        }
      ],
      "name": "TapRateChanged",
      "type": "event"
    },
    {
      "anonymous": false,
      "inputs": [
        {
          "indexed": true,
          "internalType": "address",
          "name": "superToken",
          "type": "address"
        },
        {
          "indexed": false,
          "internalType": "uint256",
          "name": "amount",
          "type": "uint256"
        }
      ],
      "name": "TapToppedUp",
      "type": "event"
    },
    {
      "inputs": [],
      "name": "CREATOR",
      "outputs": [
        {
          "internalType": "address",
          "name": "",
          "type": "address"
        }
      ],
      "stateMutability": "view",
      "type": "function"
    },
    {
      "inputs": [],
      "name": "HOST",
      "outputs": [
        {
          "internalType": "address",
          "name": "",
          "type": "address"
        }
      ],
      "stateMutability": "view",
      "type": "function"
    },
    {
      "inputs": [],
      "name": "NFT",
      "outputs": [
        {
          "internalType": "contract IERC721",
          "name": "",
          "type": "address"
        }
      ],
      "stateMutability": "view",
      "type": "function"
    },
    {
      "inputs": [],
      "name": "STREAM_TOKEN",
      "outputs": [
        {
          "internalType": "contract ISuperToken",
          "name": "",
          "type": "address"
        }
      ],
      "stateMutability": "view",
      "type": "function"
    },
    {
      "inputs": [],
      "name": "activateTap",
      "outputs": [],
      "stateMutability": "nonpayable",
      "type": "function"
    },
    {
      "inputs": [],
      "name": "active",
      "outputs": [
        {
          "internalType": "bool",
          "name": "",
          "type": "bool"
        }
      ],
      "stateMutability": "view",
      "type": "function"
    },
    {
      "inputs": [
        {
          "internalType": "address",
          "name": "_holder",
          "type": "address"
        }
      ],
      "name": "adjustCurrentStreams",
      "outputs": [],
      "stateMutability": "nonpayable",
      "type": "function"
    },
    {
      "inputs": [
        {
          "internalType": "contract ISuperToken",
          "name": "",
          "type": "address"
        },
        {
          "internalType": "address",
          "name": "",
          "type": "address"
        },
        {
          "internalType": "bytes32",
          "name": "",
          "type": "bytes32"
        },
        {
          "internalType": "bytes",
          "name": "",
          "type": "bytes"
        },
        {
          "internalType": "bytes",
          "name": "",
          "type": "bytes"
        },
        {
          "internalType": "bytes",
          "name": "",
          "type": "bytes"
        }
      ],
      "name": "afterAgreementCreated",
      "outputs": [
        {
          "internalType": "bytes",
          "name": "",
          "type": "bytes"
        }
      ],
      "stateMutability": "nonpayable",
      "type": "function"
    },
    {
      "inputs": [
        {
          "internalType": "contract ISuperToken",
          "name": "",
          "type": "address"
        },
        {
          "internalType": "address",
          "name": "",
          "type": "address"
        },
        {
          "internalType": "bytes32",
          "name": "",
          "type": "bytes32"
        },
        {
          "internalType": "bytes",
          "name": "_agreementData",
          "type": "bytes"
        },
        {
          "internalType": "bytes",
          "name": "",
          "type": "bytes"
        },
        {
          "internalType": "bytes",
          "name": "_ctx",
          "type": "bytes"
        }
      ],
      "name": "afterAgreementTerminated",
      "outputs": [
        {
          "internalType": "bytes",
          "name": "_newCtx",
          "type": "bytes"
        }
      ],
      "stateMutability": "nonpayable",
      "type": "function"
    },
    {
      "inputs": [
        {
          "internalType": "contract ISuperToken",
          "name": "",
          "type": "address"
        },
        {
          "internalType": "address",
          "name": "",
          "type": "address"
        },
        {
          "internalType": "bytes32",
          "name": "",
          "type": "bytes32"
        },
        {
          "internalType": "bytes",
          "name": "",
          "type": "bytes"
        },
        {
          "internalType": "bytes",
          "name": "",
          "type": "bytes"
        },
        {
          "internalType": "bytes",
          "name": "",
          "type": "bytes"
        }
      ],
      "name": "afterAgreementUpdated",
      "outputs": [
        {
          "internalType": "bytes",
          "name": "",
          "type": "bytes"
        }
      ],
      "stateMutability": "nonpayable",
      "type": "function"
    },
    {
      "inputs": [
        {
          "internalType": "contract ISuperToken",
          "name": "",
          "type": "address"
        },
        {
          "internalType": "address",
          "name": "",
          "type": "address"
        },
        {
          "internalType": "bytes32",
          "name": "",
          "type": "bytes32"
        },
        {
          "internalType": "bytes",
          "name": "",
          "type": "bytes"
        },
        {
          "internalType": "bytes",
          "name": "",
          "type": "bytes"
        }
      ],
      "name": "beforeAgreementCreated",
      "outputs": [
        {
          "internalType": "bytes",
          "name": "",
          "type": "bytes"
        }
      ],
      "stateMutability": "view",
      "type": "function"
    },
    {
      "inputs": [
        {
          "internalType": "contract ISuperToken",
          "name": "",
          "type": "address"
        },
        {
          "internalType": "address",
          "name": "",
          "type": "address"
        },
        {
          "internalType": "bytes32",
          "name": "",
          "type": "bytes32"
        },
        {
          "internalType": "bytes",
          "name": "",
          "type": "bytes"
        },
        {
          "internalType": "bytes",
          "name": "",
          "type": "bytes"
        }
      ],
      "name": "beforeAgreementTerminated",
      "outputs": [
        {
          "internalType": "bytes",
          "name": "",
          "type": "bytes"
        }
      ],
      "stateMutability": "view",
      "type": "function"
    },
    {
      "inputs": [
        {
          "internalType": "contract ISuperToken",
          "name": "",
          "type": "address"
        },
        {
          "internalType": "address",
          "name": "",
          "type": "address"
        },
        {
          "internalType": "bytes32",
          "name": "",
          "type": "bytes32"
        },
        {
          "internalType": "bytes",
          "name": "",
          "type": "bytes"
        },
        {
          "internalType": "bytes",
          "name": "",
          "type": "bytes"
        }
      ],
      "name": "beforeAgreementUpdated",
      "outputs": [
        {
          "internalType": "bytes",
          "name": "",
          "type": "bytes"
        }
      ],
      "stateMutability": "view",
      "type": "function"
    },
    {
      "inputs": [
        {
          "internalType": "uint96",
          "name": "_newRatePerNFT",
          "type": "uint96"
        }
      ],
      "name": "changeRate",
      "outputs": [],
      "stateMutability": "nonpayable",
      "type": "function"
    },
    {
      "inputs": [
        {
          "internalType": "uint256",
          "name": "_tokenId",
          "type": "uint256"
        }
      ],
      "name": "claimStream",
      "outputs": [],
      "stateMutability": "nonpayable",
      "type": "function"
    },
    {
      "inputs": [
        {
          "internalType": "uint256",
          "name": "_tokenId",
          "type": "uint256"
        }
      ],
      "name": "closeStream",
      "outputs": [],
      "stateMutability": "nonpayable",
      "type": "function"
    },
    {
      "inputs": [],
      "name": "deactivateTap",
      "outputs": [],
      "stateMutability": "nonpayable",
      "type": "function"
    },
    {
      "inputs": [
        {
          "internalType": "uint256",
          "name": "_amount",
          "type": "uint256"
        }
      ],
      "name": "drainTap",
      "outputs": [],
      "stateMutability": "nonpayable",
      "type": "function"
    },
    {
      "inputs": [
        {
          "internalType": "address",
          "name": "_holder",
          "type": "address"
        }
      ],
      "name": "emergencyCloseStreams",
      "outputs": [],
      "stateMutability": "nonpayable",
      "type": "function"
    },
    {
      "inputs": [
        {
          "internalType": "string",
          "name": "_name",
          "type": "string"
        },
        {
          "internalType": "address",
          "name": "_host",
          "type": "address"
        },
        {
          "internalType": "address",
          "name": "_creator",
          "type": "address"
        },
        {
          "internalType": "uint96",
          "name": "_ratePerNFT",
          "type": "uint96"
        },
        {
          "internalType": "contract IcfaV1Forwarder",
          "name": "_cfaV1Forwarder",
          "type": "address"
        },
        {
          "internalType": "contract IERC721",
          "name": "_nft",
          "type": "address"
        },
        {
          "internalType": "contract ISuperToken",
          "name": "_streamToken",
          "type": "address"
        }
      ],
      "name": "initialize",
      "outputs": [],
      "stateMutability": "nonpayable",
      "type": "function"
    },
    {
      "inputs": [],
      "name": "isCritical",
      "outputs": [
        {
          "internalType": "bool",
          "name": "_status",
          "type": "bool"
        }
      ],
      "stateMutability": "view",
      "type": "function"
    },
    {
      "inputs": [],
      "name": "name",
      "outputs": [
        {
          "internalType": "string",
          "name": "",
          "type": "string"
        }
      ],
      "stateMutability": "view",
      "type": "function"
    },
    {
      "inputs": [],
      "name": "ratePerNFT",
      "outputs": [
        {
          "internalType": "int96",
          "name": "",
          "type": "int96"
        }
      ],
      "stateMutability": "view",
      "type": "function"
    },
    {
      "inputs": [
        {
          "internalType": "address",
          "name": "_prevHolder",
          "type": "address"
        }
      ],
      "name": "reinstateStreams",
      "outputs": [],
      "stateMutability": "nonpayable",
      "type": "function"
    },
    {
      "inputs": [
        {
          "internalType": "uint256",
          "name": "",
          "type": "uint256"
        }
      ],
      "name": "tokenIdHolders",
      "outputs": [
        {
          "internalType": "address",
          "name": "",
          "type": "address"
        }
      ],
      "stateMutability": "view",
      "type": "function"
    },
    {
      "inputs": [
        {
          "internalType": "uint256",
          "name": "_amount",
          "type": "uint256"
        }
      ],
      "name": "topUpTap",
      "outputs": [],
      "stateMutability": "nonpayable",
      "type": "function"
    }
  ],
  "bytecode": {
    "object": "0x608060405234801561001057600080fd5b5061277f806100206000396000f3fe608060405234801561001057600080fd5b506004361061018e5760003560e01c80635f9e7d77116100de578063927e352011610097578063bde5880e11610071578063bde5880e1461036d578063d86ed3e514610380578063dcc76d1f14610393578063e4fbb609146103a657600080fd5b8063927e352014610334578063b20b6b5914610347578063bcefe6101461035a57600080fd5b80635f9e7d77146102cd5780636cb99967146102e05780637c0b8de2146102f3578063884d1f4014610306578063898f319c146103195780638cf799991461032c57600080fd5b80632e40bfac1161014b57806348addb5c1161012557806348addb5c1461025857806349f289dc1461026057806353c11f991461029157806357558246146102a457600080fd5b80632e40bfac1461022a57806330d9c9151461023257806342f5c6181461024557600080fd5b806302fb0c5e1461019357806306fdde03146101b55780631c17e2d6146101ca5780631c8da209146101ef5780631d1b7b7714610204578063230dbd2914610217575b600080fd5b6005546101a09060ff1681565b60405190151581526020015b60405180910390f35b6101bd6103b9565b6040516101ac9190611fd3565b6005546101dc906101009004600b0b81565b604051600b9190910b81526020016101ac565b6102026101fd366004611ffd565b610447565b005b610202610212366004612018565b610517565b6101bd61022536600461209d565b6108e7565b6101a0610949565b6101bd610240366004612168565b610a96565b610202610253366004612018565b610af9565b610202610ca9565b600054610279906201000090046001600160a01b031681565b6040516001600160a01b0390911681526020016101ac565b6101bd61029f36600461209d565b610d31565b6102796102b2366004612018565b6007602052600090815260409020546001600160a01b031681565b6101bd6102db366004612168565b610de1565b6102026102ee366004612207565b610e48565b600354610279906001600160a01b031681565b6101bd610314366004612168565b610f70565b610202610327366004612018565b610fd3565b6102026113b7565b61020261034236600461223a565b611442565b610202610355366004612207565b61163c565b610202610368366004612207565b611871565b61020261037b366004612018565b611a8f565b6101bd61038e36600461209d565b611b9b565b600254610279906001600160a01b031681565b600154610279906001600160a01b031681565b600480546103c69061234f565b80601f01602080910402602001604051908101604052809291908181526020018280546103f29061234f565b801561043f5780601f106104145761010080835404028352916020019161043f565b820191906000526020600020905b81548152906001019060200180831161042257829003601f168201915b505050505081565b6001546001600160a01b031633146104725760405163a17205b560e01b815260040160405180910390fd5b6005546101009004600b90810b90829081900b82036104af5760405163245deae960e11b8152600b82900b60048201526024015b60405180910390fd5b600580546cffffffffffffffffffffffff0019166101006001600160601b0386160217905560408051600b84810b825283900b60208201527f3f4f15794d3d6909eeffd3c852e9ade086118bf01ed932cd7c40fca47501b6fb910160405180910390a1505050565b6000818152600760205260409020546001600160a01b031680158061055557506001600160a01b038116600090815260086020526040902060010154155b15610576576040516347e7ef2160e11b8152600481018390526024016104a6565b6002546006546003546040516331a9108f60e11b8152600481018690526001600160a01b0393841693928316926000921690636352211e90602401602060405180830381865afa1580156105ce573d6000803e3d6000fd5b505050506040513d601f19601f820116820180604052508101906105f29190612389565b90506001600160a01b03811633148061061557506001546001600160a01b031633145b156108be57604051630ec5b29360e11b81526001600160a01b038481166004830152306024830152858116604483015260009190841690631d8b652690606401602060405180830381865afa158015610672573d6000803e3d6000fd5b505050506040513d601f19601f8201168201806040525081019061069691906123a6565b6001600160a01b038616600090815260086020526040812054600554929350600b90810b926106d09189918591610100909104900b611bfd565b600089815260076020908152604080832080546001600160a01b03191690556001600160a01b038b16835260089091528120600101805492935091610714906123df565b909155506001600160a01b03871660009081526008602052604090206001015415801561075b57506001600160a01b038716600090815260086020526040902054600b0b15155b15610787576001600160a01b038716600090815260086020526040902080546001600160601b03191690555b80600b0b83600b0b13806107ba575080600b0b83600b0b1280156107ba57506107ba85876107b586856123f6565b611c66565b1561083857604051632bf3551b60e11b81526001600160a01b038616906357e6aa36906107ef9089908b908690600401612429565b6020604051808303816000875af115801561080e573d6000803e3d6000fd5b505050506040513d601f19601f820116820180604052508101906108329190612450565b506108b6565b6001600160a01b0385166357e6aa36878961085386886123f6565b6040518463ffffffff1660e01b815260040161087193929190612429565b6020604051808303816000875af1158015610890573d6000803e3d6000fd5b505050506040513d601f19601f820116820180604052508101906108b49190612450565b505b5050506108e0565b60405163791c605560e01b8152600481018690523360248201526044016104a6565b5050505050565b60405162461bcd60e51b815260206004820152602e60248201527f556e737570706f727465642063616c6c6261636b202d2041667465722041677260448201526d19595b595b9d08155c19185d195960921b60648201526060906084016104a6565b6006546002546040516322c904d960e01b81526001600160a01b0391821660048201819052306024830152600093929092169190839083906322c904d990604401602060405180830381865afa1580156109a7573d6000803e3d6000fd5b505050506040513d601f19601f820116820180604052508101906109cb91906123a6565b9050600081600b0b126109e2576000935050505090565b6040516370a0823160e01b81523060048201526000906001600160a01b038416906370a0823190602401602060405180830381865afa158015610a29573d6000803e3d6000fd5b505050506040513d601f19601f82011682018060405250810190610a4d9190612472565b90506000610a75610a608460001961248b565b610a6d906201518061248b565b600b0b611e1c565b9050808210610a8a5760009550505050505090565b60019550505050505090565b60405162461bcd60e51b815260206004820152602f60248201527f556e737570706f727465642063616c6c6261636b202d204265666f726520416760448201526e1c99595b595b9d0810dc99585d1959608a1b60648201526060906084016104a6565b6001546001600160a01b03163314610b245760405163a17205b560e01b815260040160405180910390fd5b6002546040516370a0823160e01b81523060048201526001600160a01b039091169060009082906370a0823190602401602060405180830381865afa158015610b71573d6000803e3d6000fd5b505050506040513d601f19601f82011682018060405250810190610b959190612472565b90506000198303610ba857809250610bd3565b82811015610bd3576040516346b73ad560e01b815260048101829052602481018490526044016104a6565b60405163a9059cbb60e01b8152336004820152602481018490526001600160a01b0383169063a9059cbb906044016020604051808303816000875af1158015610c20573d6000803e3d6000fd5b505050506040513d601f19601f82011682018060405250810190610c449190612450565b610c61576040516312171d8360e31b815260040160405180910390fd5b816001600160a01b03167f3b891b094348cade467bfc59c9804ace7bb78911a139f6442a30250c5f30597984604051610c9c91815260200190565b60405180910390a2505050565b6001546001600160a01b03163314610cd45760405163a17205b560e01b815260040160405180910390fd5b60055460ff161515600003610cfc576040516324ee1ca960e01b815260040160405180910390fd5b6005805460ff191690556040517f3a15dda76c298a039674b2287c867ba88f2236e2d01b54ba865ead296570386490600090a1565b6000546060906201000090046001600160a01b03163314610d6757604051635614fa7760e01b81523360048201526024016104a6565b82828080601f0160208091040260200160405190810160405280939291908181526020018383808284376000920182905250939450610dac9250505087890189612520565b6001600160a01b0316600090815260086020526040902080546001600160601b031916905550909a9950505050505050505050565b60405162461bcd60e51b815260206004820152603360248201527f556e737570706f727465642063616c6c6261636b202d20204265666f7265204160448201527219dc99595b595b9d0815195c9b5a5b985d1959606a1b60648201526060906084016104a6565b6001546001600160a01b03163314801590610e685750610e66610949565b155b15610e88576040516373e9588760e11b81523360048201526024016104a6565b60055460ff1615610e9e576005805460ff191690555b6001600160a01b0380821660009081526008602052604080822080546001600160601b03191690556006546002549151632bf3551b60e11b8152908416936357e6aa3693610ef59390911691869190600401612429565b6020604051808303816000875af1158015610f14573d6000803e3d6000fd5b505050506040513d601f19601f82011682018060405250810190610f389190612450565b506040516001600160a01b038216907f15ed2cc902282ba6d45db1192488213eaca35dffb37edec22aacf8cbf408c24e90600090a250565b60405162461bcd60e51b815260206004820152602f60248201527f556e737570706f727465642063616c6c6261636b202d204265666f726520416760448201526e1c99595b595b9d081d5c19185d1959608a1b60648201526060906084016104a6565b60055460ff16610ff6576040516324ee1ca960e01b815260040160405180910390fd5b6003546040516331a9108f60e11b8152600481018390526001600160a01b039091169033908290636352211e90602401602060405180830381865afa158015611043573d6000803e3d6000fd5b505050506040513d601f19601f820116820180604052508101906110679190612389565b6001600160a01b0316146110915760405163ad88647160e01b8152600481018390526024016104a6565b6000828152600760205260409020546001600160a01b03163381036110cc576040516344196afd60e11b8152600481018490526024016104a6565b6006546002546005546001600160a01b039283169291821691610100909104600b0b906000908190861615611153576001600160a01b038616600090815260086020526040902054600b0b9150611124868385611bfd565b6001600160a01b038716600090815260086020526040812060010180549293509161114e906123df565b909155505b33600081815260086020526040812054600b0b91611172908387611e72565b905060006111808386612559565b61118a8386612559565b61119491906123f6565b90506111a1888883611c66565b6111cf576040516333c17a3b60e01b81526001600160a01b038a1660048201523360248201526044016104a6565b600b85900b15611279576001600160a01b038981166000908152600860205260409081902080546001600160601b0319166001600160601b038a1617905551632bf3551b60e11b8152908916906357e6aa3690611234908a908d908990600401612429565b6020604051808303816000875af1158015611253573d6000803e3d6000fd5b505050506040513d601f19601f820116820180604052508101906112779190612450565b505b60008b815260076020908152604080832080546001600160a01b0319163390811790915583526008909152812060010180549091906112b790612586565b9091555033600090815260086020526040902054600b87810b91900b146113015733600090815260086020526040902080546001600160601b0319166001600160601b0388161790555b604051632bf3551b60e11b81526001600160a01b038916906357e6aa3690611331908a9033908790600401612429565b6020604051808303816000875af1158015611350573d6000803e3d6000fd5b505050506040513d601f19601f820116820180604052508101906113749190612450565b506040518b815233907f90a5a57b652df5b9c4b1245c11aee7c6ba100d224871367c81229f8833b3f29c9060200160405180910390a25050505050505050505050565b6001546001600160a01b031633146113e25760405163a17205b560e01b815260040160405180910390fd5b60055460ff16151560010361140a576040516321ebf19760e11b815260040160405180910390fd5b6005805460ff191660011790556040517f095fdebb45b4f1fd3f76ce7a07f113fafa6da5fcd60d6983ab22693fe29d1ecd90600090a1565b600054610100900460ff16158080156114625750600054600160ff909116105b8061147c5750303b15801561147c575060005460ff166001145b6114df5760405162461bcd60e51b815260206004820152602e60248201527f496e697469616c697a61626c653a20636f6e747261637420697320616c72656160448201526d191e481a5b9a5d1a585b1a5e995960921b60648201526084016104a6565b6000805460ff191660011790558015611502576000805461ff0019166101001790555b6000805462010000600160b01b031916620100006001600160a01b038a81169190910291909117909155600680546001600160a01b03199081168784161790915560028054821685841617905560018054821689841617905560038054909116918516919091179055600580546cffffffffffffffffffffffff0019166101006001600160601b03881602179055600461159c89826125ee565b50816001600160a01b0316836001600160a01b03167f5aa0d639432ea7da3976c64fbf2d61e924cb399d52d50bf897a13ab2054aa6cd8a89896040516115e4939291906126ae565b60405180910390a38015611632576000805461ff0019169055604051600181527f7f26b83ff96e1f2b6a682f133852f6798a09c465da95921460cefb38474024989060200160405180910390a15b5050505050505050565b60055460ff1661165f576040516324ee1ca960e01b815260040160405180910390fd5b600654600254600554604051630ec5b29360e11b81526001600160a01b039283166004820181905230602483015285841660448301529290931692610100909104600b0b906000908490631d8b652690606401602060405180830381865afa1580156116cf573d6000803e3d6000fd5b505050506040513d601f19601f820116820180604052508101906116f391906123a6565b9050600b81900b611722576040516345da2b7560e11b81526001600160a01b03861660048201526024016104a6565b6001600160a01b038516600090815260086020526040902054600b90810b9083900b81036117695760405163aeecca6d60e01b8152600b84900b60048201526024016104a6565b600061177582846126ea565b6001600160a01b03888116600090815260086020526040902080546001600160601b0319166001600160601b03881617905590915086166357e6aa3686896117bd888661248b565b6040518463ffffffff1660e01b81526004016117db93929190612429565b6020604051808303816000875af11580156117fa573d6000803e3d6000fd5b505050506040513d601f19601f8201168201806040525081019061181e9190612450565b5060408051600b84810b825286900b60208201526001600160a01b038916917fa10702d01d3c4ff4c3ce65a72ea172bfb010b2e9f34bd104df867a535d1185e9910160405180910390a250505050505050565b60055460ff16611894576040516324ee1ca960e01b815260040160405180910390fd5b6001600160a01b038116600090815260086020526040902054600b0b156118d9576040516309b6b87760e11b81526001600160a01b03821660048201526024016104a6565b6006546002546005546001600160a01b03848116600090815260086020526040812060010154948216949390911692610100909204600b0b916119249061191f90611ebb565b611f25565b905080600b0b600003611955576040516345da2b7560e11b81526001600160a01b03861660048201526024016104a6565b6000611961838361248b565b905061196e858583611c66565b6119965760405163f9cdf5eb60e01b81526001600160a01b03871660048201526024016104a6565b6001600160a01b038681166000908152600860205260409081902080546001600160601b0319166001600160601b03871617905551632bf3551b60e11b8152908616906357e6aa36906119f19087908a908690600401612429565b6020604051808303816000875af1158015611a10573d6000803e3d6000fd5b505050506040513d601f19601f82011682018060405250810190611a349190612450565b5060408051600b84810b825283810b602083015285900b8183015290516001600160a01b038816917fea709432316b7b3da35d14ba2d798e38eb80dc76c8ec47ba35cd0939d3dee364919081900360600190a2505050505050565b6001546001600160a01b03163314611aba5760405163a17205b560e01b815260040160405180910390fd5b6002546040516323b872dd60e01b8152336004820152306024820152604481018390526001600160a01b039091169081906323b872dd906064016020604051808303816000875af1158015611b13573d6000803e3d6000fd5b505050506040513d601f19601f82011682018060405250810190611b379190612450565b611b54576040516312171d8360e31b815260040160405180910390fd5b806001600160a01b03167f6af4f348b0a94b3ecbd7d24059de3fd8ffb635abb46124d9effb1f88a995c7cc83604051611b8f91815260200190565b60405180910390a25050565b60405162461bcd60e51b815260206004820152602e60248201527f556e737570706f727465642063616c6c6261636b202d2041667465722041677260448201526d19595b595b9d0810dc99585d195960921b60648201526060906084016104a6565b6000600b83900b15611c5b57816001611c4061191f60086000896001600160a01b03166001600160a01b0316815260200190815260200160002060010154611ebb565b611c4a91906123f6565b611c54919061248b565b9050611c5f565b5060005b9392505050565b6040516322c904d960e01b81526001600160a01b03838116600483015230602483015260009182918616906322c904d990604401602060405180830381865afa158015611cb7573d6000803e3d6000fd5b505050506040513d601f19601f82011682018060405250810190611cdb91906123a6565b905082600b0b81600b0b1215611e11576040516370a0823160e01b81523060048201526000906001600160a01b038616906370a0823190602401602060405180830381865afa158015611d32573d6000803e3d6000fd5b505050506040513d601f19601f82011682018060405250810190611d569190612472565b6040516309f0b49560e01b81526001600160a01b038781166004830152600b87900b60248301529192506000918816906309f0b49590604401602060405180830381865afa158015611dac573d6000803e3d6000fd5b505050506040513d601f19601f82011682018060405250810190611dd09190612472565b90506000611ded611de187866123f6565b610a609060001961248b565b905080611dfa8385612736565b1015611e0d576000945050505050611c5f565b5050505b506001949350505050565b600080821215611e6e5760405162461bcd60e51b815260206004820181905260248201527f53616665436173743a2076616c7565206d75737420626520706f73697469766560448201526064016104a6565b5090565b6000600b83900b15611eb4576001600160a01b0384166000908152600860205260409020600101548290611ea99061191f90611ebb565b611c4a906001612559565b5080611c5f565b60006001600160ff1b03821115611e6e5760405162461bcd60e51b815260206004820152602860248201527f53616665436173743a2076616c756520646f65736e27742066697420696e2061604482015267371034b73a191a9b60c11b60648201526084016104a6565b80600b81900b8114611f885760405162461bcd60e51b815260206004820152602660248201527f53616665436173743a2076616c756520646f65736e27742066697420696e203960448201526536206269747360d01b60648201526084016104a6565b919050565b6000815180845260005b81811015611fb357602081850181015186830182015201611f97565b506000602082860101526020601f19601f83011685010191505092915050565b602081526000611c5f6020830184611f8d565b80356001600160601b0381168114611f8857600080fd5b60006020828403121561200f57600080fd5b611c5f82611fe6565b60006020828403121561202a57600080fd5b5035919050565b6001600160a01b038116811461204657600080fd5b50565b8035611f8881612031565b60008083601f84011261206657600080fd5b50813567ffffffffffffffff81111561207e57600080fd5b60208301915083602082850101111561209657600080fd5b9250929050565b600080600080600080600080600060c08a8c0312156120bb57600080fd5b89356120c681612031565b985060208a01356120d681612031565b975060408a0135965060608a013567ffffffffffffffff808211156120fa57600080fd5b6121068d838e01612054565b909850965060808c013591508082111561211f57600080fd5b61212b8d838e01612054565b909650945060a08c013591508082111561214457600080fd5b506121518c828d01612054565b915080935050809150509295985092959850929598565b600080600080600080600060a0888a03121561218357600080fd5b873561218e81612031565b9650602088013561219e81612031565b955060408801359450606088013567ffffffffffffffff808211156121c257600080fd5b6121ce8b838c01612054565b909650945060808a01359150808211156121e757600080fd5b506121f48a828b01612054565b989b979a50959850939692959293505050565b60006020828403121561221957600080fd5b8135611c5f81612031565b634e487b7160e01b600052604160045260246000fd5b600080600080600080600060e0888a03121561225557600080fd5b873567ffffffffffffffff8082111561226d57600080fd5b818a0191508a601f83011261228157600080fd5b81358181111561229357612293612224565b604051601f8201601f19908116603f011681019083821181831017156122bb576122bb612224565b816040528281528d60208487010111156122d457600080fd5b82602086016020830137600060208483010152809b5050505050506122fb60208901612049565b955061230960408901612049565b945061231760608901611fe6565b935061232560808901612049565b925061233360a08901612049565b915061234160c08901612049565b905092959891949750929550565b600181811c9082168061236357607f821691505b60208210810361238357634e487b7160e01b600052602260045260246000fd5b50919050565b60006020828403121561239b57600080fd5b8151611c5f81612031565b6000602082840312156123b857600080fd5b815180600b0b8114611c5f57600080fd5b634e487b7160e01b600052601160045260246000fd5b6000816123ee576123ee6123c9565b506000190190565b600b82810b9082900b0360016001605f1b0319811260016001605f1b0382131715612423576124236123c9565b92915050565b6001600160a01b039384168152919092166020820152600b9190910b604082015260600190565b60006020828403121561246257600080fd5b81518015158114611c5f57600080fd5b60006020828403121561248457600080fd5b5051919050565b600081600b0b83600b0b60016001605f1b036000821360008413838304851182821616156124bb576124bb6123c9565b60016001605f1b031960008512828116878305871216156124de576124de6123c9565b600087129250858205871284841616156124fa576124fa6123c9565b85850587128184161615612510576125106123c9565b5050509290910295945050505050565b6000806040838503121561253357600080fd5b823561253e81612031565b9150602083013561254e81612031565b809150509250929050565b600b81810b9083900b0160016001605f1b03811360016001605f1b031982121715612423576124236123c9565b600060018201612598576125986123c9565b5060010190565b601f8211156125e957600081815260208120601f850160051c810160208610156125c65750805b601f850160051c820191505b818110156125e5578281556001016125d2565b5050505b505050565b815167ffffffffffffffff81111561260857612608612224565b61261c81612616845461234f565b8461259f565b602080601f83116001811461265157600084156126395750858301515b600019600386901b1c1916600185901b1785556125e5565b600085815260208120601f198616915b8281101561268057888601518255948401946001909101908401612661565b508582101561269e5787850151600019600388901b60f8161c191681555b5050505050600190811b01905550565b6060815260006126c16060830186611f8d565b6001600160a01b03949094166020830152506001600160601b0391909116604090910152919050565b600081600b0b83600b0b8061270f57634e487b7160e01b600052601260045260246000fd5b60016001605f1b031982146000198214161561272d5761272d6123c9565b90059392505050565b81810381811115612423576124236123c956fea2646970667358221220957ab9d967c2a6603a8412d6d06562c4a4e9e35af365b7e6bb20224468c1a20864736f6c63430008100033",
    "linkReferences": {}
  },
  "methodIdentifiers": {
    "CREATOR()": "e4fbb609",
    "HOST()": "49f289dc",
    "NFT()": "7c0b8de2",
    "STREAM_TOKEN()": "dcc76d1f",
    "activateTap()": "8cf79999",
    "active()": "02fb0c5e",
    "adjustCurrentStreams(address)": "b20b6b59",
    "afterAgreementCreated(address,address,bytes32,bytes,bytes,bytes)": "d86ed3e5",
    "afterAgreementTerminated(address,address,bytes32,bytes,bytes,bytes)": "53c11f99",
    "afterAgreementUpdated(address,address,bytes32,bytes,bytes,bytes)": "230dbd29",
    "beforeAgreementCreated(address,address,bytes32,bytes,bytes)": "30d9c915",
    "beforeAgreementTerminated(address,address,bytes32,bytes,bytes)": "5f9e7d77",
    "beforeAgreementUpdated(address,address,bytes32,bytes,bytes)": "884d1f40",
    "changeRate(uint96)": "1c8da209",
    "claimStream(uint256)": "898f319c",
    "closeStream(uint256)": "1d1b7b77",
    "deactivateTap()": "48addb5c",
    "drainTap(uint256)": "42f5c618",
    "emergencyCloseStreams(address)": "6cb99967",
    "initialize(string,address,address,uint96,address,address,address)": "927e3520",
    "isCritical()": "2e40bfac",
    "name()": "06fdde03",
    "ratePerNFT()": "1c17e2d6",
    "reinstateStreams(address)": "bcefe610",
    "tokenIdHolders(uint256)": "57558246",
    "topUpTap(uint256)": "bde5880e"
  },
  "id": 94
}