{
  "abi": [
    {
      "inputs": [],
      "name": "BulkClaimsPaused",
      "type": "error"
    },
    {
      "inputs": [
        {
          "internalType": "address",
          "name": "holder",
          "type": "address"
        }
      ],
      "name": "HolderStreamsNotFound",
      "type": "error"
    },
    {
      "inputs": [],
      "name": "IneligibleClaim",
      "type": "error"
    },
    {
      "inputs": [
        {
          "internalType": "address",
          "name": "terminator",
          "type": "address"
        },
        {
          "internalType": "address",
          "name": "holder",
          "type": "address"
        },
        {
          "internalType": "uint256",
          "name": "currTapBalance",
          "type": "uint256"
        },
        {
          "internalType": "uint256",
          "name": "minReqTapBalance",
          "type": "uint256"
        }
      ],
      "name": "NoEmergency",
      "type": "error"
    },
    {
      "inputs": [
        {
          "internalType": "address",
          "name": "terminator",
          "type": "address"
        }
      ],
      "name": "NotHost",
      "type": "error"
    },
    {
      "inputs": [
        {
          "internalType": "uint256",
          "name": "tokenId",
          "type": "uint256"
        }
      ],
      "name": "NotOwnerOfNFT",
      "type": "error"
    },
    {
      "inputs": [],
      "name": "NotTapCreator",
      "type": "error"
    },
    {
      "inputs": [
        {
          "internalType": "int96",
          "name": "ratePerNFT",
          "type": "int96"
        }
      ],
      "name": "SameTapRate",
      "type": "error"
    },
    {
      "inputs": [
        {
          "internalType": "uint256",
          "name": "tokenId",
          "type": "uint256"
        }
      ],
      "name": "StreamAlreadyClaimed",
      "type": "error"
    },
    {
      "inputs": [
        {
          "internalType": "uint256",
          "name": "tokenId",
          "type": "uint256"
        }
      ],
      "name": "StreamNotFound",
      "type": "error"
    },
    {
      "inputs": [
        {
          "internalType": "address",
          "name": "prevHolder",
          "type": "address"
        },
        {
          "internalType": "address",
          "name": "currHolder",
          "type": "address"
        }
      ],
      "name": "StreamsAdjustmentsFailed",
      "type": "error"
    },
    {
      "inputs": [],
      "name": "TapActive",
      "type": "error"
    },
    {
      "inputs": [
        {
          "internalType": "uint256",
          "name": "currTapBalance",
          "type": "uint256"
        },
        {
          "internalType": "uint256",
          "name": "reqTapBalance",
          "type": "uint256"
        }
      ],
      "name": "TapBalanceInsufficient",
      "type": "error"
    },
    {
      "inputs": [],
      "name": "TapExists",
      "type": "error"
    },
    {
      "inputs": [],
      "name": "TapInactive",
      "type": "error"
    },
    {
      "inputs": [
        {
          "internalType": "uint256",
          "name": "remainingAmount",
          "type": "uint256"
        },
        {
          "internalType": "uint256",
          "name": "minAmountRequried",
          "type": "uint256"
        }
      ],
      "name": "TapMinAmountLimit",
      "type": "error"
    },
    {
      "inputs": [],
      "name": "TapNotFound",
      "type": "error"
    },
    {
      "inputs": [],
      "name": "TransferFailed",
      "type": "error"
    },
    {
      "inputs": [
        {
          "internalType": "uint256",
          "name": "tokenId",
          "type": "uint256"
        },
        {
          "internalType": "address",
          "name": "terminator",
          "type": "address"
        }
      ],
      "name": "WrongStreamCloseAttempt",
      "type": "error"
    },
    {
      "inputs": [],
      "name": "ZeroAddress",
      "type": "error"
    },
    {
      "anonymous": false,
      "inputs": [
        {
          "indexed": true,
          "internalType": "address",
          "name": "holder",
          "type": "address"
        }
      ],
      "name": "EmergencyCloseInitiated",
      "type": "event"
    },
    {
      "anonymous": false,
      "inputs": [
        {
          "indexed": false,
          "internalType": "uint8",
          "name": "version",
          "type": "uint8"
        }
      ],
      "name": "Initialized",
      "type": "event"
    },
    {
      "anonymous": false,
      "inputs": [
        {
          "indexed": true,
          "internalType": "address",
          "name": "claimant",
          "type": "address"
        },
        {
          "indexed": false,
          "internalType": "uint256",
          "name": "tokenId",
          "type": "uint256"
        }
      ],
      "name": "StreamClaimedById",
      "type": "event"
    },
    {
      "anonymous": false,
      "inputs": [
        {
          "indexed": true,
          "internalType": "address",
          "name": "claimant",
          "type": "address"
        },
        {
          "indexed": false,
          "internalType": "int96",
          "name": "oldStreamRate",
          "type": "int96"
        },
        {
          "indexed": false,
          "internalType": "int96",
          "name": "newStreamRate",
          "type": "int96"
        }
      ],
      "name": "StreamsClaimed",
      "type": "event"
    },
    {
      "anonymous": false,
      "inputs": [],
      "name": "TapActivated",
      "type": "event"
    },
    {
      "anonymous": false,
      "inputs": [
        {
          "indexed": false,
          "internalType": "string",
          "name": "name",
          "type": "string"
        },
        {
          "indexed": false,
          "internalType": "address",
          "name": "creator",
          "type": "address"
        },
        {
          "indexed": true,
          "internalType": "address",
          "name": "nft",
          "type": "address"
        },
        {
          "indexed": true,
          "internalType": "address",
          "name": "superToken",
          "type": "address"
        },
        {
          "indexed": false,
          "internalType": "uint96",
          "name": "ratePerNFT",
          "type": "uint96"
        }
      ],
      "name": "TapCreated",
      "type": "event"
    },
    {
      "anonymous": false,
      "inputs": [],
      "name": "TapDeactivated",
      "type": "event"
    },
    {
      "anonymous": false,
      "inputs": [
        {
          "indexed": true,
          "internalType": "address",
          "name": "streamToken",
          "type": "address"
        },
        {
          "indexed": false,
          "internalType": "uint256",
          "name": "drainAmount",
          "type": "uint256"
        },
        {
          "indexed": false,
          "internalType": "uint256",
          "name": "remainingAmount",
          "type": "uint256"
        }
      ],
      "name": "TapDrained",
      "type": "event"
    },
    {
      "anonymous": false,
      "inputs": [
        {
          "indexed": false,
          "internalType": "int96",
          "name": "oldRatePerNFT",
          "type": "int96"
        },
        {
          "indexed": false,
          "internalType": "int96",
          "name": "newRatePerNFT",
          "type": "int96"
        }
      ],
      "name": "TapRateChanged",
      "type": "event"
    },
    {
      "anonymous": false,
      "inputs": [
        {
          "indexed": true,
          "internalType": "address",
          "name": "superToken",
          "type": "address"
        },
        {
          "indexed": false,
          "internalType": "uint256",
          "name": "amount",
          "type": "uint256"
        }
      ],
      "name": "TapToppedUp",
      "type": "event"
    },
    {
      "inputs": [],
      "name": "CREATOR",
      "outputs": [
        {
          "internalType": "address",
          "name": "",
          "type": "address"
        }
      ],
      "stateMutability": "view",
      "type": "function"
    },
    {
      "inputs": [],
      "name": "HOST",
      "outputs": [
        {
          "internalType": "address",
          "name": "",
          "type": "address"
        }
      ],
      "stateMutability": "view",
      "type": "function"
    },
    {
      "inputs": [],
      "name": "NFT",
      "outputs": [
        {
          "internalType": "contract IERC721",
          "name": "",
          "type": "address"
        }
      ],
      "stateMutability": "view",
      "type": "function"
    },
    {
      "inputs": [],
      "name": "STREAM_TOKEN",
      "outputs": [
        {
          "internalType": "contract ISuperToken",
          "name": "",
          "type": "address"
        }
      ],
      "stateMutability": "view",
      "type": "function"
    },
    {
      "inputs": [],
      "name": "activateTap",
      "outputs": [],
      "stateMutability": "nonpayable",
      "type": "function"
    },
    {
      "inputs": [],
      "name": "active",
      "outputs": [
        {
          "internalType": "bool",
          "name": "",
          "type": "bool"
        }
      ],
      "stateMutability": "view",
      "type": "function"
    },
    {
      "inputs": [
        {
          "internalType": "contract ISuperToken",
          "name": "",
          "type": "address"
        },
        {
          "internalType": "address",
          "name": "",
          "type": "address"
        },
        {
          "internalType": "bytes32",
          "name": "",
          "type": "bytes32"
        },
        {
          "internalType": "bytes",
          "name": "",
          "type": "bytes"
        },
        {
          "internalType": "bytes",
          "name": "",
          "type": "bytes"
        },
        {
          "internalType": "bytes",
          "name": "",
          "type": "bytes"
        }
      ],
      "name": "afterAgreementCreated",
      "outputs": [
        {
          "internalType": "bytes",
          "name": "",
          "type": "bytes"
        }
      ],
      "stateMutability": "nonpayable",
      "type": "function"
    },
    {
      "inputs": [
        {
          "internalType": "contract ISuperToken",
          "name": "",
          "type": "address"
        },
        {
          "internalType": "address",
          "name": "",
          "type": "address"
        },
        {
          "internalType": "bytes32",
          "name": "",
          "type": "bytes32"
        },
        {
          "internalType": "bytes",
          "name": "_agreementData",
          "type": "bytes"
        },
        {
          "internalType": "bytes",
          "name": "",
          "type": "bytes"
        },
        {
          "internalType": "bytes",
          "name": "_ctx",
          "type": "bytes"
        }
      ],
      "name": "afterAgreementTerminated",
      "outputs": [
        {
          "internalType": "bytes",
          "name": "_newCtx",
          "type": "bytes"
        }
      ],
      "stateMutability": "nonpayable",
      "type": "function"
    },
    {
      "inputs": [
        {
          "internalType": "contract ISuperToken",
          "name": "",
          "type": "address"
        },
        {
          "internalType": "address",
          "name": "",
          "type": "address"
        },
        {
          "internalType": "bytes32",
          "name": "",
          "type": "bytes32"
        },
        {
          "internalType": "bytes",
          "name": "",
          "type": "bytes"
        },
        {
          "internalType": "bytes",
          "name": "",
          "type": "bytes"
        },
        {
          "internalType": "bytes",
          "name": "",
          "type": "bytes"
        }
      ],
      "name": "afterAgreementUpdated",
      "outputs": [
        {
          "internalType": "bytes",
          "name": "",
          "type": "bytes"
        }
      ],
      "stateMutability": "nonpayable",
      "type": "function"
    },
    {
      "inputs": [
        {
          "internalType": "contract ISuperToken",
          "name": "",
          "type": "address"
        },
        {
          "internalType": "address",
          "name": "",
          "type": "address"
        },
        {
          "internalType": "bytes32",
          "name": "",
          "type": "bytes32"
        },
        {
          "internalType": "bytes",
          "name": "",
          "type": "bytes"
        },
        {
          "internalType": "bytes",
          "name": "",
          "type": "bytes"
        }
      ],
      "name": "beforeAgreementCreated",
      "outputs": [
        {
          "internalType": "bytes",
          "name": "",
          "type": "bytes"
        }
      ],
      "stateMutability": "view",
      "type": "function"
    },
    {
      "inputs": [
        {
          "internalType": "contract ISuperToken",
          "name": "",
          "type": "address"
        },
        {
          "internalType": "address",
          "name": "",
          "type": "address"
        },
        {
          "internalType": "bytes32",
          "name": "",
          "type": "bytes32"
        },
        {
          "internalType": "bytes",
          "name": "",
          "type": "bytes"
        },
        {
          "internalType": "bytes",
          "name": "",
          "type": "bytes"
        }
      ],
      "name": "beforeAgreementTerminated",
      "outputs": [
        {
          "internalType": "bytes",
          "name": "",
          "type": "bytes"
        }
      ],
      "stateMutability": "view",
      "type": "function"
    },
    {
      "inputs": [
        {
          "internalType": "contract ISuperToken",
          "name": "",
          "type": "address"
        },
        {
          "internalType": "address",
          "name": "",
          "type": "address"
        },
        {
          "internalType": "bytes32",
          "name": "",
          "type": "bytes32"
        },
        {
          "internalType": "bytes",
          "name": "",
          "type": "bytes"
        },
        {
          "internalType": "bytes",
          "name": "",
          "type": "bytes"
        }
      ],
      "name": "beforeAgreementUpdated",
      "outputs": [
        {
          "internalType": "bytes",
          "name": "",
          "type": "bytes"
        }
      ],
      "stateMutability": "view",
      "type": "function"
    },
    {
      "inputs": [
        {
          "internalType": "uint96",
          "name": "_newRatePerNFT",
          "type": "uint96"
        }
      ],
      "name": "changeRate",
      "outputs": [],
      "stateMutability": "nonpayable",
      "type": "function"
    },
    {
      "inputs": [
        {
          "internalType": "uint256",
          "name": "_tokenId",
          "type": "uint256"
        }
      ],
      "name": "claimStream",
      "outputs": [],
      "stateMutability": "nonpayable",
      "type": "function"
    },
    {
      "inputs": [
        {
          "internalType": "uint256",
          "name": "_tokenId",
          "type": "uint256"
        }
      ],
      "name": "closeStream",
      "outputs": [],
      "stateMutability": "nonpayable",
      "type": "function"
    },
    {
      "inputs": [],
      "name": "deactivateTap",
      "outputs": [],
      "stateMutability": "nonpayable",
      "type": "function"
    },
    {
      "inputs": [
        {
          "internalType": "uint256",
          "name": "_amount",
          "type": "uint256"
        }
      ],
      "name": "drainTap",
      "outputs": [],
      "stateMutability": "nonpayable",
      "type": "function"
    },
    {
      "inputs": [
        {
          "internalType": "address",
          "name": "_holder",
          "type": "address"
        }
      ],
      "name": "emergencyCloseStreams",
      "outputs": [],
      "stateMutability": "nonpayable",
      "type": "function"
    },
    {
      "inputs": [
        {
          "internalType": "string",
          "name": "_name",
          "type": "string"
        },
        {
          "internalType": "address",
          "name": "_host",
          "type": "address"
        },
        {
          "internalType": "address",
          "name": "_creator",
          "type": "address"
        },
        {
          "internalType": "uint96",
          "name": "_ratePerNFT",
          "type": "uint96"
        },
        {
          "internalType": "contract IcfaV1Forwarder",
          "name": "_cfaV1Forwarder",
          "type": "address"
        },
        {
          "internalType": "contract IERC721",
          "name": "_nft",
          "type": "address"
        },
        {
          "internalType": "contract ISuperToken",
          "name": "_streamToken",
          "type": "address"
        }
      ],
      "name": "initialize",
      "outputs": [],
      "stateMutability": "nonpayable",
      "type": "function"
    },
    {
      "inputs": [],
      "name": "name",
      "outputs": [
        {
          "internalType": "string",
          "name": "",
          "type": "string"
        }
      ],
      "stateMutability": "view",
      "type": "function"
    },
    {
      "inputs": [],
      "name": "ratePerNFT",
      "outputs": [
        {
          "internalType": "int96",
          "name": "",
          "type": "int96"
        }
      ],
      "stateMutability": "view",
      "type": "function"
    },
    {
      "inputs": [
        {
          "internalType": "uint256",
          "name": "_amount",
          "type": "uint256"
        }
      ],
      "name": "topUpTap",
      "outputs": [],
      "stateMutability": "nonpayable",
      "type": "function"
    }
  ],
  "bytecode": {
    "object": "0x608060405234801561001057600080fd5b506124aa806100206000396000f3fe608060405234801561001057600080fd5b50600436106101425760003560e01c80635f9e7d77116100b85780638cf799991161007c5780638cf79999146102af578063927e3520146102b7578063bde5880e146102ca578063d86ed3e5146102dd578063dcc76d1f146102f0578063e4fbb6091461030357600080fd5b80635f9e7d77146102505780636cb99967146102635780637c0b8de214610276578063884d1f4014610289578063898f319c1461029c57600080fd5b8063230dbd291161010a578063230dbd29146101cb57806330d9c915146101de57806342f5c618146101f157806348addb5c1461020457806349f289dc1461020c57806353c11f991461023d57600080fd5b806302fb0c5e1461014757806306fdde03146101695780631c17e2d61461017e5780631c8da209146101a35780631d1b7b77146101b8575b600080fd5b6005546101549060ff1681565b60405190151581526020015b60405180910390f35b610171610316565b6040516101609190611cc1565b600554610190906101009004600b0b81565b604051600b9190910b8152602001610160565b6101b66101b1366004611cf7565b6103a4565b005b6101b66101c6366004611d12565b610474565b6101716101d9366004611d97565b610748565b6101716101ec366004611e62565b6107aa565b6101b66101ff366004611d12565b61080d565b6101b6610a82565b600054610225906201000090046001600160a01b031681565b6040516001600160a01b039091168152602001610160565b61017161024b366004611d97565b610b0a565b61017161025e366004611e62565b610bb9565b6101b6610271366004611f01565b610c20565b600354610225906001600160a01b031681565b610171610297366004611e62565b610e28565b6101b66102aa366004611d12565b610e8b565b6101b66114ce565b6101b66102c5366004611f34565b611559565b6101b66102d8366004611d12565b611753565b6101716102eb366004611d97565b61185f565b600254610225906001600160a01b031681565b600154610225906001600160a01b031681565b6004805461032390612049565b80601f016020809104026020016040519081016040528092919081815260200182805461034f90612049565b801561039c5780601f106103715761010080835404028352916020019161039c565b820191906000526020600020905b81548152906001019060200180831161037f57829003601f168201915b505050505081565b6001546001600160a01b031633146103cf5760405163a17205b560e01b815260040160405180910390fd5b6005546101009004600b90810b90829081900b820361040c5760405163245deae960e11b8152600b82900b60048201526024015b60405180910390fd5b600580546cffffffffffffffffffffffff0019166101006001600160601b0386160217905560408051600b84810b825283900b60208201527f3f4f15794d3d6909eeffd3c852e9ade086118bf01ed932cd7c40fca47501b6fb910160405180910390a1505050565b6000818152600760205260409020546001600160a01b03168015806104c057506001600160a01b038116600090815260086020908152604080832085845260010190915290205460ff16155b156104e1576040516347e7ef2160e11b815260048101839052602401610403565b6002546006546003546040516331a9108f60e11b8152600481018690526001600160a01b0393841693928316926000921690636352211e90602401602060405180830381865afa158015610539573d6000803e3d6000fd5b505050506040513d601f19601f8201168201806040525081019061055d9190612083565b90506001600160a01b03811633148061058057506001546001600160a01b031633145b1561071f57604051630ec5b29360e11b81526001600160a01b038481166004830152306024830152858116604483015260009190841690631d8b652690606401602060405180830381865afa1580156105dd573d6000803e3d6000fd5b505050506040513d601f19601f8201168201806040525081019061060191906120a0565b6001600160a01b038616600090815260086020526040812054600554929350600b90810b9261063f91879189918b918791610100909104900b6118c1565b600089815260076020908152604080832080546001600160a01b03191690556001600160a01b038b81168452600883528184208d8552600101909252909120805460ff191690559091508516630c03399187308a61069f8a848a896119a3565b6106b2576106ad87896120d9565b6106b4565b855b6040518563ffffffff1660e01b81526004016106d3949392919061210c565b6020604051808303816000875af11580156106f2573d6000803e3d6000fd5b505050506040513d601f19601f820116820180604052508101906107169190612153565b50505050610741565b60405163791c605560e01b815260048101869052336024820152604401610403565b5050505050565b60405162461bcd60e51b815260206004820152602e60248201527f556e737570706f727465642063616c6c6261636b202d2041667465722041677260448201526d19595b595b9d08155c19185d195960921b6064820152606090608401610403565b60405162461bcd60e51b815260206004820152602f60248201527f556e737570706f727465642063616c6c6261636b202d204265666f726520416760448201526e1c99595b595b9d0810dc99585d1959608a1b6064820152606090608401610403565b6001546001600160a01b031633146108385760405163a17205b560e01b815260040160405180910390fd5b6006546002546040516322c904d960e01b81526001600160a01b0391821660048201819052306024830152919092169160009083906322c904d990604401602060405180830381865afa158015610893573d6000803e3d6000fd5b505050506040513d601f19601f820116820180604052508101906108b791906120a0565b6040516370a0823160e01b81523060048201529091506000906001600160a01b038416906370a0823190602401602060405180830381865afa158015610901573d6000803e3d6000fd5b505050506040513d601f19601f820116820180604052508101906109259190612175565b905084811015610952576040516346b73ad560e01b81526004810182905260248101869052604401610403565b600061096c610964846201518061218e565b600b0b611b67565b9050600061097a8784612223565b9050808210156109a657604051623bc4f560e01b81526004810182905260248101839052604401610403565b60405163a9059cbb60e01b8152336004820152602481018890526001600160a01b0386169063a9059cbb906044016020604051808303816000875af11580156109f3573d6000803e3d6000fd5b505050506040513d601f19601f82011682018060405250810190610a179190612153565b610a34576040516312171d8360e31b815260040160405180910390fd5b60408051888152602081018390526001600160a01b038716917f4a8ab7bc7b0ca9f36a3042b149f077408a1e0342c4dd28c99d24c34767e6cdfd91015b60405180910390a250505050505050565b6001546001600160a01b03163314610aad5760405163a17205b560e01b815260040160405180910390fd5b60055460ff161515600003610ad5576040516324ee1ca960e01b815260040160405180910390fd5b6005805460ff191690556040517f3a15dda76c298a039674b2287c867ba88f2236e2d01b54ba865ead296570386490600090a1565b6000546060906201000090046001600160a01b03163314610b4057604051635614fa7760e01b8152336004820152602401610403565b82828080601f0160208091040260200160405190810160405280939291908181526020018383808284376000920182905250939450610b859250505087890189612236565b506001600160a01b0316600090815260086020526040902080546001600160601b0319169055509998505050505050505050565b60405162461bcd60e51b815260206004820152603360248201527f556e737570706f727465642063616c6c6261636b202d20204265666f7265204160448201527219dc99595b595b9d0815195c9b5a5b985d1959606a1b6064820152606090608401610403565b6006546002546001546001600160a01b039283169291821691163314610d7b576040516322c904d960e01b81526001600160a01b038281166004830152306024830152600091908416906322c904d990604401602060405180830381865afa158015610c90573d6000803e3d6000fd5b505050506040513d601f19601f82011682018060405250810190610cb491906120a0565b6040516370a0823160e01b81523060048201529091506000906001600160a01b038416906370a0823190602401602060405180830381865afa158015610cfe573d6000803e3d6000fd5b505050506040513d601f19601f82011682018060405250810190610d229190612175565b90506000610d36610964846201518061218e565b9050808210610d775760405163482bfc5760e01b81523360048201526001600160a01b03871660248201526044810183905260648101829052608401610403565b5050505b604051635a5999e360e11b81526001600160a01b0383169063b4b333c690610dab9084903090889060040161226f565b6020604051808303816000875af1158015610dca573d6000803e3d6000fd5b505050506040513d601f19601f82011682018060405250810190610dee9190612153565b506040516001600160a01b038416907f15ed2cc902282ba6d45db1192488213eaca35dffb37edec22aacf8cbf408c24e90600090a2505050565b60405162461bcd60e51b815260206004820152602f60248201527f556e737570706f727465642063616c6c6261636b202d204265666f726520416760448201526e1c99595b595b9d081d5c19185d1959608a1b6064820152606090608401610403565b60055460ff16610eae576040516324ee1ca960e01b815260040160405180910390fd5b6003546000828152600760205260408120546001600160a01b0392831692168015801590610ef9575033600090815260086020908152604080832087845260010190915290205460ff165b610f04576000610f06565b805b6040516331a9108f60e11b8152600481018690529092503391506001600160a01b03841690636352211e90602401602060405180830381865afa158015610f51573d6000803e3d6000fd5b505050506040513d601f19601f82011682018060405250810190610f759190612083565b6001600160a01b031614610f9f5760405163ad88647160e01b815260048101849052602401610403565b6001600160a01b03811633148015610fd4575033600090815260086020908152604080832086845260010190915290205460ff165b15610ff5576040516344196afd60e11b815260048101849052602401610403565b6006546002546005546040516322c904d960e01b81526001600160a01b03928316600482018190523060248301529290931692610100909104600b0b9060009084906322c904d990604401602060405180830381865afa15801561105d573d6000803e3d6000fd5b505050506040513d601f19601f8201168201806040525081019061108191906120a0565b90506001600160a01b0385163314611311576001600160a01b0385166000908152600860205260408082205433835290822054600b91820b92910b906110ca87878a86896118c1565b905060006110db888833868a611bbd565b905060006110e982846122b0565b90506110f7898988846119a3565b611125576040516333c17a3b60e01b81526001600160a01b038b166004820152336024820152604401610403565b600b85900b156111ed57604051630c03399160e01b81526001600160a01b038a1690630c03399190611161908b9030908f90899060040161210c565b6020604051808303816000875af1158015611180573d6000803e3d6000fd5b505050506040513d601f19601f820116820180604052508101906111a49190612153565b506001600160a01b038a16600090815260086020908152604080832080546001600160601b0319166001600160601b038c161781558f84526001019091529020805460ff191690555b600b84900b611271576040516370aa9b5b60e11b81526001600160a01b038a169063e15536b690611228908b9030903390889060040161210c565b6020604051808303816000875af1158015611247573d6000803e3d6000fd5b505050506040513d601f19601f8201168201806040525081019061126b9190612153565b506112e8565b604051630c03399160e01b81526001600160a01b038a1690630c033991906112a3908b9030903390889060040161210c565b6020604051808303816000875af11580156112c2573d6000803e3d6000fd5b505050506040513d601f19601f820116820180604052508101906112e69190612153565b505b505050600089815260076020526040902080546001600160a01b03191633179055506114349050565b33600081815260086020526040812054600b0b9161133490879087908588611bbd565b9050600b82900b6113ba576040516370aa9b5b60e11b81526001600160a01b0387169063e15536b69061137190889030903390879060040161210c565b6020604051808303816000875af1158015611390573d6000803e3d6000fd5b505050506040513d601f19601f820116820180604052508101906113b49190612153565b50611431565b604051630c03399160e01b81526001600160a01b03871690630c033991906113ec90889030903390879060040161210c565b6020604051808303816000875af115801561140b573d6000803e3d6000fd5b505050506040513d601f19601f8201168201806040525081019061142f9190612153565b505b50505b3360008181526008602081815260408084208c855260018082018452918520805460ff191690921790915593909252905254600b83810b91900b1461149c5733600090815260086020526040902080546001600160601b0319166001600160601b0384161790555b60405187815233907f90a5a57b652df5b9c4b1245c11aee7c6ba100d224871367c81229f8833b3f29c90602001610a71565b6001546001600160a01b031633146114f95760405163a17205b560e01b815260040160405180910390fd5b60055460ff161515600103611521576040516321ebf19760e11b815260040160405180910390fd5b6005805460ff191660011790556040517f095fdebb45b4f1fd3f76ce7a07f113fafa6da5fcd60d6983ab22693fe29d1ecd90600090a1565b600054610100900460ff16158080156115795750600054600160ff909116105b806115935750303b158015611593575060005460ff166001145b6115f65760405162461bcd60e51b815260206004820152602e60248201527f496e697469616c697a61626c653a20636f6e747261637420697320616c72656160448201526d191e481a5b9a5d1a585b1a5e995960921b6064820152608401610403565b6000805460ff191660011790558015611619576000805461ff0019166101001790555b6000805462010000600160b01b031916620100006001600160a01b038a81169190910291909117909155600680546001600160a01b03199081168784161790915560028054821685841617905560018054821689841617905560038054909116918516919091179055600580546cffffffffffffffffffffffff0019166101006001600160601b0388160217905560046116b3898261232c565b50816001600160a01b0316836001600160a01b03167f5aa0d639432ea7da3976c64fbf2d61e924cb399d52d50bf897a13ab2054aa6cd8a89896040516116fb939291906123ec565b60405180910390a38015611749576000805461ff0019169055604051600181527f7f26b83ff96e1f2b6a682f133852f6798a09c465da95921460cefb38474024989060200160405180910390a15b5050505050505050565b6001546001600160a01b0316331461177e5760405163a17205b560e01b815260040160405180910390fd5b6002546040516323b872dd60e01b8152336004820152306024820152604481018390526001600160a01b039091169081906323b872dd906064016020604051808303816000875af11580156117d7573d6000803e3d6000fd5b505050506040513d601f19601f820116820180604052508101906117fb9190612153565b611818576040516312171d8360e31b815260040160405180910390fd5b806001600160a01b03167f6af4f348b0a94b3ecbd7d24059de3fd8ffb635abb46124d9effb1f88a995c7cc8360405161185391815260200190565b60405180910390a25050565b60405162461bcd60e51b815260206004820152602e60248201527f556e737570706f727465642063616c6c6261636b202d2041667465722041677260448201526d19595b595b9d0810dc99585d195960921b6064820152606090608401610403565b6001600160a01b038316600090815260086020526040812054600b90810b9084900b1561198e57604051630ec5b29360e11b81526001600160a01b0387811660048301523060248301528681166044830152881690631d8b652690606401602060405180830381865afa15801561193c573d6000803e3d6000fd5b505050506040513d601f19601f8201168201806040525081019061196091906120a0565b9050600061196e8583612428565b90508361197c6001836120d9565b611986919061218e565b925050611998565b600091505061199a565b505b95945050505050565b600081600b0b83600b0b1215611b5b576040516370a0823160e01b81523060048201526000906001600160a01b038616906370a0823190602401602060405180830381865afa1580156119fa573d6000803e3d6000fd5b505050506040513d601f19601f82011682018060405250810190611a1e9190612175565b6040516309f0b49560e01b81526001600160a01b038781166004830152600b87900b60248301529192506000918816906309f0b49590604401602060405180830381865afa158015611a74573d6000803e3d6000fd5b505050506040513d601f19601f82011682018060405250810190611a989190612175565b6040516309f0b49560e01b81526001600160a01b038881166004830152600b87900b60248301529192506000918916906309f0b49590604401602060405180830381865afa158015611aee573d6000803e3d6000fd5b505050506040513d601f19601f82011682018060405250810190611b129190612175565b90506000611b26610964876201518061218e565b90506000611b348484612223565b905081611b418287612223565b1115611b5557600095505050505050611b5f565b50505050505b5060015b949350505050565b600080821215611bb95760405162461bcd60e51b815260206004820181905260248201527f53616665436173743a2076616c7565206d75737420626520706f7369746976656044820152606401610403565b5090565b6000600b83900b15611c7457604051630ec5b29360e11b81526001600160a01b038681166004830152306024830152858116604483015260009190881690631d8b652690606401602060405180830381865afa158015611c21573d6000803e3d6000fd5b505050506040513d601f19601f82011682018060405250810190611c4591906120a0565b90506000611c538583612428565b905083611c618260016122b0565b611c6b919061218e565b9250505061199a565b508061199a565b6000815180845260005b81811015611ca157602081850181015186830182015201611c85565b506000602082860101526020601f19601f83011685010191505092915050565b602081526000611cd46020830184611c7b565b9392505050565b80356001600160601b0381168114611cf257600080fd5b919050565b600060208284031215611d0957600080fd5b611cd482611cdb565b600060208284031215611d2457600080fd5b5035919050565b6001600160a01b0381168114611d4057600080fd5b50565b8035611cf281611d2b565b60008083601f840112611d6057600080fd5b50813567ffffffffffffffff811115611d7857600080fd5b602083019150836020828501011115611d9057600080fd5b9250929050565b600080600080600080600080600060c08a8c031215611db557600080fd5b8935611dc081611d2b565b985060208a0135611dd081611d2b565b975060408a0135965060608a013567ffffffffffffffff80821115611df457600080fd5b611e008d838e01611d4e565b909850965060808c0135915080821115611e1957600080fd5b611e258d838e01611d4e565b909650945060a08c0135915080821115611e3e57600080fd5b50611e4b8c828d01611d4e565b915080935050809150509295985092959850929598565b600080600080600080600060a0888a031215611e7d57600080fd5b8735611e8881611d2b565b96506020880135611e9881611d2b565b955060408801359450606088013567ffffffffffffffff80821115611ebc57600080fd5b611ec88b838c01611d4e565b909650945060808a0135915080821115611ee157600080fd5b50611eee8a828b01611d4e565b989b979a50959850939692959293505050565b600060208284031215611f1357600080fd5b8135611cd481611d2b565b634e487b7160e01b600052604160045260246000fd5b600080600080600080600060e0888a031215611f4f57600080fd5b873567ffffffffffffffff80821115611f6757600080fd5b818a0191508a601f830112611f7b57600080fd5b813581811115611f8d57611f8d611f1e565b604051601f8201601f19908116603f01168101908382118183101715611fb557611fb5611f1e565b816040528281528d6020848701011115611fce57600080fd5b82602086016020830137600060208483010152809b505050505050611ff560208901611d43565b955061200360408901611d43565b945061201160608901611cdb565b935061201f60808901611d43565b925061202d60a08901611d43565b915061203b60c08901611d43565b905092959891949750929550565b600181811c9082168061205d57607f821691505b60208210810361207d57634e487b7160e01b600052602260045260246000fd5b50919050565b60006020828403121561209557600080fd5b8151611cd481611d2b565b6000602082840312156120b257600080fd5b815180600b0b8114611cd457600080fd5b634e487b7160e01b600052601160045260246000fd5b600b82810b9082900b0360016001605f1b0319811260016001605f1b0382131715612106576121066120c3565b92915050565b6001600160a01b039485168152928416602084015292166040820152600b9190910b606082015260a06080820181905260029082015261060f60f31b60c082015260e00190565b60006020828403121561216557600080fd5b81518015158114611cd457600080fd5b60006020828403121561218757600080fd5b5051919050565b600081600b0b83600b0b60016001605f1b036000821360008413838304851182821616156121be576121be6120c3565b60016001605f1b031960008512828116878305871216156121e1576121e16120c3565b600087129250858205871284841616156121fd576121fd6120c3565b85850587128184161615612213576122136120c3565b5050509290910295945050505050565b81810381811115612106576121066120c3565b6000806040838503121561224957600080fd5b823561225481611d2b565b9150602083013561226481611d2b565b809150509250929050565b6001600160a01b03848116825283811660208301528216604082015260806060820181905260029082015261060f60f31b60a0820152600060c0820161199a565b600b81810b9083900b0160016001605f1b03811360016001605f1b031982121715612106576121066120c3565b601f82111561232757600081815260208120601f850160051c810160208610156123045750805b601f850160051c820191505b8181101561232357828155600101612310565b5050505b505050565b815167ffffffffffffffff81111561234657612346611f1e565b61235a816123548454612049565b846122dd565b602080601f83116001811461238f57600084156123775750858301515b600019600386901b1c1916600185901b178555612323565b600085815260208120601f198616915b828110156123be5788860151825594840194600190910190840161239f565b50858210156123dc5787850151600019600388901b60f8161c191681555b5050505050600190811b01905550565b6060815260006123ff6060830186611c7b565b6001600160a01b03949094166020830152506001600160601b0391909116604090910152919050565b600081600b0b83600b0b8061244d57634e487b7160e01b600052601260045260246000fd5b60016001605f1b031982146000198214161561246b5761246b6120c3565b9005939250505056fea2646970667358221220e62ea5f5e7bf92b19b2619cf16d110b1db04202aff4f1f6f2b6ede08bc7ccdb064736f6c63430008100033",
    "linkReferences": {}
  },
  "methodIdentifiers": {
    "CREATOR()": "e4fbb609",
    "HOST()": "49f289dc",
    "NFT()": "7c0b8de2",
    "STREAM_TOKEN()": "dcc76d1f",
    "activateTap()": "8cf79999",
    "active()": "02fb0c5e",
    "afterAgreementCreated(address,address,bytes32,bytes,bytes,bytes)": "d86ed3e5",
    "afterAgreementTerminated(address,address,bytes32,bytes,bytes,bytes)": "53c11f99",
    "afterAgreementUpdated(address,address,bytes32,bytes,bytes,bytes)": "230dbd29",
    "beforeAgreementCreated(address,address,bytes32,bytes,bytes)": "30d9c915",
    "beforeAgreementTerminated(address,address,bytes32,bytes,bytes)": "5f9e7d77",
    "beforeAgreementUpdated(address,address,bytes32,bytes,bytes)": "884d1f40",
    "changeRate(uint96)": "1c8da209",
    "claimStream(uint256)": "898f319c",
    "closeStream(uint256)": "1d1b7b77",
    "deactivateTap()": "48addb5c",
    "drainTap(uint256)": "42f5c618",
    "emergencyCloseStreams(address)": "6cb99967",
    "initialize(string,address,address,uint96,address,address,address)": "927e3520",
    "name()": "06fdde03",
    "ratePerNFT()": "1c17e2d6",
    "topUpTap(uint256)": "bde5880e"
  },
  "id": 24
}