{
  "abi": [
    {
      "inputs": [],
      "name": "BulkClaimsPaused",
      "type": "error"
    },
    {
      "inputs": [
        {
          "internalType": "address",
          "name": "holder",
          "type": "address"
        }
      ],
      "name": "HolderStreamsNotFound",
      "type": "error"
    },
    {
      "inputs": [],
      "name": "IneligibleClaim",
      "type": "error"
    },
    {
      "inputs": [
        {
          "internalType": "address",
          "name": "terminator",
          "type": "address"
        },
        {
          "internalType": "address",
          "name": "holder",
          "type": "address"
        },
        {
          "internalType": "uint256",
          "name": "currTapBalance",
          "type": "uint256"
        },
        {
          "internalType": "uint256",
          "name": "minReqTapBalance",
          "type": "uint256"
        }
      ],
      "name": "NoEmergency",
      "type": "error"
    },
    {
      "inputs": [
        {
          "internalType": "address",
          "name": "terminator",
          "type": "address"
        }
      ],
      "name": "NotHost",
      "type": "error"
    },
    {
      "inputs": [
        {
          "internalType": "uint256",
          "name": "tokenId",
          "type": "uint256"
        }
      ],
      "name": "NotOwnerOfNFT",
      "type": "error"
    },
    {
      "inputs": [],
      "name": "NotTapCreator",
      "type": "error"
    },
    {
      "inputs": [
        {
          "internalType": "int96",
          "name": "ratePerNFT",
          "type": "int96"
        }
      ],
      "name": "SameClaimRate",
      "type": "error"
    },
    {
      "inputs": [
        {
          "internalType": "int96",
          "name": "ratePerNFT",
          "type": "int96"
        }
      ],
      "name": "SameTapRate",
      "type": "error"
    },
    {
      "inputs": [
        {
          "internalType": "uint256",
          "name": "tokenId",
          "type": "uint256"
        }
      ],
      "name": "StreamAlreadyClaimed",
      "type": "error"
    },
    {
      "inputs": [
        {
          "internalType": "uint256",
          "name": "tokenId",
          "type": "uint256"
        }
      ],
      "name": "StreamNotFound",
      "type": "error"
    },
    {
      "inputs": [
        {
          "internalType": "address",
          "name": "prevHolder",
          "type": "address"
        },
        {
          "internalType": "address",
          "name": "currHolder",
          "type": "address"
        }
      ],
      "name": "StreamsAdjustmentsFailed",
      "type": "error"
    },
    {
      "inputs": [],
      "name": "TapActive",
      "type": "error"
    },
    {
      "inputs": [
        {
          "internalType": "uint256",
          "name": "currTapBalance",
          "type": "uint256"
        },
        {
          "internalType": "uint256",
          "name": "reqTapBalance",
          "type": "uint256"
        }
      ],
      "name": "TapBalanceInsufficient",
      "type": "error"
    },
    {
      "inputs": [],
      "name": "TapExists",
      "type": "error"
    },
    {
      "inputs": [],
      "name": "TapInactive",
      "type": "error"
    },
    {
      "inputs": [
        {
          "internalType": "uint256",
          "name": "remainingAmount",
          "type": "uint256"
        },
        {
          "internalType": "uint256",
          "name": "minAmountRequried",
          "type": "uint256"
        }
      ],
      "name": "TapMinAmountLimit",
      "type": "error"
    },
    {
      "inputs": [],
      "name": "TapNotFound",
      "type": "error"
    },
    {
      "inputs": [],
      "name": "TransferFailed",
      "type": "error"
    },
    {
      "inputs": [
        {
          "internalType": "uint256",
          "name": "tokenId",
          "type": "uint256"
        },
        {
          "internalType": "address",
          "name": "terminator",
          "type": "address"
        }
      ],
      "name": "WrongStreamCloseAttempt",
      "type": "error"
    },
    {
      "inputs": [],
      "name": "ZeroAddress",
      "type": "error"
    },
    {
      "anonymous": false,
      "inputs": [
        {
          "indexed": true,
          "internalType": "address",
          "name": "holder",
          "type": "address"
        }
      ],
      "name": "EmergencyCloseInitiated",
      "type": "event"
    },
    {
      "anonymous": false,
      "inputs": [
        {
          "indexed": false,
          "internalType": "uint8",
          "name": "version",
          "type": "uint8"
        }
      ],
      "name": "Initialized",
      "type": "event"
    },
    {
      "anonymous": false,
      "inputs": [
        {
          "indexed": true,
          "internalType": "address",
          "name": "claimant",
          "type": "address"
        },
        {
          "indexed": false,
          "internalType": "uint256",
          "name": "tokenId",
          "type": "uint256"
        }
      ],
      "name": "StreamClaimedById",
      "type": "event"
    },
    {
      "anonymous": false,
      "inputs": [
        {
          "indexed": true,
          "internalType": "address",
          "name": "holder",
          "type": "address"
        },
        {
          "indexed": false,
          "internalType": "int96",
          "name": "oldRatePerNFT",
          "type": "int96"
        },
        {
          "indexed": false,
          "internalType": "int96",
          "name": "newRatePerNFT",
          "type": "int96"
        }
      ],
      "name": "StreamsAdjusted",
      "type": "event"
    },
    {
      "anonymous": false,
      "inputs": [
        {
          "indexed": true,
          "internalType": "address",
          "name": "claimant",
          "type": "address"
        },
        {
          "indexed": false,
          "internalType": "int96",
          "name": "oldStreamRate",
          "type": "int96"
        },
        {
          "indexed": false,
          "internalType": "int96",
          "name": "newStreamRate",
          "type": "int96"
        }
      ],
      "name": "StreamsClaimed",
      "type": "event"
    },
    {
      "anonymous": false,
      "inputs": [],
      "name": "TapActivated",
      "type": "event"
    },
    {
      "anonymous": false,
      "inputs": [
        {
          "indexed": false,
          "internalType": "string",
          "name": "name",
          "type": "string"
        },
        {
          "indexed": false,
          "internalType": "address",
          "name": "creator",
          "type": "address"
        },
        {
          "indexed": true,
          "internalType": "address",
          "name": "nft",
          "type": "address"
        },
        {
          "indexed": true,
          "internalType": "address",
          "name": "superToken",
          "type": "address"
        },
        {
          "indexed": false,
          "internalType": "uint96",
          "name": "ratePerNFT",
          "type": "uint96"
        }
      ],
      "name": "TapCreated",
      "type": "event"
    },
    {
      "anonymous": false,
      "inputs": [],
      "name": "TapDeactivated",
      "type": "event"
    },
    {
      "anonymous": false,
      "inputs": [
        {
          "indexed": true,
          "internalType": "address",
          "name": "streamToken",
          "type": "address"
        },
        {
          "indexed": false,
          "internalType": "uint256",
          "name": "drainAmount",
          "type": "uint256"
        },
        {
          "indexed": false,
          "internalType": "uint256",
          "name": "remainingAmount",
          "type": "uint256"
        }
      ],
      "name": "TapDrained",
      "type": "event"
    },
    {
      "anonymous": false,
      "inputs": [
        {
          "indexed": false,
          "internalType": "int96",
          "name": "oldRatePerNFT",
          "type": "int96"
        },
        {
          "indexed": false,
          "internalType": "int96",
          "name": "newRatePerNFT",
          "type": "int96"
        }
      ],
      "name": "TapRateChanged",
      "type": "event"
    },
    {
      "anonymous": false,
      "inputs": [
        {
          "indexed": true,
          "internalType": "address",
          "name": "superToken",
          "type": "address"
        },
        {
          "indexed": false,
          "internalType": "uint256",
          "name": "amount",
          "type": "uint256"
        }
      ],
      "name": "TapToppedUp",
      "type": "event"
    },
    {
      "inputs": [],
      "name": "CREATOR",
      "outputs": [
        {
          "internalType": "address",
          "name": "",
          "type": "address"
        }
      ],
      "stateMutability": "view",
      "type": "function"
    },
    {
      "inputs": [],
      "name": "HOST",
      "outputs": [
        {
          "internalType": "address",
          "name": "",
          "type": "address"
        }
      ],
      "stateMutability": "view",
      "type": "function"
    },
    {
      "inputs": [],
      "name": "NFT",
      "outputs": [
        {
          "internalType": "contract IERC721",
          "name": "",
          "type": "address"
        }
      ],
      "stateMutability": "view",
      "type": "function"
    },
    {
      "inputs": [],
      "name": "STREAM_TOKEN",
      "outputs": [
        {
          "internalType": "contract ISuperToken",
          "name": "",
          "type": "address"
        }
      ],
      "stateMutability": "view",
      "type": "function"
    },
    {
      "inputs": [],
      "name": "activateTap",
      "outputs": [],
      "stateMutability": "nonpayable",
      "type": "function"
    },
    {
      "inputs": [],
      "name": "active",
      "outputs": [
        {
          "internalType": "bool",
          "name": "",
          "type": "bool"
        }
      ],
      "stateMutability": "view",
      "type": "function"
    },
    {
      "inputs": [
        {
          "internalType": "address",
          "name": "_holder",
          "type": "address"
        }
      ],
      "name": "adjustCurrentStreams",
      "outputs": [],
      "stateMutability": "nonpayable",
      "type": "function"
    },
    {
      "inputs": [
        {
          "internalType": "contract ISuperToken",
          "name": "",
          "type": "address"
        },
        {
          "internalType": "address",
          "name": "",
          "type": "address"
        },
        {
          "internalType": "bytes32",
          "name": "",
          "type": "bytes32"
        },
        {
          "internalType": "bytes",
          "name": "",
          "type": "bytes"
        },
        {
          "internalType": "bytes",
          "name": "",
          "type": "bytes"
        },
        {
          "internalType": "bytes",
          "name": "",
          "type": "bytes"
        }
      ],
      "name": "afterAgreementCreated",
      "outputs": [
        {
          "internalType": "bytes",
          "name": "",
          "type": "bytes"
        }
      ],
      "stateMutability": "nonpayable",
      "type": "function"
    },
    {
      "inputs": [
        {
          "internalType": "contract ISuperToken",
          "name": "",
          "type": "address"
        },
        {
          "internalType": "address",
          "name": "",
          "type": "address"
        },
        {
          "internalType": "bytes32",
          "name": "",
          "type": "bytes32"
        },
        {
          "internalType": "bytes",
          "name": "_agreementData",
          "type": "bytes"
        },
        {
          "internalType": "bytes",
          "name": "",
          "type": "bytes"
        },
        {
          "internalType": "bytes",
          "name": "_ctx",
          "type": "bytes"
        }
      ],
      "name": "afterAgreementTerminated",
      "outputs": [
        {
          "internalType": "bytes",
          "name": "_newCtx",
          "type": "bytes"
        }
      ],
      "stateMutability": "nonpayable",
      "type": "function"
    },
    {
      "inputs": [
        {
          "internalType": "contract ISuperToken",
          "name": "",
          "type": "address"
        },
        {
          "internalType": "address",
          "name": "",
          "type": "address"
        },
        {
          "internalType": "bytes32",
          "name": "",
          "type": "bytes32"
        },
        {
          "internalType": "bytes",
          "name": "",
          "type": "bytes"
        },
        {
          "internalType": "bytes",
          "name": "",
          "type": "bytes"
        },
        {
          "internalType": "bytes",
          "name": "",
          "type": "bytes"
        }
      ],
      "name": "afterAgreementUpdated",
      "outputs": [
        {
          "internalType": "bytes",
          "name": "",
          "type": "bytes"
        }
      ],
      "stateMutability": "nonpayable",
      "type": "function"
    },
    {
      "inputs": [
        {
          "internalType": "contract ISuperToken",
          "name": "",
          "type": "address"
        },
        {
          "internalType": "address",
          "name": "",
          "type": "address"
        },
        {
          "internalType": "bytes32",
          "name": "",
          "type": "bytes32"
        },
        {
          "internalType": "bytes",
          "name": "",
          "type": "bytes"
        },
        {
          "internalType": "bytes",
          "name": "",
          "type": "bytes"
        }
      ],
      "name": "beforeAgreementCreated",
      "outputs": [
        {
          "internalType": "bytes",
          "name": "",
          "type": "bytes"
        }
      ],
      "stateMutability": "view",
      "type": "function"
    },
    {
      "inputs": [
        {
          "internalType": "contract ISuperToken",
          "name": "",
          "type": "address"
        },
        {
          "internalType": "address",
          "name": "",
          "type": "address"
        },
        {
          "internalType": "bytes32",
          "name": "",
          "type": "bytes32"
        },
        {
          "internalType": "bytes",
          "name": "",
          "type": "bytes"
        },
        {
          "internalType": "bytes",
          "name": "",
          "type": "bytes"
        }
      ],
      "name": "beforeAgreementTerminated",
      "outputs": [
        {
          "internalType": "bytes",
          "name": "",
          "type": "bytes"
        }
      ],
      "stateMutability": "view",
      "type": "function"
    },
    {
      "inputs": [
        {
          "internalType": "contract ISuperToken",
          "name": "",
          "type": "address"
        },
        {
          "internalType": "address",
          "name": "",
          "type": "address"
        },
        {
          "internalType": "bytes32",
          "name": "",
          "type": "bytes32"
        },
        {
          "internalType": "bytes",
          "name": "",
          "type": "bytes"
        },
        {
          "internalType": "bytes",
          "name": "",
          "type": "bytes"
        }
      ],
      "name": "beforeAgreementUpdated",
      "outputs": [
        {
          "internalType": "bytes",
          "name": "",
          "type": "bytes"
        }
      ],
      "stateMutability": "view",
      "type": "function"
    },
    {
      "inputs": [
        {
          "internalType": "uint96",
          "name": "_newRatePerNFT",
          "type": "uint96"
        }
      ],
      "name": "changeRate",
      "outputs": [],
      "stateMutability": "nonpayable",
      "type": "function"
    },
    {
      "inputs": [
        {
          "internalType": "uint256",
          "name": "_tokenId",
          "type": "uint256"
        }
      ],
      "name": "claimStream",
      "outputs": [],
      "stateMutability": "nonpayable",
      "type": "function"
    },
    {
      "inputs": [
        {
          "internalType": "uint256",
          "name": "_tokenId",
          "type": "uint256"
        }
      ],
      "name": "closeStream",
      "outputs": [],
      "stateMutability": "nonpayable",
      "type": "function"
    },
    {
      "inputs": [],
      "name": "deactivateTap",
      "outputs": [],
      "stateMutability": "nonpayable",
      "type": "function"
    },
    {
      "inputs": [
        {
          "internalType": "uint256",
          "name": "_amount",
          "type": "uint256"
        }
      ],
      "name": "drainTap",
      "outputs": [],
      "stateMutability": "nonpayable",
      "type": "function"
    },
    {
      "inputs": [
        {
          "internalType": "address",
          "name": "_holder",
          "type": "address"
        }
      ],
      "name": "emergencyCloseStreams",
      "outputs": [],
      "stateMutability": "nonpayable",
      "type": "function"
    },
    {
      "inputs": [
        {
          "internalType": "address",
          "name": "_user",
          "type": "address"
        },
        {
          "internalType": "uint256",
          "name": "_tokenId",
          "type": "uint256"
        }
      ],
      "name": "getClaimedData",
      "outputs": [
        {
          "internalType": "bool",
          "name": "_status",
          "type": "bool"
        },
        {
          "internalType": "int96",
          "name": "_claimedRate",
          "type": "int96"
        }
      ],
      "stateMutability": "view",
      "type": "function"
    },
    {
      "inputs": [
        {
          "internalType": "string",
          "name": "_name",
          "type": "string"
        },
        {
          "internalType": "address",
          "name": "_host",
          "type": "address"
        },
        {
          "internalType": "address",
          "name": "_creator",
          "type": "address"
        },
        {
          "internalType": "uint96",
          "name": "_ratePerNFT",
          "type": "uint96"
        },
        {
          "internalType": "contract IcfaV1Forwarder",
          "name": "_cfaV1Forwarder",
          "type": "address"
        },
        {
          "internalType": "contract IERC721",
          "name": "_nft",
          "type": "address"
        },
        {
          "internalType": "contract ISuperToken",
          "name": "_streamToken",
          "type": "address"
        }
      ],
      "name": "initialize",
      "outputs": [],
      "stateMutability": "nonpayable",
      "type": "function"
    },
    {
      "inputs": [],
      "name": "name",
      "outputs": [
        {
          "internalType": "string",
          "name": "",
          "type": "string"
        }
      ],
      "stateMutability": "view",
      "type": "function"
    },
    {
      "inputs": [],
      "name": "ratePerNFT",
      "outputs": [
        {
          "internalType": "int96",
          "name": "",
          "type": "int96"
        }
      ],
      "stateMutability": "view",
      "type": "function"
    },
    {
      "inputs": [
        {
          "internalType": "uint256",
          "name": "_amount",
          "type": "uint256"
        }
      ],
      "name": "topUpTap",
      "outputs": [],
      "stateMutability": "nonpayable",
      "type": "function"
    }
  ],
  "bytecode": {
    "object": "0x608060405234801561001057600080fd5b506126bd806100206000396000f3fe608060405234801561001057600080fd5b50600436106101585760003560e01c80636cb99967116100c3578063b20b6b591161007c578063b20b6b59146102e0578063bde5880e146102f3578063d86ed3e514610306578063dcc76d1f14610319578063e4fbb6091461032c578063e65fa3f91461033f57600080fd5b80636cb99967146102795780637c0b8de21461028c578063884d1f401461029f578063898f319c146102b25780638cf79999146102c5578063927e3520146102cd57600080fd5b806330d9c9151161011557806330d9c915146101f457806342f5c6181461020757806348addb5c1461021a57806349f289dc1461022257806353c11f99146102535780635f9e7d771461026657600080fd5b806302fb0c5e1461015d57806306fdde031461017f5780631c17e2d6146101945780631c8da209146101b95780631d1b7b77146101ce578063230dbd29146101e1575b600080fd5b60055461016a9060ff1681565b60405190151581526020015b60405180910390f35b6101876103a6565b6040516101769190611eed565b6005546101a6906101009004600b0b81565b604051600b9190910b8152602001610176565b6101cc6101c7366004611f1c565b610434565b005b6101cc6101dc366004611f37565b610504565b6101876101ef366004611fbc565b61086f565b610187610202366004612087565b6108d1565b6101cc610215366004611f37565b610934565b6101cc610ba9565b60005461023b906201000090046001600160a01b031681565b6040516001600160a01b039091168152602001610176565b610187610261366004611fbc565b610c31565b610187610274366004612087565b610ce0565b6101cc610287366004612126565b610d47565b60035461023b906001600160a01b031681565b6101876102ad366004612087565b610f50565b6101cc6102c0366004611f37565b610fb3565b6101cc6114ef565b6101cc6102db366004612159565b61157a565b6101cc6102ee366004612126565b611774565b6101cc610301366004611f37565b611997565b610187610314366004611fbc565b611aa3565b60025461023b906001600160a01b031681565b60015461023b906001600160a01b031681565b61038c61034d36600461226e565b6001600160a01b039091166000818152600860208181526040808420958452600186018252832054939092529052905460ff90911691600b9190910b90565b604080519215158352600b9190910b602083015201610176565b600480546103b39061229a565b80601f01602080910402602001604051908101604052809291908181526020018280546103df9061229a565b801561042c5780601f106104015761010080835404028352916020019161042c565b820191906000526020600020905b81548152906001019060200180831161040f57829003601f168201915b505050505081565b6001546001600160a01b0316331461045f5760405163a17205b560e01b815260040160405180910390fd5b6005546101009004600b90810b90829081900b820361049c5760405163245deae960e11b8152600b82900b60048201526024015b60405180910390fd5b600580546cffffffffffffffffffffffff0019166101006001600160601b0386160217905560408051600b84810b825283900b60208201527f3f4f15794d3d6909eeffd3c852e9ade086118bf01ed932cd7c40fca47501b6fb910160405180910390a1505050565b6000818152600760205260409020546001600160a01b031680158061055057506001600160a01b038116600090815260086020908152604080832085845260010190915290205460ff16155b15610571576040516347e7ef2160e11b815260048101839052602401610493565b6002546006546003546040516331a9108f60e11b8152600481018690526001600160a01b0393841693928316926000921690636352211e90602401602060405180830381865afa1580156105c9573d6000803e3d6000fd5b505050506040513d601f19601f820116820180604052508101906105ed91906122d4565b90506001600160a01b03811633148061061057506001546001600160a01b031633145b1561084657604051630ec5b29360e11b81526000906001600160a01b03841690631d8b65269061064890879030908a906004016122f1565b602060405180830381865afa158015610665573d6000803e3d6000fd5b505050506040513d601f19601f820116820180604052508101906106899190612314565b6001600160a01b038616600090815260086020526040812054600554929350600b90810b926106c791879189918b918791610100909104900b611b05565b600089815260076020908152604080832080546001600160a01b03191690556001600160a01b038b168352600882528083208c84526001019091529020805460ff191690559050600b81810b9084900b1380610742575080600b0b83600b0b1280156107425750610742858761073d868561234d565b611be0565b156107c057604051632bf3551b60e11b81526001600160a01b038616906357e6aa36906107779089908b908690600401612380565b6020604051808303816000875af1158015610796573d6000803e3d6000fd5b505050506040513d601f19601f820116820180604052508101906107ba91906123a7565b5061083e565b6001600160a01b0385166357e6aa3687896107db868861234d565b6040518463ffffffff1660e01b81526004016107f993929190612380565b6020604051808303816000875af1158015610818573d6000803e3d6000fd5b505050506040513d601f19601f8201168201806040525081019061083c91906123a7565b505b505050610868565b60405163791c605560e01b815260048101869052336024820152604401610493565b5050505050565b60405162461bcd60e51b815260206004820152602e60248201527f556e737570706f727465642063616c6c6261636b202d2041667465722041677260448201526d19595b595b9d08155c19185d195960921b6064820152606090608401610493565b60405162461bcd60e51b815260206004820152602f60248201527f556e737570706f727465642063616c6c6261636b202d204265666f726520416760448201526e1c99595b595b9d0810dc99585d1959608a1b6064820152606090608401610493565b6001546001600160a01b0316331461095f5760405163a17205b560e01b815260040160405180910390fd5b6006546002546040516322c904d960e01b81526001600160a01b0391821660048201819052306024830152919092169160009083906322c904d990604401602060405180830381865afa1580156109ba573d6000803e3d6000fd5b505050506040513d601f19601f820116820180604052508101906109de9190612314565b6040516370a0823160e01b81523060048201529091506000906001600160a01b038416906370a0823190602401602060405180830381865afa158015610a28573d6000803e3d6000fd5b505050506040513d601f19601f82011682018060405250810190610a4c91906123c9565b905084811015610a79576040516346b73ad560e01b81526004810182905260248101869052604401610493565b6000610a93610a8b84620151806123e2565b600b0b611d9b565b90506000610aa18784612477565b905080821015610acd57604051623bc4f560e01b81526004810182905260248101839052604401610493565b60405163a9059cbb60e01b8152336004820152602481018890526001600160a01b0386169063a9059cbb906044016020604051808303816000875af1158015610b1a573d6000803e3d6000fd5b505050506040513d601f19601f82011682018060405250810190610b3e91906123a7565b610b5b576040516312171d8360e31b815260040160405180910390fd5b60408051888152602081018390526001600160a01b038716917f4a8ab7bc7b0ca9f36a3042b149f077408a1e0342c4dd28c99d24c34767e6cdfd91015b60405180910390a250505050505050565b6001546001600160a01b03163314610bd45760405163a17205b560e01b815260040160405180910390fd5b60055460ff161515600003610bfc576040516324ee1ca960e01b815260040160405180910390fd5b6005805460ff191690556040517f3a15dda76c298a039674b2287c867ba88f2236e2d01b54ba865ead296570386490600090a1565b6000546060906201000090046001600160a01b03163314610c6757604051635614fa7760e01b8152336004820152602401610493565b82828080601f0160208091040260200160405190810160405280939291908181526020018383808284376000920182905250939450610cac925050508789018961248a565b506001600160a01b0316600090815260086020526040902080546001600160601b0319169055509998505050505050505050565b60405162461bcd60e51b815260206004820152603360248201527f556e737570706f727465642063616c6c6261636b202d20204265666f7265204160448201527219dc99595b595b9d0815195c9b5a5b985d1959606a1b6064820152606090608401610493565b6006546002546001546001600160a01b039283169291821691163314610ea2576040516322c904d960e01b81526001600160a01b038281166004830152306024830152600091908416906322c904d990604401602060405180830381865afa158015610db7573d6000803e3d6000fd5b505050506040513d601f19601f82011682018060405250810190610ddb9190612314565b6040516370a0823160e01b81523060048201529091506000906001600160a01b038416906370a0823190602401602060405180830381865afa158015610e25573d6000803e3d6000fd5b505050506040513d601f19601f82011682018060405250810190610e4991906123c9565b90506000610e5d610a8b84620151806123e2565b9050808210610e9e5760405163482bfc5760e01b81523360048201526001600160a01b03871660248201526044810183905260648101829052608401610493565b5050505b604051632bf3551b60e11b81526001600160a01b038316906357e6aa3690610ed39084903390600090600401612380565b6020604051808303816000875af1158015610ef2573d6000803e3d6000fd5b505050506040513d601f19601f82011682018060405250810190610f1691906123a7565b506040516001600160a01b038416907f15ed2cc902282ba6d45db1192488213eaca35dffb37edec22aacf8cbf408c24e90600090a2505050565b60405162461bcd60e51b815260206004820152602f60248201527f556e737570706f727465642063616c6c6261636b202d204265666f726520416760448201526e1c99595b595b9d081d5c19185d1959608a1b6064820152606090608401610493565b60055460ff16610fd6576040516324ee1ca960e01b815260040160405180910390fd5b6003546000828152600760205260408120546001600160a01b039283169216801580159061102a57506001600160a01b038116600090815260086020908152604080832087845260010190915290205460ff165b15611033578091505b506040516331a9108f60e11b81526004810184905233906001600160a01b03841690636352211e90602401602060405180830381865afa15801561107b573d6000803e3d6000fd5b505050506040513d601f19601f8201168201806040525081019061109f91906122d4565b6001600160a01b0316146110c95760405163ad88647160e01b815260048101849052602401610493565b6001600160a01b038116331480156110fe575033600090815260086020908152604080832086845260010190915290205460ff165b1561111f576040516344196afd60e11b815260048101849052602401610493565b6006546002546005546001600160a01b039283169291821691610100909104600b0b90841633146113ad576001600160a01b0384166000908152600860205260408082205433835290822054600b91820b92910b906111818686898688611b05565b905060006111928787338689611df1565b905060006111a084866124c3565b6111aa83856124c3565b6111b4919061234d565b90506111c1888883611be0565b6111ef576040516333c17a3b60e01b81526001600160a01b038a166004820152336024820152604401610493565b600b85900b15611310576000600860008b6001600160a01b03166001600160a01b0316815260200190815260200160002060010160008d815260200190815260200160002060006101000a81548160ff02191690831515021790555085600860008b6001600160a01b03166001600160a01b0316815260200190815260200160002060000160006101000a8154816001600160601b030219169083600b0b6001600160601b03160217905550876001600160a01b03166357e6aa36888b866040518463ffffffff1660e01b81526004016112cb93929190612380565b6020604051808303816000875af11580156112ea573d6000803e3d6000fd5b505050506040513d601f19601f8201168201806040525081019061130e91906123a7565b505b604051632bf3551b60e11b81526001600160a01b038916906357e6aa3690611340908a9033908790600401612380565b6020604051808303816000875af115801561135f573d6000803e3d6000fd5b505050506040513d601f19601f8201168201806040525081019061138391906123a7565b505050600089815260076020526040902080546001600160a01b031916331790555061144a915050565b33600081815260086020526040812054600b0b916113d090869086908587611df1565b604051632bf3551b60e11b81529091506001600160a01b038616906357e6aa369061140390879033908690600401612380565b6020604051808303816000875af1158015611422573d6000803e3d6000fd5b505050506040513d601f19601f8201168201806040525081019061144691906123a7565b5050505b3360008181526008602081815260408084208b855260018082018452918520805460ff191690921790915593909252905254600b82810b91900b146114b25733600090815260086020526040902080546001600160601b0319166001600160601b0383161790555b60405186815233907f90a5a57b652df5b9c4b1245c11aee7c6ba100d224871367c81229f8833b3f29c9060200160405180910390a2505050505050565b6001546001600160a01b0316331461151a5760405163a17205b560e01b815260040160405180910390fd5b60055460ff161515600103611542576040516321ebf19760e11b815260040160405180910390fd5b6005805460ff191660011790556040517f095fdebb45b4f1fd3f76ce7a07f113fafa6da5fcd60d6983ab22693fe29d1ecd90600090a1565b600054610100900460ff161580801561159a5750600054600160ff909116105b806115b45750303b1580156115b4575060005460ff166001145b6116175760405162461bcd60e51b815260206004820152602e60248201527f496e697469616c697a61626c653a20636f6e747261637420697320616c72656160448201526d191e481a5b9a5d1a585b1a5e995960921b6064820152608401610493565b6000805460ff19166001179055801561163a576000805461ff0019166101001790555b6000805462010000600160b01b031916620100006001600160a01b038a81169190910291909117909155600680546001600160a01b03199081168784161790915560028054821685841617905560018054821689841617905560038054909116918516919091179055600580546cffffffffffffffffffffffff0019166101006001600160601b0388160217905560046116d4898261253f565b50816001600160a01b0316836001600160a01b03167f5aa0d639432ea7da3976c64fbf2d61e924cb399d52d50bf897a13ab2054aa6cd8a898960405161171c939291906125ff565b60405180910390a3801561176a576000805461ff0019169055604051600181527f7f26b83ff96e1f2b6a682f133852f6798a09c465da95921460cefb38474024989060200160405180910390a15b5050505050505050565b60055460ff16611797576040516324ee1ca960e01b815260040160405180910390fd5b600654600254600554604051630ec5b29360e11b81526001600160a01b039384169390921691610100909104600b0b906000908490631d8b6526906117e490869030908a906004016122f1565b602060405180830381865afa158015611801573d6000803e3d6000fd5b505050506040513d601f19601f820116820180604052508101906118259190612314565b9050600b81900b611854576040516345da2b7560e11b81526001600160a01b0386166004820152602401610493565b6001600160a01b038516600090815260086020526040902054600b90810b9083900b810361189b5760405163aeecca6d60e01b8152600b84900b6004820152602401610493565b60006118a7828461263b565b6001600160a01b03888116600090815260086020526040902080546001600160601b0319166001600160601b03881617905590915086166357e6aa3686896118ef88866123e2565b6040518463ffffffff1660e01b815260040161190d93929190612380565b6020604051808303816000875af115801561192c573d6000803e3d6000fd5b505050506040513d601f19601f8201168201806040525081019061195091906123a7565b5060408051600b84810b825286900b60208201526001600160a01b038916917fa10702d01d3c4ff4c3ce65a72ea172bfb010b2e9f34bd104df867a535d1185e99101610b98565b6001546001600160a01b031633146119c25760405163a17205b560e01b815260040160405180910390fd5b6002546040516323b872dd60e01b8152336004820152306024820152604481018390526001600160a01b039091169081906323b872dd906064016020604051808303816000875af1158015611a1b573d6000803e3d6000fd5b505050506040513d601f19601f82011682018060405250810190611a3f91906123a7565b611a5c576040516312171d8360e31b815260040160405180910390fd5b806001600160a01b03167f6af4f348b0a94b3ecbd7d24059de3fd8ffb635abb46124d9effb1f88a995c7cc83604051611a9791815260200190565b60405180910390a25050565b60405162461bcd60e51b815260206004820152602e60248201527f556e737570706f727465642063616c6c6261636b202d2041667465722041677260448201526d19595b595b9d0810dc99585d195960921b6064820152606090608401610493565b6001600160a01b038316600090815260086020526040812054600b90810b9084900b15611bcb57604051630ec5b29360e11b81526001600160a01b03881690631d8b652690611b5c90899030908a906004016122f1565b602060405180830381865afa158015611b79573d6000803e3d6000fd5b505050506040513d601f19601f82011682018060405250810190611b9d9190612314565b90506000611bab858361263b565b905083611bb960018361234d565b611bc391906123e2565b925050611bd5565b6000915050611bd7565b505b95945050505050565b6040516322c904d960e01b81526001600160a01b03838116600483015230602483015260009182918616906322c904d990604401602060405180830381865afa158015611c31573d6000803e3d6000fd5b505050506040513d601f19601f82011682018060405250810190611c559190612314565b905082600b0b81600b0b1215611d8e576040516370a0823160e01b81523060048201526000906001600160a01b038616906370a0823190602401602060405180830381865afa158015611cac573d6000803e3d6000fd5b505050506040513d601f19601f82011682018060405250810190611cd091906123c9565b6040516309f0b49560e01b81526001600160a01b038781166004830152600b87900b60248301529192506000918816906309f0b49590604401602060405180830381865afa158015611d26573d6000803e3d6000fd5b505050506040513d601f19601f82011682018060405250810190611d4a91906123c9565b90506000611d6a611d5d856000196123e2565b610a8b90620151806123e2565b905080611d778385612477565b1015611d8a576000945050505050611d94565b5050505b60019150505b9392505050565b600080821215611ded5760405162461bcd60e51b815260206004820181905260248201527f53616665436173743a2076616c7565206d75737420626520706f7369746976656044820152606401610493565b5090565b6000600b83900b15611ea057604051630ec5b29360e11b81526000906001600160a01b03881690631d8b652690611e3090899030908a906004016122f1565b602060405180830381865afa158015611e4d573d6000803e3d6000fd5b505050506040513d601f19601f82011682018060405250810190611e719190612314565b90506000611e7f858361263b565b905083611e8d8260016124c3565b611e9791906123e2565b92505050611bd7565b5080611bd7565b6000815180845260005b81811015611ecd57602081850181015186830182015201611eb1565b506000602082860101526020601f19601f83011685010191505092915050565b602081526000611d946020830184611ea7565b80356001600160601b0381168114611f1757600080fd5b919050565b600060208284031215611f2e57600080fd5b611d9482611f00565b600060208284031215611f4957600080fd5b5035919050565b6001600160a01b0381168114611f6557600080fd5b50565b8035611f1781611f50565b60008083601f840112611f8557600080fd5b50813567ffffffffffffffff811115611f9d57600080fd5b602083019150836020828501011115611fb557600080fd5b9250929050565b600080600080600080600080600060c08a8c031215611fda57600080fd5b8935611fe581611f50565b985060208a0135611ff581611f50565b975060408a0135965060608a013567ffffffffffffffff8082111561201957600080fd5b6120258d838e01611f73565b909850965060808c013591508082111561203e57600080fd5b61204a8d838e01611f73565b909650945060a08c013591508082111561206357600080fd5b506120708c828d01611f73565b915080935050809150509295985092959850929598565b600080600080600080600060a0888a0312156120a257600080fd5b87356120ad81611f50565b965060208801356120bd81611f50565b955060408801359450606088013567ffffffffffffffff808211156120e157600080fd5b6120ed8b838c01611f73565b909650945060808a013591508082111561210657600080fd5b506121138a828b01611f73565b989b979a50959850939692959293505050565b60006020828403121561213857600080fd5b8135611d9481611f50565b634e487b7160e01b600052604160045260246000fd5b600080600080600080600060e0888a03121561217457600080fd5b873567ffffffffffffffff8082111561218c57600080fd5b818a0191508a601f8301126121a057600080fd5b8135818111156121b2576121b2612143565b604051601f8201601f19908116603f011681019083821181831017156121da576121da612143565b816040528281528d60208487010111156121f357600080fd5b82602086016020830137600060208483010152809b50505050505061221a60208901611f68565b955061222860408901611f68565b945061223660608901611f00565b935061224460808901611f68565b925061225260a08901611f68565b915061226060c08901611f68565b905092959891949750929550565b6000806040838503121561228157600080fd5b823561228c81611f50565b946020939093013593505050565b600181811c908216806122ae57607f821691505b6020821081036122ce57634e487b7160e01b600052602260045260246000fd5b50919050565b6000602082840312156122e657600080fd5b8151611d9481611f50565b6001600160a01b0393841681529183166020830152909116604082015260600190565b60006020828403121561232657600080fd5b815180600b0b8114611d9457600080fd5b634e487b7160e01b600052601160045260246000fd5b600b82810b9082900b0360016001605f1b0319811260016001605f1b038213171561237a5761237a612337565b92915050565b6001600160a01b039384168152919092166020820152600b9190910b604082015260600190565b6000602082840312156123b957600080fd5b81518015158114611d9457600080fd5b6000602082840312156123db57600080fd5b5051919050565b600081600b0b83600b0b60016001605f1b0360008213600084138383048511828216161561241257612412612337565b60016001605f1b0319600085128281168783058712161561243557612435612337565b6000871292508582058712848416161561245157612451612337565b8585058712818416161561246757612467612337565b5050509290910295945050505050565b8181038181111561237a5761237a612337565b6000806040838503121561249d57600080fd5b82356124a881611f50565b915060208301356124b881611f50565b809150509250929050565b600b81810b9083900b0160016001605f1b03811360016001605f1b03198212171561237a5761237a612337565b601f82111561253a57600081815260208120601f850160051c810160208610156125175750805b601f850160051c820191505b8181101561253657828155600101612523565b5050505b505050565b815167ffffffffffffffff81111561255957612559612143565b61256d81612567845461229a565b846124f0565b602080601f8311600181146125a2576000841561258a5750858301515b600019600386901b1c1916600185901b178555612536565b600085815260208120601f198616915b828110156125d1578886015182559484019460019091019084016125b2565b50858210156125ef5787850151600019600388901b60f8161c191681555b5050505050600190811b01905550565b6060815260006126126060830186611ea7565b6001600160a01b03949094166020830152506001600160601b0391909116604090910152919050565b600081600b0b83600b0b8061266057634e487b7160e01b600052601260045260246000fd5b60016001605f1b031982146000198214161561267e5761267e612337565b9005939250505056fea264697066735822122055b008271c54ac6b5b0d21ba56cb4c80700682df331344a77dc23ffdaf4caf3064736f6c63430008100033",
    "linkReferences": {}
  },
  "methodIdentifiers": {
    "CREATOR()": "e4fbb609",
    "HOST()": "49f289dc",
    "NFT()": "7c0b8de2",
    "STREAM_TOKEN()": "dcc76d1f",
    "activateTap()": "8cf79999",
    "active()": "02fb0c5e",
    "adjustCurrentStreams(address)": "b20b6b59",
    "afterAgreementCreated(address,address,bytes32,bytes,bytes,bytes)": "d86ed3e5",
    "afterAgreementTerminated(address,address,bytes32,bytes,bytes,bytes)": "53c11f99",
    "afterAgreementUpdated(address,address,bytes32,bytes,bytes,bytes)": "230dbd29",
    "beforeAgreementCreated(address,address,bytes32,bytes,bytes)": "30d9c915",
    "beforeAgreementTerminated(address,address,bytes32,bytes,bytes)": "5f9e7d77",
    "beforeAgreementUpdated(address,address,bytes32,bytes,bytes)": "884d1f40",
    "changeRate(uint96)": "1c8da209",
    "claimStream(uint256)": "898f319c",
    "closeStream(uint256)": "1d1b7b77",
    "deactivateTap()": "48addb5c",
    "drainTap(uint256)": "42f5c618",
    "emergencyCloseStreams(address)": "6cb99967",
    "getClaimedData(address,uint256)": "e65fa3f9",
    "initialize(string,address,address,uint96,address,address,address)": "927e3520",
    "name()": "06fdde03",
    "ratePerNFT()": "1c17e2d6",
    "topUpTap(uint256)": "bde5880e"
  },
  "id": 94
}