{
  "abi": [
    {
      "inputs": [
        {
          "internalType": "address",
          "name": "_host",
          "type": "address"
        },
        {
          "internalType": "contract IcfaV1Forwarder",
          "name": "_cfaV1Forwarder",
          "type": "address"
        },
        {
          "internalType": "contract IERC721",
          "name": "_nft",
          "type": "address"
        },
        {
          "internalType": "contract ISuperToken",
          "name": "_streamToken",
          "type": "address"
        },
        {
          "internalType": "string",
          "name": "_name",
          "type": "string"
        },
        {
          "internalType": "bool",
          "name": "_pauseBulkClaims",
          "type": "bool"
        }
      ],
      "stateMutability": "nonpayable",
      "type": "constructor"
    },
    {
      "inputs": [],
      "name": "BulkClaimsPaused",
      "type": "error"
    },
    {
      "inputs": [
        {
          "internalType": "address",
          "name": "holder",
          "type": "address"
        }
      ],
      "name": "HolderStreamsNotFound",
      "type": "error"
    },
    {
      "inputs": [],
      "name": "IneligibleClaim",
      "type": "error"
    },
    {
      "inputs": [
        {
          "internalType": "address",
          "name": "terminator",
          "type": "address"
        },
        {
          "internalType": "address",
          "name": "holder",
          "type": "address"
        },
        {
          "internalType": "uint256",
          "name": "currTapBalance",
          "type": "uint256"
        },
        {
          "internalType": "uint256",
          "name": "minReqTapBalance",
          "type": "uint256"
        }
      ],
      "name": "NoEmergency",
      "type": "error"
    },
    {
      "inputs": [
        {
          "internalType": "address",
          "name": "terminator",
          "type": "address"
        }
      ],
      "name": "NotHost",
      "type": "error"
    },
    {
      "inputs": [
        {
          "internalType": "uint256",
          "name": "tokenId",
          "type": "uint256"
        }
      ],
      "name": "NotOwnerOfNFT",
      "type": "error"
    },
    {
      "inputs": [],
      "name": "NotTapCreator",
      "type": "error"
    },
    {
      "inputs": [
        {
          "internalType": "int96",
          "name": "ratePerNFT",
          "type": "int96"
        }
      ],
      "name": "SameTapRate",
      "type": "error"
    },
    {
      "inputs": [
        {
          "internalType": "uint256",
          "name": "tokenId",
          "type": "uint256"
        }
      ],
      "name": "StreamAlreadyClaimed",
      "type": "error"
    },
    {
      "inputs": [
        {
          "internalType": "uint256",
          "name": "tokenId",
          "type": "uint256"
        }
      ],
      "name": "StreamNotFound",
      "type": "error"
    },
    {
      "inputs": [
        {
          "internalType": "address",
          "name": "prevHolder",
          "type": "address"
        },
        {
          "internalType": "address",
          "name": "currHolder",
          "type": "address"
        }
      ],
      "name": "StreamsAdjustmentsFailed",
      "type": "error"
    },
    {
      "inputs": [],
      "name": "TapActive",
      "type": "error"
    },
    {
      "inputs": [
        {
          "internalType": "uint256",
          "name": "currTapBalance",
          "type": "uint256"
        },
        {
          "internalType": "uint256",
          "name": "reqTapBalance",
          "type": "uint256"
        }
      ],
      "name": "TapBalanceInsufficient",
      "type": "error"
    },
    {
      "inputs": [],
      "name": "TapExists",
      "type": "error"
    },
    {
      "inputs": [],
      "name": "TapInactive",
      "type": "error"
    },
    {
      "inputs": [
        {
          "internalType": "uint256",
          "name": "remainingAmount",
          "type": "uint256"
        },
        {
          "internalType": "uint256",
          "name": "minAmountRequried",
          "type": "uint256"
        }
      ],
      "name": "TapMinAmountLimit",
      "type": "error"
    },
    {
      "inputs": [],
      "name": "TapNotFound",
      "type": "error"
    },
    {
      "inputs": [],
      "name": "TransferFailed",
      "type": "error"
    },
    {
      "inputs": [
        {
          "internalType": "uint256",
          "name": "tokenId",
          "type": "uint256"
        },
        {
          "internalType": "address",
          "name": "terminator",
          "type": "address"
        }
      ],
      "name": "WrongStreamCloseAttempt",
      "type": "error"
    },
    {
      "inputs": [],
      "name": "ZeroAddress",
      "type": "error"
    },
    {
      "anonymous": false,
      "inputs": [
        {
          "indexed": true,
          "internalType": "address",
          "name": "holder",
          "type": "address"
        }
      ],
      "name": "EmergencyCloseInitiated",
      "type": "event"
    },
    {
      "anonymous": false,
      "inputs": [
        {
          "indexed": true,
          "internalType": "address",
          "name": "claimant",
          "type": "address"
        },
        {
          "indexed": false,
          "internalType": "uint256",
          "name": "tokenId",
          "type": "uint256"
        }
      ],
      "name": "StreamClaimedById",
      "type": "event"
    },
    {
      "anonymous": false,
      "inputs": [
        {
          "indexed": true,
          "internalType": "address",
          "name": "claimant",
          "type": "address"
        },
        {
          "indexed": false,
          "internalType": "int96",
          "name": "oldStreamRate",
          "type": "int96"
        },
        {
          "indexed": false,
          "internalType": "int96",
          "name": "newStreamRate",
          "type": "int96"
        }
      ],
      "name": "StreamsClaimed",
      "type": "event"
    },
    {
      "anonymous": false,
      "inputs": [],
      "name": "TapActivated",
      "type": "event"
    },
    {
      "anonymous": false,
      "inputs": [
        {
          "indexed": false,
          "internalType": "string",
          "name": "name",
          "type": "string"
        },
        {
          "indexed": false,
          "internalType": "address",
          "name": "creator",
          "type": "address"
        },
        {
          "indexed": true,
          "internalType": "address",
          "name": "nft",
          "type": "address"
        },
        {
          "indexed": true,
          "internalType": "address",
          "name": "superToken",
          "type": "address"
        }
      ],
      "name": "TapCreated",
      "type": "event"
    },
    {
      "anonymous": false,
      "inputs": [],
      "name": "TapDeactivated",
      "type": "event"
    },
    {
      "anonymous": false,
      "inputs": [
        {
          "indexed": true,
          "internalType": "address",
          "name": "streamToken",
          "type": "address"
        },
        {
          "indexed": false,
          "internalType": "uint256",
          "name": "drainAmount",
          "type": "uint256"
        },
        {
          "indexed": false,
          "internalType": "uint256",
          "name": "remainingAmount",
          "type": "uint256"
        }
      ],
      "name": "TapDrained",
      "type": "event"
    },
    {
      "anonymous": false,
      "inputs": [
        {
          "indexed": false,
          "internalType": "int96",
          "name": "oldRatePerNFT",
          "type": "int96"
        },
        {
          "indexed": false,
          "internalType": "int96",
          "name": "newRatePerNFT",
          "type": "int96"
        }
      ],
      "name": "TapRateChanged",
      "type": "event"
    },
    {
      "anonymous": false,
      "inputs": [
        {
          "indexed": true,
          "internalType": "address",
          "name": "superToken",
          "type": "address"
        },
        {
          "indexed": false,
          "internalType": "uint256",
          "name": "amount",
          "type": "uint256"
        }
      ],
      "name": "TapToppedUp",
      "type": "event"
    },
    {
      "inputs": [],
      "name": "CREATOR",
      "outputs": [
        {
          "internalType": "address",
          "name": "",
          "type": "address"
        }
      ],
      "stateMutability": "view",
      "type": "function"
    },
    {
      "inputs": [],
      "name": "HOST",
      "outputs": [
        {
          "internalType": "address",
          "name": "",
          "type": "address"
        }
      ],
      "stateMutability": "view",
      "type": "function"
    },
    {
      "inputs": [],
      "name": "NFT",
      "outputs": [
        {
          "internalType": "contract IERC721",
          "name": "",
          "type": "address"
        }
      ],
      "stateMutability": "view",
      "type": "function"
    },
    {
      "inputs": [],
      "name": "STREAM_TOKEN",
      "outputs": [
        {
          "internalType": "contract ISuperToken",
          "name": "",
          "type": "address"
        }
      ],
      "stateMutability": "view",
      "type": "function"
    },
    {
      "inputs": [],
      "name": "activateTap",
      "outputs": [],
      "stateMutability": "nonpayable",
      "type": "function"
    },
    {
      "inputs": [],
      "name": "active",
      "outputs": [
        {
          "internalType": "bool",
          "name": "",
          "type": "bool"
        }
      ],
      "stateMutability": "view",
      "type": "function"
    },
    {
      "inputs": [
        {
          "internalType": "contract ISuperToken",
          "name": "",
          "type": "address"
        },
        {
          "internalType": "address",
          "name": "",
          "type": "address"
        },
        {
          "internalType": "bytes32",
          "name": "",
          "type": "bytes32"
        },
        {
          "internalType": "bytes",
          "name": "",
          "type": "bytes"
        },
        {
          "internalType": "bytes",
          "name": "",
          "type": "bytes"
        },
        {
          "internalType": "bytes",
          "name": "",
          "type": "bytes"
        }
      ],
      "name": "afterAgreementCreated",
      "outputs": [
        {
          "internalType": "bytes",
          "name": "",
          "type": "bytes"
        }
      ],
      "stateMutability": "nonpayable",
      "type": "function"
    },
    {
      "inputs": [
        {
          "internalType": "contract ISuperToken",
          "name": "",
          "type": "address"
        },
        {
          "internalType": "address",
          "name": "",
          "type": "address"
        },
        {
          "internalType": "bytes32",
          "name": "",
          "type": "bytes32"
        },
        {
          "internalType": "bytes",
          "name": "_agreementData",
          "type": "bytes"
        },
        {
          "internalType": "bytes",
          "name": "",
          "type": "bytes"
        },
        {
          "internalType": "bytes",
          "name": "_ctx",
          "type": "bytes"
        }
      ],
      "name": "afterAgreementTerminated",
      "outputs": [
        {
          "internalType": "bytes",
          "name": "_newCtx",
          "type": "bytes"
        }
      ],
      "stateMutability": "nonpayable",
      "type": "function"
    },
    {
      "inputs": [
        {
          "internalType": "contract ISuperToken",
          "name": "",
          "type": "address"
        },
        {
          "internalType": "address",
          "name": "",
          "type": "address"
        },
        {
          "internalType": "bytes32",
          "name": "",
          "type": "bytes32"
        },
        {
          "internalType": "bytes",
          "name": "",
          "type": "bytes"
        },
        {
          "internalType": "bytes",
          "name": "",
          "type": "bytes"
        },
        {
          "internalType": "bytes",
          "name": "",
          "type": "bytes"
        }
      ],
      "name": "afterAgreementUpdated",
      "outputs": [
        {
          "internalType": "bytes",
          "name": "",
          "type": "bytes"
        }
      ],
      "stateMutability": "nonpayable",
      "type": "function"
    },
    {
      "inputs": [
        {
          "internalType": "contract ISuperToken",
          "name": "",
          "type": "address"
        },
        {
          "internalType": "address",
          "name": "",
          "type": "address"
        },
        {
          "internalType": "bytes32",
          "name": "",
          "type": "bytes32"
        },
        {
          "internalType": "bytes",
          "name": "",
          "type": "bytes"
        },
        {
          "internalType": "bytes",
          "name": "",
          "type": "bytes"
        }
      ],
      "name": "beforeAgreementCreated",
      "outputs": [
        {
          "internalType": "bytes",
          "name": "",
          "type": "bytes"
        }
      ],
      "stateMutability": "view",
      "type": "function"
    },
    {
      "inputs": [
        {
          "internalType": "contract ISuperToken",
          "name": "",
          "type": "address"
        },
        {
          "internalType": "address",
          "name": "",
          "type": "address"
        },
        {
          "internalType": "bytes32",
          "name": "",
          "type": "bytes32"
        },
        {
          "internalType": "bytes",
          "name": "",
          "type": "bytes"
        },
        {
          "internalType": "bytes",
          "name": "",
          "type": "bytes"
        }
      ],
      "name": "beforeAgreementTerminated",
      "outputs": [
        {
          "internalType": "bytes",
          "name": "",
          "type": "bytes"
        }
      ],
      "stateMutability": "view",
      "type": "function"
    },
    {
      "inputs": [
        {
          "internalType": "contract ISuperToken",
          "name": "",
          "type": "address"
        },
        {
          "internalType": "address",
          "name": "",
          "type": "address"
        },
        {
          "internalType": "bytes32",
          "name": "",
          "type": "bytes32"
        },
        {
          "internalType": "bytes",
          "name": "",
          "type": "bytes"
        },
        {
          "internalType": "bytes",
          "name": "",
          "type": "bytes"
        }
      ],
      "name": "beforeAgreementUpdated",
      "outputs": [
        {
          "internalType": "bytes",
          "name": "",
          "type": "bytes"
        }
      ],
      "stateMutability": "view",
      "type": "function"
    },
    {
      "inputs": [
        {
          "internalType": "uint96",
          "name": "_newRatePerNFT",
          "type": "uint96"
        }
      ],
      "name": "changeRate",
      "outputs": [],
      "stateMutability": "nonpayable",
      "type": "function"
    },
    {
      "inputs": [
        {
          "internalType": "uint256",
          "name": "_tokenId",
          "type": "uint256"
        }
      ],
      "name": "claimStream",
      "outputs": [],
      "stateMutability": "nonpayable",
      "type": "function"
    },
    {
      "inputs": [
        {
          "internalType": "uint256",
          "name": "_tokenId",
          "type": "uint256"
        }
      ],
      "name": "closeStream",
      "outputs": [],
      "stateMutability": "nonpayable",
      "type": "function"
    },
    {
      "inputs": [],
      "name": "deactivateTap",
      "outputs": [],
      "stateMutability": "nonpayable",
      "type": "function"
    },
    {
      "inputs": [
        {
          "internalType": "uint256",
          "name": "_amount",
          "type": "uint256"
        }
      ],
      "name": "drainTap",
      "outputs": [],
      "stateMutability": "nonpayable",
      "type": "function"
    },
    {
      "inputs": [
        {
          "internalType": "address",
          "name": "_holder",
          "type": "address"
        }
      ],
      "name": "emergencyCloseStreams",
      "outputs": [],
      "stateMutability": "nonpayable",
      "type": "function"
    },
    {
      "inputs": [],
      "name": "name",
      "outputs": [
        {
          "internalType": "string",
          "name": "",
          "type": "string"
        }
      ],
      "stateMutability": "view",
      "type": "function"
    },
    {
      "inputs": [],
      "name": "pauseBulkClaims",
      "outputs": [
        {
          "internalType": "bool",
          "name": "",
          "type": "bool"
        }
      ],
      "stateMutability": "view",
      "type": "function"
    },
    {
      "inputs": [],
      "name": "ratePerNFT",
      "outputs": [
        {
          "internalType": "int96",
          "name": "",
          "type": "int96"
        }
      ],
      "stateMutability": "view",
      "type": "function"
    },
    {
      "inputs": [
        {
          "internalType": "uint256",
          "name": "_amount",
          "type": "uint256"
        }
      ],
      "name": "topUpTap",
      "outputs": [],
      "stateMutability": "nonpayable",
      "type": "function"
    }
  ],
  "bytecode": {
    "object": "0x60a06040523480156200001157600080fd5b5060405162002541380380620025418339810160408190526200003491620001b1565b6001600160a01b03851615806200005257506001600160a01b038416155b806200006557506001600160a01b038316155b15620000845760405163d92e233d60e01b815260040160405180910390fd5b600080546001600160a01b038089166001600160a01b031992831617909255868216608052600280548684169083161790556001805482163317905560038054928716929091169190911790556004620000df838262000362565b506005805460ff19168215151790556040516001600160a01b0384811691908616907f45c022b6e7b90463614d292a3811fdbd813aa602a88ba62513f0998f2c86bf07906200013290869033906200042e565b60405180910390a350505050505062000474565b6001600160a01b03811681146200015c57600080fd5b50565b634e487b7160e01b600052604160045260246000fd5b60005b838110156200019257818101518382015260200162000178565b50506000910152565b80518015158114620001ac57600080fd5b919050565b60008060008060008060c08789031215620001cb57600080fd5b8651620001d88162000146565b6020880151909650620001eb8162000146565b6040880151909550620001fe8162000146565b6060880151909450620002118162000146565b60808801519093506001600160401b03808211156200022f57600080fd5b818901915089601f8301126200024457600080fd5b8151818111156200025957620002596200015f565b604051601f8201601f19908116603f011681019083821181831017156200028457620002846200015f565b816040528281528c60208487010111156200029e57600080fd5b620002b183602083016020880162000175565b8096505050505050620002c760a088016200019b565b90509295509295509295565b600181811c90821680620002e857607f821691505b6020821081036200030957634e487b7160e01b600052602260045260246000fd5b50919050565b601f8211156200035d57600081815260208120601f850160051c81016020861015620003385750805b601f850160051c820191505b81811015620003595782815560010162000344565b5050505b505050565b81516001600160401b038111156200037e576200037e6200015f565b62000396816200038f8454620002d3565b846200030f565b602080601f831160018114620003ce5760008415620003b55750858301515b600019600386901b1c1916600185901b17855562000359565b600085815260208120601f198616915b82811015620003ff57888601518255948401946001909101908401620003de565b50858210156200041e5787850151600019600388901b60f8161c191681555b5050505050600190811b01905550565b60408152600083518060408401526200044f81606085016020880162000175565b6001600160a01b0393909316602083015250601f91909101601f191601606001919050565b60805161209c620004a5600039600081816105060152818161087c01528181610c5f0152611079015261209c6000f3fe608060405234801561001057600080fd5b50600436106101425760003560e01c80635c3c205e116100b8578063898f319c1161007c578063898f319c146102a95780638cf79999146102bc578063bde5880e146102c4578063d86ed3e5146102d7578063dcc76d1f146102ea578063e4fbb609146102fd57600080fd5b80635c3c205e146102505780635f9e7d771461025d5780636cb99967146102705780637c0b8de214610283578063884d1f401461029657600080fd5b8063230dbd291161010a578063230dbd29146101d157806330d9c915146101e457806342f5c618146101f757806348addb5c1461020a57806349f289dc1461021257806353c11f991461023d57600080fd5b806302fb0c5e1461014757806306fdde031461016e5780631c17e2d6146101835780631c8da209146101a95780631d1b7b77146101be575b600080fd5b60055461015990610100900460ff1681565b60405190151581526020015b60405180910390f35b610176610310565b6040516101659190611b42565b60055461019690620100009004600b0b81565b604051600b9190910b8152602001610165565b6101bc6101b7366004611b5c565b61039e565b005b6101bc6101cc366004611b85565b610471565b6101766101df366004611bff565b610762565b6101766101f2366004611cca565b6107c4565b6101bc610205366004611b85565b610827565b6101bc610ab9565b600054610225906001600160a01b031681565b6040516001600160a01b039091168152602001610165565b61017661024b366004611bff565b610b47565b6005546101599060ff1681565b61017661026b366004611cca565b610bf0565b6101bc61027e366004611d69565b610c57565b600354610225906001600160a01b031681565b6101766102a4366004611cca565b610e7a565b6101bc6102b7366004611b85565b610edd565b6101bc611542565b6101bc6102d2366004611b85565b6115d4565b6101766102e5366004611bff565b6116e0565b600254610225906001600160a01b031681565b600154610225906001600160a01b031681565b6004805461031d90611d86565b80601f016020809104026020016040519081016040528092919081815260200182805461034990611d86565b80156103965780601f1061036b57610100808354040283529160200191610396565b820191906000526020600020905b81548152906001019060200180831161037957829003601f168201915b505050505081565b6001546001600160a01b031633146103c95760405163a17205b560e01b815260040160405180910390fd5b600554620100009004600b90810b90829081900b82036104075760405163245deae960e11b8152600b82900b60048201526024015b60405180910390fd5b600580546dffffffffffffffffffffffff00001916620100006001600160601b0386160217905560408051600b84810b825283900b60208201527f3f4f15794d3d6909eeffd3c852e9ade086118bf01ed932cd7c40fca47501b6fb910160405180910390a1505050565b6000818152600660205260409020546001600160a01b03168015806104bd57506001600160a01b038116600090815260076020908152604080832085845260010190915290205460ff16155b156104de576040516347e7ef2160e11b8152600481018390526024016103fe565b6002546003546040516331a9108f60e11b8152600481018590526001600160a01b03928316927f000000000000000000000000000000000000000000000000000000000000000092600092911690636352211e90602401602060405180830381865afa158015610552573d6000803e3d6000fd5b505050506040513d601f19601f820116820180604052508101906105769190611dc0565b90506001600160a01b03811633148061059957506001546001600160a01b031633145b1561073957604051630ec5b29360e11b81526001600160a01b038481166004830152306024830152858116604483015260009190841690631d8b652690606401602060405180830381865afa1580156105f6573d6000803e3d6000fd5b505050506040513d601f19601f8201168201806040525081019061061a9190611ddd565b6001600160a01b038616600090815260076020526040812054600554929350600b90810b9261065991879189918b91879162010000909104900b611742565b600089815260066020908152604080832080546001600160a01b03191690556001600160a01b038b81168452600783528184208d8552600101909252909120805460ff191690559091508516630c03399187308a6106b98a848a89611824565b6106cc576106c78789611e16565b6106ce565b855b6040518563ffffffff1660e01b81526004016106ed9493929190611e49565b6020604051808303816000875af115801561070c573d6000803e3d6000fd5b505050506040513d601f19601f820116820180604052508101906107309190611e90565b5050505061075b565b60405163791c605560e01b8152600481018690523360248201526044016103fe565b5050505050565b60405162461bcd60e51b815260206004820152602e60248201527f556e737570706f727465642063616c6c6261636b202d2041667465722041677260448201526d19595b595b9d08155c19185d195960921b60648201526060906084016103fe565b60405162461bcd60e51b815260206004820152602f60248201527f556e737570706f727465642063616c6c6261636b202d204265666f726520416760448201526e1c99595b595b9d0810dc99585d1959608a1b60648201526060906084016103fe565b6001546001600160a01b031633146108525760405163a17205b560e01b815260040160405180910390fd5b6002546040516322c904d960e01b81526001600160a01b03918216600482018190523060248301527f00000000000000000000000000000000000000000000000000000000000000009290916000918416906322c904d990604401602060405180830381865afa1580156108ca573d6000803e3d6000fd5b505050506040513d601f19601f820116820180604052508101906108ee9190611ddd565b6040516370a0823160e01b81523060048201529091506000906001600160a01b038416906370a0823190602401602060405180830381865afa158015610938573d6000803e3d6000fd5b505050506040513d601f19601f8201168201806040525081019061095c9190611eb2565b905084811015610989576040516346b73ad560e01b815260048101829052602481018690526044016103fe565b60006109a361099b8462015180611ecb565b600b0b6119e8565b905060006109b18784611f60565b9050808210156109dd57604051623bc4f560e01b815260048101829052602481018390526044016103fe565b60405163a9059cbb60e01b8152336004820152602481018890526001600160a01b0386169063a9059cbb906044016020604051808303816000875af1158015610a2a573d6000803e3d6000fd5b505050506040513d601f19601f82011682018060405250810190610a4e9190611e90565b610a6b576040516312171d8360e31b815260040160405180910390fd5b60408051888152602081018390526001600160a01b038716917f4a8ab7bc7b0ca9f36a3042b149f077408a1e0342c4dd28c99d24c34767e6cdfd91015b60405180910390a250505050505050565b6001546001600160a01b03163314610ae45760405163a17205b560e01b815260040160405180910390fd5b600554610100900460ff161515600003610b11576040516324ee1ca960e01b815260040160405180910390fd5b6005805461ff00191690556040517f3a15dda76c298a039674b2287c867ba88f2236e2d01b54ba865ead296570386490600090a1565b6000546060906001600160a01b03163314610b7757604051635614fa7760e01b81523360048201526024016103fe565b82828080601f0160208091040260200160405190810160405280939291908181526020018383808284376000920182905250939450610bbc9250505087890189611f73565b506001600160a01b0316600090815260076020526040902080546001600160601b0319169055509998505050505050505050565b60405162461bcd60e51b815260206004820152603360248201527f556e737570706f727465642063616c6c6261636b202d20204265666f7265204160448201527219dc99595b595b9d0815195c9b5a5b985d1959606a1b60648201526060906084016103fe565b6002546001547f0000000000000000000000000000000000000000000000000000000000000000916001600160a01b0390811691163314610dcd576040516322c904d960e01b81526001600160a01b038281166004830152306024830152600091908416906322c904d990604401602060405180830381865afa158015610ce2573d6000803e3d6000fd5b505050506040513d601f19601f82011682018060405250810190610d069190611ddd565b6040516370a0823160e01b81523060048201529091506000906001600160a01b038416906370a0823190602401602060405180830381865afa158015610d50573d6000803e3d6000fd5b505050506040513d601f19601f82011682018060405250810190610d749190611eb2565b90506000610d8861099b8462015180611ecb565b9050808210610dc95760405163482bfc5760e01b81523360048201526001600160a01b038716602482015260448101839052606481018290526084016103fe565b5050505b604051635a5999e360e11b81526001600160a01b0383169063b4b333c690610dfd90849030908890600401611fac565b6020604051808303816000875af1158015610e1c573d6000803e3d6000fd5b505050506040513d601f19601f82011682018060405250810190610e409190611e90565b506040516001600160a01b038416907f15ed2cc902282ba6d45db1192488213eaca35dffb37edec22aacf8cbf408c24e90600090a2505050565b60405162461bcd60e51b815260206004820152602f60248201527f556e737570706f727465642063616c6c6261636b202d204265666f726520416760448201526e1c99595b595b9d081d5c19185d1959608a1b60648201526060906084016103fe565b600554610100900460ff16610f05576040516324ee1ca960e01b815260040160405180910390fd5b6003546000828152600660205260408120546001600160a01b0392831692168015801590610f50575033600090815260076020908152604080832087845260010190915290205460ff165b610f5b576000610f5d565b805b6040516331a9108f60e11b8152600481018690529092503391506001600160a01b03841690636352211e90602401602060405180830381865afa158015610fa8573d6000803e3d6000fd5b505050506040513d601f19601f82011682018060405250810190610fcc9190611dc0565b6001600160a01b031614610ff65760405163ad88647160e01b8152600481018490526024016103fe565b6001600160a01b0381163314801561102b575033600090815260076020908152604080832086845260010190915290205460ff165b1561104c576040516344196afd60e11b8152600481018490526024016103fe565b6002546005546040516322c904d960e01b81526001600160a01b03928316600482018190523060248301527f0000000000000000000000000000000000000000000000000000000000000000939092620100009004600b0b916000918516906322c904d990604401602060405180830381865afa1580156110d1573d6000803e3d6000fd5b505050506040513d601f19601f820116820180604052508101906110f59190611ddd565b90506001600160a01b0385163314611385576001600160a01b0385166000908152600760205260408082205433835290822054600b91820b92910b9061113e87878a8689611742565b9050600061114f888833868a611a3e565b9050600061115d8284611fed565b905061116b89898884611824565b611199576040516333c17a3b60e01b81526001600160a01b038b1660048201523360248201526044016103fe565b600b85900b1561126157604051630c03399160e01b81526001600160a01b038a1690630c033991906111d5908b9030908f908990600401611e49565b6020604051808303816000875af11580156111f4573d6000803e3d6000fd5b505050506040513d601f19601f820116820180604052508101906112189190611e90565b506001600160a01b038a16600090815260076020908152604080832080546001600160601b0319166001600160601b038c161781558f84526001019091529020805460ff191690555b600b84900b6112e5576040516370aa9b5b60e11b81526001600160a01b038a169063e15536b69061129c908b90309033908890600401611e49565b6020604051808303816000875af11580156112bb573d6000803e3d6000fd5b505050506040513d601f19601f820116820180604052508101906112df9190611e90565b5061135c565b604051630c03399160e01b81526001600160a01b038a1690630c03399190611317908b90309033908890600401611e49565b6020604051808303816000875af1158015611336573d6000803e3d6000fd5b505050506040513d601f19601f8201168201806040525081019061135a9190611e90565b505b505050600089815260066020526040902080546001600160a01b03191633179055506114a89050565b33600081815260076020526040812054600b0b916113a890879087908588611a3e565b9050600b82900b61142e576040516370aa9b5b60e11b81526001600160a01b0387169063e15536b6906113e5908890309033908790600401611e49565b6020604051808303816000875af1158015611404573d6000803e3d6000fd5b505050506040513d601f19601f820116820180604052508101906114289190611e90565b506114a5565b604051630c03399160e01b81526001600160a01b03871690630c03399190611460908890309033908790600401611e49565b6020604051808303816000875af115801561147f573d6000803e3d6000fd5b505050506040513d601f19601f820116820180604052508101906114a39190611e90565b505b50505b3360008181526007602081815260408084208c855260018082018452918520805460ff191690921790915593909252905254600b83810b91900b146115105733600090815260076020526040902080546001600160601b0319166001600160601b0384161790555b60405187815233907f90a5a57b652df5b9c4b1245c11aee7c6ba100d224871367c81229f8833b3f29c90602001610aa8565b6001546001600160a01b0316331461156d5760405163a17205b560e01b815260040160405180910390fd5b600554610100900460ff16151560010361159a576040516321ebf19760e11b815260040160405180910390fd5b6005805461ff0019166101001790556040517f095fdebb45b4f1fd3f76ce7a07f113fafa6da5fcd60d6983ab22693fe29d1ecd90600090a1565b6001546001600160a01b031633146115ff5760405163a17205b560e01b815260040160405180910390fd5b6002546040516323b872dd60e01b8152336004820152306024820152604481018390526001600160a01b039091169081906323b872dd906064016020604051808303816000875af1158015611658573d6000803e3d6000fd5b505050506040513d601f19601f8201168201806040525081019061167c9190611e90565b611699576040516312171d8360e31b815260040160405180910390fd5b806001600160a01b03167f6af4f348b0a94b3ecbd7d24059de3fd8ffb635abb46124d9effb1f88a995c7cc836040516116d491815260200190565b60405180910390a25050565b60405162461bcd60e51b815260206004820152602e60248201527f556e737570706f727465642063616c6c6261636b202d2041667465722041677260448201526d19595b595b9d0810dc99585d195960921b60648201526060906084016103fe565b6001600160a01b038316600090815260076020526040812054600b90810b9084900b1561180f57604051630ec5b29360e11b81526001600160a01b0387811660048301523060248301528681166044830152881690631d8b652690606401602060405180830381865afa1580156117bd573d6000803e3d6000fd5b505050506040513d601f19601f820116820180604052508101906117e19190611ddd565b905060006117ef858361201a565b9050836117fd600183611e16565b6118079190611ecb565b925050611819565b600091505061181b565b505b95945050505050565b600081600b0b83600b0b12156119dc576040516370a0823160e01b81523060048201526000906001600160a01b038616906370a0823190602401602060405180830381865afa15801561187b573d6000803e3d6000fd5b505050506040513d601f19601f8201168201806040525081019061189f9190611eb2565b6040516309f0b49560e01b81526001600160a01b038781166004830152600b87900b60248301529192506000918816906309f0b49590604401602060405180830381865afa1580156118f5573d6000803e3d6000fd5b505050506040513d601f19601f820116820180604052508101906119199190611eb2565b6040516309f0b49560e01b81526001600160a01b038881166004830152600b87900b60248301529192506000918916906309f0b49590604401602060405180830381865afa15801561196f573d6000803e3d6000fd5b505050506040513d601f19601f820116820180604052508101906119939190611eb2565b905060006119a761099b8762015180611ecb565b905060006119b58484611f60565b9050816119c28287611f60565b11156119d6576000955050505050506119e0565b50505050505b5060015b949350505050565b600080821215611a3a5760405162461bcd60e51b815260206004820181905260248201527f53616665436173743a2076616c7565206d75737420626520706f73697469766560448201526064016103fe565b5090565b6000600b83900b15611af557604051630ec5b29360e11b81526001600160a01b038681166004830152306024830152858116604483015260009190881690631d8b652690606401602060405180830381865afa158015611aa2573d6000803e3d6000fd5b505050506040513d601f19601f82011682018060405250810190611ac69190611ddd565b90506000611ad4858361201a565b905083611ae2826001611fed565b611aec9190611ecb565b9250505061181b565b508061181b565b6000815180845260005b81811015611b2257602081850181015186830182015201611b06565b506000602082860101526020601f19601f83011685010191505092915050565b602081526000611b556020830184611afc565b9392505050565b600060208284031215611b6e57600080fd5b81356001600160601b0381168114611b5557600080fd5b600060208284031215611b9757600080fd5b5035919050565b6001600160a01b0381168114611bb357600080fd5b50565b60008083601f840112611bc857600080fd5b50813567ffffffffffffffff811115611be057600080fd5b602083019150836020828501011115611bf857600080fd5b9250929050565b600080600080600080600080600060c08a8c031215611c1d57600080fd5b8935611c2881611b9e565b985060208a0135611c3881611b9e565b975060408a0135965060608a013567ffffffffffffffff80821115611c5c57600080fd5b611c688d838e01611bb6565b909850965060808c0135915080821115611c8157600080fd5b611c8d8d838e01611bb6565b909650945060a08c0135915080821115611ca657600080fd5b50611cb38c828d01611bb6565b915080935050809150509295985092959850929598565b600080600080600080600060a0888a031215611ce557600080fd5b8735611cf081611b9e565b96506020880135611d0081611b9e565b955060408801359450606088013567ffffffffffffffff80821115611d2457600080fd5b611d308b838c01611bb6565b909650945060808a0135915080821115611d4957600080fd5b50611d568a828b01611bb6565b989b979a50959850939692959293505050565b600060208284031215611d7b57600080fd5b8135611b5581611b9e565b600181811c90821680611d9a57607f821691505b602082108103611dba57634e487b7160e01b600052602260045260246000fd5b50919050565b600060208284031215611dd257600080fd5b8151611b5581611b9e565b600060208284031215611def57600080fd5b815180600b0b8114611b5557600080fd5b634e487b7160e01b600052601160045260246000fd5b600b82810b9082900b0360016001605f1b0319811260016001605f1b0382131715611e4357611e43611e00565b92915050565b6001600160a01b039485168152928416602084015292166040820152600b9190910b606082015260a06080820181905260029082015261060f60f31b60c082015260e00190565b600060208284031215611ea257600080fd5b81518015158114611b5557600080fd5b600060208284031215611ec457600080fd5b5051919050565b600081600b0b83600b0b60016001605f1b03600082136000841383830485118282161615611efb57611efb611e00565b60016001605f1b03196000851282811687830587121615611f1e57611f1e611e00565b60008712925085820587128484161615611f3a57611f3a611e00565b85850587128184161615611f5057611f50611e00565b5050509290910295945050505050565b81810381811115611e4357611e43611e00565b60008060408385031215611f8657600080fd5b8235611f9181611b9e565b91506020830135611fa181611b9e565b809150509250929050565b6001600160a01b03848116825283811660208301528216604082015260806060820181905260029082015261060f60f31b60a0820152600060c0820161181b565b600b81810b9083900b0160016001605f1b03811360016001605f1b031982121715611e4357611e43611e00565b600081600b0b83600b0b8061203f57634e487b7160e01b600052601260045260246000fd5b60016001605f1b031982146000198214161561205d5761205d611e00565b9005939250505056fea2646970667358221220a03b8b2304fa5573f26cc88bc866e45f035c22f65d57ad6b4b6c7720705ec4ad64736f6c63430008100033",
    "linkReferences": {}
  },
  "methodIdentifiers": {
    "CREATOR()": "e4fbb609",
    "HOST()": "49f289dc",
    "NFT()": "7c0b8de2",
    "STREAM_TOKEN()": "dcc76d1f",
    "activateTap()": "8cf79999",
    "active()": "02fb0c5e",
    "afterAgreementCreated(address,address,bytes32,bytes,bytes,bytes)": "d86ed3e5",
    "afterAgreementTerminated(address,address,bytes32,bytes,bytes,bytes)": "53c11f99",
    "afterAgreementUpdated(address,address,bytes32,bytes,bytes,bytes)": "230dbd29",
    "beforeAgreementCreated(address,address,bytes32,bytes,bytes)": "30d9c915",
    "beforeAgreementTerminated(address,address,bytes32,bytes,bytes)": "5f9e7d77",
    "beforeAgreementUpdated(address,address,bytes32,bytes,bytes)": "884d1f40",
    "changeRate(uint96)": "1c8da209",
    "claimStream(uint256)": "898f319c",
    "closeStream(uint256)": "1d1b7b77",
    "deactivateTap()": "48addb5c",
    "drainTap(uint256)": "42f5c618",
    "emergencyCloseStreams(address)": "6cb99967",
    "name()": "06fdde03",
    "pauseBulkClaims()": "5c3c205e",
    "ratePerNFT()": "1c17e2d6",
    "topUpTap(uint256)": "bde5880e"
  },
  "id": 20
}