{
  "abi": [
    {
      "inputs": [],
      "name": "BulkClaimsPaused",
      "type": "error"
    },
    {
      "inputs": [
        {
          "internalType": "address",
          "name": "holder",
          "type": "address"
        }
      ],
      "name": "HolderStreamsNotFound",
      "type": "error"
    },
    {
      "inputs": [],
      "name": "IneligibleClaim",
      "type": "error"
    },
    {
      "inputs": [
        {
          "internalType": "address",
          "name": "terminator",
          "type": "address"
        }
      ],
      "name": "NoEmergency",
      "type": "error"
    },
    {
      "inputs": [
        {
          "internalType": "address",
          "name": "terminator",
          "type": "address"
        }
      ],
      "name": "NotHost",
      "type": "error"
    },
    {
      "inputs": [
        {
          "internalType": "uint256",
          "name": "tokenId",
          "type": "uint256"
        }
      ],
      "name": "NotOwnerOfNFT",
      "type": "error"
    },
    {
      "inputs": [],
      "name": "NotTapCreator",
      "type": "error"
    },
    {
      "inputs": [
        {
          "internalType": "int96",
          "name": "ratePerNFT",
          "type": "int96"
        }
      ],
      "name": "SameClaimRate",
      "type": "error"
    },
    {
      "inputs": [
        {
          "internalType": "int96",
          "name": "ratePerNFT",
          "type": "int96"
        }
      ],
      "name": "SameTapRate",
      "type": "error"
    },
    {
      "inputs": [
        {
          "internalType": "uint256",
          "name": "tokenId",
          "type": "uint256"
        }
      ],
      "name": "StreamAlreadyClaimed",
      "type": "error"
    },
    {
      "inputs": [
        {
          "internalType": "uint256",
          "name": "tokenId",
          "type": "uint256"
        }
      ],
      "name": "StreamNotFound",
      "type": "error"
    },
    {
      "inputs": [
        {
          "internalType": "address",
          "name": "prevHolder",
          "type": "address"
        },
        {
          "internalType": "address",
          "name": "currHolder",
          "type": "address"
        }
      ],
      "name": "StreamsAdjustmentsFailed",
      "type": "error"
    },
    {
      "inputs": [
        {
          "internalType": "address",
          "name": "prevHolder",
          "type": "address"
        }
      ],
      "name": "StreamsAlreadyReinstated",
      "type": "error"
    },
    {
      "inputs": [],
      "name": "TapActive",
      "type": "error"
    },
    {
      "inputs": [
        {
          "internalType": "uint256",
          "name": "currTapBalance",
          "type": "uint256"
        },
        {
          "internalType": "uint256",
          "name": "reqTapBalance",
          "type": "uint256"
        }
      ],
      "name": "TapBalanceInsufficient",
      "type": "error"
    },
    {
      "inputs": [],
      "name": "TapExists",
      "type": "error"
    },
    {
      "inputs": [],
      "name": "TapInactive",
      "type": "error"
    },
    {
      "inputs": [
        {
          "internalType": "uint256",
          "name": "remainingAmount",
          "type": "uint256"
        },
        {
          "internalType": "uint256",
          "name": "minAmountRequried",
          "type": "uint256"
        }
      ],
      "name": "TapMinAmountLimit",
      "type": "error"
    },
    {
      "inputs": [],
      "name": "TapNotFound",
      "type": "error"
    },
    {
      "inputs": [],
      "name": "TransferFailed",
      "type": "error"
    },
    {
      "inputs": [
        {
          "internalType": "uint256",
          "name": "tokenId",
          "type": "uint256"
        },
        {
          "internalType": "address",
          "name": "terminator",
          "type": "address"
        }
      ],
      "name": "WrongStreamCloseAttempt",
      "type": "error"
    },
    {
      "inputs": [],
      "name": "ZeroAddress",
      "type": "error"
    },
    {
      "anonymous": false,
      "inputs": [
        {
          "indexed": true,
          "internalType": "address",
          "name": "holder",
          "type": "address"
        }
      ],
      "name": "EmergencyCloseInitiated",
      "type": "event"
    },
    {
      "anonymous": false,
      "inputs": [
        {
          "indexed": false,
          "internalType": "uint8",
          "name": "version",
          "type": "uint8"
        }
      ],
      "name": "Initialized",
      "type": "event"
    },
    {
      "anonymous": false,
      "inputs": [
        {
          "indexed": true,
          "internalType": "address",
          "name": "claimant",
          "type": "address"
        },
        {
          "indexed": false,
          "internalType": "uint256",
          "name": "tokenId",
          "type": "uint256"
        }
      ],
      "name": "StreamClaimedById",
      "type": "event"
    },
    {
      "anonymous": false,
      "inputs": [
        {
          "indexed": true,
          "internalType": "address",
          "name": "holder",
          "type": "address"
        },
        {
          "indexed": false,
          "internalType": "int96",
          "name": "oldRatePerNFT",
          "type": "int96"
        },
        {
          "indexed": false,
          "internalType": "int96",
          "name": "newRatePerNFT",
          "type": "int96"
        }
      ],
      "name": "StreamsAdjusted",
      "type": "event"
    },
    {
      "anonymous": false,
      "inputs": [
        {
          "indexed": true,
          "internalType": "address",
          "name": "claimant",
          "type": "address"
        },
        {
          "indexed": false,
          "internalType": "int96",
          "name": "oldStreamRate",
          "type": "int96"
        },
        {
          "indexed": false,
          "internalType": "int96",
          "name": "newStreamRate",
          "type": "int96"
        }
      ],
      "name": "StreamsClaimed",
      "type": "event"
    },
    {
      "anonymous": false,
      "inputs": [
        {
          "indexed": true,
          "internalType": "address",
          "name": "holder",
          "type": "address"
        },
        {
          "indexed": false,
          "internalType": "int96",
          "name": "numStreams",
          "type": "int96"
        },
        {
          "indexed": false,
          "internalType": "int96",
          "name": "newOutStreamRate",
          "type": "int96"
        },
        {
          "indexed": false,
          "internalType": "int96",
          "name": "ratePerNFT",
          "type": "int96"
        }
      ],
      "name": "StreamsReinstated",
      "type": "event"
    },
    {
      "anonymous": false,
      "inputs": [],
      "name": "TapActivated",
      "type": "event"
    },
    {
      "anonymous": false,
      "inputs": [
        {
          "indexed": false,
          "internalType": "string",
          "name": "name",
          "type": "string"
        },
        {
          "indexed": false,
          "internalType": "address",
          "name": "creator",
          "type": "address"
        },
        {
          "indexed": true,
          "internalType": "address",
          "name": "nft",
          "type": "address"
        },
        {
          "indexed": true,
          "internalType": "address",
          "name": "superToken",
          "type": "address"
        },
        {
          "indexed": false,
          "internalType": "uint96",
          "name": "ratePerNFT",
          "type": "uint96"
        }
      ],
      "name": "TapCreated",
      "type": "event"
    },
    {
      "anonymous": false,
      "inputs": [],
      "name": "TapDeactivated",
      "type": "event"
    },
    {
      "anonymous": false,
      "inputs": [
        {
          "indexed": true,
          "internalType": "address",
          "name": "streamToken",
          "type": "address"
        },
        {
          "indexed": false,
          "internalType": "uint256",
          "name": "drainAmount",
          "type": "uint256"
        }
      ],
      "name": "TapDrained",
      "type": "event"
    },
    {
      "anonymous": false,
      "inputs": [
        {
          "indexed": false,
          "internalType": "int96",
          "name": "oldRatePerNFT",
          "type": "int96"
        },
        {
          "indexed": false,
          "internalType": "int96",
          "name": "newRatePerNFT",
          "type": "int96"
        }
      ],
      "name": "TapRateChanged",
      "type": "event"
    },
    {
      "anonymous": false,
      "inputs": [
        {
          "indexed": true,
          "internalType": "address",
          "name": "superToken",
          "type": "address"
        },
        {
          "indexed": false,
          "internalType": "uint256",
          "name": "amount",
          "type": "uint256"
        }
      ],
      "name": "TapToppedUp",
      "type": "event"
    },
    {
      "inputs": [],
      "name": "CREATOR",
      "outputs": [
        {
          "internalType": "address",
          "name": "",
          "type": "address"
        }
      ],
      "stateMutability": "view",
      "type": "function"
    },
    {
      "inputs": [],
      "name": "HOST",
      "outputs": [
        {
          "internalType": "address",
          "name": "",
          "type": "address"
        }
      ],
      "stateMutability": "view",
      "type": "function"
    },
    {
      "inputs": [],
      "name": "NFT",
      "outputs": [
        {
          "internalType": "contract IERC721",
          "name": "",
          "type": "address"
        }
      ],
      "stateMutability": "view",
      "type": "function"
    },
    {
      "inputs": [],
      "name": "STREAM_TOKEN",
      "outputs": [
        {
          "internalType": "contract ISuperToken",
          "name": "",
          "type": "address"
        }
      ],
      "stateMutability": "view",
      "type": "function"
    },
    {
      "inputs": [],
      "name": "activateTap",
      "outputs": [],
      "stateMutability": "nonpayable",
      "type": "function"
    },
    {
      "inputs": [],
      "name": "active",
      "outputs": [
        {
          "internalType": "bool",
          "name": "",
          "type": "bool"
        }
      ],
      "stateMutability": "view",
      "type": "function"
    },
    {
      "inputs": [
        {
          "internalType": "address",
          "name": "_holder",
          "type": "address"
        }
      ],
      "name": "adjustCurrentStreams",
      "outputs": [],
      "stateMutability": "nonpayable",
      "type": "function"
    },
    {
      "inputs": [
        {
          "internalType": "contract ISuperToken",
          "name": "",
          "type": "address"
        },
        {
          "internalType": "address",
          "name": "",
          "type": "address"
        },
        {
          "internalType": "bytes32",
          "name": "",
          "type": "bytes32"
        },
        {
          "internalType": "bytes",
          "name": "",
          "type": "bytes"
        },
        {
          "internalType": "bytes",
          "name": "",
          "type": "bytes"
        },
        {
          "internalType": "bytes",
          "name": "",
          "type": "bytes"
        }
      ],
      "name": "afterAgreementCreated",
      "outputs": [
        {
          "internalType": "bytes",
          "name": "",
          "type": "bytes"
        }
      ],
      "stateMutability": "nonpayable",
      "type": "function"
    },
    {
      "inputs": [
        {
          "internalType": "contract ISuperToken",
          "name": "",
          "type": "address"
        },
        {
          "internalType": "address",
          "name": "",
          "type": "address"
        },
        {
          "internalType": "bytes32",
          "name": "",
          "type": "bytes32"
        },
        {
          "internalType": "bytes",
          "name": "_agreementData",
          "type": "bytes"
        },
        {
          "internalType": "bytes",
          "name": "",
          "type": "bytes"
        },
        {
          "internalType": "bytes",
          "name": "_ctx",
          "type": "bytes"
        }
      ],
      "name": "afterAgreementTerminated",
      "outputs": [
        {
          "internalType": "bytes",
          "name": "_newCtx",
          "type": "bytes"
        }
      ],
      "stateMutability": "nonpayable",
      "type": "function"
    },
    {
      "inputs": [
        {
          "internalType": "contract ISuperToken",
          "name": "",
          "type": "address"
        },
        {
          "internalType": "address",
          "name": "",
          "type": "address"
        },
        {
          "internalType": "bytes32",
          "name": "",
          "type": "bytes32"
        },
        {
          "internalType": "bytes",
          "name": "",
          "type": "bytes"
        },
        {
          "internalType": "bytes",
          "name": "",
          "type": "bytes"
        },
        {
          "internalType": "bytes",
          "name": "",
          "type": "bytes"
        }
      ],
      "name": "afterAgreementUpdated",
      "outputs": [
        {
          "internalType": "bytes",
          "name": "",
          "type": "bytes"
        }
      ],
      "stateMutability": "nonpayable",
      "type": "function"
    },
    {
      "inputs": [
        {
          "internalType": "contract ISuperToken",
          "name": "",
          "type": "address"
        },
        {
          "internalType": "address",
          "name": "",
          "type": "address"
        },
        {
          "internalType": "bytes32",
          "name": "",
          "type": "bytes32"
        },
        {
          "internalType": "bytes",
          "name": "",
          "type": "bytes"
        },
        {
          "internalType": "bytes",
          "name": "",
          "type": "bytes"
        }
      ],
      "name": "beforeAgreementCreated",
      "outputs": [
        {
          "internalType": "bytes",
          "name": "",
          "type": "bytes"
        }
      ],
      "stateMutability": "view",
      "type": "function"
    },
    {
      "inputs": [
        {
          "internalType": "contract ISuperToken",
          "name": "",
          "type": "address"
        },
        {
          "internalType": "address",
          "name": "",
          "type": "address"
        },
        {
          "internalType": "bytes32",
          "name": "",
          "type": "bytes32"
        },
        {
          "internalType": "bytes",
          "name": "",
          "type": "bytes"
        },
        {
          "internalType": "bytes",
          "name": "",
          "type": "bytes"
        }
      ],
      "name": "beforeAgreementTerminated",
      "outputs": [
        {
          "internalType": "bytes",
          "name": "",
          "type": "bytes"
        }
      ],
      "stateMutability": "view",
      "type": "function"
    },
    {
      "inputs": [
        {
          "internalType": "contract ISuperToken",
          "name": "",
          "type": "address"
        },
        {
          "internalType": "address",
          "name": "",
          "type": "address"
        },
        {
          "internalType": "bytes32",
          "name": "",
          "type": "bytes32"
        },
        {
          "internalType": "bytes",
          "name": "",
          "type": "bytes"
        },
        {
          "internalType": "bytes",
          "name": "",
          "type": "bytes"
        }
      ],
      "name": "beforeAgreementUpdated",
      "outputs": [
        {
          "internalType": "bytes",
          "name": "",
          "type": "bytes"
        }
      ],
      "stateMutability": "view",
      "type": "function"
    },
    {
      "inputs": [
        {
          "internalType": "uint96",
          "name": "_newRatePerNFT",
          "type": "uint96"
        }
      ],
      "name": "changeRate",
      "outputs": [],
      "stateMutability": "nonpayable",
      "type": "function"
    },
    {
      "inputs": [
        {
          "internalType": "uint256",
          "name": "_tokenId",
          "type": "uint256"
        }
      ],
      "name": "claimStream",
      "outputs": [],
      "stateMutability": "nonpayable",
      "type": "function"
    },
    {
      "inputs": [
        {
          "internalType": "uint256",
          "name": "_tokenId",
          "type": "uint256"
        }
      ],
      "name": "closeStream",
      "outputs": [],
      "stateMutability": "nonpayable",
      "type": "function"
    },
    {
      "inputs": [],
      "name": "deactivateTap",
      "outputs": [],
      "stateMutability": "nonpayable",
      "type": "function"
    },
    {
      "inputs": [
        {
          "internalType": "uint256",
          "name": "_amount",
          "type": "uint256"
        }
      ],
      "name": "drainTap",
      "outputs": [],
      "stateMutability": "nonpayable",
      "type": "function"
    },
    {
      "inputs": [
        {
          "internalType": "address",
          "name": "_holder",
          "type": "address"
        }
      ],
      "name": "emergencyCloseStreams",
      "outputs": [],
      "stateMutability": "nonpayable",
      "type": "function"
    },
    {
      "inputs": [
        {
          "internalType": "address",
          "name": "_user",
          "type": "address"
        },
        {
          "internalType": "uint256",
          "name": "_tokenId",
          "type": "uint256"
        }
      ],
      "name": "getClaimedData",
      "outputs": [
        {
          "internalType": "bool",
          "name": "_status",
          "type": "bool"
        },
        {
          "internalType": "int96",
          "name": "_claimedRate",
          "type": "int96"
        }
      ],
      "stateMutability": "view",
      "type": "function"
    },
    {
      "inputs": [
        {
          "internalType": "string",
          "name": "_name",
          "type": "string"
        },
        {
          "internalType": "address",
          "name": "_host",
          "type": "address"
        },
        {
          "internalType": "address",
          "name": "_creator",
          "type": "address"
        },
        {
          "internalType": "uint96",
          "name": "_ratePerNFT",
          "type": "uint96"
        },
        {
          "internalType": "contract IcfaV1Forwarder",
          "name": "_cfaV1Forwarder",
          "type": "address"
        },
        {
          "internalType": "contract IERC721",
          "name": "_nft",
          "type": "address"
        },
        {
          "internalType": "contract ISuperToken",
          "name": "_streamToken",
          "type": "address"
        }
      ],
      "name": "initialize",
      "outputs": [],
      "stateMutability": "nonpayable",
      "type": "function"
    },
    {
      "inputs": [],
      "name": "isCritical",
      "outputs": [
        {
          "internalType": "bool",
          "name": "_status",
          "type": "bool"
        }
      ],
      "stateMutability": "view",
      "type": "function"
    },
    {
      "inputs": [],
      "name": "name",
      "outputs": [
        {
          "internalType": "string",
          "name": "",
          "type": "string"
        }
      ],
      "stateMutability": "view",
      "type": "function"
    },
    {
      "inputs": [],
      "name": "ratePerNFT",
      "outputs": [
        {
          "internalType": "int96",
          "name": "",
          "type": "int96"
        }
      ],
      "stateMutability": "view",
      "type": "function"
    },
    {
      "inputs": [
        {
          "internalType": "address",
          "name": "_prevHolder",
          "type": "address"
        }
      ],
      "name": "reinstateStreams",
      "outputs": [],
      "stateMutability": "nonpayable",
      "type": "function"
    },
    {
      "inputs": [
        {
          "internalType": "uint256",
          "name": "_amount",
          "type": "uint256"
        }
      ],
      "name": "topUpTap",
      "outputs": [],
      "stateMutability": "nonpayable",
      "type": "function"
    }
  ],
  "bytecode": {
    "object": "0x608060405234801561001057600080fd5b506129bd806100206000396000f3fe608060405234801561001057600080fd5b506004361061018e5760003560e01c80636cb99967116100de578063b20b6b5911610097578063d86ed3e511610071578063d86ed3e514610357578063dcc76d1f1461036a578063e4fbb6091461037d578063e65fa3f91461039057600080fd5b8063b20b6b591461031e578063bcefe61014610331578063bde5880e1461034457600080fd5b80636cb99967146102b75780637c0b8de2146102ca578063884d1f40146102dd578063898f319c146102f05780638cf7999914610303578063927e35201461030b57600080fd5b80632e40bfac1161014b57806348addb5c1161012557806348addb5c1461025857806349f289dc1461026057806353c11f99146102915780635f9e7d77146102a457600080fd5b80632e40bfac1461022a57806330d9c9151461023257806342f5c6181461024557600080fd5b806302fb0c5e1461019357806306fdde03146101b55780631c17e2d6146101ca5780631c8da209146101ef5780631d1b7b7714610204578063230dbd2914610217575b600080fd5b6005546101a09060ff1681565b60405190151581526020015b60405180910390f35b6101bd6103fb565b6040516101ac91906121e8565b6005546101dc906101009004600b0b81565b604051600b9190910b81526020016101ac565b6102026101fd366004612212565b610489565b005b61020261021236600461222d565b610559565b6101bd6102253660046122af565b6108e9565b6101a061094b565b6101bd61024036600461237a565b610a98565b61020261025336600461222d565b610afb565b610202610cab565b600054610279906201000090046001600160a01b031681565b6040516001600160a01b0390911681526020016101ac565b6101bd61029f3660046122af565b610d33565b6101bd6102b236600461237a565b610e13565b6102026102c5366004612419565b610e7a565b600354610279906001600160a01b031681565b6101bd6102eb36600461237a565b610fa5565b6102026102fe36600461222d565b611008565b6102026115a7565b61020261031936600461244c565b611632565b61020261032c366004612419565b61182c565b61020261033f366004612419565b611a67565b61020261035236600461222d565b611c52565b6101bd6103653660046122af565b611d5e565b600254610279906001600160a01b031681565b600154610279906001600160a01b031681565b6103e161039e366004612561565b6001600160a01b03909116600081815260086020818152604080842095845260028601825283205493909252905260019091015460ff90911691600b9190910b90565b604080519215158352600b9190910b6020830152016101ac565b600480546104089061258d565b80601f01602080910402602001604051908101604052809291908181526020018280546104349061258d565b80156104815780601f1061045657610100808354040283529160200191610481565b820191906000526020600020905b81548152906001019060200180831161046457829003601f168201915b505050505081565b6001546001600160a01b031633146104b45760405163a17205b560e01b815260040160405180910390fd5b6005546101009004600b90810b90829081900b82036104f15760405163245deae960e11b8152600b82900b60048201526024015b60405180910390fd5b600580546cffffffffffffffffffffffff0019166101006001600160601b0386160217905560408051600b84810b825283900b60208201527f3f4f15794d3d6909eeffd3c852e9ade086118bf01ed932cd7c40fca47501b6fb910160405180910390a1505050565b6000818152600760205260409020546001600160a01b03168015806105a557506001600160a01b038116600090815260086020908152604080832085845260020190915290205460ff16155b156105c6576040516347e7ef2160e11b8152600481018390526024016104e8565b6002546006546003546040516331a9108f60e11b8152600481018690526001600160a01b0393841693928316926000921690636352211e90602401602060405180830381865afa15801561061e573d6000803e3d6000fd5b505050506040513d601f19601f8201168201806040525081019061064291906125c7565b90506001600160a01b03811633148061066557506001546001600160a01b031633145b156108c057604051630ec5b29360e11b81526001600160a01b038481166004830152306024830152858116604483015260009190841690631d8b652690606401602060405180830381865afa1580156106c2573d6000803e3d6000fd5b505050506040513d601f19601f820116820180604052508101906106e691906125e4565b6001600160a01b038616600090815260086020526040812060010154600554929350600b90810b9261072791879189918b918791610100909104900b611dc0565b600089815260076020908152604080832080546001600160a01b03191690556001600160a01b038b1680845260088084528285208e8652600281018552928520805460ff191690559084529091528054929350916107849061261d565b90915550600b81810b9084900b13806107bc575080600b0b83600b0b1280156107bc57506107bc85876107b78685612634565b611e1f565b1561083a57604051632bf3551b60e11b81526001600160a01b038616906357e6aa36906107f19089908b908690600401612667565b6020604051808303816000875af1158015610810573d6000803e3d6000fd5b505050506040513d601f19601f82011682018060405250810190610834919061268e565b506108b8565b6001600160a01b0385166357e6aa3687896108558688612634565b6040518463ffffffff1660e01b815260040161087393929190612667565b6020604051808303816000875af1158015610892573d6000803e3d6000fd5b505050506040513d601f19601f820116820180604052508101906108b6919061268e565b505b5050506108e2565b60405163791c605560e01b8152600481018690523360248201526044016104e8565b5050505050565b60405162461bcd60e51b815260206004820152602e60248201527f556e737570706f727465642063616c6c6261636b202d2041667465722041677260448201526d19595b595b9d08155c19185d195960921b60648201526060906084016104e8565b6006546002546040516322c904d960e01b81526001600160a01b0391821660048201819052306024830152600093929092169190839083906322c904d990604401602060405180830381865afa1580156109a9573d6000803e3d6000fd5b505050506040513d601f19601f820116820180604052508101906109cd91906125e4565b9050600081600b0b126109e4576000935050505090565b6040516370a0823160e01b81523060048201526000906001600160a01b038416906370a0823190602401602060405180830381865afa158015610a2b573d6000803e3d6000fd5b505050506040513d601f19601f82011682018060405250810190610a4f91906126b0565b90506000610a77610a62846000196126c9565b610a6f90620151806126c9565b600b0b611fcd565b9050808210610a8c5760009550505050505090565b60019550505050505090565b60405162461bcd60e51b815260206004820152602f60248201527f556e737570706f727465642063616c6c6261636b202d204265666f726520416760448201526e1c99595b595b9d0810dc99585d1959608a1b60648201526060906084016104e8565b6001546001600160a01b03163314610b265760405163a17205b560e01b815260040160405180910390fd5b6002546040516370a0823160e01b81523060048201526001600160a01b039091169060009082906370a0823190602401602060405180830381865afa158015610b73573d6000803e3d6000fd5b505050506040513d601f19601f82011682018060405250810190610b9791906126b0565b90506000198303610baa57809250610bd5565b82811015610bd5576040516346b73ad560e01b815260048101829052602481018490526044016104e8565b60405163a9059cbb60e01b8152336004820152602481018490526001600160a01b0383169063a9059cbb906044016020604051808303816000875af1158015610c22573d6000803e3d6000fd5b505050506040513d601f19601f82011682018060405250810190610c46919061268e565b610c63576040516312171d8360e31b815260040160405180910390fd5b816001600160a01b03167f3b891b094348cade467bfc59c9804ace7bb78911a139f6442a30250c5f30597984604051610c9e91815260200190565b60405180910390a2505050565b6001546001600160a01b03163314610cd65760405163a17205b560e01b815260040160405180910390fd5b60055460ff161515600003610cfe576040516324ee1ca960e01b815260040160405180910390fd5b6005805460ff191690556040517f3a15dda76c298a039674b2287c867ba88f2236e2d01b54ba865ead296570386490600090a1565b6000546060906201000090046001600160a01b03163314610d6957604051635614fa7760e01b81523360048201526024016104e8565b82828080601f0160208091040260200160405190810160405280939291908181526020018383808284376000920182905250939450610dae925050508789018961275e565b915050610dde6040518060400160405280600c81526020016b52656163686564206865726560a01b815250612023565b6001600160a01b0316600090815260086020526040902060010180546001600160601b03191690559998505050505050505050565b60405162461bcd60e51b815260206004820152603360248201527f556e737570706f727465642063616c6c6261636b202d20204265666f7265204160448201527219dc99595b595b9d0815195c9b5a5b985d1959606a1b60648201526060906084016104e8565b6001546001600160a01b03163314801590610e9a5750610e9861094b565b155b15610eba576040516373e9588760e11b81523360048201526024016104e8565b60055460ff1615610ed0576005805460ff191690555b6001600160a01b0380821660009081526008602052604080822060010180546001600160601b03191690556006546002549151632bf3551b60e11b8152908416936357e6aa3693610f2a9390911691869190600401612667565b6020604051808303816000875af1158015610f49573d6000803e3d6000fd5b505050506040513d601f19601f82011682018060405250810190610f6d919061268e565b506040516001600160a01b038216907f15ed2cc902282ba6d45db1192488213eaca35dffb37edec22aacf8cbf408c24e90600090a250565b60405162461bcd60e51b815260206004820152602f60248201527f556e737570706f727465642063616c6c6261636b202d204265666f726520416760448201526e1c99595b595b9d081d5c19185d1959608a1b60648201526060906084016104e8565b60055460ff1661102b576040516324ee1ca960e01b815260040160405180910390fd5b6003546000828152600760205260408120546001600160a01b039283169216801580159061107f57506001600160a01b038116600090815260086020908152604080832087845260020190915290205460ff165b15611088578091505b506040516331a9108f60e11b81526004810184905233906001600160a01b03841690636352211e90602401602060405180830381865afa1580156110d0573d6000803e3d6000fd5b505050506040513d601f19601f820116820180604052508101906110f491906125c7565b6001600160a01b03161461111e5760405163ad88647160e01b8152600481018490526024016104e8565b6001600160a01b03811633148015611153575033600090815260086020908152604080832086845260020190915290205460ff165b15611174576040516344196afd60e11b8152600481018490526024016104e8565b6006546002546005546001600160a01b039283169291821691610100909104600b0b9084163314611441576001600160a01b0384166000908152600860205260408082206001908101543384529183200154600b91820b92910b906111dc8686898688611dc0565b905060006111ed8787338689612069565b905060006111fb8486612797565b6112058385612797565b61120f9190612634565b905061121c888883611e1f565b61124a576040516333c17a3b60e01b81526001600160a01b038a1660048201523360248201526044016104e8565b600b85900b156113a4576000600860008b6001600160a01b03166001600160a01b0316815260200190815260200160002060020160008d815260200190815260200160002060006101000a81548160ff02191690831515021790555085600860008b6001600160a01b03166001600160a01b0316815260200190815260200160002060010160006101000a8154816001600160601b030219169083600b0b6001600160601b03160217905550600860008a6001600160a01b03166001600160a01b031681526020019081526020016000206000016000815461132b9061261d565b90915550604051632bf3551b60e11b81526001600160a01b038916906357e6aa369061135f908a908d908890600401612667565b6020604051808303816000875af115801561137e573d6000803e3d6000fd5b505050506040513d601f19601f820116820180604052508101906113a2919061268e565b505b604051632bf3551b60e11b81526001600160a01b038916906357e6aa36906113d4908a9033908790600401612667565b6020604051808303816000875af11580156113f3573d6000803e3d6000fd5b505050506040513d601f19601f82011682018060405250810190611417919061268e565b505050600089815260076020526040902080546001600160a01b03191633179055506114e1915050565b33600081815260086020526040812060010154600b0b9161146790869086908587612069565b604051632bf3551b60e11b81529091506001600160a01b038616906357e6aa369061149a90879033908690600401612667565b6020604051808303816000875af11580156114b9573d6000803e3d6000fd5b505050506040513d601f19601f820116820180604052508101906114dd919061268e565b5050505b3360008181526008602081815260408084208b8552600281018352908420805460ff19166001179055938352528154611519906127c4565b9091555033600090815260086020526040902060010154600b82810b91900b146115695733600090815260086020526040902060010180546001600160601b0319166001600160601b0383161790555b60405186815233907f90a5a57b652df5b9c4b1245c11aee7c6ba100d224871367c81229f8833b3f29c906020015b60405180910390a2505050505050565b6001546001600160a01b031633146115d25760405163a17205b560e01b815260040160405180910390fd5b60055460ff1615156001036115fa576040516321ebf19760e11b815260040160405180910390fd5b6005805460ff191660011790556040517f095fdebb45b4f1fd3f76ce7a07f113fafa6da5fcd60d6983ab22693fe29d1ecd90600090a1565b600054610100900460ff16158080156116525750600054600160ff909116105b8061166c5750303b15801561166c575060005460ff166001145b6116cf5760405162461bcd60e51b815260206004820152602e60248201527f496e697469616c697a61626c653a20636f6e747261637420697320616c72656160448201526d191e481a5b9a5d1a585b1a5e995960921b60648201526084016104e8565b6000805460ff1916600117905580156116f2576000805461ff0019166101001790555b6000805462010000600160b01b031916620100006001600160a01b038a81169190910291909117909155600680546001600160a01b03199081168784161790915560028054821685841617905560018054821689841617905560038054909116918516919091179055600580546cffffffffffffffffffffffff0019166101006001600160601b03881602179055600461178c898261282c565b50816001600160a01b0316836001600160a01b03167f5aa0d639432ea7da3976c64fbf2d61e924cb399d52d50bf897a13ab2054aa6cd8a89896040516117d4939291906128ec565b60405180910390a38015611822576000805461ff0019169055604051600181527f7f26b83ff96e1f2b6a682f133852f6798a09c465da95921460cefb38474024989060200160405180910390a15b5050505050505050565b60055460ff1661184f576040516324ee1ca960e01b815260040160405180910390fd5b600654600254600554604051630ec5b29360e11b81526001600160a01b039283166004820181905230602483015285841660448301529290931692610100909104600b0b906000908490631d8b652690606401602060405180830381865afa1580156118bf573d6000803e3d6000fd5b505050506040513d601f19601f820116820180604052508101906118e391906125e4565b9050600b81900b611912576040516345da2b7560e11b81526001600160a01b03861660048201526024016104e8565b6001600160a01b038516600090815260086020526040902060010154600b90810b9083900b810361195c5760405163aeecca6d60e01b8152600b84900b60048201526024016104e8565b60006119688284612928565b6001600160a01b03888116600090815260086020526040902060010180546001600160601b0319166001600160601b03881617905590915086166357e6aa3686896119b388866126c9565b6040518463ffffffff1660e01b81526004016119d193929190612667565b6020604051808303816000875af11580156119f0573d6000803e3d6000fd5b505050506040513d601f19601f82011682018060405250810190611a14919061268e565b5060408051600b84810b825286900b60208201526001600160a01b038916917fa10702d01d3c4ff4c3ce65a72ea172bfb010b2e9f34bd104df867a535d1185e9910160405180910390a250505050505050565b60055460ff16611a8a576040516324ee1ca960e01b815260040160405180910390fd5b6001600160a01b038116600090815260086020526040902060010154600b0b15611ad2576040516309b6b87760e11b81526001600160a01b03821660048201526024016104e8565b6006546002546005546001600160a01b03848116600090815260086020526040812054948216949390911692610100909204600b0b91611b1a90611b15906120af565b612119565b90506000611b2883836126c9565b9050611b35858583611e1f565b15611b5e576040516309b6b87760e11b81526001600160a01b03871660048201526024016104e8565b6001600160a01b038681166000908152600860205260409081902060010180546001600160601b0319166001600160601b03871617905551632bf3551b60e11b8152908616906357e6aa3690611bbc9087908a908690600401612667565b6020604051808303816000875af1158015611bdb573d6000803e3d6000fd5b505050506040513d601f19601f82011682018060405250810190611bff919061268e565b5060408051600b84810b825283810b602083015285900b918101919091526001600160a01b038716907fea709432316b7b3da35d14ba2d798e38eb80dc76c8ec47ba35cd0939d3dee36490606001611597565b6001546001600160a01b03163314611c7d5760405163a17205b560e01b815260040160405180910390fd5b6002546040516323b872dd60e01b8152336004820152306024820152604481018390526001600160a01b039091169081906323b872dd906064016020604051808303816000875af1158015611cd6573d6000803e3d6000fd5b505050506040513d601f19601f82011682018060405250810190611cfa919061268e565b611d17576040516312171d8360e31b815260040160405180910390fd5b806001600160a01b03167f6af4f348b0a94b3ecbd7d24059de3fd8ffb635abb46124d9effb1f88a995c7cc83604051611d5291815260200190565b60405180910390a25050565b60405162461bcd60e51b815260206004820152602e60248201527f556e737570706f727465642063616c6c6261636b202d2041667465722041677260448201526d19595b595b9d0810dc99585d195960921b60648201526060906084016104e8565b6000600b83900b15611e12576001600160a01b0384166000908152600860205260409020548290600190611df790611b15906120af565b611e019190612634565b611e0b91906126c9565b9050611e16565b5060005b95945050505050565b6040516322c904d960e01b81526001600160a01b03838116600483015230602483015260009182918616906322c904d990604401602060405180830381865afa158015611e70573d6000803e3d6000fd5b505050506040513d601f19601f82011682018060405250810190611e9491906125e4565b905082600b0b81600b0b1215611fc0576040516370a0823160e01b81523060048201526000906001600160a01b038616906370a0823190602401602060405180830381865afa158015611eeb573d6000803e3d6000fd5b505050506040513d601f19601f82011682018060405250810190611f0f91906126b0565b6040516309f0b49560e01b81526001600160a01b038781166004830152600b87900b60248301529192506000918816906309f0b49590604401602060405180830381865afa158015611f65573d6000803e3d6000fd5b505050506040513d601f19601f82011682018060405250810190611f8991906126b0565b90506000611f9c610a62856000196126c9565b905080611fa98385612974565b1015611fbc576000945050505050611fc6565b5050505b60019150505b9392505050565b60008082121561201f5760405162461bcd60e51b815260206004820181905260248201527f53616665436173743a2076616c7565206d75737420626520706f73697469766560448201526064016104e8565b5090565b6120668160405160240161203791906121e8565b60408051601f198184030181529190526020810180516001600160e01b031663104c13eb60e21b179052612181565b50565b6000600b83900b156120a8576001600160a01b038416600090815260086020526040902054829061209d90611b15906120af565b611e01906001612797565b5080611e16565b60006001600160ff1b0382111561201f5760405162461bcd60e51b815260206004820152602860248201527f53616665436173743a2076616c756520646f65736e27742066697420696e2061604482015267371034b73a191a9b60c11b60648201526084016104e8565b80600b81900b811461217c5760405162461bcd60e51b815260206004820152602660248201527f53616665436173743a2076616c756520646f65736e27742066697420696e203960448201526536206269747360d01b60648201526084016104e8565b919050565b80516a636f6e736f6c652e6c6f67602083016000808483855afa5050505050565b6000815180845260005b818110156121c8576020818501810151868301820152016121ac565b506000602082860101526020601f19601f83011685010191505092915050565b602081526000611fc660208301846121a2565b80356001600160601b038116811461217c57600080fd5b60006020828403121561222457600080fd5b611fc6826121fb565b60006020828403121561223f57600080fd5b5035919050565b6001600160a01b038116811461206657600080fd5b803561217c81612246565b60008083601f84011261227857600080fd5b50813567ffffffffffffffff81111561229057600080fd5b6020830191508360208285010111156122a857600080fd5b9250929050565b600080600080600080600080600060c08a8c0312156122cd57600080fd5b89356122d881612246565b985060208a01356122e881612246565b975060408a0135965060608a013567ffffffffffffffff8082111561230c57600080fd5b6123188d838e01612266565b909850965060808c013591508082111561233157600080fd5b61233d8d838e01612266565b909650945060a08c013591508082111561235657600080fd5b506123638c828d01612266565b915080935050809150509295985092959850929598565b600080600080600080600060a0888a03121561239557600080fd5b87356123a081612246565b965060208801356123b081612246565b955060408801359450606088013567ffffffffffffffff808211156123d457600080fd5b6123e08b838c01612266565b909650945060808a01359150808211156123f957600080fd5b506124068a828b01612266565b989b979a50959850939692959293505050565b60006020828403121561242b57600080fd5b8135611fc681612246565b634e487b7160e01b600052604160045260246000fd5b600080600080600080600060e0888a03121561246757600080fd5b873567ffffffffffffffff8082111561247f57600080fd5b818a0191508a601f83011261249357600080fd5b8135818111156124a5576124a5612436565b604051601f8201601f19908116603f011681019083821181831017156124cd576124cd612436565b816040528281528d60208487010111156124e657600080fd5b82602086016020830137600060208483010152809b50505050505061250d6020890161225b565b955061251b6040890161225b565b9450612529606089016121fb565b93506125376080890161225b565b925061254560a0890161225b565b915061255360c0890161225b565b905092959891949750929550565b6000806040838503121561257457600080fd5b823561257f81612246565b946020939093013593505050565b600181811c908216806125a157607f821691505b6020821081036125c157634e487b7160e01b600052602260045260246000fd5b50919050565b6000602082840312156125d957600080fd5b8151611fc681612246565b6000602082840312156125f657600080fd5b815180600b0b8114611fc657600080fd5b634e487b7160e01b600052601160045260246000fd5b60008161262c5761262c612607565b506000190190565b600b82810b9082900b0360016001605f1b0319811260016001605f1b038213171561266157612661612607565b92915050565b6001600160a01b039384168152919092166020820152600b9190910b604082015260600190565b6000602082840312156126a057600080fd5b81518015158114611fc657600080fd5b6000602082840312156126c257600080fd5b5051919050565b600081600b0b83600b0b60016001605f1b036000821360008413838304851182821616156126f9576126f9612607565b60016001605f1b0319600085128281168783058712161561271c5761271c612607565b6000871292508582058712848416161561273857612738612607565b8585058712818416161561274e5761274e612607565b5050509290910295945050505050565b6000806040838503121561277157600080fd5b823561277c81612246565b9150602083013561278c81612246565b809150509250929050565b600b81810b9083900b0160016001605f1b03811360016001605f1b03198212171561266157612661612607565b6000600182016127d6576127d6612607565b5060010190565b601f82111561282757600081815260208120601f850160051c810160208610156128045750805b601f850160051c820191505b8181101561282357828155600101612810565b5050505b505050565b815167ffffffffffffffff81111561284657612846612436565b61285a81612854845461258d565b846127dd565b602080601f83116001811461288f57600084156128775750858301515b600019600386901b1c1916600185901b178555612823565b600085815260208120601f198616915b828110156128be5788860151825594840194600190910190840161289f565b50858210156128dc5787850151600019600388901b60f8161c191681555b5050505050600190811b01905550565b6060815260006128ff60608301866121a2565b6001600160a01b03949094166020830152506001600160601b0391909116604090910152919050565b600081600b0b83600b0b8061294d57634e487b7160e01b600052601260045260246000fd5b60016001605f1b031982146000198214161561296b5761296b612607565b90059392505050565b818103818111156126615761266161260756fea2646970667358221220b813789285b9073cde87172a76ba1918bdd8d9928f418202c2a288343d383fe964736f6c63430008100033",
    "linkReferences": {}
  },
  "methodIdentifiers": {
    "CREATOR()": "e4fbb609",
    "HOST()": "49f289dc",
    "NFT()": "7c0b8de2",
    "STREAM_TOKEN()": "dcc76d1f",
    "activateTap()": "8cf79999",
    "active()": "02fb0c5e",
    "adjustCurrentStreams(address)": "b20b6b59",
    "afterAgreementCreated(address,address,bytes32,bytes,bytes,bytes)": "d86ed3e5",
    "afterAgreementTerminated(address,address,bytes32,bytes,bytes,bytes)": "53c11f99",
    "afterAgreementUpdated(address,address,bytes32,bytes,bytes,bytes)": "230dbd29",
    "beforeAgreementCreated(address,address,bytes32,bytes,bytes)": "30d9c915",
    "beforeAgreementTerminated(address,address,bytes32,bytes,bytes)": "5f9e7d77",
    "beforeAgreementUpdated(address,address,bytes32,bytes,bytes)": "884d1f40",
    "changeRate(uint96)": "1c8da209",
    "claimStream(uint256)": "898f319c",
    "closeStream(uint256)": "1d1b7b77",
    "deactivateTap()": "48addb5c",
    "drainTap(uint256)": "42f5c618",
    "emergencyCloseStreams(address)": "6cb99967",
    "getClaimedData(address,uint256)": "e65fa3f9",
    "initialize(string,address,address,uint96,address,address,address)": "927e3520",
    "isCritical()": "2e40bfac",
    "name()": "06fdde03",
    "ratePerNFT()": "1c17e2d6",
    "reinstateStreams(address)": "bcefe610",
    "topUpTap(uint256)": "bde5880e"
  },
  "id": 94
}