{
  "abi": [
    {
      "inputs": [],
      "name": "BulkClaimsPaused",
      "type": "error"
    },
    {
      "inputs": [
        {
          "internalType": "address",
          "name": "holder",
          "type": "address"
        }
      ],
      "name": "HolderStreamsNotFound",
      "type": "error"
    },
    {
      "inputs": [],
      "name": "IneligibleClaim",
      "type": "error"
    },
    {
      "inputs": [
        {
          "internalType": "address",
          "name": "terminator",
          "type": "address"
        }
      ],
      "name": "NoEmergency",
      "type": "error"
    },
    {
      "inputs": [
        {
          "internalType": "address",
          "name": "terminator",
          "type": "address"
        }
      ],
      "name": "NotHost",
      "type": "error"
    },
    {
      "inputs": [
        {
          "internalType": "uint256",
          "name": "tokenId",
          "type": "uint256"
        }
      ],
      "name": "NotOwnerOfNFT",
      "type": "error"
    },
    {
      "inputs": [],
      "name": "NotTapCreator",
      "type": "error"
    },
    {
      "inputs": [
        {
          "internalType": "int96",
          "name": "ratePerNFT",
          "type": "int96"
        }
      ],
      "name": "SameClaimRate",
      "type": "error"
    },
    {
      "inputs": [
        {
          "internalType": "int96",
          "name": "ratePerNFT",
          "type": "int96"
        }
      ],
      "name": "SameTapRate",
      "type": "error"
    },
    {
      "inputs": [
        {
          "internalType": "address",
          "name": "prevHolder",
          "type": "address"
        }
      ],
      "name": "StreamAdjustmentFailedInReinstate",
      "type": "error"
    },
    {
      "inputs": [
        {
          "internalType": "uint256",
          "name": "tokenId",
          "type": "uint256"
        }
      ],
      "name": "StreamAlreadyClaimed",
      "type": "error"
    },
    {
      "inputs": [
        {
          "internalType": "uint256",
          "name": "tokenId",
          "type": "uint256"
        }
      ],
      "name": "StreamNotFound",
      "type": "error"
    },
    {
      "inputs": [
        {
          "internalType": "address",
          "name": "prevHolder",
          "type": "address"
        },
        {
          "internalType": "address",
          "name": "currHolder",
          "type": "address"
        }
      ],
      "name": "StreamsAdjustmentsFailed",
      "type": "error"
    },
    {
      "inputs": [
        {
          "internalType": "address",
          "name": "prevHolder",
          "type": "address"
        }
      ],
      "name": "StreamsAlreadyReinstated",
      "type": "error"
    },
    {
      "inputs": [],
      "name": "TapActive",
      "type": "error"
    },
    {
      "inputs": [
        {
          "internalType": "uint256",
          "name": "currTapBalance",
          "type": "uint256"
        },
        {
          "internalType": "uint256",
          "name": "reqTapBalance",
          "type": "uint256"
        }
      ],
      "name": "TapBalanceInsufficient",
      "type": "error"
    },
    {
      "inputs": [],
      "name": "TapExists",
      "type": "error"
    },
    {
      "inputs": [],
      "name": "TapInactive",
      "type": "error"
    },
    {
      "inputs": [
        {
          "internalType": "uint256",
          "name": "remainingAmount",
          "type": "uint256"
        },
        {
          "internalType": "uint256",
          "name": "minAmountRequried",
          "type": "uint256"
        }
      ],
      "name": "TapMinAmountLimit",
      "type": "error"
    },
    {
      "inputs": [],
      "name": "TapNotFound",
      "type": "error"
    },
    {
      "inputs": [],
      "name": "TransferFailed",
      "type": "error"
    },
    {
      "inputs": [
        {
          "internalType": "uint256",
          "name": "tokenId",
          "type": "uint256"
        },
        {
          "internalType": "address",
          "name": "terminator",
          "type": "address"
        }
      ],
      "name": "WrongStreamCloseAttempt",
      "type": "error"
    },
    {
      "inputs": [],
      "name": "ZeroAddress",
      "type": "error"
    },
    {
      "anonymous": false,
      "inputs": [
        {
          "indexed": true,
          "internalType": "address",
          "name": "holder",
          "type": "address"
        }
      ],
      "name": "EmergencyCloseInitiated",
      "type": "event"
    },
    {
      "anonymous": false,
      "inputs": [
        {
          "indexed": false,
          "internalType": "uint8",
          "name": "version",
          "type": "uint8"
        }
      ],
      "name": "Initialized",
      "type": "event"
    },
    {
      "anonymous": false,
      "inputs": [
        {
          "indexed": true,
          "internalType": "address",
          "name": "claimant",
          "type": "address"
        },
        {
          "indexed": false,
          "internalType": "uint256",
          "name": "tokenId",
          "type": "uint256"
        }
      ],
      "name": "StreamClaimedById",
      "type": "event"
    },
    {
      "anonymous": false,
      "inputs": [
        {
          "indexed": true,
          "internalType": "address",
          "name": "holder",
          "type": "address"
        },
        {
          "indexed": false,
          "internalType": "int96",
          "name": "oldRatePerNFT",
          "type": "int96"
        },
        {
          "indexed": false,
          "internalType": "int96",
          "name": "newRatePerNFT",
          "type": "int96"
        }
      ],
      "name": "StreamsAdjusted",
      "type": "event"
    },
    {
      "anonymous": false,
      "inputs": [
        {
          "indexed": true,
          "internalType": "address",
          "name": "claimant",
          "type": "address"
        },
        {
          "indexed": false,
          "internalType": "int96",
          "name": "oldStreamRate",
          "type": "int96"
        },
        {
          "indexed": false,
          "internalType": "int96",
          "name": "newStreamRate",
          "type": "int96"
        }
      ],
      "name": "StreamsClaimed",
      "type": "event"
    },
    {
      "anonymous": false,
      "inputs": [
        {
          "indexed": true,
          "internalType": "address",
          "name": "holder",
          "type": "address"
        },
        {
          "indexed": false,
          "internalType": "int96",
          "name": "numStreams",
          "type": "int96"
        },
        {
          "indexed": false,
          "internalType": "int96",
          "name": "newOutStreamRate",
          "type": "int96"
        },
        {
          "indexed": false,
          "internalType": "int96",
          "name": "ratePerNFT",
          "type": "int96"
        }
      ],
      "name": "StreamsReinstated",
      "type": "event"
    },
    {
      "anonymous": false,
      "inputs": [],
      "name": "TapActivated",
      "type": "event"
    },
    {
      "anonymous": false,
      "inputs": [
        {
          "indexed": false,
          "internalType": "string",
          "name": "name",
          "type": "string"
        },
        {
          "indexed": false,
          "internalType": "address",
          "name": "creator",
          "type": "address"
        },
        {
          "indexed": true,
          "internalType": "address",
          "name": "nft",
          "type": "address"
        },
        {
          "indexed": true,
          "internalType": "address",
          "name": "superToken",
          "type": "address"
        },
        {
          "indexed": false,
          "internalType": "uint96",
          "name": "ratePerNFT",
          "type": "uint96"
        }
      ],
      "name": "TapCreated",
      "type": "event"
    },
    {
      "anonymous": false,
      "inputs": [],
      "name": "TapDeactivated",
      "type": "event"
    },
    {
      "anonymous": false,
      "inputs": [
        {
          "indexed": true,
          "internalType": "address",
          "name": "streamToken",
          "type": "address"
        },
        {
          "indexed": false,
          "internalType": "uint256",
          "name": "drainAmount",
          "type": "uint256"
        }
      ],
      "name": "TapDrained",
      "type": "event"
    },
    {
      "anonymous": false,
      "inputs": [
        {
          "indexed": false,
          "internalType": "int96",
          "name": "oldRatePerNFT",
          "type": "int96"
        },
        {
          "indexed": false,
          "internalType": "int96",
          "name": "newRatePerNFT",
          "type": "int96"
        }
      ],
      "name": "TapRateChanged",
      "type": "event"
    },
    {
      "anonymous": false,
      "inputs": [
        {
          "indexed": true,
          "internalType": "address",
          "name": "superToken",
          "type": "address"
        },
        {
          "indexed": false,
          "internalType": "uint256",
          "name": "amount",
          "type": "uint256"
        }
      ],
      "name": "TapToppedUp",
      "type": "event"
    },
    {
      "inputs": [],
      "name": "CREATOR",
      "outputs": [
        {
          "internalType": "address",
          "name": "",
          "type": "address"
        }
      ],
      "stateMutability": "view",
      "type": "function"
    },
    {
      "inputs": [],
      "name": "HOST",
      "outputs": [
        {
          "internalType": "address",
          "name": "",
          "type": "address"
        }
      ],
      "stateMutability": "view",
      "type": "function"
    },
    {
      "inputs": [],
      "name": "NFT",
      "outputs": [
        {
          "internalType": "contract IERC721",
          "name": "",
          "type": "address"
        }
      ],
      "stateMutability": "view",
      "type": "function"
    },
    {
      "inputs": [],
      "name": "STREAM_TOKEN",
      "outputs": [
        {
          "internalType": "contract ISuperToken",
          "name": "",
          "type": "address"
        }
      ],
      "stateMutability": "view",
      "type": "function"
    },
    {
      "inputs": [],
      "name": "activateTap",
      "outputs": [],
      "stateMutability": "nonpayable",
      "type": "function"
    },
    {
      "inputs": [],
      "name": "active",
      "outputs": [
        {
          "internalType": "bool",
          "name": "",
          "type": "bool"
        }
      ],
      "stateMutability": "view",
      "type": "function"
    },
    {
      "inputs": [
        {
          "internalType": "address",
          "name": "_holder",
          "type": "address"
        }
      ],
      "name": "adjustCurrentStreams",
      "outputs": [],
      "stateMutability": "nonpayable",
      "type": "function"
    },
    {
      "inputs": [
        {
          "internalType": "contract ISuperToken",
          "name": "",
          "type": "address"
        },
        {
          "internalType": "address",
          "name": "",
          "type": "address"
        },
        {
          "internalType": "bytes32",
          "name": "",
          "type": "bytes32"
        },
        {
          "internalType": "bytes",
          "name": "",
          "type": "bytes"
        },
        {
          "internalType": "bytes",
          "name": "",
          "type": "bytes"
        },
        {
          "internalType": "bytes",
          "name": "",
          "type": "bytes"
        }
      ],
      "name": "afterAgreementCreated",
      "outputs": [
        {
          "internalType": "bytes",
          "name": "",
          "type": "bytes"
        }
      ],
      "stateMutability": "nonpayable",
      "type": "function"
    },
    {
      "inputs": [
        {
          "internalType": "contract ISuperToken",
          "name": "",
          "type": "address"
        },
        {
          "internalType": "address",
          "name": "",
          "type": "address"
        },
        {
          "internalType": "bytes32",
          "name": "",
          "type": "bytes32"
        },
        {
          "internalType": "bytes",
          "name": "_agreementData",
          "type": "bytes"
        },
        {
          "internalType": "bytes",
          "name": "",
          "type": "bytes"
        },
        {
          "internalType": "bytes",
          "name": "_ctx",
          "type": "bytes"
        }
      ],
      "name": "afterAgreementTerminated",
      "outputs": [
        {
          "internalType": "bytes",
          "name": "_newCtx",
          "type": "bytes"
        }
      ],
      "stateMutability": "nonpayable",
      "type": "function"
    },
    {
      "inputs": [
        {
          "internalType": "contract ISuperToken",
          "name": "",
          "type": "address"
        },
        {
          "internalType": "address",
          "name": "",
          "type": "address"
        },
        {
          "internalType": "bytes32",
          "name": "",
          "type": "bytes32"
        },
        {
          "internalType": "bytes",
          "name": "",
          "type": "bytes"
        },
        {
          "internalType": "bytes",
          "name": "",
          "type": "bytes"
        },
        {
          "internalType": "bytes",
          "name": "",
          "type": "bytes"
        }
      ],
      "name": "afterAgreementUpdated",
      "outputs": [
        {
          "internalType": "bytes",
          "name": "",
          "type": "bytes"
        }
      ],
      "stateMutability": "nonpayable",
      "type": "function"
    },
    {
      "inputs": [
        {
          "internalType": "contract ISuperToken",
          "name": "",
          "type": "address"
        },
        {
          "internalType": "address",
          "name": "",
          "type": "address"
        },
        {
          "internalType": "bytes32",
          "name": "",
          "type": "bytes32"
        },
        {
          "internalType": "bytes",
          "name": "",
          "type": "bytes"
        },
        {
          "internalType": "bytes",
          "name": "",
          "type": "bytes"
        }
      ],
      "name": "beforeAgreementCreated",
      "outputs": [
        {
          "internalType": "bytes",
          "name": "",
          "type": "bytes"
        }
      ],
      "stateMutability": "view",
      "type": "function"
    },
    {
      "inputs": [
        {
          "internalType": "contract ISuperToken",
          "name": "",
          "type": "address"
        },
        {
          "internalType": "address",
          "name": "",
          "type": "address"
        },
        {
          "internalType": "bytes32",
          "name": "",
          "type": "bytes32"
        },
        {
          "internalType": "bytes",
          "name": "",
          "type": "bytes"
        },
        {
          "internalType": "bytes",
          "name": "",
          "type": "bytes"
        }
      ],
      "name": "beforeAgreementTerminated",
      "outputs": [
        {
          "internalType": "bytes",
          "name": "",
          "type": "bytes"
        }
      ],
      "stateMutability": "view",
      "type": "function"
    },
    {
      "inputs": [
        {
          "internalType": "contract ISuperToken",
          "name": "",
          "type": "address"
        },
        {
          "internalType": "address",
          "name": "",
          "type": "address"
        },
        {
          "internalType": "bytes32",
          "name": "",
          "type": "bytes32"
        },
        {
          "internalType": "bytes",
          "name": "",
          "type": "bytes"
        },
        {
          "internalType": "bytes",
          "name": "",
          "type": "bytes"
        }
      ],
      "name": "beforeAgreementUpdated",
      "outputs": [
        {
          "internalType": "bytes",
          "name": "",
          "type": "bytes"
        }
      ],
      "stateMutability": "view",
      "type": "function"
    },
    {
      "inputs": [
        {
          "internalType": "uint96",
          "name": "_newRatePerNFT",
          "type": "uint96"
        }
      ],
      "name": "changeRate",
      "outputs": [],
      "stateMutability": "nonpayable",
      "type": "function"
    },
    {
      "inputs": [
        {
          "internalType": "uint256",
          "name": "_tokenId",
          "type": "uint256"
        }
      ],
      "name": "claimStream",
      "outputs": [],
      "stateMutability": "nonpayable",
      "type": "function"
    },
    {
      "inputs": [
        {
          "internalType": "uint256",
          "name": "_tokenId",
          "type": "uint256"
        }
      ],
      "name": "closeStream",
      "outputs": [],
      "stateMutability": "nonpayable",
      "type": "function"
    },
    {
      "inputs": [],
      "name": "deactivateTap",
      "outputs": [],
      "stateMutability": "nonpayable",
      "type": "function"
    },
    {
      "inputs": [
        {
          "internalType": "uint256",
          "name": "_amount",
          "type": "uint256"
        }
      ],
      "name": "drainTap",
      "outputs": [],
      "stateMutability": "nonpayable",
      "type": "function"
    },
    {
      "inputs": [
        {
          "internalType": "address",
          "name": "_holder",
          "type": "address"
        }
      ],
      "name": "emergencyCloseStreams",
      "outputs": [],
      "stateMutability": "nonpayable",
      "type": "function"
    },
    {
      "inputs": [
        {
          "internalType": "address",
          "name": "_user",
          "type": "address"
        }
      ],
      "name": "getClaimedData",
      "outputs": [
        {
          "internalType": "uint256",
          "name": "_numStreams",
          "type": "uint256"
        },
        {
          "internalType": "int96",
          "name": "_claimedRate",
          "type": "int96"
        }
      ],
      "stateMutability": "view",
      "type": "function"
    },
    {
      "inputs": [
        {
          "internalType": "string",
          "name": "_name",
          "type": "string"
        },
        {
          "internalType": "address",
          "name": "_host",
          "type": "address"
        },
        {
          "internalType": "address",
          "name": "_creator",
          "type": "address"
        },
        {
          "internalType": "uint96",
          "name": "_ratePerNFT",
          "type": "uint96"
        },
        {
          "internalType": "contract IcfaV1Forwarder",
          "name": "_cfaV1Forwarder",
          "type": "address"
        },
        {
          "internalType": "contract IERC721",
          "name": "_nft",
          "type": "address"
        },
        {
          "internalType": "contract ISuperToken",
          "name": "_streamToken",
          "type": "address"
        }
      ],
      "name": "initialize",
      "outputs": [],
      "stateMutability": "nonpayable",
      "type": "function"
    },
    {
      "inputs": [],
      "name": "isCritical",
      "outputs": [
        {
          "internalType": "bool",
          "name": "_status",
          "type": "bool"
        }
      ],
      "stateMutability": "view",
      "type": "function"
    },
    {
      "inputs": [],
      "name": "name",
      "outputs": [
        {
          "internalType": "string",
          "name": "",
          "type": "string"
        }
      ],
      "stateMutability": "view",
      "type": "function"
    },
    {
      "inputs": [],
      "name": "ratePerNFT",
      "outputs": [
        {
          "internalType": "int96",
          "name": "",
          "type": "int96"
        }
      ],
      "stateMutability": "view",
      "type": "function"
    },
    {
      "inputs": [
        {
          "internalType": "address",
          "name": "_prevHolder",
          "type": "address"
        }
      ],
      "name": "reinstateStreams",
      "outputs": [],
      "stateMutability": "nonpayable",
      "type": "function"
    },
    {
      "inputs": [
        {
          "internalType": "uint256",
          "name": "_amount",
          "type": "uint256"
        }
      ],
      "name": "topUpTap",
      "outputs": [],
      "stateMutability": "nonpayable",
      "type": "function"
    }
  ],
  "bytecode": {
    "object": "0x608060405234801561001057600080fd5b5061284d806100206000396000f3fe608060405234801561001057600080fd5b506004361061018e5760003560e01c80636cb99967116100de578063927e352011610097578063bde5880e11610071578063bde5880e14610394578063d86ed3e5146103a7578063dcc76d1f146103ba578063e4fbb609146103cd57600080fd5b8063927e35201461035b578063b20b6b591461036e578063bcefe6101461038157600080fd5b80636cb99967146102b75780637c0b8de2146102ca578063884d1f40146102dd578063898f319c146102f05780638cf79999146103035780638e15d4461461030b57600080fd5b80632e40bfac1161014b57806348addb5c1161012557806348addb5c1461025857806349f289dc1461026057806353c11f99146102915780635f9e7d77146102a457600080fd5b80632e40bfac1461022a57806330d9c9151461023257806342f5c6181461024557600080fd5b806302fb0c5e1461019357806306fdde03146101b55780631c17e2d6146101ca5780631c8da209146101ef5780631d1b7b7714610204578063230dbd2914610217575b600080fd5b6005546101a09060ff1681565b60405190151581526020015b60405180910390f35b6101bd6103e0565b6040516101ac919061207a565b6005546101dc906101009004600b0b81565b604051600b9190910b81526020016101ac565b6102026101fd3660046120a4565b61046e565b005b6102026102123660046120bf565b61053e565b6101bd610225366004612141565b61087a565b6101a06108dc565b6101bd61024036600461220c565b610a29565b6102026102533660046120bf565b610a8c565b610202610c3c565b600054610279906201000090046001600160a01b031681565b6040516001600160a01b0390911681526020016101ac565b6101bd61029f366004612141565b610cc4565b6101bd6102b236600461220c565b610da5565b6102026102c53660046122ab565b610e0c565b600354610279906001600160a01b031681565b6101bd6102eb36600461220c565b610f37565b6102026102fe3660046120bf565b610f9a565b610202611387565b6103436103193660046122ab565b6001600160a01b0316600090815260086020526040902080546001909101549091600b9190910b90565b60408051928352600b9190910b6020830152016101ac565b6102026103693660046122de565b611412565b61020261037c3660046122ab565b61160c565b61020261038f3660046122ab565b611847565b6102026103a23660046120bf565b611a95565b6101bd6103b5366004612141565b611ba1565b600254610279906001600160a01b031681565b600154610279906001600160a01b031681565b600480546103ed906123f3565b80601f0160208091040260200160405190810160405280929190818152602001828054610419906123f3565b80156104665780601f1061043b57610100808354040283529160200191610466565b820191906000526020600020905b81548152906001019060200180831161044957829003601f168201915b505050505081565b6001546001600160a01b031633146104995760405163a17205b560e01b815260040160405180910390fd5b6005546101009004600b90810b90829081900b82036104d65760405163245deae960e11b8152600b82900b60048201526024015b60405180910390fd5b600580546cffffffffffffffffffffffff0019166101006001600160601b0386160217905560408051600b84810b825283900b60208201527f3f4f15794d3d6909eeffd3c852e9ade086118bf01ed932cd7c40fca47501b6fb910160405180910390a1505050565b6000818152600760205260409020546001600160a01b031680610577576040516347e7ef2160e11b8152600481018390526024016104cd565b6002546006546003546040516331a9108f60e11b8152600481018690526001600160a01b0393841693928316926000921690636352211e90602401602060405180830381865afa1580156105cf573d6000803e3d6000fd5b505050506040513d601f19601f820116820180604052508101906105f3919061242d565b90506001600160a01b03811633148061061657506001546001600160a01b031633145b1561085157604051630ec5b29360e11b81526001600160a01b038481166004830152306024830152858116604483015260009190841690631d8b652690606401602060405180830381865afa158015610673573d6000803e3d6000fd5b505050506040513d601f19601f82011682018060405250810190610697919061244a565b6001600160a01b038616600090815260086020526040812060010154600554929350600b90810b926106d49189918591610100909104900b611c03565b600089815260076020908152604080832080546001600160a01b03191690556001600160a01b038b1683526008909152812080549293509161071590612483565b90915550600b81810b9084900b138061074d575080600b0b83600b0b12801561074d575061074d8587610748868561249a565b611c60565b156107cb57604051632bf3551b60e11b81526001600160a01b038616906357e6aa36906107829089908b9086906004016124cd565b6020604051808303816000875af11580156107a1573d6000803e3d6000fd5b505050506040513d601f19601f820116820180604052508101906107c591906124f4565b50610849565b6001600160a01b0385166357e6aa3687896107e6868861249a565b6040518463ffffffff1660e01b8152600401610804939291906124cd565b6020604051808303816000875af1158015610823573d6000803e3d6000fd5b505050506040513d601f19601f8201168201806040525081019061084791906124f4565b505b505050610873565b60405163791c605560e01b8152600481018690523360248201526044016104cd565b5050505050565b60405162461bcd60e51b815260206004820152602e60248201527f556e737570706f727465642063616c6c6261636b202d2041667465722041677260448201526d19595b595b9d08155c19185d195960921b60648201526060906084016104cd565b6006546002546040516322c904d960e01b81526001600160a01b0391821660048201819052306024830152600093929092169190839083906322c904d990604401602060405180830381865afa15801561093a573d6000803e3d6000fd5b505050506040513d601f19601f8201168201806040525081019061095e919061244a565b9050600081600b0b12610975576000935050505090565b6040516370a0823160e01b81523060048201526000906001600160a01b038416906370a0823190602401602060405180830381865afa1580156109bc573d6000803e3d6000fd5b505050506040513d601f19601f820116820180604052508101906109e09190612516565b90506000610a086109f38460001961252f565b610a00906201518061252f565b600b0b611e16565b9050808210610a1d5760009550505050505090565b60019550505050505090565b60405162461bcd60e51b815260206004820152602f60248201527f556e737570706f727465642063616c6c6261636b202d204265666f726520416760448201526e1c99595b595b9d0810dc99585d1959608a1b60648201526060906084016104cd565b6001546001600160a01b03163314610ab75760405163a17205b560e01b815260040160405180910390fd5b6002546040516370a0823160e01b81523060048201526001600160a01b039091169060009082906370a0823190602401602060405180830381865afa158015610b04573d6000803e3d6000fd5b505050506040513d601f19601f82011682018060405250810190610b289190612516565b90506000198303610b3b57809250610b66565b82811015610b66576040516346b73ad560e01b815260048101829052602481018490526044016104cd565b60405163a9059cbb60e01b8152336004820152602481018490526001600160a01b0383169063a9059cbb906044016020604051808303816000875af1158015610bb3573d6000803e3d6000fd5b505050506040513d601f19601f82011682018060405250810190610bd791906124f4565b610bf4576040516312171d8360e31b815260040160405180910390fd5b816001600160a01b03167f3b891b094348cade467bfc59c9804ace7bb78911a139f6442a30250c5f30597984604051610c2f91815260200190565b60405180910390a2505050565b6001546001600160a01b03163314610c675760405163a17205b560e01b815260040160405180910390fd5b60055460ff161515600003610c8f576040516324ee1ca960e01b815260040160405180910390fd5b6005805460ff191690556040517f3a15dda76c298a039674b2287c867ba88f2236e2d01b54ba865ead296570386490600090a1565b6000546060906201000090046001600160a01b03163314610cfa57604051635614fa7760e01b81523360048201526024016104cd565b82828080601f0160208091040260200160405190810160405280939291908181526020018383808284376000920182905250939450610d3f92505050878901896125c4565b915050610d706040518060400160405280600c81526020016b52656365697665723a20257360a01b81525082611e6c565b6001600160a01b0316600090815260086020526040902060010180546001600160601b03191690559998505050505050505050565b60405162461bcd60e51b815260206004820152603360248201527f556e737570706f727465642063616c6c6261636b202d20204265666f7265204160448201527219dc99595b595b9d0815195c9b5a5b985d1959606a1b60648201526060906084016104cd565b6001546001600160a01b03163314801590610e2c5750610e2a6108dc565b155b15610e4c576040516373e9588760e11b81523360048201526024016104cd565b60055460ff1615610e62576005805460ff191690555b6001600160a01b0380821660009081526008602052604080822060010180546001600160601b03191690556006546002549151632bf3551b60e11b8152908416936357e6aa3693610ebc93909116918691906004016124cd565b6020604051808303816000875af1158015610edb573d6000803e3d6000fd5b505050506040513d601f19601f82011682018060405250810190610eff91906124f4565b506040516001600160a01b038216907f15ed2cc902282ba6d45db1192488213eaca35dffb37edec22aacf8cbf408c24e90600090a250565b60405162461bcd60e51b815260206004820152602f60248201527f556e737570706f727465642063616c6c6261636b202d204265666f726520416760448201526e1c99595b595b9d081d5c19185d1959608a1b60648201526060906084016104cd565b60055460ff16610fbd576040516324ee1ca960e01b815260040160405180910390fd5b6003546040516331a9108f60e11b8152600481018390526001600160a01b039091169033908290636352211e90602401602060405180830381865afa15801561100a573d6000803e3d6000fd5b505050506040513d601f19601f8201168201806040525081019061102e919061242d565b6001600160a01b0316146110585760405163ad88647160e01b8152600481018390526024016104cd565b6000828152600760205260409020546001600160a01b0316338103611093576040516344196afd60e11b8152600481018490526024016104cd565b6006546002546005546001600160a01b039283169291821691610100909104600b0b90600090819086161561111a576001600160a01b038616600090815260086020526040902060010154600b0b91506110ee868385611c03565b6001600160a01b038716600090815260086020526040812080549293509161111590612483565b909155505b33600081815260086020526040812060010154600b0b9161113c908387611eb5565b9050600061114a83866125fd565b61115483866125fd565b61115e919061249a565b905061116b888883611c60565b611199576040516333c17a3b60e01b81526001600160a01b038a1660048201523360248201526044016104cd565b600b85900b15611246576001600160a01b038981166000908152600860205260409081902060010180546001600160601b0319166001600160601b038a1617905551632bf3551b60e11b8152908916906357e6aa3690611201908a908d9089906004016124cd565b6020604051808303816000875af1158015611220573d6000803e3d6000fd5b505050506040513d601f19601f8201168201806040525081019061124491906124f4565b505b60008b815260076020908152604080832080546001600160a01b0319163390811790915583526008909152812080549091906112819061262a565b9091555033600090815260086020526040902060010154600b87810b91900b146112d15733600090815260086020526040902060010180546001600160601b0319166001600160601b0388161790555b604051632bf3551b60e11b81526001600160a01b038916906357e6aa3690611301908a90339087906004016124cd565b6020604051808303816000875af1158015611320573d6000803e3d6000fd5b505050506040513d601f19601f8201168201806040525081019061134491906124f4565b506040518b815233907f90a5a57b652df5b9c4b1245c11aee7c6ba100d224871367c81229f8833b3f29c9060200160405180910390a25050505050505050505050565b6001546001600160a01b031633146113b25760405163a17205b560e01b815260040160405180910390fd5b60055460ff1615156001036113da576040516321ebf19760e11b815260040160405180910390fd5b6005805460ff191660011790556040517f095fdebb45b4f1fd3f76ce7a07f113fafa6da5fcd60d6983ab22693fe29d1ecd90600090a1565b600054610100900460ff16158080156114325750600054600160ff909116105b8061144c5750303b15801561144c575060005460ff166001145b6114af5760405162461bcd60e51b815260206004820152602e60248201527f496e697469616c697a61626c653a20636f6e747261637420697320616c72656160448201526d191e481a5b9a5d1a585b1a5e995960921b60648201526084016104cd565b6000805460ff1916600117905580156114d2576000805461ff0019166101001790555b6000805462010000600160b01b031916620100006001600160a01b038a81169190910291909117909155600680546001600160a01b03199081168784161790915560028054821685841617905560018054821689841617905560038054909116918516919091179055600580546cffffffffffffffffffffffff0019166101006001600160601b03881602179055600461156c8982612692565b50816001600160a01b0316836001600160a01b03167f5aa0d639432ea7da3976c64fbf2d61e924cb399d52d50bf897a13ab2054aa6cd8a89896040516115b493929190612752565b60405180910390a38015611602576000805461ff0019169055604051600181527f7f26b83ff96e1f2b6a682f133852f6798a09c465da95921460cefb38474024989060200160405180910390a15b5050505050505050565b60055460ff1661162f576040516324ee1ca960e01b815260040160405180910390fd5b600654600254600554604051630ec5b29360e11b81526001600160a01b039283166004820181905230602483015285841660448301529290931692610100909104600b0b906000908490631d8b652690606401602060405180830381865afa15801561169f573d6000803e3d6000fd5b505050506040513d601f19601f820116820180604052508101906116c3919061244a565b9050600b81900b6116f2576040516345da2b7560e11b81526001600160a01b03861660048201526024016104cd565b6001600160a01b038516600090815260086020526040902060010154600b90810b9083900b810361173c5760405163aeecca6d60e01b8152600b84900b60048201526024016104cd565b6000611748828461278e565b6001600160a01b03888116600090815260086020526040902060010180546001600160601b0319166001600160601b03881617905590915086166357e6aa368689611793888661252f565b6040518463ffffffff1660e01b81526004016117b1939291906124cd565b6020604051808303816000875af11580156117d0573d6000803e3d6000fd5b505050506040513d601f19601f820116820180604052508101906117f491906124f4565b5060408051600b84810b825286900b60208201526001600160a01b038916917fa10702d01d3c4ff4c3ce65a72ea172bfb010b2e9f34bd104df867a535d1185e9910160405180910390a250505050505050565b60055460ff1661186a576040516324ee1ca960e01b815260040160405180910390fd5b6001600160a01b038116600090815260086020526040902060010154600b0b156118b2576040516309b6b87760e11b81526001600160a01b03821660048201526024016104cd565b6006546002546005546001600160a01b03848116600090815260086020526040812054948216949390911692610100909204600b0b916118fa906118f590611efb565b611f65565b905080600b0b60000361192b576040516345da2b7560e11b81526001600160a01b03861660048201526024016104cd565b6000611937838361252f565b9050611944858583611c60565b61196c5760405163f9cdf5eb60e01b81526001600160a01b03871660048201526024016104cd565b6001600160a01b038681166000908152600860205260409081902060010180546001600160601b0319166001600160601b03871617905551632bf3551b60e11b8152908616906357e6aa36906119ca9087908a9086906004016124cd565b6020604051808303816000875af11580156119e9573d6000803e3d6000fd5b505050506040513d601f19601f82011682018060405250810190611a0d91906124f4565b50611a3b6040518060400160405280600c81526020016b52656163686564206865726560a01b815250611fcd565b60408051600b84810b825283810b602083015285900b8183015290516001600160a01b038816917fea709432316b7b3da35d14ba2d798e38eb80dc76c8ec47ba35cd0939d3dee364919081900360600190a2505050505050565b6001546001600160a01b03163314611ac05760405163a17205b560e01b815260040160405180910390fd5b6002546040516323b872dd60e01b8152336004820152306024820152604481018390526001600160a01b039091169081906323b872dd906064016020604051808303816000875af1158015611b19573d6000803e3d6000fd5b505050506040513d601f19601f82011682018060405250810190611b3d91906124f4565b611b5a576040516312171d8360e31b815260040160405180910390fd5b806001600160a01b03167f6af4f348b0a94b3ecbd7d24059de3fd8ffb635abb46124d9effb1f88a995c7cc83604051611b9591815260200190565b60405180910390a25050565b60405162461bcd60e51b815260206004820152602e60248201527f556e737570706f727465642063616c6c6261636b202d2041667465722041677260448201526d19595b595b9d0810dc99585d195960921b60648201526060906084016104cd565b6000600b83900b15611c55576001600160a01b0384166000908152600860205260409020548290600190611c3a906118f590611efb565b611c44919061249a565b611c4e919061252f565b9050611c59565b5060005b9392505050565b6040516322c904d960e01b81526001600160a01b03838116600483015230602483015260009182918616906322c904d990604401602060405180830381865afa158015611cb1573d6000803e3d6000fd5b505050506040513d601f19601f82011682018060405250810190611cd5919061244a565b905082600b0b81600b0b1215611e0b576040516370a0823160e01b81523060048201526000906001600160a01b038616906370a0823190602401602060405180830381865afa158015611d2c573d6000803e3d6000fd5b505050506040513d601f19601f82011682018060405250810190611d509190612516565b6040516309f0b49560e01b81526001600160a01b038781166004830152600b87900b60248301529192506000918816906309f0b49590604401602060405180830381865afa158015611da6573d6000803e3d6000fd5b505050506040513d601f19601f82011682018060405250810190611dca9190612516565b90506000611de7611ddb878661249a565b6109f39060001961252f565b905080611df483856127da565b1015611e07576000945050505050611c59565b5050505b506001949350505050565b600080821215611e685760405162461bcd60e51b815260206004820181905260248201527f53616665436173743a2076616c7565206d75737420626520706f73697469766560448201526064016104cd565b5090565b611eb18282604051602401611e829291906127ed565b60408051601f198184030181529190526020810180516001600160e01b031663319af33360e01b179052612013565b5050565b6000600b83900b15611ef4576001600160a01b0384166000908152600860205260409020548290611ee9906118f590611efb565b611c449060016125fd565b5080611c59565b60006001600160ff1b03821115611e685760405162461bcd60e51b815260206004820152602860248201527f53616665436173743a2076616c756520646f65736e27742066697420696e2061604482015267371034b73a191a9b60c11b60648201526084016104cd565b80600b81900b8114611fc85760405162461bcd60e51b815260206004820152602660248201527f53616665436173743a2076616c756520646f65736e27742066697420696e203960448201526536206269747360d01b60648201526084016104cd565b919050565b61201081604051602401611fe1919061207a565b60408051601f198184030181529190526020810180516001600160e01b031663104c13eb60e21b179052612013565b50565b80516a636f6e736f6c652e6c6f67602083016000808483855afa5050505050565b6000815180845260005b8181101561205a5760208185018101518683018201520161203e565b506000602082860101526020601f19601f83011685010191505092915050565b602081526000611c596020830184612034565b80356001600160601b0381168114611fc857600080fd5b6000602082840312156120b657600080fd5b611c598261208d565b6000602082840312156120d157600080fd5b5035919050565b6001600160a01b038116811461201057600080fd5b8035611fc8816120d8565b60008083601f84011261210a57600080fd5b50813567ffffffffffffffff81111561212257600080fd5b60208301915083602082850101111561213a57600080fd5b9250929050565b600080600080600080600080600060c08a8c03121561215f57600080fd5b893561216a816120d8565b985060208a013561217a816120d8565b975060408a0135965060608a013567ffffffffffffffff8082111561219e57600080fd5b6121aa8d838e016120f8565b909850965060808c01359150808211156121c357600080fd5b6121cf8d838e016120f8565b909650945060a08c01359150808211156121e857600080fd5b506121f58c828d016120f8565b915080935050809150509295985092959850929598565b600080600080600080600060a0888a03121561222757600080fd5b8735612232816120d8565b96506020880135612242816120d8565b955060408801359450606088013567ffffffffffffffff8082111561226657600080fd5b6122728b838c016120f8565b909650945060808a013591508082111561228b57600080fd5b506122988a828b016120f8565b989b979a50959850939692959293505050565b6000602082840312156122bd57600080fd5b8135611c59816120d8565b634e487b7160e01b600052604160045260246000fd5b600080600080600080600060e0888a0312156122f957600080fd5b873567ffffffffffffffff8082111561231157600080fd5b818a0191508a601f83011261232557600080fd5b813581811115612337576123376122c8565b604051601f8201601f19908116603f0116810190838211818310171561235f5761235f6122c8565b816040528281528d602084870101111561237857600080fd5b82602086016020830137600060208483010152809b50505050505061239f602089016120ed565b95506123ad604089016120ed565b94506123bb6060890161208d565b93506123c9608089016120ed565b92506123d760a089016120ed565b91506123e560c089016120ed565b905092959891949750929550565b600181811c9082168061240757607f821691505b60208210810361242757634e487b7160e01b600052602260045260246000fd5b50919050565b60006020828403121561243f57600080fd5b8151611c59816120d8565b60006020828403121561245c57600080fd5b815180600b0b8114611c5957600080fd5b634e487b7160e01b600052601160045260246000fd5b6000816124925761249261246d565b506000190190565b600b82810b9082900b0360016001605f1b0319811260016001605f1b03821317156124c7576124c761246d565b92915050565b6001600160a01b039384168152919092166020820152600b9190910b604082015260600190565b60006020828403121561250657600080fd5b81518015158114611c5957600080fd5b60006020828403121561252857600080fd5b5051919050565b600081600b0b83600b0b60016001605f1b0360008213600084138383048511828216161561255f5761255f61246d565b60016001605f1b031960008512828116878305871216156125825761258261246d565b6000871292508582058712848416161561259e5761259e61246d565b858505871281841616156125b4576125b461246d565b5050509290910295945050505050565b600080604083850312156125d757600080fd5b82356125e2816120d8565b915060208301356125f2816120d8565b809150509250929050565b600b81810b9083900b0160016001605f1b03811360016001605f1b0319821217156124c7576124c761246d565b60006001820161263c5761263c61246d565b5060010190565b601f82111561268d57600081815260208120601f850160051c8101602086101561266a5750805b601f850160051c820191505b8181101561268957828155600101612676565b5050505b505050565b815167ffffffffffffffff8111156126ac576126ac6122c8565b6126c0816126ba84546123f3565b84612643565b602080601f8311600181146126f557600084156126dd5750858301515b600019600386901b1c1916600185901b178555612689565b600085815260208120601f198616915b8281101561272457888601518255948401946001909101908401612705565b50858210156127425787850151600019600388901b60f8161c191681555b5050505050600190811b01905550565b6060815260006127656060830186612034565b6001600160a01b03949094166020830152506001600160601b0391909116604090910152919050565b600081600b0b83600b0b806127b357634e487b7160e01b600052601260045260246000fd5b60016001605f1b03198214600019821416156127d1576127d161246d565b90059392505050565b818103818111156124c7576124c761246d565b6040815260006128006040830185612034565b905060018060a01b0383166020830152939250505056fea2646970667358221220c4558dc360a4124543f955cae6334a5e0cd392d5e99b5e6bec5305358864f68564736f6c63430008100033",
    "linkReferences": {}
  },
  "methodIdentifiers": {
    "CREATOR()": "e4fbb609",
    "HOST()": "49f289dc",
    "NFT()": "7c0b8de2",
    "STREAM_TOKEN()": "dcc76d1f",
    "activateTap()": "8cf79999",
    "active()": "02fb0c5e",
    "adjustCurrentStreams(address)": "b20b6b59",
    "afterAgreementCreated(address,address,bytes32,bytes,bytes,bytes)": "d86ed3e5",
    "afterAgreementTerminated(address,address,bytes32,bytes,bytes,bytes)": "53c11f99",
    "afterAgreementUpdated(address,address,bytes32,bytes,bytes,bytes)": "230dbd29",
    "beforeAgreementCreated(address,address,bytes32,bytes,bytes)": "30d9c915",
    "beforeAgreementTerminated(address,address,bytes32,bytes,bytes)": "5f9e7d77",
    "beforeAgreementUpdated(address,address,bytes32,bytes,bytes)": "884d1f40",
    "changeRate(uint96)": "1c8da209",
    "claimStream(uint256)": "898f319c",
    "closeStream(uint256)": "1d1b7b77",
    "deactivateTap()": "48addb5c",
    "drainTap(uint256)": "42f5c618",
    "emergencyCloseStreams(address)": "6cb99967",
    "getClaimedData(address)": "8e15d446",
    "initialize(string,address,address,uint96,address,address,address)": "927e3520",
    "isCritical()": "2e40bfac",
    "name()": "06fdde03",
    "ratePerNFT()": "1c17e2d6",
    "reinstateStreams(address)": "bcefe610",
    "topUpTap(uint256)": "bde5880e"
  },
  "id": 94
}