{
  "abi": [
    {
      "inputs": [],
      "name": "BulkClaimsPaused",
      "type": "error"
    },
    {
      "inputs": [
        {
          "internalType": "address",
          "name": "holder",
          "type": "address"
        }
      ],
      "name": "HolderStreamsNotFound",
      "type": "error"
    },
    {
      "inputs": [],
      "name": "IneligibleClaim",
      "type": "error"
    },
    {
      "inputs": [
        {
          "internalType": "address",
          "name": "terminator",
          "type": "address"
        }
      ],
      "name": "NoEmergency",
      "type": "error"
    },
    {
      "inputs": [
        {
          "internalType": "address",
          "name": "terminator",
          "type": "address"
        }
      ],
      "name": "NotHost",
      "type": "error"
    },
    {
      "inputs": [
        {
          "internalType": "uint256",
          "name": "tokenId",
          "type": "uint256"
        }
      ],
      "name": "NotOwnerOfNFT",
      "type": "error"
    },
    {
      "inputs": [],
      "name": "NotTapCreator",
      "type": "error"
    },
    {
      "inputs": [
        {
          "internalType": "int96",
          "name": "ratePerNFT",
          "type": "int96"
        }
      ],
      "name": "SameClaimRate",
      "type": "error"
    },
    {
      "inputs": [
        {
          "internalType": "int96",
          "name": "ratePerNFT",
          "type": "int96"
        }
      ],
      "name": "SameTapRate",
      "type": "error"
    },
    {
      "inputs": [
        {
          "internalType": "uint256",
          "name": "tokenId",
          "type": "uint256"
        }
      ],
      "name": "StreamAlreadyClaimed",
      "type": "error"
    },
    {
      "inputs": [
        {
          "internalType": "uint256",
          "name": "tokenId",
          "type": "uint256"
        }
      ],
      "name": "StreamNotFound",
      "type": "error"
    },
    {
      "inputs": [
        {
          "internalType": "address",
          "name": "prevHolder",
          "type": "address"
        },
        {
          "internalType": "address",
          "name": "currHolder",
          "type": "address"
        }
      ],
      "name": "StreamsAdjustmentsFailed",
      "type": "error"
    },
    {
      "inputs": [],
      "name": "TapActive",
      "type": "error"
    },
    {
      "inputs": [
        {
          "internalType": "uint256",
          "name": "currTapBalance",
          "type": "uint256"
        },
        {
          "internalType": "uint256",
          "name": "reqTapBalance",
          "type": "uint256"
        }
      ],
      "name": "TapBalanceInsufficient",
      "type": "error"
    },
    {
      "inputs": [],
      "name": "TapExists",
      "type": "error"
    },
    {
      "inputs": [],
      "name": "TapInactive",
      "type": "error"
    },
    {
      "inputs": [
        {
          "internalType": "uint256",
          "name": "remainingAmount",
          "type": "uint256"
        },
        {
          "internalType": "uint256",
          "name": "minAmountRequried",
          "type": "uint256"
        }
      ],
      "name": "TapMinAmountLimit",
      "type": "error"
    },
    {
      "inputs": [],
      "name": "TapNotFound",
      "type": "error"
    },
    {
      "inputs": [],
      "name": "TransferFailed",
      "type": "error"
    },
    {
      "inputs": [
        {
          "internalType": "uint256",
          "name": "tokenId",
          "type": "uint256"
        },
        {
          "internalType": "address",
          "name": "terminator",
          "type": "address"
        }
      ],
      "name": "WrongStreamCloseAttempt",
      "type": "error"
    },
    {
      "inputs": [],
      "name": "ZeroAddress",
      "type": "error"
    },
    {
      "anonymous": false,
      "inputs": [
        {
          "indexed": true,
          "internalType": "address",
          "name": "holder",
          "type": "address"
        }
      ],
      "name": "EmergencyCloseInitiated",
      "type": "event"
    },
    {
      "anonymous": false,
      "inputs": [
        {
          "indexed": false,
          "internalType": "uint8",
          "name": "version",
          "type": "uint8"
        }
      ],
      "name": "Initialized",
      "type": "event"
    },
    {
      "anonymous": false,
      "inputs": [
        {
          "indexed": true,
          "internalType": "address",
          "name": "claimant",
          "type": "address"
        },
        {
          "indexed": false,
          "internalType": "uint256",
          "name": "tokenId",
          "type": "uint256"
        }
      ],
      "name": "StreamClaimedById",
      "type": "event"
    },
    {
      "anonymous": false,
      "inputs": [
        {
          "indexed": true,
          "internalType": "address",
          "name": "holder",
          "type": "address"
        },
        {
          "indexed": false,
          "internalType": "int96",
          "name": "oldRatePerNFT",
          "type": "int96"
        },
        {
          "indexed": false,
          "internalType": "int96",
          "name": "newRatePerNFT",
          "type": "int96"
        }
      ],
      "name": "StreamsAdjusted",
      "type": "event"
    },
    {
      "anonymous": false,
      "inputs": [
        {
          "indexed": true,
          "internalType": "address",
          "name": "claimant",
          "type": "address"
        },
        {
          "indexed": false,
          "internalType": "int96",
          "name": "oldStreamRate",
          "type": "int96"
        },
        {
          "indexed": false,
          "internalType": "int96",
          "name": "newStreamRate",
          "type": "int96"
        }
      ],
      "name": "StreamsClaimed",
      "type": "event"
    },
    {
      "anonymous": false,
      "inputs": [],
      "name": "TapActivated",
      "type": "event"
    },
    {
      "anonymous": false,
      "inputs": [
        {
          "indexed": false,
          "internalType": "string",
          "name": "name",
          "type": "string"
        },
        {
          "indexed": false,
          "internalType": "address",
          "name": "creator",
          "type": "address"
        },
        {
          "indexed": true,
          "internalType": "address",
          "name": "nft",
          "type": "address"
        },
        {
          "indexed": true,
          "internalType": "address",
          "name": "superToken",
          "type": "address"
        },
        {
          "indexed": false,
          "internalType": "uint96",
          "name": "ratePerNFT",
          "type": "uint96"
        }
      ],
      "name": "TapCreated",
      "type": "event"
    },
    {
      "anonymous": false,
      "inputs": [],
      "name": "TapDeactivated",
      "type": "event"
    },
    {
      "anonymous": false,
      "inputs": [
        {
          "indexed": true,
          "internalType": "address",
          "name": "streamToken",
          "type": "address"
        },
        {
          "indexed": false,
          "internalType": "uint256",
          "name": "drainAmount",
          "type": "uint256"
        },
        {
          "indexed": false,
          "internalType": "uint256",
          "name": "remainingAmount",
          "type": "uint256"
        }
      ],
      "name": "TapDrained",
      "type": "event"
    },
    {
      "anonymous": false,
      "inputs": [
        {
          "indexed": false,
          "internalType": "int96",
          "name": "oldRatePerNFT",
          "type": "int96"
        },
        {
          "indexed": false,
          "internalType": "int96",
          "name": "newRatePerNFT",
          "type": "int96"
        }
      ],
      "name": "TapRateChanged",
      "type": "event"
    },
    {
      "anonymous": false,
      "inputs": [
        {
          "indexed": true,
          "internalType": "address",
          "name": "superToken",
          "type": "address"
        },
        {
          "indexed": false,
          "internalType": "uint256",
          "name": "amount",
          "type": "uint256"
        }
      ],
      "name": "TapToppedUp",
      "type": "event"
    },
    {
      "inputs": [],
      "name": "CREATOR",
      "outputs": [
        {
          "internalType": "address",
          "name": "",
          "type": "address"
        }
      ],
      "stateMutability": "view",
      "type": "function"
    },
    {
      "inputs": [],
      "name": "HOST",
      "outputs": [
        {
          "internalType": "address",
          "name": "",
          "type": "address"
        }
      ],
      "stateMutability": "view",
      "type": "function"
    },
    {
      "inputs": [],
      "name": "NFT",
      "outputs": [
        {
          "internalType": "contract IERC721",
          "name": "",
          "type": "address"
        }
      ],
      "stateMutability": "view",
      "type": "function"
    },
    {
      "inputs": [],
      "name": "STREAM_TOKEN",
      "outputs": [
        {
          "internalType": "contract ISuperToken",
          "name": "",
          "type": "address"
        }
      ],
      "stateMutability": "view",
      "type": "function"
    },
    {
      "inputs": [],
      "name": "activateTap",
      "outputs": [],
      "stateMutability": "nonpayable",
      "type": "function"
    },
    {
      "inputs": [],
      "name": "active",
      "outputs": [
        {
          "internalType": "bool",
          "name": "",
          "type": "bool"
        }
      ],
      "stateMutability": "view",
      "type": "function"
    },
    {
      "inputs": [
        {
          "internalType": "address",
          "name": "_holder",
          "type": "address"
        }
      ],
      "name": "adjustCurrentStreams",
      "outputs": [],
      "stateMutability": "nonpayable",
      "type": "function"
    },
    {
      "inputs": [
        {
          "internalType": "contract ISuperToken",
          "name": "",
          "type": "address"
        },
        {
          "internalType": "address",
          "name": "",
          "type": "address"
        },
        {
          "internalType": "bytes32",
          "name": "",
          "type": "bytes32"
        },
        {
          "internalType": "bytes",
          "name": "",
          "type": "bytes"
        },
        {
          "internalType": "bytes",
          "name": "",
          "type": "bytes"
        },
        {
          "internalType": "bytes",
          "name": "",
          "type": "bytes"
        }
      ],
      "name": "afterAgreementCreated",
      "outputs": [
        {
          "internalType": "bytes",
          "name": "",
          "type": "bytes"
        }
      ],
      "stateMutability": "nonpayable",
      "type": "function"
    },
    {
      "inputs": [
        {
          "internalType": "contract ISuperToken",
          "name": "",
          "type": "address"
        },
        {
          "internalType": "address",
          "name": "",
          "type": "address"
        },
        {
          "internalType": "bytes32",
          "name": "",
          "type": "bytes32"
        },
        {
          "internalType": "bytes",
          "name": "_agreementData",
          "type": "bytes"
        },
        {
          "internalType": "bytes",
          "name": "",
          "type": "bytes"
        },
        {
          "internalType": "bytes",
          "name": "_ctx",
          "type": "bytes"
        }
      ],
      "name": "afterAgreementTerminated",
      "outputs": [
        {
          "internalType": "bytes",
          "name": "_newCtx",
          "type": "bytes"
        }
      ],
      "stateMutability": "nonpayable",
      "type": "function"
    },
    {
      "inputs": [
        {
          "internalType": "contract ISuperToken",
          "name": "",
          "type": "address"
        },
        {
          "internalType": "address",
          "name": "",
          "type": "address"
        },
        {
          "internalType": "bytes32",
          "name": "",
          "type": "bytes32"
        },
        {
          "internalType": "bytes",
          "name": "",
          "type": "bytes"
        },
        {
          "internalType": "bytes",
          "name": "",
          "type": "bytes"
        },
        {
          "internalType": "bytes",
          "name": "",
          "type": "bytes"
        }
      ],
      "name": "afterAgreementUpdated",
      "outputs": [
        {
          "internalType": "bytes",
          "name": "",
          "type": "bytes"
        }
      ],
      "stateMutability": "nonpayable",
      "type": "function"
    },
    {
      "inputs": [
        {
          "internalType": "contract ISuperToken",
          "name": "",
          "type": "address"
        },
        {
          "internalType": "address",
          "name": "",
          "type": "address"
        },
        {
          "internalType": "bytes32",
          "name": "",
          "type": "bytes32"
        },
        {
          "internalType": "bytes",
          "name": "",
          "type": "bytes"
        },
        {
          "internalType": "bytes",
          "name": "",
          "type": "bytes"
        }
      ],
      "name": "beforeAgreementCreated",
      "outputs": [
        {
          "internalType": "bytes",
          "name": "",
          "type": "bytes"
        }
      ],
      "stateMutability": "view",
      "type": "function"
    },
    {
      "inputs": [
        {
          "internalType": "contract ISuperToken",
          "name": "",
          "type": "address"
        },
        {
          "internalType": "address",
          "name": "",
          "type": "address"
        },
        {
          "internalType": "bytes32",
          "name": "",
          "type": "bytes32"
        },
        {
          "internalType": "bytes",
          "name": "",
          "type": "bytes"
        },
        {
          "internalType": "bytes",
          "name": "",
          "type": "bytes"
        }
      ],
      "name": "beforeAgreementTerminated",
      "outputs": [
        {
          "internalType": "bytes",
          "name": "",
          "type": "bytes"
        }
      ],
      "stateMutability": "view",
      "type": "function"
    },
    {
      "inputs": [
        {
          "internalType": "contract ISuperToken",
          "name": "",
          "type": "address"
        },
        {
          "internalType": "address",
          "name": "",
          "type": "address"
        },
        {
          "internalType": "bytes32",
          "name": "",
          "type": "bytes32"
        },
        {
          "internalType": "bytes",
          "name": "",
          "type": "bytes"
        },
        {
          "internalType": "bytes",
          "name": "",
          "type": "bytes"
        }
      ],
      "name": "beforeAgreementUpdated",
      "outputs": [
        {
          "internalType": "bytes",
          "name": "",
          "type": "bytes"
        }
      ],
      "stateMutability": "view",
      "type": "function"
    },
    {
      "inputs": [
        {
          "internalType": "uint96",
          "name": "_newRatePerNFT",
          "type": "uint96"
        }
      ],
      "name": "changeRate",
      "outputs": [],
      "stateMutability": "nonpayable",
      "type": "function"
    },
    {
      "inputs": [
        {
          "internalType": "uint256",
          "name": "_tokenId",
          "type": "uint256"
        }
      ],
      "name": "claimStream",
      "outputs": [],
      "stateMutability": "nonpayable",
      "type": "function"
    },
    {
      "inputs": [
        {
          "internalType": "uint256",
          "name": "_tokenId",
          "type": "uint256"
        }
      ],
      "name": "closeStream",
      "outputs": [],
      "stateMutability": "nonpayable",
      "type": "function"
    },
    {
      "inputs": [],
      "name": "deactivateTap",
      "outputs": [],
      "stateMutability": "nonpayable",
      "type": "function"
    },
    {
      "inputs": [
        {
          "internalType": "uint256",
          "name": "_amount",
          "type": "uint256"
        }
      ],
      "name": "drainTap",
      "outputs": [],
      "stateMutability": "nonpayable",
      "type": "function"
    },
    {
      "inputs": [
        {
          "internalType": "address",
          "name": "_holder",
          "type": "address"
        }
      ],
      "name": "emergencyCloseStreams",
      "outputs": [],
      "stateMutability": "nonpayable",
      "type": "function"
    },
    {
      "inputs": [
        {
          "internalType": "address",
          "name": "_user",
          "type": "address"
        },
        {
          "internalType": "uint256",
          "name": "_tokenId",
          "type": "uint256"
        }
      ],
      "name": "getClaimedData",
      "outputs": [
        {
          "internalType": "bool",
          "name": "_status",
          "type": "bool"
        },
        {
          "internalType": "int96",
          "name": "_claimedRate",
          "type": "int96"
        }
      ],
      "stateMutability": "view",
      "type": "function"
    },
    {
      "inputs": [
        {
          "internalType": "string",
          "name": "_name",
          "type": "string"
        },
        {
          "internalType": "address",
          "name": "_host",
          "type": "address"
        },
        {
          "internalType": "address",
          "name": "_creator",
          "type": "address"
        },
        {
          "internalType": "uint96",
          "name": "_ratePerNFT",
          "type": "uint96"
        },
        {
          "internalType": "contract IcfaV1Forwarder",
          "name": "_cfaV1Forwarder",
          "type": "address"
        },
        {
          "internalType": "contract IERC721",
          "name": "_nft",
          "type": "address"
        },
        {
          "internalType": "contract ISuperToken",
          "name": "_streamToken",
          "type": "address"
        }
      ],
      "name": "initialize",
      "outputs": [],
      "stateMutability": "nonpayable",
      "type": "function"
    },
    {
      "inputs": [],
      "name": "isCritical",
      "outputs": [
        {
          "internalType": "bool",
          "name": "_status",
          "type": "bool"
        }
      ],
      "stateMutability": "view",
      "type": "function"
    },
    {
      "inputs": [],
      "name": "name",
      "outputs": [
        {
          "internalType": "string",
          "name": "",
          "type": "string"
        }
      ],
      "stateMutability": "view",
      "type": "function"
    },
    {
      "inputs": [],
      "name": "ratePerNFT",
      "outputs": [
        {
          "internalType": "int96",
          "name": "",
          "type": "int96"
        }
      ],
      "stateMutability": "view",
      "type": "function"
    },
    {
      "inputs": [
        {
          "internalType": "uint256",
          "name": "_amount",
          "type": "uint256"
        }
      ],
      "name": "topUpTap",
      "outputs": [],
      "stateMutability": "nonpayable",
      "type": "function"
    }
  ],
  "bytecode": {
    "object": "0x608060405234801561001057600080fd5b50612721806100206000396000f3fe608060405234801561001057600080fd5b50600436106101735760003560e01c80635f9e7d77116100de578063927e352011610097578063d86ed3e511610071578063d86ed3e514610329578063dcc76d1f1461033c578063e4fbb6091461034f578063e65fa3f91461036257600080fd5b8063927e3520146102f0578063b20b6b5914610303578063bde5880e1461031657600080fd5b80635f9e7d77146102895780636cb999671461029c5780637c0b8de2146102af578063884d1f40146102c2578063898f319c146102d55780638cf79999146102e857600080fd5b80632e40bfac116101305780632e40bfac1461020f57806330d9c9151461021757806342f5c6181461022a57806348addb5c1461023d57806349f289dc1461024557806353c11f991461027657600080fd5b806302fb0c5e1461017857806306fdde031461019a5780631c17e2d6146101af5780631c8da209146101d45780631d1b7b77146101e9578063230dbd29146101fc575b600080fd5b6005546101859060ff1681565b60405190151581526020015b60405180910390f35b6101a26103c9565b6040516101919190611f51565b6005546101c1906101009004600b0b81565b604051600b9190910b8152602001610191565b6101e76101e2366004611f80565b610457565b005b6101e76101f7366004611f9b565b610527565b6101a261020a366004612020565b610892565b6101856108f4565b6101a26102253660046120eb565b610a41565b6101e7610238366004611f9b565b610aa4565b6101e7610d11565b60005461025e906201000090046001600160a01b031681565b6040516001600160a01b039091168152602001610191565b6101a2610284366004612020565b610d99565b6101a26102973660046120eb565b610e48565b6101e76102aa36600461218a565b610eaf565b60035461025e906001600160a01b031681565b6101a26102d03660046120eb565b610fc1565b6101e76102e3366004611f9b565b611024565b6101e7611560565b6101e76102fe3660046121bd565b6115eb565b6101e761031136600461218a565b6117e5565b6101e7610324366004611f9b565b611a08565b6101a2610337366004612020565b611b14565b60025461025e906001600160a01b031681565b60015461025e906001600160a01b031681565b6103af6103703660046122d2565b6001600160a01b039091166000818152600860208181526040808420958452600186018252832054939092529052905460ff90911691600b9190910b90565b604080519215158352600b9190910b602083015201610191565b600480546103d6906122fe565b80601f0160208091040260200160405190810160405280929190818152602001828054610402906122fe565b801561044f5780601f106104245761010080835404028352916020019161044f565b820191906000526020600020905b81548152906001019060200180831161043257829003601f168201915b505050505081565b6001546001600160a01b031633146104825760405163a17205b560e01b815260040160405180910390fd5b6005546101009004600b90810b90829081900b82036104bf5760405163245deae960e11b8152600b82900b60048201526024015b60405180910390fd5b600580546cffffffffffffffffffffffff0019166101006001600160601b0386160217905560408051600b84810b825283900b60208201527f3f4f15794d3d6909eeffd3c852e9ade086118bf01ed932cd7c40fca47501b6fb910160405180910390a1505050565b6000818152600760205260409020546001600160a01b031680158061057357506001600160a01b038116600090815260086020908152604080832085845260010190915290205460ff16155b15610594576040516347e7ef2160e11b8152600481018390526024016104b6565b6002546006546003546040516331a9108f60e11b8152600481018690526001600160a01b0393841693928316926000921690636352211e90602401602060405180830381865afa1580156105ec573d6000803e3d6000fd5b505050506040513d601f19601f820116820180604052508101906106109190612338565b90506001600160a01b03811633148061063357506001546001600160a01b031633145b1561086957604051630ec5b29360e11b81526000906001600160a01b03841690631d8b65269061066b90879030908a90600401612355565b602060405180830381865afa158015610688573d6000803e3d6000fd5b505050506040513d601f19601f820116820180604052508101906106ac9190612378565b6001600160a01b038616600090815260086020526040812054600554929350600b90810b926106ea91879189918b918791610100909104900b611b76565b600089815260076020908152604080832080546001600160a01b03191690556001600160a01b038b168352600882528083208c84526001019091529020805460ff191690559050600b81810b9084900b1380610765575080600b0b83600b0b1280156107655750610765858761076086856123b1565b611c51565b156107e357604051632bf3551b60e11b81526001600160a01b038616906357e6aa369061079a9089908b9086906004016123e4565b6020604051808303816000875af11580156107b9573d6000803e3d6000fd5b505050506040513d601f19601f820116820180604052508101906107dd919061240b565b50610861565b6001600160a01b0385166357e6aa3687896107fe86886123b1565b6040518463ffffffff1660e01b815260040161081c939291906123e4565b6020604051808303816000875af115801561083b573d6000803e3d6000fd5b505050506040513d601f19601f8201168201806040525081019061085f919061240b565b505b50505061088b565b60405163791c605560e01b8152600481018690523360248201526044016104b6565b5050505050565b60405162461bcd60e51b815260206004820152602e60248201527f556e737570706f727465642063616c6c6261636b202d2041667465722041677260448201526d19595b595b9d08155c19185d195960921b60648201526060906084016104b6565b6006546002546040516322c904d960e01b81526001600160a01b0391821660048201819052306024830152600093929092169190839083906322c904d990604401602060405180830381865afa158015610952573d6000803e3d6000fd5b505050506040513d601f19601f820116820180604052508101906109769190612378565b9050600081600b0b1261098d576000935050505090565b6040516370a0823160e01b81523060048201526000906001600160a01b038416906370a0823190602401602060405180830381865afa1580156109d4573d6000803e3d6000fd5b505050506040513d601f19601f820116820180604052508101906109f8919061242d565b90506000610a20610a0b84600019612446565b610a189062015180612446565b600b0b611dff565b9050808210610a355760009550505050505090565b60019550505050505090565b60405162461bcd60e51b815260206004820152602f60248201527f556e737570706f727465642063616c6c6261636b202d204265666f726520416760448201526e1c99595b595b9d0810dc99585d1959608a1b60648201526060906084016104b6565b6001546001600160a01b03163314610acf5760405163a17205b560e01b815260040160405180910390fd5b6006546002546040516322c904d960e01b81526001600160a01b0391821660048201819052306024830152919092169160009083906322c904d990604401602060405180830381865afa158015610b2a573d6000803e3d6000fd5b505050506040513d601f19601f82011682018060405250810190610b4e9190612378565b6040516370a0823160e01b81523060048201529091506000906001600160a01b038416906370a0823190602401602060405180830381865afa158015610b98573d6000803e3d6000fd5b505050506040513d601f19601f82011682018060405250810190610bbc919061242d565b905084811015610be9576040516346b73ad560e01b815260048101829052602481018690526044016104b6565b6000610bfb610a188462015180612446565b90506000610c0987846124db565b905080821015610c3557604051623bc4f560e01b815260048101829052602481018390526044016104b6565b60405163a9059cbb60e01b8152336004820152602481018890526001600160a01b0386169063a9059cbb906044016020604051808303816000875af1158015610c82573d6000803e3d6000fd5b505050506040513d601f19601f82011682018060405250810190610ca6919061240b565b610cc3576040516312171d8360e31b815260040160405180910390fd5b60408051888152602081018390526001600160a01b038716917f4a8ab7bc7b0ca9f36a3042b149f077408a1e0342c4dd28c99d24c34767e6cdfd91015b60405180910390a250505050505050565b6001546001600160a01b03163314610d3c5760405163a17205b560e01b815260040160405180910390fd5b60055460ff161515600003610d64576040516324ee1ca960e01b815260040160405180910390fd5b6005805460ff191690556040517f3a15dda76c298a039674b2287c867ba88f2236e2d01b54ba865ead296570386490600090a1565b6000546060906201000090046001600160a01b03163314610dcf57604051635614fa7760e01b81523360048201526024016104b6565b82828080601f0160208091040260200160405190810160405280939291908181526020018383808284376000920182905250939450610e1492505050878901896124ee565b506001600160a01b0316600090815260086020526040902080546001600160601b0319169055509998505050505050505050565b60405162461bcd60e51b815260206004820152603360248201527f556e737570706f727465642063616c6c6261636b202d20204265666f7265204160448201527219dc99595b595b9d0815195c9b5a5b985d1959606a1b60648201526060906084016104b6565b6006546002546001546001600160a01b039283169291821691163314801590610edd5750610edb6108f4565b155b15610efd576040516373e9588760e11b81523360048201526024016104b6565b60055460ff1615610f13576005805460ff191690555b604051632bf3551b60e11b81526001600160a01b038316906357e6aa3690610f4490849087906000906004016123e4565b6020604051808303816000875af1158015610f63573d6000803e3d6000fd5b505050506040513d601f19601f82011682018060405250810190610f87919061240b565b506040516001600160a01b038416907f15ed2cc902282ba6d45db1192488213eaca35dffb37edec22aacf8cbf408c24e90600090a2505050565b60405162461bcd60e51b815260206004820152602f60248201527f556e737570706f727465642063616c6c6261636b202d204265666f726520416760448201526e1c99595b595b9d081d5c19185d1959608a1b60648201526060906084016104b6565b60055460ff16611047576040516324ee1ca960e01b815260040160405180910390fd5b6003546000828152600760205260408120546001600160a01b039283169216801580159061109b57506001600160a01b038116600090815260086020908152604080832087845260010190915290205460ff165b156110a4578091505b506040516331a9108f60e11b81526004810184905233906001600160a01b03841690636352211e90602401602060405180830381865afa1580156110ec573d6000803e3d6000fd5b505050506040513d601f19601f820116820180604052508101906111109190612338565b6001600160a01b03161461113a5760405163ad88647160e01b8152600481018490526024016104b6565b6001600160a01b0381163314801561116f575033600090815260086020908152604080832086845260010190915290205460ff165b15611190576040516344196afd60e11b8152600481018490526024016104b6565b6006546002546005546001600160a01b039283169291821691610100909104600b0b908416331461141e576001600160a01b0384166000908152600860205260408082205433835290822054600b91820b92910b906111f28686898688611b76565b905060006112038787338689611e55565b905060006112118486612527565b61121b8385612527565b61122591906123b1565b9050611232888883611c51565b611260576040516333c17a3b60e01b81526001600160a01b038a1660048201523360248201526044016104b6565b600b85900b15611381576000600860008b6001600160a01b03166001600160a01b0316815260200190815260200160002060010160008d815260200190815260200160002060006101000a81548160ff02191690831515021790555085600860008b6001600160a01b03166001600160a01b0316815260200190815260200160002060000160006101000a8154816001600160601b030219169083600b0b6001600160601b03160217905550876001600160a01b03166357e6aa36888b866040518463ffffffff1660e01b815260040161133c939291906123e4565b6020604051808303816000875af115801561135b573d6000803e3d6000fd5b505050506040513d601f19601f8201168201806040525081019061137f919061240b565b505b604051632bf3551b60e11b81526001600160a01b038916906357e6aa36906113b1908a90339087906004016123e4565b6020604051808303816000875af11580156113d0573d6000803e3d6000fd5b505050506040513d601f19601f820116820180604052508101906113f4919061240b565b505050600089815260076020526040902080546001600160a01b03191633179055506114bb915050565b33600081815260086020526040812054600b0b9161144190869086908587611e55565b604051632bf3551b60e11b81529091506001600160a01b038616906357e6aa3690611474908790339086906004016123e4565b6020604051808303816000875af1158015611493573d6000803e3d6000fd5b505050506040513d601f19601f820116820180604052508101906114b7919061240b565b5050505b3360008181526008602081815260408084208b855260018082018452918520805460ff191690921790915593909252905254600b82810b91900b146115235733600090815260086020526040902080546001600160601b0319166001600160601b0383161790555b60405186815233907f90a5a57b652df5b9c4b1245c11aee7c6ba100d224871367c81229f8833b3f29c9060200160405180910390a2505050505050565b6001546001600160a01b0316331461158b5760405163a17205b560e01b815260040160405180910390fd5b60055460ff1615156001036115b3576040516321ebf19760e11b815260040160405180910390fd5b6005805460ff191660011790556040517f095fdebb45b4f1fd3f76ce7a07f113fafa6da5fcd60d6983ab22693fe29d1ecd90600090a1565b600054610100900460ff161580801561160b5750600054600160ff909116105b806116255750303b158015611625575060005460ff166001145b6116885760405162461bcd60e51b815260206004820152602e60248201527f496e697469616c697a61626c653a20636f6e747261637420697320616c72656160448201526d191e481a5b9a5d1a585b1a5e995960921b60648201526084016104b6565b6000805460ff1916600117905580156116ab576000805461ff0019166101001790555b6000805462010000600160b01b031916620100006001600160a01b038a81169190910291909117909155600680546001600160a01b03199081168784161790915560028054821685841617905560018054821689841617905560038054909116918516919091179055600580546cffffffffffffffffffffffff0019166101006001600160601b03881602179055600461174589826125a3565b50816001600160a01b0316836001600160a01b03167f5aa0d639432ea7da3976c64fbf2d61e924cb399d52d50bf897a13ab2054aa6cd8a898960405161178d93929190612663565b60405180910390a380156117db576000805461ff0019169055604051600181527f7f26b83ff96e1f2b6a682f133852f6798a09c465da95921460cefb38474024989060200160405180910390a15b5050505050505050565b60055460ff16611808576040516324ee1ca960e01b815260040160405180910390fd5b600654600254600554604051630ec5b29360e11b81526001600160a01b039384169390921691610100909104600b0b906000908490631d8b65269061185590869030908a90600401612355565b602060405180830381865afa158015611872573d6000803e3d6000fd5b505050506040513d601f19601f820116820180604052508101906118969190612378565b9050600b81900b6118c5576040516345da2b7560e11b81526001600160a01b03861660048201526024016104b6565b6001600160a01b038516600090815260086020526040902054600b90810b9083900b810361190c5760405163aeecca6d60e01b8152600b84900b60048201526024016104b6565b6000611918828461269f565b6001600160a01b03888116600090815260086020526040902080546001600160601b0319166001600160601b03881617905590915086166357e6aa3686896119608886612446565b6040518463ffffffff1660e01b815260040161197e939291906123e4565b6020604051808303816000875af115801561199d573d6000803e3d6000fd5b505050506040513d601f19601f820116820180604052508101906119c1919061240b565b5060408051600b84810b825286900b60208201526001600160a01b038916917fa10702d01d3c4ff4c3ce65a72ea172bfb010b2e9f34bd104df867a535d1185e99101610d00565b6001546001600160a01b03163314611a335760405163a17205b560e01b815260040160405180910390fd5b6002546040516323b872dd60e01b8152336004820152306024820152604481018390526001600160a01b039091169081906323b872dd906064016020604051808303816000875af1158015611a8c573d6000803e3d6000fd5b505050506040513d601f19601f82011682018060405250810190611ab0919061240b565b611acd576040516312171d8360e31b815260040160405180910390fd5b806001600160a01b03167f6af4f348b0a94b3ecbd7d24059de3fd8ffb635abb46124d9effb1f88a995c7cc83604051611b0891815260200190565b60405180910390a25050565b60405162461bcd60e51b815260206004820152602e60248201527f556e737570706f727465642063616c6c6261636b202d2041667465722041677260448201526d19595b595b9d0810dc99585d195960921b60648201526060906084016104b6565b6001600160a01b038316600090815260086020526040812054600b90810b9084900b15611c3c57604051630ec5b29360e11b81526001600160a01b03881690631d8b652690611bcd90899030908a90600401612355565b602060405180830381865afa158015611bea573d6000803e3d6000fd5b505050506040513d601f19601f82011682018060405250810190611c0e9190612378565b90506000611c1c858361269f565b905083611c2a6001836123b1565b611c349190612446565b925050611c46565b6000915050611c48565b505b95945050505050565b6040516322c904d960e01b81526001600160a01b03838116600483015230602483015260009182918616906322c904d990604401602060405180830381865afa158015611ca2573d6000803e3d6000fd5b505050506040513d601f19601f82011682018060405250810190611cc69190612378565b905082600b0b81600b0b1215611df2576040516370a0823160e01b81523060048201526000906001600160a01b038616906370a0823190602401602060405180830381865afa158015611d1d573d6000803e3d6000fd5b505050506040513d601f19601f82011682018060405250810190611d41919061242d565b6040516309f0b49560e01b81526001600160a01b038781166004830152600b87900b60248301529192506000918816906309f0b49590604401602060405180830381865afa158015611d97573d6000803e3d6000fd5b505050506040513d601f19601f82011682018060405250810190611dbb919061242d565b90506000611dce610a0b85600019612446565b905080611ddb83856124db565b1015611dee576000945050505050611df8565b5050505b60019150505b9392505050565b600080821215611e515760405162461bcd60e51b815260206004820181905260248201527f53616665436173743a2076616c7565206d75737420626520706f73697469766560448201526064016104b6565b5090565b6000600b83900b15611f0457604051630ec5b29360e11b81526000906001600160a01b03881690631d8b652690611e9490899030908a90600401612355565b602060405180830381865afa158015611eb1573d6000803e3d6000fd5b505050506040513d601f19601f82011682018060405250810190611ed59190612378565b90506000611ee3858361269f565b905083611ef1826001612527565b611efb9190612446565b92505050611c48565b5080611c48565b6000815180845260005b81811015611f3157602081850181015186830182015201611f15565b506000602082860101526020601f19601f83011685010191505092915050565b602081526000611df86020830184611f0b565b80356001600160601b0381168114611f7b57600080fd5b919050565b600060208284031215611f9257600080fd5b611df882611f64565b600060208284031215611fad57600080fd5b5035919050565b6001600160a01b0381168114611fc957600080fd5b50565b8035611f7b81611fb4565b60008083601f840112611fe957600080fd5b50813567ffffffffffffffff81111561200157600080fd5b60208301915083602082850101111561201957600080fd5b9250929050565b600080600080600080600080600060c08a8c03121561203e57600080fd5b893561204981611fb4565b985060208a013561205981611fb4565b975060408a0135965060608a013567ffffffffffffffff8082111561207d57600080fd5b6120898d838e01611fd7565b909850965060808c01359150808211156120a257600080fd5b6120ae8d838e01611fd7565b909650945060a08c01359150808211156120c757600080fd5b506120d48c828d01611fd7565b915080935050809150509295985092959850929598565b600080600080600080600060a0888a03121561210657600080fd5b873561211181611fb4565b9650602088013561212181611fb4565b955060408801359450606088013567ffffffffffffffff8082111561214557600080fd5b6121518b838c01611fd7565b909650945060808a013591508082111561216a57600080fd5b506121778a828b01611fd7565b989b979a50959850939692959293505050565b60006020828403121561219c57600080fd5b8135611df881611fb4565b634e487b7160e01b600052604160045260246000fd5b600080600080600080600060e0888a0312156121d857600080fd5b873567ffffffffffffffff808211156121f057600080fd5b818a0191508a601f83011261220457600080fd5b813581811115612216576122166121a7565b604051601f8201601f19908116603f0116810190838211818310171561223e5761223e6121a7565b816040528281528d602084870101111561225757600080fd5b82602086016020830137600060208483010152809b50505050505061227e60208901611fcc565b955061228c60408901611fcc565b945061229a60608901611f64565b93506122a860808901611fcc565b92506122b660a08901611fcc565b91506122c460c08901611fcc565b905092959891949750929550565b600080604083850312156122e557600080fd5b82356122f081611fb4565b946020939093013593505050565b600181811c9082168061231257607f821691505b60208210810361233257634e487b7160e01b600052602260045260246000fd5b50919050565b60006020828403121561234a57600080fd5b8151611df881611fb4565b6001600160a01b0393841681529183166020830152909116604082015260600190565b60006020828403121561238a57600080fd5b815180600b0b8114611df857600080fd5b634e487b7160e01b600052601160045260246000fd5b600b82810b9082900b0360016001605f1b0319811260016001605f1b03821317156123de576123de61239b565b92915050565b6001600160a01b039384168152919092166020820152600b9190910b604082015260600190565b60006020828403121561241d57600080fd5b81518015158114611df857600080fd5b60006020828403121561243f57600080fd5b5051919050565b600081600b0b83600b0b60016001605f1b036000821360008413838304851182821616156124765761247661239b565b60016001605f1b031960008512828116878305871216156124995761249961239b565b600087129250858205871284841616156124b5576124b561239b565b858505871281841616156124cb576124cb61239b565b5050509290910295945050505050565b818103818111156123de576123de61239b565b6000806040838503121561250157600080fd5b823561250c81611fb4565b9150602083013561251c81611fb4565b809150509250929050565b600b81810b9083900b0160016001605f1b03811360016001605f1b0319821217156123de576123de61239b565b601f82111561259e57600081815260208120601f850160051c8101602086101561257b5750805b601f850160051c820191505b8181101561259a57828155600101612587565b5050505b505050565b815167ffffffffffffffff8111156125bd576125bd6121a7565b6125d1816125cb84546122fe565b84612554565b602080601f83116001811461260657600084156125ee5750858301515b600019600386901b1c1916600185901b17855561259a565b600085815260208120601f198616915b8281101561263557888601518255948401946001909101908401612616565b50858210156126535787850151600019600388901b60f8161c191681555b5050505050600190811b01905550565b6060815260006126766060830186611f0b565b6001600160a01b03949094166020830152506001600160601b0391909116604090910152919050565b600081600b0b83600b0b806126c457634e487b7160e01b600052601260045260246000fd5b60016001605f1b03198214600019821416156126e2576126e261239b565b9005939250505056fea264697066735822122046d83bea6d7a1234d97190cdbbaa80743b0ad5b75b555ef9a9971db0fc49217e64736f6c63430008100033",
    "linkReferences": {}
  },
  "methodIdentifiers": {
    "CREATOR()": "e4fbb609",
    "HOST()": "49f289dc",
    "NFT()": "7c0b8de2",
    "STREAM_TOKEN()": "dcc76d1f",
    "activateTap()": "8cf79999",
    "active()": "02fb0c5e",
    "adjustCurrentStreams(address)": "b20b6b59",
    "afterAgreementCreated(address,address,bytes32,bytes,bytes,bytes)": "d86ed3e5",
    "afterAgreementTerminated(address,address,bytes32,bytes,bytes,bytes)": "53c11f99",
    "afterAgreementUpdated(address,address,bytes32,bytes,bytes,bytes)": "230dbd29",
    "beforeAgreementCreated(address,address,bytes32,bytes,bytes)": "30d9c915",
    "beforeAgreementTerminated(address,address,bytes32,bytes,bytes)": "5f9e7d77",
    "beforeAgreementUpdated(address,address,bytes32,bytes,bytes)": "884d1f40",
    "changeRate(uint96)": "1c8da209",
    "claimStream(uint256)": "898f319c",
    "closeStream(uint256)": "1d1b7b77",
    "deactivateTap()": "48addb5c",
    "drainTap(uint256)": "42f5c618",
    "emergencyCloseStreams(address)": "6cb99967",
    "getClaimedData(address,uint256)": "e65fa3f9",
    "initialize(string,address,address,uint96,address,address,address)": "927e3520",
    "isCritical()": "2e40bfac",
    "name()": "06fdde03",
    "ratePerNFT()": "1c17e2d6",
    "topUpTap(uint256)": "bde5880e"
  },
  "id": 94
}