{
  "abi": [
    {
      "inputs": [
        {
          "internalType": "bool",
          "name": "nonUpgradable",
          "type": "bool"
        },
        {
          "internalType": "bool",
          "name": "appWhiteListingEnabled",
          "type": "bool"
        }
      ],
      "stateMutability": "nonpayable",
      "type": "constructor"
    },
    {
      "inputs": [
        {
          "internalType": "uint256",
          "name": "_code",
          "type": "uint256"
        }
      ],
      "name": "ALREADY_EXISTS",
      "type": "error"
    },
    {
      "inputs": [
        {
          "internalType": "uint256",
          "name": "_code",
          "type": "uint256"
        }
      ],
      "name": "APP_RULE",
      "type": "error"
    },
    {
      "inputs": [
        {
          "internalType": "uint256",
          "name": "_code",
          "type": "uint256"
        }
      ],
      "name": "DOES_NOT_EXIST",
      "type": "error"
    },
    {
      "inputs": [],
      "name": "HOST_AGREEMENT_CALLBACK_IS_NOT_ACTION",
      "type": "error"
    },
    {
      "inputs": [],
      "name": "HOST_CALL_AGREEMENT_WITH_CTX_FROM_WRONG_ADDRESS",
      "type": "error"
    },
    {
      "inputs": [],
      "name": "HOST_CALL_APP_ACTION_WITH_CTX_FROM_WRONG_ADDRESS",
      "type": "error"
    },
    {
      "inputs": [],
      "name": "HOST_CANNOT_DOWNGRADE_TO_NON_UPGRADEABLE",
      "type": "error"
    },
    {
      "inputs": [],
      "name": "HOST_INVALID_CONFIG_WORD",
      "type": "error"
    },
    {
      "inputs": [],
      "name": "HOST_INVALID_OR_EXPIRED_SUPER_APP_REGISTRATION_KEY",
      "type": "error"
    },
    {
      "inputs": [],
      "name": "HOST_MAX_256_AGREEMENTS",
      "type": "error"
    },
    {
      "inputs": [],
      "name": "HOST_NON_UPGRADEABLE",
      "type": "error"
    },
    {
      "inputs": [],
      "name": "HOST_NON_ZERO_LENGTH_PLACEHOLDER_CTX",
      "type": "error"
    },
    {
      "inputs": [],
      "name": "HOST_NOT_A_SUPER_APP",
      "type": "error"
    },
    {
      "inputs": [],
      "name": "HOST_NO_APP_REGISTRATION_PERMISSIONS",
      "type": "error"
    },
    {
      "inputs": [],
      "name": "HOST_ONLY_GOVERNANCE",
      "type": "error"
    },
    {
      "inputs": [],
      "name": "HOST_RECEIVER_IS_NOT_SUPER_APP",
      "type": "error"
    },
    {
      "inputs": [],
      "name": "HOST_SENDER_IS_NOT_SUPER_APP",
      "type": "error"
    },
    {
      "inputs": [],
      "name": "HOST_SOURCE_APP_NEEDS_HIGHER_APP_LEVEL",
      "type": "error"
    },
    {
      "inputs": [],
      "name": "HOST_SUPER_APP_ALREADY_REGISTERED",
      "type": "error"
    },
    {
      "inputs": [],
      "name": "HOST_SUPER_APP_IS_JAILED",
      "type": "error"
    },
    {
      "inputs": [],
      "name": "HOST_UNAUTHORIZED_SUPER_APP_FACTORY",
      "type": "error"
    },
    {
      "inputs": [],
      "name": "HOST_UNKNOWN_BATCH_CALL_OPERATION_TYPE",
      "type": "error"
    },
    {
      "inputs": [
        {
          "internalType": "uint256",
          "name": "_code",
          "type": "uint256"
        }
      ],
      "name": "MUST_BE_CONTRACT",
      "type": "error"
    },
    {
      "inputs": [
        {
          "internalType": "uint256",
          "name": "_code",
          "type": "uint256"
        }
      ],
      "name": "ONLY_LISTED_AGREEMENT",
      "type": "error"
    },
    {
      "anonymous": false,
      "inputs": [
        {
          "indexed": false,
          "internalType": "bytes32",
          "name": "agreementType",
          "type": "bytes32"
        },
        {
          "indexed": false,
          "internalType": "address",
          "name": "code",
          "type": "address"
        }
      ],
      "name": "AgreementClassRegistered",
      "type": "event"
    },
    {
      "anonymous": false,
      "inputs": [
        {
          "indexed": false,
          "internalType": "bytes32",
          "name": "agreementType",
          "type": "bytes32"
        },
        {
          "indexed": false,
          "internalType": "address",
          "name": "code",
          "type": "address"
        }
      ],
      "name": "AgreementClassUpdated",
      "type": "event"
    },
    {
      "anonymous": false,
      "inputs": [
        {
          "indexed": true,
          "internalType": "contract ISuperApp",
          "name": "app",
          "type": "address"
        }
      ],
      "name": "AppRegistered",
      "type": "event"
    },
    {
      "anonymous": false,
      "inputs": [
        {
          "indexed": false,
          "internalType": "bytes32",
          "name": "uuid",
          "type": "bytes32"
        },
        {
          "indexed": false,
          "internalType": "address",
          "name": "codeAddress",
          "type": "address"
        }
      ],
      "name": "CodeUpdated",
      "type": "event"
    },
    {
      "anonymous": false,
      "inputs": [
        {
          "indexed": false,
          "internalType": "contract ISuperfluidGovernance",
          "name": "oldGov",
          "type": "address"
        },
        {
          "indexed": false,
          "internalType": "contract ISuperfluidGovernance",
          "name": "newGov",
          "type": "address"
        }
      ],
      "name": "GovernanceReplaced",
      "type": "event"
    },
    {
      "anonymous": false,
      "inputs": [
        {
          "indexed": false,
          "internalType": "uint8",
          "name": "version",
          "type": "uint8"
        }
      ],
      "name": "Initialized",
      "type": "event"
    },
    {
      "anonymous": false,
      "inputs": [
        {
          "indexed": true,
          "internalType": "contract ISuperApp",
          "name": "app",
          "type": "address"
        },
        {
          "indexed": false,
          "internalType": "uint256",
          "name": "reason",
          "type": "uint256"
        }
      ],
      "name": "Jail",
      "type": "event"
    },
    {
      "anonymous": false,
      "inputs": [
        {
          "indexed": false,
          "internalType": "contract ISuperTokenFactory",
          "name": "newFactory",
          "type": "address"
        }
      ],
      "name": "SuperTokenFactoryUpdated",
      "type": "event"
    },
    {
      "anonymous": false,
      "inputs": [
        {
          "indexed": true,
          "internalType": "contract ISuperToken",
          "name": "token",
          "type": "address"
        },
        {
          "indexed": false,
          "internalType": "address",
          "name": "code",
          "type": "address"
        }
      ],
      "name": "SuperTokenLogicUpdated",
      "type": "event"
    },
    {
      "inputs": [],
      "name": "APP_WHITE_LISTING_ENABLED",
      "outputs": [
        {
          "internalType": "bool",
          "name": "",
          "type": "bool"
        }
      ],
      "stateMutability": "view",
      "type": "function"
    },
    {
      "inputs": [],
      "name": "CALLBACK_GAS_LIMIT",
      "outputs": [
        {
          "internalType": "uint64",
          "name": "",
          "type": "uint64"
        }
      ],
      "stateMutability": "view",
      "type": "function"
    },
    {
      "inputs": [],
      "name": "NON_UPGRADABLE_DEPLOYMENT",
      "outputs": [
        {
          "internalType": "bool",
          "name": "",
          "type": "bool"
        }
      ],
      "stateMutability": "view",
      "type": "function"
    },
    {
      "inputs": [
        {
          "internalType": "uint256",
          "name": "bitmap",
          "type": "uint256"
        },
        {
          "internalType": "bytes32",
          "name": "agreementType",
          "type": "bytes32"
        }
      ],
      "name": "addToAgreementClassesBitmap",
      "outputs": [
        {
          "internalType": "uint256",
          "name": "newBitmap",
          "type": "uint256"
        }
      ],
      "stateMutability": "view",
      "type": "function"
    },
    {
      "inputs": [
        {
          "internalType": "contract ISuperApp",
          "name": "targetApp",
          "type": "address"
        }
      ],
      "name": "allowCompositeApp",
      "outputs": [],
      "stateMutability": "nonpayable",
      "type": "function"
    },
    {
      "inputs": [
        {
          "internalType": "bytes",
          "name": "ctx",
          "type": "bytes"
        },
        {
          "internalType": "int256",
          "name": "appCreditUsedDelta",
          "type": "int256"
        }
      ],
      "name": "appCallbackPop",
      "outputs": [
        {
          "internalType": "bytes",
          "name": "newCtx",
          "type": "bytes"
        }
      ],
      "stateMutability": "nonpayable",
      "type": "function"
    },
    {
      "inputs": [
        {
          "internalType": "bytes",
          "name": "ctx",
          "type": "bytes"
        },
        {
          "internalType": "contract ISuperApp",
          "name": "app",
          "type": "address"
        },
        {
          "internalType": "uint256",
          "name": "appCreditGranted",
          "type": "uint256"
        },
        {
          "internalType": "int256",
          "name": "appCreditUsed",
          "type": "int256"
        },
        {
          "internalType": "contract ISuperfluidToken",
          "name": "appCreditToken",
          "type": "address"
        }
      ],
      "name": "appCallbackPush",
      "outputs": [
        {
          "internalType": "bytes",
          "name": "appCtx",
          "type": "bytes"
        }
      ],
      "stateMutability": "nonpayable",
      "type": "function"
    },
    {
      "inputs": [
        {
          "components": [
            {
              "internalType": "uint32",
              "name": "operationType",
              "type": "uint32"
            },
            {
              "internalType": "address",
              "name": "target",
              "type": "address"
            },
            {
              "internalType": "bytes",
              "name": "data",
              "type": "bytes"
            }
          ],
          "internalType": "struct ISuperfluid.Operation[]",
          "name": "operations",
          "type": "tuple[]"
        }
      ],
      "name": "batchCall",
      "outputs": [],
      "stateMutability": "nonpayable",
      "type": "function"
    },
    {
      "inputs": [
        {
          "internalType": "contract ISuperAgreement",
          "name": "agreementClass",
          "type": "address"
        },
        {
          "internalType": "bytes",
          "name": "callData",
          "type": "bytes"
        },
        {
          "internalType": "bytes",
          "name": "userData",
          "type": "bytes"
        }
      ],
      "name": "callAgreement",
      "outputs": [
        {
          "internalType": "bytes",
          "name": "returnedData",
          "type": "bytes"
        }
      ],
      "stateMutability": "nonpayable",
      "type": "function"
    },
    {
      "inputs": [
        {
          "internalType": "contract ISuperAgreement",
          "name": "agreementClass",
          "type": "address"
        },
        {
          "internalType": "bytes",
          "name": "callData",
          "type": "bytes"
        },
        {
          "internalType": "bytes",
          "name": "userData",
          "type": "bytes"
        },
        {
          "internalType": "bytes",
          "name": "ctx",
          "type": "bytes"
        }
      ],
      "name": "callAgreementWithContext",
      "outputs": [
        {
          "internalType": "bytes",
          "name": "newCtx",
          "type": "bytes"
        },
        {
          "internalType": "bytes",
          "name": "returnedData",
          "type": "bytes"
        }
      ],
      "stateMutability": "nonpayable",
      "type": "function"
    },
    {
      "inputs": [
        {
          "internalType": "contract ISuperApp",
          "name": "app",
          "type": "address"
        },
        {
          "internalType": "bytes",
          "name": "callData",
          "type": "bytes"
        }
      ],
      "name": "callAppAction",
      "outputs": [
        {
          "internalType": "bytes",
          "name": "returnedData",
          "type": "bytes"
        }
      ],
      "stateMutability": "nonpayable",
      "type": "function"
    },
    {
      "inputs": [
        {
          "internalType": "contract ISuperApp",
          "name": "app",
          "type": "address"
        },
        {
          "internalType": "bytes",
          "name": "callData",
          "type": "bytes"
        },
        {
          "internalType": "bytes",
          "name": "ctx",
          "type": "bytes"
        }
      ],
      "name": "callAppActionWithContext",
      "outputs": [
        {
          "internalType": "bytes",
          "name": "newCtx",
          "type": "bytes"
        }
      ],
      "stateMutability": "nonpayable",
      "type": "function"
    },
    {
      "inputs": [
        {
          "internalType": "contract ISuperApp",
          "name": "app",
          "type": "address"
        },
        {
          "internalType": "bytes",
          "name": "callData",
          "type": "bytes"
        },
        {
          "internalType": "bool",
          "name": "isTermination",
          "type": "bool"
        },
        {
          "internalType": "bytes",
          "name": "ctx",
          "type": "bytes"
        }
      ],
      "name": "callAppAfterCallback",
      "outputs": [
        {
          "internalType": "bytes",
          "name": "newCtx",
          "type": "bytes"
        }
      ],
      "stateMutability": "nonpayable",
      "type": "function"
    },
    {
      "inputs": [
        {
          "internalType": "contract ISuperApp",
          "name": "app",
          "type": "address"
        },
        {
          "internalType": "bytes",
          "name": "callData",
          "type": "bytes"
        },
        {
          "internalType": "bool",
          "name": "isTermination",
          "type": "bool"
        },
        {
          "internalType": "bytes",
          "name": "ctx",
          "type": "bytes"
        }
      ],
      "name": "callAppBeforeCallback",
      "outputs": [
        {
          "internalType": "bytes",
          "name": "cbdata",
          "type": "bytes"
        }
      ],
      "stateMutability": "nonpayable",
      "type": "function"
    },
    {
      "inputs": [],
      "name": "castrate",
      "outputs": [],
      "stateMutability": "nonpayable",
      "type": "function"
    },
    {
      "inputs": [
        {
          "internalType": "bytes",
          "name": "ctx",
          "type": "bytes"
        },
        {
          "internalType": "int256",
          "name": "appCreditUsedMore",
          "type": "int256"
        }
      ],
      "name": "ctxUseCredit",
      "outputs": [
        {
          "internalType": "bytes",
          "name": "newCtx",
          "type": "bytes"
        }
      ],
      "stateMutability": "nonpayable",
      "type": "function"
    },
    {
      "inputs": [
        {
          "internalType": "bytes",
          "name": "ctx",
          "type": "bytes"
        }
      ],
      "name": "decodeCtx",
      "outputs": [
        {
          "components": [
            {
              "internalType": "uint8",
              "name": "appCallbackLevel",
              "type": "uint8"
            },
            {
              "internalType": "uint8",
              "name": "callType",
              "type": "uint8"
            },
            {
              "internalType": "uint256",
              "name": "timestamp",
              "type": "uint256"
            },
            {
              "internalType": "address",
              "name": "msgSender",
              "type": "address"
            },
            {
              "internalType": "bytes4",
              "name": "agreementSelector",
              "type": "bytes4"
            },
            {
              "internalType": "bytes",
              "name": "userData",
              "type": "bytes"
            },
            {
              "internalType": "uint256",
              "name": "appCreditGranted",
              "type": "uint256"
            },
            {
              "internalType": "uint256",
              "name": "appCreditWantedDeprecated",
              "type": "uint256"
            },
            {
              "internalType": "int256",
              "name": "appCreditUsed",
              "type": "int256"
            },
            {
              "internalType": "address",
              "name": "appAddress",
              "type": "address"
            },
            {
              "internalType": "contract ISuperfluidToken",
              "name": "appCreditToken",
              "type": "address"
            }
          ],
          "internalType": "struct ISuperfluid.Context",
          "name": "context",
          "type": "tuple"
        }
      ],
      "stateMutability": "pure",
      "type": "function"
    },
    {
      "inputs": [
        {
          "components": [
            {
              "internalType": "uint32",
              "name": "operationType",
              "type": "uint32"
            },
            {
              "internalType": "address",
              "name": "target",
              "type": "address"
            },
            {
              "internalType": "bytes",
              "name": "data",
              "type": "bytes"
            }
          ],
          "internalType": "struct ISuperfluid.Operation[]",
          "name": "operations",
          "type": "tuple[]"
        }
      ],
      "name": "forwardBatchCall",
      "outputs": [],
      "stateMutability": "nonpayable",
      "type": "function"
    },
    {
      "inputs": [
        {
          "internalType": "bytes32",
          "name": "agreementType",
          "type": "bytes32"
        }
      ],
      "name": "getAgreementClass",
      "outputs": [
        {
          "internalType": "contract ISuperAgreement",
          "name": "agreementClass",
          "type": "address"
        }
      ],
      "stateMutability": "view",
      "type": "function"
    },
    {
      "inputs": [
        {
          "internalType": "contract ISuperApp",
          "name": "appAddr",
          "type": "address"
        }
      ],
      "name": "getAppCallbackLevel",
      "outputs": [
        {
          "internalType": "uint8",
          "name": "",
          "type": "uint8"
        }
      ],
      "stateMutability": "view",
      "type": "function"
    },
    {
      "inputs": [
        {
          "internalType": "contract ISuperApp",
          "name": "app",
          "type": "address"
        }
      ],
      "name": "getAppManifest",
      "outputs": [
        {
          "internalType": "bool",
          "name": "isSuperApp",
          "type": "bool"
        },
        {
          "internalType": "bool",
          "name": "isJailed",
          "type": "bool"
        },
        {
          "internalType": "uint256",
          "name": "noopMask",
          "type": "uint256"
        }
      ],
      "stateMutability": "view",
      "type": "function"
    },
    {
      "inputs": [],
      "name": "getCodeAddress",
      "outputs": [
        {
          "internalType": "address",
          "name": "codeAddress",
          "type": "address"
        }
      ],
      "stateMutability": "view",
      "type": "function"
    },
    {
      "inputs": [],
      "name": "getGovernance",
      "outputs": [
        {
          "internalType": "contract ISuperfluidGovernance",
          "name": "",
          "type": "address"
        }
      ],
      "stateMutability": "view",
      "type": "function"
    },
    {
      "inputs": [],
      "name": "getNow",
      "outputs": [
        {
          "internalType": "uint256",
          "name": "",
          "type": "uint256"
        }
      ],
      "stateMutability": "view",
      "type": "function"
    },
    {
      "inputs": [],
      "name": "getSuperTokenFactory",
      "outputs": [
        {
          "internalType": "contract ISuperTokenFactory",
          "name": "factory",
          "type": "address"
        }
      ],
      "stateMutability": "view",
      "type": "function"
    },
    {
      "inputs": [],
      "name": "getSuperTokenFactoryLogic",
      "outputs": [
        {
          "internalType": "address",
          "name": "logic",
          "type": "address"
        }
      ],
      "stateMutability": "view",
      "type": "function"
    },
    {
      "inputs": [
        {
          "internalType": "contract ISuperfluidGovernance",
          "name": "gov",
          "type": "address"
        }
      ],
      "name": "initialize",
      "outputs": [],
      "stateMutability": "nonpayable",
      "type": "function"
    },
    {
      "inputs": [
        {
          "internalType": "contract ISuperAgreement",
          "name": "agreementClass",
          "type": "address"
        }
      ],
      "name": "isAgreementClassListed",
      "outputs": [
        {
          "internalType": "bool",
          "name": "yes",
          "type": "bool"
        }
      ],
      "stateMutability": "view",
      "type": "function"
    },
    {
      "inputs": [
        {
          "internalType": "bytes32",
          "name": "agreementType",
          "type": "bytes32"
        }
      ],
      "name": "isAgreementTypeListed",
      "outputs": [
        {
          "internalType": "bool",
          "name": "yes",
          "type": "bool"
        }
      ],
      "stateMutability": "view",
      "type": "function"
    },
    {
      "inputs": [
        {
          "internalType": "contract ISuperApp",
          "name": "app",
          "type": "address"
        }
      ],
      "name": "isApp",
      "outputs": [
        {
          "internalType": "bool",
          "name": "",
          "type": "bool"
        }
      ],
      "stateMutability": "view",
      "type": "function"
    },
    {
      "inputs": [
        {
          "internalType": "contract ISuperApp",
          "name": "app",
          "type": "address"
        }
      ],
      "name": "isAppJailed",
      "outputs": [
        {
          "internalType": "bool",
          "name": "",
          "type": "bool"
        }
      ],
      "stateMutability": "view",
      "type": "function"
    },
    {
      "inputs": [
        {
          "internalType": "contract ISuperApp",
          "name": "app",
          "type": "address"
        },
        {
          "internalType": "contract ISuperApp",
          "name": "targetApp",
          "type": "address"
        }
      ],
      "name": "isCompositeAppAllowed",
      "outputs": [
        {
          "internalType": "bool",
          "name": "",
          "type": "bool"
        }
      ],
      "stateMutability": "view",
      "type": "function"
    },
    {
      "inputs": [
        {
          "internalType": "bytes",
          "name": "ctx",
          "type": "bytes"
        }
      ],
      "name": "isCtxValid",
      "outputs": [
        {
          "internalType": "bool",
          "name": "",
          "type": "bool"
        }
      ],
      "stateMutability": "view",
      "type": "function"
    },
    {
      "inputs": [
        {
          "internalType": "address",
          "name": "forwarder",
          "type": "address"
        }
      ],
      "name": "isTrustedForwarder",
      "outputs": [
        {
          "internalType": "bool",
          "name": "",
          "type": "bool"
        }
      ],
      "stateMutability": "view",
      "type": "function"
    },
    {
      "inputs": [
        {
          "internalType": "bytes",
          "name": "ctx",
          "type": "bytes"
        },
        {
          "internalType": "contract ISuperApp",
          "name": "app",
          "type": "address"
        },
        {
          "internalType": "uint256",
          "name": "reason",
          "type": "uint256"
        }
      ],
      "name": "jailApp",
      "outputs": [
        {
          "internalType": "bytes",
          "name": "newCtx",
          "type": "bytes"
        }
      ],
      "stateMutability": "nonpayable",
      "type": "function"
    },
    {
      "inputs": [
        {
          "internalType": "uint256",
          "name": "bitmap",
          "type": "uint256"
        }
      ],
      "name": "mapAgreementClasses",
      "outputs": [
        {
          "internalType": "contract ISuperAgreement[]",
          "name": "agreementClasses",
          "type": "address[]"
        }
      ],
      "stateMutability": "view",
      "type": "function"
    },
    {
      "inputs": [],
      "name": "proxiableUUID",
      "outputs": [
        {
          "internalType": "bytes32",
          "name": "",
          "type": "bytes32"
        }
      ],
      "stateMutability": "pure",
      "type": "function"
    },
    {
      "inputs": [
        {
          "internalType": "contract ISuperAgreement",
          "name": "agreementClassLogic",
          "type": "address"
        }
      ],
      "name": "registerAgreementClass",
      "outputs": [],
      "stateMutability": "nonpayable",
      "type": "function"
    },
    {
      "inputs": [
        {
          "internalType": "uint256",
          "name": "configWord",
          "type": "uint256"
        }
      ],
      "name": "registerApp",
      "outputs": [],
      "stateMutability": "nonpayable",
      "type": "function"
    },
    {
      "inputs": [
        {
          "internalType": "contract ISuperApp",
          "name": "app",
          "type": "address"
        },
        {
          "internalType": "uint256",
          "name": "configWord",
          "type": "uint256"
        }
      ],
      "name": "registerAppByFactory",
      "outputs": [],
      "stateMutability": "nonpayable",
      "type": "function"
    },
    {
      "inputs": [
        {
          "internalType": "uint256",
          "name": "configWord",
          "type": "uint256"
        },
        {
          "internalType": "string",
          "name": "registrationKey",
          "type": "string"
        }
      ],
      "name": "registerAppWithKey",
      "outputs": [],
      "stateMutability": "nonpayable",
      "type": "function"
    },
    {
      "inputs": [
        {
          "internalType": "uint256",
          "name": "bitmap",
          "type": "uint256"
        },
        {
          "internalType": "bytes32",
          "name": "agreementType",
          "type": "bytes32"
        }
      ],
      "name": "removeFromAgreementClassesBitmap",
      "outputs": [
        {
          "internalType": "uint256",
          "name": "newBitmap",
          "type": "uint256"
        }
      ],
      "stateMutability": "view",
      "type": "function"
    },
    {
      "inputs": [
        {
          "internalType": "contract ISuperfluidGovernance",
          "name": "newGov",
          "type": "address"
        }
      ],
      "name": "replaceGovernance",
      "outputs": [],
      "stateMutability": "nonpayable",
      "type": "function"
    },
    {
      "inputs": [
        {
          "internalType": "contract ISuperAgreement",
          "name": "agreementClassLogic",
          "type": "address"
        }
      ],
      "name": "updateAgreementClass",
      "outputs": [],
      "stateMutability": "nonpayable",
      "type": "function"
    },
    {
      "inputs": [
        {
          "internalType": "address",
          "name": "newAddress",
          "type": "address"
        }
      ],
      "name": "updateCode",
      "outputs": [],
      "stateMutability": "nonpayable",
      "type": "function"
    },
    {
      "inputs": [
        {
          "internalType": "contract ISuperTokenFactory",
          "name": "newFactory",
          "type": "address"
        }
      ],
      "name": "updateSuperTokenFactory",
      "outputs": [],
      "stateMutability": "nonpayable",
      "type": "function"
    },
    {
      "inputs": [
        {
          "internalType": "contract ISuperToken",
          "name": "token",
          "type": "address"
        }
      ],
      "name": "updateSuperTokenLogic",
      "outputs": [],
      "stateMutability": "nonpayable",
      "type": "function"
    },
    {
      "inputs": [],
      "name": "versionRecipient",
      "outputs": [
        {
          "internalType": "string",
          "name": "",
          "type": "string"
        }
      ],
      "stateMutability": "pure",
      "type": "function"
    }
  ],
  "bytecode": {
    "object": "0x60c06040523480156200001157600080fd5b5060405162004f5338038062004f5383398101604081905262000034916200005b565b901515608052151560a05262000093565b805180151581146200005657600080fd5b919050565b600080604083850312156200006f57600080fd5b6200007a8362000045565b91506200008a6020840162000045565b90509250929050565b60805160a051614e5b620000f86000396000818161058801528181611dab0152818161228a01526126a20152600081816106bc0152818161077e01528181610a1c0152818161104701528181611182015281816112e101526125cc0152614e5b6000f3fe608060405234801561001057600080fd5b50600436106102a05760003560e01c8063768fabb011610167578063bb84cfa1116100ce578063c56a069d11610087578063c56a069d14610697578063cd312ec4146106b7578063e8dccb7d146106de578063f2e55caf14610700578063f373305214610708578063f9f522f41461071b57600080fd5b8063bb84cfa114610609578063bbe4fd5014610645578063bced3ddc1461064b578063bd1c448b1461065e578063bf42873414610671578063c4d66de81461068457600080fd5b80639d297e30116101205780639d297e3014610583578063a5dbbbcd146105aa578063ad3915c8146105bd578063b6d200de146105d0578063b724211e146105e3578063ba48b5f8146105f657600080fd5b8063768fabb01461050a578063787afde71461051d5780638ca48484146105305780639378fa1314610543578063989b0c3e146105685780639903ad381461057b57600080fd5b806350d75d251161020b578063670e77e3116101c4578063670e77e31461049a5780636ad3ca7d146104ad5780636b4f3335146104c05780637283100c146104d3578063731aed6e146104e657806374041e02146104f757600080fd5b806350d75d251461041657806352d1902d1461041e57806354fbc4931461044e57806357121e0c14610461578063572b6c051461047457806359a291411461048757600080fd5b806339255d5b1161025d57806339255d5b146103565780633ca3ad4e146103695780633f6c923a146103a45780634329d293146103c457806346951954146103e5578063486ff0cd146103f857600080fd5b806306cecba8146102a557806315a024e1146102ba5780631e6d0a84146102cd5780631e855cf3146102f6578063289b3c0d1461030957806333d608f114610334575b600080fd5b6102b86102b3366004613da3565b61074b565b005b6102b86102c8366004613da3565b61092b565b6102e06102db366004613e1d565b610b7f565b6040516102ed9190613f03565b60405180910390f35b6102e0610304366004613fd9565b610dca565b6000546201000090046001600160a01b03165b6040516001600160a01b0390911681526020016102ed565b61033e622dc6c081565b6040516001600160401b0390911681526020016102ed565b6102e0610364366004614028565b610de0565b610394610377366004613da3565b6001600160a01b0316600090815260046020526040902054151590565b60405190151581526020016102ed565b6103b76103b236600461409d565b610df6565b6040516102ed91906140d1565b6103d76103d23660046141b2565b610e07565b6040516102ed92919061425e565b6102b86103f3366004613da3565b611014565b604080518082019091526002815261763160f01b60208201526102e0565b61031c611110565b7fcd355cae2c435f8c5e0c626c4691d22fd85aa7422a424c6f0bced6e64c7aba745b6040519081526020016102ed565b6102b861045c366004613da3565b61113f565b6102b861046f366004613da3565b6113c2565b610394610482366004613da3565b611490565b6102e0610495366004614283565b61151a565b6102b86104a83660046142ce565b611600565b6102b86104bb3660046142ce565b611616565b6103946104ce366004613da3565b611621565b6102b86104e1366004613da3565b611645565b6003546001600160a01b031661031c565b6102e0610505366004613e1d565b6116ed565b6102e0610518366004614342565b611840565b6102b861052b366004613da3565b6119e0565b61039461053e366004613da3565b611b23565b610556610551366004613da3565b611be8565b60405160ff90911681526020016102ed565b6102e0610576366004614283565b611c09565b6102b8611ca0565b6103947f000000000000000000000000000000000000000000000000000000000000000081565b6104406105b83660046143bd565b611d5b565b6102b86105cb3660046143df565b611da9565b61031c6105de3660046143df565b611df4565b6102e06105f13660046143f8565b611e5f565b6102e0610604366004614454565b611f24565b6103946106173660046144d6565b6001600160a01b03918216600090815260056020908152604080832093909416825291909152205460ff1690565b42610440565b6104406106593660046143bd565b61223b565b6102b861066c36600461450f565b612288565b61039461067f36600461455a565b6123a0565b6102b8610692366004613da3565b6123e1565b6106aa6106a53660046143df565b6124c5565b6040516102ed919061459b565b6103947f000000000000000000000000000000000000000000000000000000000000000081565b6103946106ec3660046143df565b600090815260026020526040902054151590565b61031c6125af565b6102b86107163660046145e8565b612677565b61072e610729366004613da3565b612783565b6040805193151584529115156020840152908201526060016102ed565b6000546201000090046001600160a01b0316331461077c576040516362e9152760e11b815260040160405180910390fd5b7f0000000000000000000000000000000000000000000000000000000000000000156107bb576040516314f72c9f60e01b815260040160405180910390fd5b6000816001600160a01b0316637730599e6040518163ffffffff1660e01b8152600401602060405180830381865afa1580156107fb573d6000803e3d6000fd5b505050506040513d601f19601f8201168201806040525081019061081f9190614614565b60008181526002602052604081205491925081900361085a57604051639995b0c160e01b8152610bb960048201526024015b60405180910390fd5b600060016108688184614643565b8154811061087857610878614656565b6000918252602090912001546040516311a5465560e21b81526001600160a01b03868116600483015290911691508190634695195490602401600060405180830381600087803b1580156108cb57600080fd5b505af11580156108df573d6000803e3d6000fd5b5050604080518681526001600160a01b03881660208201527f9279aa773f2b588996032d8de89911555039f28b13a11a7c17074330bc082d9a935001905060405180910390a150505050565b6000546201000090046001600160a01b0316331461095c576040516362e9152760e11b815260040160405180910390fd5b6000816001600160a01b0316637730599e6040518163ffffffff1660e01b8152600401602060405180830381865afa15801561099c573d6000803e3d6000fd5b505050506040513d601f19601f820116820180604052508101906109c09190614614565b600081815260026020526040902054909150156109f457604051635b5b42a560e01b8152610bb86004820152602401610851565b60015461010011610a1857604051630f85034f60e31b815260040160405180910390fd5b60007f0000000000000000000000000000000000000000000000000000000000000000610ad2576000604051610a4d90613d26565b604051809103906000f080158015610a69573d6000803e3d6000fd5b50604051634a0687ef60e01b81526001600160a01b03868116600483015291925090821690634a0687ef90602401600060405180830381600087803b158015610ab157600080fd5b505af1158015610ac5573d6000803e3d6000fd5b5050505080915050610ad5565b50815b6001805480820182557fb10e2d527612073b26eecdfd717e6a320cf44b4afac2b0732d9fcbe2b7fa0cf60180546001600160a01b0384166001600160a01b0319909116179055546000838152600260205260409081902091909155517f878135063a6cfb3bc333e534b1fdc83f4f12221cad6705c31c0567048a8bd3d190610b7290849086909182526001600160a01b0316602082015260400190565b60405180910390a1505050565b6060610b8a33611b23565b610bab57604051639aca506b60e01b8152610ce46004820152602401610851565b82828080601f016020809104026020016040519081016040528093929190818152602001838380828437600092019190915250610bed92508391506127d29050565b610bf957610bf961466c565b600080610c738a6000898c8c8080601f01602080910402602001604051908101604052809392919081815260200183838082843760009201919091525050604080516020601f8f018190048102820181019092528d815292508d91508c90819084018382808284376000920191909152506127f292505050565b915091508115610d8357610c868161297f565b15610d1b5780806020019051810190610c9f91906146c7565b9350610caa846127d2565b610d165786610ccf5760405163a85ba64f60e01b815260146004820152602401610851565b85858080601f016020809104026020016040519081016040528093929190818152602001838380828437600092019190915250929650610d1692508c9150601490506129d3565b610dbd565b86610d3c5760405163a85ba64f60e01b815260166004820152602401610851565b85858080601f016020809104026020016040519081016040528093929190818152602001838380828437600092019190915250929650610d1692508c9150601690506129d3565b85858080601f0160208091040260200160405190810160405280939291908181526020018383808284376000920191909152509296505050505b5050509695505050505050565b6060610dd7338484612a48565b90505b92915050565b6060610dee33858585612c83565b949350505050565b610dfe613d33565b610dda82612d96565b60608083838080601f016020809104026020016040519081016040528093929190818152602001838380828437600092019190915250610e4c92508391506127d29050565b610e6c5760405163a85ba64f60e01b815260146004820152602401610851565b89610e7681611b23565b610e9757604051639aca506b60e01b8152610ce46004820152602401610851565b6000610ed887878080601f016020809104026020016040519081016040528093929190818152602001838380828437600092019190915250610df692505050565b6101208101519091506001600160a01b03163314610f095760405163066875e160e11b815260040160405180910390fd5b60608101805133909152604080516020601f8c018190048102820181019092528a8152908b908b908190840183828082843760009201919091525050505060a0830152610f5582612e61565b95506000610f9b8e8e8e8080601f0160208091040260200160405190810160405280939291908181526020018383808284376000920191909152508c9250612f95915050565b965090508015610ffa5785806020019051810190610fb991906146c7565b9650610fc4876127d2565b610fd057610fd061466c565b610fd987610df6565b6001600160a01b03831660608201529250610ff383612e61565b9650611003565b6110038661304e565b505050505097509795505050505050565b6000546201000090046001600160a01b03163314611045576040516362e9152760e11b815260040160405180910390fd5b7f000000000000000000000000000000000000000000000000000000000000000015611084576040516314f72c9f60e01b815260040160405180910390fd5b806001600160a01b031663cd312ec46040518163ffffffff1660e01b8152600401602060405180830381865afa1580156110c2573d6000803e3d6000fd5b505050506040513d601f19601f820116820180604052508101906110e691906146fb565b156111045760405163474e764160e01b815260040160405180910390fd5b61110d81613159565b50565b600061113a7f360894a13ba1a3210667c828492db98dca3e2076cc3735a920a3ca505d382bbc5490565b905090565b6000546201000090046001600160a01b03163314611170576040516362e9152760e11b815260040160405180910390fd5b6003546001600160a01b03166112df577f00000000000000000000000000000000000000000000000000000000000000006112565760006040516111b390613d26565b604051809103906000f0801580156111cf573d6000803e3d6000fd5b50604051634a0687ef60e01b81526001600160a01b03848116600483015291925090821690634a0687ef90602401600060405180830381600087803b15801561121757600080fd5b505af115801561122b573d6000803e3d6000fd5b5050600380546001600160a01b0319166001600160a01b039490941693909317909255506112729050565b600380546001600160a01b0319166001600160a01b0383161790555b600360009054906101000a90046001600160a01b03166001600160a01b0316638129fc1c6040518163ffffffff1660e01b8152600401600060405180830381600087803b1580156112c257600080fd5b505af11580156112d6573d6000803e3d6000fd5b5050505061137e565b7f00000000000000000000000000000000000000000000000000000000000000001561131e576040516314f72c9f60e01b815260040160405180910390fd5b6003546040516311a5465560e21b81526001600160a01b03838116600483015290911690634695195490602401600060405180830381600087803b15801561136557600080fd5b505af1158015611379573d6000803e3d6000fd5b505050505b6003546040516001600160a01b0390911681527fce13a9895a1719ad4493b2ac1a9bfb36070566161abab408e7ecbe586da8d499906020015b60405180910390a150565b336000818152600460205260409020546113ef576040516302eb3f7160e61b815260040160405180910390fd5b6001600160a01b03821660009081526004602052604090205461142557604051634b5518af60e11b815260040160405180910390fd5b61142e82611be8565b60ff1661143a82611be8565b60ff161161145b57604051630447252760e41b815260040160405180910390fd5b6001600160a01b039081166000908152600560209081526040808320949093168252929092529020805460ff19166001179055565b600080546201000090046001600160a01b03166380f70cba30836114b386613393565b6040518463ffffffff1660e01b81526004016114d193929190614718565b602060405180830381865afa1580156114ee573d6000803e3d6000fd5b505050506040513d601f19601f820116820180604052508101906115129190614614565b151592915050565b606061152533611b23565b61154657604051639aca506b60e01b8152610ce46004820152602401610851565b83838080601f01602080910402602001604051908101604052809392919081815260200183838082843760009201919091525061158892508391506127d29050565b6115945761159461466c565b60006115d586868080601f016020809104026020016040519081016040528093929190818152602001838380828437600092019190915250610df692505050565b90508381610100018181516115ea919061473c565b9052506115f681612e61565b9695505050505050565b61161261160b61341b565b8383613483565b5050565b611612338383613483565b6001600160a01b038116600090815260046020526040812054618000161515610dda565b6000546201000090046001600160a01b03163314611676576040516362e9152760e11b815260040160405180910390fd5b600054604080516001600160a01b03620100009093048316815291831660208301527f13abda02e63c790d0e2818b251282cfe5cbe0a8abd69c54bf5d2260c0907bd2e910160405180910390a1600080546001600160a01b03909216620100000262010000600160b01b0319909216919091179055565b60606116f833611b23565b61171957604051639aca506b60e01b8152610ce46004820152602401610851565b82828080601f01602080910402602001604051908101604052809392919081815260200183838082843760009201919091525061175b92508391506127d29050565b6117675761176761466c565b6000806117e18a6001898c8c8080601f01602080910402602001604051908101604052809392919081815260200183838082843760009201919091525050604080516020601f8f018190048102820181019092528d815292508d91508c90819084018382808284376000920191909152506127f292505050565b915091508115610dbd576117f48161297f565b15611814578080602001905181019061180d91906146c7565b9350610dbd565b866118355760405163a85ba64f60e01b815260166004820152602401610851565b610dbd8a60166129d3565b606061184b33611b23565b61186c57604051639aca506b60e01b8152610ce46004820152602401610851565b86868080601f0160208091040260200160405190810160405280939291908181526020018383808284376000920191909152506118ae92508391506127d29050565b6118ba576118ba61466c565b60006118fb89898080601f016020809104026020016040519081016040528093929190818152602001838380828437600092019190915250610df692505050565b905061192281606001516001600160a01b0316600090815260046020526040902054151590565b801561193657506001816000015160ff1610155b156119895760608101516001600160a01b039081166000908152600560209081526040808320938b168352929052205460ff166119895760405163a85ba64f60e01b8152601e6004820152602401610851565b80518161199582614764565b60ff169052506003602082015260c0810186905261010081018590526001600160a01b0380881661012083015284166101408201526119d381612e61565b9998505050505050505050565b6000546201000090046001600160a01b03163314611a11576040516362e9152760e11b815260040160405180910390fd5b60035460408051634a3852d960e11b815290516000926001600160a01b031691639470a5b29160048083019260209291908290030181865afa158015611a5b573d6000803e3d6000fd5b505050506040513d601f19601f82011682018060405250810190611a7f9190614783565b6040516311a5465560e21b81526001600160a01b03808316600483015291925090831690634695195490602401600060405180830381600087803b158015611ac657600080fd5b505af1158015611ada573d6000803e3d6000fd5b50506040516001600160a01b038481168252851692507f840acbd291b38534819f47f875839277e502f40e1c7bfea2c5fc2c8017442cd391506020015b60405180910390a25050565b600080826001600160a01b0316637730599e6040518163ffffffff1660e01b8152600401602060405180830381865afa158015611b64573d6000803e3d6000fd5b505050506040513d601f19601f82011682018060405250810190611b889190614614565b6000818152600260205260409020549091508015801590610dee57506001600160a01b0384166001611bba8184614643565b81548110611bca57611bca614656565b6000918252602090912001546001600160a01b031614949350505050565b6001600160a01b03811660009081526004602052604081205460ff16610dda565b6060611c1433611b23565b611c3557604051639aca506b60e01b8152610ce46004820152602401610851565b6000611c7685858080601f016020809104026020016040519081016040528093929190818152602001838380828437600092019190915250610df692505050565b9050828161010001818151611c8b919061473c565b905250611c9781612e61565b95945050505050565b600054610100900460ff1615808015611cc05750600054600160ff909116105b80611cda5750303b158015611cda575060005460ff166001145b611cf65760405162461bcd60e51b8152600401610851906147a0565b6000805460ff191660011790558015611d19576000805461ff0019166101001790555b801561110d576000805461ff0019169055604051600181527f7f26b83ff96e1f2b6a682f133852f6798a09c465da95921460cefb3847402498906020016113b7565b600081815260026020526040812054808203611d8e57604051639995b0c160e01b8152610bb96004820152602401610851565b611d99600182614643565b6001901b19841691505092915050565b7f000000000000000000000000000000000000000000000000000000000000000015611de8576040516305b93ebf60e41b815260040160405180910390fd5b61110d813360016139a1565b600081815260026020526040812054808203611e2757604051639995b0c160e01b8152610bb96004820152602401610851565b6001611e338183614643565b81548110611e4357611e43614656565b6000918252602090912001546001600160a01b03169392505050565b6060611e6a33611b23565b611e8b57604051639aca506b60e01b8152610ce46004820152602401610851565b84848080601f016020809104026020016040519081016040528093929190818152602001838380828437600092019190915250611ecd92508391506127d29050565b611ed957611ed961466c565b611ee384846129d3565b85858080601f016020809104026020016040519081016040528093929190818152602001838380828437600092019190915250929998505050505050505050565b606082828080601f016020809104026020016040519081016040528093929190818152602001838380828437600092019190915250611f6892508391506127d29050565b611f885760405163a85ba64f60e01b815260146004820152602401610851565b6001600160a01b0387166000908152600460205260408120548891819003611fc35760405163163cbe4360e01b815260040160405180910390fd5b618000811615611fe557604051628e12d960e21b815260040160405180910390fd5b87878080601f016020809104026020016040519081016040528093929190818152602001838380828437600092018290525092506120269150839050613ac0565b90506001600160e01b031981166330d9c91560e01b148061205757506001600160e01b0319811663d86ed3e560e01b145b8061207257506001600160e01b03198116630221347d60e61b145b8061208d57506001600160e01b0319811663230dbd2960e01b145b806120a857506001600160e01b03198116635f9e7d7760e01b145b806120c357506001600160e01b031981166353c11f9960e01b145b156120e1576040516377a14afb60e11b815260040160405180910390fd5b600061212289898080601f016020809104026020016040519081016040528093929190818152602001838380828437600092019190915250610df692505050565b6101208101519091506001600160a01b03163314612153576040516311cfdef560e21b815260040160405180910390fd5b6060810180513390915261216682612e61565b97506000806121ad8f8f8f8080601f0160208091040260200160405190810160405280939291908181526020018383808284376000920191909152508f9250612f95915050565b91509150811561222057808060200190518101906121cb91906146c7565b99506121d68a6127d2565b6121f65760405163a85ba64f60e01b815260146004820152602401610851565b6121ff8a610df6565b6001600160a01b0384166060820152935061221984612e61565b9950612229565b6122298161304e565b50505050505050505095945050505050565b60008181526002602052604081205480820361226e57604051639995b0c160e01b8152610bb96004820152602401610851565b612279600182614643565b6001901b841791505092915050565b7f00000000000000000000000000000000000000000000000000000000000000001561238f5760006122f03284848080601f016020809104026020016040519081016040528093929190818152602001838380828437600092019190915250613b1c92505050565b6000805460405163407b865d60e11b81529293504292620100009091046001600160a01b0316916380f70cba9161232d9130918790600401614718565b602060405180830381865afa15801561234a573d6000803e3d6000fd5b505050506040513d601f19601f8201168201806040525081019061236e9190614614565b101561238d576040516319ab84d160e01b815260040160405180910390fd5b505b61239b833360016139a1565b505050565b6000610dd783838080601f0160208091040260200160405190810160405280939291908181526020018383808284376000920191909152506127d292505050565b600054610100900460ff16158080156124015750600054600160ff909116105b8061241b5750303b15801561241b575060005460ff166001145b6124375760405162461bcd60e51b8152600401610851906147a0565b6000805460ff19166001179055801561245a576000805461ff0019166101001790555b6000805462010000600160b01b031916620100006001600160a01b038516021790558015611612576000805461ff0019169055604051600181527f7f26b83ff96e1f2b6a682f133852f6798a09c465da95921460cefb38474024989060200160405180910390a15050565b60606000806001805490506001600160401b038111156124e7576124e7613f16565b604051908082528060200260200182016040528015612510578160200160208202803683370190505b50925060009050600091505b6001548210156125a7576001821b841615612597576001828154811061254457612544614656565b6000918252602090912001546001600160a01b03168382612564816147ee565b93508151811061257657612576614656565b60200260200101906001600160a01b031690816001600160a01b0316815250505b6125a0826147ee565b915061251c565b825250919050565b6003546000906001600160a01b03166125ca576125ca61466c565b7f00000000000000000000000000000000000000000000000000000000000000001561260057506003546001600160a01b031690565b600360009054906101000a90046001600160a01b03166001600160a01b03166350d75d256040518163ffffffff1660e01b8152600401602060405180830381865afa158015612653573d6000803e3d6000fd5b505050506040513d601f19601f8201168201806040525081019061113a9190614783565b333b600081900361269f57604051630db74dbd60e41b8152610c806004820152602401610851565b507f0000000000000000000000000000000000000000000000000000000000000000156127775760006126d133613b4f565b6000805460405163407b865d60e11b81529293509091620100009091046001600160a01b0316906380f70cba9061271090309085908790600401614718565b602060405180830381865afa15801561272d573d6000803e3d6000fd5b505050506040513d601f19601f820116820180604052508101906127519190614614565b6001149050806127745760405163289533c560e01b815260040160405180910390fd5b50505b611612818360006139a1565b6001600160a01b0381166000908152600460209081526040808320815192830190915254808252158015929182916127ca57805161800081161515935064ff000000001691505b509193909250565b60008151600014158015610dda5750600654825160208401201492915050565b600060606001600160a01b03871661280c5761280c61466c565b6128168484613bc9565b935060005a9050861561289457876001600160a01b0316622dc6c06001600160401b0316866040516128489190614807565b6000604051808303818686fa925050503d8060008114612884576040519150601f19603f3d011682016040523d82523d6000602084013e612889565b606091505b509093509150612903565b876001600160a01b0316622dc6c06001600160401b0316866040516128b99190614807565b60006040518083038160008787f1925050503d80600081146128f7576040519150601f19603f3d011682016040523d82523d6000602084013e6128fc565b606091505b5090935091505b8261297457612913603f82614823565b5a1115612938578561292d576129288261304e565b612974565b61292888600a6129d3565b60405162461bcd60e51b815260206004820152601160248201527053463a206e656564206d6f72652067617360781b6044820152606401610851565b509550959350505050565b600060408251101561299357506000919050565b6020828101519060009082146129ad575060009392505050565b5060408301516129bc81613c80565b6129c7906040614845565b84511492505050919050565b6001600160a01b038216600090815260046020526040812054618000169003611612576001600160a01b038216600081815260046020526040908190208054618000179055517fbe3aa33bd245135e4e26b223d79d14ea479a47bff09f2b03c53838af1edbb14b90611b179084815260200190565b60065460609015612a6f5760405163a85ba64f60e01b815260156004820152602401610851565b6001600160a01b0383166000908152600460205260408120548491819003612aaa5760405163163cbe4360e01b815260040160405180910390fd5b618000811615612acc57604051628e12d960e21b815260040160405180910390fd5b836000612ad882613ac0565b90506001600160e01b031981166330d9c91560e01b1480612b0957506001600160e01b0319811663d86ed3e560e01b145b80612b2457506001600160e01b03198116630221347d60e61b145b80612b3f57506001600160e01b0319811663230dbd2960e01b145b80612b5a57506001600160e01b03198116635f9e7d7760e01b145b80612b7557506001600160e01b031981166353c11f9960e01b145b15612b93576040516377a14afb60e11b815260040160405180910390fd5b60408051610160810182526000808252600260208084019190915242838501526001600160a01b03808d16606085015260808401839052845191820190945281815260a083015260c0820181905260e0820181905261010082018190529189166101208201526101408101829052612c0a90612e61565b90506000612c19898984612f95565b975090508015612c675786806020019051810190612c3791906146c7565b9150612c42826127d2565b612c625760405163a85ba64f60e01b815260146004820152602401610851565b612c70565b612c708761304e565b5050600060065550929695505050505050565b60065460609015612caa5760405163a85ba64f60e01b815260156004820152602401610851565b83612cb481611b23565b612cd557604051639aca506b60e01b8152610ce46004820152602401610851565b6000612ce085613ac0565b6040805161016081018252600080825260016020830152929350612d639181014281526020018a6001600160a01b03168152602001846001600160e01b031916815260200187815260200160008152602001600081526020016000815260200160006001600160a01b0316815260200160006001600160a01b0316815250612e61565b90506000612d72888884612f95565b9550905080612d8457612d848561304e565b50506000600655509095945050505050565b612d9e613d33565b60608083806020019051810190612db59190614858565b81519193509150600090612dd290840160209081019085016148b1565b60a08901526001600160e01b03191660808801526001600160a01b031660608701526040860152602081811c600f168187015260ff9091168552825160009250612e23919084018101908401614935565b6001600160a01b03908116610140890152166101208701526101008601526001600160801b03811660c086015260801c60e085015250919392505050565b60606001826000015160ff161115612e8f5760405163a85ba64f60e01b815260286004820152602401610851565b815160208084015160009260ff1664ff000000009190921b1617905060006080612ebc8560e00151613cb9565b6001600160801b0316901b612ed48560c00151613cb9565b6001600160801b0316179050818460400151856060015186608001518760a00151604051602001612f09959493929190614980565b60408051601f1981840301815282825261010087015161012088015161014089015160208601879052938501919091526001600160a01b03908116606085015290911660808301529060a00160408051601f1981840301815290829052612f73929160200161425e565b60408051601f1981840301815291905280516020820120600655949350505050565b600060606001600160a01b038516612faf57612faf61466c565b612fb98484613bc9565b9350846001600160a01b031684604051612fd39190614807565b6000604051808303816000865af19150503d8060008114613010576040519150601f19603f3d011682016040523d82523d6000602084013e613015565b606091505b50909250905081156130465780516000036130465760405163a85ba64f60e01b815260166004820152602401610851565b935093915050565b6004815110156130a05760405162461bcd60e51b815260206004820152601a60248201527f43616c6c5574696c733a207461726765742072657665727428290000000000006044820152606401610851565b602081015163b1b7848f60e01b6001600160e01b03198216016131505760408051808201825260208082527f43616c6c5574696c733a207461726765742070616e69636b65643a2030785f5f90820190815260248501517f43616c6c5574696c733a207461726765742070616e69636b65643a2030780000600482811c600f908116603090810160081b918516011791909117909252925162461bcd60e51b815291929161085191849101613f03565b81518060208401fd5b60006131837f360894a13ba1a3210667c828492db98dca3e2076cc3735a920a3ca505d382bbc5490565b6001600160a01b0316036131d95760405162461bcd60e51b815260206004820152601d60248201527f5555505350726f786961626c653a206e6f742075706772616461626c650000006044820152606401610851565b806001600160a01b03166352d1902d6040518163ffffffff1660e01b8152600401602060405180830381865afa158015613217573d6000803e3d6000fd5b505050506040513d601f19601f8201168201806040525081019061323b9190614614565b7fcd355cae2c435f8c5e0c626c4691d22fd85aa7422a424c6f0bced6e64c7aba74146132b55760405162461bcd60e51b815260206004820152602360248201527f5555505350726f786961626c653a206e6f7420636f6d70617469626c65206c6f60448201526267696360e81b6064820152608401610851565b6001600160a01b038116300361330d5760405162461bcd60e51b815260206004820152601960248201527f5555505350726f786961626c653a2070726f7879206c6f6f70000000000000006044820152606401610851565b613335817f360894a13ba1a3210667c828492db98dca3e2076cc3735a920a3ca505d382bbc55565b7fe011bc04c286c344a8fcbb8de77f953da762c3e25d8cdea984147fc4168a5dcc7fcd355cae2c435f8c5e0c626c4691d22fd85aa7422a424c6f0bced6e64c7aba74604080519182526001600160a01b0384166020830152016113b7565b6040805160208101829052603260608201527f6f72672e7375706572666c7569642d66696e616e63652e7375706572666c756960808201527132173a393ab9ba32b22337b93bb0b93232b960711b60a08201526001600160a01b0383169181019190915260009060c0015b604051602081830303815290604052805190602001209050919050565b600060183610801590613432575061343233611490565b6134765760405162461bcd60e51b81526020600482015260156024820152742737ba103a393ab9ba32b2103337b93bb0b93232b960591b6044820152606401610851565b5060131936013560601c90565b60005b8181101561399b5760008383838181106134a2576134a2614656565b90506020028101906134b491906149cc565b6134c29060208101906149e2565b905060001963ffffffff8216016135b6576000808585858181106134e8576134e8614656565b90506020028101906134fa91906149cc565b613508906040810190614a08565b81019061351591906145e8565b9150915085858581811061352b5761352b614656565b905060200281019061353d91906149cc565b61354e906040810190602001613da3565b6001600160a01b03166362aa52878884846040518463ffffffff1660e01b815260040161357d93929190614718565b600060405180830381600087803b15801561359757600080fd5b505af11580156135ab573d6000803e3d6000fd5b50505050505061398a565b60011963ffffffff8216016136c05760008060008686868181106135dc576135dc614656565b90506020028101906135ee91906149cc565b6135fc906040810190614a08565b8101906136099190614a4e565b92509250925086868681811061362157613621614656565b905060200281019061363391906149cc565b613644906040810190602001613da3565b604051630b682aeb60e11b81526001600160a01b038a81166004830152858116602483015284811660448301526064820184905291909116906316d055d690608401600060405180830381600087803b1580156136a057600080fd5b505af11580156136b4573d6000803e3d6000fd5b5050505050505061398a565b60641963ffffffff8216016137b5578383838181106136e1576136e1614656565b90506020028101906136f391906149cc565b613704906040810190602001613da3565b6001600160a01b031663ca7894648686868681811061372557613725614656565b905060200281019061373791906149cc565b613745906040810190614a08565b81019061375291906143df565b6040516001600160e01b031960e085901b1681526001600160a01b0390921660048301526024820152604401600060405180830381600087803b15801561379857600080fd5b505af11580156137ac573d6000803e3d6000fd5b5050505061398a565b60651963ffffffff82160161381a578383838181106137d6576137d6614656565b90506020028101906137e891906149cc565b6137f9906040810190602001613da3565b6001600160a01b031663245887fc8686868681811061372557613725614656565b60c81963ffffffff8216016138b75760008085858581811061383e5761383e614656565b905060200281019061385091906149cc565b61385e906040810190614a08565b81019061386b9190614a8f565b915091506138af8787878781811061388557613885614656565b905060200281019061389791906149cc565b6138a8906040810190602001613da3565b8484612c83565b50505061398a565b60c91963ffffffff8216016139715761396b858585858181106138dc576138dc614656565b90506020028101906138ee91906149cc565b6138ff906040810190602001613da3565b86868681811061391157613911614656565b905060200281019061392391906149cc565b613931906040810190614a08565b8080601f016020809104026020016040519081016040528093929190818152602001838380828437600092019190915250612a4892505050565b5061398a565b60405163b477011560e01b815260040160405180910390fd5b50613994816147ee565b9050613486565b50505050565b3233036139c45760405163a85ba64f60e01b815260026004820152602401610851565b80156139f057813b80156139ee5760405163a85ba64f60e01b815260016004820152602401610851565b505b64ff000080ff198316151580613a07575060ff8316155b80613a155750618000831615155b15613a3357604051633d3200a960e21b815260040160405180910390fd5b6001600160a01b03821660009081526004602052604090205415613a6a576040516301b0a93560e01b815260040160405180910390fd5b60408051602080820183528582526001600160a01b038516600081815260049092528382209251909255915190917f0d540ad8f39e07d19909687352b9fa017405d93c91a6760981fbae9cf28bfef791a2505050565b6000600482511015613b145760405162461bcd60e51b815260206004820152601b60248201527f43616c6c5574696c733a20696e76616c69642063616c6c4461746100000000006044820152606401610851565b506020015190565b60008282604051602001613b31929190614ae8565b60405160208183030381529060405280519060200120905092915050565b6040805160208101829052603960608201527f6f72672e7375706572666c7569642d66696e616e63652e7375706572666c756960808201527f642e61707057686974654c697374696e672e666163746f72790000000000000060a08201526001600160a01b0383169181019190915260009060c0016133fe565b815180830151606091908015613bf2576040516367e9985b60e01b815260040160405180910390fd5b50601f1981018452825184908481613c0981613c80565b613c139190614643565b6001600160401b03811115613c2a57613c2a613f16565b6040519080825280601f01601f191660200182016040528015613c54576020820181803683370190505b50604051602001613c689493929190614b6d565b60405160208183030381529060405291505092915050565b60008082601f1611613c93576000613c96565b60015b60ff16613ca4602084614823565b613cae9190614845565b610dda906020614bbc565b60006001600160801b03821115613d225760405162461bcd60e51b815260206004820152602760248201527f53616665436173743a2076616c756520646f65736e27742066697420696e20316044820152663238206269747360c81b6064820152608401610851565b5090565b61024a80614bdc83390190565b604080516101608101825260008082526020820181905291810182905260608082018390526080820183905260a082015260c0810182905260e081018290526101008101829052610120810182905261014081019190915290565b6001600160a01b038116811461110d57600080fd5b600060208284031215613db557600080fd5b8135613dc081613d8e565b9392505050565b60008083601f840112613dd957600080fd5b5081356001600160401b03811115613df057600080fd5b602083019150836020828501011115613e0857600080fd5b9250929050565b801515811461110d57600080fd5b60008060008060008060808789031215613e3657600080fd5b8635613e4181613d8e565b955060208701356001600160401b0380821115613e5d57600080fd5b613e698a838b01613dc7565b909750955060408901359150613e7e82613e0f565b90935060608801359080821115613e9457600080fd5b50613ea189828a01613dc7565b979a9699509497509295939492505050565b60005b83811015613ece578181015183820152602001613eb6565b50506000910152565b60008151808452613eef816020860160208601613eb3565b601f01601f19169290920160200192915050565b602081526000610dd76020830184613ed7565b634e487b7160e01b600052604160045260246000fd5b604051601f8201601f191681016001600160401b0381118282101715613f5457613f54613f16565b604052919050565b60006001600160401b03821115613f7557613f75613f16565b50601f01601f191660200190565b600082601f830112613f9457600080fd5b8135613fa7613fa282613f5c565b613f2c565b818152846020838601011115613fbc57600080fd5b816020850160208301376000918101602001919091529392505050565b60008060408385031215613fec57600080fd5b8235613ff781613d8e565b915060208301356001600160401b0381111561401257600080fd5b61401e85828601613f83565b9150509250929050565b60008060006060848603121561403d57600080fd5b833561404881613d8e565b925060208401356001600160401b038082111561406457600080fd5b61407087838801613f83565b9350604086013591508082111561408657600080fd5b5061409386828701613f83565b9150509250925092565b6000602082840312156140af57600080fd5b81356001600160401b038111156140c557600080fd5b610dee84828501613f83565b602081526140e560208201835160ff169052565b600060208301516140fb604084018260ff169052565b5060408301516060830152606083015161412060808401826001600160a01b03169052565b5060808301516001600160e01b0319811660a08401525060a08301516101608060c0850152614153610180850183613ed7565b915060c085015160e085015260e0850151610100818187015280870151915050610120818187015280870151915050610140614199818701836001600160a01b03169052565b909501516001600160a01b031693019290925250919050565b60008060008060008060006080888a0312156141cd57600080fd5b87356141d881613d8e565b965060208801356001600160401b03808211156141f457600080fd5b6142008b838c01613dc7565b909850965060408a013591508082111561421957600080fd5b6142258b838c01613dc7565b909650945060608a013591508082111561423e57600080fd5b5061424b8a828b01613dc7565b989b979a50959850939692959293505050565b6040815260006142716040830185613ed7565b8281036020840152611c978185613ed7565b60008060006040848603121561429857600080fd5b83356001600160401b038111156142ae57600080fd5b6142ba86828701613dc7565b909790965060209590950135949350505050565b600080602083850312156142e157600080fd5b82356001600160401b03808211156142f857600080fd5b818501915085601f83011261430c57600080fd5b81358181111561431b57600080fd5b8660208260051b850101111561433057600080fd5b60209290920196919550909350505050565b60008060008060008060a0878903121561435b57600080fd5b86356001600160401b0381111561437157600080fd5b61437d89828a01613dc7565b909750955050602087013561439181613d8e565b9350604087013592506060870135915060808701356143af81613d8e565b809150509295509295509295565b600080604083850312156143d057600080fd5b50508035926020909101359150565b6000602082840312156143f157600080fd5b5035919050565b6000806000806060858703121561440e57600080fd5b84356001600160401b0381111561442457600080fd5b61443087828801613dc7565b909550935050602085013561444481613d8e565b9396929550929360400135925050565b60008060008060006060868803121561446c57600080fd5b853561447781613d8e565b945060208601356001600160401b038082111561449357600080fd5b61449f89838a01613dc7565b909650945060408801359150808211156144b857600080fd5b506144c588828901613dc7565b969995985093965092949392505050565b600080604083850312156144e957600080fd5b82356144f481613d8e565b9150602083013561450481613d8e565b809150509250929050565b60008060006040848603121561452457600080fd5b8335925060208401356001600160401b0381111561454157600080fd5b61454d86828701613dc7565b9497909650939450505050565b6000806020838503121561456d57600080fd5b82356001600160401b0381111561458357600080fd5b61458f85828601613dc7565b90969095509350505050565b6020808252825182820181905260009190848201906040850190845b818110156145dc5783516001600160a01b0316835292840192918401916001016145b7565b50909695505050505050565b600080604083850312156145fb57600080fd5b823561460681613d8e565b946020939093013593505050565b60006020828403121561462657600080fd5b5051919050565b634e487b7160e01b600052601160045260246000fd5b81810381811115610dda57610dda61462d565b634e487b7160e01b600052603260045260246000fd5b634e487b7160e01b600052600160045260246000fd5b600082601f83011261469357600080fd5b81516146a1613fa282613f5c565b8181528460208386010111156146b657600080fd5b610dee826020830160208701613eb3565b6000602082840312156146d957600080fd5b81516001600160401b038111156146ef57600080fd5b610dee84828501614682565b60006020828403121561470d57600080fd5b8151613dc081613e0f565b6001600160a01b039384168152919092166020820152604081019190915260600190565b808201828112600083128015821682158216171561475c5761475c61462d565b505092915050565b600060ff821660ff810361477a5761477a61462d565b60010192915050565b60006020828403121561479557600080fd5b8151613dc081613d8e565b6020808252602e908201527f496e697469616c697a61626c653a20636f6e747261637420697320616c72656160408201526d191e481a5b9a5d1a585b1a5e995960921b606082015260800190565b6000600182016148005761480061462d565b5060010190565b60008251614819818460208701613eb3565b9190910192915050565b60008261484057634e487b7160e01b600052601260045260246000fd5b500490565b80820180821115610dda57610dda61462d565b6000806040838503121561486b57600080fd5b82516001600160401b038082111561488257600080fd5b61488e86838701614682565b935060208501519150808211156148a457600080fd5b5061401e85828601614682565b600080600080600060a086880312156148c957600080fd5b855194506020860151935060408601516148e281613d8e565b60608701519093506001600160e01b03198116811461490057600080fd5b60808701519092506001600160401b0381111561491c57600080fd5b61492888828901614682565b9150509295509295909350565b6000806000806080858703121561494b57600080fd5b8451935060208501519250604085015161496481613d8e565b606086015190925061497581613d8e565b939692955090935050565b858152602081018590526001600160a01b03841660408201526001600160e01b03198316606082015260a0608082018190526000906149c190830184613ed7565b979650505050505050565b60008235605e1983360301811261481957600080fd5b6000602082840312156149f457600080fd5b813563ffffffff81168114613dc057600080fd5b6000808335601e19843603018112614a1f57600080fd5b8301803591506001600160401b03821115614a3957600080fd5b602001915036819003821315613e0857600080fd5b600080600060608486031215614a6357600080fd5b8335614a6e81613d8e565b92506020840135614a7e81613d8e565b929592945050506040919091013590565b60008060408385031215614aa257600080fd5b82356001600160401b0380821115614ab957600080fd5b614ac586838701613f83565b93506020850135915080821115614adb57600080fd5b5061401e85828601613f83565b60608152604160608201527f6f72672e7375706572666c7569642d66696e616e63652e7375706572666c756960808201527f642e61707057686974654c697374696e672e726567697374726174696f6e4b6560a0820152607960f81b60c082015260018060a01b038316602082015260e060408201526000610dee60e0830184613ed7565b600085516020614b808285838b01613eb3565b81840191508682528551614b9981838501848a01613eb3565b8551920191614bad81838501848901613eb3565b91909101019695505050505050565b6000816000190483118215151615614bd657614bd661462d565b50029056fe608060405234801561001057600080fd5b5061022a806100206000396000f3fe6080604052600436106100225760003560e01c80634a0687ef1461003957610031565b366100315761002f610059565b005b61002f610059565b34801561004557600080fd5b5061002f6100543660046101c4565b61006b565b610069610064610171565b6101a0565b565b6001600160a01b0381166100c65760405162461bcd60e51b815260206004820152601760248201527f5555505350726f78793a207a65726f206164647265737300000000000000000060448201526064015b60405180910390fd5b60006100f07f360894a13ba1a3210667c828492db98dca3e2076cc3735a920a3ca505d382bbc5490565b6001600160a01b0316146101465760405162461bcd60e51b815260206004820152601e60248201527f5555505350726f78793a20616c726561647920696e697469616c697a6564000060448201526064016100bd565b61016e817f360894a13ba1a3210667c828492db98dca3e2076cc3735a920a3ca505d382bbc55565b50565b600061019b7f360894a13ba1a3210667c828492db98dca3e2076cc3735a920a3ca505d382bbc5490565b905090565b3660008037600080366000845af43d6000803e8080156101bf573d6000f35b3d6000fd5b6000602082840312156101d657600080fd5b81356001600160a01b03811681146101ed57600080fd5b939250505056fea2646970667358221220a57ba740f90bd95782f6bee62bc339294c451bcd144bb411f8501e4b1f093d3864736f6c63430008100033a2646970667358221220b32e042de30ec3efdd0e69d1ef2c2561251a870a2c54bc429e3f152f1a0867b864736f6c63430008100033",
    "linkReferences": {}
  },
  "methodIdentifiers": {
    "APP_WHITE_LISTING_ENABLED()": "9d297e30",
    "CALLBACK_GAS_LIMIT()": "33d608f1",
    "NON_UPGRADABLE_DEPLOYMENT()": "cd312ec4",
    "addToAgreementClassesBitmap(uint256,bytes32)": "bced3ddc",
    "allowCompositeApp(address)": "57121e0c",
    "appCallbackPop(bytes,int256)": "989b0c3e",
    "appCallbackPush(bytes,address,uint256,int256,address)": "768fabb0",
    "batchCall((uint32,address,bytes)[])": "6ad3ca7d",
    "callAgreement(address,bytes,bytes)": "39255d5b",
    "callAgreementWithContext(address,bytes,bytes,bytes)": "4329d293",
    "callAppAction(address,bytes)": "1e855cf3",
    "callAppActionWithContext(address,bytes,bytes)": "ba48b5f8",
    "callAppAfterCallback(address,bytes,bool,bytes)": "1e6d0a84",
    "callAppBeforeCallback(address,bytes,bool,bytes)": "74041e02",
    "castrate()": "9903ad38",
    "ctxUseCredit(bytes,int256)": "59a29141",
    "decodeCtx(bytes)": "3f6c923a",
    "forwardBatchCall((uint32,address,bytes)[])": "670e77e3",
    "getAgreementClass(bytes32)": "b6d200de",
    "getAppCallbackLevel(address)": "9378fa13",
    "getAppManifest(address)": "f9f522f4",
    "getCodeAddress()": "50d75d25",
    "getGovernance()": "289b3c0d",
    "getNow()": "bbe4fd50",
    "getSuperTokenFactory()": "731aed6e",
    "getSuperTokenFactoryLogic()": "f2e55caf",
    "initialize(address)": "c4d66de8",
    "isAgreementClassListed(address)": "8ca48484",
    "isAgreementTypeListed(bytes32)": "e8dccb7d",
    "isApp(address)": "3ca3ad4e",
    "isAppJailed(address)": "6b4f3335",
    "isCompositeAppAllowed(address,address)": "bb84cfa1",
    "isCtxValid(bytes)": "bf428734",
    "isTrustedForwarder(address)": "572b6c05",
    "jailApp(bytes,address,uint256)": "b724211e",
    "mapAgreementClasses(uint256)": "c56a069d",
    "proxiableUUID()": "52d1902d",
    "registerAgreementClass(address)": "15a024e1",
    "registerApp(uint256)": "ad3915c8",
    "registerAppByFactory(address,uint256)": "f3733052",
    "registerAppWithKey(uint256,string)": "bd1c448b",
    "removeFromAgreementClassesBitmap(uint256,bytes32)": "a5dbbbcd",
    "replaceGovernance(address)": "7283100c",
    "updateAgreementClass(address)": "06cecba8",
    "updateCode(address)": "46951954",
    "updateSuperTokenFactory(address)": "54fbc493",
    "updateSuperTokenLogic(address)": "787afde7",
    "versionRecipient()": "486ff0cd"
  },
  "id": 75
}