{
  "abi": [
    {
      "inputs": [
        {
          "internalType": "contract ISuperfluid",
          "name": "host",
          "type": "address"
        },
        {
          "internalType": "contract IConstantFlowAgreementHook",
          "name": "_hookAddress",
          "type": "address"
        }
      ],
      "stateMutability": "nonpayable",
      "type": "constructor"
    },
    {
      "inputs": [
        {
          "internalType": "uint256",
          "name": "_code",
          "type": "uint256"
        }
      ],
      "name": "ALREADY_EXISTS",
      "type": "error"
    },
    {
      "inputs": [
        {
          "internalType": "uint256",
          "name": "_code",
          "type": "uint256"
        }
      ],
      "name": "APP_RULE",
      "type": "error"
    },
    {
      "inputs": [],
      "name": "CFA_ACL_FLOW_RATE_ALLOWANCE_EXCEEDED",
      "type": "error"
    },
    {
      "inputs": [],
      "name": "CFA_ACL_NO_NEGATIVE_ALLOWANCE",
      "type": "error"
    },
    {
      "inputs": [],
      "name": "CFA_ACL_NO_SENDER_CREATE",
      "type": "error"
    },
    {
      "inputs": [],
      "name": "CFA_ACL_NO_SENDER_FLOW_OPERATOR",
      "type": "error"
    },
    {
      "inputs": [],
      "name": "CFA_ACL_NO_SENDER_UPDATE",
      "type": "error"
    },
    {
      "inputs": [],
      "name": "CFA_ACL_OPERATOR_NO_CREATE_PERMISSIONS",
      "type": "error"
    },
    {
      "inputs": [],
      "name": "CFA_ACL_OPERATOR_NO_DELETE_PERMISSIONS",
      "type": "error"
    },
    {
      "inputs": [],
      "name": "CFA_ACL_OPERATOR_NO_UPDATE_PERMISSIONS",
      "type": "error"
    },
    {
      "inputs": [],
      "name": "CFA_ACL_UNCLEAN_PERMISSIONS",
      "type": "error"
    },
    {
      "inputs": [],
      "name": "CFA_DEPOSIT_TOO_BIG",
      "type": "error"
    },
    {
      "inputs": [],
      "name": "CFA_FLOW_RATE_TOO_BIG",
      "type": "error"
    },
    {
      "inputs": [],
      "name": "CFA_INVALID_FLOW_RATE",
      "type": "error"
    },
    {
      "inputs": [],
      "name": "CFA_NON_CRITICAL_SENDER",
      "type": "error"
    },
    {
      "inputs": [],
      "name": "CFA_NO_SELF_FLOW",
      "type": "error"
    },
    {
      "inputs": [
        {
          "internalType": "uint256",
          "name": "_code",
          "type": "uint256"
        }
      ],
      "name": "DOES_NOT_EXIST",
      "type": "error"
    },
    {
      "inputs": [
        {
          "internalType": "uint256",
          "name": "_code",
          "type": "uint256"
        }
      ],
      "name": "INSUFFICIENT_BALANCE",
      "type": "error"
    },
    {
      "inputs": [
        {
          "internalType": "uint256",
          "name": "_code",
          "type": "uint256"
        }
      ],
      "name": "ONLY_HOST",
      "type": "error"
    },
    {
      "inputs": [
        {
          "internalType": "uint256",
          "name": "_code",
          "type": "uint256"
        }
      ],
      "name": "ZERO_ADDRESS",
      "type": "error"
    },
    {
      "anonymous": false,
      "inputs": [
        {
          "indexed": false,
          "internalType": "bytes32",
          "name": "uuid",
          "type": "bytes32"
        },
        {
          "indexed": false,
          "internalType": "address",
          "name": "codeAddress",
          "type": "address"
        }
      ],
      "name": "CodeUpdated",
      "type": "event"
    },
    {
      "anonymous": false,
      "inputs": [
        {
          "indexed": true,
          "internalType": "contract ISuperfluidToken",
          "name": "token",
          "type": "address"
        },
        {
          "indexed": true,
          "internalType": "address",
          "name": "sender",
          "type": "address"
        },
        {
          "indexed": true,
          "internalType": "address",
          "name": "flowOperator",
          "type": "address"
        },
        {
          "indexed": false,
          "internalType": "uint8",
          "name": "permissions",
          "type": "uint8"
        },
        {
          "indexed": false,
          "internalType": "int96",
          "name": "flowRateAllowance",
          "type": "int96"
        }
      ],
      "name": "FlowOperatorUpdated",
      "type": "event"
    },
    {
      "anonymous": false,
      "inputs": [
        {
          "indexed": true,
          "internalType": "contract ISuperfluidToken",
          "name": "token",
          "type": "address"
        },
        {
          "indexed": true,
          "internalType": "address",
          "name": "sender",
          "type": "address"
        },
        {
          "indexed": true,
          "internalType": "address",
          "name": "receiver",
          "type": "address"
        },
        {
          "indexed": false,
          "internalType": "int96",
          "name": "flowRate",
          "type": "int96"
        },
        {
          "indexed": false,
          "internalType": "int256",
          "name": "totalSenderFlowRate",
          "type": "int256"
        },
        {
          "indexed": false,
          "internalType": "int256",
          "name": "totalReceiverFlowRate",
          "type": "int256"
        },
        {
          "indexed": false,
          "internalType": "bytes",
          "name": "userData",
          "type": "bytes"
        }
      ],
      "name": "FlowUpdated",
      "type": "event"
    },
    {
      "anonymous": false,
      "inputs": [
        {
          "indexed": true,
          "internalType": "address",
          "name": "flowOperator",
          "type": "address"
        },
        {
          "indexed": false,
          "internalType": "uint256",
          "name": "deposit",
          "type": "uint256"
        }
      ],
      "name": "FlowUpdatedExtension",
      "type": "event"
    },
    {
      "anonymous": false,
      "inputs": [
        {
          "indexed": false,
          "internalType": "uint8",
          "name": "version",
          "type": "uint8"
        }
      ],
      "name": "Initialized",
      "type": "event"
    },
    {
      "inputs": [],
      "name": "DEFAULT_MINIMUM_DEPOSIT",
      "outputs": [
        {
          "internalType": "uint256",
          "name": "",
          "type": "uint256"
        }
      ],
      "stateMutability": "view",
      "type": "function"
    },
    {
      "inputs": [],
      "name": "MAXIMUM_DEPOSIT",
      "outputs": [
        {
          "internalType": "uint256",
          "name": "",
          "type": "uint256"
        }
      ],
      "stateMutability": "view",
      "type": "function"
    },
    {
      "inputs": [],
      "name": "MAXIMUM_FLOW_RATE",
      "outputs": [
        {
          "internalType": "uint256",
          "name": "",
          "type": "uint256"
        }
      ],
      "stateMutability": "view",
      "type": "function"
    },
    {
      "inputs": [],
      "name": "agreementType",
      "outputs": [
        {
          "internalType": "bytes32",
          "name": "",
          "type": "bytes32"
        }
      ],
      "stateMutability": "pure",
      "type": "function"
    },
    {
      "inputs": [
        {
          "internalType": "contract ISuperfluidToken",
          "name": "token",
          "type": "address"
        },
        {
          "internalType": "address",
          "name": "flowOperator",
          "type": "address"
        },
        {
          "internalType": "bytes",
          "name": "ctx",
          "type": "bytes"
        }
      ],
      "name": "authorizeFlowOperatorWithFullControl",
      "outputs": [
        {
          "internalType": "bytes",
          "name": "newCtx",
          "type": "bytes"
        }
      ],
      "stateMutability": "nonpayable",
      "type": "function"
    },
    {
      "inputs": [],
      "name": "castrate",
      "outputs": [],
      "stateMutability": "nonpayable",
      "type": "function"
    },
    {
      "inputs": [],
      "name": "constantFlowAgreementHook",
      "outputs": [
        {
          "internalType": "contract IConstantFlowAgreementHook",
          "name": "",
          "type": "address"
        }
      ],
      "stateMutability": "view",
      "type": "function"
    },
    {
      "inputs": [
        {
          "internalType": "contract ISuperfluidToken",
          "name": "token",
          "type": "address"
        },
        {
          "internalType": "address",
          "name": "receiver",
          "type": "address"
        },
        {
          "internalType": "int96",
          "name": "flowRate",
          "type": "int96"
        },
        {
          "internalType": "bytes",
          "name": "ctx",
          "type": "bytes"
        }
      ],
      "name": "createFlow",
      "outputs": [
        {
          "internalType": "bytes",
          "name": "newCtx",
          "type": "bytes"
        }
      ],
      "stateMutability": "nonpayable",
      "type": "function"
    },
    {
      "inputs": [
        {
          "internalType": "contract ISuperfluidToken",
          "name": "token",
          "type": "address"
        },
        {
          "internalType": "address",
          "name": "sender",
          "type": "address"
        },
        {
          "internalType": "address",
          "name": "receiver",
          "type": "address"
        },
        {
          "internalType": "int96",
          "name": "flowRate",
          "type": "int96"
        },
        {
          "internalType": "bytes",
          "name": "ctx",
          "type": "bytes"
        }
      ],
      "name": "createFlowByOperator",
      "outputs": [
        {
          "internalType": "bytes",
          "name": "newCtx",
          "type": "bytes"
        }
      ],
      "stateMutability": "nonpayable",
      "type": "function"
    },
    {
      "inputs": [
        {
          "internalType": "contract ISuperfluidToken",
          "name": "token",
          "type": "address"
        },
        {
          "internalType": "address",
          "name": "sender",
          "type": "address"
        },
        {
          "internalType": "address",
          "name": "receiver",
          "type": "address"
        },
        {
          "internalType": "bytes",
          "name": "ctx",
          "type": "bytes"
        }
      ],
      "name": "deleteFlow",
      "outputs": [
        {
          "internalType": "bytes",
          "name": "newCtx",
          "type": "bytes"
        }
      ],
      "stateMutability": "nonpayable",
      "type": "function"
    },
    {
      "inputs": [
        {
          "internalType": "contract ISuperfluidToken",
          "name": "token",
          "type": "address"
        },
        {
          "internalType": "address",
          "name": "sender",
          "type": "address"
        },
        {
          "internalType": "address",
          "name": "receiver",
          "type": "address"
        },
        {
          "internalType": "bytes",
          "name": "ctx",
          "type": "bytes"
        }
      ],
      "name": "deleteFlowByOperator",
      "outputs": [
        {
          "internalType": "bytes",
          "name": "newCtx",
          "type": "bytes"
        }
      ],
      "stateMutability": "nonpayable",
      "type": "function"
    },
    {
      "inputs": [
        {
          "internalType": "contract ISuperfluidToken",
          "name": "token",
          "type": "address"
        },
        {
          "internalType": "address",
          "name": "account",
          "type": "address"
        }
      ],
      "name": "getAccountFlowInfo",
      "outputs": [
        {
          "internalType": "uint256",
          "name": "timestamp",
          "type": "uint256"
        },
        {
          "internalType": "int96",
          "name": "flowRate",
          "type": "int96"
        },
        {
          "internalType": "uint256",
          "name": "deposit",
          "type": "uint256"
        },
        {
          "internalType": "uint256",
          "name": "owedDeposit",
          "type": "uint256"
        }
      ],
      "stateMutability": "view",
      "type": "function"
    },
    {
      "inputs": [],
      "name": "getCodeAddress",
      "outputs": [
        {
          "internalType": "address",
          "name": "codeAddress",
          "type": "address"
        }
      ],
      "stateMutability": "view",
      "type": "function"
    },
    {
      "inputs": [
        {
          "internalType": "contract ISuperfluidToken",
          "name": "token",
          "type": "address"
        },
        {
          "internalType": "int96",
          "name": "flowRate",
          "type": "int96"
        }
      ],
      "name": "getDepositRequiredForFlowRate",
      "outputs": [
        {
          "internalType": "uint256",
          "name": "deposit",
          "type": "uint256"
        }
      ],
      "stateMutability": "view",
      "type": "function"
    },
    {
      "inputs": [
        {
          "internalType": "contract ISuperfluidToken",
          "name": "token",
          "type": "address"
        },
        {
          "internalType": "address",
          "name": "sender",
          "type": "address"
        },
        {
          "internalType": "address",
          "name": "receiver",
          "type": "address"
        }
      ],
      "name": "getFlow",
      "outputs": [
        {
          "internalType": "uint256",
          "name": "timestamp",
          "type": "uint256"
        },
        {
          "internalType": "int96",
          "name": "flowRate",
          "type": "int96"
        },
        {
          "internalType": "uint256",
          "name": "deposit",
          "type": "uint256"
        },
        {
          "internalType": "uint256",
          "name": "owedDeposit",
          "type": "uint256"
        }
      ],
      "stateMutability": "view",
      "type": "function"
    },
    {
      "inputs": [
        {
          "internalType": "contract ISuperfluidToken",
          "name": "token",
          "type": "address"
        },
        {
          "internalType": "bytes32",
          "name": "flowId",
          "type": "bytes32"
        }
      ],
      "name": "getFlowByID",
      "outputs": [
        {
          "internalType": "uint256",
          "name": "timestamp",
          "type": "uint256"
        },
        {
          "internalType": "int96",
          "name": "flowRate",
          "type": "int96"
        },
        {
          "internalType": "uint256",
          "name": "deposit",
          "type": "uint256"
        },
        {
          "internalType": "uint256",
          "name": "owedDeposit",
          "type": "uint256"
        }
      ],
      "stateMutability": "view",
      "type": "function"
    },
    {
      "inputs": [
        {
          "internalType": "contract ISuperfluidToken",
          "name": "token",
          "type": "address"
        },
        {
          "internalType": "address",
          "name": "sender",
          "type": "address"
        },
        {
          "internalType": "address",
          "name": "flowOperator",
          "type": "address"
        }
      ],
      "name": "getFlowOperatorData",
      "outputs": [
        {
          "internalType": "bytes32",
          "name": "flowOperatorId",
          "type": "bytes32"
        },
        {
          "internalType": "uint8",
          "name": "permissions",
          "type": "uint8"
        },
        {
          "internalType": "int96",
          "name": "flowRateAllowance",
          "type": "int96"
        }
      ],
      "stateMutability": "view",
      "type": "function"
    },
    {
      "inputs": [
        {
          "internalType": "contract ISuperfluidToken",
          "name": "token",
          "type": "address"
        },
        {
          "internalType": "bytes32",
          "name": "flowOperatorId",
          "type": "bytes32"
        }
      ],
      "name": "getFlowOperatorDataByID",
      "outputs": [
        {
          "internalType": "uint8",
          "name": "permissions",
          "type": "uint8"
        },
        {
          "internalType": "int96",
          "name": "flowRateAllowance",
          "type": "int96"
        }
      ],
      "stateMutability": "view",
      "type": "function"
    },
    {
      "inputs": [
        {
          "internalType": "contract ISuperfluidToken",
          "name": "token",
          "type": "address"
        },
        {
          "internalType": "uint256",
          "name": "deposit",
          "type": "uint256"
        }
      ],
      "name": "getMaximumFlowRateFromDeposit",
      "outputs": [
        {
          "internalType": "int96",
          "name": "flowRate",
          "type": "int96"
        }
      ],
      "stateMutability": "view",
      "type": "function"
    },
    {
      "inputs": [
        {
          "internalType": "contract ISuperfluidToken",
          "name": "token",
          "type": "address"
        },
        {
          "internalType": "address",
          "name": "account",
          "type": "address"
        }
      ],
      "name": "getNetFlow",
      "outputs": [
        {
          "internalType": "int96",
          "name": "flowRate",
          "type": "int96"
        }
      ],
      "stateMutability": "view",
      "type": "function"
    },
    {
      "inputs": [
        {
          "internalType": "contract ISuperfluidToken",
          "name": "token",
          "type": "address"
        },
        {
          "internalType": "address",
          "name": "account",
          "type": "address"
        },
        {
          "internalType": "uint256",
          "name": "timestamp",
          "type": "uint256"
        }
      ],
      "name": "isPatricianPeriod",
      "outputs": [
        {
          "internalType": "bool",
          "name": "",
          "type": "bool"
        }
      ],
      "stateMutability": "view",
      "type": "function"
    },
    {
      "inputs": [
        {
          "internalType": "contract ISuperfluidToken",
          "name": "token",
          "type": "address"
        },
        {
          "internalType": "address",
          "name": "account",
          "type": "address"
        }
      ],
      "name": "isPatricianPeriodNow",
      "outputs": [
        {
          "internalType": "bool",
          "name": "isCurrentlyPatricianPeriod",
          "type": "bool"
        },
        {
          "internalType": "uint256",
          "name": "timestamp",
          "type": "uint256"
        }
      ],
      "stateMutability": "view",
      "type": "function"
    },
    {
      "inputs": [],
      "name": "proxiableUUID",
      "outputs": [
        {
          "internalType": "bytes32",
          "name": "",
          "type": "bytes32"
        }
      ],
      "stateMutability": "view",
      "type": "function"
    },
    {
      "inputs": [
        {
          "internalType": "contract ISuperfluidToken",
          "name": "token",
          "type": "address"
        },
        {
          "internalType": "address",
          "name": "account",
          "type": "address"
        },
        {
          "internalType": "uint256",
          "name": "time",
          "type": "uint256"
        }
      ],
      "name": "realtimeBalanceOf",
      "outputs": [
        {
          "internalType": "int256",
          "name": "dynamicBalance",
          "type": "int256"
        },
        {
          "internalType": "uint256",
          "name": "deposit",
          "type": "uint256"
        },
        {
          "internalType": "uint256",
          "name": "owedDeposit",
          "type": "uint256"
        }
      ],
      "stateMutability": "view",
      "type": "function"
    },
    {
      "inputs": [
        {
          "internalType": "contract ISuperfluidToken",
          "name": "token",
          "type": "address"
        },
        {
          "internalType": "address",
          "name": "flowOperator",
          "type": "address"
        },
        {
          "internalType": "bytes",
          "name": "ctx",
          "type": "bytes"
        }
      ],
      "name": "revokeFlowOperatorWithFullControl",
      "outputs": [
        {
          "internalType": "bytes",
          "name": "newCtx",
          "type": "bytes"
        }
      ],
      "stateMutability": "nonpayable",
      "type": "function"
    },
    {
      "inputs": [
        {
          "internalType": "address",
          "name": "newAddress",
          "type": "address"
        }
      ],
      "name": "updateCode",
      "outputs": [],
      "stateMutability": "nonpayable",
      "type": "function"
    },
    {
      "inputs": [
        {
          "internalType": "contract ISuperfluidToken",
          "name": "token",
          "type": "address"
        },
        {
          "internalType": "address",
          "name": "receiver",
          "type": "address"
        },
        {
          "internalType": "int96",
          "name": "flowRate",
          "type": "int96"
        },
        {
          "internalType": "bytes",
          "name": "ctx",
          "type": "bytes"
        }
      ],
      "name": "updateFlow",
      "outputs": [
        {
          "internalType": "bytes",
          "name": "newCtx",
          "type": "bytes"
        }
      ],
      "stateMutability": "nonpayable",
      "type": "function"
    },
    {
      "inputs": [
        {
          "internalType": "contract ISuperfluidToken",
          "name": "token",
          "type": "address"
        },
        {
          "internalType": "address",
          "name": "sender",
          "type": "address"
        },
        {
          "internalType": "address",
          "name": "receiver",
          "type": "address"
        },
        {
          "internalType": "int96",
          "name": "flowRate",
          "type": "int96"
        },
        {
          "internalType": "bytes",
          "name": "ctx",
          "type": "bytes"
        }
      ],
      "name": "updateFlowByOperator",
      "outputs": [
        {
          "internalType": "bytes",
          "name": "newCtx",
          "type": "bytes"
        }
      ],
      "stateMutability": "nonpayable",
      "type": "function"
    },
    {
      "inputs": [
        {
          "internalType": "contract ISuperfluidToken",
          "name": "token",
          "type": "address"
        },
        {
          "internalType": "address",
          "name": "flowOperator",
          "type": "address"
        },
        {
          "internalType": "uint8",
          "name": "permissions",
          "type": "uint8"
        },
        {
          "internalType": "int96",
          "name": "flowRateAllowance",
          "type": "int96"
        },
        {
          "internalType": "bytes",
          "name": "ctx",
          "type": "bytes"
        }
      ],
      "name": "updateFlowOperatorPermissions",
      "outputs": [
        {
          "internalType": "bytes",
          "name": "newCtx",
          "type": "bytes"
        }
      ],
      "stateMutability": "nonpayable",
      "type": "function"
    }
  ],
  "bytecode": {
    "object": "0x60c06040523480156200001157600080fd5b506040516200550038038062005500833981016040819052620000349162000065565b6001600160a01b039182166080521660a052620000a4565b6001600160a01b03811681146200006257600080fd5b50565b600080604083850312156200007957600080fd5b825162000086816200004c565b602084015190925062000099816200004c565b809150509250929050565b60805160a05161540c620000f4600039600081816102d501528181611cb701528181611ce601528181612785015281816127b401528181612a190152612a480152600061076a015261540c6000f3fe608060405234801561001057600080fd5b50600436106101ce5760003560e01c806350d75d251161010457806394229ecb116100a2578063aabd266811610071578063aabd266814610483578063b4b333c614610496578063e6a1e888146104a9578063e8e7e2d1146104bc57600080fd5b806394229ecb1461043a5780639903ad381461044d5780639b2e48bc146104555780639cb28b721461030f57600080fd5b806362fc305e116100de57806362fc305e146103db5780637730599e146103ee578063811b3d40146104145780638d997f6e1461042757600080fd5b806350d75d25146103b857806352d1902d146103c057806354b770e3146103c857600080fd5b806326b0f536116101715780634b839e0b1161014b5780634b839e0b146103455780634c8b181f146103685780634fe9c2911461037b57806350209a62146103a557600080fd5b806326b0f5361461030f578063354b95901461031d578063469519541461033057600080fd5b8063062e56ec116101ad578063062e56ec1461024b57806309d256ef1461026b5780630f1ac4951461029a5780630f2f8f3c146102d057600080fd5b8062422bbe146101d357806304aafa491461020b5780630602f7db14610225575b600080fd5b6101e66101e1366004614616565b6104cf565b6040805193845260ff9092166020840152600b0b908201526060015b60405180910390f35b61021764010000000081565b604051908152602001610202565b610238610233366004614661565b610505565b604051600b9190910b8152602001610202565b61025e6102593660046146cf565b610526565b6040516102029190614784565b61027e610279366004614661565b610540565b6040805160ff9093168352600b9190910b602083015201610202565b6102ad6102a8366004614797565b610564565b60408051948552600b9390930b6020850152918301526060820152608001610202565b6102f77f000000000000000000000000000000000000000000000000000000000000000081565b6040516001600160a01b039091168152602001610202565b61021760016001605f1b0381565b61025e61032b3660046147e2565b61059a565b61034361033e36600461486e565b61075f565b005b61035861035336600461488b565b6107bd565b6040519015158152602001610202565b61025e6103763660046148cc565b610894565b61038e610389366004614797565b61097f565b604080519215158352602083019190915201610202565b61025e6103b3366004614948565b610a61565b6102f7610b34565b610217610b63565b61025e6103d63660046146cf565b610bc7565b61025e6103e9366004614948565b610bdf565b7fa9214cc96615e0085d3bb077758db69497dc2dce3b2b1e97bc93c3d18d83efd3610217565b61025e610422366004614998565b610c92565b6102176104353660046149dc565b610e8f565b61025e6104483660046147e2565b6110be565b610343611241565b61046861046336600461488b565b61134a565b60408051938452602084019290925290820152606001610202565b6102ad610491366004614661565b6113a4565b61025e6104a43660046148cc565b6113b6565b6102ad6104b7366004614616565b61144a565b6102386104ca366004614797565b611485565b60008060006104de858561149f565b925060006104ec878561150a565b8051602090910151959990985094965093945050505050565b600080610511846115cf565b50905061051e818461174a565b949350505050565b606061053785856000808787610c92565b95945050505050565b600080600061054f858561150a565b80516020909101519097909650945050505050565b6000806000806000610576878761178a565b805160208201516040830151606090930151919b909a509198509650945050505050565b606060006105de8885858080601f01602080910402602001604051908101604052809392919081815260200183838082843760009201919091525061184392505050565b9050866001600160a01b031681606001516001600160a01b0316036106165760405163edfa0d3b60e01b815260040160405180910390fd5b60008061062c8a6106278b8b611a07565b611a2f565b9150915060008060006106448d8d88606001516104cf565b925092509250610655826001611a76565b6106725760405163ac434b5f60e01b815260040160405180910390fd5b6000600b82900b60016001605f1b03148061069757508a600b0b8560200151600b0b12155b6106b95760208501516106aa908c614a27565b6106b49083614a27565b6106bb565b815b9050600081600b0b12156106e25760405163a0645c1f60e01b815260040160405180910390fd5b6106ee8e858584611ad1565b5050505061071c60408051608081018252600080825260208201819052918101829052606081019190915290565b6001600160a01b03808c1682528a8116602083015289166040820152600b88900b60608201526107508183858a8a89611b5a565b9b9a5050505050505050505050565b336001600160a01b037f000000000000000000000000000000000000000000000000000000000000000016146107b157604051632a94f67960e21b81526120d060048201526024015b60405180910390fd5b6107ba81611dd7565b50565b604051633acd4df360e21b81526001600160a01b03838116600483015260248201839052600091829186169063eb3537cc90604401606060405180830381865afa15801561080f573d6000803e3d6000fd5b505050506040513d601f19601f820116820180604052508101906108339190614a54565b505090506000811261084957600191505061088d565b600080610855876115cf565b915091506000610865888861178a565b91505060006108778260400151611fdf565b90506108858582868661204d565b955050505050505b9392505050565b606060006108d88785858080601f01602080910402602001604051908101604052809392919081815260200183838082843760009201919091525061184392505050565b905060006108eb888884606001516104cf565b5091505060006108fc826002611a76565b90508061091c5760405163e30f1bff60e01b815260040160405180910390fd5b6040805160808101825260008082526020820181905291810182905260608101919091525b6001600160a01b03808b16825289811660208301528816604082015260006060820152610971818389898861209b565b9a9950505050505050505050565b6000806000846001600160a01b03166320bc44256040518163ffffffff1660e01b8152600401602060405180830381865afa1580156109c2573d6000803e3d6000fd5b505050506040513d601f19601f820116820180604052508101906109e69190614a8d565b9050806001600160a01b031663bbe4fd506040518163ffffffff1660e01b8152600401602060405180830381865afa158015610a26573d6000803e3d6000fd5b505050506040513d601f19601f82011682018060405250810190610a4a9190614aaa565b9150610a578585846107bd565b9250509250929050565b60606000610aa58785858080601f01602080910402602001604051908101604052809392919081815260200183838082843760009201919091525061184392505050565b9050610ad160408051608081018252600080825260208201819052918101829052606081019190915290565b6001600160a01b03808916825260608084015182166020840181905291891660408401819052600b89900b91840191909152600091610b0f91611a07565b9050600080610b22846000015184611a2f565b915091506107508482848b8b8a611b5a565b6000610b5e7f360894a13ba1a3210667c828492db98dca3e2076cc3735a920a3ca505d382bbc5490565b905090565b6000306001600160a01b0316637730599e6040518163ffffffff1660e01b8152600401602060405180830381865afa158015610ba3573d6000803e3d6000fd5b505050506040513d601f19601f82011682018060405250810190610b5e9190614aaa565b60606105378585600760016001605f1b038787610c92565b60606000610c238785858080601f01602080910402602001604051908101604052809392919081815260200183838082843760009201919091525061184392505050565b9050610c4f60408051608081018252600080825260208201819052918101829052606081019190915290565b6001600160a01b038089168252606080840151821660208401529088166040830152600b87900b90820152610c86818686856128a7565b98975050505050505050565b606082828080601f016020809104026020016040519081016040528093929190818152602001838380828437600092019190915250929350610cd99250879150612b349050565b610cf657604051631e4e759b60e21b815260040160405180910390fd5b6000610d388885858080601f01602080910402602001604051908101604052809392919081815260200183838082843760009201919091525061184392505050565b9050866001600160a01b031681606001516001600160a01b031603610d705760405163b0ed394d60e01b815260040160405180910390fd5b600085600b0b1215610d95576040516386e0377d60e01b815260040160405180910390fd5b6040805180820190915260ff87168152600b86900b60208201526060820151600090610dc1908a61149f565b9050896001600160a01b031663a1b2bf8b82610ddc85612b3b565b6040518363ffffffff1660e01b8152600401610df9929190614afe565b600060405180830381600087803b158015610e1357600080fd5b505af1158015610e27573d6000803e3d6000fd5b50505060608401516040805160ff8c168152600b8b900b60208201526001600160a01b03808e169450928316928e16917fc0d5d3a6ac18cc1769788c925e6e7fc89cd47e4270a42884736fa9b3ec09f3a8910160405180910390a45050509695505050505050565b600081600b0b600003610ea4575060006110b8565b6000836001600160a01b03166320bc44256040518163ffffffff1660e01b8152600401602060405180830381865afa158015610ee4573d6000803e3d6000fd5b505050506040513d601f19601f82011682018060405250810190610f089190614a8d565b90506000816001600160a01b031663289b3c0d6040518163ffffffff1660e01b8152600401602060405180830381865afa158015610f4a573d6000803e3d6000fd5b505050506040513d601f19601f82011682018060405250810190610f6e9190614a8d565b90506000816001600160a01b03166380f70cba84887feae305fa863b373417e615b1044222e2806cefc7788d169ce6748a443c3f6cc46040518463ffffffff1660e01b8152600401610fc293929190614b17565b602060405180830381865afa158015610fdf573d6000803e3d6000fd5b505050506040513d601f19601f820116820180604052508101906110039190614aaa565b90506000826001600160a01b03166380f70cba85897fe420d96e81cb4a6b2abb2366c4f93312d4e2ae878a7d4b22e73472fdad891f786040518463ffffffff1660e01b815260040161105793929190614b17565b602060405180830381865afa158015611074573d6000803e3d6000fd5b505050506040513d601f19601f820116820180604052508101906110989190614aaa565b9050602081901c63ffffffff166110b0838289612bb1565b955050505050505b92915050565b606060006111028885858080601f01602080910402602001604051908101604052809392919081815260200183838082843760009201919091525061184392505050565b9050866001600160a01b031681606001516001600160a01b03160361113a576040516325cc989b60e11b815260040160405180910390fd5b600080600061114e8b8b86606001516104cf565b92509250925061115f826000611a76565b61117c576040516328faadab60e21b815260040160405180910390fd5b6000600b82900b60016001605f1b031461119f5761119a8983614a27565b6111a1565b815b9050600081600b0b12156111c85760405163a0645c1f60e01b815260040160405180910390fd5b6111d48c858584611ad1565b5050505061120260408051608081018252600080825260208201819052918101829052606081019190915290565b6001600160a01b03808a168252888116602083015287166040820152600b86900b6060820152611234818686856128a7565b9998505050505050505050565b600054610100900460ff16158080156112615750600054600160ff909116105b8061127b5750303b15801561127b575060005460ff166001145b6112de5760405162461bcd60e51b815260206004820152602e60248201527f496e697469616c697a61626c653a20636f6e747261637420697320616c72656160448201526d191e481a5b9a5d1a585b1a5e995960921b60648201526084016107a8565b6000805460ff191660011790558015611301576000805461ff0019166101001790555b80156107ba576000805461ff0019169055604051600181527f7f26b83ff96e1f2b6a682f133852f6798a09c465da95921460cefb3847402498906020015b60405180910390a150565b600080600080600061135c888861178a565b915091508115611399578060200151600b0b81600001518761137e9190614b3b565b6113889190614b62565b945080604001519350806060015192505b505093509350939050565b60008060008060006105768787611a2f565b606060006113fa8785858080601f01602080910402602001604051908101604052809392919081815260200183838082843760009201919091525061184392505050565b9050600061140d888884606001516104cf565b50915050600061141e826002611a76565b905061094160408051608081018252600080825260208201819052918101829052606081019190915290565b6000806000806000611460886106278989611a07565b805160208201516040830151606090930151919c909b50919950975095505050505050565b600080611492848461178a565b6020015195945050505050565b600082826040516020016114ec9291906060808252600c908201526b333637bba7b832b930ba37b960a11b60808201526001600160a01b0392831660208201529116604082015260a00190565b60405160208183030381529060405280519060200120905092915050565b6040805180820182526000808252602082018190529151636c2d9f2f60e01b8152306004820152602481018490526001604482015282906001600160a01b03861690636c2d9f2f90606401600060405180830381865afa158015611572573d6000803e3d6000fd5b505050506040513d6000823e601f3d908101601f1916820160405261159a9190810190614c58565b90506115c2816000815181106115b2576115b2614cf2565b602002602001015160001c612c24565b92509250505b9250929050565b6000806000836001600160a01b03166320bc44256040518163ffffffff1660e01b8152600401602060405180830381865afa158015611612573d6000803e3d6000fd5b505050506040513d601f19601f820116820180604052508101906116369190614a8d565b90506000816001600160a01b031663289b3c0d6040518163ffffffff1660e01b8152600401602060405180830381865afa158015611678573d6000803e3d6000fd5b505050506040513d601f19601f8201168201806040525081019061169c9190614a8d565b90506000816001600160a01b03166380f70cba84887fe420d96e81cb4a6b2abb2366c4f93312d4e2ae878a7d4b22e73472fdad891f786040518463ffffffff1660e01b81526004016116f093929190614b17565b602060405180830381865afa15801561170d573d6000803e3d6000fd5b505050506040513d601f19601f820116820180604052508101906117319190614aaa565b63ffffffff602082901c81169891169650945050505050565b600060016001605f1b0382111561177457604051631d4b0ae760e21b815260040160405180910390fd5b63ffffffff1982169150600061051e8484614d1e565b600061179461454f565b604051634b61cc3360e01b81523060048201526001600160a01b038481166024830152600060448301819052600160648401529190861690634b61cc33906084015b600060405180830381865afa1580156117f3573d6000803e3d6000fd5b505050506040513d6000823e601f3d908101601f1916820160405261181b9190810190614c58565b90506115c28160008151811061183357611833614cf2565b602002602001015160001c612c64565b61184b61457a565b336001600160a01b0316836001600160a01b03166320bc44256040518163ffffffff1660e01b8152600401602060405180830381865afa158015611893573d6000803e3d6000fd5b505050506040513d601f19601f820116820180604052508101906118b79190614a8d565b6001600160a01b0316146119015760405162461bcd60e51b81526020600482015260116024820152701d5b985d5d1a1bdc9a5e9959081a1bdcdd607a1b60448201526064016107a8565b604051632fd0a1cd60e21b8152339063bf42873490611924908590600401614784565b602060405180830381865afa158015611941573d6000803e3d6000fd5b505050506040513d601f19601f820116820180604052508101906119659190614d42565b61199f5760405162461bcd60e51b815260206004820152600b60248201526a0d2dcecc2d8d2c840c6e8f60ab1b60448201526064016107a8565b604051631fb6491d60e11b81523390633f6c923a906119c2908590600401614784565b600060405180830381865afa1580156119df573d6000803e3d6000fd5b505050506040513d6000823e601f3d908101601f1916820160405261088d9190810190614de4565b604080516001600160a01b0380851660208301528316918101919091526000906060016114ec565b6000611a3961454f565b604051636c2d9f2f60e01b815230600482015260248101849052600160448201526000906001600160a01b03861690636c2d9f2f906064016117d6565b600080826002811115611a8b57611a8b614eeb565b03611a9c57506001828116146110b8565b6001826002811115611ab057611ab0614eeb565b03611ac35750600182811c8116146110b8565b505060021c60019081161490565b6040805180820190915260ff83168152600b82900b60208201526001600160a01b03851663a1b2bf8b85611b0484612b3b565b6040518363ffffffff1660e01b8152600401611b21929190614afe565b600060405180830381600087803b158015611b3b57600080fd5b505af1158015611b4f573d6000803e3d6000fd5b505050505050505050565b60606000611b688884612cc4565b91505085611b8d57604051639995b0c160e01b81526103e960048201526024016107a8565b6040888101519051631e51d6a760e11b81526001600160a01b0390911660048201523390633ca3ad4e90602401602060405180830381865afa158015611bd7573d6000803e3d6000fd5b505050506040513d601f19601f82011682018060405250810190611bfb9190614d42565b15611c5757611c5088604001518960000151838a89898080601f0160208091040260200160405190810160405280939291908181526020018383808284376000920191909152508b925060019150612dc99050565b9150611ca2565b611c9f8860000151828988888080601f0160208091040260200160405190810160405280939291908181526020018383808284376000920191909152508a925061356f915050565b91505b611cb58860000151896020015185613642565b7f00000000000000000000000000000000000000000000000000000000000000006001600160a01b031615611dcc577f00000000000000000000000000000000000000000000000000000000000000006001600160a01b0316636ac5bc318960000151604051806080016040528085602001516001600160a01b0316815260200185604001516001600160a01b0316815260200185606001516001600160a01b031681526020018560800151600b0b8152508a602001516040518463ffffffff1660e01b8152600401611d8a93929190614f01565b6020604051808303816000875af1925050508015611dc5575060408051601f3d908101601f19168201909252611dc291810190614d42565b60015b15611dcc57505b509695505050505050565b6000611e017f360894a13ba1a3210667c828492db98dca3e2076cc3735a920a3ca505d382bbc5490565b6001600160a01b031603611e575760405162461bcd60e51b815260206004820152601d60248201527f5555505350726f786961626c653a206e6f742075706772616461626c6500000060448201526064016107a8565b806001600160a01b03166352d1902d6040518163ffffffff1660e01b8152600401602060405180830381865afa158015611e95573d6000803e3d6000fd5b505050506040513d601f19601f82011682018060405250810190611eb99190614aaa565b611ec1610b63565b14611f1a5760405162461bcd60e51b815260206004820152602360248201527f5555505350726f786961626c653a206e6f7420636f6d70617469626c65206c6f60448201526267696360e81b60648201526084016107a8565b6001600160a01b0381163003611f725760405162461bcd60e51b815260206004820152601960248201527f5555505350726f786961626c653a2070726f7879206c6f6f700000000000000060448201526064016107a8565b611f9a817f360894a13ba1a3210667c828492db98dca3e2076cc3735a920a3ca505d382bbc55565b7fe011bc04c286c344a8fcbb8de77f953da762c3e25d8cdea984147fc4168a5dcc611fc3610b63565b604080519182526001600160a01b03841660208301520161133f565b60006001600160ff1b038211156120495760405162461bcd60e51b815260206004820152602860248201527f53616665436173743a2076616c756520646f65736e27742066697420696e2061604482015267371034b73a191a9b60c11b60648201526084016107a8565b5090565b60008360000361205f5750600061051e565b600061206b8587614f60565b905060006120798587614f88565b90506120858486614fb6565b61208f8284614f88565b13979650505050505050565b6040805160c0810182526000808252602082018190529181018290526060818101839052608082019290925260a0810182905260208701516001600160a01b03166120fd5760405163e961d6ff60e01b81526105dc60048201526024016107a8565b60408701516001600160a01b031661212c5760405163e961d6ff60e01b81526105dd60048201526024016107a8565b61213e87602001518860400151611a07565b8082526020808901516001600160a01b03908116918401919091526040808a01518216908401526060808601519091169083015260006080830181905260a0808601519084015288519091829161219491611a2f565b91509150816121ba57604051639995b0c160e01b81526103e960048201526024016107a8565b885160208a01516040808801519051633acd4df360e21b81526000936001600160a01b03169263eb3537cc92612206926004016001600160a01b03929092168252602082015260400190565b606060405180830381865afa158015612223573d6000803e3d6000fd5b505050506040513d601f19601f820116820180604052508101906122479190614a54565b5050905089602001516001600160a01b031686606001516001600160a01b03161415801561228f575089604001516001600160a01b031686606001516001600160a01b031614155b8015612299575088155b156123aa5760208a0151604051636b4f333560e01b81526001600160a01b0390911660048201523390636b4f333590602401602060405180830381865afa1580156122e8573d6000803e3d6000fd5b505050506040513d601f19601f8201168201806040525081019061230c9190614d42565b158015612384575060408a8101519051636b4f333560e01b81526001600160a01b0390911660048201523390636b4f333590602401602060405180830381865afa15801561235e573d6000803e3d6000fd5b505050506040513d601f19601f820116820180604052508101906123829190614d42565b155b156123aa57600081126123aa5760405163ce11b5d160e01b815260040160405180910390fd5b60008112156123c8576123c88a600001518286858a60600151613720565b87878080601f01602080910402602001604051908101604052809392919081815260200183838082843760009201919091525050505060208b015160608801519196506001600160a01b039081169116036124be5760408a8101519051631e51d6a760e11b81526001600160a01b0390911660048201523390633ca3ad4e90602401602060405180830381865afa158015612467573d6000803e3d6000fd5b505050506040513d601f19601f8201168201806040525081019061248b9190614d42565b156124af576124a88a604001518b600001518685898b6002612dc9565b9450612783565b89516124a8908584888a61356f565b89604001516001600160a01b031686606001516001600160a01b0316036125f25760208a0151604051631e51d6a760e11b81526001600160a01b0390911660048201523390633ca3ad4e90602401602060405180830381865afa158015612529573d6000803e3d6000fd5b505050506040513d601f19601f8201168201806040525081019061254d9190614d42565b1561256a576124a88a602001518b600001518685898b6002612dc9565b60408a8101519051631e51d6a760e11b81526001600160a01b0390911660048201523390633ca3ad4e90602401602060405180830381865afa1580156125b4573d6000803e3d6000fd5b505050506040513d601f19601f820116820180604052508101906125d89190614d42565b156124af576124a860008b600001518685898b6002612dc9565b60208a0151604051631e51d6a760e11b81526001600160a01b0390911660048201523390633ca3ad4e90602401602060405180830381865afa15801561263c573d6000803e3d6000fd5b505050506040513d601f19601f820116820180604052508101906126609190614d42565b801561266c5750600081125b156126e65760208a0151604051635b92108f60e11b8152339163b724211e9161269c918991600b90600401614fc9565b6000604051808303816000875af11580156126bb573d6000803e3d6000fd5b505050506040513d6000823e601f3d908101601f191682016040526126e39190810190614ff7565b94505b60408a8101519051631e51d6a760e11b81526001600160a01b0390911660048201523390633ca3ad4e90602401602060405180830381865afa158015612730573d6000803e3d6000fd5b505050506040513d601f19601f820116820180604052508101906127549190614d42565b15612771576124a88a604001518b600001518685898b6002612dc9565b8951612780908584888a61356f565b94505b7f00000000000000000000000000000000000000000000000000000000000000006001600160a01b03161561289a577f00000000000000000000000000000000000000000000000000000000000000006001600160a01b0316632742e95a8b60000151604051806080016040528088602001516001600160a01b0316815260200188604001516001600160a01b0316815260200188606001516001600160a01b031681526020018860800151600b0b81525085602001516040518463ffffffff1660e01b815260040161285893929190614f01565b6020604051808303816000875af1925050508015612893575060408051601f3d908101601f1916820190925261289091810190614d42565b60015b1561289a57505b5050505095945050505050565b60606000806128b68785612cc4565b915091506000806128cb896000015185611a2f565b9150915081156128f257604051635b5b42a560e01b81526103e860048201526024016107a8565b6040898101519051631e51d6a760e11b81526001600160a01b0390911660048201523390633ca3ad4e90602401602060405180830381865afa15801561293c573d6000803e3d6000fd5b505050506040513d601f19601f820116820180604052508101906129609190614d42565b156129b9576129b289604001518a6000015185848c8c8080601f01602080910402602001604051908101604052809392919081815260200183838082843760009201829052508f93509150612dc99050565b9450612a04565b612a01896000015184838b8b8080601f0160208091040260200160405190810160405280939291908181526020018383808284376000920191909152508d925061356f915050565b94505b612a1789600001518a6020015188613642565b7f00000000000000000000000000000000000000000000000000000000000000006001600160a01b031615612b28577f00000000000000000000000000000000000000000000000000000000000000006001600160a01b031663e3d8fefe8a60000151604051806080016040528087602001516001600160a01b0316815260200187604001516001600160a01b0316815260200187606001516001600160a01b031681526020018760800151600b0b8152506040518363ffffffff1660e01b8152600401612ae692919061502c565b6020604051808303816000875af1925050508015612b21575060408051601f3d908101601f19168201909252612b1e91810190614d42565b60015b15612b2857505b50505050949350505050565b60f8161590565b606060008260200151600b0b1215612b5557612b5561507a565b60408051600180825281830190925290602080830190803683370190505090508160200151600b0b6080836000015160ff16901b1760001b81600081518110612ba057612ba0614cf2565b602002602001018181525050919050565b60008082600b0b1215612bd7576040516348d6568b60e11b815260040160405180910390fd5b60016001605f1b03612bed84600b85900b615090565b1115612c0c57604051630c9c55c160e01b815260040160405180910390fd5b6000612c18838561392c565b90506105378582613970565b6040805180820190915260008082526020820152811580159190612c5f5760016001605f1b038316600b0b6020820152608083901c60ff1681525b915091565b6000612c6e61454f565b821580159250612c5f5760e083901c8152608083901c6bffffffffffffffffffffffff16600b0b6020808301919091526bffffffffffffffff0000000084821c811660408401529084901b166060820152915091565b6040805160c08101825260008082526020820181905291810182905260608082018390526080820183905260a082015260408401516001600160a01b0316612d235760405163e961d6ff60e01b81526105dd60048201526024016107a8565b612d3584602001518560400151611a07565b8082526020808601516001600160a01b0390811691840182905260408088015182169085018190526060808801519092168286015290870151600b0b608085015260a0808701519085015291935003612da15760405163a47338ef60e01b815260040160405180910390fd5b60008160800151600b0b136115c8576040516348d6568b60e11b815260040160405180910390fd5b82612dd26145d5565b6001600160a01b038916156130d6576000612e67898b8a600001518b602001518c60400151604051602001612e1d9291906001600160a01b0392831681529116602082015260400190565b60408051601f1981840301815260e08301825260006080840181905260a0840181905260c08401526001600160a01b03958616835293909416602082015292830152606082015290565b90506000846002811115612e7d57612e7d614eeb565b03612e925764010000000060c0820152612ec7565b6001846002811115612ea657612ea6614eeb565b03612ebb5764040000000060c0820152612ec7565b64100000000060c08201525b612ed18187613986565b82600001819052506000336001600160a01b031663289b3c0d6040518163ffffffff1660e01b8152600401602060405180830381865afa158015612f19573d6000803e3d6000fd5b505050506040513d601f19601f82011682018060405250810190612f3d9190614a8d565b9050612f5586604001518761014001518c8c8c613b3d565b5060808401525060405163407b865d60e11b81526000906001600160a01b038316906380f70cba90612faf9033908f907feae305fa863b373417e615b1044222e2806cefc7788d169ce6748a443c3f6cc490600401614b17565b602060405180830381865afa158015612fcc573d6000803e3d6000fd5b505050506040513d601f19601f82011682018060405250810190612ff09190614aaa565b9050600083608001516000146130145761300f64010000000083613970565b613017565b60005b905080846080015161302991906150af565b608085015260608a015161303c90611fdf565b60a0850152600087600281111561305557613055614eeb565b0361306a5764020000000060c085015261309f565b600187600281111561307e5761307e614eeb565b036130935764080000000060c085015261309f565b64200000000060c08501525b6130ae84866000015188613f21565b60408701919091528b519096506130c6908d90611a2f565b6020870152506130f49350505050565b6130ec84604001518561014001518a8a8a613b3d565b602084015250505b60006131038760600151611fdf565b826040015161010001516131179190614b3b565b905061313d8161312e846020015160400151611fdf565b6131389190614f60565b61416d565b8260200151604001818152505061315f8161312e846020015160600151611fdf565b60208301805160600191909152885190516001600160a01b038b169163a1b2bf8b9161318a906141bf565b6040518363ffffffff1660e01b81526004016131a7929190614afe565b600060405180830381600087803b1580156131c157600080fd5b505af11580156131d5573d6000803e3d6000fd5b505050506131f189896020015160008460008a60400151614230565b50613209898960400151600080858a60400151614230565b506101408501516001600160a01b0316158061323b5750886001600160a01b03168561014001516001600160a01b0316145b156132af576040516359a2914160e01b815233906359a291419061326590869085906004016150c2565b6000604051808303816000875af1158015613284573d6000803e3d6000fd5b505050506040513d6000823e601f3d908101601f191682016040526132ac9190810190614ff7565b92505b6040888101519051631e51d6a760e11b81526001600160a01b0390911660048201523390633ca3ad4e90602401602060405180830381865afa1580156132f9573d6000803e3d6000fd5b505050506040513d601f19601f8201168201806040525081019061331d9190614d42565b1561356257604088810151868201519151633acd4df360e21b81526001600160a01b0391821660048201526024810192909252600091908b169063eb3537cc90604401606060405180830381865afa15801561337d573d6000803e3d6000fd5b505050506040513d601f19601f820116820180604052508101906133a19190614a54565b509091505060008112156135605760028560028111156133c3576133c3614eeb565b03613544576040808a01519051635b92108f60e11b8152339163b724211e916133f3918891600c90600401614fc9565b6000604051808303816000875af1158015613412573d6000803e3d6000fd5b505050506040513d6000823e601f3d908101601f1916820160405261343a9190810190614ff7565b9350600061345861344a836150e4565b613453856150e4565b6143a1565b90508a6001600160a01b031663cf97256d8b6020015183613478906150e4565b6040516001600160e01b031960e085901b1681526001600160a01b0390921660048301526024820152604401600060405180830381600087803b1580156134be57600080fd5b505af11580156134d2573d6000803e3d6000fd5b5050505060408a810151905163cf97256d60e01b81526001600160a01b03918216600482015260248101839052908c169063cf97256d90604401600060405180830381600087803b15801561352657600080fd5b505af115801561353a573d6000803e3d6000fd5b5050505050613560565b60405163a85ba64f60e01b8152600c60048201526024016107a8565b505b5050979650505050505050565b606083810151156135825761358261507a565b600061358c61454f565b6135a284604001518561014001518a8a8a613b3d565b6101408701519294509250506001600160a01b03808a16911603613633576040516359a2914160e01b815233906359a29141906135e590889086906004016150c2565b6000604051808303816000875af1158015613604573d6000803e3d6000fd5b505050506040513d6000823e601f3d908101601f1916820160405261362c9190810190614ff7565b9250613637565b8492505b505095945050505050565b602081015160ff1660031415806136705750826001600160a01b03168161014001516001600160a01b031614155b1561371b576040808201519051633acd4df360e21b81526001600160a01b038481166004830152602482019290925260009185169063eb3537cc90604401606060405180830381865afa1580156136cb573d6000803e3d6000fd5b505050506040513d601f19601f820116820180604052508101906136ef9190614a54565b50509050600081121561371957604051636212897360e01b815261044c60048201526024016107a8565b505b505050565b600061373086856020015161178a565b91505060006137428460400151611fdf565b905060006137538360400151611fdf565b90506060600080613764848b614f60565b90506000806137728d6115cf565b915091506137828c87848461204d565b935050506000811261386d5760008461379b8388614b62565b6137a59190614f88565b90506001836137b55760016137b8565b60005b6040805160ff9384166020820152929091169082015260600160405160208183030381529060405293508b6001600160a01b0316631863e8098b60000151868b878f602001516138078861416d565b61381389600019614b62565b6040518863ffffffff1660e01b81526004016138359796959493929190615100565b600060405180830381600087803b15801561384f57600080fd5b505af1158015613863573d6000803e3d6000fd5b505050505061391f565b6040805160016020820152600291810191909152859060600160405160208183030381529060405293508b6001600160a01b0316631863e8098b60000151868b60008f602001516138bd8861416d565b6138c98a600019614b62565b6040518863ffffffff1660e01b81526004016138eb9796959493929190615100565b600060405180830381600087803b15801561390557600080fd5b505af1158015613919573d6000803e3d6000fd5b50505050505b5050505050505050505050565b600082600b0b600003613941575060006110b8565b60016001605f1b038211156139585761395861507a565b613962828461514d565b600b0b905061088d816143b6565b600081831161397f578161088d565b5090919050565b6020820151604051633e7d48bd60e21b81526001600160a01b03909116600482015260609060009081908190339063f9f522f490602401606060405180830381865afa1580156139da573d6000803e3d6000fd5b505050506040513d601f19601f820116820180604052508101906139fe91906151e2565b91945092509050828015613a10575081155b15613b34576000613a2186886143ea565b90508660c001518216600003613b26576000613a408860c00151614468565b88516040808b015160608c015182516000815260208101909352613a6c9392309291906044810161521e565b60408051601f19818403018152918152602080830180516001600160e01b03166001600160e01b031990951694909417909352918a015160c08b01519251633a020f0160e11b815291935033926374041e0292613adb9291869164100000000091909114908890600401615263565b6000604051808303816000875af1158015613afa573d6000803e3d6000fd5b505050506040513d6000823e601f3d908101601f19168201604052613b229190810190614ff7565b9550505b613b318660006144ff565b50505b50505092915050565b600080613b4861454f565b6000806000613b56896115cf565b5090506000336001600160a01b031663289b3c0d6040518163ffffffff1660e01b8152600401602060405180830381865afa158015613b99573d6000803e3d6000fd5b505050506040513d601f19601f82011682018060405250810190613bbd9190614a8d565b60405163407b865d60e11b81529091506001600160a01b038216906380f70cba90613c109033908e907feae305fa863b373417e615b1044222e2806cefc7788d169ce6748a443c3f6cc490600401614b17565b602060405180830381865afa158015613c2d573d6000803e3d6000fd5b505050506040513d601f19601f82011682018060405250810190613c519190614aaa565b9250613c6189608001518361392c565b95505050613c728660600151611fdf565b613c7f8760400151611fdf565b613c8886611fdf565b613c929190614b3b565b613c9c9190614f60565b9450613caf8561312e8860400151611fdf565b91508082108015613cc7575060008760800151600b0b135b15613d0957613cd98660600151611fdf565b613ce68760400151611fdf565b613cef83611fdf565b613cf99190614b3b565b613d039190614f60565b94508091505b6001600160a01b03891615801590613d335750876001600160a01b0316896001600160a01b031614155b15613d3d57600093505b604051806080016040528060008960800151600b0b13613d5e576000613d60565b8b5b81526020018860800151600b0b815260200183815260200187606001518152509250876001600160a01b031663a1b2bf8b8860000151613d9f866141bf565b6040518363ffffffff1660e01b8152600401613dbc929190614afe565b600060405180830381600087803b158015613dd657600080fd5b505af1158015613dea573d6000803e3d6000fd5b505060408051808201909152600080825260208201529250613e0a915050565b613e3088886020015189608001518960200151613e279190614a27565b8860008f614230565b600b0b8152604087015160208701516080890151613e5f928b929091613e569190614a27565b6000808f614230565b600b0b60208083018290526040808a0151918a015160808b0151855160a08d015193516001600160a01b0395861696938616958f16947f57269d2ebcccecdcc0d9d2c0a0b80ead95f344e28ec20f50f709811f209d4e0e94613ec59493929091906152ac565b60405180910390a486606001516001600160a01b03167f71e0c98e270fc3084227b473f176924d5303ece8c639e679998a2d7dc8e70f7483604051613f0c91815260200190565b60405180910390a25050955095509592505050565b613f2961457a565b6020840151604051633e7d48bd60e21b81526001600160a01b03909116600482015260609060009081908190339063f9f522f490602401606060405180830381865afa158015613f7d573d6000803e3d6000fd5b505050506040513d601f19601f82011682018060405250810190613fa191906151e2565b88965091945092509050828015613fb6575081155b1561416257613fc584896143ea565b93508760c001518116600003614150576000613fe48960c00151614468565b89516040808c015160608d0151825160008152602081019093526140129392309291908e90604481016152e4565b60408051601f19818403018152918152602080830180516001600160e01b03166001600160e01b031990951694909417909352918b015160c08c0151925163079b42a160e21b81529193503392631e6d0a84926140819291869164200000000091909114908b90600401615263565b6000604051808303816000875af11580156140a0573d6000803e3d6000fd5b505050506040513d6000823e601f3d908101601f191682016040526140c89190810190614ff7565b604051631fb6491d60e11b81529095503390633f6c923a906140ee908890600401614784565b600060405180830381865afa15801561410b573d6000803e3d6000fd5b505050506040513d6000823e601f3d908101601f191682016040526141339190810190614de4565b95506141488960800151876101000151614527565b610100870152505b61415f868661010001516144ff565b93505b505050935093915050565b6000808212156120495760405162461bcd60e51b815260206004820181905260248201527f53616665436173743a2076616c7565206d75737420626520706f73697469766560448201526064016107a8565b6040805160018082528183019092526060916020808301908036833701905050905060208260600151901c604060208460400151901c901b608084602001516bffffffffffffffffffffffff16901b60e08560000151901b17171760001b81600081518110612ba057612ba0614cf2565b60008061423d888861178a565b91505060008160200151600b0b61426283600001518661425d9190614fb6565b611fdf565b61426c9190614b62565b905080156142d75760405163cf97256d60e01b81526001600160a01b038981166004830152602482018390528a169063cf97256d90604401600060405180830381600087803b1580156142be57600080fd5b505af11580156142d2573d6000803e3d6000fd5b505050505b8682602001516142e7919061533d565b600b0b6020830152838252604082015161430690879061312e90611fdf565b6040830152606082015161431f90869061312e90611fdf565b60608301526001600160a01b03891663090c415e89600061433f866141bf565b6040518463ffffffff1660e01b815260040161435d9392919061536a565b600060405180830381600087803b15801561437757600080fd5b505af115801561438b573d6000803e3d6000fd5b5050506020909201519998505050505050505050565b60008183136143b0578261088d565b50919050565b60008063ffffffff83166143cb5760006143ce565b60015b60ff16905060206143e18285831c6150af565b901b9392505050565b6020810151608082015160a08301518351604051630768fabb60e41b8152606094339463768fabb094614421948a94600401615391565b6000604051808303816000875af1158015614440573d6000803e3d6000fd5b505050506040513d6000823e601f3d908101601f1916820160405261088d9190810190614ff7565b6000640100000000820361448457506330d9c91560e01b919050565b640400000000820361449e5750630221347d60e61b919050565b64100000000082036144b85750635f9e7d7760e01b919050565b64020000000082036144d2575063d86ed3e560e01b919050565b64080000000082036144ec575063230dbd2960e01b919050565b506353c11f9960e01b919050565b919050565b604051634c4d861f60e11b8152606090339063989b0c3e9061442190869086906004016150c2565b600061088d600061454061453a86611fdf565b856143a1565b600081831361397f578161088d565b6040518060800160405280600081526020016000600b0b815260200160008152602001600081525090565b604080516101608101825260008082526020820181905291810182905260608082018390526080820183905260a082015260c0810182905260e081018290526101008101829052610120810182905261014081019190915290565b6040518060600160405280606081526020016145ef61454f565b81526020016145fc61457a565b905290565b6001600160a01b03811681146107ba57600080fd5b60008060006060848603121561462b57600080fd5b833561463681614601565b9250602084013561464681614601565b9150604084013561465681614601565b809150509250925092565b6000806040838503121561467457600080fd5b823561467f81614601565b946020939093013593505050565b60008083601f84011261469f57600080fd5b50813567ffffffffffffffff8111156146b757600080fd5b6020830191508360208285010111156115c857600080fd5b600080600080606085870312156146e557600080fd5b84356146f081614601565b9350602085013561470081614601565b9250604085013567ffffffffffffffff81111561471c57600080fd5b6147288782880161468d565b95989497509550505050565b60005b8381101561474f578181015183820152602001614737565b50506000910152565b60008151808452614770816020860160208601614734565b601f01601f19169290920160200192915050565b60208152600061088d6020830184614758565b600080604083850312156147aa57600080fd5b82356147b581614601565b915060208301356147c581614601565b809150509250929050565b8035600b81900b81146144fa57600080fd5b60008060008060008060a087890312156147fb57600080fd5b863561480681614601565b9550602087013561481681614601565b9450604087013561482681614601565b9350614834606088016147d0565b9250608087013567ffffffffffffffff81111561485057600080fd5b61485c89828a0161468d565b979a9699509497509295939492505050565b60006020828403121561488057600080fd5b813561088d81614601565b6000806000606084860312156148a057600080fd5b83356148ab81614601565b925060208401356148bb81614601565b929592945050506040919091013590565b6000806000806000608086880312156148e457600080fd5b85356148ef81614601565b945060208601356148ff81614601565b9350604086013561490f81614601565b9250606086013567ffffffffffffffff81111561492b57600080fd5b6149378882890161468d565b969995985093965092949392505050565b60008060008060006080868803121561496057600080fd5b853561496b81614601565b9450602086013561497b81614601565b935061490f604087016147d0565b60ff811681146107ba57600080fd5b60008060008060008060a087890312156149b157600080fd5b86356149bc81614601565b955060208701356149cc81614601565b9450604087013561482681614989565b600080604083850312156149ef57600080fd5b82356149fa81614601565b9150614a08602084016147d0565b90509250929050565b634e487b7160e01b600052601160045260246000fd5b600b82810b9082900b0360016001605f1b0319811260016001605f1b03821317156110b8576110b8614a11565b600080600060608486031215614a6957600080fd5b8351925060208401519150604084015190509250925092565b80516144fa81614601565b600060208284031215614a9f57600080fd5b815161088d81614601565b600060208284031215614abc57600080fd5b5051919050565b600081518084526020808501945080840160005b83811015614af357815187529582019590820190600101614ad7565b509495945050505050565b82815260406020820152600061051e6040830184614ac3565b6001600160a01b039384168152919092166020820152604081019190915260600190565b8181036000831280158383131683831282161715614b5b57614b5b614a11565b5092915050565b60006001600160ff1b0381841382841380821686840486111615614b8857614b88614a11565b600160ff1b6000871282811687830589121615614ba757614ba7614a11565b60008712925087820587128484161615614bc357614bc3614a11565b87850587128184161615614bd957614bd9614a11565b505050929093029392505050565b634e487b7160e01b600052604160045260246000fd5b604051610160810167ffffffffffffffff81118282101715614c2157614c21614be7565b60405290565b604051601f8201601f1916810167ffffffffffffffff81118282101715614c5057614c50614be7565b604052919050565b60006020808385031215614c6b57600080fd5b825167ffffffffffffffff80821115614c8357600080fd5b818501915085601f830112614c9757600080fd5b815181811115614ca957614ca9614be7565b8060051b9150614cba848301614c27565b8181529183018401918481019088841115614cd457600080fd5b938501935b83851015610c8657845182529385019390850190614cd9565b634e487b7160e01b600052603260045260246000fd5b634e487b7160e01b600052601260045260246000fd5b600082614d2d57614d2d614d08565b500490565b805180151581146144fa57600080fd5b600060208284031215614d5457600080fd5b61088d82614d32565b80516144fa81614989565b80516001600160e01b0319811681146144fa57600080fd5b600082601f830112614d9157600080fd5b815167ffffffffffffffff811115614dab57614dab614be7565b614dbe601f8201601f1916602001614c27565b818152846020838601011115614dd357600080fd5b61051e826020830160208701614734565b600060208284031215614df657600080fd5b815167ffffffffffffffff80821115614e0e57600080fd5b908301906101608286031215614e2357600080fd5b614e2b614bfd565b614e3483614d5d565b8152614e4260208401614d5d565b602082015260408301516040820152614e5d60608401614a82565b6060820152614e6e60808401614d68565b608082015260a083015182811115614e8557600080fd5b614e9187828601614d80565b60a08301525060c083015160c082015260e083015160e0820152610100915081830151828201526101209150614ec8828401614a82565b828201526101409150614edc828401614a82565b91810191909152949350505050565b634e487b7160e01b600052602160045260246000fd5b6001600160a01b038416815260c08101614f4f602083018580516001600160a01b03908116835260208083015182169084015260408083015190911690830152606090810151600b0b910152565b82600b0b60a0830152949350505050565b8082018281126000831280158216821582161715614f8057614f80614a11565b505092915050565b600082614f9757614f97614d08565b600160ff1b821460001984141615614fb157614fb1614a11565b500590565b818103818111156110b8576110b8614a11565b606081526000614fdc6060830186614758565b6001600160a01b039490941660208301525060400152919050565b60006020828403121561500957600080fd5b815167ffffffffffffffff81111561502057600080fd5b61051e84828501614d80565b6001600160a01b038316815260a0810161088d602083018480516001600160a01b03908116835260208083015182169084015260408083015190911690830152606090810151600b0b910152565b634e487b7160e01b600052600160045260246000fd5b60008160001904831182151516156150aa576150aa614a11565b500290565b808201808211156110b8576110b8614a11565b6040815260006150d56040830185614758565b90508260208301529392505050565b6000600160ff1b82016150f9576150f9614a11565b5060000390565b87815260e06020820152600061511960e0830189614758565b6001600160a01b03978816604084015295151560608301525092909416608083015260a082015260c0019190915292915050565b600081600b0b83600b0b60016001605f1b0360008213600084138383048511828216161561517d5761517d614a11565b60016001605f1b031960008512828116878305871216156151a0576151a0614a11565b600087129250858205871284841616156151bc576151bc614a11565b858505871281841616156151d2576151d2614a11565b5050509290910295945050505050565b6000806000606084860312156151f757600080fd5b61520084614d32565b925061520e60208501614d32565b9150604084015190509250925092565b6001600160a01b038681168252851660208201526040810184905260a06060820181905260009061525190830185614758565b8281036080840152610c868185614758565b6001600160a01b038516815260806020820181905260009061528790830186614758565b841515604084015282810360608401526152a18185614758565b979650505050505050565b84600b0b815283600b0b602082015282600b0b60408201526080606082015260006152da6080830184614758565b9695505050505050565b6001600160a01b038781168252861660208201526040810185905260c06060820181905260009061531790830186614758565b82810360808401526153298186614758565b905082810360a08401526112348185614758565b600b81810b9083900b0160016001605f1b03811360016001605f1b0319821217156110b8576110b8614a11565b60018060a01b03841681528260208201526060604082015260006105376060830184614ac3565b60a0815260006153a460a0830188614758565b6001600160a01b039687166020840152604083019590955250606081019290925290921660809092019190915291905056fea264697066735822122067589d9c909cc35bcf166206f606dce2643632f63d8cba1e78ebf133a442c7f064736f6c63430008100033",
    "linkReferences": {}
  },
  "methodIdentifiers": {
    "DEFAULT_MINIMUM_DEPOSIT()": "04aafa49",
    "MAXIMUM_DEPOSIT()": "9cb28b72",
    "MAXIMUM_FLOW_RATE()": "26b0f536",
    "agreementType()": "7730599e",
    "authorizeFlowOperatorWithFullControl(address,address,bytes)": "54b770e3",
    "castrate()": "9903ad38",
    "constantFlowAgreementHook()": "0f2f8f3c",
    "createFlow(address,address,int96,bytes)": "62fc305e",
    "createFlowByOperator(address,address,address,int96,bytes)": "94229ecb",
    "deleteFlow(address,address,address,bytes)": "b4b333c6",
    "deleteFlowByOperator(address,address,address,bytes)": "4c8b181f",
    "getAccountFlowInfo(address,address)": "0f1ac495",
    "getCodeAddress()": "50d75d25",
    "getDepositRequiredForFlowRate(address,int96)": "8d997f6e",
    "getFlow(address,address,address)": "e6a1e888",
    "getFlowByID(address,bytes32)": "aabd2668",
    "getFlowOperatorData(address,address,address)": "00422bbe",
    "getFlowOperatorDataByID(address,bytes32)": "09d256ef",
    "getMaximumFlowRateFromDeposit(address,uint256)": "0602f7db",
    "getNetFlow(address,address)": "e8e7e2d1",
    "isPatricianPeriod(address,address,uint256)": "4b839e0b",
    "isPatricianPeriodNow(address,address)": "4fe9c291",
    "proxiableUUID()": "52d1902d",
    "realtimeBalanceOf(address,address,uint256)": "9b2e48bc",
    "revokeFlowOperatorWithFullControl(address,address,bytes)": "062e56ec",
    "updateCode(address)": "46951954",
    "updateFlow(address,address,int96,bytes)": "50209a62",
    "updateFlowByOperator(address,address,address,int96,bytes)": "354b9590",
    "updateFlowOperatorPermissions(address,address,uint8,int96,bytes)": "811b3d40"
  },
  "id": 42
}