{
  "abi": [
    {
      "inputs": [],
      "stateMutability": "nonpayable",
      "type": "constructor"
    },
    {
      "inputs": [],
      "name": "RESOLVER_BASE_SUPER_TOKEN_KEY",
      "outputs": [
        {
          "internalType": "string",
          "name": "",
          "type": "string"
        }
      ],
      "stateMutability": "view",
      "type": "function"
    },
    {
      "inputs": [],
      "name": "RESOLVER_BASE_TOKEN_KEY",
      "outputs": [
        {
          "internalType": "string",
          "name": "",
          "type": "string"
        }
      ],
      "stateMutability": "view",
      "type": "function"
    },
    {
      "inputs": [
        {
          "internalType": "string",
          "name": "_name",
          "type": "string"
        },
        {
          "internalType": "string",
          "name": "_symbol",
          "type": "string"
        }
      ],
      "name": "deployNativeAssetSuperToken",
      "outputs": [
        {
          "internalType": "contract ISETH",
          "name": "nativeAssetSuperToken",
          "type": "address"
        }
      ],
      "stateMutability": "nonpayable",
      "type": "function"
    },
    {
      "inputs": [
        {
          "internalType": "string",
          "name": "_name",
          "type": "string"
        },
        {
          "internalType": "string",
          "name": "_symbol",
          "type": "string"
        },
        {
          "internalType": "uint256",
          "name": "_initialSupply",
          "type": "uint256"
        }
      ],
      "name": "deployPureSuperToken",
      "outputs": [
        {
          "internalType": "contract IPureSuperToken",
          "name": "pureSuperToken",
          "type": "address"
        }
      ],
      "stateMutability": "nonpayable",
      "type": "function"
    },
    {
      "inputs": [
        {
          "internalType": "string",
          "name": "_underlyingName",
          "type": "string"
        },
        {
          "internalType": "string",
          "name": "_underlyingSymbol",
          "type": "string"
        },
        {
          "internalType": "uint8",
          "name": "_decimals",
          "type": "uint8"
        },
        {
          "internalType": "uint256",
          "name": "_mintLimit",
          "type": "uint256"
        }
      ],
      "name": "deployWrapperSuperToken",
      "outputs": [
        {
          "internalType": "contract TestToken",
          "name": "underlyingToken",
          "type": "address"
        },
        {
          "internalType": "contract SuperToken",
          "name": "superToken",
          "type": "address"
        }
      ],
      "stateMutability": "nonpayable",
      "type": "function"
    },
    {
      "inputs": [],
      "name": "getFramework",
      "outputs": [
        {
          "components": [
            {
              "internalType": "contract TestGovernance",
              "name": "governance",
              "type": "address"
            },
            {
              "internalType": "contract Superfluid",
              "name": "host",
              "type": "address"
            },
            {
              "internalType": "contract ConstantFlowAgreementV1",
              "name": "cfa",
              "type": "address"
            },
            {
              "components": [
                {
                  "internalType": "contract ISuperfluid",
                  "name": "host",
                  "type": "address"
                },
                {
                  "internalType": "contract IConstantFlowAgreementV1",
                  "name": "cfa",
                  "type": "address"
                }
              ],
              "internalType": "struct CFAv1Library.InitData",
              "name": "cfaLib",
              "type": "tuple"
            },
            {
              "internalType": "contract InstantDistributionAgreementV1",
              "name": "ida",
              "type": "address"
            },
            {
              "components": [
                {
                  "internalType": "contract ISuperfluid",
                  "name": "host",
                  "type": "address"
                },
                {
                  "internalType": "contract IInstantDistributionAgreementV1",
                  "name": "ida",
                  "type": "address"
                }
              ],
              "internalType": "struct IDAv1Library.InitData",
              "name": "idaLib",
              "type": "tuple"
            },
            {
              "internalType": "contract SuperTokenFactory",
              "name": "superTokenFactory",
              "type": "address"
            },
            {
              "internalType": "contract TestResolver",
              "name": "resolver",
              "type": "address"
            },
            {
              "internalType": "contract SuperfluidLoader",
              "name": "superfluidLoader",
              "type": "address"
            },
            {
              "internalType": "contract CFAv1Forwarder",
              "name": "cfaV1Forwarder",
              "type": "address"
            }
          ],
          "internalType": "struct SuperfluidFrameworkDeployer.Framework",
          "name": "sf",
          "type": "tuple"
        }
      ],
      "stateMutability": "view",
      "type": "function"
    }
  ],
  "bytecode": {
    "object": "0x60806040523480156200001157600080fd5b5060405162000020906200084e565b604051809103906000f0801580156200003d573d6000803e3d6000fd5b50600080546001600160a01b0319166001600160a01b03929092169190911781556040516001919062000070906200085c565b911515825215156020820152604001604051809103906000f0801580156200009c573d6000803e3d6000fd5b50600180546001600160a01b0319166001600160a01b0392831690811790915560005460405163189acdbd60e31b8152921660048301529063c4d66de890602401600060405180830381600087803b158015620000f857600080fd5b505af11580156200010d573d6000803e3d6000fd5b50600092508291506200011d9050565b60405190808252806020026020018201604052801562000147578160200160208202803683370190505b50600054600154604051630b520f0360e31b81529293506001600160a01b0391821692635a907818926200018d9216906045906138409061070890889060040162000912565b600060405180830381600087803b158015620001a857600080fd5b505af1158015620001bd573d6000803e3d6000fd5b50506001546040516001600160a01b03909116925060009150620001e1906200086a565b6001600160a01b03928316815291166020820152604001604051809103906000f08015801562000215573d6000803e3d6000fd5b50600280546001600160a01b0319166001600160a01b0392831690811790915560005460015460405163cadf8f8560e01b8152908416600482015260248101929092529091169063cadf8f8590604401600060405180830381600087803b1580156200028057600080fd5b505af115801562000295573d6000803e3d6000fd5b50506001546040516001600160a01b039091169250620002b6915062000878565b6001600160a01b039091168152602001604051809103906000f080158015620002e3573d6000803e3d6000fd5b50600780546001600160a01b0319166001600160a01b03928316908117909155600080546001546040516355c2378d60e11b815290851660048201526024810192909252604482019290925291169063ab846f1a90606401600060405180830381600087803b1580156200035657600080fd5b505af11580156200036b573d6000803e3d6000fd5b50506001546040516001600160a01b0390911692506200038c915062000886565b6001600160a01b039091168152602001604051809103906000f080158015620003b9573d6000803e3d6000fd5b50600380546001600160a01b0319166001600160a01b0392831690811790915560005460015460405163cadf8f8560e01b8152908416600482015260248101929092529091169063cadf8f8590604401600060405180830381600087803b1580156200042457600080fd5b505af115801562000439573d6000803e3d6000fd5b5050505060006040516200044d9062000894565b604051809103906000f0801580156200046a573d6000803e3d6000fd5b506001546040519192506001600160a01b03169082906200048b90620008a2565b6001600160a01b03928316815291166020820152604001604051809103906000f080158015620004bf573d6000803e3d6000fd5b50600480546001600160a01b0319166001600160a01b039283169081179091556000805460015460408051848152602081019182905263109e50a960e21b9091529185169463427942a4946200051f949290911692906024820162000959565b600060405180830381600087803b1580156200053a57600080fd5b505af11580156200054f573d6000803e3d6000fd5b50505050336040516200056290620008b0565b6001600160a01b039091168152602001604051809103906000f0801580156200058f573d6000803e3d6000fd5b50600580546001600160a01b0319166001600160a01b03929092169182179055604051620005bd90620008be565b6001600160a01b039091168152602001604051809103906000f080158015620005ea573d6000803e3d6000fd5b50600680546001600160a01b0319166001600160a01b039283161790556005546000546040805163a815ff1560e01b81526004810191909152601360448201527f54657374476f7665726e616e63652e74657374000000000000000000000000006064820152908316602482015291169063a815ff1590608401600060405180830381600087803b1580156200067f57600080fd5b505af115801562000694573d6000803e3d6000fd5b50506005546001546040805163a815ff1560e01b81526004810191909152600f60448201526e14dd5c195c999b1d5a590b9d195cdd608a1b60648201526001600160a01b0391821660248201529116925063a815ff159150608401600060405180830381600087803b1580156200070a57600080fd5b505af11580156200071f573d6000803e3d6000fd5b50506005546006546040805163a815ff1560e01b81526004810191909152601360448201527f5375706572666c7569644c6f616465722d76310000000000000000000000000060648201526001600160a01b0391821660248201529116925063a815ff159150608401600060405180830381600087803b158015620007a357600080fd5b505af1158015620007b8573d6000803e3d6000fd5b50506005546007546040805163a815ff1560e01b81526004810191909152600e60448201526d21a320bb18a337b93bb0b93232b960911b60648201526001600160a01b0391821660248201529116925063a815ff159150608401600060405180830381600087803b1580156200082d57600080fd5b505af115801562000842573d6000803e3d6000fd5b50505050505062000999565b611d23806200301783390190565b614f538062004d3a83390190565b6155008062009c8d83390190565b6117db806200f18d83390190565b615382806201096883390190565b6148028062015cea83390190565b611464806201a4ec83390190565b610eaa806201b95083390190565b6104ea806201c7fa83390190565b600081518084526020808501945080840160005b83811015620009075781516001600160a01b031687529582019590820190600101620008e0565b509495945050505050565b6001600160a01b03868116825285166020820152604081018490526060810183905260a0608082018190526000906200094e90830184620008cc565b979650505050505050565b600060018060a01b038087168352808616602084015260806040840152620009856080840186620008cc565b915080841660608401525095945050505050565b61266e80620009a96000396000f3fe60806040523480156200001157600080fd5b50600436106200006a5760003560e01c80633df285fe146200006f57806362a32e1e14620000b85780637dc2dc1214620000e4578063cbcd7449146200011c578063dfa98ad5146200014c578063fa0215fc146200026a575b600080fd5b620000a06040518060400160405280601181526020017039bab832b93a37b5b2b739973a32b9ba1760791b81525081565b604051620000af9190620008b4565b60405180910390f35b620000a06040518060400160405280600c81526020016b3a37b5b2b739973a32b9ba1760a11b81525081565b620000fb620000f53660046200091c565b62000281565b604080516001600160a01b03938416815292909116602083015201620000af565b620001336200012d366004620009b6565b6200051d565b6040516001600160a01b039091168152602001620000af565b6200025b604080516101408101825260008082526020808301829052828401829052835180850185528281528082018390526060840152608083018290528351808501909452818452830181905260a082019290925260c0810182905260e0810182905261010081018290526101208101919091525060408051610140810182526000546001600160a01b03908116825260015481166020808401829052600254831684860181905285518087018752838152808301919091526060850152600354831660808501819052855180870190965291855284015260a0820192909252600454821660c0820152600554821660e0820152600654821661010082015260075490911661012082015290565b604051620000af919062000a29565b620001336200027b36600462000b3b565b62000670565b600080878787878787604051620002989062000836565b620002a99695949392919062000bdf565b604051809103906000f080158015620002c6573d6000803e3d6000fd5b506004546040519193506001600160a01b03169063431f1481908490600190620002f7908b908b9060200162000c23565b6040516020818303038152906040528a8a6040516020016200031b92919062000c45565b6040516020818303038152906040526040518563ffffffff1660e01b81526004016200034b949392919062000c5b565b6020604051808303816000875af11580156200036b573d6000803e3d6000fd5b505050506040513d601f19601f8201168201806040525081019062000391919062000cc3565b90506200045060016040518060400160405280600c81526020016b3a37b5b2b739973a32b9ba1760a11b815250846001600160a01b03166395d89b416040518163ffffffff1660e01b8152600401600060405180830381865afa158015620003fd573d6000803e3d6000fd5b505050506040513d6000823e601f3d908101601f1916820160405262000427919081019062000d04565b6040516020016200043a92919062000db2565b60405160208183030381529060405284620007c1565b6200051260016040518060400160405280601181526020017039bab832b93a37b5b2b739973a32b9ba1760791b815250836001600160a01b03166395d89b416040518163ffffffff1660e01b8152600401600060405180830381865afa158015620004bf573d6000803e3d6000fd5b505050506040513d6000823e601f3d908101601f19168201604052620004e9919081019062000d04565b604051602001620004fc92919062000db2565b60405160208183030381529060405283620007c1565b965096945050505050565b6000806040516200052e9062000844565b604051809103906000f0801580156200054b573d6000803e3d6000fd5b5060048054604051633504b4d160e21b81526001600160a01b0380851693820193909352929450849350169063d412d34490602401600060405180830381600087803b1580156200059b57600080fd5b505af1158015620005b0573d6000803e3d6000fd5b50506040516285fc1360e71b81526001600160a01b03851692506342fe09809150620005ed906000906012908b908b908b908b9060040162000de5565b600060405180830381600087803b1580156200060857600080fd5b505af11580156200061d573d6000803e3d6000fd5b505050506200066760016040518060400160405280601181526020017039bab832b93a37b5b2b739973a32b9ba1760791b81525086866040516020016200043a9392919062000e37565b50949350505050565b600080604051620006819062000852565b604051809103906000f0801580156200069e573d6000803e3d6000fd5b5060048054604051633504b4d160e21b81526001600160a01b0380851693820193909352929350169063d412d34490602401600060405180830381600087803b158015620006eb57600080fd5b505af115801562000700573d6000803e3d6000fd5b505060405163588ca48760e11b81526001600160a01b038416925063b119490e91506200073a908a908a908a908a908a9060040162000e61565b600060405180830381600087803b1580156200075557600080fd5b505af11580156200076a573d6000803e3d6000fd5b50505050809150620007b760016040518060400160405280601181526020017039bab832b93a37b5b2b739973a32b9ba1760791b81525087876040516020016200043a9392919062000e37565b5095945050505050565b8215620008315760055460405163a815ff1560e01b81526001600160a01b039091169063a815ff1590620007fc908590859060040162000e9f565b600060405180830381600087803b1580156200081757600080fd5b505af11580156200082c573d6000803e3d6000fd5b505050505b505050565b610cce8062000ecc83390190565b6105c48062001b9a83390190565b6104db806200215e83390190565b60005b838110156200087d57818101518382015260200162000863565b50506000910152565b60008151808452620008a081602086016020860162000860565b601f01601f19169290920160200192915050565b602081526000620008c9602083018462000886565b9392505050565b60008083601f840112620008e357600080fd5b50813567ffffffffffffffff811115620008fc57600080fd5b6020830191508360208285010111156200091557600080fd5b9250929050565b600080600080600080608087890312156200093657600080fd5b863567ffffffffffffffff808211156200094f57600080fd5b6200095d8a838b01620008d0565b909850965060208901359150808211156200097757600080fd5b506200098689828a01620008d0565b909550935050604087013560ff81168114620009a157600080fd5b80925050606087013590509295509295509295565b60008060008060408587031215620009cd57600080fd5b843567ffffffffffffffff80821115620009e657600080fd5b620009f488838901620008d0565b9096509450602087013591508082111562000a0e57600080fd5b5062000a1d87828801620008d0565b95989497509550505050565b81516001600160a01b031681526101808101602083015162000a5660208401826001600160a01b03169052565b50604083015162000a7260408401826001600160a01b03169052565b50606083015162000a9c606084018280516001600160a01b03908116835260209182015116910152565b5060808301516001600160a01b03811660a08401525060a083015180516001600160a01b0390811660c085015260208201511660e08401525060c083015161010062000af2818501836001600160a01b03169052565b60e0850151915061012062000b11818601846001600160a01b03169052565b908501516001600160a01b0390811661014086015294015190931661016090920191909152919050565b60008060008060006060868803121562000b5457600080fd5b853567ffffffffffffffff8082111562000b6d57600080fd5b62000b7b89838a01620008d0565b9097509550602088013591508082111562000b9557600080fd5b5062000ba488828901620008d0565b96999598509660400135949350505050565b81835281816020850137506000828201602090810191909152601f909101601f19169091010190565b60808152600062000bf560808301888a62000bb6565b828103602084015262000c0a81878962000bb6565b60ff959095166040840152505060600152949350505050565b65029bab832b9160d51b81528183600683013760009101600601908152919050565b81838237600f60fb1b9101908152600101919050565b6001600160a01b038516815260006003851062000c8857634e487b7160e01b600052602160045260246000fd5b8460208301526080604083015262000ca4608083018562000886565b828103606084015262000cb8818562000886565b979650505050505050565b60006020828403121562000cd657600080fd5b81516001600160a01b0381168114620008c957600080fd5b634e487b7160e01b600052604160045260246000fd5b60006020828403121562000d1757600080fd5b815167ffffffffffffffff8082111562000d3057600080fd5b818401915084601f83011262000d4557600080fd5b81518181111562000d5a5762000d5a62000cee565b604051601f8201601f19908116603f0116810190838211818310171562000d855762000d8562000cee565b8160405282815287602084870101111562000d9f57600080fd5b62000cb883602083016020880162000860565b6000835162000dc681846020880162000860565b83519083019062000ddc81836020880162000860565b01949350505050565b6001600160a01b038716815260ff8616602082015260806040820181905260009062000e15908301868862000bb6565b828103606084015262000e2a81858762000bb6565b9998505050505050505050565b6000845162000e4b81846020890162000860565b8201838582376000930192835250909392505050565b60608152600062000e7760608301878962000bb6565b828103602084015262000e8c81868862000bb6565b9150508260408301529695505050505050565b60408152600062000eb4604083018562000886565b905060018060a01b0383166020830152939250505056fe60a06040523480156200001157600080fd5b5060405162000cce38038062000cce83398101604081905262000034916200013c565b8383600362000044838262000256565b50600462000053828262000256565b50506005805460ff191660ff94909416939093179092556080525062000322915050565b634e487b7160e01b600052604160045260246000fd5b600082601f8301126200009f57600080fd5b81516001600160401b0380821115620000bc57620000bc62000077565b604051601f8301601f19908116603f01168101908282118183101715620000e757620000e762000077565b816040528381526020925086838588010111156200010457600080fd5b600091505b8382101562000128578582018301518183018401529082019062000109565b600093810190920192909252949350505050565b600080600080608085870312156200015357600080fd5b84516001600160401b03808211156200016b57600080fd5b62000179888389016200008d565b955060208701519150808211156200019057600080fd5b506200019f878288016200008d565b935050604085015160ff81168114620001b757600080fd5b6060959095015193969295505050565b600181811c90821680620001dc57607f821691505b602082108103620001fd57634e487b7160e01b600052602260045260246000fd5b50919050565b601f8211156200025157600081815260208120601f850160051c810160208610156200022c5750805b601f850160051c820191505b818110156200024d5782815560010162000238565b5050505b505050565b81516001600160401b0381111562000272576200027262000077565b6200028a81620002838454620001c7565b8462000203565b602080601f831160018114620002c25760008415620002a95750858301515b600019600386901b1c1916600185901b1785556200024d565b600085815260208120601f198616915b82811015620002f357888601518255948401946001909101908401620002d2565b5085821015620003125787850151600019600388901b60f8161c191681555b5050505050600190811b01905550565b6080516109906200033e60003960006102ba01526109906000f3fe608060405234801561001057600080fd5b50600436106100b45760003560e01c806340c10f191161007157806340c10f191461014757806370a082311461015a57806395d89b4114610183578063a457c2d71461018b578063a9059cbb1461019e578063dd62ed3e146101b157600080fd5b806306fdde03146100b9578063095ea7b3146100d757806318160ddd146100fa57806323b872dd1461010c578063313ce5671461011f5780633950935114610134575b600080fd5b6100c16101c4565b6040516100ce91906107c4565b60405180910390f35b6100ea6100e536600461082e565b610256565b60405190151581526020016100ce565b6002545b6040519081526020016100ce565b6100ea61011a366004610858565b610270565b60055460405160ff90911681526020016100ce565b6100ea61014236600461082e565b610294565b6100ea61015536600461082e565b6102b6565b6100fe610168366004610894565b6001600160a01b031660009081526020819052604090205490565b6100c16102fb565b6100ea61019936600461082e565b61030a565b6100ea6101ac36600461082e565b61038a565b6100fe6101bf3660046108b6565b610398565b6060600380546101d3906108e9565b80601f01602080910402602001604051908101604052809291908181526020018280546101ff906108e9565b801561024c5780601f106102215761010080835404028352916020019161024c565b820191906000526020600020905b81548152906001019060200180831161022f57829003601f168201915b5050505050905090565b6000336102648185856103c3565b60019150505b92915050565b60003361027e8582856104e7565b610289858585610561565b506001949350505050565b6000336102648185856102a78383610398565b6102b19190610923565b6103c3565b60007f00000000000000000000000000000000000000000000000000000000000000008211156102e8576102e8610944565b6102f28383610705565b50600192915050565b6060600480546101d3906108e9565b600033816103188286610398565b90508381101561037d5760405162461bcd60e51b815260206004820152602560248201527f45524332303a2064656372656173656420616c6c6f77616e63652062656c6f77604482015264207a65726f60d81b60648201526084015b60405180910390fd5b61028982868684036103c3565b600033610264818585610561565b6001600160a01b03918216600090815260016020908152604080832093909416825291909152205490565b6001600160a01b0383166104255760405162461bcd60e51b8152602060048201526024808201527f45524332303a20617070726f76652066726f6d20746865207a65726f206164646044820152637265737360e01b6064820152608401610374565b6001600160a01b0382166104865760405162461bcd60e51b815260206004820152602260248201527f45524332303a20617070726f766520746f20746865207a65726f206164647265604482015261737360f01b6064820152608401610374565b6001600160a01b0383811660008181526001602090815260408083209487168084529482529182902085905590518481527f8c5be1e5ebec7d5bd14f71427d1e84f3dd0314c0f7b2291e5b200ac8c7c3b925910160405180910390a3505050565b60006104f38484610398565b9050600019811461055b578181101561054e5760405162461bcd60e51b815260206004820152601d60248201527f45524332303a20696e73756666696369656e7420616c6c6f77616e63650000006044820152606401610374565b61055b84848484036103c3565b50505050565b6001600160a01b0383166105c55760405162461bcd60e51b815260206004820152602560248201527f45524332303a207472616e736665722066726f6d20746865207a65726f206164604482015264647265737360d81b6064820152608401610374565b6001600160a01b0382166106275760405162461bcd60e51b815260206004820152602360248201527f45524332303a207472616e7366657220746f20746865207a65726f206164647260448201526265737360e81b6064820152608401610374565b6001600160a01b0383166000908152602081905260409020548181101561069f5760405162461bcd60e51b815260206004820152602660248201527f45524332303a207472616e7366657220616d6f756e7420657863656564732062604482015265616c616e636560d01b6064820152608401610374565b6001600160a01b03848116600081815260208181526040808320878703905593871680835291849020805487019055925185815290927fddf252ad1be2c89b69c2b068fc378daa952ba7f163c4a11628f55a4df523b3ef910160405180910390a361055b565b6001600160a01b03821661075b5760405162461bcd60e51b815260206004820152601f60248201527f45524332303a206d696e7420746f20746865207a65726f2061646472657373006044820152606401610374565b806002600082825461076d9190610923565b90915550506001600160a01b038216600081815260208181526040808320805486019055518481527fddf252ad1be2c89b69c2b068fc378daa952ba7f163c4a11628f55a4df523b3ef910160405180910390a35050565b600060208083528351808285015260005b818110156107f1578581018301518582016040015282016107d5565b506000604082860101526040601f19601f8301168501019250505092915050565b80356001600160a01b038116811461082957600080fd5b919050565b6000806040838503121561084157600080fd5b61084a83610812565b946020939093013593505050565b60008060006060848603121561086d57600080fd5b61087684610812565b925061088460208501610812565b9150604084013590509250925092565b6000602082840312156108a657600080fd5b6108af82610812565b9392505050565b600080604083850312156108c957600080fd5b6108d283610812565b91506108e060208401610812565b90509250929050565b600181811c908216806108fd57607f821691505b60208210810361091d57634e487b7160e01b600052602260045260246000fd5b50919050565b8082018082111561026a57634e487b7160e01b600052601160045260246000fd5b634e487b7160e01b600052600160045260246000fdfea2646970667358221220ded00556e55e0a1c52df8a61f55acd7aee531546541d4377eb61b74a62b8749064736f6c63430008100033608060405234801561001057600080fd5b506105a4806100206000396000f3fe6080604052600436106100435760003560e01c8063160e8be3146100ef5780634a0687ef1461010f5780637687d19b1461012f578063cf81464b14610142576100e5565b366100e5576040805160008152602081019182905263c68d428360e01b909152309063c68d42839061007c9033903490602481016104c0565b600060405180830381600087803b15801561009657600080fd5b505af11580156100aa573d6000803e3d6000fd5b50506040513481523392507f25ca84076773b0455db53621c459ddc84fe40840e4932a62706a032566f399df915060200160405180910390a2005b6100ed61014a565b005b3480156100fb57600080fd5b506100ed61010a366004610525565b61015c565b34801561011b57600080fd5b506100ed61012a36600461053e565b610229565b6100ed61013d36600461053e565b61032f565b6100ed6103d0565b61015a61015561046d565b61049c565b565b60408051600081526020810191829052639d87674160e01b9091523090639d876741906101909033908590602481016104c0565b600060405180830381600087803b1580156101aa57600080fd5b505af11580156101be573d6000803e3d6000fd5b505060405133925083156108fc02915083906000818181858888f193505050501580156101ef573d6000803e3d6000fd5b5060405181815233907f3bc27981aebbb57f9247dc00fde9d6cd91e4b230083fec3238fedbcba1f9ab3d906020015b60405180910390a250565b6001600160a01b0381166102845760405162461bcd60e51b815260206004820152601760248201527f5555505350726f78793a207a65726f206164647265737300000000000000000060448201526064015b60405180910390fd5b60006102ae7f360894a13ba1a3210667c828492db98dca3e2076cc3735a920a3ca505d382bbc5490565b6001600160a01b0316146103045760405162461bcd60e51b815260206004820152601e60248201527f5555505350726f78793a20616c726561647920696e697469616c697a65640000604482015260640161027b565b61032c817f360894a13ba1a3210667c828492db98dca3e2076cc3735a920a3ca505d382bbc55565b50565b6040805160008152602081019182905263c68d428360e01b909152309063c68d4283906103639084903490602481016104c0565b600060405180830381600087803b15801561037d57600080fd5b505af1158015610391573d6000803e3d6000fd5b50505050806001600160a01b03167f25ca84076773b0455db53621c459ddc84fe40840e4932a62706a032566f399df3460405161021e91815260200190565b6040805160008152602081019182905263c68d428360e01b909152309063c68d4283906104049033903490602481016104c0565b600060405180830381600087803b15801561041e57600080fd5b505af1158015610432573d6000803e3d6000fd5b50506040513481523392507f25ca84076773b0455db53621c459ddc84fe40840e4932a62706a032566f399df915060200160405180910390a2565b60006104977f360894a13ba1a3210667c828492db98dca3e2076cc3735a920a3ca505d382bbc5490565b905090565b3660008037600080366000845af43d6000803e8080156104bb573d6000f35b3d6000fd5b60018060a01b038416815260006020848184015260606040840152835180606085015260005b81811015610502578581018301518582016080015282016104e6565b506000608082860101526080601f19601f83011685010192505050949350505050565b60006020828403121561053757600080fd5b5035919050565b60006020828403121561055057600080fd5b81356001600160a01b038116811461056757600080fd5b939250505056fea264697066735822122014fd4af3b26570986c533621adba0db212359052b483b24ceb4edb222641741c64736f6c63430008100033608060405234801561001057600080fd5b506104bb806100206000396000f3fe60806040526004361061002d5760003560e01c80634a0687ef14610044578063b119490e146100645761003c565b3661003c5761003a610084565b005b61003a610084565b34801561005057600080fd5b5061003a61005f3660046102bc565b610096565b34801561007057600080fd5b5061003a61007f366004610335565b61019c565b61009461008f610269565b610298565b565b6001600160a01b0381166100f15760405162461bcd60e51b815260206004820152601760248201527f5555505350726f78793a207a65726f206164647265737300000000000000000060448201526064015b60405180910390fd5b600061011b7f360894a13ba1a3210667c828492db98dca3e2076cc3735a920a3ca505d382bbc5490565b6001600160a01b0316146101715760405162461bcd60e51b815260206004820152601e60248201527f5555505350726f78793a20616c726561647920696e697469616c697a6564000060448201526064016100e8565b610199817f360894a13ba1a3210667c828492db98dca3e2076cc3735a920a3ca505d382bbc55565b50565b6040516285fc1360e71b815230906342fe0980906101ca906000906012908a908a908a908a906004016103d2565b600060405180830381600087803b1580156101e457600080fd5b505af11580156101f8573d6000803e3d6000fd5b50506040805160008152602081019182905263c68d428360e01b90915230925063c68d42839150610230903390859060248101610420565b600060405180830381600087803b15801561024a57600080fd5b505af115801561025e573d6000803e3d6000fd5b505050505050505050565b60006102937f360894a13ba1a3210667c828492db98dca3e2076cc3735a920a3ca505d382bbc5490565b905090565b3660008037600080366000845af43d6000803e8080156102b7573d6000f35b3d6000fd5b6000602082840312156102ce57600080fd5b81356001600160a01b03811681146102e557600080fd5b9392505050565b60008083601f8401126102fe57600080fd5b50813567ffffffffffffffff81111561031657600080fd5b60208301915083602082850101111561032e57600080fd5b9250929050565b60008060008060006060868803121561034d57600080fd5b853567ffffffffffffffff8082111561036557600080fd5b61037189838a016102ec565b9097509550602088013591508082111561038a57600080fd5b50610397888289016102ec565b96999598509660400135949350505050565b81835281816020850137506000828201602090810191909152601f909101601f19169091010190565b6001600160a01b038716815260ff8616602082015260806040820181905260009061040090830186886103a9565b82810360608401526104138185876103a9565b9998505050505050505050565b60018060a01b038416815260006020848184015260606040840152835180606085015260005b8181101561046257858101830151858201608001528201610446565b506000608082860101526080601f19601f8301168501019250505094935050505056fea2646970667358221220ba7f109bd1e425e1974d3f58adabda66284ea8d47161e4342dc85e4615d79e4164736f6c63430008100033a26469706673582212204992945e0b125ea211ed4d2b57f10bd673c55cc350ea3b8a529993aa8aa4147964736f6c63430008100033608060405234801561001057600080fd5b5061001a3361001f565b61006f565b600080546001600160a01b038381166001600160a01b0319831681178455604051919092169283917f8be0079c531659141344cd1fd0a4f28419497f9722a3daafe3b4186f6b6457e09190a35050565b611ca58061007e6000396000f3fe608060405234801561001057600080fd5b50600436106101ef5760003560e01c80637f0558e41161010f578063948eda5e116100a2578063e447cc1d11610071578063e447cc1d1461045f578063f047a2d914610472578063f2fde38b14610485578063f79a8e631461049857600080fd5b8063948eda5e14610413578063ab846f1a14610426578063cadf8f8514610439578063d099b6a01461044c57600080fd5b80638abe04e9116100de5780638abe04e9146103b95780638b93b3f5146103dc5780638da5cb5b146103ef5780638ecbd87b1461040057600080fd5b80637f0558e41461036457806380f70cba146103775780638369a0f1146103985780638a7ff2f7146103a657600080fd5b8063427942a411610187578063640b6cc911610156578063640b6cc914610323578063715018a61461033657806378707cb81461033e5780637dce4f811461035157600080fd5b8063427942a4146102c257806344864b25146102d557806345228235146102e85780635a9078181461031057600080fd5b806321964473116101c3578063219644731461027657806325c955c314610289578063325529081461029c57806342148deb146102af57600080fd5b806286d555146101f457806301a06b971461020957806311cf00f11461021c57806319df62ab1461024b575b600080fd5b610207610202366004611620565b6104ab565b005b610207610217366004611666565b610578565b61022f61022a366004611742565b6105fc565b6040805192151583526020830191909152015b60405180910390f35b61025e610259366004611666565b61062c565b6040516001600160a01b039091168152602001610242565b6102076102843660046117f0565b610660565b610207610297366004611666565b6106ec565b6102076102aa366004611873565b610748565b6102076102bd3660046118be565b6107c5565b6102076102d0366004611913565b610881565b6102076102e3366004611666565b610b31565b6102fb6102f6366004611666565b610b9c565b60408051928352602083019190915201610242565b61020761031e366004611990565b610be4565b610207610331366004611a0c565b610c9e565b610207610cae565b61020761034c366004611a4d565b610cc2565b61020761035f366004611873565b610cd4565b610207610372366004611a0c565b610d34565b61038a610385366004611a0c565b610da7565b604051908152602001610242565b61025e610385366004611a0c565b61038a6103b4366004611666565b610e18565b6103cc6103c7366004611666565b610e45565b6040519015158152602001610242565b6102076103ea366004611666565b610e60565b6000546001600160a01b031661025e565b61020761040e366004611666565b610eec565b610207610421366004611742565b610f5d565b610207610434366004611873565b610fcb565b610207610447366004611666565b611027565b61020761045a366004611aa0565b61105f565b61020761046d366004611666565b6110bf565b6103cc610480366004611873565b611130565b610207610493366004611b0a565b61114b565b6102076104a6366004611620565b6111c4565b80821115806104be575063ffffffff8210155b806104cd575063ffffffff8110155b156104eb576040516370b8cc0560e11b815260040160405180910390fd5b602082901b811761051e85857fe420d96e81cb4a6b2abb2366c4f93312d4e2ae878a7d4b22e73472fdad891f78846111cc565b6040805160018152602081018590529081018390526001600160a01b0380861691908716907f60a59221512cd8cbfb226200f7ba6f20dc4b38a3cf04993d17ea4e56d26aa186906060015b60405180910390a35050505050565b6105a382827fe420d96e81cb4a6b2abb2366c4f93312d4e2ae878a7d4b22e73472fdad891f7861127f565b60408051600080825260208201819052918101919091526001600160a01b0380831691908416907f60a59221512cd8cbfb226200f7ba6f20dc4b38a3cf04993d17ea4e56d26aa186906060015b60405180910390a35050565b600080600061060b8585611340565b9050600061061b87600084610da7565b428110159890975095505050505050565b600061065983837f9f60ae461adf056670e03ae602566409933242392cb06744f5747c9f38b05d09610da7565b9392505050565b828114610680576040516313ba1d5360e11b815260040160405180910390fd5b60005b818110156106e4576106d4868686848181106106a1576106a1611b27565b90506020020160208101906106b69190611b0a565b8585858181106106c8576106c8611b27565b90506020020135610d34565b6106dd81611b3d565b9050610683565b505050505050565b6107008260006106fb84611373565b61127f565b806001600160a01b0316826001600160a01b03167f8bfde939e79b7e6c603d67aa576e5b75a3f370334b14a9b0e5e263190034d31d60006040516105f0911515815260200190565b61077483837f9f60ae461adf056670e03ae602566409933242392cb06744f5747c9f38b05d0984611406565b60408051600181526001600160a01b03838116602083015280851692908616917f14e12f219a4f9023456dc7832e10119ab768b8ccefc8cb79bc6de0419781eeeb91015b60405180910390a3505050565b826107cf816114bb565b60005b8281101561087a57846001600160a01b031663787afde78585848181106107fb576107fb611b27565b90506020020160208101906108109190611b0a565b6040516001600160e01b031960e084901b1681526001600160a01b039091166004820152602401600060405180830381600087803b15801561085157600080fd5b505af1158015610865573d6000803e3d6000fd5b505050508061087390611b3d565b90506107d2565b5050505050565b8461088b816114bb565b6001600160a01b03851615610949576040516311a5465560e21b81526001600160a01b038681166004830152871690634695195490602401600060405180830381600087803b1580156108dd57600080fd5b505af11580156108f1573d6000803e3d6000fd5b50505050846001600160a01b0316639903ad386040518163ffffffff1660e01b8152600401600060405180830381600087803b15801561093057600080fd5b505af1158015610944573d6000803e3d6000fd5b505050505b60005b83811015610a6d57866001600160a01b03166306cecba886868481811061097557610975611b27565b905060200201602081019061098a9190611b0a565b6040516001600160e01b031960e084901b1681526001600160a01b039091166004820152602401600060405180830381600087803b1580156109cb57600080fd5b505af11580156109df573d6000803e3d6000fd5b505050508484828181106109f5576109f5611b27565b9050602002016020810190610a0a9190611b0a565b6001600160a01b0316639903ad386040518163ffffffff1660e01b8152600401600060405180830381600087803b158015610a4457600080fd5b505af1158015610a58573d6000803e3d6000fd5b5050505080610a6690611b3d565b905061094c565b506001600160a01b038216156106e4576040516354fbc49360e01b81526001600160a01b0383811660048301528716906354fbc49390602401600060405180830381600087803b158015610ac057600080fd5b505af1158015610ad4573d6000803e3d6000fd5b50505050816001600160a01b0316639903ad386040518163ffffffff1660e01b8152600401600060405180830381600087803b158015610b1357600080fd5b505af1925050508015610b24575060015b156106e457505050505050565b81610b3b816114bb565b604051631ca0c40360e21b81526001600160a01b038381166004830152841690637283100c906024015b600060405180830381600087803b158015610b7f57600080fd5b505af1158015610b93573d6000803e3d6000fd5b50505050505050565b6000806000610bcc85857fe420d96e81cb4a6b2abb2366c4f93312d4e2ae878a7d4b22e73472fdad891f78610da7565b63ffffffff602082901c811697911695509350505050565b6001600160a01b038616610bfa57610bfa611b64565b6002546001600160a01b031615610c1357610c13611b64565b600280546001600160a01b0319166001600160a01b038816908117909155610c3d90600087610748565b610c4a86600086866104ab565b60005b81811015610b9357600254610c8e906001600160a01b03166000858585818110610c7957610c79611b27565b90506020020160208101906104349190611b0a565b610c9781611b3d565b9050610c4d565b610ca983838361127f565b505050565b610cb66114f2565b610cc0600061154c565b565b610cce84848484611406565b50505050565b610ce283836106fb8461159c565b60408051600181526001600160a01b038381166020830152600092820192909252818416918516907f168da2dec91b2e06e30d49955479383e76f71ba185807a8a5b75e2ed563e1d27906060016107b8565b610d6083837feae305fa863b373417e615b1044222e2806cefc7788d169ce6748a443c3f6cc4846111cc565b6040805160018152602081018390526001600160a01b0380851692908616917fc055c4a3853372c08a98805545379133f00f7261d956b9197729d67f37a82a5391016107b8565b6001600160a01b03808416600090815260016020908152604080832093861683529281528282208483529052908120805460ff16610e0c57506001600160a01b0384166000908152600160209081526040808320838052825280832085845290915290205b60010154949350505050565b600061065983837feae305fa863b373417e615b1044222e2806cefc7788d169ce6748a443c3f6cc4610da7565b6000610e5683600061038585611373565b6001149392505050565b803b6000819003610e8d57604051630db74dbd60e41b815261106860048201526024015b60405180910390fd5b50610ea4826000610e9d84611373565b60016111cc565b806001600160a01b0316826001600160a01b03167f8bfde939e79b7e6c603d67aa576e5b75a3f370334b14a9b0e5e263190034d31d60016040516105f0911515815260200190565b610f1782827feae305fa863b373417e615b1044222e2806cefc7788d169ce6748a443c3f6cc461127f565b60408051600080825260208201526001600160a01b0380841692908516917fc055c4a3853372c08a98805545379133f00f7261d956b9197729d67f37a82a5391016105f0565b6000610f698383611340565b9050610f778460008361127f565b826001600160a01b0316846001600160a01b03167fa22916b55c84301b9ba61d6494b1860339c075b3518e6db6f496bdf2a13d6ffc846000604051610fbd929190611bc0565b60405180910390a350505050565b610fd98383610e9d8461159c565b6040805160018082526001600160a01b03848116602084015292820152818416918516907f168da2dec91b2e06e30d49955479383e76f71ba185807a8a5b75e2ed563e1d27906060016107b8565b81611031816114bb565b6040516315a024e160e01b81526001600160a01b0383811660048301528416906315a024e190602401610b65565b600061106b8484611340565b905061107a85600083856111cc565b836001600160a01b0316856001600160a01b03167fa22916b55c84301b9ba61d6494b1860339c075b3518e6db6f496bdf2a13d6ffc8585604051610569929190611bc0565b6110ea82827f9f60ae461adf056670e03ae602566409933242392cb06744f5747c9f38b05d0961127f565b60408051600080825260208201526001600160a01b0380841692908516917f14e12f219a4f9023456dc7832e10119ab768b8ccefc8cb79bc6de0419781eeeb91016105f0565b600061114084846103858561159c565b600114949350505050565b6111536114f2565b6001600160a01b0381166111b85760405162461bcd60e51b815260206004820152602660248201527f4f776e61626c653a206e6577206f776e657220697320746865207a65726f206160448201526564647265737360d01b6064820152608401610e84565b6111c18161154c565b50565b610cce848484845b836111d6816114bb565b60408051848152600160208201529081018390526001600160a01b0380861691908716907f33afe19ae6902b933890ff48190fabdc4cf7f5ab499be9c4d9d98e3b4562e3909060600160405180910390a350604080518082018252600180825260208083019485526001600160a01b039788166000908152828252848120979098168852958652828720948752939094529093209151825460ff19169015151782559151910155565b82611289816114bb565b826001600160a01b0316846001600160a01b03167f33afe19ae6902b933890ff48190fabdc4cf7f5ab499be9c4d9d98e3b4562e390846000806040516112e2939291909283529015156020830152604082015260600190565b60405180910390a350604080518082018252600080825260208083018281526001600160a01b03978816835260018083528584209790981683529581528382209482529390935291209051815460ff19169015151781559051910155565b60008282604051602001611355929190611be2565b60405160208183030381529060405280519060200120905092915050565b6040805160208101829052603960608201527f6f72672e7375706572666c7569642d66696e616e63652e7375706572666c756960808201527f642e61707057686974654c697374696e672e666163746f72790000000000000060a08201526001600160a01b0383169181019190915260009060c0015b604051602081830303815290604052805190602001209050919050565b83611410816114bb565b60408051848152600160208201526001600160a01b03848116828401529151868316928816917f33afe19ae6902b933890ff48190fabdc4cf7f5ab499be9c4d9d98e3b4562e390919081900360600190a35060408051808201825260018082526001600160a01b03938416602080840191825297851660009081528289528481209790951685529587528284209484529390955290209251835460ff19169015151783559051910155565b6002546001600160a01b038281169116146114d8576114d8611b64565b6000546001600160a01b031633146111c1576111c1611b64565b6000546001600160a01b03163314610cc05760405162461bcd60e51b815260206004820181905260248201527f4f776e61626c653a2063616c6c6572206973206e6f7420746865206f776e65726044820152606401610e84565b600080546001600160a01b038381166001600160a01b0319831681178455604051919092169283917f8be0079c531659141344cd1fd0a4f28419497f9722a3daafe3b4186f6b6457e09190a35050565b6040805160208101829052603260608201527f6f72672e7375706572666c7569642d66696e616e63652e7375706572666c756960808201527132173a393ab9ba32b22337b93bb0b93232b960711b60a08201526001600160a01b0383169181019190915260009060c0016113e9565b6001600160a01b03811681146111c157600080fd5b6000806000806080858703121561163657600080fd5b84356116418161160b565b935060208501356116518161160b565b93969395505050506040820135916060013590565b6000806040838503121561167957600080fd5b82356116848161160b565b915060208301356116948161160b565b809150509250929050565b634e487b7160e01b600052604160045260246000fd5b600082601f8301126116c657600080fd5b813567ffffffffffffffff808211156116e1576116e161169f565b604051601f8301601f19908116603f011681019082821181831017156117095761170961169f565b8160405283815286602085880101111561172257600080fd5b836020870160208301376000602085830101528094505050505092915050565b60008060006060848603121561175757600080fd5b83356117628161160b565b925060208401356117728161160b565b9150604084013567ffffffffffffffff81111561178e57600080fd5b61179a868287016116b5565b9150509250925092565b60008083601f8401126117b657600080fd5b50813567ffffffffffffffff8111156117ce57600080fd5b6020830191508360208260051b85010111156117e957600080fd5b9250929050565b60008060008060006060868803121561180857600080fd5b85356118138161160b565b9450602086013567ffffffffffffffff8082111561183057600080fd5b61183c89838a016117a4565b9096509450604088013591508082111561185557600080fd5b50611862888289016117a4565b969995985093965092949392505050565b60008060006060848603121561188857600080fd5b83356118938161160b565b925060208401356118a38161160b565b915060408401356118b38161160b565b809150509250925092565b6000806000604084860312156118d357600080fd5b83356118de8161160b565b9250602084013567ffffffffffffffff8111156118fa57600080fd5b611906868287016117a4565b9497909650939450505050565b60008060008060006080868803121561192b57600080fd5b85356119368161160b565b945060208601356119468161160b565b9350604086013567ffffffffffffffff81111561196257600080fd5b61196e888289016117a4565b90945092505060608601356119828161160b565b809150509295509295909350565b60008060008060008060a087890312156119a957600080fd5b86356119b48161160b565b955060208701356119c48161160b565b94506040870135935060608701359250608087013567ffffffffffffffff8111156119ee57600080fd5b6119fa89828a016117a4565b979a9699509497509295939492505050565b600080600060608486031215611a2157600080fd5b8335611a2c8161160b565b92506020840135611a3c8161160b565b929592945050506040919091013590565b60008060008060808587031215611a6357600080fd5b8435611a6e8161160b565b93506020850135611a7e8161160b565b9250604085013591506060850135611a958161160b565b939692955090935050565b60008060008060808587031215611ab657600080fd5b8435611ac18161160b565b93506020850135611ad18161160b565b9250604085013567ffffffffffffffff811115611aed57600080fd5b611af9878288016116b5565b949793965093946060013593505050565b600060208284031215611b1c57600080fd5b81356106598161160b565b634e487b7160e01b600052603260045260246000fd5b600060018201611b5d57634e487b7160e01b600052601160045260246000fd5b5060010190565b634e487b7160e01b600052600160045260246000fd5b6000815180845260005b81811015611ba057602081850181015186830182015201611b84565b506000602082860101526020601f19601f83011685010191505092915050565b604081526000611bd36040830185611b7a565b90508260208301529392505050565b60608152604160608201527f6f72672e7375706572666c7569642d66696e616e63652e7375706572666c756960808201527f642e61707057686974654c697374696e672e726567697374726174696f6e4b6560a0820152607960f81b60c082015260018060a01b038316602082015260e060408201526000611c6760e0830184611b7a565b94935050505056fea264697066735822122064dd3694d30961355a902e74d2e5004f0a51d35de5ecba56be0afbc267a79f4564736f6c6343000810003360c06040523480156200001157600080fd5b5060405162004f5338038062004f5383398101604081905262000034916200005b565b901515608052151560a05262000093565b805180151581146200005657600080fd5b919050565b600080604083850312156200006f57600080fd5b6200007a8362000045565b91506200008a6020840162000045565b90509250929050565b60805160a051614e5b620000f86000396000818161058801528181611dab0152818161228a01526126a20152600081816106bc0152818161077e01528181610a1c0152818161104701528181611182015281816112e101526125cc0152614e5b6000f3fe608060405234801561001057600080fd5b50600436106102a05760003560e01c8063768fabb011610167578063bb84cfa1116100ce578063c56a069d11610087578063c56a069d14610697578063cd312ec4146106b7578063e8dccb7d146106de578063f2e55caf14610700578063f373305214610708578063f9f522f41461071b57600080fd5b8063bb84cfa114610609578063bbe4fd5014610645578063bced3ddc1461064b578063bd1c448b1461065e578063bf42873414610671578063c4d66de81461068457600080fd5b80639d297e30116101205780639d297e3014610583578063a5dbbbcd146105aa578063ad3915c8146105bd578063b6d200de146105d0578063b724211e146105e3578063ba48b5f8146105f657600080fd5b8063768fabb01461050a578063787afde71461051d5780638ca48484146105305780639378fa1314610543578063989b0c3e146105685780639903ad381461057b57600080fd5b806350d75d251161020b578063670e77e3116101c4578063670e77e31461049a5780636ad3ca7d146104ad5780636b4f3335146104c05780637283100c146104d3578063731aed6e146104e657806374041e02146104f757600080fd5b806350d75d251461041657806352d1902d1461041e57806354fbc4931461044e57806357121e0c14610461578063572b6c051461047457806359a291411461048757600080fd5b806339255d5b1161025d57806339255d5b146103565780633ca3ad4e146103695780633f6c923a146103a45780634329d293146103c457806346951954146103e5578063486ff0cd146103f857600080fd5b806306cecba8146102a557806315a024e1146102ba5780631e6d0a84146102cd5780631e855cf3146102f6578063289b3c0d1461030957806333d608f114610334575b600080fd5b6102b86102b3366004613da3565b61074b565b005b6102b86102c8366004613da3565b61092b565b6102e06102db366004613e1d565b610b7f565b6040516102ed9190613f03565b60405180910390f35b6102e0610304366004613fd9565b610dca565b6000546201000090046001600160a01b03165b6040516001600160a01b0390911681526020016102ed565b61033e622dc6c081565b6040516001600160401b0390911681526020016102ed565b6102e0610364366004614028565b610de0565b610394610377366004613da3565b6001600160a01b0316600090815260046020526040902054151590565b60405190151581526020016102ed565b6103b76103b236600461409d565b610df6565b6040516102ed91906140d1565b6103d76103d23660046141b2565b610e07565b6040516102ed92919061425e565b6102b86103f3366004613da3565b611014565b604080518082019091526002815261763160f01b60208201526102e0565b61031c611110565b7fcd355cae2c435f8c5e0c626c4691d22fd85aa7422a424c6f0bced6e64c7aba745b6040519081526020016102ed565b6102b861045c366004613da3565b61113f565b6102b861046f366004613da3565b6113c2565b610394610482366004613da3565b611490565b6102e0610495366004614283565b61151a565b6102b86104a83660046142ce565b611600565b6102b86104bb3660046142ce565b611616565b6103946104ce366004613da3565b611621565b6102b86104e1366004613da3565b611645565b6003546001600160a01b031661031c565b6102e0610505366004613e1d565b6116ed565b6102e0610518366004614342565b611840565b6102b861052b366004613da3565b6119e0565b61039461053e366004613da3565b611b23565b610556610551366004613da3565b611be8565b60405160ff90911681526020016102ed565b6102e0610576366004614283565b611c09565b6102b8611ca0565b6103947f000000000000000000000000000000000000000000000000000000000000000081565b6104406105b83660046143bd565b611d5b565b6102b86105cb3660046143df565b611da9565b61031c6105de3660046143df565b611df4565b6102e06105f13660046143f8565b611e5f565b6102e0610604366004614454565b611f24565b6103946106173660046144d6565b6001600160a01b03918216600090815260056020908152604080832093909416825291909152205460ff1690565b42610440565b6104406106593660046143bd565b61223b565b6102b861066c36600461450f565b612288565b61039461067f36600461455a565b6123a0565b6102b8610692366004613da3565b6123e1565b6106aa6106a53660046143df565b6124c5565b6040516102ed919061459b565b6103947f000000000000000000000000000000000000000000000000000000000000000081565b6103946106ec3660046143df565b600090815260026020526040902054151590565b61031c6125af565b6102b86107163660046145e8565b612677565b61072e610729366004613da3565b612783565b6040805193151584529115156020840152908201526060016102ed565b6000546201000090046001600160a01b0316331461077c576040516362e9152760e11b815260040160405180910390fd5b7f0000000000000000000000000000000000000000000000000000000000000000156107bb576040516314f72c9f60e01b815260040160405180910390fd5b6000816001600160a01b0316637730599e6040518163ffffffff1660e01b8152600401602060405180830381865afa1580156107fb573d6000803e3d6000fd5b505050506040513d601f19601f8201168201806040525081019061081f9190614614565b60008181526002602052604081205491925081900361085a57604051639995b0c160e01b8152610bb960048201526024015b60405180910390fd5b600060016108688184614643565b8154811061087857610878614656565b6000918252602090912001546040516311a5465560e21b81526001600160a01b03868116600483015290911691508190634695195490602401600060405180830381600087803b1580156108cb57600080fd5b505af11580156108df573d6000803e3d6000fd5b5050604080518681526001600160a01b03881660208201527f9279aa773f2b588996032d8de89911555039f28b13a11a7c17074330bc082d9a935001905060405180910390a150505050565b6000546201000090046001600160a01b0316331461095c576040516362e9152760e11b815260040160405180910390fd5b6000816001600160a01b0316637730599e6040518163ffffffff1660e01b8152600401602060405180830381865afa15801561099c573d6000803e3d6000fd5b505050506040513d601f19601f820116820180604052508101906109c09190614614565b600081815260026020526040902054909150156109f457604051635b5b42a560e01b8152610bb86004820152602401610851565b60015461010011610a1857604051630f85034f60e31b815260040160405180910390fd5b60007f0000000000000000000000000000000000000000000000000000000000000000610ad2576000604051610a4d90613d26565b604051809103906000f080158015610a69573d6000803e3d6000fd5b50604051634a0687ef60e01b81526001600160a01b03868116600483015291925090821690634a0687ef90602401600060405180830381600087803b158015610ab157600080fd5b505af1158015610ac5573d6000803e3d6000fd5b5050505080915050610ad5565b50815b6001805480820182557fb10e2d527612073b26eecdfd717e6a320cf44b4afac2b0732d9fcbe2b7fa0cf60180546001600160a01b0384166001600160a01b0319909116179055546000838152600260205260409081902091909155517f878135063a6cfb3bc333e534b1fdc83f4f12221cad6705c31c0567048a8bd3d190610b7290849086909182526001600160a01b0316602082015260400190565b60405180910390a1505050565b6060610b8a33611b23565b610bab57604051639aca506b60e01b8152610ce46004820152602401610851565b82828080601f016020809104026020016040519081016040528093929190818152602001838380828437600092019190915250610bed92508391506127d29050565b610bf957610bf961466c565b600080610c738a6000898c8c8080601f01602080910402602001604051908101604052809392919081815260200183838082843760009201919091525050604080516020601f8f018190048102820181019092528d815292508d91508c90819084018382808284376000920191909152506127f292505050565b915091508115610d8357610c868161297f565b15610d1b5780806020019051810190610c9f91906146c7565b9350610caa846127d2565b610d165786610ccf5760405163a85ba64f60e01b815260146004820152602401610851565b85858080601f016020809104026020016040519081016040528093929190818152602001838380828437600092019190915250929650610d1692508c9150601490506129d3565b610dbd565b86610d3c5760405163a85ba64f60e01b815260166004820152602401610851565b85858080601f016020809104026020016040519081016040528093929190818152602001838380828437600092019190915250929650610d1692508c9150601690506129d3565b85858080601f0160208091040260200160405190810160405280939291908181526020018383808284376000920191909152509296505050505b5050509695505050505050565b6060610dd7338484612a48565b90505b92915050565b6060610dee33858585612c83565b949350505050565b610dfe613d33565b610dda82612d96565b60608083838080601f016020809104026020016040519081016040528093929190818152602001838380828437600092019190915250610e4c92508391506127d29050565b610e6c5760405163a85ba64f60e01b815260146004820152602401610851565b89610e7681611b23565b610e9757604051639aca506b60e01b8152610ce46004820152602401610851565b6000610ed887878080601f016020809104026020016040519081016040528093929190818152602001838380828437600092019190915250610df692505050565b6101208101519091506001600160a01b03163314610f095760405163066875e160e11b815260040160405180910390fd5b60608101805133909152604080516020601f8c018190048102820181019092528a8152908b908b908190840183828082843760009201919091525050505060a0830152610f5582612e61565b95506000610f9b8e8e8e8080601f0160208091040260200160405190810160405280939291908181526020018383808284376000920191909152508c9250612f95915050565b965090508015610ffa5785806020019051810190610fb991906146c7565b9650610fc4876127d2565b610fd057610fd061466c565b610fd987610df6565b6001600160a01b03831660608201529250610ff383612e61565b9650611003565b6110038661304e565b505050505097509795505050505050565b6000546201000090046001600160a01b03163314611045576040516362e9152760e11b815260040160405180910390fd5b7f000000000000000000000000000000000000000000000000000000000000000015611084576040516314f72c9f60e01b815260040160405180910390fd5b806001600160a01b031663cd312ec46040518163ffffffff1660e01b8152600401602060405180830381865afa1580156110c2573d6000803e3d6000fd5b505050506040513d601f19601f820116820180604052508101906110e691906146fb565b156111045760405163474e764160e01b815260040160405180910390fd5b61110d81613159565b50565b600061113a7f360894a13ba1a3210667c828492db98dca3e2076cc3735a920a3ca505d382bbc5490565b905090565b6000546201000090046001600160a01b03163314611170576040516362e9152760e11b815260040160405180910390fd5b6003546001600160a01b03166112df577f00000000000000000000000000000000000000000000000000000000000000006112565760006040516111b390613d26565b604051809103906000f0801580156111cf573d6000803e3d6000fd5b50604051634a0687ef60e01b81526001600160a01b03848116600483015291925090821690634a0687ef90602401600060405180830381600087803b15801561121757600080fd5b505af115801561122b573d6000803e3d6000fd5b5050600380546001600160a01b0319166001600160a01b039490941693909317909255506112729050565b600380546001600160a01b0319166001600160a01b0383161790555b600360009054906101000a90046001600160a01b03166001600160a01b0316638129fc1c6040518163ffffffff1660e01b8152600401600060405180830381600087803b1580156112c257600080fd5b505af11580156112d6573d6000803e3d6000fd5b5050505061137e565b7f00000000000000000000000000000000000000000000000000000000000000001561131e576040516314f72c9f60e01b815260040160405180910390fd5b6003546040516311a5465560e21b81526001600160a01b03838116600483015290911690634695195490602401600060405180830381600087803b15801561136557600080fd5b505af1158015611379573d6000803e3d6000fd5b505050505b6003546040516001600160a01b0390911681527fce13a9895a1719ad4493b2ac1a9bfb36070566161abab408e7ecbe586da8d499906020015b60405180910390a150565b336000818152600460205260409020546113ef576040516302eb3f7160e61b815260040160405180910390fd5b6001600160a01b03821660009081526004602052604090205461142557604051634b5518af60e11b815260040160405180910390fd5b61142e82611be8565b60ff1661143a82611be8565b60ff161161145b57604051630447252760e41b815260040160405180910390fd5b6001600160a01b039081166000908152600560209081526040808320949093168252929092529020805460ff19166001179055565b600080546201000090046001600160a01b03166380f70cba30836114b386613393565b6040518463ffffffff1660e01b81526004016114d193929190614718565b602060405180830381865afa1580156114ee573d6000803e3d6000fd5b505050506040513d601f19601f820116820180604052508101906115129190614614565b151592915050565b606061152533611b23565b61154657604051639aca506b60e01b8152610ce46004820152602401610851565b83838080601f01602080910402602001604051908101604052809392919081815260200183838082843760009201919091525061158892508391506127d29050565b6115945761159461466c565b60006115d586868080601f016020809104026020016040519081016040528093929190818152602001838380828437600092019190915250610df692505050565b90508381610100018181516115ea919061473c565b9052506115f681612e61565b9695505050505050565b61161261160b61341b565b8383613483565b5050565b611612338383613483565b6001600160a01b038116600090815260046020526040812054618000161515610dda565b6000546201000090046001600160a01b03163314611676576040516362e9152760e11b815260040160405180910390fd5b600054604080516001600160a01b03620100009093048316815291831660208301527f13abda02e63c790d0e2818b251282cfe5cbe0a8abd69c54bf5d2260c0907bd2e910160405180910390a1600080546001600160a01b03909216620100000262010000600160b01b0319909216919091179055565b60606116f833611b23565b61171957604051639aca506b60e01b8152610ce46004820152602401610851565b82828080601f01602080910402602001604051908101604052809392919081815260200183838082843760009201919091525061175b92508391506127d29050565b6117675761176761466c565b6000806117e18a6001898c8c8080601f01602080910402602001604051908101604052809392919081815260200183838082843760009201919091525050604080516020601f8f018190048102820181019092528d815292508d91508c90819084018382808284376000920191909152506127f292505050565b915091508115610dbd576117f48161297f565b15611814578080602001905181019061180d91906146c7565b9350610dbd565b866118355760405163a85ba64f60e01b815260166004820152602401610851565b610dbd8a60166129d3565b606061184b33611b23565b61186c57604051639aca506b60e01b8152610ce46004820152602401610851565b86868080601f0160208091040260200160405190810160405280939291908181526020018383808284376000920191909152506118ae92508391506127d29050565b6118ba576118ba61466c565b60006118fb89898080601f016020809104026020016040519081016040528093929190818152602001838380828437600092019190915250610df692505050565b905061192281606001516001600160a01b0316600090815260046020526040902054151590565b801561193657506001816000015160ff1610155b156119895760608101516001600160a01b039081166000908152600560209081526040808320938b168352929052205460ff166119895760405163a85ba64f60e01b8152601e6004820152602401610851565b80518161199582614764565b60ff169052506003602082015260c0810186905261010081018590526001600160a01b0380881661012083015284166101408201526119d381612e61565b9998505050505050505050565b6000546201000090046001600160a01b03163314611a11576040516362e9152760e11b815260040160405180910390fd5b60035460408051634a3852d960e11b815290516000926001600160a01b031691639470a5b29160048083019260209291908290030181865afa158015611a5b573d6000803e3d6000fd5b505050506040513d601f19601f82011682018060405250810190611a7f9190614783565b6040516311a5465560e21b81526001600160a01b03808316600483015291925090831690634695195490602401600060405180830381600087803b158015611ac657600080fd5b505af1158015611ada573d6000803e3d6000fd5b50506040516001600160a01b038481168252851692507f840acbd291b38534819f47f875839277e502f40e1c7bfea2c5fc2c8017442cd391506020015b60405180910390a25050565b600080826001600160a01b0316637730599e6040518163ffffffff1660e01b8152600401602060405180830381865afa158015611b64573d6000803e3d6000fd5b505050506040513d601f19601f82011682018060405250810190611b889190614614565b6000818152600260205260409020549091508015801590610dee57506001600160a01b0384166001611bba8184614643565b81548110611bca57611bca614656565b6000918252602090912001546001600160a01b031614949350505050565b6001600160a01b03811660009081526004602052604081205460ff16610dda565b6060611c1433611b23565b611c3557604051639aca506b60e01b8152610ce46004820152602401610851565b6000611c7685858080601f016020809104026020016040519081016040528093929190818152602001838380828437600092019190915250610df692505050565b9050828161010001818151611c8b919061473c565b905250611c9781612e61565b95945050505050565b600054610100900460ff1615808015611cc05750600054600160ff909116105b80611cda5750303b158015611cda575060005460ff166001145b611cf65760405162461bcd60e51b8152600401610851906147a0565b6000805460ff191660011790558015611d19576000805461ff0019166101001790555b801561110d576000805461ff0019169055604051600181527f7f26b83ff96e1f2b6a682f133852f6798a09c465da95921460cefb3847402498906020016113b7565b600081815260026020526040812054808203611d8e57604051639995b0c160e01b8152610bb96004820152602401610851565b611d99600182614643565b6001901b19841691505092915050565b7f000000000000000000000000000000000000000000000000000000000000000015611de8576040516305b93ebf60e41b815260040160405180910390fd5b61110d813360016139a1565b600081815260026020526040812054808203611e2757604051639995b0c160e01b8152610bb96004820152602401610851565b6001611e338183614643565b81548110611e4357611e43614656565b6000918252602090912001546001600160a01b03169392505050565b6060611e6a33611b23565b611e8b57604051639aca506b60e01b8152610ce46004820152602401610851565b84848080601f016020809104026020016040519081016040528093929190818152602001838380828437600092019190915250611ecd92508391506127d29050565b611ed957611ed961466c565b611ee384846129d3565b85858080601f016020809104026020016040519081016040528093929190818152602001838380828437600092019190915250929998505050505050505050565b606082828080601f016020809104026020016040519081016040528093929190818152602001838380828437600092019190915250611f6892508391506127d29050565b611f885760405163a85ba64f60e01b815260146004820152602401610851565b6001600160a01b0387166000908152600460205260408120548891819003611fc35760405163163cbe4360e01b815260040160405180910390fd5b618000811615611fe557604051628e12d960e21b815260040160405180910390fd5b87878080601f016020809104026020016040519081016040528093929190818152602001838380828437600092018290525092506120269150839050613ac0565b90506001600160e01b031981166330d9c91560e01b148061205757506001600160e01b0319811663d86ed3e560e01b145b8061207257506001600160e01b03198116630221347d60e61b145b8061208d57506001600160e01b0319811663230dbd2960e01b145b806120a857506001600160e01b03198116635f9e7d7760e01b145b806120c357506001600160e01b031981166353c11f9960e01b145b156120e1576040516377a14afb60e11b815260040160405180910390fd5b600061212289898080601f016020809104026020016040519081016040528093929190818152602001838380828437600092019190915250610df692505050565b6101208101519091506001600160a01b03163314612153576040516311cfdef560e21b815260040160405180910390fd5b6060810180513390915261216682612e61565b97506000806121ad8f8f8f8080601f0160208091040260200160405190810160405280939291908181526020018383808284376000920191909152508f9250612f95915050565b91509150811561222057808060200190518101906121cb91906146c7565b99506121d68a6127d2565b6121f65760405163a85ba64f60e01b815260146004820152602401610851565b6121ff8a610df6565b6001600160a01b0384166060820152935061221984612e61565b9950612229565b6122298161304e565b50505050505050505095945050505050565b60008181526002602052604081205480820361226e57604051639995b0c160e01b8152610bb96004820152602401610851565b612279600182614643565b6001901b841791505092915050565b7f00000000000000000000000000000000000000000000000000000000000000001561238f5760006122f03284848080601f016020809104026020016040519081016040528093929190818152602001838380828437600092019190915250613b1c92505050565b6000805460405163407b865d60e11b81529293504292620100009091046001600160a01b0316916380f70cba9161232d9130918790600401614718565b602060405180830381865afa15801561234a573d6000803e3d6000fd5b505050506040513d601f19601f8201168201806040525081019061236e9190614614565b101561238d576040516319ab84d160e01b815260040160405180910390fd5b505b61239b833360016139a1565b505050565b6000610dd783838080601f0160208091040260200160405190810160405280939291908181526020018383808284376000920191909152506127d292505050565b600054610100900460ff16158080156124015750600054600160ff909116105b8061241b5750303b15801561241b575060005460ff166001145b6124375760405162461bcd60e51b8152600401610851906147a0565b6000805460ff19166001179055801561245a576000805461ff0019166101001790555b6000805462010000600160b01b031916620100006001600160a01b038516021790558015611612576000805461ff0019169055604051600181527f7f26b83ff96e1f2b6a682f133852f6798a09c465da95921460cefb38474024989060200160405180910390a15050565b60606000806001805490506001600160401b038111156124e7576124e7613f16565b604051908082528060200260200182016040528015612510578160200160208202803683370190505b50925060009050600091505b6001548210156125a7576001821b841615612597576001828154811061254457612544614656565b6000918252602090912001546001600160a01b03168382612564816147ee565b93508151811061257657612576614656565b60200260200101906001600160a01b031690816001600160a01b0316815250505b6125a0826147ee565b915061251c565b825250919050565b6003546000906001600160a01b03166125ca576125ca61466c565b7f00000000000000000000000000000000000000000000000000000000000000001561260057506003546001600160a01b031690565b600360009054906101000a90046001600160a01b03166001600160a01b03166350d75d256040518163ffffffff1660e01b8152600401602060405180830381865afa158015612653573d6000803e3d6000fd5b505050506040513d601f19601f8201168201806040525081019061113a9190614783565b333b600081900361269f57604051630db74dbd60e41b8152610c806004820152602401610851565b507f0000000000000000000000000000000000000000000000000000000000000000156127775760006126d133613b4f565b6000805460405163407b865d60e11b81529293509091620100009091046001600160a01b0316906380f70cba9061271090309085908790600401614718565b602060405180830381865afa15801561272d573d6000803e3d6000fd5b505050506040513d601f19601f820116820180604052508101906127519190614614565b6001149050806127745760405163289533c560e01b815260040160405180910390fd5b50505b611612818360006139a1565b6001600160a01b0381166000908152600460209081526040808320815192830190915254808252158015929182916127ca57805161800081161515935064ff000000001691505b509193909250565b60008151600014158015610dda5750600654825160208401201492915050565b600060606001600160a01b03871661280c5761280c61466c565b6128168484613bc9565b935060005a9050861561289457876001600160a01b0316622dc6c06001600160401b0316866040516128489190614807565b6000604051808303818686fa925050503d8060008114612884576040519150601f19603f3d011682016040523d82523d6000602084013e612889565b606091505b509093509150612903565b876001600160a01b0316622dc6c06001600160401b0316866040516128b99190614807565b60006040518083038160008787f1925050503d80600081146128f7576040519150601f19603f3d011682016040523d82523d6000602084013e6128fc565b606091505b5090935091505b8261297457612913603f82614823565b5a1115612938578561292d576129288261304e565b612974565b61292888600a6129d3565b60405162461bcd60e51b815260206004820152601160248201527053463a206e656564206d6f72652067617360781b6044820152606401610851565b509550959350505050565b600060408251101561299357506000919050565b6020828101519060009082146129ad575060009392505050565b5060408301516129bc81613c80565b6129c7906040614845565b84511492505050919050565b6001600160a01b038216600090815260046020526040812054618000169003611612576001600160a01b038216600081815260046020526040908190208054618000179055517fbe3aa33bd245135e4e26b223d79d14ea479a47bff09f2b03c53838af1edbb14b90611b179084815260200190565b60065460609015612a6f5760405163a85ba64f60e01b815260156004820152602401610851565b6001600160a01b0383166000908152600460205260408120548491819003612aaa5760405163163cbe4360e01b815260040160405180910390fd5b618000811615612acc57604051628e12d960e21b815260040160405180910390fd5b836000612ad882613ac0565b90506001600160e01b031981166330d9c91560e01b1480612b0957506001600160e01b0319811663d86ed3e560e01b145b80612b2457506001600160e01b03198116630221347d60e61b145b80612b3f57506001600160e01b0319811663230dbd2960e01b145b80612b5a57506001600160e01b03198116635f9e7d7760e01b145b80612b7557506001600160e01b031981166353c11f9960e01b145b15612b93576040516377a14afb60e11b815260040160405180910390fd5b60408051610160810182526000808252600260208084019190915242838501526001600160a01b03808d16606085015260808401839052845191820190945281815260a083015260c0820181905260e0820181905261010082018190529189166101208201526101408101829052612c0a90612e61565b90506000612c19898984612f95565b975090508015612c675786806020019051810190612c3791906146c7565b9150612c42826127d2565b612c625760405163a85ba64f60e01b815260146004820152602401610851565b612c70565b612c708761304e565b5050600060065550929695505050505050565b60065460609015612caa5760405163a85ba64f60e01b815260156004820152602401610851565b83612cb481611b23565b612cd557604051639aca506b60e01b8152610ce46004820152602401610851565b6000612ce085613ac0565b6040805161016081018252600080825260016020830152929350612d639181014281526020018a6001600160a01b03168152602001846001600160e01b031916815260200187815260200160008152602001600081526020016000815260200160006001600160a01b0316815260200160006001600160a01b0316815250612e61565b90506000612d72888884612f95565b9550905080612d8457612d848561304e565b50506000600655509095945050505050565b612d9e613d33565b60608083806020019051810190612db59190614858565b81519193509150600090612dd290840160209081019085016148b1565b60a08901526001600160e01b03191660808801526001600160a01b031660608701526040860152602081811c600f168187015260ff9091168552825160009250612e23919084018101908401614935565b6001600160a01b03908116610140890152166101208701526101008601526001600160801b03811660c086015260801c60e085015250919392505050565b60606001826000015160ff161115612e8f5760405163a85ba64f60e01b815260286004820152602401610851565b815160208084015160009260ff1664ff000000009190921b1617905060006080612ebc8560e00151613cb9565b6001600160801b0316901b612ed48560c00151613cb9565b6001600160801b0316179050818460400151856060015186608001518760a00151604051602001612f09959493929190614980565b60408051601f1981840301815282825261010087015161012088015161014089015160208601879052938501919091526001600160a01b03908116606085015290911660808301529060a00160408051601f1981840301815290829052612f73929160200161425e565b60408051601f1981840301815291905280516020820120600655949350505050565b600060606001600160a01b038516612faf57612faf61466c565b612fb98484613bc9565b9350846001600160a01b031684604051612fd39190614807565b6000604051808303816000865af19150503d8060008114613010576040519150601f19603f3d011682016040523d82523d6000602084013e613015565b606091505b50909250905081156130465780516000036130465760405163a85ba64f60e01b815260166004820152602401610851565b935093915050565b6004815110156130a05760405162461bcd60e51b815260206004820152601a60248201527f43616c6c5574696c733a207461726765742072657665727428290000000000006044820152606401610851565b602081015163b1b7848f60e01b6001600160e01b03198216016131505760408051808201825260208082527f43616c6c5574696c733a207461726765742070616e69636b65643a2030785f5f90820190815260248501517f43616c6c5574696c733a207461726765742070616e69636b65643a2030780000600482811c600f908116603090810160081b918516011791909117909252925162461bcd60e51b815291929161085191849101613f03565b81518060208401fd5b60006131837f360894a13ba1a3210667c828492db98dca3e2076cc3735a920a3ca505d382bbc5490565b6001600160a01b0316036131d95760405162461bcd60e51b815260206004820152601d60248201527f5555505350726f786961626c653a206e6f742075706772616461626c650000006044820152606401610851565b806001600160a01b03166352d1902d6040518163ffffffff1660e01b8152600401602060405180830381865afa158015613217573d6000803e3d6000fd5b505050506040513d601f19601f8201168201806040525081019061323b9190614614565b7fcd355cae2c435f8c5e0c626c4691d22fd85aa7422a424c6f0bced6e64c7aba74146132b55760405162461bcd60e51b815260206004820152602360248201527f5555505350726f786961626c653a206e6f7420636f6d70617469626c65206c6f60448201526267696360e81b6064820152608401610851565b6001600160a01b038116300361330d5760405162461bcd60e51b815260206004820152601960248201527f5555505350726f786961626c653a2070726f7879206c6f6f70000000000000006044820152606401610851565b613335817f360894a13ba1a3210667c828492db98dca3e2076cc3735a920a3ca505d382bbc55565b7fe011bc04c286c344a8fcbb8de77f953da762c3e25d8cdea984147fc4168a5dcc7fcd355cae2c435f8c5e0c626c4691d22fd85aa7422a424c6f0bced6e64c7aba74604080519182526001600160a01b0384166020830152016113b7565b6040805160208101829052603260608201527f6f72672e7375706572666c7569642d66696e616e63652e7375706572666c756960808201527132173a393ab9ba32b22337b93bb0b93232b960711b60a08201526001600160a01b0383169181019190915260009060c0015b604051602081830303815290604052805190602001209050919050565b600060183610801590613432575061343233611490565b6134765760405162461bcd60e51b81526020600482015260156024820152742737ba103a393ab9ba32b2103337b93bb0b93232b960591b6044820152606401610851565b5060131936013560601c90565b60005b8181101561399b5760008383838181106134a2576134a2614656565b90506020028101906134b491906149cc565b6134c29060208101906149e2565b905060001963ffffffff8216016135b6576000808585858181106134e8576134e8614656565b90506020028101906134fa91906149cc565b613508906040810190614a08565b81019061351591906145e8565b9150915085858581811061352b5761352b614656565b905060200281019061353d91906149cc565b61354e906040810190602001613da3565b6001600160a01b03166362aa52878884846040518463ffffffff1660e01b815260040161357d93929190614718565b600060405180830381600087803b15801561359757600080fd5b505af11580156135ab573d6000803e3d6000fd5b50505050505061398a565b60011963ffffffff8216016136c05760008060008686868181106135dc576135dc614656565b90506020028101906135ee91906149cc565b6135fc906040810190614a08565b8101906136099190614a4e565b92509250925086868681811061362157613621614656565b905060200281019061363391906149cc565b613644906040810190602001613da3565b604051630b682aeb60e11b81526001600160a01b038a81166004830152858116602483015284811660448301526064820184905291909116906316d055d690608401600060405180830381600087803b1580156136a057600080fd5b505af11580156136b4573d6000803e3d6000fd5b5050505050505061398a565b60641963ffffffff8216016137b5578383838181106136e1576136e1614656565b90506020028101906136f391906149cc565b613704906040810190602001613da3565b6001600160a01b031663ca7894648686868681811061372557613725614656565b905060200281019061373791906149cc565b613745906040810190614a08565b81019061375291906143df565b6040516001600160e01b031960e085901b1681526001600160a01b0390921660048301526024820152604401600060405180830381600087803b15801561379857600080fd5b505af11580156137ac573d6000803e3d6000fd5b5050505061398a565b60651963ffffffff82160161381a578383838181106137d6576137d6614656565b90506020028101906137e891906149cc565b6137f9906040810190602001613da3565b6001600160a01b031663245887fc8686868681811061372557613725614656565b60c81963ffffffff8216016138b75760008085858581811061383e5761383e614656565b905060200281019061385091906149cc565b61385e906040810190614a08565b81019061386b9190614a8f565b915091506138af8787878781811061388557613885614656565b905060200281019061389791906149cc565b6138a8906040810190602001613da3565b8484612c83565b50505061398a565b60c91963ffffffff8216016139715761396b858585858181106138dc576138dc614656565b90506020028101906138ee91906149cc565b6138ff906040810190602001613da3565b86868681811061391157613911614656565b905060200281019061392391906149cc565b613931906040810190614a08565b8080601f016020809104026020016040519081016040528093929190818152602001838380828437600092019190915250612a4892505050565b5061398a565b60405163b477011560e01b815260040160405180910390fd5b50613994816147ee565b9050613486565b50505050565b3233036139c45760405163a85ba64f60e01b815260026004820152602401610851565b80156139f057813b80156139ee5760405163a85ba64f60e01b815260016004820152602401610851565b505b64ff000080ff198316151580613a07575060ff8316155b80613a155750618000831615155b15613a3357604051633d3200a960e21b815260040160405180910390fd5b6001600160a01b03821660009081526004602052604090205415613a6a576040516301b0a93560e01b815260040160405180910390fd5b60408051602080820183528582526001600160a01b038516600081815260049092528382209251909255915190917f0d540ad8f39e07d19909687352b9fa017405d93c91a6760981fbae9cf28bfef791a2505050565b6000600482511015613b145760405162461bcd60e51b815260206004820152601b60248201527f43616c6c5574696c733a20696e76616c69642063616c6c4461746100000000006044820152606401610851565b506020015190565b60008282604051602001613b31929190614ae8565b60405160208183030381529060405280519060200120905092915050565b6040805160208101829052603960608201527f6f72672e7375706572666c7569642d66696e616e63652e7375706572666c756960808201527f642e61707057686974654c697374696e672e666163746f72790000000000000060a08201526001600160a01b0383169181019190915260009060c0016133fe565b815180830151606091908015613bf2576040516367e9985b60e01b815260040160405180910390fd5b50601f1981018452825184908481613c0981613c80565b613c139190614643565b6001600160401b03811115613c2a57613c2a613f16565b6040519080825280601f01601f191660200182016040528015613c54576020820181803683370190505b50604051602001613c689493929190614b6d565b60405160208183030381529060405291505092915050565b60008082601f1611613c93576000613c96565b60015b60ff16613ca4602084614823565b613cae9190614845565b610dda906020614bbc565b60006001600160801b03821115613d225760405162461bcd60e51b815260206004820152602760248201527f53616665436173743a2076616c756520646f65736e27742066697420696e20316044820152663238206269747360c81b6064820152608401610851565b5090565b61024a80614bdc83390190565b604080516101608101825260008082526020820181905291810182905260608082018390526080820183905260a082015260c0810182905260e081018290526101008101829052610120810182905261014081019190915290565b6001600160a01b038116811461110d57600080fd5b600060208284031215613db557600080fd5b8135613dc081613d8e565b9392505050565b60008083601f840112613dd957600080fd5b5081356001600160401b03811115613df057600080fd5b602083019150836020828501011115613e0857600080fd5b9250929050565b801515811461110d57600080fd5b60008060008060008060808789031215613e3657600080fd5b8635613e4181613d8e565b955060208701356001600160401b0380821115613e5d57600080fd5b613e698a838b01613dc7565b909750955060408901359150613e7e82613e0f565b90935060608801359080821115613e9457600080fd5b50613ea189828a01613dc7565b979a9699509497509295939492505050565b60005b83811015613ece578181015183820152602001613eb6565b50506000910152565b60008151808452613eef816020860160208601613eb3565b601f01601f19169290920160200192915050565b602081526000610dd76020830184613ed7565b634e487b7160e01b600052604160045260246000fd5b604051601f8201601f191681016001600160401b0381118282101715613f5457613f54613f16565b604052919050565b60006001600160401b03821115613f7557613f75613f16565b50601f01601f191660200190565b600082601f830112613f9457600080fd5b8135613fa7613fa282613f5c565b613f2c565b818152846020838601011115613fbc57600080fd5b816020850160208301376000918101602001919091529392505050565b60008060408385031215613fec57600080fd5b8235613ff781613d8e565b915060208301356001600160401b0381111561401257600080fd5b61401e85828601613f83565b9150509250929050565b60008060006060848603121561403d57600080fd5b833561404881613d8e565b925060208401356001600160401b038082111561406457600080fd5b61407087838801613f83565b9350604086013591508082111561408657600080fd5b5061409386828701613f83565b9150509250925092565b6000602082840312156140af57600080fd5b81356001600160401b038111156140c557600080fd5b610dee84828501613f83565b602081526140e560208201835160ff169052565b600060208301516140fb604084018260ff169052565b5060408301516060830152606083015161412060808401826001600160a01b03169052565b5060808301516001600160e01b0319811660a08401525060a08301516101608060c0850152614153610180850183613ed7565b915060c085015160e085015260e0850151610100818187015280870151915050610120818187015280870151915050610140614199818701836001600160a01b03169052565b909501516001600160a01b031693019290925250919050565b60008060008060008060006080888a0312156141cd57600080fd5b87356141d881613d8e565b965060208801356001600160401b03808211156141f457600080fd5b6142008b838c01613dc7565b909850965060408a013591508082111561421957600080fd5b6142258b838c01613dc7565b909650945060608a013591508082111561423e57600080fd5b5061424b8a828b01613dc7565b989b979a50959850939692959293505050565b6040815260006142716040830185613ed7565b8281036020840152611c978185613ed7565b60008060006040848603121561429857600080fd5b83356001600160401b038111156142ae57600080fd5b6142ba86828701613dc7565b909790965060209590950135949350505050565b600080602083850312156142e157600080fd5b82356001600160401b03808211156142f857600080fd5b818501915085601f83011261430c57600080fd5b81358181111561431b57600080fd5b8660208260051b850101111561433057600080fd5b60209290920196919550909350505050565b60008060008060008060a0878903121561435b57600080fd5b86356001600160401b0381111561437157600080fd5b61437d89828a01613dc7565b909750955050602087013561439181613d8e565b9350604087013592506060870135915060808701356143af81613d8e565b809150509295509295509295565b600080604083850312156143d057600080fd5b50508035926020909101359150565b6000602082840312156143f157600080fd5b5035919050565b6000806000806060858703121561440e57600080fd5b84356001600160401b0381111561442457600080fd5b61443087828801613dc7565b909550935050602085013561444481613d8e565b9396929550929360400135925050565b60008060008060006060868803121561446c57600080fd5b853561447781613d8e565b945060208601356001600160401b038082111561449357600080fd5b61449f89838a01613dc7565b909650945060408801359150808211156144b857600080fd5b506144c588828901613dc7565b969995985093965092949392505050565b600080604083850312156144e957600080fd5b82356144f481613d8e565b9150602083013561450481613d8e565b809150509250929050565b60008060006040848603121561452457600080fd5b8335925060208401356001600160401b0381111561454157600080fd5b61454d86828701613dc7565b9497909650939450505050565b6000806020838503121561456d57600080fd5b82356001600160401b0381111561458357600080fd5b61458f85828601613dc7565b90969095509350505050565b6020808252825182820181905260009190848201906040850190845b818110156145dc5783516001600160a01b0316835292840192918401916001016145b7565b50909695505050505050565b600080604083850312156145fb57600080fd5b823561460681613d8e565b946020939093013593505050565b60006020828403121561462657600080fd5b5051919050565b634e487b7160e01b600052601160045260246000fd5b81810381811115610dda57610dda61462d565b634e487b7160e01b600052603260045260246000fd5b634e487b7160e01b600052600160045260246000fd5b600082601f83011261469357600080fd5b81516146a1613fa282613f5c565b8181528460208386010111156146b657600080fd5b610dee826020830160208701613eb3565b6000602082840312156146d957600080fd5b81516001600160401b038111156146ef57600080fd5b610dee84828501614682565b60006020828403121561470d57600080fd5b8151613dc081613e0f565b6001600160a01b039384168152919092166020820152604081019190915260600190565b808201828112600083128015821682158216171561475c5761475c61462d565b505092915050565b600060ff821660ff810361477a5761477a61462d565b60010192915050565b60006020828403121561479557600080fd5b8151613dc081613d8e565b6020808252602e908201527f496e697469616c697a61626c653a20636f6e747261637420697320616c72656160408201526d191e481a5b9a5d1a585b1a5e995960921b606082015260800190565b6000600182016148005761480061462d565b5060010190565b60008251614819818460208701613eb3565b9190910192915050565b60008261484057634e487b7160e01b600052601260045260246000fd5b500490565b80820180821115610dda57610dda61462d565b6000806040838503121561486b57600080fd5b82516001600160401b038082111561488257600080fd5b61488e86838701614682565b935060208501519150808211156148a457600080fd5b5061401e85828601614682565b600080600080600060a086880312156148c957600080fd5b855194506020860151935060408601516148e281613d8e565b60608701519093506001600160e01b03198116811461490057600080fd5b60808701519092506001600160401b0381111561491c57600080fd5b61492888828901614682565b9150509295509295909350565b6000806000806080858703121561494b57600080fd5b8451935060208501519250604085015161496481613d8e565b606086015190925061497581613d8e565b939692955090935050565b858152602081018590526001600160a01b03841660408201526001600160e01b03198316606082015260a0608082018190526000906149c190830184613ed7565b979650505050505050565b60008235605e1983360301811261481957600080fd5b6000602082840312156149f457600080fd5b813563ffffffff81168114613dc057600080fd5b6000808335601e19843603018112614a1f57600080fd5b8301803591506001600160401b03821115614a3957600080fd5b602001915036819003821315613e0857600080fd5b600080600060608486031215614a6357600080fd5b8335614a6e81613d8e565b92506020840135614a7e81613d8e565b929592945050506040919091013590565b60008060408385031215614aa257600080fd5b82356001600160401b0380821115614ab957600080fd5b614ac586838701613f83565b93506020850135915080821115614adb57600080fd5b5061401e85828601613f83565b60608152604160608201527f6f72672e7375706572666c7569642d66696e616e63652e7375706572666c756960808201527f642e61707057686974654c697374696e672e726567697374726174696f6e4b6560a0820152607960f81b60c082015260018060a01b038316602082015260e060408201526000610dee60e0830184613ed7565b600085516020614b808285838b01613eb3565b81840191508682528551614b9981838501848a01613eb3565b8551920191614bad81838501848901613eb3565b91909101019695505050505050565b6000816000190483118215151615614bd657614bd661462d565b50029056fe608060405234801561001057600080fd5b5061022a806100206000396000f3fe6080604052600436106100225760003560e01c80634a0687ef1461003957610031565b366100315761002f610059565b005b61002f610059565b34801561004557600080fd5b5061002f6100543660046101c4565b61006b565b610069610064610171565b6101a0565b565b6001600160a01b0381166100c65760405162461bcd60e51b815260206004820152601760248201527f5555505350726f78793a207a65726f206164647265737300000000000000000060448201526064015b60405180910390fd5b60006100f07f360894a13ba1a3210667c828492db98dca3e2076cc3735a920a3ca505d382bbc5490565b6001600160a01b0316146101465760405162461bcd60e51b815260206004820152601e60248201527f5555505350726f78793a20616c726561647920696e697469616c697a6564000060448201526064016100bd565b61016e817f360894a13ba1a3210667c828492db98dca3e2076cc3735a920a3ca505d382bbc55565b50565b600061019b7f360894a13ba1a3210667c828492db98dca3e2076cc3735a920a3ca505d382bbc5490565b905090565b3660008037600080366000845af43d6000803e8080156101bf573d6000f35b3d6000fd5b6000602082840312156101d657600080fd5b81356001600160a01b03811681146101ed57600080fd5b939250505056fea2646970667358221220a57ba740f90bd95782f6bee62bc339294c451bcd144bb411f8501e4b1f093d3864736f6c63430008100033a2646970667358221220b32e042de30ec3efdd0e69d1ef2c2561251a870a2c54bc429e3f152f1a0867b864736f6c6343000810003360c06040523480156200001157600080fd5b506040516200550038038062005500833981016040819052620000349162000065565b6001600160a01b039182166080521660a052620000a4565b6001600160a01b03811681146200006257600080fd5b50565b600080604083850312156200007957600080fd5b825162000086816200004c565b602084015190925062000099816200004c565b809150509250929050565b60805160a05161540c620000f4600039600081816102d501528181611cb701528181611ce601528181612785015281816127b401528181612a190152612a480152600061076a015261540c6000f3fe608060405234801561001057600080fd5b50600436106101ce5760003560e01c806350d75d251161010457806394229ecb116100a2578063aabd266811610071578063aabd266814610483578063b4b333c614610496578063e6a1e888146104a9578063e8e7e2d1146104bc57600080fd5b806394229ecb1461043a5780639903ad381461044d5780639b2e48bc146104555780639cb28b721461030f57600080fd5b806362fc305e116100de57806362fc305e146103db5780637730599e146103ee578063811b3d40146104145780638d997f6e1461042757600080fd5b806350d75d25146103b857806352d1902d146103c057806354b770e3146103c857600080fd5b806326b0f536116101715780634b839e0b1161014b5780634b839e0b146103455780634c8b181f146103685780634fe9c2911461037b57806350209a62146103a557600080fd5b806326b0f5361461030f578063354b95901461031d578063469519541461033057600080fd5b8063062e56ec116101ad578063062e56ec1461024b57806309d256ef1461026b5780630f1ac4951461029a5780630f2f8f3c146102d057600080fd5b8062422bbe146101d357806304aafa491461020b5780630602f7db14610225575b600080fd5b6101e66101e1366004614616565b6104cf565b6040805193845260ff9092166020840152600b0b908201526060015b60405180910390f35b61021764010000000081565b604051908152602001610202565b610238610233366004614661565b610505565b604051600b9190910b8152602001610202565b61025e6102593660046146cf565b610526565b6040516102029190614784565b61027e610279366004614661565b610540565b6040805160ff9093168352600b9190910b602083015201610202565b6102ad6102a8366004614797565b610564565b60408051948552600b9390930b6020850152918301526060820152608001610202565b6102f77f000000000000000000000000000000000000000000000000000000000000000081565b6040516001600160a01b039091168152602001610202565b61021760016001605f1b0381565b61025e61032b3660046147e2565b61059a565b61034361033e36600461486e565b61075f565b005b61035861035336600461488b565b6107bd565b6040519015158152602001610202565b61025e6103763660046148cc565b610894565b61038e610389366004614797565b61097f565b604080519215158352602083019190915201610202565b61025e6103b3366004614948565b610a61565b6102f7610b34565b610217610b63565b61025e6103d63660046146cf565b610bc7565b61025e6103e9366004614948565b610bdf565b7fa9214cc96615e0085d3bb077758db69497dc2dce3b2b1e97bc93c3d18d83efd3610217565b61025e610422366004614998565b610c92565b6102176104353660046149dc565b610e8f565b61025e6104483660046147e2565b6110be565b610343611241565b61046861046336600461488b565b61134a565b60408051938452602084019290925290820152606001610202565b6102ad610491366004614661565b6113a4565b61025e6104a43660046148cc565b6113b6565b6102ad6104b7366004614616565b61144a565b6102386104ca366004614797565b611485565b60008060006104de858561149f565b925060006104ec878561150a565b8051602090910151959990985094965093945050505050565b600080610511846115cf565b50905061051e818461174a565b949350505050565b606061053785856000808787610c92565b95945050505050565b600080600061054f858561150a565b80516020909101519097909650945050505050565b6000806000806000610576878761178a565b805160208201516040830151606090930151919b909a509198509650945050505050565b606060006105de8885858080601f01602080910402602001604051908101604052809392919081815260200183838082843760009201919091525061184392505050565b9050866001600160a01b031681606001516001600160a01b0316036106165760405163edfa0d3b60e01b815260040160405180910390fd5b60008061062c8a6106278b8b611a07565b611a2f565b9150915060008060006106448d8d88606001516104cf565b925092509250610655826001611a76565b6106725760405163ac434b5f60e01b815260040160405180910390fd5b6000600b82900b60016001605f1b03148061069757508a600b0b8560200151600b0b12155b6106b95760208501516106aa908c614a27565b6106b49083614a27565b6106bb565b815b9050600081600b0b12156106e25760405163a0645c1f60e01b815260040160405180910390fd5b6106ee8e858584611ad1565b5050505061071c60408051608081018252600080825260208201819052918101829052606081019190915290565b6001600160a01b03808c1682528a8116602083015289166040820152600b88900b60608201526107508183858a8a89611b5a565b9b9a5050505050505050505050565b336001600160a01b037f000000000000000000000000000000000000000000000000000000000000000016146107b157604051632a94f67960e21b81526120d060048201526024015b60405180910390fd5b6107ba81611dd7565b50565b604051633acd4df360e21b81526001600160a01b03838116600483015260248201839052600091829186169063eb3537cc90604401606060405180830381865afa15801561080f573d6000803e3d6000fd5b505050506040513d601f19601f820116820180604052508101906108339190614a54565b505090506000811261084957600191505061088d565b600080610855876115cf565b915091506000610865888861178a565b91505060006108778260400151611fdf565b90506108858582868661204d565b955050505050505b9392505050565b606060006108d88785858080601f01602080910402602001604051908101604052809392919081815260200183838082843760009201919091525061184392505050565b905060006108eb888884606001516104cf565b5091505060006108fc826002611a76565b90508061091c5760405163e30f1bff60e01b815260040160405180910390fd5b6040805160808101825260008082526020820181905291810182905260608101919091525b6001600160a01b03808b16825289811660208301528816604082015260006060820152610971818389898861209b565b9a9950505050505050505050565b6000806000846001600160a01b03166320bc44256040518163ffffffff1660e01b8152600401602060405180830381865afa1580156109c2573d6000803e3d6000fd5b505050506040513d601f19601f820116820180604052508101906109e69190614a8d565b9050806001600160a01b031663bbe4fd506040518163ffffffff1660e01b8152600401602060405180830381865afa158015610a26573d6000803e3d6000fd5b505050506040513d601f19601f82011682018060405250810190610a4a9190614aaa565b9150610a578585846107bd565b9250509250929050565b60606000610aa58785858080601f01602080910402602001604051908101604052809392919081815260200183838082843760009201919091525061184392505050565b9050610ad160408051608081018252600080825260208201819052918101829052606081019190915290565b6001600160a01b03808916825260608084015182166020840181905291891660408401819052600b89900b91840191909152600091610b0f91611a07565b9050600080610b22846000015184611a2f565b915091506107508482848b8b8a611b5a565b6000610b5e7f360894a13ba1a3210667c828492db98dca3e2076cc3735a920a3ca505d382bbc5490565b905090565b6000306001600160a01b0316637730599e6040518163ffffffff1660e01b8152600401602060405180830381865afa158015610ba3573d6000803e3d6000fd5b505050506040513d601f19601f82011682018060405250810190610b5e9190614aaa565b60606105378585600760016001605f1b038787610c92565b60606000610c238785858080601f01602080910402602001604051908101604052809392919081815260200183838082843760009201919091525061184392505050565b9050610c4f60408051608081018252600080825260208201819052918101829052606081019190915290565b6001600160a01b038089168252606080840151821660208401529088166040830152600b87900b90820152610c86818686856128a7565b98975050505050505050565b606082828080601f016020809104026020016040519081016040528093929190818152602001838380828437600092019190915250929350610cd99250879150612b349050565b610cf657604051631e4e759b60e21b815260040160405180910390fd5b6000610d388885858080601f01602080910402602001604051908101604052809392919081815260200183838082843760009201919091525061184392505050565b9050866001600160a01b031681606001516001600160a01b031603610d705760405163b0ed394d60e01b815260040160405180910390fd5b600085600b0b1215610d95576040516386e0377d60e01b815260040160405180910390fd5b6040805180820190915260ff87168152600b86900b60208201526060820151600090610dc1908a61149f565b9050896001600160a01b031663a1b2bf8b82610ddc85612b3b565b6040518363ffffffff1660e01b8152600401610df9929190614afe565b600060405180830381600087803b158015610e1357600080fd5b505af1158015610e27573d6000803e3d6000fd5b50505060608401516040805160ff8c168152600b8b900b60208201526001600160a01b03808e169450928316928e16917fc0d5d3a6ac18cc1769788c925e6e7fc89cd47e4270a42884736fa9b3ec09f3a8910160405180910390a45050509695505050505050565b600081600b0b600003610ea4575060006110b8565b6000836001600160a01b03166320bc44256040518163ffffffff1660e01b8152600401602060405180830381865afa158015610ee4573d6000803e3d6000fd5b505050506040513d601f19601f82011682018060405250810190610f089190614a8d565b90506000816001600160a01b031663289b3c0d6040518163ffffffff1660e01b8152600401602060405180830381865afa158015610f4a573d6000803e3d6000fd5b505050506040513d601f19601f82011682018060405250810190610f6e9190614a8d565b90506000816001600160a01b03166380f70cba84887feae305fa863b373417e615b1044222e2806cefc7788d169ce6748a443c3f6cc46040518463ffffffff1660e01b8152600401610fc293929190614b17565b602060405180830381865afa158015610fdf573d6000803e3d6000fd5b505050506040513d601f19601f820116820180604052508101906110039190614aaa565b90506000826001600160a01b03166380f70cba85897fe420d96e81cb4a6b2abb2366c4f93312d4e2ae878a7d4b22e73472fdad891f786040518463ffffffff1660e01b815260040161105793929190614b17565b602060405180830381865afa158015611074573d6000803e3d6000fd5b505050506040513d601f19601f820116820180604052508101906110989190614aaa565b9050602081901c63ffffffff166110b0838289612bb1565b955050505050505b92915050565b606060006111028885858080601f01602080910402602001604051908101604052809392919081815260200183838082843760009201919091525061184392505050565b9050866001600160a01b031681606001516001600160a01b03160361113a576040516325cc989b60e11b815260040160405180910390fd5b600080600061114e8b8b86606001516104cf565b92509250925061115f826000611a76565b61117c576040516328faadab60e21b815260040160405180910390fd5b6000600b82900b60016001605f1b031461119f5761119a8983614a27565b6111a1565b815b9050600081600b0b12156111c85760405163a0645c1f60e01b815260040160405180910390fd5b6111d48c858584611ad1565b5050505061120260408051608081018252600080825260208201819052918101829052606081019190915290565b6001600160a01b03808a168252888116602083015287166040820152600b86900b6060820152611234818686856128a7565b9998505050505050505050565b600054610100900460ff16158080156112615750600054600160ff909116105b8061127b5750303b15801561127b575060005460ff166001145b6112de5760405162461bcd60e51b815260206004820152602e60248201527f496e697469616c697a61626c653a20636f6e747261637420697320616c72656160448201526d191e481a5b9a5d1a585b1a5e995960921b60648201526084016107a8565b6000805460ff191660011790558015611301576000805461ff0019166101001790555b80156107ba576000805461ff0019169055604051600181527f7f26b83ff96e1f2b6a682f133852f6798a09c465da95921460cefb3847402498906020015b60405180910390a150565b600080600080600061135c888861178a565b915091508115611399578060200151600b0b81600001518761137e9190614b3b565b6113889190614b62565b945080604001519350806060015192505b505093509350939050565b60008060008060006105768787611a2f565b606060006113fa8785858080601f01602080910402602001604051908101604052809392919081815260200183838082843760009201919091525061184392505050565b9050600061140d888884606001516104cf565b50915050600061141e826002611a76565b905061094160408051608081018252600080825260208201819052918101829052606081019190915290565b6000806000806000611460886106278989611a07565b805160208201516040830151606090930151919c909b50919950975095505050505050565b600080611492848461178a565b6020015195945050505050565b600082826040516020016114ec9291906060808252600c908201526b333637bba7b832b930ba37b960a11b60808201526001600160a01b0392831660208201529116604082015260a00190565b60405160208183030381529060405280519060200120905092915050565b6040805180820182526000808252602082018190529151636c2d9f2f60e01b8152306004820152602481018490526001604482015282906001600160a01b03861690636c2d9f2f90606401600060405180830381865afa158015611572573d6000803e3d6000fd5b505050506040513d6000823e601f3d908101601f1916820160405261159a9190810190614c58565b90506115c2816000815181106115b2576115b2614cf2565b602002602001015160001c612c24565b92509250505b9250929050565b6000806000836001600160a01b03166320bc44256040518163ffffffff1660e01b8152600401602060405180830381865afa158015611612573d6000803e3d6000fd5b505050506040513d601f19601f820116820180604052508101906116369190614a8d565b90506000816001600160a01b031663289b3c0d6040518163ffffffff1660e01b8152600401602060405180830381865afa158015611678573d6000803e3d6000fd5b505050506040513d601f19601f8201168201806040525081019061169c9190614a8d565b90506000816001600160a01b03166380f70cba84887fe420d96e81cb4a6b2abb2366c4f93312d4e2ae878a7d4b22e73472fdad891f786040518463ffffffff1660e01b81526004016116f093929190614b17565b602060405180830381865afa15801561170d573d6000803e3d6000fd5b505050506040513d601f19601f820116820180604052508101906117319190614aaa565b63ffffffff602082901c81169891169650945050505050565b600060016001605f1b0382111561177457604051631d4b0ae760e21b815260040160405180910390fd5b63ffffffff1982169150600061051e8484614d1e565b600061179461454f565b604051634b61cc3360e01b81523060048201526001600160a01b038481166024830152600060448301819052600160648401529190861690634b61cc33906084015b600060405180830381865afa1580156117f3573d6000803e3d6000fd5b505050506040513d6000823e601f3d908101601f1916820160405261181b9190810190614c58565b90506115c28160008151811061183357611833614cf2565b602002602001015160001c612c64565b61184b61457a565b336001600160a01b0316836001600160a01b03166320bc44256040518163ffffffff1660e01b8152600401602060405180830381865afa158015611893573d6000803e3d6000fd5b505050506040513d601f19601f820116820180604052508101906118b79190614a8d565b6001600160a01b0316146119015760405162461bcd60e51b81526020600482015260116024820152701d5b985d5d1a1bdc9a5e9959081a1bdcdd607a1b60448201526064016107a8565b604051632fd0a1cd60e21b8152339063bf42873490611924908590600401614784565b602060405180830381865afa158015611941573d6000803e3d6000fd5b505050506040513d601f19601f820116820180604052508101906119659190614d42565b61199f5760405162461bcd60e51b815260206004820152600b60248201526a0d2dcecc2d8d2c840c6e8f60ab1b60448201526064016107a8565b604051631fb6491d60e11b81523390633f6c923a906119c2908590600401614784565b600060405180830381865afa1580156119df573d6000803e3d6000fd5b505050506040513d6000823e601f3d908101601f1916820160405261088d9190810190614de4565b604080516001600160a01b0380851660208301528316918101919091526000906060016114ec565b6000611a3961454f565b604051636c2d9f2f60e01b815230600482015260248101849052600160448201526000906001600160a01b03861690636c2d9f2f906064016117d6565b600080826002811115611a8b57611a8b614eeb565b03611a9c57506001828116146110b8565b6001826002811115611ab057611ab0614eeb565b03611ac35750600182811c8116146110b8565b505060021c60019081161490565b6040805180820190915260ff83168152600b82900b60208201526001600160a01b03851663a1b2bf8b85611b0484612b3b565b6040518363ffffffff1660e01b8152600401611b21929190614afe565b600060405180830381600087803b158015611b3b57600080fd5b505af1158015611b4f573d6000803e3d6000fd5b505050505050505050565b60606000611b688884612cc4565b91505085611b8d57604051639995b0c160e01b81526103e960048201526024016107a8565b6040888101519051631e51d6a760e11b81526001600160a01b0390911660048201523390633ca3ad4e90602401602060405180830381865afa158015611bd7573d6000803e3d6000fd5b505050506040513d601f19601f82011682018060405250810190611bfb9190614d42565b15611c5757611c5088604001518960000151838a89898080601f0160208091040260200160405190810160405280939291908181526020018383808284376000920191909152508b925060019150612dc99050565b9150611ca2565b611c9f8860000151828988888080601f0160208091040260200160405190810160405280939291908181526020018383808284376000920191909152508a925061356f915050565b91505b611cb58860000151896020015185613642565b7f00000000000000000000000000000000000000000000000000000000000000006001600160a01b031615611dcc577f00000000000000000000000000000000000000000000000000000000000000006001600160a01b0316636ac5bc318960000151604051806080016040528085602001516001600160a01b0316815260200185604001516001600160a01b0316815260200185606001516001600160a01b031681526020018560800151600b0b8152508a602001516040518463ffffffff1660e01b8152600401611d8a93929190614f01565b6020604051808303816000875af1925050508015611dc5575060408051601f3d908101601f19168201909252611dc291810190614d42565b60015b15611dcc57505b509695505050505050565b6000611e017f360894a13ba1a3210667c828492db98dca3e2076cc3735a920a3ca505d382bbc5490565b6001600160a01b031603611e575760405162461bcd60e51b815260206004820152601d60248201527f5555505350726f786961626c653a206e6f742075706772616461626c6500000060448201526064016107a8565b806001600160a01b03166352d1902d6040518163ffffffff1660e01b8152600401602060405180830381865afa158015611e95573d6000803e3d6000fd5b505050506040513d601f19601f82011682018060405250810190611eb99190614aaa565b611ec1610b63565b14611f1a5760405162461bcd60e51b815260206004820152602360248201527f5555505350726f786961626c653a206e6f7420636f6d70617469626c65206c6f60448201526267696360e81b60648201526084016107a8565b6001600160a01b0381163003611f725760405162461bcd60e51b815260206004820152601960248201527f5555505350726f786961626c653a2070726f7879206c6f6f700000000000000060448201526064016107a8565b611f9a817f360894a13ba1a3210667c828492db98dca3e2076cc3735a920a3ca505d382bbc55565b7fe011bc04c286c344a8fcbb8de77f953da762c3e25d8cdea984147fc4168a5dcc611fc3610b63565b604080519182526001600160a01b03841660208301520161133f565b60006001600160ff1b038211156120495760405162461bcd60e51b815260206004820152602860248201527f53616665436173743a2076616c756520646f65736e27742066697420696e2061604482015267371034b73a191a9b60c11b60648201526084016107a8565b5090565b60008360000361205f5750600061051e565b600061206b8587614f60565b905060006120798587614f88565b90506120858486614fb6565b61208f8284614f88565b13979650505050505050565b6040805160c0810182526000808252602082018190529181018290526060818101839052608082019290925260a0810182905260208701516001600160a01b03166120fd5760405163e961d6ff60e01b81526105dc60048201526024016107a8565b60408701516001600160a01b031661212c5760405163e961d6ff60e01b81526105dd60048201526024016107a8565b61213e87602001518860400151611a07565b8082526020808901516001600160a01b03908116918401919091526040808a01518216908401526060808601519091169083015260006080830181905260a0808601519084015288519091829161219491611a2f565b91509150816121ba57604051639995b0c160e01b81526103e960048201526024016107a8565b885160208a01516040808801519051633acd4df360e21b81526000936001600160a01b03169263eb3537cc92612206926004016001600160a01b03929092168252602082015260400190565b606060405180830381865afa158015612223573d6000803e3d6000fd5b505050506040513d601f19601f820116820180604052508101906122479190614a54565b5050905089602001516001600160a01b031686606001516001600160a01b03161415801561228f575089604001516001600160a01b031686606001516001600160a01b031614155b8015612299575088155b156123aa5760208a0151604051636b4f333560e01b81526001600160a01b0390911660048201523390636b4f333590602401602060405180830381865afa1580156122e8573d6000803e3d6000fd5b505050506040513d601f19601f8201168201806040525081019061230c9190614d42565b158015612384575060408a8101519051636b4f333560e01b81526001600160a01b0390911660048201523390636b4f333590602401602060405180830381865afa15801561235e573d6000803e3d6000fd5b505050506040513d601f19601f820116820180604052508101906123829190614d42565b155b156123aa57600081126123aa5760405163ce11b5d160e01b815260040160405180910390fd5b60008112156123c8576123c88a600001518286858a60600151613720565b87878080601f01602080910402602001604051908101604052809392919081815260200183838082843760009201919091525050505060208b015160608801519196506001600160a01b039081169116036124be5760408a8101519051631e51d6a760e11b81526001600160a01b0390911660048201523390633ca3ad4e90602401602060405180830381865afa158015612467573d6000803e3d6000fd5b505050506040513d601f19601f8201168201806040525081019061248b9190614d42565b156124af576124a88a604001518b600001518685898b6002612dc9565b9450612783565b89516124a8908584888a61356f565b89604001516001600160a01b031686606001516001600160a01b0316036125f25760208a0151604051631e51d6a760e11b81526001600160a01b0390911660048201523390633ca3ad4e90602401602060405180830381865afa158015612529573d6000803e3d6000fd5b505050506040513d601f19601f8201168201806040525081019061254d9190614d42565b1561256a576124a88a602001518b600001518685898b6002612dc9565b60408a8101519051631e51d6a760e11b81526001600160a01b0390911660048201523390633ca3ad4e90602401602060405180830381865afa1580156125b4573d6000803e3d6000fd5b505050506040513d601f19601f820116820180604052508101906125d89190614d42565b156124af576124a860008b600001518685898b6002612dc9565b60208a0151604051631e51d6a760e11b81526001600160a01b0390911660048201523390633ca3ad4e90602401602060405180830381865afa15801561263c573d6000803e3d6000fd5b505050506040513d601f19601f820116820180604052508101906126609190614d42565b801561266c5750600081125b156126e65760208a0151604051635b92108f60e11b8152339163b724211e9161269c918991600b90600401614fc9565b6000604051808303816000875af11580156126bb573d6000803e3d6000fd5b505050506040513d6000823e601f3d908101601f191682016040526126e39190810190614ff7565b94505b60408a8101519051631e51d6a760e11b81526001600160a01b0390911660048201523390633ca3ad4e90602401602060405180830381865afa158015612730573d6000803e3d6000fd5b505050506040513d601f19601f820116820180604052508101906127549190614d42565b15612771576124a88a604001518b600001518685898b6002612dc9565b8951612780908584888a61356f565b94505b7f00000000000000000000000000000000000000000000000000000000000000006001600160a01b03161561289a577f00000000000000000000000000000000000000000000000000000000000000006001600160a01b0316632742e95a8b60000151604051806080016040528088602001516001600160a01b0316815260200188604001516001600160a01b0316815260200188606001516001600160a01b031681526020018860800151600b0b81525085602001516040518463ffffffff1660e01b815260040161285893929190614f01565b6020604051808303816000875af1925050508015612893575060408051601f3d908101601f1916820190925261289091810190614d42565b60015b1561289a57505b5050505095945050505050565b60606000806128b68785612cc4565b915091506000806128cb896000015185611a2f565b9150915081156128f257604051635b5b42a560e01b81526103e860048201526024016107a8565b6040898101519051631e51d6a760e11b81526001600160a01b0390911660048201523390633ca3ad4e90602401602060405180830381865afa15801561293c573d6000803e3d6000fd5b505050506040513d601f19601f820116820180604052508101906129609190614d42565b156129b9576129b289604001518a6000015185848c8c8080601f01602080910402602001604051908101604052809392919081815260200183838082843760009201829052508f93509150612dc99050565b9450612a04565b612a01896000015184838b8b8080601f0160208091040260200160405190810160405280939291908181526020018383808284376000920191909152508d925061356f915050565b94505b612a1789600001518a6020015188613642565b7f00000000000000000000000000000000000000000000000000000000000000006001600160a01b031615612b28577f00000000000000000000000000000000000000000000000000000000000000006001600160a01b031663e3d8fefe8a60000151604051806080016040528087602001516001600160a01b0316815260200187604001516001600160a01b0316815260200187606001516001600160a01b031681526020018760800151600b0b8152506040518363ffffffff1660e01b8152600401612ae692919061502c565b6020604051808303816000875af1925050508015612b21575060408051601f3d908101601f19168201909252612b1e91810190614d42565b60015b15612b2857505b50505050949350505050565b60f8161590565b606060008260200151600b0b1215612b5557612b5561507a565b60408051600180825281830190925290602080830190803683370190505090508160200151600b0b6080836000015160ff16901b1760001b81600081518110612ba057612ba0614cf2565b602002602001018181525050919050565b60008082600b0b1215612bd7576040516348d6568b60e11b815260040160405180910390fd5b60016001605f1b03612bed84600b85900b615090565b1115612c0c57604051630c9c55c160e01b815260040160405180910390fd5b6000612c18838561392c565b90506105378582613970565b6040805180820190915260008082526020820152811580159190612c5f5760016001605f1b038316600b0b6020820152608083901c60ff1681525b915091565b6000612c6e61454f565b821580159250612c5f5760e083901c8152608083901c6bffffffffffffffffffffffff16600b0b6020808301919091526bffffffffffffffff0000000084821c811660408401529084901b166060820152915091565b6040805160c08101825260008082526020820181905291810182905260608082018390526080820183905260a082015260408401516001600160a01b0316612d235760405163e961d6ff60e01b81526105dd60048201526024016107a8565b612d3584602001518560400151611a07565b8082526020808601516001600160a01b0390811691840182905260408088015182169085018190526060808801519092168286015290870151600b0b608085015260a0808701519085015291935003612da15760405163a47338ef60e01b815260040160405180910390fd5b60008160800151600b0b136115c8576040516348d6568b60e11b815260040160405180910390fd5b82612dd26145d5565b6001600160a01b038916156130d6576000612e67898b8a600001518b602001518c60400151604051602001612e1d9291906001600160a01b0392831681529116602082015260400190565b60408051601f1981840301815260e08301825260006080840181905260a0840181905260c08401526001600160a01b03958616835293909416602082015292830152606082015290565b90506000846002811115612e7d57612e7d614eeb565b03612e925764010000000060c0820152612ec7565b6001846002811115612ea657612ea6614eeb565b03612ebb5764040000000060c0820152612ec7565b64100000000060c08201525b612ed18187613986565b82600001819052506000336001600160a01b031663289b3c0d6040518163ffffffff1660e01b8152600401602060405180830381865afa158015612f19573d6000803e3d6000fd5b505050506040513d601f19601f82011682018060405250810190612f3d9190614a8d565b9050612f5586604001518761014001518c8c8c613b3d565b5060808401525060405163407b865d60e11b81526000906001600160a01b038316906380f70cba90612faf9033908f907feae305fa863b373417e615b1044222e2806cefc7788d169ce6748a443c3f6cc490600401614b17565b602060405180830381865afa158015612fcc573d6000803e3d6000fd5b505050506040513d601f19601f82011682018060405250810190612ff09190614aaa565b9050600083608001516000146130145761300f64010000000083613970565b613017565b60005b905080846080015161302991906150af565b608085015260608a015161303c90611fdf565b60a0850152600087600281111561305557613055614eeb565b0361306a5764020000000060c085015261309f565b600187600281111561307e5761307e614eeb565b036130935764080000000060c085015261309f565b64200000000060c08501525b6130ae84866000015188613f21565b60408701919091528b519096506130c6908d90611a2f565b6020870152506130f49350505050565b6130ec84604001518561014001518a8a8a613b3d565b602084015250505b60006131038760600151611fdf565b826040015161010001516131179190614b3b565b905061313d8161312e846020015160400151611fdf565b6131389190614f60565b61416d565b8260200151604001818152505061315f8161312e846020015160600151611fdf565b60208301805160600191909152885190516001600160a01b038b169163a1b2bf8b9161318a906141bf565b6040518363ffffffff1660e01b81526004016131a7929190614afe565b600060405180830381600087803b1580156131c157600080fd5b505af11580156131d5573d6000803e3d6000fd5b505050506131f189896020015160008460008a60400151614230565b50613209898960400151600080858a60400151614230565b506101408501516001600160a01b0316158061323b5750886001600160a01b03168561014001516001600160a01b0316145b156132af576040516359a2914160e01b815233906359a291419061326590869085906004016150c2565b6000604051808303816000875af1158015613284573d6000803e3d6000fd5b505050506040513d6000823e601f3d908101601f191682016040526132ac9190810190614ff7565b92505b6040888101519051631e51d6a760e11b81526001600160a01b0390911660048201523390633ca3ad4e90602401602060405180830381865afa1580156132f9573d6000803e3d6000fd5b505050506040513d601f19601f8201168201806040525081019061331d9190614d42565b1561356257604088810151868201519151633acd4df360e21b81526001600160a01b0391821660048201526024810192909252600091908b169063eb3537cc90604401606060405180830381865afa15801561337d573d6000803e3d6000fd5b505050506040513d601f19601f820116820180604052508101906133a19190614a54565b509091505060008112156135605760028560028111156133c3576133c3614eeb565b03613544576040808a01519051635b92108f60e11b8152339163b724211e916133f3918891600c90600401614fc9565b6000604051808303816000875af1158015613412573d6000803e3d6000fd5b505050506040513d6000823e601f3d908101601f1916820160405261343a9190810190614ff7565b9350600061345861344a836150e4565b613453856150e4565b6143a1565b90508a6001600160a01b031663cf97256d8b6020015183613478906150e4565b6040516001600160e01b031960e085901b1681526001600160a01b0390921660048301526024820152604401600060405180830381600087803b1580156134be57600080fd5b505af11580156134d2573d6000803e3d6000fd5b5050505060408a810151905163cf97256d60e01b81526001600160a01b03918216600482015260248101839052908c169063cf97256d90604401600060405180830381600087803b15801561352657600080fd5b505af115801561353a573d6000803e3d6000fd5b5050505050613560565b60405163a85ba64f60e01b8152600c60048201526024016107a8565b505b5050979650505050505050565b606083810151156135825761358261507a565b600061358c61454f565b6135a284604001518561014001518a8a8a613b3d565b6101408701519294509250506001600160a01b03808a16911603613633576040516359a2914160e01b815233906359a29141906135e590889086906004016150c2565b6000604051808303816000875af1158015613604573d6000803e3d6000fd5b505050506040513d6000823e601f3d908101601f1916820160405261362c9190810190614ff7565b9250613637565b8492505b505095945050505050565b602081015160ff1660031415806136705750826001600160a01b03168161014001516001600160a01b031614155b1561371b576040808201519051633acd4df360e21b81526001600160a01b038481166004830152602482019290925260009185169063eb3537cc90604401606060405180830381865afa1580156136cb573d6000803e3d6000fd5b505050506040513d601f19601f820116820180604052508101906136ef9190614a54565b50509050600081121561371957604051636212897360e01b815261044c60048201526024016107a8565b505b505050565b600061373086856020015161178a565b91505060006137428460400151611fdf565b905060006137538360400151611fdf565b90506060600080613764848b614f60565b90506000806137728d6115cf565b915091506137828c87848461204d565b935050506000811261386d5760008461379b8388614b62565b6137a59190614f88565b90506001836137b55760016137b8565b60005b6040805160ff9384166020820152929091169082015260600160405160208183030381529060405293508b6001600160a01b0316631863e8098b60000151868b878f602001516138078861416d565b61381389600019614b62565b6040518863ffffffff1660e01b81526004016138359796959493929190615100565b600060405180830381600087803b15801561384f57600080fd5b505af1158015613863573d6000803e3d6000fd5b505050505061391f565b6040805160016020820152600291810191909152859060600160405160208183030381529060405293508b6001600160a01b0316631863e8098b60000151868b60008f602001516138bd8861416d565b6138c98a600019614b62565b6040518863ffffffff1660e01b81526004016138eb9796959493929190615100565b600060405180830381600087803b15801561390557600080fd5b505af1158015613919573d6000803e3d6000fd5b50505050505b5050505050505050505050565b600082600b0b600003613941575060006110b8565b60016001605f1b038211156139585761395861507a565b613962828461514d565b600b0b905061088d816143b6565b600081831161397f578161088d565b5090919050565b6020820151604051633e7d48bd60e21b81526001600160a01b03909116600482015260609060009081908190339063f9f522f490602401606060405180830381865afa1580156139da573d6000803e3d6000fd5b505050506040513d601f19601f820116820180604052508101906139fe91906151e2565b91945092509050828015613a10575081155b15613b34576000613a2186886143ea565b90508660c001518216600003613b26576000613a408860c00151614468565b88516040808b015160608c015182516000815260208101909352613a6c9392309291906044810161521e565b60408051601f19818403018152918152602080830180516001600160e01b03166001600160e01b031990951694909417909352918a015160c08b01519251633a020f0160e11b815291935033926374041e0292613adb9291869164100000000091909114908890600401615263565b6000604051808303816000875af1158015613afa573d6000803e3d6000fd5b505050506040513d6000823e601f3d908101601f19168201604052613b229190810190614ff7565b9550505b613b318660006144ff565b50505b50505092915050565b600080613b4861454f565b6000806000613b56896115cf565b5090506000336001600160a01b031663289b3c0d6040518163ffffffff1660e01b8152600401602060405180830381865afa158015613b99573d6000803e3d6000fd5b505050506040513d601f19601f82011682018060405250810190613bbd9190614a8d565b60405163407b865d60e11b81529091506001600160a01b038216906380f70cba90613c109033908e907feae305fa863b373417e615b1044222e2806cefc7788d169ce6748a443c3f6cc490600401614b17565b602060405180830381865afa158015613c2d573d6000803e3d6000fd5b505050506040513d601f19601f82011682018060405250810190613c519190614aaa565b9250613c6189608001518361392c565b95505050613c728660600151611fdf565b613c7f8760400151611fdf565b613c8886611fdf565b613c929190614b3b565b613c9c9190614f60565b9450613caf8561312e8860400151611fdf565b91508082108015613cc7575060008760800151600b0b135b15613d0957613cd98660600151611fdf565b613ce68760400151611fdf565b613cef83611fdf565b613cf99190614b3b565b613d039190614f60565b94508091505b6001600160a01b03891615801590613d335750876001600160a01b0316896001600160a01b031614155b15613d3d57600093505b604051806080016040528060008960800151600b0b13613d5e576000613d60565b8b5b81526020018860800151600b0b815260200183815260200187606001518152509250876001600160a01b031663a1b2bf8b8860000151613d9f866141bf565b6040518363ffffffff1660e01b8152600401613dbc929190614afe565b600060405180830381600087803b158015613dd657600080fd5b505af1158015613dea573d6000803e3d6000fd5b505060408051808201909152600080825260208201529250613e0a915050565b613e3088886020015189608001518960200151613e279190614a27565b8860008f614230565b600b0b8152604087015160208701516080890151613e5f928b929091613e569190614a27565b6000808f614230565b600b0b60208083018290526040808a0151918a015160808b0151855160a08d015193516001600160a01b0395861696938616958f16947f57269d2ebcccecdcc0d9d2c0a0b80ead95f344e28ec20f50f709811f209d4e0e94613ec59493929091906152ac565b60405180910390a486606001516001600160a01b03167f71e0c98e270fc3084227b473f176924d5303ece8c639e679998a2d7dc8e70f7483604051613f0c91815260200190565b60405180910390a25050955095509592505050565b613f2961457a565b6020840151604051633e7d48bd60e21b81526001600160a01b03909116600482015260609060009081908190339063f9f522f490602401606060405180830381865afa158015613f7d573d6000803e3d6000fd5b505050506040513d601f19601f82011682018060405250810190613fa191906151e2565b88965091945092509050828015613fb6575081155b1561416257613fc584896143ea565b93508760c001518116600003614150576000613fe48960c00151614468565b89516040808c015160608d0151825160008152602081019093526140129392309291908e90604481016152e4565b60408051601f19818403018152918152602080830180516001600160e01b03166001600160e01b031990951694909417909352918b015160c08c0151925163079b42a160e21b81529193503392631e6d0a84926140819291869164200000000091909114908b90600401615263565b6000604051808303816000875af11580156140a0573d6000803e3d6000fd5b505050506040513d6000823e601f3d908101601f191682016040526140c89190810190614ff7565b604051631fb6491d60e11b81529095503390633f6c923a906140ee908890600401614784565b600060405180830381865afa15801561410b573d6000803e3d6000fd5b505050506040513d6000823e601f3d908101601f191682016040526141339190810190614de4565b95506141488960800151876101000151614527565b610100870152505b61415f868661010001516144ff565b93505b505050935093915050565b6000808212156120495760405162461bcd60e51b815260206004820181905260248201527f53616665436173743a2076616c7565206d75737420626520706f73697469766560448201526064016107a8565b6040805160018082528183019092526060916020808301908036833701905050905060208260600151901c604060208460400151901c901b608084602001516bffffffffffffffffffffffff16901b60e08560000151901b17171760001b81600081518110612ba057612ba0614cf2565b60008061423d888861178a565b91505060008160200151600b0b61426283600001518661425d9190614fb6565b611fdf565b61426c9190614b62565b905080156142d75760405163cf97256d60e01b81526001600160a01b038981166004830152602482018390528a169063cf97256d90604401600060405180830381600087803b1580156142be57600080fd5b505af11580156142d2573d6000803e3d6000fd5b505050505b8682602001516142e7919061533d565b600b0b6020830152838252604082015161430690879061312e90611fdf565b6040830152606082015161431f90869061312e90611fdf565b60608301526001600160a01b03891663090c415e89600061433f866141bf565b6040518463ffffffff1660e01b815260040161435d9392919061536a565b600060405180830381600087803b15801561437757600080fd5b505af115801561438b573d6000803e3d6000fd5b5050506020909201519998505050505050505050565b60008183136143b0578261088d565b50919050565b60008063ffffffff83166143cb5760006143ce565b60015b60ff16905060206143e18285831c6150af565b901b9392505050565b6020810151608082015160a08301518351604051630768fabb60e41b8152606094339463768fabb094614421948a94600401615391565b6000604051808303816000875af1158015614440573d6000803e3d6000fd5b505050506040513d6000823e601f3d908101601f1916820160405261088d9190810190614ff7565b6000640100000000820361448457506330d9c91560e01b919050565b640400000000820361449e5750630221347d60e61b919050565b64100000000082036144b85750635f9e7d7760e01b919050565b64020000000082036144d2575063d86ed3e560e01b919050565b64080000000082036144ec575063230dbd2960e01b919050565b506353c11f9960e01b919050565b919050565b604051634c4d861f60e11b8152606090339063989b0c3e9061442190869086906004016150c2565b600061088d600061454061453a86611fdf565b856143a1565b600081831361397f578161088d565b6040518060800160405280600081526020016000600b0b815260200160008152602001600081525090565b604080516101608101825260008082526020820181905291810182905260608082018390526080820183905260a082015260c0810182905260e081018290526101008101829052610120810182905261014081019190915290565b6040518060600160405280606081526020016145ef61454f565b81526020016145fc61457a565b905290565b6001600160a01b03811681146107ba57600080fd5b60008060006060848603121561462b57600080fd5b833561463681614601565b9250602084013561464681614601565b9150604084013561465681614601565b809150509250925092565b6000806040838503121561467457600080fd5b823561467f81614601565b946020939093013593505050565b60008083601f84011261469f57600080fd5b50813567ffffffffffffffff8111156146b757600080fd5b6020830191508360208285010111156115c857600080fd5b600080600080606085870312156146e557600080fd5b84356146f081614601565b9350602085013561470081614601565b9250604085013567ffffffffffffffff81111561471c57600080fd5b6147288782880161468d565b95989497509550505050565b60005b8381101561474f578181015183820152602001614737565b50506000910152565b60008151808452614770816020860160208601614734565b601f01601f19169290920160200192915050565b60208152600061088d6020830184614758565b600080604083850312156147aa57600080fd5b82356147b581614601565b915060208301356147c581614601565b809150509250929050565b8035600b81900b81146144fa57600080fd5b60008060008060008060a087890312156147fb57600080fd5b863561480681614601565b9550602087013561481681614601565b9450604087013561482681614601565b9350614834606088016147d0565b9250608087013567ffffffffffffffff81111561485057600080fd5b61485c89828a0161468d565b979a9699509497509295939492505050565b60006020828403121561488057600080fd5b813561088d81614601565b6000806000606084860312156148a057600080fd5b83356148ab81614601565b925060208401356148bb81614601565b929592945050506040919091013590565b6000806000806000608086880312156148e457600080fd5b85356148ef81614601565b945060208601356148ff81614601565b9350604086013561490f81614601565b9250606086013567ffffffffffffffff81111561492b57600080fd5b6149378882890161468d565b969995985093965092949392505050565b60008060008060006080868803121561496057600080fd5b853561496b81614601565b9450602086013561497b81614601565b935061490f604087016147d0565b60ff811681146107ba57600080fd5b60008060008060008060a087890312156149b157600080fd5b86356149bc81614601565b955060208701356149cc81614601565b9450604087013561482681614989565b600080604083850312156149ef57600080fd5b82356149fa81614601565b9150614a08602084016147d0565b90509250929050565b634e487b7160e01b600052601160045260246000fd5b600b82810b9082900b0360016001605f1b0319811260016001605f1b03821317156110b8576110b8614a11565b600080600060608486031215614a6957600080fd5b8351925060208401519150604084015190509250925092565b80516144fa81614601565b600060208284031215614a9f57600080fd5b815161088d81614601565b600060208284031215614abc57600080fd5b5051919050565b600081518084526020808501945080840160005b83811015614af357815187529582019590820190600101614ad7565b509495945050505050565b82815260406020820152600061051e6040830184614ac3565b6001600160a01b039384168152919092166020820152604081019190915260600190565b8181036000831280158383131683831282161715614b5b57614b5b614a11565b5092915050565b60006001600160ff1b0381841382841380821686840486111615614b8857614b88614a11565b600160ff1b6000871282811687830589121615614ba757614ba7614a11565b60008712925087820587128484161615614bc357614bc3614a11565b87850587128184161615614bd957614bd9614a11565b505050929093029392505050565b634e487b7160e01b600052604160045260246000fd5b604051610160810167ffffffffffffffff81118282101715614c2157614c21614be7565b60405290565b604051601f8201601f1916810167ffffffffffffffff81118282101715614c5057614c50614be7565b604052919050565b60006020808385031215614c6b57600080fd5b825167ffffffffffffffff80821115614c8357600080fd5b818501915085601f830112614c9757600080fd5b815181811115614ca957614ca9614be7565b8060051b9150614cba848301614c27565b8181529183018401918481019088841115614cd457600080fd5b938501935b83851015610c8657845182529385019390850190614cd9565b634e487b7160e01b600052603260045260246000fd5b634e487b7160e01b600052601260045260246000fd5b600082614d2d57614d2d614d08565b500490565b805180151581146144fa57600080fd5b600060208284031215614d5457600080fd5b61088d82614d32565b80516144fa81614989565b80516001600160e01b0319811681146144fa57600080fd5b600082601f830112614d9157600080fd5b815167ffffffffffffffff811115614dab57614dab614be7565b614dbe601f8201601f1916602001614c27565b818152846020838601011115614dd357600080fd5b61051e826020830160208701614734565b600060208284031215614df657600080fd5b815167ffffffffffffffff80821115614e0e57600080fd5b908301906101608286031215614e2357600080fd5b614e2b614bfd565b614e3483614d5d565b8152614e4260208401614d5d565b602082015260408301516040820152614e5d60608401614a82565b6060820152614e6e60808401614d68565b608082015260a083015182811115614e8557600080fd5b614e9187828601614d80565b60a08301525060c083015160c082015260e083015160e0820152610100915081830151828201526101209150614ec8828401614a82565b828201526101409150614edc828401614a82565b91810191909152949350505050565b634e487b7160e01b600052602160045260246000fd5b6001600160a01b038416815260c08101614f4f602083018580516001600160a01b03908116835260208083015182169084015260408083015190911690830152606090810151600b0b910152565b82600b0b60a0830152949350505050565b8082018281126000831280158216821582161715614f8057614f80614a11565b505092915050565b600082614f9757614f97614d08565b600160ff1b821460001984141615614fb157614fb1614a11565b500590565b818103818111156110b8576110b8614a11565b606081526000614fdc6060830186614758565b6001600160a01b039490941660208301525060400152919050565b60006020828403121561500957600080fd5b815167ffffffffffffffff81111561502057600080fd5b61051e84828501614d80565b6001600160a01b038316815260a0810161088d602083018480516001600160a01b03908116835260208083015182169084015260408083015190911690830152606090810151600b0b910152565b634e487b7160e01b600052600160045260246000fd5b60008160001904831182151516156150aa576150aa614a11565b500290565b808201808211156110b8576110b8614a11565b6040815260006150d56040830185614758565b90508260208301529392505050565b6000600160ff1b82016150f9576150f9614a11565b5060000390565b87815260e06020820152600061511960e0830189614758565b6001600160a01b03978816604084015295151560608301525092909416608083015260a082015260c0019190915292915050565b600081600b0b83600b0b60016001605f1b0360008213600084138383048511828216161561517d5761517d614a11565b60016001605f1b031960008512828116878305871216156151a0576151a0614a11565b600087129250858205871284841616156151bc576151bc614a11565b858505871281841616156151d2576151d2614a11565b5050509290910295945050505050565b6000806000606084860312156151f757600080fd5b61520084614d32565b925061520e60208501614d32565b9150604084015190509250925092565b6001600160a01b038681168252851660208201526040810184905260a06060820181905260009061525190830185614758565b8281036080840152610c868185614758565b6001600160a01b038516815260806020820181905260009061528790830186614758565b841515604084015282810360608401526152a18185614758565b979650505050505050565b84600b0b815283600b0b602082015282600b0b60408201526080606082015260006152da6080830184614758565b9695505050505050565b6001600160a01b038781168252861660208201526040810185905260c06060820181905260009061531790830186614758565b82810360808401526153298186614758565b905082810360a08401526112348185614758565b600b81810b9083900b0160016001605f1b03811360016001605f1b0319821217156110b8576110b8614a11565b60018060a01b03841681528260208201526060604082015260006105376060830184614ac3565b60a0815260006153a460a0830188614758565b6001600160a01b039687166020840152604083019590955250606081019290925290921660809092019190915291905056fea264697066735822122067589d9c909cc35bcf166206f606dce2643632f63d8cba1e78ebf133a442c7f064736f6c6343000810003360c06040523480156200001157600080fd5b50604051620017db380380620017db8339810160408190526200003491620000ef565b6001600160a01b0381166080819052604051635b69006f60e11b81527fa9214cc96615e0085d3bb077758db69497dc2dce3b2b1e97bc93c3d18d83efd3600482015263b6d200de90602401602060405180830381865afa1580156200009d573d6000803e3d6000fd5b505050506040513d601f19601f82011682018060405250810190620000c39190620000ef565b6001600160a01b031660a0525062000116565b6001600160a01b0381168114620000ec57600080fd5b50565b6000602082840312156200010257600080fd5b81516200010f81620000d6565b9392505050565b60805160a051611628620001b36000396000818161029a01528181610366015281816103fb015281816104ab01528181610520015281816105de015281816106e901528181610766015281816107aa01528181610851015281816108ef0152818161092501528181610abc01528181610b4101528181610bb001528181610bf30152610c2d015260008181610d150152610d8701526116286000f3fe608060405234801561001057600080fd5b50600436106100ea5760003560e01c8063308855911161008c5780637243fb93116100665780637243fb9314610222578063b4b333c614610235578063c5ad5c1a14610248578063e15536b61461025b57600080fd5b806330885591146101cd5780634d3f60f9146101e057806357e6aa361461020f57600080fd5b80630f1ac495116100c85780630f1ac4951461014b5780631d8b65261461018157806322c904d9146101a75780632860fd93146101ba57600080fd5b806309f0b495146100ef5780630bd0728d146101155780630c03399114610138575b600080fd5b6101026100fd366004610f76565b61026e565b6040519081526020015b60405180910390f35b610128610123366004610faf565b61030e565b604051901515815260200161010c565b610128610146366004611080565b61031d565b61015e610159366004610faf565b610336565b60408051948552600b9390930b602085015291830152606082015260800161010c565b61019461018f366004611108565b6103e1565b604051600b9190910b815260200161010c565b6101946101b5366004610faf565b610481565b61015e6101c8366004611108565b610518565b6101286101db366004611162565b6105c0565b6101f36101ee366004611108565b6105d9565b6040805160ff9093168352600b9190910b60208301520161010c565b61012861021d3660046111be565b610679565b610128610230366004610faf565b610687565b6101286102433660046111fe565b6106a2565b610128610256366004611273565b6106b0565b610128610269366004611080565b6106be565b6040516346ccbfb760e11b81526001600160a01b038381166004830152600b83900b60248301526000917f000000000000000000000000000000000000000000000000000000000000000090911690638d997f6e90604401602060405180830381865afa1580156102e3573d6000803e3d6000fd5b505050506040513d601f19601f8201168201806040525081019061030791906112b4565b9392505050565b600061030783836000806106cd565b600061032c868686868661078d565b9695505050505050565b604051630f1ac49560e01b81526001600160a01b03838116600483015282811660248301526000918291829182917f00000000000000000000000000000000000000000000000000000000000000001690630f1ac49590604401608060405180830381865afa1580156103ad573d6000803e3d6000fd5b505050506040513d601f19601f820116820180604052508101906103d191906112cd565b9299919850965090945092505050565b604051631cd43d1160e31b81526000906001600160a01b037f0000000000000000000000000000000000000000000000000000000000000000169063e6a1e888906104349087908790879060040161130b565b608060405180830381865afa158015610451573d6000803e3d6000fd5b505050506040513d601f19601f8201168201806040525081019061047591906112cd565b50909695505050505050565b60405163e8e7e2d160e01b81526001600160a01b03838116600483015282811660248301526000917f00000000000000000000000000000000000000000000000000000000000000009091169063e8e7e2d190604401602060405180830381865afa1580156104f4573d6000803e3d6000fd5b505050506040513d601f19601f82011682018060405250810190610307919061132e565b6000806000807f00000000000000000000000000000000000000000000000000000000000000006001600160a01b031663e6a1e8888888886040518463ffffffff1660e01b815260040161056e9392919061130b565b608060405180830381865afa15801561058b573d6000803e3d6000fd5b505050506040513d601f19601f820116820180604052508101906105af91906112cd565b929a91995097509095509350505050565b60006105ce858585856106cd565b90505b949350505050565b6000807f00000000000000000000000000000000000000000000000000000000000000006001600160a01b031662422bbe8686866040518463ffffffff1660e01b815260040161062b9392919061130b565b606060405180830381865afa158015610648573d6000803e3d6000fd5b505050506040513d601f19601f8201168201806040525081019061066c919061134b565b9097909650945050505050565b60006105d184338585610920565b6000610307838360076b7fffffffffffffffffffffff6106cd565b60006105ce85858585610a7d565b60006105ce85858585610920565b600061032c8686868686610bd6565b6040805160008082526020820190925281906001600160a01b037f0000000000000000000000000000000000000000000000000000000000000000169063811b3d4090610725908990899089908990604481016113d3565b60408051601f19818403018152918152602080830180516001600160e01b031660e09590951b949094179093528051600081529283019052925061032c91507f0000000000000000000000000000000000000000000000000000000000000000908390610c5c565b6000806001600160a01b0386163314610847576001600160a01b037f00000000000000000000000000000000000000000000000000000000000000001663354b95908888888860005b6040519080825280601f01601f191660200182016040528015610800576020820181803683370190505b50604051602401610815959493929190611412565b604051602081830303815290604052915060e01b6020820180516001600160e01b0383818316178352505050506108e8565b6001600160a01b037f0000000000000000000000000000000000000000000000000000000000000000166350209a6288878760005b6040519080825280601f01601f1916602001820160405280156108a6576020820181803683370190505b506040516024016108ba9493929190611450565b604051602081830303815290604052915060e01b6020820180516001600160e01b0383818316178352505050505b90506109157f00000000000000000000000000000000000000000000000000000000000000008285610c5c565b979650505050505050565b6000807f00000000000000000000000000000000000000000000000000000000000000006001600160a01b031663e6a1e8888787876040518463ffffffff1660e01b81526004016109739392919061130b565b608060405180830381865afa158015610990573d6000803e3d6000fd5b505050506040513d601f19601f820116820180604052508101906109b491906112cd565b5050915050600083600b0b1315610a2f5780600b0b6000036109f8576040805160008152602081019091526109f0908790879087908790610bd6565b9150506105d1565b82600b0b81600b0b14610a25576040805160008152602081019091526109f090879087908790879061078d565b60019150506105d1565b82600b0b600003610a6457600081600b0b1315610a25576040805160008152602081019091526109f090879087908790610a7d565b60405163cea9aa5f60e01b815260040160405180910390fd5b6000806001600160a01b038516331480610a9f57506001600160a01b03841633145b610b28576040805160008152602081019091526001600160a01b037f00000000000000000000000000000000000000000000000000000000000000001690634c8b181f90610af69089908990899060448101611486565b604051602081830303815290604052915060e01b6020820180516001600160e01b038381831617835250505050610ba9565b6040805160008152602081019091526001600160a01b037f0000000000000000000000000000000000000000000000000000000000000000169063b4b333c690610b7b9089908990899060448101611486565b604051602081830303815290604052915060e01b6020820180516001600160e01b0383818316178352505050505b905061032c7f00000000000000000000000000000000000000000000000000000000000000008285610c5c565b6000806001600160a01b0386163314610c23576001600160a01b037f0000000000000000000000000000000000000000000000000000000000000000166394229ecb8888888860006107d6565b6001600160a01b037f0000000000000000000000000000000000000000000000000000000000000000166362fc305e888787600061087c565b604080516001808252818301909252600091829190816020015b60408051606080820183526000808352602083015291810191909152815260200190600190039081610c76579050509050604051806060016040528060c963ffffffff168152602001866001600160a01b031681526020018585604051602001610ce19291906114ba565b60405160208183030381529060405281525081600081518110610d0657610d066114e8565b602002602001018190525060007f00000000000000000000000000000000000000000000000000000000000000006001600160a01b031663670e77e383604051602401610d5391906114fe565b604051602081830303815290604052915060e01b6020820180516001600160e01b03838183161783525050505090506000807f00000000000000000000000000000000000000000000000000000000000000006001600160a01b03168333604051602001610dc292919061158c565b60408051601f1981840301815290829052610ddc916115c3565b6000604051808303816000865af19150503d8060008114610e19576040519150601f19603f3d011682016040523d82523d6000602084013e610e1e565b606091505b509150915081610e3157610e3181610e3f565b506001979650505050505050565b600481511015610e965760405162461bcd60e51b815260206004820152601a60248201527f43616c6c5574696c733a2074617267657420726576657274282900000000000060448201526064015b60405180910390fd5b602081015163b1b7848f60e01b6001600160e01b0319821601610f465760408051808201825260208082527f43616c6c5574696c733a207461726765742070616e69636b65643a2030785f5f90820190815260248501517f43616c6c5574696c733a207461726765742070616e69636b65643a2030780000600482811c600f908116603090810160081b918516011791909117909252925162461bcd60e51b8152919291610e8d918491016115df565b81518060208401fd5b50565b6001600160a01b0381168114610f4f57600080fd5b80600b0b8114610f4f57600080fd5b60008060408385031215610f8957600080fd5b8235610f9481610f52565b91506020830135610fa481610f67565b809150509250929050565b60008060408385031215610fc257600080fd5b8235610fcd81610f52565b91506020830135610fa481610f52565b634e487b7160e01b600052604160045260246000fd5b600082601f83011261100457600080fd5b813567ffffffffffffffff8082111561101f5761101f610fdd565b604051601f8301601f19908116603f0116810190828211818310171561104757611047610fdd565b8160405283815286602085880101111561106057600080fd5b836020870160208301376000602085830101528094505050505092915050565b600080600080600060a0868803121561109857600080fd5b85356110a381610f52565b945060208601356110b381610f52565b935060408601356110c381610f52565b925060608601356110d381610f67565b9150608086013567ffffffffffffffff8111156110ef57600080fd5b6110fb88828901610ff3565b9150509295509295909350565b60008060006060848603121561111d57600080fd5b833561112881610f52565b9250602084013561113881610f52565b9150604084013561114881610f52565b809150509250925092565b60ff81168114610f4f57600080fd5b6000806000806080858703121561117857600080fd5b843561118381610f52565b9350602085013561119381610f52565b925060408501356111a381611153565b915060608501356111b381610f67565b939692955090935050565b6000806000606084860312156111d357600080fd5b83356111de81610f52565b925060208401356111ee81610f52565b9150604084013561114881610f67565b6000806000806080858703121561121457600080fd5b843561121f81610f52565b9350602085013561122f81610f52565b9250604085013561123f81610f52565b9150606085013567ffffffffffffffff81111561125b57600080fd5b61126787828801610ff3565b91505092959194509250565b6000806000806080858703121561128957600080fd5b843561129481610f52565b935060208501356112a481610f52565b925060408501356111a381610f52565b6000602082840312156112c657600080fd5b5051919050565b600080600080608085870312156112e357600080fd5b8451935060208501516112f581610f67565b6040860151606090960151949790965092505050565b6001600160a01b0393841681529183166020830152909116604082015260600190565b60006020828403121561134057600080fd5b815161030781610f67565b60008060006060848603121561136057600080fd5b83519250602084015161137281611153565b604085015190925061114881610f67565b60005b8381101561139e578181015183820152602001611386565b50506000910152565b600081518084526113bf816020860160208601611383565b601f01601f19169290920160200192915050565b6001600160a01b0386811682528516602082015260ff84166040820152600b83900b606082015260a060808201819052600090610915908301846113a7565b6001600160a01b038681168252858116602083015284166040820152600b83900b606082015260a060808201819052600090610915908301846113a7565b6001600160a01b03858116825284166020820152600b83900b604082015260806060820181905260009061032c908301846113a7565b6001600160a01b03858116825284811660208301528316604082015260806060820181905260009061032c908301846113a7565b6040815260006114cd60408301856113a7565b82810360208401526114df81856113a7565b95945050505050565b634e487b7160e01b600052603260045260246000fd5b60006020808301818452808551808352604092508286019150828160051b87010184880160005b8381101561157e57888303603f190185528151805163ffffffff168452878101516001600160a01b031688850152860151606087850181905261156a818601836113a7565b968901969450505090860190600101611525565b509098975050505050505050565b6000835161159e818460208801611383565b60609390931b6bffffffffffffffffffffffff19169190920190815260140192915050565b600082516115d5818460208701611383565b9190910192915050565b60208152600061030760208301846113a756fea2646970667358221220c07f74c2f3e98315e87ff75df5e6cc10fe07fc23c35c238d60d42946018a258f64736f6c6343000810003360a06040523480156200001157600080fd5b506040516200538238038062005382833981016040819052620000349162000046565b6001600160a01b031660805262000078565b6000602082840312156200005957600080fd5b81516001600160a01b03811681146200007157600080fd5b9392505050565b6080516152ee6200009460003960006110d701526152ee6000f3fe608060405234801561001057600080fd5b506004361061012c5760003560e01c80637fbc7639116100ad578063acf4a6c211610071578063acf4a6c214610320578063b6dacdb814610333578063b96731c214610355578063cd7245c514610368578063d787840a146103c057600080fd5b80637fbc763914610294578063899baaec146102a75780639903ad38146102d75780639b2e48bc146102df578063acafa1b81461030d57600080fd5b806350d75d25116100f457806350d75d25146101f957806352d1902d146102015780635b534051146102175780636041ae961461025b5780637730599e1461026e57600080fd5b8063232d2b581461013157806323fc23f31461015a5780632e5e74c61461019e5780633fd4176a146101b157806346951954146101e4575b600080fd5b61014461013f3660046143c7565b6103d3565b60405161015191906144a2565b60405180910390f35b61016d6101683660046144b5565b610af6565b6040805194151585526001600160801b03938416602086015291831691840191909152166060820152608001610151565b6101446101ac366004614500565b610b61565b6101cc73__$2ab93b044e48e21ae6c24b46e21748f7f9$__81565b6040516001600160a01b039091168152602001610151565b6101f76101f2366004614554565b6110cc565b005b6101cc611125565b610209611154565b604051908152602001610151565b61022a610225366004614578565b6111b8565b6040516101519493929190931515845291151560208401526001600160801b03166040830152606082015260800190565b6101446102693660046145d4565b61128e565b7f8aedc3b5d4bf031e11a7e2940f7251c005698405d58e02e1c247fed3b1b3a674610209565b6101446102a236600461464f565b6116b7565b6102ba6102b5366004614690565b6117a4565b604080519283526001600160801b03909116602083015201610151565b6101f761184d565b6102f26102ed3660046146e1565b611956565b60408051938452602084019290925290820152606001610151565b61014461031b366004614500565b611b61565b61014461032e3660046145d4565b611f6e565b610346610341366004614722565b61252c565b6040516101519392919061479f565b61014461036336600461483c565b612781565b61037b610376366004614891565b612881565b604080516001600160a01b03909616865263ffffffff9094166020860152911515928401929092526001600160801b039091166060830152608082015260a001610151565b6101446103ce3660046148bd565b612987565b60606001600160a01b0385166104055760405163e961d6ff60e01b81526109c460048201526024015b60405180910390fd5b61040d61421f565b61041561427d565b606060008061045a8c89898080601f016020809104026020016040519081016040528093929190818152602001838380828437600092019190915250612b4692505050565b90508060a00151925080606001519150506104798b828b8d6000612d13565b60808901521515602080890191909152606088019190915260408088018390529287528251908101909252600082526104b5918d918c91612e0e565b925086868080601f0160208091040260200160405190810160405280939291908181526020018383808284376000920191909152505050602086015191965050156105195764040000000060c084015261050f8386612e3c565b60a0850152610534565b64010000000060c084015261052e8386612e3c565b60a08501525b83602001518015610551575060808401515163ffffffff90811614155b1561062c576105a08460800151608001516001600160801b0316896001600160801b03168660600151602001516001600160801b03166105919190614937565b61059b919061494a565b612ff3565b6060850180516001600160801b03909216602090920191909152845190516001600160a01b038d169163a1b2bf8b916105d890613060565b6040518363ffffffff1660e01b81526004016105f592919061498d565b600060405180830381600087803b15801561060f57600080fd5b505af1158015610623573d6000803e3d6000fd5b50505050610813565b8360200151156106a9576106718460800151608001516001600160801b0316896001600160801b03168660600151604001516001600160801b03166105919190614937565b6060850180516001600160801b03909216604090920191909152845190516001600160a01b038d169163a1b2bf8b916105d890613060565b6040518060a0016040528063ffffffff80168152602001826001600160a01b031681526020018b63ffffffff1681526020018560600151600001516001600160801b03168152602001896001600160801b031681525084608001819052508a6001600160a01b03166312a6a3f8856040015161072887608001516130fe565b6040518363ffffffff1660e01b815260040161074592919061498d565b600060405180830381600087803b15801561075f57600080fd5b505af1158015610773573d6000803e3d6000fd5b505050508784606001516040015161078b91906149a6565b6060850180516001600160801b03909216604090920191909152845190516001600160a01b038d169163a1b2bf8b916107c390613060565b6040518363ffffffff1660e01b81526004016107e092919061498d565b600060405180830381600087803b1580156107fa57600080fd5b505af115801561080e573d6000803e3d6000fd5b505050505b60008460800151608001516001600160801b031685608001516060015186606001516000015161084391906149cd565b6001600160801b031661085691906149ed565b905063ffffffff801685608001516000015163ffffffff16036108ef576108868c8361088184614a72565b6131a5565b6001600160a01b038c1663cf97256d8361089f84614a72565b6040518363ffffffff1660e01b81526004016108bc929190614a8e565b600060405180830381600087803b1580156108d657600080fd5b505af11580156108ea573d6000803e3d6000fd5b505050505b60405163cf97256d60e01b81526001600160a01b038d169063cf97256d9061091d908d908590600401614a8e565b600060405180830381600087803b15801561093757600080fd5b505af115801561094b573d6000803e3d6000fd5b505050508460200151156109f15760608086015151608080880180516001600160801b039384169401939093528251918c16910152604086015190516001600160a01b038e169163a1b2bf8b916109a1906130fe565b6040518363ffffffff1660e01b81526004016109be92919061498d565b600060405180830381600087803b1580156109d857600080fd5b505af11580156109ec573d6000803e3d6000fd5b505050505b846020015115610a205764080000000060c085015260a0850151610a17908590886132f3565b9650610a409050565b64020000000060c085015260a0850151610a3c908590886132f3565b9650505b8a63ffffffff16826001600160a01b03168d6001600160a01b03167f0115987243fd19d615b5ea62a80372a06a2b37fec378b148ee7a507c5c4c0a398d8d88604051610a8e93929190614aa7565b60405180910390a4896001600160a01b03168c6001600160a01b03167fe0707ac7efb8b59c22189af8d004ed17dc9e4379e71b9066119b62c182524977848e8d88604051610adf9493929190614ae3565b60405180910390a350505050509695505050505050565b600080600080610b1f604080516060810182526000808252602082018190529181019190915290565b6000610b2b888861353f565b9050610b3789826135a6565b90965091508515610b5657815160208301516040840151919650945092505b505093509350935093565b6060610b6b61421f565b610b7361427d565b600060606000610bb98c89898080601f016020809104026020016040519081016040528093929190818152602001838380828437600092019190915250612b4692505050565b606081015160a0909101519093509150506001600160a01b038816610bf55760405163e961d6ff60e01b81526109c460048201526024016103fc565b896001600160a01b0316826001600160a01b031614610c27576040516392da6d1760e01b815260040160405180910390fd5b610c358b8b8a8c6001612d13565b6080890152506060870152604080870182905291865281516020810190925260008252610c65918d918b91612e0e565b925086868080601f0160208091040260200160405190810160405280939291908181526020018383808284376000920191909152505064100000000060c087015250909550610cb690508386612e3c565b60a08501526080808501519081015160609182015191860151516000926001600160801b0390921691610ce8916149cd565b6001600160801b0316610cfb91906149ed565b60808601515190915063ffffffff90811614610d4857846080015160800151856060015160200151610d2d91906149cd565b60608601516001600160801b03909116602090910152610d7b565b846080015160800151856060015160400151610d6491906149cd565b60608601516001600160801b039091166040909101525b8b6001600160a01b031663a1b2bf8b8660000151610d9c8860600151613060565b6040518363ffffffff1660e01b8152600401610db992919061498d565b600060405180830381600087803b158015610dd357600080fd5b505af1158015610de7573d6000803e3d6000fd5b5050505060808501515163ffffffff90811614610e1157610e118c8a8760800151600001516136ba565b60808501515163ffffffff1663fffffffe1901610e9f57610e368c8c61088184614a72565b6001600160a01b038c1663cf97256d8c610e4f84614a72565b6040518363ffffffff1660e01b8152600401610e6c929190614a8e565b600060405180830381600087803b158015610e8657600080fd5b505af1158015610e9a573d6000803e3d6000fd5b505050505b6040858101519051632704839760e01b81526004810191909152600260248201526001600160a01b038d1690632704839790604401600060405180830381600087803b158015610eee57600080fd5b505af1158015610f02573d6000803e3d6000fd5b505060405163cf97256d60e01b81526001600160a01b038f16925063cf97256d9150610f34908c908590600401614a8e565b600060405180830381600087803b158015610f4e57600080fd5b505af1158015610f62573d6000803e3d6000fd5b505064200000000060c0870152505060a0850151610f82908590886132f3565b9050809650508963ffffffff168b6001600160a01b03168d6001600160a01b03167fe1f8e9cd8061e5b251769965bda6ca9ef1674bc6541fb9131039fa53f024d1428c86604051610fd4929190614b2c565b60405180910390a4886001600160a01b03168c6001600160a01b03167f9e02127550b99adc8cc6ee332a36f31338facdbc396cebefce9a047247cd04558d8d8660405161102393929190614b50565b60405180910390a38963ffffffff168b6001600160a01b03168d6001600160a01b03167f0115987243fd19d615b5ea62a80372a06a2b37fec378b148ee7a507c5c4c0a398c60008760405161107a93929190614aa7565b60405180910390a4886001600160a01b03168c6001600160a01b03167fe0707ac7efb8b59c22189af8d004ed17dc9e4379e71b9066119b62c1825249778d8d600087604051610adf9493929190614ae3565b336001600160a01b037f0000000000000000000000000000000000000000000000000000000000000000161461111957604051632a94f67960e21b81526120d060048201526024016103fc565b61112281613745565b50565b600061114f7f360894a13ba1a3210667c828492db98dca3e2076cc3735a920a3ca505d382bbc5490565b905090565b6000306001600160a01b0316637730599e6040518163ffffffff1660e01b8152600401602060405180830381865afa158015611194573d6000803e3d6000fd5b505050506040513d601f19601f8201168201806040525081019061114f9190614b80565b6000806000806000806111e4604080516060810182526000808252602082018190529181019190915290565b6111ec6142b8565b6111fa8c8c8b8d6000612d13565b909b50929650909450925090508761122357600080600080975097509750975050505050611283565b8051608082015163ffffffff9182169091141597509550866112795780608001516001600160801b03168160600151836000015161126191906149cd565b6001600160801b03166112749190614b99565b61127c565b60005b9450505050505b945094509450949050565b606061129861421f565b6112a061427d565b6000606060006112e68b89898080601f016020809104026020016040519081016040528093929190818152602001838380828437600092019190915250612b4692505050565b9050806060015192508060a001519150506113058a8a848b6001612d13565b6080890181905260608901929092525060408701919091529085525163ffffffff1663fffffffe190161134f57604051639995b0c160e01b81526107d460048201526024016103fc565b61136e8a8a866040015160405180602001604052806000815250612e0e565b925086868080601f0160208091040260200160405190810160405280939291908181526020018383808284376000920191909152505064100000000060c0870152509095506113bf90508386612e3c565b60a08501526080808501519081015160609182015191860151516000926001600160801b03909216916113f1916149cd565b6001600160801b031661140491906149ed565b905084608001516080015185606001516020015161142291906149cd565b6060860180516001600160801b03909216602090920191909152608080870151015190516040015161145491906149a6565b6060860180516001600160801b03909216604090920191909152855190516001600160a01b038d169163a1b2bf8b9161148c90613060565b6040518363ffffffff1660e01b81526004016114a992919061498d565b600060405180830381600087803b1580156114c357600080fd5b505af11580156114d7573d6000803e3d6000fd5b505050506114ee8b848760800151600001516136ba565b606080860151516080870180516001600160801b039092169190920152805163ffffffff9052604086015190516001600160a01b038d169163a1b2bf8b91611535906130fe565b6040518363ffffffff1660e01b815260040161155292919061498d565b600060405180830381600087803b15801561156c57600080fd5b505af1158015611580573d6000803e3d6000fd5b505060405163cf97256d60e01b81526001600160a01b038e16925063cf97256d91506115b29086908590600401614a8e565b600060405180830381600087803b1580156115cc57600080fd5b505af11580156115e0573d6000803e3d6000fd5b505064200000000060c0870152505060a0850151611600908590886132f3565b9050809650508863ffffffff168a6001600160a01b03168c6001600160a01b03167fe1f8e9cd8061e5b251769965bda6ca9ef1674bc6541fb9131039fa53f024d1428686604051611652929190614b2c565b60405180910390a4826001600160a01b03168b6001600160a01b03167f9e02127550b99adc8cc6ee332a36f31338facdbc396cebefce9a047247cd04558c8c866040516116a193929190614b50565b60405180910390a3505050505095945050505050565b606060006116fb8785858080601f016020809104026020016040519081016040528093929190818152602001838380828437600092019190915250612b4692505050565b60608101519091506000806117118a848b61394d565b9150915080600001516001600160801b0316886001600160801b0316101561174c5760405163cfdca72560e01b815260040160405180910390fd5b61175f8a848b85858d8a60a001516139b0565b86868080601f016020809104026020016040519081016040528093929190818152602001838380828437600092019190915250929d9c50505050505050505050505050565b60008060006117b3868661353f565b90506000806117c289846135a6565b91509150816117e857604051639995b0c160e01b81526107d160048201526024016103fc565b6000816040015182602001516117fe91906149a6565b6001600160801b03169050600061181861059b838a614bb8565b83519091506118289082906149a6565b955061183d826001600160801b038316614b99565b9650505050505094509492505050565b600054610100900460ff161580801561186d5750600054600160ff909116105b806118875750303b158015611887575060005460ff166001145b6118ea5760405162461bcd60e51b815260206004820152602e60248201527f496e697469616c697a61626c653a20636f6e747261637420697320616c72656160448201526d191e481a5b9a5d1a585b1a5e995960921b60648201526084016103fc565b6000805460ff19166001179055801561190d576000805461ff0019166101001790555b8015611122576000805461ff0019169055604051600181527f7f26b83ff96e1f2b6a682f133852f6798a09c465da95921460cefb3847402498906020015b60405180910390a150565b60008060006060806119688888613be3565b909250905060005b81518163ffffffff161015611b455760006119896142b8565b600080868563ffffffff16815181106119a4576119a4614bda565b602002602001015190506119d78d878763ffffffff16815181106119ca576119ca614bda565b6020026020010151613cd6565b9094509250836119e9576119e9614bf0565b8063ffffffff16836000015163ffffffff1614611a0857611a08614bf0565b6001600160a01b038d16634b61cc33308e611a2d63ffffffff8616600160801b614937565b60016040518563ffffffff1660e01b8152600401611a4e9493929190614c06565b600060405180830381865afa158015611a6b573d6000803e3d6000fd5b505050506040513d6000823e601f3d908101601f19168201604052611a939190810190614d2c565b600081518110611aa557611aa5614bda565b6020026020010151915050611ad3604080516060810182526000808252602082018190529181019190915290565b611add8d836135a6565b909450905083611aef57611aef614bf0565b82608001516001600160801b031683606001518260000151611b1191906149cd565b6001600160801b0316611b2491906149ed565b611b2e908b614d60565b99505050505080611b3e90614d88565b9050611970565b50611b508888613df2565b935060009250505093509350939050565b6060611ba38784848080601f016020809104026020016040519081016040528093929190818152602001838380828437600092019190915250612b4692505050565b506001600160a01b038416611bcf5760405163e961d6ff60e01b81526109c460048201526024016103fc565b611bd761421f565b611bdf61427d565b611bed8989888a6001612d13565b6080870181905260608701929092525060408501919091529083525163ffffffff90811614611c3357604051635b5b42a560e01b81526107d360048201526024016103fc565b60008260800151608001516001600160801b0316836080015160600151846060015160000151611c6391906149cd565b6001600160801b0316611c769190614b99565b9050611c978a8a856040015160405180602001604052806000815250612e0e565b915085858080601f0160208091040260200160405190810160405280939291908181526020018383808284376000920191909152509296505082159150611f2790505764040000000060c0830152611cef8285612e3c565b60a0840152611d028a8a61088184614a72565b6001600160a01b038a1663cf97256d8a611d1b84614a72565b6040518363ffffffff1660e01b8152600401611d38929190614a8e565b600060405180830381600087803b158015611d5257600080fd5b505af1158015611d66573d6000803e3d6000fd5b50505050606083810151516080850180516001600160801b039092169190920152604084015190516001600160a01b038c169163a1b2bf8b91611da8906130fe565b6040518363ffffffff1660e01b8152600401611dc592919061498d565b600060405180830381600087803b158015611ddf57600080fd5b505af1158015611df3573d6000803e3d6000fd5b505060405163cf97256d60e01b81526001600160a01b038d16925063cf97256d9150611e25908a908590600401614a8e565b600060405180830381600087803b158015611e3f57600080fd5b505af1158015611e53573d6000803e3d6000fd5b505050508763ffffffff16896001600160a01b03168b6001600160a01b03167f467eccd248ef31c8bcef16d94856855799a8783aeef10f3759e43614059a6bb18a85604051611ea3929190614a8e565b60405180910390a4604080516001600160a01b038b8116825263ffffffff8b166020830152918101839052818916918c16907f48a3d91d4a07e4982b081260e24f922bd33bb965882772d6de19c922c3eabdea9060600160405180910390a364080000000060c083015260a0830151611f1e908390866132f3565b9450611f619050565b85858080601f0160208091040260200160405190810160405280939291908181526020018383808284376000920191909152509296505050505b5050509695505050505050565b6060611f7861421f565b611f8061427d565b600060606000611fc68b89898080601f016020809104026020016040519081016040528093929190818152602001838380828437600092019190915250612b4692505050565b9050806060015192508060a00151915050611fe58a8a848b6000612d13565b60808901521580156020890152606088019190915260408701919091529085526120395760808401515163ffffffff9081161461203957604051635b5b42a560e01b81526107d360048201526024016103fc565b86868080601f01602080910402602001604051908101604052809392919081815260200183838082843760009201829052506040808a0151815160208101909252918152949950612092948f94508e9350909150612e0e565b925083602001516121bb5764010000000060c08401526120b28386612e3c565b60a08086019190915260408051918201815260008083526001600160a01b038c16602084015263ffffffff8b1691830191909152606080870151516001600160801b0316908301526080808301919091528501528351612115908b908490613e9b565b60808501805163ffffffff909216909152604085015190516001600160a01b038c16916312a6a3f891612147906130fe565b6040518363ffffffff1660e01b815260040161216492919061498d565b600060405180830381600087803b15801561217e57600080fd5b505af1158015612192573d6000803e3d6000fd5b505064020000000060c0860152505060a08401516121b2908490876132f3565b955061247c9050565b64040000000060c08401526121d08386612e3c565b60a08501526080808501519081015160609182015191860151516000926001600160801b0390921691612202916149cd565b6001600160801b031661221591906149ed565b9050846080015160800151856060015160200181815161223591906149a6565b6001600160801b031690525060808086015101516060860151604001805161225e9083906149cd565b6001600160801b0316905250845160608601516001600160a01b038d169163a1b2bf8b9161228b90613060565b6040518363ffffffff1660e01b81526004016122a892919061498d565b600060405180830381600087803b1580156122c257600080fd5b505af11580156122d6573d6000803e3d6000fd5b505050506122e98b8b8361088190614a72565b6001600160a01b038b1663cf97256d8b61230284614a72565b6040518363ffffffff1660e01b815260040161231f929190614a8e565b600060405180830381600087803b15801561233957600080fd5b505af115801561234d573d6000803e3d6000fd5b505060405163cf97256d60e01b81526001600160a01b038e16925063cf97256d915061237f9086908590600401614a8e565b600060405180830381600087803b15801561239957600080fd5b505af11580156123ad573d6000803e3d6000fd5b5050506060808701515160808801516001600160801b039091169101525084516123da908c908590613e9b565b60808601805163ffffffff909216909152604086015190516001600160a01b038d169163a1b2bf8b9161240c906130fe565b6040518363ffffffff1660e01b815260040161242992919061498d565b600060405180830381600087803b15801561244357600080fd5b505af1158015612457573d6000803e3d6000fd5b505064080000000060c0870152505060a0850151612477908590886132f3565b965050505b8763ffffffff16896001600160a01b03168b6001600160a01b03167f492d2641617cfaf24ac7328f85bc5bdf5113537d78dc7671afa4f49a73f053c285856040516124c8929190614b2c565b60405180910390a4816001600160a01b03168a6001600160a01b03167fc0b8396b655615cdb85fe462a9a1792480816f909cd46d9517a940b386dfbf6b8b8b8560405161251793929190614b50565b60405180910390a35050505095945050505050565b606080606080606061253e8787613be3565b9092509050600061254d6142b8565b82516001600160401b0381111561256657612566614c2f565b60405190808252806020026020018201604052801561258f578160200160208202803683370190505b50965082516001600160401b038111156125ab576125ab614c2f565b6040519080825280602002602001820160405280156125d4578160200160208202803683370190505b50955082516001600160401b038111156125f0576125f0614c2f565b604051908082528060200260200182016040528015612619578160200160208202803683370190505b50945060005b83518163ffffffff161015612775576000858263ffffffff168151811061264857612648614bda565b602002602001015190506000858363ffffffff168151811061266c5761266c614bda565b602002602001015190506126808c82613cd6565b90955093508461269257612692614bf0565b8163ffffffff16846000015163ffffffff16146126b1576126b1614bf0565b83602001518a8463ffffffff16815181106126ce576126ce614bda565b60200260200101906001600160a01b031690816001600160a01b0316815250508360400151898463ffffffff168151811061270b5761270b614bda565b602002602001019063ffffffff16908163ffffffff16815250508360800151888463ffffffff168151811061274257612742614bda565b60200260200101906001600160801b031690816001600160801b03168152505050508061276e90614d88565b905061261f565b50505050509250925092565b606060006127c58785858080601f016020809104026020016040519081016040528093929190818152602001838380828437600092019190915250612b4692505050565b60608101519091506000806127db8a848b61394d565b915091506000816040015182602001516127f591906149a6565b6001600160801b03169050801561283b57600061281561059b838c614bb8565b90506128398c868d878786896000015161282f91906149a6565b8c60a001516139b0565b505b87878080601f016020809104026020016040519081016040528093929190818152602001838380828437600092019190915250929e9d5050505050505050505050505050565b60008060008060008060006128af604080516060810182526000808252602082018190529181019190915290565b6128b76142b8565b6128c18b8b613cd6565b9094509050836128e857604051639995b0c160e01b81526107d260048201526024016103fc565b8060200151985080604001519750612900898961353f565b925061290c8b846135a6565b90945091508361291e5761291e614bf0565b8051608082015163ffffffff9182169091141597509550866129745780608001516001600160801b03168160600151836000015161295c91906149cd565b6001600160801b031661296f9190614b99565b612977565b60005b9450505050509295509295909350565b606060006129cb8685858080601f016020809104026020016040519081016040528093929190818152602001838380828437600092019190915250612b4692505050565b606081015190915060006129df828861353f565b90506129eb8882613f42565b15612a0d57604051635b5b42a560e01b81526107d060048201526024016103fc565b876001600160a01b03166312a6a3f882612a5e604051806060016040528060006001600160801b0316815260200160006001600160801b0316815260200160006001600160801b0316815250613060565b6040518363ffffffff1660e01b8152600401612a7b92919061498d565b600060405180830381600087803b158015612a9557600080fd5b505af1158015612aa9573d6000803e3d6000fd5b505050508663ffffffff16826001600160a01b0316896001600160a01b03167f01ab8663165edfb7390d9e5f75d960a66dacf4f01fa9787e3a731c870d0da9218660a00151604051612afb91906144a2565b60405180910390a485858080601f016020809104026020016040519081016040528093929190818152602001838380828437600092019190915250929b9a5050505050505050505050565b612b4e6142e6565b336001600160a01b0316836001600160a01b03166320bc44256040518163ffffffff1660e01b8152600401602060405180830381865afa158015612b96573d6000803e3d6000fd5b505050506040513d601f19601f82011682018060405250810190612bba9190614db6565b6001600160a01b031614612c045760405162461bcd60e51b81526020600482015260116024820152701d5b985d5d1a1bdc9a5e9959081a1bdcdd607a1b60448201526064016103fc565b604051632fd0a1cd60e21b8152339063bf42873490612c279085906004016144a2565b602060405180830381865afa158015612c44573d6000803e3d6000fd5b505050506040513d601f19601f82011682018060405250810190612c689190614de3565b612ca25760405162461bcd60e51b815260206004820152600b60248201526a0d2dcecc2d8d2c840c6e8f60ab1b60448201526064016103fc565b604051631fb6491d60e11b81523390633f6c923a90612cc59085906004016144a2565b600060405180830381865afa158015612ce2573d6000803e3d6000fd5b505050506040513d6000823e601f3d908101601f19168201604052612d0a9190810190614e8a565b90505b92915050565b6040805160608101825260008082526020820181905291810182905281906000612d3b6142b8565b6000612d478a8961353f565b9550612d538987613fee565b9450612d5f8b876135a6565b9450905080612d8557604051639995b0c160e01b81526107d160048201526024016103fc565b612d8f8b86613cd6565b90935091508615612e005782612dbc57604051639995b0c160e01b81526107d260048201526024016103fc565b896001600160a01b031682602001516001600160a01b031614612de157612de1614bf0565b8763ffffffff16826040015163ffffffff1614612e0057612e00614bf0565b509550955095509550959050565b612e1661427d565b6001600160a01b0394851681529290931660208301526040820152606081019190915290565b6020820151604051633e7d48bd60e21b81526001600160a01b03909116600482015260609060009081908190339063f9f522f490602401606060405180830381865afa158015612e90573d6000803e3d6000fd5b505050506040513d601f19601f82011682018060405250810190612eb49190614f90565b91945092509050828015612ec6575081155b15612fea576000612ed7868861402f565b90508660c001518216600003612fdc576000612ef68860c001516140ad565b88516040808b015160608c015182516000815260208101909352612f2293923092919060448101614fcc565b60408051601f19818403018152918152602080830180516001600160e01b03166001600160e01b031990951694909417909352918a015160c08b01519251633a020f0160e11b815291935033926374041e0292612f919291869164100000000091909114908890600401615011565b6000604051808303816000875af1158015612fb0573d6000803e3d6000fd5b505050506040513d6000823e601f3d908101601f19168201604052612fd8919081019061505a565b9550505b612fe7866000614144565b50505b50505092915050565b60006001600160801b0382111561305c5760405162461bcd60e51b815260206004820152602760248201527f53616665436173743a2076616c756520646f65736e27742066697420696e20316044820152663238206269747360c81b60648201526084016103fc565b5090565b604080516002808252606080830184529260208301908036833701905050905081600001516001600160801b0316600160801b1760001b816000815181106130aa576130aa614bda565b602002602001018181525050608082604001516001600160801b0316901b82602001516001600160801b03161760001b816001815181106130ed576130ed614bda565b602002602001018181525050919050565b6040805160028082526060808301845292602083019080368337019050509050816000015163ffffffff166020836040015163ffffffff16901b606084602001516001600160a01b0316901b171760001b8160008151811061316257613162614bda565b602002602001018181525050608082608001516001600160801b0316901b82606001516001600160801b03161760001b816001815181106130ed576130ed614bda565b806000036131b257505050565b604051634b61cc3360e01b81526000906001600160a01b03851690634b61cc33906131ed903090879064010000000090600190600401614c06565b600060405180830381865afa15801561320a573d6000803e3d6000fd5b505050506040513d6000823e601f3d908101601f191682016040526132329190810190614d2c565b90508161325b8260008151811061324b5761324b614bda565b602002602001015160001c61416c565b6132659190614d60565b60001b8160008151811061327b5761327b614bda565b602090810291909101015260405163048620af60e11b81526001600160a01b0385169063090c415e906132bb90869064010000000090869060040161508e565b600060405180830381600087803b1580156132d557600080fd5b505af11580156132e9573d6000803e3d6000fd5b5050505050505050565b6132fb6142e6565b6020840151604051633e7d48bd60e21b81526001600160a01b03909116600482015260609060009081908190339063f9f522f490602401606060405180830381865afa15801561334f573d6000803e3d6000fd5b505050506040513d601f19601f820116820180604052508101906133739190614f90565b88965091945092509050828015613388575081155b1561353457613397848961402f565b93508760c0015181166000036135225760006133b68960c001516140ad565b89516040808c015160608d0151825160008152602081019093526133e49392309291908e90604481016150b5565b60408051601f19818403018152918152602080830180516001600160e01b03166001600160e01b031990951694909417909352918b015160c08c0151925163079b42a160e21b81529193503392631e6d0a84926134539291869164200000000091909114908b90600401615011565b6000604051808303816000875af1158015613472573d6000803e3d6000fd5b505050506040513d6000823e601f3d908101601f1916820160405261349a919081019061505a565b604051631fb6491d60e11b81529095503390633f6c923a906134c09088906004016144a2565b600060405180830381865afa1580156134dd573d6000803e3d6000fd5b505050506040513d6000823e601f3d908101601f191682016040526135059190810190614e8a565b955061351a89608001518761010001516141d6565b610100870152505b61353186866101000151614144565b93505b505050935093915050565b60405168383ab13634b9b432b960b91b60208201526bffffffffffffffffffffffff19606084901b1660298201526001600160e01b031960e083901b16603d8201526000906041015b60405160208183030381529060405280519060200120905092915050565b60408051606081018252600080825260208201819052918101829052604051636c2d9f2f60e01b815230600482015260248101849052600260448201526000906001600160a01b03861690636c2d9f2f90606401600060405180830381865afa158015613617573d6000803e3d6000fd5b505050506040513d6000823e601f3d908101601f1916820160405261363f9190810190614d2c565b905060008160008151811061365657613656614bda565b602002602001015160001c905060008260018151811061367857613678614bda565b602002602001015160001c905060008211945084156136b0576001600160801b03808316855281166020850152608081901c60408501525b5050509250929050565b604051631528e57f60e31b81526001600160a01b038085166004830152831660248201526000604482015263ffffffff8216606482015273__$2ab93b044e48e21ae6c24b46e21748f7f9$__9063a9472bf89060840160006040518083038186803b15801561372857600080fd5b505af415801561373c573d6000803e3d6000fd5b50505050505050565b600061376f7f360894a13ba1a3210667c828492db98dca3e2076cc3735a920a3ca505d382bbc5490565b6001600160a01b0316036137c55760405162461bcd60e51b815260206004820152601d60248201527f5555505350726f786961626c653a206e6f742075706772616461626c6500000060448201526064016103fc565b806001600160a01b03166352d1902d6040518163ffffffff1660e01b8152600401602060405180830381865afa158015613803573d6000803e3d6000fd5b505050506040513d601f19601f820116820180604052508101906138279190614b80565b61382f611154565b146138885760405162461bcd60e51b815260206004820152602360248201527f5555505350726f786961626c653a206e6f7420636f6d70617469626c65206c6f60448201526267696360e81b60648201526084016103fc565b6001600160a01b03811630036138e05760405162461bcd60e51b815260206004820152601960248201527f5555505350726f786961626c653a2070726f7879206c6f6f700000000000000060448201526064016103fc565b613908817f360894a13ba1a3210667c828492db98dca3e2076cc3735a920a3ca505d382bbc55565b7fe011bc04c286c344a8fcbb8de77f953da762c3e25d8cdea984147fc4168a5dcc613931611154565b604080519182526001600160a01b03841660208301520161194b565b604080516060810182526000808252602082018190529181018290526000613975858561353f565b925061398186846135a6565b92509050806139a757604051639995b0c160e01b81526107d160048201526024016103fc565b50935093915050565b866001600160a01b031663cf97256d8785602001516001600160801b03168660000151866139de91906149cd565b6001600160801b03166139f090614a72565b6139fa91906149ed565b6040518363ffffffff1660e01b8152600401613a17929190614a8e565b600060405180830381600087803b158015613a3157600080fd5b505af1158015613a45573d6000803e3d6000fd5b50505050613a7f878785604001516001600160801b0316866000015186613a6c91906149cd565b6001600160801b031661088191906149ed565b82516001600160801b03831684526001600160a01b03881663a1b2bf8b86613aa687613060565b6040518363ffffffff1660e01b8152600401613ac392919061498d565b600060405180830381600087803b158015613add57600080fd5b505af1158015613af1573d6000803e3d6000fd5b505050508563ffffffff16876001600160a01b0316896001600160a01b03167f81e37f3d9f16cbf29a62d6a1c21d79b23ef29b54124ec44af43a50fffb9304f3848789604001518a6020015189604051613b4f95949392919061511b565b60405180910390a46040516379359f6f60e01b81526001600160a01b0388811660048301528916906379359f6f90602401602060405180830381865afa158015613b9d573d6000803e3d6000fd5b505050506040513d601f19601f82011682018060405250810190613bc19190614de3565b156132e957604051636212897360e01b815261083460048201526024016103fc565b60608073__$2ab93b044e48e21ae6c24b46e21748f7f9$__6306967a8c85856000600160801b6040518563ffffffff1660e01b8152600401613c289493929190614c06565b600060405180830381865af4158015613c45573d6000803e3d6000fd5b505050506040513d6000823e601f3d908101601f19168201604052613c6d9190810190615157565b909250905060005b8151811015613cce57613ca184838381518110613c9457613c94614bda565b6020026020010151613fee565b828281518110613cb357613cb3614bda565b6020908102919091010152613cc78161521b565b9050613c75565b509250929050565b6000613ce06142b8565b604051636c2d9f2f60e01b815230600482015260248101849052600260448201526000906001600160a01b03861690636c2d9f2f90606401600060405180830381865afa158015613d35573d6000803e3d6000fd5b505050506040513d6000823e601f3d908101601f19168201604052613d5d9190810190614d2c565b9050600081600081518110613d7457613d74614bda565b602002602001015160001c9050600082600181518110613d9657613d96614bda565b602002602001015160001c905060008211945084156136b057606082811c60208087019190915283901c63ffffffff9081166040870152831685526001600160801b03821690850152608081811c908501525050509250929050565b600080836001600160a01b0316634b61cc33308564010000000060016040518563ffffffff1660e01b8152600401613e2d9493929190614c06565b600060405180830381865afa158015613e4a573d6000803e3d6000fd5b505050506040513d6000823e601f3d908101601f19168201604052613e729190810190614d2c565b905080600081518110613e8757613e87614bda565b602002602001015160001c91505092915050565b604051630a32470160e41b81526001600160a01b03808516600483015283166024820152600060448201819052600160801b6064830152608482018390529073__$2ab93b044e48e21ae6c24b46e21748f7f9$__9063a32470109060a401602060405180830381865af4158015613f16573d6000803e3d6000fd5b505050506040513d601f19601f82011682018060405250810190613f3a9190615234565b949350505050565b604051636c2d9f2f60e01b8152306004820152602481018290526002604482015260009081906001600160a01b03851690636c2d9f2f90606401600060405180830381865afa158015613f99573d6000803e3d6000fd5b505050506040513d6000823e601f3d908101601f19168201604052613fc19190810190614d2c565b9050600081600081518110613fd857613fd8614bda565b6020908102919091010151151595945050505050565b604080516b39bab139b1b934b83a34b7b760a11b6020820152606084811b6bffffffffffffffffffffffff1916602c83015291810183905260009101613588565b6020810151608082015160a08301518351604051630768fabb60e41b8152606094339463768fabb094614066948a94600401615251565b6000604051808303816000875af1158015614085573d6000803e3d6000fd5b505050506040513d6000823e601f3d908101601f19168201604052612d0a919081019061505a565b600064010000000082036140c957506330d9c91560e01b919050565b64040000000082036140e35750630221347d60e61b919050565b64100000000082036140fd5750635f9e7d7760e01b919050565b6402000000008203614117575063d86ed3e560e01b919050565b6408000000008203614131575063230dbd2960e01b919050565b506353c11f9960e01b919050565b919050565b604051634c4d861f60e11b8152606090339063989b0c3e906140669086908690600401615296565b60006001600160ff1b0382111561305c5760405162461bcd60e51b815260206004820152602860248201527f53616665436173743a2076616c756520646f65736e27742066697420696e2061604482015267371034b73a191a9b60c11b60648201526084016103fc565b6000612d0a60006141ef6141e98661416c565b856141f4565b614209565b60008183136142035782612d0a565b50919050565b60008183136142185781612d0a565b5090919050565b6040805160c0810182526000808252602082018190529181019190915260608101614263604080516060810182526000808252602082018190529181019190915290565b81526020016142706142b8565b8152602001606081525090565b6040805160e0810182526000808252602082018190529181018290526060808201526080810182905260a0810182905260c081019190915290565b6040805160a08101825260008082526020820181905291810182905260608101829052608081019190915290565b604080516101608101825260008082526020820181905291810182905260608082018390526080820183905260a082015260c0810182905260e081018290526101008101829052610120810182905261014081019190915290565b6001600160a01b038116811461112257600080fd5b63ffffffff8116811461112257600080fd5b80356001600160801b038116811461413f57600080fd5b60008083601f84011261439157600080fd5b5081356001600160401b038111156143a857600080fd5b6020830191508360208285010111156143c057600080fd5b9250929050565b60008060008060008060a087890312156143e057600080fd5b86356143eb81614341565b955060208701356143fb81614356565b9450604087013561440b81614341565b935061441960608801614368565b925060808701356001600160401b0381111561443457600080fd5b61444089828a0161437f565b979a9699509497509295939492505050565b60005b8381101561446d578181015183820152602001614455565b50506000910152565b6000815180845261448e816020860160208601614452565b601f01601f19169290920160200192915050565b602081526000612d0a6020830184614476565b6000806000606084860312156144ca57600080fd5b83356144d581614341565b925060208401356144e581614341565b915060408401356144f581614356565b809150509250925092565b60008060008060008060a0878903121561451957600080fd5b863561452481614341565b9550602087013561453481614341565b9450604087013561454481614356565b9350606087013561441981614341565b60006020828403121561456657600080fd5b813561457181614341565b9392505050565b6000806000806080858703121561458e57600080fd5b843561459981614341565b935060208501356145a981614341565b925060408501356145b981614356565b915060608501356145c981614341565b939692955090935050565b6000806000806000608086880312156145ec57600080fd5b85356145f781614341565b9450602086013561460781614341565b9350604086013561461781614356565b925060608601356001600160401b0381111561463257600080fd5b61463e8882890161437f565b969995985093965092949392505050565b60008060008060006080868803121561466757600080fd5b853561467281614341565b9450602086013561468281614356565b935061461760408701614368565b600080600080608085870312156146a657600080fd5b84356146b181614341565b935060208501356146c181614341565b925060408501356146d181614356565b9396929550929360600135925050565b6000806000606084860312156146f657600080fd5b833561470181614341565b9250602084013561471181614341565b929592945050506040919091013590565b6000806040838503121561473557600080fd5b823561474081614341565b9150602083013561475081614341565b809150509250929050565b600081518084526020808501945080840160005b838110156147945781516001600160801b03168752958201959082019060010161476f565b509495945050505050565b606080825284519082018190526000906020906080840190828801845b828110156147e15781516001600160a01b0316845292840192908401906001016147bc565b5050508381038285015285518082528683019183019060005b8181101561481c57835163ffffffff16835292840192918401916001016147fa565b50508481036040860152614830818761475b565b98975050505050505050565b60008060008060006080868803121561485457600080fd5b853561485f81614341565b9450602086013561486f81614356565b93506040860135925060608601356001600160401b0381111561463257600080fd5b600080604083850312156148a457600080fd5b82356148af81614341565b946020939093013593505050565b600080600080606085870312156148d357600080fd5b84356148de81614341565b935060208501356148ee81614356565b925060408501356001600160401b0381111561490957600080fd5b6149158782880161437f565b95989497509550505050565b634e487b7160e01b600052601160045260246000fd5b80820180821115612d0d57612d0d614921565b81810381811115612d0d57612d0d614921565b600081518084526020808501945080840160005b8381101561479457815187529582019590820190600101614971565b828152604060208201526000613f3a604083018461495d565b6001600160801b038181168382160190808211156149c6576149c6614921565b5092915050565b6001600160801b038281168282160390808211156149c6576149c6614921565b60006001600160ff1b0381841382841380821686840486111615614a1357614a13614921565b600160ff1b6000871282811687830589121615614a3257614a32614921565b60008712925087820587128484161615614a4e57614a4e614921565b87850587128184161615614a6457614a64614921565b505050929093029392505050565b6000600160ff1b8201614a8757614a87614921565b5060000390565b6001600160a01b03929092168252602082015260400190565b6001600160a01b03841681526001600160801b0383166020820152606060408201819052600090614ada90830184614476565b95945050505050565b6001600160a01b038516815263ffffffff841660208201526001600160801b0383166040820152608060608201819052600090614b2290830184614476565b9695505050505050565b6001600160a01b0383168152604060208201819052600090613f3a90830184614476565b6001600160a01b038416815263ffffffff83166020820152606060408201819052600090614ada90830184614476565b600060208284031215614b9257600080fd5b5051919050565b6000816000190483118215151615614bb357614bb3614921565b500290565b600082614bd557634e487b7160e01b600052601260045260246000fd5b500490565b634e487b7160e01b600052603260045260246000fd5b634e487b7160e01b600052600160045260246000fd5b6001600160a01b0394851681529290931660208301526040820152606081019190915260800190565b634e487b7160e01b600052604160045260246000fd5b60405161016081016001600160401b0381118282101715614c6857614c68614c2f565b60405290565b604051601f8201601f191681016001600160401b0381118282101715614c9657614c96614c2f565b604052919050565b60006001600160401b03821115614cb757614cb7614c2f565b5060051b60200190565b600082601f830112614cd257600080fd5b81516020614ce7614ce283614c9e565b614c6e565b82815260059290921b84018101918181019086841115614d0657600080fd5b8286015b84811015614d215780518352918301918301614d0a565b509695505050505050565b600060208284031215614d3e57600080fd5b81516001600160401b03811115614d5457600080fd5b613f3a84828501614cc1565b8082018281126000831280158216821582161715614d8057614d80614921565b505092915050565b600063ffffffff808316818103614da157614da1614921565b6001019392505050565b805161413f81614341565b600060208284031215614dc857600080fd5b815161457181614341565b8051801515811461413f57600080fd5b600060208284031215614df557600080fd5b612d0a82614dd3565b805160ff8116811461413f57600080fd5b80516001600160e01b03198116811461413f57600080fd5b600082601f830112614e3857600080fd5b81516001600160401b03811115614e5157614e51614c2f565b614e64601f8201601f1916602001614c6e565b818152846020838601011115614e7957600080fd5b613f3a826020830160208701614452565b600060208284031215614e9c57600080fd5b81516001600160401b0380821115614eb357600080fd5b908301906101608286031215614ec857600080fd5b614ed0614c45565b614ed983614dfe565b8152614ee760208401614dfe565b602082015260408301516040820152614f0260608401614dab565b6060820152614f1360808401614e0f565b608082015260a083015182811115614f2a57600080fd5b614f3687828601614e27565b60a08301525060c083015160c082015260e083015160e0820152610100915081830151828201526101209150614f6d828401614dab565b828201526101409150614f81828401614dab565b91810191909152949350505050565b600080600060608486031215614fa557600080fd5b614fae84614dd3565b9250614fbc60208501614dd3565b9150604084015190509250925092565b6001600160a01b038681168252851660208201526040810184905260a060608201819052600090614fff90830185614476565b82810360808401526148308185614476565b6001600160a01b038516815260806020820181905260009061503590830186614476565b8415156040840152828103606084015261504f8185614476565b979650505050505050565b60006020828403121561506c57600080fd5b81516001600160401b0381111561508257600080fd5b613f3a84828501614e27565b60018060a01b0384168152826020820152606060408201526000614ada606083018461495d565b6001600160a01b038781168252861660208201526040810185905260c0606082018190526000906150e890830186614476565b82810360808401526150fa8186614476565b905082810360a084015261510e8185614476565b9998505050505050505050565b60006001600160801b0380881683528087166020840152808616604084015280851660608401525060a0608083015261504f60a0830184614476565b6000806040838503121561516a57600080fd5b82516001600160401b038082111561518157600080fd5b818501915085601f83011261519557600080fd5b815160206151a5614ce283614c9e565b82815260059290921b840181019181810190898411156151c457600080fd5b948201945b838610156151eb5785516151dc81614356565b825294820194908201906151c9565b9188015191965090935050508082111561520457600080fd5b5061521185828601614cc1565b9150509250929050565b60006001820161522d5761522d614921565b5060010190565b60006020828403121561524657600080fd5b815161457181614356565b60a08152600061526460a0830188614476565b6001600160a01b0396871660208401526040830195909552506060810192909252909216608090920191909152919050565b6040815260006152a96040830185614476565b9050826020830152939250505056fea264697066735822122092f94e519fca0c8b2c0f1dbae36d98323313cf9aeacbf0cebc5fc2346a6c59d464736f6c63430008100033608060405234801561001057600080fd5b506147e2806100206000396000f3fe608060405234801561001057600080fd5b506004361061002b5760003560e01c80639ed9331814610030575b600080fd5b61004361003e3660046100ae565b61005f565b6040516001600160a01b03909116815260200160405180910390f35b60008160405161006e906100a1565b6001600160a01b039091168152602001604051809103906000f08015801561009a573d6000803e3d6000fd5b5092915050565b6146ce806100df83390190565b6000602082840312156100c057600080fd5b81356001600160a01b03811681146100d757600080fd5b939250505056fe60a06040523480156200001157600080fd5b50604051620046ce380380620046ce833981016040819052620000349162000046565b6001600160a01b031660805262000078565b6000602082840312156200005957600080fd5b81516001600160a01b03811681146200007157600080fd5b9392505050565b6080516145d1620000fd6000396000818161041201528181610a6601528181610ad901528181610d8001528181610ea201528181610f71015281816111ba015281816112cf0152818161146b01528181611815015281816118d80152818161196401528181612160015281816121f70152818161328001526134c001526145d16000f3fe608060405234801561001057600080fd5b50600436106103425760003560e01c806362ad1b83116101b8578063a9059cbb11610104578063d9d078d6116100a2578063ee719bc81161007c578063ee719bc814610792578063fad8b32a146107a3578063fc673c4f146107b6578063fe9d9303146107c957600080fd5b8063d9d078d614610718578063dd62ed3e1461072b578063eb3537cc1461076457600080fd5b8063c68d4283116100de578063c68d4283146106cc578063ca789464146106df578063cf97256d146106f2578063d95b63711461070557600080fd5b8063a9059cbb14610693578063b84cdd4a146106a6578063bb0d196e146106b957600080fd5b806395d89b41116101715780639d8767411161014b5780639d87674114610647578063a1b2bf8b1461065a578063a3a7e7f31461066d578063a457c2d71461068057600080fd5b806395d89b41146106245780639903ad381461062c5780639bd9bbc61461063457600080fd5b806362ad1b83146105b257806366a12fb6146105c55780636c2d9f2f146105d857806370a08231146105eb57806379359f6f146105fe578063959b8c3f1461061157600080fd5b80632ec8eec711610292578063469519541161023057806352d1902d1161020a57806352d1902d1461055f578063556f0dc7146105855780635b9d09cc1461058c57806362aa52871461059f57600080fd5b806346951954146105245780634b61cc331461053757806350d75d251461055757600080fd5b8063395093511161026c57806339509351146104d857806341b706be146104eb57806342fe0980146104fe57806345977d031461051157600080fd5b80632ec8eec714610483578063313ce567146104b6578063386fa221146104c557600080fd5b806316d055d6116102ff57806320bc4425116102d957806320bc44251461041057806323b872dd1461044a578063245887fc1461045d578063270483971461047057600080fd5b806316d055d6146103d857806318160ddd146103eb5780631863e809146103fd57600080fd5b806306e485381461034757806306fdde0314610365578063090c415e1461037a578063095ea7b31461038f57806311bcc81e146103b257806312a6a3f8146103c5575b600080fd5b61034f6107dc565b60405161035c91906136de565b60405180910390f35b61036d6107ed565b60405161035c919061377b565b61038d6103883660046137ee565b61087f565b005b6103a261039d366004613849565b610933565b604051901515815260200161035c565b61038d6103c0366004613875565b61094a565b61038d6103d336600461388e565b610978565b61038d6103e63660046138d9565b610a64565b6003545b60405190815260200161035c565b61038d61040b3660046139ed565b610ac4565b7f00000000000000000000000000000000000000000000000000000000000000005b6040516001600160a01b03909116815260200161035c565b6103a2610458366004613a7f565b610d68565b61038d61046b366004613849565b610d7e565b61038d61047e366004613ac0565b610dfa565b610496610491366004613ae2565b610e9a565b60408051948552602085019390935291830152606082015260800161035c565b6040516012815260200161035c565b61034f6104d3366004613ae2565b610f3d565b6103a26104e6366004613849565b610fe0565b61038d6104f93660046138d9565b61101c565b61038d61050c366004613b40565b611048565b61038d61051f366004613875565b611183565b61038d610532366004613ae2565b6111af565b61054a610545366004613bda565b611205565b60405161035c9190613c20565b61043261124a565b7f6bfbb132610e56cb96575dba244667b9d6dbfeffe22b68a79fa16f2d18eb00196103ef565b60016103ef565b61038d61059a366004613c58565b611274565b61038d6105ad366004613a7f565b6112cd565b61038d6105c0366004613ca7565b61132a565b61038d6105d3366004613a7f565b6113d8565b61054a6105e6366004613d45565b6113f8565b6103ef6105f9366004613ae2565b61143a565b6103a261060c366004613ae2565b611463565b61038d61061f366004613ae2565b6114eb565b61036d61153c565b61038d61154b565b61038d610642366004613c58565b61160d565b61038d610655366004613d7a565b611661565b61038d61066836600461388e565b6116a1565b61038d61067b366004613ae2565b61174b565b6103a261068e366004613849565b61175f565b6103a26106a1366004613849565b6117ae565b6103a26106b4366004613849565b6117bc565b6103a26106c7366004613ae2565b61180d565b61038d6106da366004613d7a565b611895565b61038d6106ed366004613849565b6118d6565b61038d610700366004613849565b61194f565b6103a2610713366004613dd2565b611a3c565b6103a2610726366004613849565b611a4a565b6103ef610739366004613dd2565b6001600160a01b03918216600090815260116020908152604080832093909416825291909152205490565b610777610772366004613849565b611a64565b6040805193845260208401929092529082015260600161035c565b600e546001600160a01b0316610432565b61038d6107b1366004613ae2565b611b9e565b61038d6107c4366004613e0b565b611bef565b61038d6107d7366004613e52565b611c8f565b60606107e86012611cdf565b905090565b6060600f80546107fc90613e90565b80601f016020809104026020016040519081016040528092919081815260200182805461082890613e90565b80156108755780601f1061084a57610100808354040283529160200191610875565b820191906000526020600020905b81548152906001019060200180831161085857829003601f168201915b5050505050905090565b600033858560405160200161089693929190613eca565b6040516020818303038152906040528051906020012090506108eb81848480806020026020016040519081016040528093929190818152602001838360200280828437600092019190915250611d4592505050565b6040518481526001600160a01b0386169033907f30f416fa68fca014a0f334464c64b000ba53e99b6d2afdea9d5ca756372d5985906020015b60405180910390a35050505050565b6000610940338484611d86565b5060015b92915050565b6109753333836040518060200160405280600081525060405180602001604052806000815250611e3e565b50565b60405133906000906109909083908790602001613f13565b60408051601f19818403018152919052805160209091012090506109b48184611ff7565b156109db57604051635b5b42a560e01b815261138860048201526024015b60405180910390fd5b610a1881858580806020026020016040519081016040528093929190818152602001838360200280828437600092019190915250611d4592505050565b816001600160a01b03167f770ea40a13a4644573ed785e5c7116890709947918747febc5add46feb531e2d868686604051610a5593929190613f50565b60405180910390a25050505050565b7f00000000000000000000000000000000000000000000000000000000000000006001600160a01b03163314610ab157604051632a94f67960e21b815261151860048201526024016109d2565b610abd84848484612033565b5050505050565b604051632329212160e21b81523360048201527f00000000000000000000000000000000000000000000000000000000000000006001600160a01b031690638ca4848490602401602060405180830381865afa158015610b28573d6000803e3d6000fd5b505050506040513d601f19601f82011682018060405250810190610b4c9190613f91565b610b6d57604051639aca506b60e01b81526114b460048201526024016109d2565b6000610b7761215b565b90506001600160a01b038116610b8a5750845b600085610b975786610b99565b815b905060008313610c3657610bac83613fc4565b610bb5856122a0565b14610bc257610bc2613fe0565b610bcb846122a0565b6001600160a01b03821660009081526002602052604081208054909190610bf3908490613ff6565b90915550506001600160a01b03851660009081526002602052604081208054859290610c20908490613ff6565b90915550610c31905085828661230e565b610d00565b8515610c4457610c44613fe0565b82610c4e856122a0565b610c589190613ff6565b6001600160a01b03831660009081526002602052604081208054909190610c8090849061401e565b90915550610c8f9050846122a0565b6001600160a01b03881660009081526002602052604081208054909190610cb7908490613ff6565b90915550506001600160a01b03851660009081526002602052604081208054859290610ce4908490613ff6565b90915550610cf5905082888661230e565b610d0082868561230e565b846001600160a01b0316876001600160a01b0316336001600160a01b03167fb8381a3ce157650e06186e3e8f4dd4dc29236f2688b6eed1893d0a60d7c6386f8c8589898f604051610d5595949392919061403e565b60405180910390a4505050505050505050565b6000610d7633858585612033565b949350505050565b7f00000000000000000000000000000000000000000000000000000000000000006001600160a01b03163314610dcb57604051632a94f67960e21b815261151860048201526024016109d2565b610df63383836040518060200160405280600081525060405180602001604052806000815250611e3e565b5050565b6040513390600090610e129083908690602001613f13565b604051602081830303815290604052805190602001209050610e348184611ff7565b610e5557604051639995b0c160e01b815261138960048201526024016109d2565b610e5f8184612341565b60405184815233907f71a63dc095de07aa5512ad57a7596a39516317e316981a1cd71000057be1537b9060200160405180910390a250505050565b6000806000807f00000000000000000000000000000000000000000000000000000000000000006001600160a01b031663bbe4fd506040518163ffffffff1660e01b8152600401602060405180830381865afa158015610efe573d6000803e3d6000fd5b505050506040513d601f19601f82011682018060405250810190610f229190614071565b9050610f2e8582611a64565b91979096509094509092509050565b6001600160a01b038181166000908152600160205260409081902054905163c56a069d60e01b8152901960048201526060917f0000000000000000000000000000000000000000000000000000000000000000169063c56a069d90602401600060405180830381865afa158015610fb8573d6000803e3d6000fd5b505050506040513d6000823e601f3d908101601f19168201604052610944919081019061408a565b3360008181526011602090815260408083206001600160a01b0387168452909152812054909161094091859061101790869061413b565b611d86565b33301461103c57604051630fff4cc960e31b815260040160405180910390fd5b610abd83858484612033565b600054610100900460ff16158080156110685750600054600160ff909116105b806110825750303b158015611082575060005460ff166001145b61109e5760405162461bcd60e51b81526004016109d29061414e565b6000805460ff1916600117905580156110c1576000805461ff0019166101001790555b600e805460ff8816600160a01b026001600160a81b03199091166001600160a01b038a1617179055600f6110f68587836141ea565b5060106111048385836141ea565b5061110e30612362565b604051600080825290819060008051602061454f8339815191529060200160405180910390a3801561117a576000805461ff0019169055604051600181527f7f26b83ff96e1f2b6a682f133852f6798a09c465da95921460cefb38474024989060200160405180910390a15b50505050505050565b610975333333846040518060200160405280600081525060405180602001604052806000815250612490565b336001600160a01b037f000000000000000000000000000000000000000000000000000000000000000016146111fc57604051632a94f67960e21b815261190060048201526024016109d2565b61097581612665565b6060600085858560405160200161121e93929190613eca565b604051602081830303815290604052805190602001209050611240818461289f565b9695505050505050565b60006107e87f360894a13ba1a3210667c828492db98dca3e2076cc3735a920a3ca505d382bbc5490565b6112c7333386866040518060200160405280600081525087878080601f01602080910402602001604051908101604052809392919081815260200183838082843760009201919091525061249092505050565b50505050565b7f00000000000000000000000000000000000000000000000000000000000000006001600160a01b0316331461131a57604051632a94f67960e21b815261151860048201526024016109d2565b611325838383611d86565b505050565b336113376012828a61292e565b6113545760405163f7f0222760e01b815260040160405180910390fd5b6113ce8189898989898080601f01602080910402602001604051908101604052809392919081815260200183838082843760009201919091525050604080516020601f8d018190048102820181019092528b815292508b91508a9081908401838280828437600092019190915250600192506129d7915050565b5050505050505050565b33301461131a57604051630fff4cc960e31b815260040160405180910390fd5b60606000848460405160200161140f929190613f13565b604051602081830303815290604052805190602001209050611431818461289f565b95945050505050565b60008061144683610e9a565b505050905060008112611459578061145c565b60005b9392505050565b6000610944827f00000000000000000000000000000000000000000000000000000000000000006001600160a01b031663bbe4fd506040518163ffffffff1660e01b8152600401602060405180830381865afa1580156114c7573d6000803e3d6000fd5b505050506040513d601f19601f820116820180604052508101906107269190614071565b336114f860128284612a58565b806001600160a01b0316826001600160a01b03167ff4caeb2d6ca8932a215a353d0703c326ec2d81fc68170f320eb2ab49e9df61f960405160405180910390a35050565b6060601080546107fc90613e90565b600054610100900460ff161580801561156b5750600054600160ff909116105b806115855750303b158015611585575060005460ff166001145b6115a15760405162461bcd60e51b81526004016109d29061414e565b6000805460ff1916600117905580156115c4576000805461ff0019166101001790555b8015610975576000805461ff0019169055604051600181527f7f26b83ff96e1f2b6a682f133852f6798a09c465da95921460cefb3847402498906020015b60405180910390a150565b6112c73333868686868080601f016020809104026020016040519081016040528093929190818152602001838380828437600092018290525060408051602081019091529081529250600191506129d79050565b33301461168157604051630fff4cc960e31b815260040160405180910390fd5b604080516000815260208101909152611325903390859085908590612b5c565b60405133906000906116b99083908790602001613f13565b60405160208183030381529060405280519060200120905061170e81858580806020026020016040519081016040528093929190818152602001838360200280828437600092019190915250611d4592505050565b336001600160a01b03167f0c4c547b3a4fcaa5be8353b3111472b124155bccc86de811d4a481c9e6e9faca868686604051610a5593929190613f50565b610df633338361175a3361143a565b612033565b60006109403384611017856040518060600160405280602a8152602001614525602a91393360009081526011602090815260408083206001600160a01b038d1684529091529020549190612c1b565b600061145c33338585612033565b6000806000806117cc8686611a64565b92509250925060006117f48284116117e55760006122a0565b6117ef83856142a9565b6122a0565b6117fe9085613ff6565b60001315979650505050505050565b6000610944827f00000000000000000000000000000000000000000000000000000000000000006001600160a01b031663bbe4fd506040518163ffffffff1660e01b8152600401602060405180830381865afa158015611871573d6000803e3d6000fd5b505050506040513d601f19601f820116820180604052508101906106b49190614071565b3330146118b557604051630fff4cc960e31b815260040160405180910390fd5b60408051600080825260208201909252611325913391869186918690612c47565b7f00000000000000000000000000000000000000000000000000000000000000006001600160a01b0316331461192357604051632a94f67960e21b815261151860048201526024016109d2565b610df6338384846040518060200160405280600081525060405180602001604052806000815250612490565b604051632329212160e21b81523360048201527f00000000000000000000000000000000000000000000000000000000000000006001600160a01b031690638ca4848490602401602060405180830381865afa1580156119b3573d6000803e3d6000fd5b505050506040513d601f19601f820116820180604052508101906119d79190613f91565b6119f857604051639aca506b60e01b81526114b460048201526024016109d2565b6001600160a01b038216600090815260026020526040902054611a1c908290613ff6565b6001600160a01b0390921660009081526002602052604090209190915550565b600061145c6012848461292e565b600080611a578484611a64565b5050600013949350505050565b6001600160a01b038216600090815260026020526040812054908080611a8986610f3d565b905060005b8151811015611b95576000806000848481518110611aae57611aae6142bc565b60209081029190910101516040516326cb922f60e21b81523060048201526001600160a01b038c81166024830152604482018c905290911690639b2e48bc90606401606060405180830381865afa158015611b0d573d6000803e3d6000fd5b505050506040513d601f19601f82011682018060405250810190611b3191906142d2565b91945092509050611b42828861413b565b9650611b4e818761413b565b9550611b6b818311611b615760006122a0565b6117ef82846142a9565b611b75848a613ff6565b611b7f919061401e565b975050505080611b8e90614300565b9050611a8e565b50509250925092565b33611bab60128284612d13565b806001600160a01b0316826001600160a01b03167f50546e66e5f44d728365dc3908c63bc5cfeeab470722c1677e3073a6ac294aa160405160405180910390a35050565b33611bfc6012828961292e565b611c195760405163f7f0222760e01b815260040160405180910390fd5b61117a81888888888080601f01602080910402602001604051908101604052809392919081815260200183838082843760009201919091525050604080516020601f8c018190048102820181019092528a815292508a9150899081908401838280828437600092019190915250611e3e92505050565b61132533338585858080601f016020809104026020016040519081016040528093929190818152602001838380828437600092018290525060408051602081019091529081529250611e3e915050565b606081600001805480602002602001604051908101604052809291908181526020018280548015611d3957602002820191906000526020600020905b81546001600160a01b03168152600190910190602001808311611d1b575b50505050509050919050565b60005b8151811015611325576000828281518110611d6557611d656142bc565b6020026020010151905080828501555080611d7f90614300565b9050611d48565b6001600160a01b038316611db15760405163e961d6ff60e01b815261196460048201526024016109d2565b6001600160a01b038216611ddc5760405163e961d6ff60e01b815261196560048201526024016109d2565b6001600160a01b0383811660008181526011602090815260408083209487168084529482529182902085905590518481527f8c5be1e5ebec7d5bd14f71427d1e84f3dd0314c0f7b2291e5b200ac8c7c3b92591015b60405180910390a3505050565b600e546001600160a01b0316611e6757604051637bce7b2b60e11b815260040160405180910390fd5b600080611e7385612e0b565b91509150611e848787838787612b5c565b600e546040516370a0823160e01b81523060048201526000916001600160a01b0316906370a0823190602401602060405180830381865afa158015611ecd573d6000803e3d6000fd5b505050506040513d601f19601f82011682018060405250810190611ef19190614071565b600e54909150611f0b906001600160a01b03168885612ec7565b600e546040516370a0823160e01b81523060048201526000916001600160a01b0316906370a0823190602401602060405180830381865afa158015611f54573d6000803e3d6000fd5b505050506040513d601f19601f82011682018060405250810190611f789190614071565b90506000611f8682846142a9565b9050808514611fa857604051631c7c26d360e31b815260040160405180910390fd5b886001600160a01b03167f3bc27981aebbb57f9247dc00fde9d6cd91e4b230083fec3238fedbcba1f9ab3d85604051611fe391815260200190565b60405180910390a250505050505050505050565b6000805b828110156120295783810154801561201857600192505050610944565b5061202281614300565b9050611ffb565b5060009392505050565b60006001600160a01b0384166120605760405163e961d6ff60e01b815261196860048201526024016109d2565b6001600160a01b03831661208b5760405163e961d6ff60e01b815261196960048201526024016109d2565b60003390506120bc818686866040518060200160405280600081525060405180602001604052806000815250612f2a565b846001600160a01b0316866001600160a01b03161461214f5761214f8587611017866040518060600160405280602d815260200161456f602d9139601160008c6001600160a01b03166001600160a01b0316815260200190815260200160002060008d6001600160a01b03166001600160a01b0316815260200190815260200160002054612c1b9092919063ffffffff16565b50600195945050505050565b6000807f00000000000000000000000000000000000000000000000000000000000000006001600160a01b031663289b3c0d6040518163ffffffff1660e01b8152600401602060405180830381865afa1580156121bc573d6000803e3d6000fd5b505050506040513d601f19601f820116820180604052508101906121e09190614319565b604051638369a0f160e01b81526001600160a01b037f0000000000000000000000000000000000000000000000000000000000000000811660048301523060248301527f9f60ae461adf056670e03ae602566409933242392cb06744f5747c9f38b05d09604483015291925090821690638369a0f190606401602060405180830381865afa158015612276573d6000803e3d6000fd5b505050506040513d601f19601f8201168201806040525081019061229a9190614319565b91505090565b60006001600160ff1b0382111561230a5760405162461bcd60e51b815260206004820152602860248201527f53616665436173743a2076616c756520646f65736e27742066697420696e2061604482015267371034b73a191a9b60c11b60648201526084016109d2565b5090565b816001600160a01b0316836001600160a01b031660008051602061454f83398151915283604051611e3191815260200190565b60005b818110156113255760008382015561235b81614300565b9050612344565b6040516329965a1d60e01b81526001600160a01b03821660048201527fac7fbab5f54a3ca8194167523c6753bfeb96a445279294b6125b68cce21770546024820152306044820152731820a4b7618bde71dce8cdc73aab6c95905fad24906329965a1d90606401600060405180830381600087803b1580156123e357600080fd5b505af11580156123f7573d6000803e3d6000fd5b50506040516329965a1d60e01b81526001600160a01b03841660048201527faea199e31a596269b42cdafd93407f14436db6e4cad65417994c2eb37381e05a6024820152306044820152731820a4b7618bde71dce8cdc73aab6c95905fad2492506329965a1d9150606401600060405180830381600087803b15801561247c57600080fd5b505af1158015610abd573d6000803e3d6000fd5b600e546001600160a01b03166124b957604051637bce7b2b60e11b815260040160405180910390fd5b6000806124c585612e0b565b600e546040516370a0823160e01b81523060048201529294509092506000916001600160a01b03909116906370a0823190602401602060405180830381865afa158015612516573d6000803e3d6000fd5b505050506040513d601f19601f8201168201806040525081019061253a9190614071565b600e54909150612555906001600160a01b0316893086612fc9565b600e546040516370a0823160e01b81523060048201526000916001600160a01b0316906370a0823190602401602060405180830381865afa15801561259e573d6000803e3d6000fd5b505050506040513d601f19601f820116820180604052508101906125c29190614071565b905060006125d083836142a9565b90508085146125f257604051631c7c26d360e31b815260040160405180910390fd5b6126158b8a868c6001600160a01b03168e6001600160a01b031614158b8b612c47565b886001600160a01b03167f25ca84076773b0455db53621c459ddc84fe40840e4932a62706a032566f399df8560405161265091815260200190565b60405180910390a25050505050505050505050565b600061268f7f360894a13ba1a3210667c828492db98dca3e2076cc3735a920a3ca505d382bbc5490565b6001600160a01b0316036126e55760405162461bcd60e51b815260206004820152601d60248201527f5555505350726f786961626c653a206e6f742075706772616461626c6500000060448201526064016109d2565b806001600160a01b03166352d1902d6040518163ffffffff1660e01b8152600401602060405180830381865afa158015612723573d6000803e3d6000fd5b505050506040513d601f19601f820116820180604052508101906127479190614071565b7f6bfbb132610e56cb96575dba244667b9d6dbfeffe22b68a79fa16f2d18eb0019146127c15760405162461bcd60e51b815260206004820152602360248201527f5555505350726f786961626c653a206e6f7420636f6d70617469626c65206c6f60448201526267696360e81b60648201526084016109d2565b6001600160a01b03811630036128195760405162461bcd60e51b815260206004820152601960248201527f5555505350726f786961626c653a2070726f7879206c6f6f700000000000000060448201526064016109d2565b612841817f360894a13ba1a3210667c828492db98dca3e2076cc3735a920a3ca505d382bbc55565b7fe011bc04c286c344a8fcbb8de77f953da762c3e25d8cdea984147fc4168a5dcc7f6bfbb132610e56cb96575dba244667b9d6dbfeffe22b68a79fa16f2d18eb0019604080519182526001600160a01b038416602083015201611602565b6060816001600160401b038111156128b9576128b961392a565b6040519080825280602002602001820160405280156128e2578160200160208202803683370190505b50905060005b828110156129275760008185015490508083838151811061290b5761290b6142bc565b60209081029190910101525061292081614300565b90506128e8565b5092915050565b6000816001600160a01b0316836001600160a01b0316148061299d57506001600160a01b038316600090815260018501602052604090205460ff16801561299d57506001600160a01b03808316600090815260038601602090815260408083209387168352929052205460ff16155b80610d7657506001600160a01b03808316600090815260028601602090815260408083209387168352929052205460ff1690509392505050565b6001600160a01b038616612a025760405163e961d6ff60e01b815261196860048201526024016109d2565b6001600160a01b038516612a2d5760405163e961d6ff60e01b815261196960048201526024016109d2565b612a3b878787878787613001565b612a49878787878787612f2a565b61117a87878787878787613128565b806001600160a01b0316826001600160a01b031603612acf5760405162461bcd60e51b815260206004820152602d60248201527f4552433737374f70657261746f72733a20617574686f72697a696e672073656c60448201526c331030b99037b832b930ba37b960991b60648201526084016109d2565b6001600160a01b038116600090815260018401602052604090205460ff1615612b25576001600160a01b03918216600090815260039390930160209081526040808520929093168452529020805460ff19169055565b6001600160a01b0380831660009081526002850160209081526040808320938516835292905220805460ff19166001179055505050565b6001600160a01b038416612b875760405163e961d6ff60e01b815261196660048201526024016109d2565b612b9685856000868686613001565b612ba08484613278565b836001600160a01b0316856001600160a01b03167fa78a9be3a7b862d26933ad85fb11d80ef66b8f972d7cbba06621d583943a4098858585604051612be793929190614336565b60405180910390a36040518381526000906001600160a01b0386169060008051602061454f83398151915290602001610924565b60008184841115612c3f5760405162461bcd60e51b81526004016109d2919061377b565b505050900390565b6001600160a01b038516612c725760405163e961d6ff60e01b815261196760048201526024016109d2565b612c7c858561338c565b612c8c8660008787868689613128565b846001600160a01b0316866001600160a01b03167f2fe5be0146f74c5bce36c0b80911af6c7d86ff27e89d5cfa61fc681327954e5d868585604051612cd393929190614336565b60405180910390a36040518481526001600160a01b0386169060009060008051602061454f833981519152906020015b60405180910390a3505050505050565b336001600160a01b03821603612d7e5760405162461bcd60e51b815260206004820152602a60248201527f4552433737374f70657261746f72733a207265766f6b696e672073656c662061604482015269399037b832b930ba37b960b11b60648201526084016109d2565b6001600160a01b038116600090815260018401602052604090205460ff1615612dd8576001600160a01b0380831660009081526003850160209081526040808320938516835292905220805460ff19166001179055505050565b6001600160a01b03918216600090815260029390930160209081526040808520929093168452529020805460ff19169055565b600e54600090819081906012600160a01b90910460ff161015612e6a57600e54612e4090600160a01b900460ff166012614361565b612e4b90600a61445e565b9050612e57818561446d565b9250612e63818461448f565b9150612ec1565b600e546012600160a01b90910460ff161115612eba57600e54612e9990601290600160a01b900460ff16614361565b612ea490600a61445e565b9050612eb0818561448f565b9250839150612ec1565b8391508192505b50915091565b6040516001600160a01b03831660248201526044810182905261132590849063a9059cbb60e01b906064015b60408051601f198184030181529190526020810180516001600160e01b03166001600160e01b0319909316929092179091526133e6565b612f3d8585612f38866122a0565b6134b8565b836001600160a01b0316856001600160a01b0316876001600160a01b03167f06b541ddaa720db2b10a4d0cdac39b8d360425fc073085fac19bc82614677987868686604051612f8e93929190614336565b60405180910390a4836001600160a01b0316856001600160a01b031660008051602061454f83398151915285604051612d0391815260200190565b6040516001600160a01b03808516602483015283166044820152606481018290526112c79085906323b872dd60e01b90608401612ef3565b60405163555ddc6560e11b81526001600160a01b03861660048201527f29ddb589b1fb5fc7cf394961c1adf5f8c6454761adf795e67fe149f658abe8956024820152600090731820a4b7618bde71dce8cdc73aab6c95905fad249063aabbb8ca90604401602060405180830381865afa158015613082573d6000803e3d6000fd5b505050506040513d601f19601f820116820180604052508101906130a69190614319565b90506001600160a01b0381161561117a57604051633ad5cbc160e11b81526001600160a01b038216906375ab9782906130ed908a908a908a908a908a908a906004016144ae565b600060405180830381600087803b15801561310757600080fd5b505af115801561311b573d6000803e3d6000fd5b5050505050505050505050565b60405163555ddc6560e11b81526001600160a01b03861660048201527fb281fc8c12954d22544db45de3159a39272895b169a852b314f9cc762e44c53b6024820152600090731820a4b7618bde71dce8cdc73aab6c95905fad249063aabbb8ca90604401602060405180830381865afa1580156131a9573d6000803e3d6000fd5b505050506040513d601f19601f820116820180604052508101906131cd9190614319565b90506001600160a01b03811615613249576040516223de2960e01b81526001600160a01b038216906223de2990613212908b908b908b908b908b908b906004016144ae565b600060405180830381600087803b15801561322c57600080fd5b505af1158015613240573d6000803e3d6000fd5b505050506113ce565b81156113ce576001600160a01b0386163b156113ce5760405163fe737d0560e01b815260040160405180910390fd5b6000613300837f00000000000000000000000000000000000000000000000000000000000000006001600160a01b031663bbe4fd506040518163ffffffff1660e01b8152600401602060405180830381865afa1580156132dc573d6000803e3d6000fd5b505050506040513d601f19601f820116820180604052508101906107729190614071565b5050905061330d826122a0565b81121561333157604051636212897360e01b81526113ec60048201526024016109d2565b61333a826122a0565b6001600160a01b03841660009081526002602052604090205461335d919061401e565b6001600160a01b0384166000908152600260205260409020556003546133849083906142a9565b600355505050565b613395816122a0565b6001600160a01b0383166000908152600260205260409020546133b89190613ff6565b6001600160a01b0383166000908152600260205260409020556003546133df90829061413b565b6003555050565b600061343b826040518060400160405280602081526020017f5361666545524332303a206c6f772d6c6576656c2063616c6c206661696c6564815250856001600160a01b03166135bb9092919063ffffffff16565b80519091501561132557808060200190518101906134599190613f91565b6113255760405162461bcd60e51b815260206004820152602a60248201527f5361666545524332303a204552433230206f7065726174696f6e20646964206e6044820152691bdd081cdd58d8d9595960b21b60648201526084016109d2565b600061351c847f00000000000000000000000000000000000000000000000000000000000000006001600160a01b031663bbe4fd506040518163ffffffff1660e01b8152600401602060405180830381865afa1580156132dc573d6000803e3d6000fd5b505090508181121561354557604051636212897360e01b81526113ed60048201526024016109d2565b6001600160a01b03841660009081526002602052604090205461356990839061401e565b6001600160a01b038086166000908152600260205260408082209390935590851681522054613599908390613ff6565b6001600160a01b03909316600090815260026020526040902092909255505050565b6060610d76848460008585600080866001600160a01b031685876040516135e29190614508565b60006040518083038185875af1925050503d806000811461361f576040519150601f19603f3d011682016040523d82523d6000602084013e613624565b606091505b509150915061363587838387613640565b979650505050505050565b606083156136af5782516000036136a8576001600160a01b0385163b6136a85760405162461bcd60e51b815260206004820152601d60248201527f416464726573733a2063616c6c20746f206e6f6e2d636f6e747261637400000060448201526064016109d2565b5081610d76565b610d7683838151156136c45781518083602001fd5b8060405162461bcd60e51b81526004016109d2919061377b565b6020808252825182820181905260009190848201906040850190845b8181101561371f5783516001600160a01b0316835292840192918401916001016136fa565b50909695505050505050565b60005b8381101561374657818101518382015260200161372e565b50506000910152565b6000815180845261376781602086016020860161372b565b601f01601f19169290920160200192915050565b60208152600061145c602083018461374f565b6001600160a01b038116811461097557600080fd5b60008083601f8401126137b557600080fd5b5081356001600160401b038111156137cc57600080fd5b6020830191508360208260051b85010111156137e757600080fd5b9250929050565b6000806000806060858703121561380457600080fd5b843561380f8161378e565b93506020850135925060408501356001600160401b0381111561383157600080fd5b61383d878288016137a3565b95989497509550505050565b6000806040838503121561385c57600080fd5b82356138678161378e565b946020939093013593505050565b60006020828403121561388757600080fd5b5035919050565b6000806000604084860312156138a357600080fd5b8335925060208401356001600160401b038111156138c057600080fd5b6138cc868287016137a3565b9497909650939450505050565b600080600080608085870312156138ef57600080fd5b84356138fa8161378e565b9350602085013561390a8161378e565b9250604085013561391a8161378e565b9396929550929360600135925050565b634e487b7160e01b600052604160045260246000fd5b604051601f8201601f191681016001600160401b03811182821017156139685761396861392a565b604052919050565b600082601f83011261398157600080fd5b81356001600160401b0381111561399a5761399a61392a565b6139ad601f8201601f1916602001613940565b8181528460208386010111156139c257600080fd5b816020850160208301376000918101602001919091529392505050565b801515811461097557600080fd5b600080600080600080600060e0888a031215613a0857600080fd5b8735965060208801356001600160401b03811115613a2557600080fd5b613a318a828b01613970565b9650506040880135613a428161378e565b94506060880135613a52816139df565b93506080880135613a628161378e565b9699959850939692959460a0840135945060c09093013592915050565b600080600060608486031215613a9457600080fd5b8335613a9f8161378e565b92506020840135613aaf8161378e565b929592945050506040919091013590565b60008060408385031215613ad357600080fd5b50508035926020909101359150565b600060208284031215613af457600080fd5b813561145c8161378e565b60008083601f840112613b1157600080fd5b5081356001600160401b03811115613b2857600080fd5b6020830191508360208285010111156137e757600080fd5b60008060008060008060808789031215613b5957600080fd5b8635613b648161378e565b9550602087013560ff81168114613b7a57600080fd5b945060408701356001600160401b0380821115613b9657600080fd5b613ba28a838b01613aff565b90965094506060890135915080821115613bbb57600080fd5b50613bc889828a01613aff565b979a9699509497509295939492505050565b60008060008060808587031215613bf057600080fd5b8435613bfb8161378e565b93506020850135613c0b8161378e565b93969395505050506040820135916060013590565b6020808252825182820181905260009190848201906040850190845b8181101561371f57835183529284019291840191600101613c3c565b60008060008060608587031215613c6e57600080fd5b8435613c798161378e565b93506020850135925060408501356001600160401b03811115613c9b57600080fd5b61383d87828801613aff565b600080600080600080600060a0888a031215613cc257600080fd5b8735613ccd8161378e565b96506020880135613cdd8161378e565b95506040880135945060608801356001600160401b0380821115613d0057600080fd5b613d0c8b838c01613aff565b909650945060808a0135915080821115613d2557600080fd5b50613d328a828b01613aff565b989b979a50959850939692959293505050565b600080600060608486031215613d5a57600080fd5b8335613d658161378e565b95602085013595506040909401359392505050565b600080600060608486031215613d8f57600080fd5b8335613d9a8161378e565b92506020840135915060408401356001600160401b03811115613dbc57600080fd5b613dc886828701613970565b9150509250925092565b60008060408385031215613de557600080fd5b8235613df08161378e565b91506020830135613e008161378e565b809150509250929050565b60008060008060008060808789031215613e2457600080fd5b8635613e2f8161378e565b95506020870135945060408701356001600160401b0380821115613b9657600080fd5b600080600060408486031215613e6757600080fd5b8335925060208401356001600160401b03811115613e8457600080fd5b6138cc86828701613aff565b600181811c90821680613ea457607f821691505b602082108103613ec457634e487b7160e01b600052602260045260246000fd5b50919050565b6080808252600e908201526d41677265656d656e74537461746560901b60a08201526001600160a01b039384166020820152919092166040820152606081019190915260c00190565b6060808252600d908201526c41677265656d656e744461746160981b60808201526001600160a01b03929092166020830152604082015260a00190565b838152604060208201819052810182905260006001600160fb1b03831115613f7757600080fd5b8260051b8085606085013791909101606001949350505050565b600060208284031215613fa357600080fd5b815161145c816139df565b634e487b7160e01b600052601160045260246000fd5b6000600160ff1b8201613fd957613fd9613fae565b5060000390565b634e487b7160e01b600052600160045260246000fd5b808201828112600083128015821682158216171561401657614016613fae565b505092915050565b818103600083128015838313168383128216171561292757612927613fae565b85815260018060a01b038516602082015283604082015282606082015260a06080820152600061363560a083018461374f565b60006020828403121561408357600080fd5b5051919050565b6000602080838503121561409d57600080fd5b82516001600160401b03808211156140b457600080fd5b818501915085601f8301126140c857600080fd5b8151818111156140da576140da61392a565b8060051b91506140eb848301613940565b818152918301840191848101908884111561410557600080fd5b938501935b8385101561412f578451925061411f8361378e565b828252938501939085019061410a565b98975050505050505050565b8082018082111561094457610944613fae565b6020808252602e908201527f496e697469616c697a61626c653a20636f6e747261637420697320616c72656160408201526d191e481a5b9a5d1a585b1a5e995960921b606082015260800190565b601f82111561132557600081815260208120601f850160051c810160208610156141c35750805b601f850160051c820191505b818110156141e2578281556001016141cf565b505050505050565b6001600160401b038311156142015761420161392a565b6142158361420f8354613e90565b8361419c565b6000601f84116001811461424957600085156142315750838201355b600019600387901b1c1916600186901b178355610abd565b600083815260209020601f19861690835b8281101561427a578685013582556020948501946001909201910161425a565b50868210156142975760001960f88860031b161c19848701351681555b505060018560011b0183555050505050565b8181038181111561094457610944613fae565b634e487b7160e01b600052603260045260246000fd5b6000806000606084860312156142e757600080fd5b8351925060208401519150604084015190509250925092565b60006001820161431257614312613fae565b5060010190565b60006020828403121561432b57600080fd5b815161145c8161378e565b83815260606020820152600061434f606083018561374f565b8281036040840152611240818561374f565b60ff828116828216039081111561094457610944613fae565b600181815b808511156143b557816000190482111561439b5761439b613fae565b808516156143a857918102915b93841c939080029061437f565b509250929050565b6000826143cc57506001610944565b816143d957506000610944565b81600181146143ef57600281146143f957614415565b6001915050610944565b60ff84111561440a5761440a613fae565b50506001821b610944565b5060208310610133831016604e8410600b8410161715614438575081810a610944565b614442838361437a565b806000190482111561445657614456613fae565b029392505050565b600061145c60ff8416836143bd565b60008261448a57634e487b7160e01b600052601260045260246000fd5b500490565b60008160001904831182151516156144a9576144a9613fae565b500290565b6001600160a01b0387811682528681166020830152851660408201526060810184905260c0608082018190526000906144e99083018561374f565b82810360a08401526144fb818561374f565b9998505050505050505050565b6000825161451a81846020870161372b565b919091019291505056fe5375706572546f6b656e3a2064656372656173656420616c6c6f77616e63652062656c6f77207a65726fddf252ad1be2c89b69c2b068fc378daa952ba7f163c4a11628f55a4df523b3ef5375706572546f6b656e3a207472616e7366657220616d6f756e74206578636565647320616c6c6f77616e6365a2646970667358221220f0ecd1f81c82206b781555345bbf5aa714e7e23d48dcf63c064a22120b42337964736f6c63430008100033a2646970667358221220ffc47cf066eecebe3240b2abe82d784b94ddfa76a1ed07a15d4b81fcbac2070e64736f6c6343000810003360c060405234801561001057600080fd5b5060405161146438038061146483398101604081905261002f9161005e565b6001600160a01b039182166080521660a052610098565b6001600160a01b038116811461005b57600080fd5b50565b6000806040838503121561007157600080fd5b825161007c81610046565b602084015190925061008d81610046565b809150509250929050565b60805160a0516113936100d160003960006102b001526000818160b001528181610233015281816105350152610a7c01526113936000f3fe608060405234801561001057600080fd5b50600436106100a95760003560e01c806352d1902d1161007157806352d1902d146101305780638129fc1c1461015e5780639470a5b2146101665780639903ad381461017d578063a6d0c53414610185578063d412d3441461019857600080fd5b806320bc4425146100ae578063431f1481146100ed57806346951954146101005780634dcc4d791461011557806350d75d2514610128575b600080fd5b7f00000000000000000000000000000000000000000000000000000000000000005b6040516001600160a01b0390911681526020015b60405180910390f35b6100d06100fb366004610c46565b6101ab565b61011361010e366004610cd9565b610228565b005b6100d0610123366004610cd9565b61028e565b6100d0610325565b6040517fb146a22bc9644a3313a7e28592f37d32718a2b618d3d136aa524b0d86b87b62081526020016100e4565b610113610354565b6000546201000090046001600160a01b03166100d0565b61011361041e565b6100d0610193366004610d0c565b6104d8565b6101136101a6366004610cd9565b61078d565b600061021d87886001600160a01b031663313ce5676040518163ffffffff1660e01b8152600401602060405180830381865afa1580156101ef573d6000803e3d6000fd5b505050506040513d601f19601f820116820180604052508101906102139190610db2565b88888888886104d8565b979650505050505050565b336001600160a01b037f0000000000000000000000000000000000000000000000000000000000000000161461027a57604051632a94f67960e21b8152611ce860048201526024015b60405180910390fd5b6102838161082b565b61028b610a65565b50565b6040516313db266360e31b81526001600160a01b0382811660048301526000917f000000000000000000000000000000000000000000000000000000000000000090911690639ed93318906024016020604051808303816000875af11580156102fb573d6000803e3d6000fd5b505050506040513d601f19601f8201168201806040525081019061031f9190610dcf565b92915050565b600061034f7f360894a13ba1a3210667c828492db98dca3e2076cc3735a920a3ca505d382bbc5490565b905090565b600054610100900460ff16158080156103745750600054600160ff909116105b8061038e5750303b15801561038e575060005460ff166001145b6103aa5760405162461bcd60e51b815260040161027190610dec565b6000805460ff1916600117905580156103cd576000805461ff0019166101001790555b6103d5610a65565b801561028b576000805461ff0019169055604051600181527f7f26b83ff96e1f2b6a682f133852f6798a09c465da95921460cefb3847402498906020015b60405180910390a150565b600054610100900460ff161580801561043e5750600054600160ff909116105b806104585750303b158015610458575060005460ff166001145b6104745760405162461bcd60e51b815260040161027190610dec565b6000805460ff1916600117905580156103d5576000805461ff001916610100179055801561028b576000805461ff0019169055604051600181527f7f26b83ff96e1f2b6a682f133852f6798a09c465da95921460cefb384740249890602001610413565b60006001600160a01b0388166105055760405163e961d6ff60e01b8152611d4c6004820152602401610271565b600086600281111561051957610519610e3a565b036105af57604051634dcc4d7960e01b81526001600160a01b037f00000000000000000000000000000000000000000000000000000000000000001660048201523090634dcc4d79906024016020604051808303816000875af1158015610584573d6000803e3d6000fd5b505050506040513d601f19601f820116820180604052508101906105a89190610dcf565b90506106e7565b60018660028111156105c3576105c3610e3a565b036106635760006040516105d690610bba565b604051809103906000f0801580156105f2573d6000803e3d6000fd5b50600054604051634a0687ef60e01b81526001600160a01b036201000090920482166004820152919250821690634a0687ef90602401600060405180830381600087803b15801561064257600080fd5b505af1158015610656573d6000803e3d6000fd5b50505050809150506106e7565b600060405161067190610bc7565b604051809103906000f08015801561068d573d6000803e3d6000fd5b509050806001600160a01b0316638129fc1c6040518163ffffffff1660e01b8152600401600060405180830381600087803b1580156106cb57600080fd5b505af11580156106df573d6000803e3d6000fd5b509293505050505b6040516285fc1360e71b81526001600160a01b038216906342fe09809061071c908b908b908a908a908a908a90600401610e79565b600060405180830381600087803b15801561073657600080fd5b505af115801561074a573d6000803e3d6000fd5b50506040516001600160a01b03841692507fb52c6d9d122e8c07769b96d7bb14e66db58ee03fdebaaa2f92547e9c7ef0e65f9150600090a2979650505050505050565b600054604051634a0687ef60e01b81526001600160a01b0362010000909204821660048201528291821690634a0687ef90602401600060405180830381600087803b1580156107db57600080fd5b505af11580156107ef573d6000803e3d6000fd5b50506040516001600160a01b03851692507f437790724a6e97b75d23117f28cdd4b1beeafc34f7a0911ef256e9334f4369a59150600090a25050565b60006108557f360894a13ba1a3210667c828492db98dca3e2076cc3735a920a3ca505d382bbc5490565b6001600160a01b0316036108ab5760405162461bcd60e51b815260206004820152601d60248201527f5555505350726f786961626c653a206e6f742075706772616461626c650000006044820152606401610271565b806001600160a01b03166352d1902d6040518163ffffffff1660e01b8152600401602060405180830381865afa1580156108e9573d6000803e3d6000fd5b505050506040513d601f19601f8201168201806040525081019061090d9190610ec7565b7fb146a22bc9644a3313a7e28592f37d32718a2b618d3d136aa524b0d86b87b620146109875760405162461bcd60e51b815260206004820152602360248201527f5555505350726f786961626c653a206e6f7420636f6d70617469626c65206c6f60448201526267696360e81b6064820152608401610271565b6001600160a01b03811630036109df5760405162461bcd60e51b815260206004820152601960248201527f5555505350726f786961626c653a2070726f7879206c6f6f70000000000000006044820152606401610271565b610a07817f360894a13ba1a3210667c828492db98dca3e2076cc3735a920a3ca505d382bbc55565b7fe011bc04c286c344a8fcbb8de77f953da762c3e25d8cdea984147fc4168a5dcc7fb146a22bc9644a3313a7e28592f37d32718a2b618d3d136aa524b0d86b87b620604080519182526001600160a01b038416602083015201610413565b604051634dcc4d7960e01b81526001600160a01b037f00000000000000000000000000000000000000000000000000000000000000001660048201523090634dcc4d79906024016020604051808303816000875af1158015610acb573d6000803e3d6000fd5b505050506040513d601f19601f82011682018060405250810190610aef9190610dcf565b600060026101000a8154816001600160a01b0302191690836001600160a01b03160217905550600060029054906101000a90046001600160a01b03166001600160a01b0316639903ad386040518163ffffffff1660e01b8152600401600060405180830381600087803b158015610b6557600080fd5b505af1158015610b79573d6000803e3d6000fd5b505060008054604051620100009091046001600160a01b031693507fc13fb19d60857980e565bf5dae406b8802d3c1cec50c6156b30b12b8740297839250a2565b61024a80610ee183390190565b6102338061112b83390190565b6001600160a01b038116811461028b57600080fd5b803560038110610bf857600080fd5b919050565b60008083601f840112610c0f57600080fd5b50813567ffffffffffffffff811115610c2757600080fd5b602083019150836020828501011115610c3f57600080fd5b9250929050565b60008060008060008060808789031215610c5f57600080fd5b8635610c6a81610bd4565b9550610c7860208801610be9565b9450604087013567ffffffffffffffff80821115610c9557600080fd5b610ca18a838b01610bfd565b90965094506060890135915080821115610cba57600080fd5b50610cc789828a01610bfd565b979a9699509497509295939492505050565b600060208284031215610ceb57600080fd5b8135610cf681610bd4565b9392505050565b60ff8116811461028b57600080fd5b600080600080600080600060a0888a031215610d2757600080fd5b8735610d3281610bd4565b96506020880135610d4281610cfd565b9550610d5060408901610be9565b9450606088013567ffffffffffffffff80821115610d6d57600080fd5b610d798b838c01610bfd565b909650945060808a0135915080821115610d9257600080fd5b50610d9f8a828b01610bfd565b989b979a50959850939692959293505050565b600060208284031215610dc457600080fd5b8151610cf681610cfd565b600060208284031215610de157600080fd5b8151610cf681610bd4565b6020808252602e908201527f496e697469616c697a61626c653a20636f6e747261637420697320616c72656160408201526d191e481a5b9a5d1a585b1a5e995960921b606082015260800190565b634e487b7160e01b600052602160045260246000fd5b81835281816020850137506000828201602090810191909152601f909101601f19169091010190565b6001600160a01b038716815260ff86166020820152608060408201819052600090610ea79083018688610e50565b8281036060840152610eba818587610e50565b9998505050505050505050565b600060208284031215610ed957600080fd5b505191905056fe608060405234801561001057600080fd5b5061022a806100206000396000f3fe6080604052600436106100225760003560e01c80634a0687ef1461003957610031565b366100315761002f610059565b005b61002f610059565b34801561004557600080fd5b5061002f6100543660046101c4565b61006b565b610069610064610171565b6101a0565b565b6001600160a01b0381166100c65760405162461bcd60e51b815260206004820152601760248201527f5555505350726f78793a207a65726f206164647265737300000000000000000060448201526064015b60405180910390fd5b60006100f07f360894a13ba1a3210667c828492db98dca3e2076cc3735a920a3ca505d382bbc5490565b6001600160a01b0316146101465760405162461bcd60e51b815260206004820152601e60248201527f5555505350726f78793a20616c726561647920696e697469616c697a6564000060448201526064016100bd565b61016e817f360894a13ba1a3210667c828492db98dca3e2076cc3735a920a3ca505d382bbc55565b50565b600061019b7f360894a13ba1a3210667c828492db98dca3e2076cc3735a920a3ca505d382bbc5490565b905090565b3660008037600080366000845af43d6000803e8080156101bf573d6000f35b3d6000fd5b6000602082840312156101d657600080fd5b81356001600160a01b03811681146101ed57600080fd5b939250505056fea2646970667358221220a57ba740f90bd95782f6bee62bc339294c451bcd144bb411f8501e4b1f093d3864736f6c63430008100033608060405234801561001057600080fd5b50610213806100206000396000f3fe6080604052600436106100225760003560e01c80638129fc1c1461003957610031565b366100315761002f61004e565b005b61002f61004e565b34801561004557600080fd5b5061002f610060565b61005e6100596100d0565b610173565b565b7fb8fcd5719b3ddf8626f3664705a89b7fc476129a58c1aa5eda57c600cc1821a0546001600160a01b038116156100aa576040516305c5d81960e01b815260040160405180910390fd5b50337fb8fcd5719b3ddf8626f3664705a89b7fc476129a58c1aa5eda57c600cc1821a055565b7fb8fcd5719b3ddf8626f3664705a89b7fc476129a58c1aa5eda57c600cc1821a0546000906001600160a01b03811661010b5761010b610197565b806001600160a01b0316639470a5b26040518163ffffffff1660e01b8152600401602060405180830381865afa158015610149573d6000803e3d6000fd5b505050506040513d601f19601f8201168201806040525081019061016d91906101ad565b91505090565b3660008037600080366000845af43d6000803e808015610192573d6000f35b3d6000fd5b634e487b7160e01b600052600160045260246000fd5b6000602082840312156101bf57600080fd5b81516001600160a01b03811681146101d657600080fd5b939250505056fea2646970667358221220825933242ad6c7e8f03e8e2b4b5164788cea44bce8263c4147d9c863bd2d292f64736f6c63430008100033a2646970667358221220a4f4e14daf5b15941a5fafb338e3fb206bad42894af0551f0f1939a74b22009e64736f6c6343000810003360806040523480156200001157600080fd5b5060405162000eaa38038062000eaa8339810160408190526200003491620001ba565b6200004160003362000055565b6200004e60008262000055565b50620001ec565b62000061828262000065565b5050565b6200007c8282620000a860201b6200043a1760201c565b6000828152600160209081526040909120620000a3918390620004be62000148821b17901c565b505050565b6000828152602081815260408083206001600160a01b038516845290915290205460ff1662000061576000828152602081815260408083206001600160a01b03851684529091529020805460ff19166001179055620001043390565b6001600160a01b0316816001600160a01b0316837f2f8788117e7eff1d82e926ec794901d17c78024a50270940304540a733656f0d60405160405180910390a45050565b60006200015f836001600160a01b03841662000168565b90505b92915050565b6000818152600183016020526040812054620001b15750815460018181018455600084815260208082209093018490558454848252828601909352604090209190915562000162565b50600062000162565b600060208284031215620001cd57600080fd5b81516001600160a01b0381168114620001e557600080fd5b9392505050565b610cae80620001fc6000396000f3fe608060405234801561001057600080fd5b50600436106100a95760003560e01c80639010d07c116100715780639010d07c1461015a57806391d148541461016d578063a217fddf14610180578063a815ff1514610188578063ca15c8731461019b578063d547741f146101ae57600080fd5b806301ffc9a7146100ae578063248a9ca3146100d65780632f2ff15d1461010757806336568abe1461011c578063693ec85e1461012f575b600080fd5b6100c16100bc36600461095c565b6101c1565b60405190151581526020015b60405180910390f35b6100f96100e4366004610986565b60009081526020819052604090206001015490565b6040519081526020016100cd565b61011a6101153660046109bb565b6101ec565b005b61011a61012a3660046109bb565b610216565b61014261013d366004610a30565b610299565b6040516001600160a01b0390911681526020016100cd565b610142610168366004610a72565b6102ce565b6100c161017b3660046109bb565b6102ed565b6100f9600081565b61011a610196366004610a94565b610316565b6100f96101a9366004610986565b6103fe565b61011a6101bc3660046109bb565b610415565b60006001600160e01b03198216635a05180f60e01b14806101e657506101e6826104d3565b92915050565b60008281526020819052604090206001015461020781610508565b6102118383610515565b505050565b6001600160a01b038116331461028b5760405162461bcd60e51b815260206004820152602f60248201527f416363657373436f6e74726f6c3a2063616e206f6e6c792072656e6f756e636560448201526e103937b632b9903337b91039b2b63360891b60648201526084015b60405180910390fd5b6102958282610537565b5050565b6000600283836040516102ad929190610ae8565b908152604051908190036020019020546001600160a01b0316905092915050565b60008281526001602052604081206102e69083610559565b9392505050565b6000918252602082815260408084206001600160a01b0393909316845291905290205460ff1690565b6103216000336102ed565b6103665760405162461bcd60e51b815260206004820152601660248201527521b0b63632b91034b9903737ba1030b71030b236b4b760511b6044820152606401610282565b8060028484604051610379929190610ae8565b90815260405190819003602001812080546001600160a01b03939093166001600160a01b0319909316929092179091556103b69084908490610ae8565b6040519081900381206001600160a01b0383168252907f496595ced95720268cf8bc60bae3f35024ff2a130f73ac4e20f5c1eaca35db999060200160405180910390a2505050565b60008181526001602052604081206101e690610565565b60008281526020819052604090206001015461043081610508565b6102118383610537565b61044482826102ed565b610295576000828152602081815260408083206001600160a01b03851684529091529020805460ff1916600117905561047a3390565b6001600160a01b0316816001600160a01b0316837f2f8788117e7eff1d82e926ec794901d17c78024a50270940304540a733656f0d60405160405180910390a45050565b60006102e6836001600160a01b03841661056f565b60006001600160e01b03198216637965db0b60e01b14806101e657506301ffc9a760e01b6001600160e01b03198316146101e6565b61051281336105be565b50565b61051f828261043a565b600082815260016020526040902061021190826104be565b6105418282610617565b6000828152600160205260409020610211908261067c565b60006102e68383610691565b60006101e6825490565b60008181526001830160205260408120546105b6575081546001818101845560008481526020808220909301849055845484825282860190935260409020919091556101e6565b5060006101e6565b6105c882826102ed565b610295576105d5816106bb565b6105e08360206106cd565b6040516020016105f1929190610b1c565b60408051601f198184030181529082905262461bcd60e51b825261028291600401610b91565b61062182826102ed565b15610295576000828152602081815260408083206001600160a01b0385168085529252808320805460ff1916905551339285917ff6391f5c32d9c69d2a47ea670b442974b53935d1edc7fd64eb21e047a839171b9190a45050565b60006102e6836001600160a01b038416610869565b60008260000182815481106106a8576106a8610bc4565b9060005260206000200154905092915050565b60606101e66001600160a01b03831660145b606060006106dc836002610bf0565b6106e7906002610c0f565b67ffffffffffffffff8111156106ff576106ff610c22565b6040519080825280601f01601f191660200182016040528015610729576020820181803683370190505b509050600360fc1b8160008151811061074457610744610bc4565b60200101906001600160f81b031916908160001a905350600f60fb1b8160018151811061077357610773610bc4565b60200101906001600160f81b031916908160001a9053506000610797846002610bf0565b6107a2906001610c0f565b90505b600181111561081a576f181899199a1a9b1b9c1cb0b131b232b360811b85600f16601081106107d6576107d6610bc4565b1a60f81b8282815181106107ec576107ec610bc4565b60200101906001600160f81b031916908160001a90535060049490941c9361081381610c38565b90506107a5565b5083156102e65760405162461bcd60e51b815260206004820181905260248201527f537472696e67733a20686578206c656e67746820696e73756666696369656e746044820152606401610282565b6000818152600183016020526040812054801561095257600061088d600183610c4f565b85549091506000906108a190600190610c4f565b90508181146109065760008660000182815481106108c1576108c1610bc4565b90600052602060002001549050808760000184815481106108e4576108e4610bc4565b6000918252602080832090910192909255918252600188019052604090208390555b855486908061091757610917610c62565b6001900381819060005260206000200160009055905585600101600086815260200190815260200160002060009055600193505050506101e6565b60009150506101e6565b60006020828403121561096e57600080fd5b81356001600160e01b0319811681146102e657600080fd5b60006020828403121561099857600080fd5b5035919050565b80356001600160a01b03811681146109b657600080fd5b919050565b600080604083850312156109ce57600080fd5b823591506109de6020840161099f565b90509250929050565b60008083601f8401126109f957600080fd5b50813567ffffffffffffffff811115610a1157600080fd5b602083019150836020828501011115610a2957600080fd5b9250929050565b60008060208385031215610a4357600080fd5b823567ffffffffffffffff811115610a5a57600080fd5b610a66858286016109e7565b90969095509350505050565b60008060408385031215610a8557600080fd5b50508035926020909101359150565b600080600060408486031215610aa957600080fd5b833567ffffffffffffffff811115610ac057600080fd5b610acc868287016109e7565b9094509250610adf90506020850161099f565b90509250925092565b8183823760009101908152919050565b60005b83811015610b13578181015183820152602001610afb565b50506000910152565b7f416363657373436f6e74726f6c3a206163636f756e7420000000000000000000815260008351610b54816017850160208801610af8565b7001034b99036b4b9b9b4b733903937b6329607d1b6017918401918201528351610b85816028840160208801610af8565b01602801949350505050565b6020815260008251806020840152610bb0816040850160208701610af8565b601f01601f19169190910160400192915050565b634e487b7160e01b600052603260045260246000fd5b634e487b7160e01b600052601160045260246000fd5b6000816000190483118215151615610c0a57610c0a610bda565b500290565b808201808211156101e6576101e6610bda565b634e487b7160e01b600052604160045260246000fd5b600081610c4757610c47610bda565b506000190190565b818103818111156101e6576101e6610bda565b634e487b7160e01b600052603160045260246000fdfea26469706673582212205ae9c9b9f1d4f524c5f7ae95637502e4e2b9db24b62e71f236796cb1916ebe1464736f6c6343000810003360a060405234801561001057600080fd5b506040516104ea3803806104ea83398101604081905261002f91610040565b6001600160a01b0316608052610070565b60006020828403121561005257600080fd5b81516001600160a01b038116811461006957600080fd5b9392505050565b60805161046061008a600039600060b501526104606000f3fe608060405234801561001057600080fd5b506004361061002b5760003560e01c8063f490e2f014610030575b600080fd5b61004361003e366004610307565b61008f565b604051610086919081516001600160a01b039081168252602080840151821690830152604080840151821690830152606092830151169181019190915260800190565b60405180910390f35b6040805160808101825260008082526020820181905291810182905260608101919091527f00000000000000000000000000000000000000000000000000000000000000006001600160a01b031663693ec85e84846040516020016100f5929190610379565b6040516020818303038152906040526040518263ffffffff1660e01b815260040161012091906103a0565b602060405180830381865afa15801561013d573d6000803e3d6000fd5b505050506040513d601f19601f820116820180604052508101906101619190610406565b6001600160a01b03168082526040805163398d76b760e11b8152905163731aed6e916004808201926020929091908290030181865afa1580156101a8573d6000803e3d6000fd5b505050506040513d601f19601f820116820180604052508101906101cc9190610406565b6001600160a01b0390811660208301528151604051635b69006f60e11b81527fa9214cc96615e0085d3bb077758db69497dc2dce3b2b1e97bc93c3d18d83efd3600482015291169063b6d200de90602401602060405180830381865afa15801561023a573d6000803e3d6000fd5b505050506040513d601f19601f8201168201806040525081019061025e9190610406565b6001600160a01b0390811660408381019190915282519051635b69006f60e11b81527f8aedc3b5d4bf031e11a7e2940f7251c005698405d58e02e1c247fed3b1b3a674600482015291169063b6d200de90602401602060405180830381865afa1580156102cf573d6000803e3d6000fd5b505050506040513d601f19601f820116820180604052508101906102f39190610406565b6001600160a01b0316606082015292915050565b6000806020838503121561031a57600080fd5b823567ffffffffffffffff8082111561033257600080fd5b818501915085601f83011261034657600080fd5b81358181111561035557600080fd5b86602082850101111561036757600080fd5b60209290920196919550909350505050565b6a29bab832b933363ab4b21760a91b81528183600b83013760009101600b01908152919050565b600060208083528351808285015260005b818110156103cd578581018301518582016040015282016103b1565b506000604082860101526040601f19601f8301168501019250505092915050565b6001600160a01b038116811461040357600080fd5b50565b60006020828403121561041857600080fd5b8151610423816103ee565b939250505056fea2646970667358221220c704032dc19442fb41ca71af84307681b68c796a3eda9064ea9f55616d73a63564736f6c63430008100033",
    "linkReferences": {
      "lib/protocol-monorepo/packages/ethereum-contracts/contracts/libs/SlotsBitmapLibrary.sol": {
        "SlotsBitmapLibrary": [
          {
            "start": 68530,
            "length": 20
          },
          {
            "start": 82159,
            "length": 20
          },
          {
            "start": 83428,
            "length": 20
          },
          {
            "start": 84184,
            "length": 20
          }
        ]
      }
    }
  },
  "methodIdentifiers": {
    "RESOLVER_BASE_SUPER_TOKEN_KEY()": "3df285fe",
    "RESOLVER_BASE_TOKEN_KEY()": "62a32e1e",
    "deployNativeAssetSuperToken(string,string)": "cbcd7449",
    "deployPureSuperToken(string,string,uint256)": "fa0215fc",
    "deployWrapperSuperToken(string,string,uint8,uint256)": "7dc2dc12",
    "getFramework()": "dfa98ad5"
  },
  "id": 84
}