{
  "abi": [
    {
      "inputs": [
        {
          "internalType": "contract ISuperfluid",
          "name": "host",
          "type": "address"
        }
      ],
      "name": "create",
      "outputs": [
        {
          "internalType": "address",
          "name": "logic",
          "type": "address"
        }
      ],
      "stateMutability": "nonpayable",
      "type": "function"
    }
  ],
  "bytecode": {
    "object": "0x608060405234801561001057600080fd5b506147e2806100206000396000f3fe608060405234801561001057600080fd5b506004361061002b5760003560e01c80639ed9331814610030575b600080fd5b61004361003e3660046100ae565b61005f565b6040516001600160a01b03909116815260200160405180910390f35b60008160405161006e906100a1565b6001600160a01b039091168152602001604051809103906000f08015801561009a573d6000803e3d6000fd5b5092915050565b6146ce806100df83390190565b6000602082840312156100c057600080fd5b81356001600160a01b03811681146100d757600080fd5b939250505056fe60a06040523480156200001157600080fd5b50604051620046ce380380620046ce833981016040819052620000349162000046565b6001600160a01b031660805262000078565b6000602082840312156200005957600080fd5b81516001600160a01b03811681146200007157600080fd5b9392505050565b6080516145d1620000fd6000396000818161041201528181610a6601528181610ad901528181610d8001528181610ea201528181610f71015281816111ba015281816112cf0152818161146b01528181611815015281816118d80152818161196401528181612160015281816121f70152818161328001526134c001526145d16000f3fe608060405234801561001057600080fd5b50600436106103425760003560e01c806362ad1b83116101b8578063a9059cbb11610104578063d9d078d6116100a2578063ee719bc81161007c578063ee719bc814610792578063fad8b32a146107a3578063fc673c4f146107b6578063fe9d9303146107c957600080fd5b8063d9d078d614610718578063dd62ed3e1461072b578063eb3537cc1461076457600080fd5b8063c68d4283116100de578063c68d4283146106cc578063ca789464146106df578063cf97256d146106f2578063d95b63711461070557600080fd5b8063a9059cbb14610693578063b84cdd4a146106a6578063bb0d196e146106b957600080fd5b806395d89b41116101715780639d8767411161014b5780639d87674114610647578063a1b2bf8b1461065a578063a3a7e7f31461066d578063a457c2d71461068057600080fd5b806395d89b41146106245780639903ad381461062c5780639bd9bbc61461063457600080fd5b806362ad1b83146105b257806366a12fb6146105c55780636c2d9f2f146105d857806370a08231146105eb57806379359f6f146105fe578063959b8c3f1461061157600080fd5b80632ec8eec711610292578063469519541161023057806352d1902d1161020a57806352d1902d1461055f578063556f0dc7146105855780635b9d09cc1461058c57806362aa52871461059f57600080fd5b806346951954146105245780634b61cc331461053757806350d75d251461055757600080fd5b8063395093511161026c57806339509351146104d857806341b706be146104eb57806342fe0980146104fe57806345977d031461051157600080fd5b80632ec8eec714610483578063313ce567146104b6578063386fa221146104c557600080fd5b806316d055d6116102ff57806320bc4425116102d957806320bc44251461041057806323b872dd1461044a578063245887fc1461045d578063270483971461047057600080fd5b806316d055d6146103d857806318160ddd146103eb5780631863e809146103fd57600080fd5b806306e485381461034757806306fdde0314610365578063090c415e1461037a578063095ea7b31461038f57806311bcc81e146103b257806312a6a3f8146103c5575b600080fd5b61034f6107dc565b60405161035c91906136de565b60405180910390f35b61036d6107ed565b60405161035c919061377b565b61038d6103883660046137ee565b61087f565b005b6103a261039d366004613849565b610933565b604051901515815260200161035c565b61038d6103c0366004613875565b61094a565b61038d6103d336600461388e565b610978565b61038d6103e63660046138d9565b610a64565b6003545b60405190815260200161035c565b61038d61040b3660046139ed565b610ac4565b7f00000000000000000000000000000000000000000000000000000000000000005b6040516001600160a01b03909116815260200161035c565b6103a2610458366004613a7f565b610d68565b61038d61046b366004613849565b610d7e565b61038d61047e366004613ac0565b610dfa565b610496610491366004613ae2565b610e9a565b60408051948552602085019390935291830152606082015260800161035c565b6040516012815260200161035c565b61034f6104d3366004613ae2565b610f3d565b6103a26104e6366004613849565b610fe0565b61038d6104f93660046138d9565b61101c565b61038d61050c366004613b40565b611048565b61038d61051f366004613875565b611183565b61038d610532366004613ae2565b6111af565b61054a610545366004613bda565b611205565b60405161035c9190613c20565b61043261124a565b7f6bfbb132610e56cb96575dba244667b9d6dbfeffe22b68a79fa16f2d18eb00196103ef565b60016103ef565b61038d61059a366004613c58565b611274565b61038d6105ad366004613a7f565b6112cd565b61038d6105c0366004613ca7565b61132a565b61038d6105d3366004613a7f565b6113d8565b61054a6105e6366004613d45565b6113f8565b6103ef6105f9366004613ae2565b61143a565b6103a261060c366004613ae2565b611463565b61038d61061f366004613ae2565b6114eb565b61036d61153c565b61038d61154b565b61038d610642366004613c58565b61160d565b61038d610655366004613d7a565b611661565b61038d61066836600461388e565b6116a1565b61038d61067b366004613ae2565b61174b565b6103a261068e366004613849565b61175f565b6103a26106a1366004613849565b6117ae565b6103a26106b4366004613849565b6117bc565b6103a26106c7366004613ae2565b61180d565b61038d6106da366004613d7a565b611895565b61038d6106ed366004613849565b6118d6565b61038d610700366004613849565b61194f565b6103a2610713366004613dd2565b611a3c565b6103a2610726366004613849565b611a4a565b6103ef610739366004613dd2565b6001600160a01b03918216600090815260116020908152604080832093909416825291909152205490565b610777610772366004613849565b611a64565b6040805193845260208401929092529082015260600161035c565b600e546001600160a01b0316610432565b61038d6107b1366004613ae2565b611b9e565b61038d6107c4366004613e0b565b611bef565b61038d6107d7366004613e52565b611c8f565b60606107e86012611cdf565b905090565b6060600f80546107fc90613e90565b80601f016020809104026020016040519081016040528092919081815260200182805461082890613e90565b80156108755780601f1061084a57610100808354040283529160200191610875565b820191906000526020600020905b81548152906001019060200180831161085857829003601f168201915b5050505050905090565b600033858560405160200161089693929190613eca565b6040516020818303038152906040528051906020012090506108eb81848480806020026020016040519081016040528093929190818152602001838360200280828437600092019190915250611d4592505050565b6040518481526001600160a01b0386169033907f30f416fa68fca014a0f334464c64b000ba53e99b6d2afdea9d5ca756372d5985906020015b60405180910390a35050505050565b6000610940338484611d86565b5060015b92915050565b6109753333836040518060200160405280600081525060405180602001604052806000815250611e3e565b50565b60405133906000906109909083908790602001613f13565b60408051601f19818403018152919052805160209091012090506109b48184611ff7565b156109db57604051635b5b42a560e01b815261138860048201526024015b60405180910390fd5b610a1881858580806020026020016040519081016040528093929190818152602001838360200280828437600092019190915250611d4592505050565b816001600160a01b03167f770ea40a13a4644573ed785e5c7116890709947918747febc5add46feb531e2d868686604051610a5593929190613f50565b60405180910390a25050505050565b7f00000000000000000000000000000000000000000000000000000000000000006001600160a01b03163314610ab157604051632a94f67960e21b815261151860048201526024016109d2565b610abd84848484612033565b5050505050565b604051632329212160e21b81523360048201527f00000000000000000000000000000000000000000000000000000000000000006001600160a01b031690638ca4848490602401602060405180830381865afa158015610b28573d6000803e3d6000fd5b505050506040513d601f19601f82011682018060405250810190610b4c9190613f91565b610b6d57604051639aca506b60e01b81526114b460048201526024016109d2565b6000610b7761215b565b90506001600160a01b038116610b8a5750845b600085610b975786610b99565b815b905060008313610c3657610bac83613fc4565b610bb5856122a0565b14610bc257610bc2613fe0565b610bcb846122a0565b6001600160a01b03821660009081526002602052604081208054909190610bf3908490613ff6565b90915550506001600160a01b03851660009081526002602052604081208054859290610c20908490613ff6565b90915550610c31905085828661230e565b610d00565b8515610c4457610c44613fe0565b82610c4e856122a0565b610c589190613ff6565b6001600160a01b03831660009081526002602052604081208054909190610c8090849061401e565b90915550610c8f9050846122a0565b6001600160a01b03881660009081526002602052604081208054909190610cb7908490613ff6565b90915550506001600160a01b03851660009081526002602052604081208054859290610ce4908490613ff6565b90915550610cf5905082888661230e565b610d0082868561230e565b846001600160a01b0316876001600160a01b0316336001600160a01b03167fb8381a3ce157650e06186e3e8f4dd4dc29236f2688b6eed1893d0a60d7c6386f8c8589898f604051610d5595949392919061403e565b60405180910390a4505050505050505050565b6000610d7633858585612033565b949350505050565b7f00000000000000000000000000000000000000000000000000000000000000006001600160a01b03163314610dcb57604051632a94f67960e21b815261151860048201526024016109d2565b610df63383836040518060200160405280600081525060405180602001604052806000815250611e3e565b5050565b6040513390600090610e129083908690602001613f13565b604051602081830303815290604052805190602001209050610e348184611ff7565b610e5557604051639995b0c160e01b815261138960048201526024016109d2565b610e5f8184612341565b60405184815233907f71a63dc095de07aa5512ad57a7596a39516317e316981a1cd71000057be1537b9060200160405180910390a250505050565b6000806000807f00000000000000000000000000000000000000000000000000000000000000006001600160a01b031663bbe4fd506040518163ffffffff1660e01b8152600401602060405180830381865afa158015610efe573d6000803e3d6000fd5b505050506040513d601f19601f82011682018060405250810190610f229190614071565b9050610f2e8582611a64565b91979096509094509092509050565b6001600160a01b038181166000908152600160205260409081902054905163c56a069d60e01b8152901960048201526060917f0000000000000000000000000000000000000000000000000000000000000000169063c56a069d90602401600060405180830381865afa158015610fb8573d6000803e3d6000fd5b505050506040513d6000823e601f3d908101601f19168201604052610944919081019061408a565b3360008181526011602090815260408083206001600160a01b0387168452909152812054909161094091859061101790869061413b565b611d86565b33301461103c57604051630fff4cc960e31b815260040160405180910390fd5b610abd83858484612033565b600054610100900460ff16158080156110685750600054600160ff909116105b806110825750303b158015611082575060005460ff166001145b61109e5760405162461bcd60e51b81526004016109d29061414e565b6000805460ff1916600117905580156110c1576000805461ff0019166101001790555b600e805460ff8816600160a01b026001600160a81b03199091166001600160a01b038a1617179055600f6110f68587836141ea565b5060106111048385836141ea565b5061110e30612362565b604051600080825290819060008051602061454f8339815191529060200160405180910390a3801561117a576000805461ff0019169055604051600181527f7f26b83ff96e1f2b6a682f133852f6798a09c465da95921460cefb38474024989060200160405180910390a15b50505050505050565b610975333333846040518060200160405280600081525060405180602001604052806000815250612490565b336001600160a01b037f000000000000000000000000000000000000000000000000000000000000000016146111fc57604051632a94f67960e21b815261190060048201526024016109d2565b61097581612665565b6060600085858560405160200161121e93929190613eca565b604051602081830303815290604052805190602001209050611240818461289f565b9695505050505050565b60006107e87f360894a13ba1a3210667c828492db98dca3e2076cc3735a920a3ca505d382bbc5490565b6112c7333386866040518060200160405280600081525087878080601f01602080910402602001604051908101604052809392919081815260200183838082843760009201919091525061249092505050565b50505050565b7f00000000000000000000000000000000000000000000000000000000000000006001600160a01b0316331461131a57604051632a94f67960e21b815261151860048201526024016109d2565b611325838383611d86565b505050565b336113376012828a61292e565b6113545760405163f7f0222760e01b815260040160405180910390fd5b6113ce8189898989898080601f01602080910402602001604051908101604052809392919081815260200183838082843760009201919091525050604080516020601f8d018190048102820181019092528b815292508b91508a9081908401838280828437600092019190915250600192506129d7915050565b5050505050505050565b33301461131a57604051630fff4cc960e31b815260040160405180910390fd5b60606000848460405160200161140f929190613f13565b604051602081830303815290604052805190602001209050611431818461289f565b95945050505050565b60008061144683610e9a565b505050905060008112611459578061145c565b60005b9392505050565b6000610944827f00000000000000000000000000000000000000000000000000000000000000006001600160a01b031663bbe4fd506040518163ffffffff1660e01b8152600401602060405180830381865afa1580156114c7573d6000803e3d6000fd5b505050506040513d601f19601f820116820180604052508101906107269190614071565b336114f860128284612a58565b806001600160a01b0316826001600160a01b03167ff4caeb2d6ca8932a215a353d0703c326ec2d81fc68170f320eb2ab49e9df61f960405160405180910390a35050565b6060601080546107fc90613e90565b600054610100900460ff161580801561156b5750600054600160ff909116105b806115855750303b158015611585575060005460ff166001145b6115a15760405162461bcd60e51b81526004016109d29061414e565b6000805460ff1916600117905580156115c4576000805461ff0019166101001790555b8015610975576000805461ff0019169055604051600181527f7f26b83ff96e1f2b6a682f133852f6798a09c465da95921460cefb3847402498906020015b60405180910390a150565b6112c73333868686868080601f016020809104026020016040519081016040528093929190818152602001838380828437600092018290525060408051602081019091529081529250600191506129d79050565b33301461168157604051630fff4cc960e31b815260040160405180910390fd5b604080516000815260208101909152611325903390859085908590612b5c565b60405133906000906116b99083908790602001613f13565b60405160208183030381529060405280519060200120905061170e81858580806020026020016040519081016040528093929190818152602001838360200280828437600092019190915250611d4592505050565b336001600160a01b03167f0c4c547b3a4fcaa5be8353b3111472b124155bccc86de811d4a481c9e6e9faca868686604051610a5593929190613f50565b610df633338361175a3361143a565b612033565b60006109403384611017856040518060600160405280602a8152602001614525602a91393360009081526011602090815260408083206001600160a01b038d1684529091529020549190612c1b565b600061145c33338585612033565b6000806000806117cc8686611a64565b92509250925060006117f48284116117e55760006122a0565b6117ef83856142a9565b6122a0565b6117fe9085613ff6565b60001315979650505050505050565b6000610944827f00000000000000000000000000000000000000000000000000000000000000006001600160a01b031663bbe4fd506040518163ffffffff1660e01b8152600401602060405180830381865afa158015611871573d6000803e3d6000fd5b505050506040513d601f19601f820116820180604052508101906106b49190614071565b3330146118b557604051630fff4cc960e31b815260040160405180910390fd5b60408051600080825260208201909252611325913391869186918690612c47565b7f00000000000000000000000000000000000000000000000000000000000000006001600160a01b0316331461192357604051632a94f67960e21b815261151860048201526024016109d2565b610df6338384846040518060200160405280600081525060405180602001604052806000815250612490565b604051632329212160e21b81523360048201527f00000000000000000000000000000000000000000000000000000000000000006001600160a01b031690638ca4848490602401602060405180830381865afa1580156119b3573d6000803e3d6000fd5b505050506040513d601f19601f820116820180604052508101906119d79190613f91565b6119f857604051639aca506b60e01b81526114b460048201526024016109d2565b6001600160a01b038216600090815260026020526040902054611a1c908290613ff6565b6001600160a01b0390921660009081526002602052604090209190915550565b600061145c6012848461292e565b600080611a578484611a64565b5050600013949350505050565b6001600160a01b038216600090815260026020526040812054908080611a8986610f3d565b905060005b8151811015611b95576000806000848481518110611aae57611aae6142bc565b60209081029190910101516040516326cb922f60e21b81523060048201526001600160a01b038c81166024830152604482018c905290911690639b2e48bc90606401606060405180830381865afa158015611b0d573d6000803e3d6000fd5b505050506040513d601f19601f82011682018060405250810190611b3191906142d2565b91945092509050611b42828861413b565b9650611b4e818761413b565b9550611b6b818311611b615760006122a0565b6117ef82846142a9565b611b75848a613ff6565b611b7f919061401e565b975050505080611b8e90614300565b9050611a8e565b50509250925092565b33611bab60128284612d13565b806001600160a01b0316826001600160a01b03167f50546e66e5f44d728365dc3908c63bc5cfeeab470722c1677e3073a6ac294aa160405160405180910390a35050565b33611bfc6012828961292e565b611c195760405163f7f0222760e01b815260040160405180910390fd5b61117a81888888888080601f01602080910402602001604051908101604052809392919081815260200183838082843760009201919091525050604080516020601f8c018190048102820181019092528a815292508a9150899081908401838280828437600092019190915250611e3e92505050565b61132533338585858080601f016020809104026020016040519081016040528093929190818152602001838380828437600092018290525060408051602081019091529081529250611e3e915050565b606081600001805480602002602001604051908101604052809291908181526020018280548015611d3957602002820191906000526020600020905b81546001600160a01b03168152600190910190602001808311611d1b575b50505050509050919050565b60005b8151811015611325576000828281518110611d6557611d656142bc565b6020026020010151905080828501555080611d7f90614300565b9050611d48565b6001600160a01b038316611db15760405163e961d6ff60e01b815261196460048201526024016109d2565b6001600160a01b038216611ddc5760405163e961d6ff60e01b815261196560048201526024016109d2565b6001600160a01b0383811660008181526011602090815260408083209487168084529482529182902085905590518481527f8c5be1e5ebec7d5bd14f71427d1e84f3dd0314c0f7b2291e5b200ac8c7c3b92591015b60405180910390a3505050565b600e546001600160a01b0316611e6757604051637bce7b2b60e11b815260040160405180910390fd5b600080611e7385612e0b565b91509150611e848787838787612b5c565b600e546040516370a0823160e01b81523060048201526000916001600160a01b0316906370a0823190602401602060405180830381865afa158015611ecd573d6000803e3d6000fd5b505050506040513d601f19601f82011682018060405250810190611ef19190614071565b600e54909150611f0b906001600160a01b03168885612ec7565b600e546040516370a0823160e01b81523060048201526000916001600160a01b0316906370a0823190602401602060405180830381865afa158015611f54573d6000803e3d6000fd5b505050506040513d601f19601f82011682018060405250810190611f789190614071565b90506000611f8682846142a9565b9050808514611fa857604051631c7c26d360e31b815260040160405180910390fd5b886001600160a01b03167f3bc27981aebbb57f9247dc00fde9d6cd91e4b230083fec3238fedbcba1f9ab3d85604051611fe391815260200190565b60405180910390a250505050505050505050565b6000805b828110156120295783810154801561201857600192505050610944565b5061202281614300565b9050611ffb565b5060009392505050565b60006001600160a01b0384166120605760405163e961d6ff60e01b815261196860048201526024016109d2565b6001600160a01b03831661208b5760405163e961d6ff60e01b815261196960048201526024016109d2565b60003390506120bc818686866040518060200160405280600081525060405180602001604052806000815250612f2a565b846001600160a01b0316866001600160a01b03161461214f5761214f8587611017866040518060600160405280602d815260200161456f602d9139601160008c6001600160a01b03166001600160a01b0316815260200190815260200160002060008d6001600160a01b03166001600160a01b0316815260200190815260200160002054612c1b9092919063ffffffff16565b50600195945050505050565b6000807f00000000000000000000000000000000000000000000000000000000000000006001600160a01b031663289b3c0d6040518163ffffffff1660e01b8152600401602060405180830381865afa1580156121bc573d6000803e3d6000fd5b505050506040513d601f19601f820116820180604052508101906121e09190614319565b604051638369a0f160e01b81526001600160a01b037f0000000000000000000000000000000000000000000000000000000000000000811660048301523060248301527f9f60ae461adf056670e03ae602566409933242392cb06744f5747c9f38b05d09604483015291925090821690638369a0f190606401602060405180830381865afa158015612276573d6000803e3d6000fd5b505050506040513d601f19601f8201168201806040525081019061229a9190614319565b91505090565b60006001600160ff1b0382111561230a5760405162461bcd60e51b815260206004820152602860248201527f53616665436173743a2076616c756520646f65736e27742066697420696e2061604482015267371034b73a191a9b60c11b60648201526084016109d2565b5090565b816001600160a01b0316836001600160a01b031660008051602061454f83398151915283604051611e3191815260200190565b60005b818110156113255760008382015561235b81614300565b9050612344565b6040516329965a1d60e01b81526001600160a01b03821660048201527fac7fbab5f54a3ca8194167523c6753bfeb96a445279294b6125b68cce21770546024820152306044820152731820a4b7618bde71dce8cdc73aab6c95905fad24906329965a1d90606401600060405180830381600087803b1580156123e357600080fd5b505af11580156123f7573d6000803e3d6000fd5b50506040516329965a1d60e01b81526001600160a01b03841660048201527faea199e31a596269b42cdafd93407f14436db6e4cad65417994c2eb37381e05a6024820152306044820152731820a4b7618bde71dce8cdc73aab6c95905fad2492506329965a1d9150606401600060405180830381600087803b15801561247c57600080fd5b505af1158015610abd573d6000803e3d6000fd5b600e546001600160a01b03166124b957604051637bce7b2b60e11b815260040160405180910390fd5b6000806124c585612e0b565b600e546040516370a0823160e01b81523060048201529294509092506000916001600160a01b03909116906370a0823190602401602060405180830381865afa158015612516573d6000803e3d6000fd5b505050506040513d601f19601f8201168201806040525081019061253a9190614071565b600e54909150612555906001600160a01b0316893086612fc9565b600e546040516370a0823160e01b81523060048201526000916001600160a01b0316906370a0823190602401602060405180830381865afa15801561259e573d6000803e3d6000fd5b505050506040513d601f19601f820116820180604052508101906125c29190614071565b905060006125d083836142a9565b90508085146125f257604051631c7c26d360e31b815260040160405180910390fd5b6126158b8a868c6001600160a01b03168e6001600160a01b031614158b8b612c47565b886001600160a01b03167f25ca84076773b0455db53621c459ddc84fe40840e4932a62706a032566f399df8560405161265091815260200190565b60405180910390a25050505050505050505050565b600061268f7f360894a13ba1a3210667c828492db98dca3e2076cc3735a920a3ca505d382bbc5490565b6001600160a01b0316036126e55760405162461bcd60e51b815260206004820152601d60248201527f5555505350726f786961626c653a206e6f742075706772616461626c6500000060448201526064016109d2565b806001600160a01b03166352d1902d6040518163ffffffff1660e01b8152600401602060405180830381865afa158015612723573d6000803e3d6000fd5b505050506040513d601f19601f820116820180604052508101906127479190614071565b7f6bfbb132610e56cb96575dba244667b9d6dbfeffe22b68a79fa16f2d18eb0019146127c15760405162461bcd60e51b815260206004820152602360248201527f5555505350726f786961626c653a206e6f7420636f6d70617469626c65206c6f60448201526267696360e81b60648201526084016109d2565b6001600160a01b03811630036128195760405162461bcd60e51b815260206004820152601960248201527f5555505350726f786961626c653a2070726f7879206c6f6f700000000000000060448201526064016109d2565b612841817f360894a13ba1a3210667c828492db98dca3e2076cc3735a920a3ca505d382bbc55565b7fe011bc04c286c344a8fcbb8de77f953da762c3e25d8cdea984147fc4168a5dcc7f6bfbb132610e56cb96575dba244667b9d6dbfeffe22b68a79fa16f2d18eb0019604080519182526001600160a01b038416602083015201611602565b6060816001600160401b038111156128b9576128b961392a565b6040519080825280602002602001820160405280156128e2578160200160208202803683370190505b50905060005b828110156129275760008185015490508083838151811061290b5761290b6142bc565b60209081029190910101525061292081614300565b90506128e8565b5092915050565b6000816001600160a01b0316836001600160a01b0316148061299d57506001600160a01b038316600090815260018501602052604090205460ff16801561299d57506001600160a01b03808316600090815260038601602090815260408083209387168352929052205460ff16155b80610d7657506001600160a01b03808316600090815260028601602090815260408083209387168352929052205460ff1690509392505050565b6001600160a01b038616612a025760405163e961d6ff60e01b815261196860048201526024016109d2565b6001600160a01b038516612a2d5760405163e961d6ff60e01b815261196960048201526024016109d2565b612a3b878787878787613001565b612a49878787878787612f2a565b61117a87878787878787613128565b806001600160a01b0316826001600160a01b031603612acf5760405162461bcd60e51b815260206004820152602d60248201527f4552433737374f70657261746f72733a20617574686f72697a696e672073656c60448201526c331030b99037b832b930ba37b960991b60648201526084016109d2565b6001600160a01b038116600090815260018401602052604090205460ff1615612b25576001600160a01b03918216600090815260039390930160209081526040808520929093168452529020805460ff19169055565b6001600160a01b0380831660009081526002850160209081526040808320938516835292905220805460ff19166001179055505050565b6001600160a01b038416612b875760405163e961d6ff60e01b815261196660048201526024016109d2565b612b9685856000868686613001565b612ba08484613278565b836001600160a01b0316856001600160a01b03167fa78a9be3a7b862d26933ad85fb11d80ef66b8f972d7cbba06621d583943a4098858585604051612be793929190614336565b60405180910390a36040518381526000906001600160a01b0386169060008051602061454f83398151915290602001610924565b60008184841115612c3f5760405162461bcd60e51b81526004016109d2919061377b565b505050900390565b6001600160a01b038516612c725760405163e961d6ff60e01b815261196760048201526024016109d2565b612c7c858561338c565b612c8c8660008787868689613128565b846001600160a01b0316866001600160a01b03167f2fe5be0146f74c5bce36c0b80911af6c7d86ff27e89d5cfa61fc681327954e5d868585604051612cd393929190614336565b60405180910390a36040518481526001600160a01b0386169060009060008051602061454f833981519152906020015b60405180910390a3505050505050565b336001600160a01b03821603612d7e5760405162461bcd60e51b815260206004820152602a60248201527f4552433737374f70657261746f72733a207265766f6b696e672073656c662061604482015269399037b832b930ba37b960b11b60648201526084016109d2565b6001600160a01b038116600090815260018401602052604090205460ff1615612dd8576001600160a01b0380831660009081526003850160209081526040808320938516835292905220805460ff19166001179055505050565b6001600160a01b03918216600090815260029390930160209081526040808520929093168452529020805460ff19169055565b600e54600090819081906012600160a01b90910460ff161015612e6a57600e54612e4090600160a01b900460ff166012614361565b612e4b90600a61445e565b9050612e57818561446d565b9250612e63818461448f565b9150612ec1565b600e546012600160a01b90910460ff161115612eba57600e54612e9990601290600160a01b900460ff16614361565b612ea490600a61445e565b9050612eb0818561448f565b9250839150612ec1565b8391508192505b50915091565b6040516001600160a01b03831660248201526044810182905261132590849063a9059cbb60e01b906064015b60408051601f198184030181529190526020810180516001600160e01b03166001600160e01b0319909316929092179091526133e6565b612f3d8585612f38866122a0565b6134b8565b836001600160a01b0316856001600160a01b0316876001600160a01b03167f06b541ddaa720db2b10a4d0cdac39b8d360425fc073085fac19bc82614677987868686604051612f8e93929190614336565b60405180910390a4836001600160a01b0316856001600160a01b031660008051602061454f83398151915285604051612d0391815260200190565b6040516001600160a01b03808516602483015283166044820152606481018290526112c79085906323b872dd60e01b90608401612ef3565b60405163555ddc6560e11b81526001600160a01b03861660048201527f29ddb589b1fb5fc7cf394961c1adf5f8c6454761adf795e67fe149f658abe8956024820152600090731820a4b7618bde71dce8cdc73aab6c95905fad249063aabbb8ca90604401602060405180830381865afa158015613082573d6000803e3d6000fd5b505050506040513d601f19601f820116820180604052508101906130a69190614319565b90506001600160a01b0381161561117a57604051633ad5cbc160e11b81526001600160a01b038216906375ab9782906130ed908a908a908a908a908a908a906004016144ae565b600060405180830381600087803b15801561310757600080fd5b505af115801561311b573d6000803e3d6000fd5b5050505050505050505050565b60405163555ddc6560e11b81526001600160a01b03861660048201527fb281fc8c12954d22544db45de3159a39272895b169a852b314f9cc762e44c53b6024820152600090731820a4b7618bde71dce8cdc73aab6c95905fad249063aabbb8ca90604401602060405180830381865afa1580156131a9573d6000803e3d6000fd5b505050506040513d601f19601f820116820180604052508101906131cd9190614319565b90506001600160a01b03811615613249576040516223de2960e01b81526001600160a01b038216906223de2990613212908b908b908b908b908b908b906004016144ae565b600060405180830381600087803b15801561322c57600080fd5b505af1158015613240573d6000803e3d6000fd5b505050506113ce565b81156113ce576001600160a01b0386163b156113ce5760405163fe737d0560e01b815260040160405180910390fd5b6000613300837f00000000000000000000000000000000000000000000000000000000000000006001600160a01b031663bbe4fd506040518163ffffffff1660e01b8152600401602060405180830381865afa1580156132dc573d6000803e3d6000fd5b505050506040513d601f19601f820116820180604052508101906107729190614071565b5050905061330d826122a0565b81121561333157604051636212897360e01b81526113ec60048201526024016109d2565b61333a826122a0565b6001600160a01b03841660009081526002602052604090205461335d919061401e565b6001600160a01b0384166000908152600260205260409020556003546133849083906142a9565b600355505050565b613395816122a0565b6001600160a01b0383166000908152600260205260409020546133b89190613ff6565b6001600160a01b0383166000908152600260205260409020556003546133df90829061413b565b6003555050565b600061343b826040518060400160405280602081526020017f5361666545524332303a206c6f772d6c6576656c2063616c6c206661696c6564815250856001600160a01b03166135bb9092919063ffffffff16565b80519091501561132557808060200190518101906134599190613f91565b6113255760405162461bcd60e51b815260206004820152602a60248201527f5361666545524332303a204552433230206f7065726174696f6e20646964206e6044820152691bdd081cdd58d8d9595960b21b60648201526084016109d2565b600061351c847f00000000000000000000000000000000000000000000000000000000000000006001600160a01b031663bbe4fd506040518163ffffffff1660e01b8152600401602060405180830381865afa1580156132dc573d6000803e3d6000fd5b505090508181121561354557604051636212897360e01b81526113ed60048201526024016109d2565b6001600160a01b03841660009081526002602052604090205461356990839061401e565b6001600160a01b038086166000908152600260205260408082209390935590851681522054613599908390613ff6565b6001600160a01b03909316600090815260026020526040902092909255505050565b6060610d76848460008585600080866001600160a01b031685876040516135e29190614508565b60006040518083038185875af1925050503d806000811461361f576040519150601f19603f3d011682016040523d82523d6000602084013e613624565b606091505b509150915061363587838387613640565b979650505050505050565b606083156136af5782516000036136a8576001600160a01b0385163b6136a85760405162461bcd60e51b815260206004820152601d60248201527f416464726573733a2063616c6c20746f206e6f6e2d636f6e747261637400000060448201526064016109d2565b5081610d76565b610d7683838151156136c45781518083602001fd5b8060405162461bcd60e51b81526004016109d2919061377b565b6020808252825182820181905260009190848201906040850190845b8181101561371f5783516001600160a01b0316835292840192918401916001016136fa565b50909695505050505050565b60005b8381101561374657818101518382015260200161372e565b50506000910152565b6000815180845261376781602086016020860161372b565b601f01601f19169290920160200192915050565b60208152600061145c602083018461374f565b6001600160a01b038116811461097557600080fd5b60008083601f8401126137b557600080fd5b5081356001600160401b038111156137cc57600080fd5b6020830191508360208260051b85010111156137e757600080fd5b9250929050565b6000806000806060858703121561380457600080fd5b843561380f8161378e565b93506020850135925060408501356001600160401b0381111561383157600080fd5b61383d878288016137a3565b95989497509550505050565b6000806040838503121561385c57600080fd5b82356138678161378e565b946020939093013593505050565b60006020828403121561388757600080fd5b5035919050565b6000806000604084860312156138a357600080fd5b8335925060208401356001600160401b038111156138c057600080fd5b6138cc868287016137a3565b9497909650939450505050565b600080600080608085870312156138ef57600080fd5b84356138fa8161378e565b9350602085013561390a8161378e565b9250604085013561391a8161378e565b9396929550929360600135925050565b634e487b7160e01b600052604160045260246000fd5b604051601f8201601f191681016001600160401b03811182821017156139685761396861392a565b604052919050565b600082601f83011261398157600080fd5b81356001600160401b0381111561399a5761399a61392a565b6139ad601f8201601f1916602001613940565b8181528460208386010111156139c257600080fd5b816020850160208301376000918101602001919091529392505050565b801515811461097557600080fd5b600080600080600080600060e0888a031215613a0857600080fd5b8735965060208801356001600160401b03811115613a2557600080fd5b613a318a828b01613970565b9650506040880135613a428161378e565b94506060880135613a52816139df565b93506080880135613a628161378e565b9699959850939692959460a0840135945060c09093013592915050565b600080600060608486031215613a9457600080fd5b8335613a9f8161378e565b92506020840135613aaf8161378e565b929592945050506040919091013590565b60008060408385031215613ad357600080fd5b50508035926020909101359150565b600060208284031215613af457600080fd5b813561145c8161378e565b60008083601f840112613b1157600080fd5b5081356001600160401b03811115613b2857600080fd5b6020830191508360208285010111156137e757600080fd5b60008060008060008060808789031215613b5957600080fd5b8635613b648161378e565b9550602087013560ff81168114613b7a57600080fd5b945060408701356001600160401b0380821115613b9657600080fd5b613ba28a838b01613aff565b90965094506060890135915080821115613bbb57600080fd5b50613bc889828a01613aff565b979a9699509497509295939492505050565b60008060008060808587031215613bf057600080fd5b8435613bfb8161378e565b93506020850135613c0b8161378e565b93969395505050506040820135916060013590565b6020808252825182820181905260009190848201906040850190845b8181101561371f57835183529284019291840191600101613c3c565b60008060008060608587031215613c6e57600080fd5b8435613c798161378e565b93506020850135925060408501356001600160401b03811115613c9b57600080fd5b61383d87828801613aff565b600080600080600080600060a0888a031215613cc257600080fd5b8735613ccd8161378e565b96506020880135613cdd8161378e565b95506040880135945060608801356001600160401b0380821115613d0057600080fd5b613d0c8b838c01613aff565b909650945060808a0135915080821115613d2557600080fd5b50613d328a828b01613aff565b989b979a50959850939692959293505050565b600080600060608486031215613d5a57600080fd5b8335613d658161378e565b95602085013595506040909401359392505050565b600080600060608486031215613d8f57600080fd5b8335613d9a8161378e565b92506020840135915060408401356001600160401b03811115613dbc57600080fd5b613dc886828701613970565b9150509250925092565b60008060408385031215613de557600080fd5b8235613df08161378e565b91506020830135613e008161378e565b809150509250929050565b60008060008060008060808789031215613e2457600080fd5b8635613e2f8161378e565b95506020870135945060408701356001600160401b0380821115613b9657600080fd5b600080600060408486031215613e6757600080fd5b8335925060208401356001600160401b03811115613e8457600080fd5b6138cc86828701613aff565b600181811c90821680613ea457607f821691505b602082108103613ec457634e487b7160e01b600052602260045260246000fd5b50919050565b6080808252600e908201526d41677265656d656e74537461746560901b60a08201526001600160a01b039384166020820152919092166040820152606081019190915260c00190565b6060808252600d908201526c41677265656d656e744461746160981b60808201526001600160a01b03929092166020830152604082015260a00190565b838152604060208201819052810182905260006001600160fb1b03831115613f7757600080fd5b8260051b8085606085013791909101606001949350505050565b600060208284031215613fa357600080fd5b815161145c816139df565b634e487b7160e01b600052601160045260246000fd5b6000600160ff1b8201613fd957613fd9613fae565b5060000390565b634e487b7160e01b600052600160045260246000fd5b808201828112600083128015821682158216171561401657614016613fae565b505092915050565b818103600083128015838313168383128216171561292757612927613fae565b85815260018060a01b038516602082015283604082015282606082015260a06080820152600061363560a083018461374f565b60006020828403121561408357600080fd5b5051919050565b6000602080838503121561409d57600080fd5b82516001600160401b03808211156140b457600080fd5b818501915085601f8301126140c857600080fd5b8151818111156140da576140da61392a565b8060051b91506140eb848301613940565b818152918301840191848101908884111561410557600080fd5b938501935b8385101561412f578451925061411f8361378e565b828252938501939085019061410a565b98975050505050505050565b8082018082111561094457610944613fae565b6020808252602e908201527f496e697469616c697a61626c653a20636f6e747261637420697320616c72656160408201526d191e481a5b9a5d1a585b1a5e995960921b606082015260800190565b601f82111561132557600081815260208120601f850160051c810160208610156141c35750805b601f850160051c820191505b818110156141e2578281556001016141cf565b505050505050565b6001600160401b038311156142015761420161392a565b6142158361420f8354613e90565b8361419c565b6000601f84116001811461424957600085156142315750838201355b600019600387901b1c1916600186901b178355610abd565b600083815260209020601f19861690835b8281101561427a578685013582556020948501946001909201910161425a565b50868210156142975760001960f88860031b161c19848701351681555b505060018560011b0183555050505050565b8181038181111561094457610944613fae565b634e487b7160e01b600052603260045260246000fd5b6000806000606084860312156142e757600080fd5b8351925060208401519150604084015190509250925092565b60006001820161431257614312613fae565b5060010190565b60006020828403121561432b57600080fd5b815161145c8161378e565b83815260606020820152600061434f606083018561374f565b8281036040840152611240818561374f565b60ff828116828216039081111561094457610944613fae565b600181815b808511156143b557816000190482111561439b5761439b613fae565b808516156143a857918102915b93841c939080029061437f565b509250929050565b6000826143cc57506001610944565b816143d957506000610944565b81600181146143ef57600281146143f957614415565b6001915050610944565b60ff84111561440a5761440a613fae565b50506001821b610944565b5060208310610133831016604e8410600b8410161715614438575081810a610944565b614442838361437a565b806000190482111561445657614456613fae565b029392505050565b600061145c60ff8416836143bd565b60008261448a57634e487b7160e01b600052601260045260246000fd5b500490565b60008160001904831182151516156144a9576144a9613fae565b500290565b6001600160a01b0387811682528681166020830152851660408201526060810184905260c0608082018190526000906144e99083018561374f565b82810360a08401526144fb818561374f565b9998505050505050505050565b6000825161451a81846020870161372b565b919091019291505056fe5375706572546f6b656e3a2064656372656173656420616c6c6f77616e63652062656c6f77207a65726fddf252ad1be2c89b69c2b068fc378daa952ba7f163c4a11628f55a4df523b3ef5375706572546f6b656e3a207472616e7366657220616d6f756e74206578636565647320616c6c6f77616e6365a2646970667358221220f0ecd1f81c82206b781555345bbf5aa714e7e23d48dcf63c064a22120b42337964736f6c63430008100033a2646970667358221220ffc47cf066eecebe3240b2abe82d784b94ddfa76a1ed07a15d4b81fcbac2070e64736f6c63430008100033",
    "linkReferences": {}
  },
  "methodIdentifiers": {
    "create(address)": "9ed93318"
  },
  "id": 74
}