{
  "abi": [
    {
      "inputs": [
        {
          "internalType": "contract ISuperfluid",
          "name": "host",
          "type": "address"
        },
        {
          "internalType": "contract SuperTokenFactoryHelper",
          "name": "helper",
          "type": "address"
        }
      ],
      "stateMutability": "nonpayable",
      "type": "constructor"
    },
    {
      "inputs": [
        {
          "internalType": "uint256",
          "name": "_code",
          "type": "uint256"
        }
      ],
      "name": "ONLY_HOST",
      "type": "error"
    },
    {
      "inputs": [
        {
          "internalType": "uint256",
          "name": "_code",
          "type": "uint256"
        }
      ],
      "name": "ZERO_ADDRESS",
      "type": "error"
    },
    {
      "anonymous": false,
      "inputs": [
        {
          "indexed": false,
          "internalType": "bytes32",
          "name": "uuid",
          "type": "bytes32"
        },
        {
          "indexed": false,
          "internalType": "address",
          "name": "codeAddress",
          "type": "address"
        }
      ],
      "name": "CodeUpdated",
      "type": "event"
    },
    {
      "anonymous": false,
      "inputs": [
        {
          "indexed": true,
          "internalType": "contract ISuperToken",
          "name": "token",
          "type": "address"
        }
      ],
      "name": "CustomSuperTokenCreated",
      "type": "event"
    },
    {
      "anonymous": false,
      "inputs": [
        {
          "indexed": false,
          "internalType": "uint8",
          "name": "version",
          "type": "uint8"
        }
      ],
      "name": "Initialized",
      "type": "event"
    },
    {
      "anonymous": false,
      "inputs": [
        {
          "indexed": true,
          "internalType": "contract ISuperToken",
          "name": "token",
          "type": "address"
        }
      ],
      "name": "SuperTokenCreated",
      "type": "event"
    },
    {
      "anonymous": false,
      "inputs": [
        {
          "indexed": true,
          "internalType": "contract ISuperToken",
          "name": "tokenLogic",
          "type": "address"
        }
      ],
      "name": "SuperTokenLogicCreated",
      "type": "event"
    },
    {
      "inputs": [],
      "name": "castrate",
      "outputs": [],
      "stateMutability": "nonpayable",
      "type": "function"
    },
    {
      "inputs": [
        {
          "internalType": "contract ERC20WithTokenInfo",
          "name": "underlyingToken",
          "type": "address"
        },
        {
          "internalType": "enum ISuperTokenFactory.Upgradability",
          "name": "upgradability",
          "type": "uint8"
        },
        {
          "internalType": "string",
          "name": "name",
          "type": "string"
        },
        {
          "internalType": "string",
          "name": "symbol",
          "type": "string"
        }
      ],
      "name": "createERC20Wrapper",
      "outputs": [
        {
          "internalType": "contract ISuperToken",
          "name": "superToken",
          "type": "address"
        }
      ],
      "stateMutability": "nonpayable",
      "type": "function"
    },
    {
      "inputs": [
        {
          "internalType": "contract IERC20",
          "name": "underlyingToken",
          "type": "address"
        },
        {
          "internalType": "uint8",
          "name": "underlyingDecimals",
          "type": "uint8"
        },
        {
          "internalType": "enum ISuperTokenFactory.Upgradability",
          "name": "upgradability",
          "type": "uint8"
        },
        {
          "internalType": "string",
          "name": "name",
          "type": "string"
        },
        {
          "internalType": "string",
          "name": "symbol",
          "type": "string"
        }
      ],
      "name": "createERC20Wrapper",
      "outputs": [
        {
          "internalType": "contract ISuperToken",
          "name": "superToken",
          "type": "address"
        }
      ],
      "stateMutability": "nonpayable",
      "type": "function"
    },
    {
      "inputs": [
        {
          "internalType": "contract ISuperfluid",
          "name": "host",
          "type": "address"
        }
      ],
      "name": "createSuperTokenLogic",
      "outputs": [
        {
          "internalType": "address",
          "name": "logic",
          "type": "address"
        }
      ],
      "stateMutability": "nonpayable",
      "type": "function"
    },
    {
      "inputs": [],
      "name": "getCodeAddress",
      "outputs": [
        {
          "internalType": "address",
          "name": "codeAddress",
          "type": "address"
        }
      ],
      "stateMutability": "view",
      "type": "function"
    },
    {
      "inputs": [],
      "name": "getHost",
      "outputs": [
        {
          "internalType": "address",
          "name": "host",
          "type": "address"
        }
      ],
      "stateMutability": "view",
      "type": "function"
    },
    {
      "inputs": [],
      "name": "getSuperTokenLogic",
      "outputs": [
        {
          "internalType": "contract ISuperToken",
          "name": "",
          "type": "address"
        }
      ],
      "stateMutability": "view",
      "type": "function"
    },
    {
      "inputs": [],
      "name": "initialize",
      "outputs": [],
      "stateMutability": "nonpayable",
      "type": "function"
    },
    {
      "inputs": [
        {
          "internalType": "address",
          "name": "customSuperTokenProxy",
          "type": "address"
        }
      ],
      "name": "initializeCustomSuperToken",
      "outputs": [],
      "stateMutability": "nonpayable",
      "type": "function"
    },
    {
      "inputs": [],
      "name": "proxiableUUID",
      "outputs": [
        {
          "internalType": "bytes32",
          "name": "",
          "type": "bytes32"
        }
      ],
      "stateMutability": "pure",
      "type": "function"
    },
    {
      "inputs": [
        {
          "internalType": "address",
          "name": "newAddress",
          "type": "address"
        }
      ],
      "name": "updateCode",
      "outputs": [],
      "stateMutability": "nonpayable",
      "type": "function"
    }
  ],
  "bytecode": {
    "object": "0x60c060405234801561001057600080fd5b5060405161146438038061146483398101604081905261002f9161005e565b6001600160a01b039182166080521660a052610098565b6001600160a01b038116811461005b57600080fd5b50565b6000806040838503121561007157600080fd5b825161007c81610046565b602084015190925061008d81610046565b809150509250929050565b60805160a0516113936100d160003960006102b001526000818160b001528181610233015281816105350152610a7c01526113936000f3fe608060405234801561001057600080fd5b50600436106100a95760003560e01c806352d1902d1161007157806352d1902d146101305780638129fc1c1461015e5780639470a5b2146101665780639903ad381461017d578063a6d0c53414610185578063d412d3441461019857600080fd5b806320bc4425146100ae578063431f1481146100ed57806346951954146101005780634dcc4d791461011557806350d75d2514610128575b600080fd5b7f00000000000000000000000000000000000000000000000000000000000000005b6040516001600160a01b0390911681526020015b60405180910390f35b6100d06100fb366004610c46565b6101ab565b61011361010e366004610cd9565b610228565b005b6100d0610123366004610cd9565b61028e565b6100d0610325565b6040517fb146a22bc9644a3313a7e28592f37d32718a2b618d3d136aa524b0d86b87b62081526020016100e4565b610113610354565b6000546201000090046001600160a01b03166100d0565b61011361041e565b6100d0610193366004610d0c565b6104d8565b6101136101a6366004610cd9565b61078d565b600061021d87886001600160a01b031663313ce5676040518163ffffffff1660e01b8152600401602060405180830381865afa1580156101ef573d6000803e3d6000fd5b505050506040513d601f19601f820116820180604052508101906102139190610db2565b88888888886104d8565b979650505050505050565b336001600160a01b037f0000000000000000000000000000000000000000000000000000000000000000161461027a57604051632a94f67960e21b8152611ce860048201526024015b60405180910390fd5b6102838161082b565b61028b610a65565b50565b6040516313db266360e31b81526001600160a01b0382811660048301526000917f000000000000000000000000000000000000000000000000000000000000000090911690639ed93318906024016020604051808303816000875af11580156102fb573d6000803e3d6000fd5b505050506040513d601f19601f8201168201806040525081019061031f9190610dcf565b92915050565b600061034f7f360894a13ba1a3210667c828492db98dca3e2076cc3735a920a3ca505d382bbc5490565b905090565b600054610100900460ff16158080156103745750600054600160ff909116105b8061038e5750303b15801561038e575060005460ff166001145b6103aa5760405162461bcd60e51b815260040161027190610dec565b6000805460ff1916600117905580156103cd576000805461ff0019166101001790555b6103d5610a65565b801561028b576000805461ff0019169055604051600181527f7f26b83ff96e1f2b6a682f133852f6798a09c465da95921460cefb3847402498906020015b60405180910390a150565b600054610100900460ff161580801561043e5750600054600160ff909116105b806104585750303b158015610458575060005460ff166001145b6104745760405162461bcd60e51b815260040161027190610dec565b6000805460ff1916600117905580156103d5576000805461ff001916610100179055801561028b576000805461ff0019169055604051600181527f7f26b83ff96e1f2b6a682f133852f6798a09c465da95921460cefb384740249890602001610413565b60006001600160a01b0388166105055760405163e961d6ff60e01b8152611d4c6004820152602401610271565b600086600281111561051957610519610e3a565b036105af57604051634dcc4d7960e01b81526001600160a01b037f00000000000000000000000000000000000000000000000000000000000000001660048201523090634dcc4d79906024016020604051808303816000875af1158015610584573d6000803e3d6000fd5b505050506040513d601f19601f820116820180604052508101906105a89190610dcf565b90506106e7565b60018660028111156105c3576105c3610e3a565b036106635760006040516105d690610bba565b604051809103906000f0801580156105f2573d6000803e3d6000fd5b50600054604051634a0687ef60e01b81526001600160a01b036201000090920482166004820152919250821690634a0687ef90602401600060405180830381600087803b15801561064257600080fd5b505af1158015610656573d6000803e3d6000fd5b50505050809150506106e7565b600060405161067190610bc7565b604051809103906000f08015801561068d573d6000803e3d6000fd5b509050806001600160a01b0316638129fc1c6040518163ffffffff1660e01b8152600401600060405180830381600087803b1580156106cb57600080fd5b505af11580156106df573d6000803e3d6000fd5b509293505050505b6040516285fc1360e71b81526001600160a01b038216906342fe09809061071c908b908b908a908a908a908a90600401610e79565b600060405180830381600087803b15801561073657600080fd5b505af115801561074a573d6000803e3d6000fd5b50506040516001600160a01b03841692507fb52c6d9d122e8c07769b96d7bb14e66db58ee03fdebaaa2f92547e9c7ef0e65f9150600090a2979650505050505050565b600054604051634a0687ef60e01b81526001600160a01b0362010000909204821660048201528291821690634a0687ef90602401600060405180830381600087803b1580156107db57600080fd5b505af11580156107ef573d6000803e3d6000fd5b50506040516001600160a01b03851692507f437790724a6e97b75d23117f28cdd4b1beeafc34f7a0911ef256e9334f4369a59150600090a25050565b60006108557f360894a13ba1a3210667c828492db98dca3e2076cc3735a920a3ca505d382bbc5490565b6001600160a01b0316036108ab5760405162461bcd60e51b815260206004820152601d60248201527f5555505350726f786961626c653a206e6f742075706772616461626c650000006044820152606401610271565b806001600160a01b03166352d1902d6040518163ffffffff1660e01b8152600401602060405180830381865afa1580156108e9573d6000803e3d6000fd5b505050506040513d601f19601f8201168201806040525081019061090d9190610ec7565b7fb146a22bc9644a3313a7e28592f37d32718a2b618d3d136aa524b0d86b87b620146109875760405162461bcd60e51b815260206004820152602360248201527f5555505350726f786961626c653a206e6f7420636f6d70617469626c65206c6f60448201526267696360e81b6064820152608401610271565b6001600160a01b03811630036109df5760405162461bcd60e51b815260206004820152601960248201527f5555505350726f786961626c653a2070726f7879206c6f6f70000000000000006044820152606401610271565b610a07817f360894a13ba1a3210667c828492db98dca3e2076cc3735a920a3ca505d382bbc55565b7fe011bc04c286c344a8fcbb8de77f953da762c3e25d8cdea984147fc4168a5dcc7fb146a22bc9644a3313a7e28592f37d32718a2b618d3d136aa524b0d86b87b620604080519182526001600160a01b038416602083015201610413565b604051634dcc4d7960e01b81526001600160a01b037f00000000000000000000000000000000000000000000000000000000000000001660048201523090634dcc4d79906024016020604051808303816000875af1158015610acb573d6000803e3d6000fd5b505050506040513d601f19601f82011682018060405250810190610aef9190610dcf565b600060026101000a8154816001600160a01b0302191690836001600160a01b03160217905550600060029054906101000a90046001600160a01b03166001600160a01b0316639903ad386040518163ffffffff1660e01b8152600401600060405180830381600087803b158015610b6557600080fd5b505af1158015610b79573d6000803e3d6000fd5b505060008054604051620100009091046001600160a01b031693507fc13fb19d60857980e565bf5dae406b8802d3c1cec50c6156b30b12b8740297839250a2565b61024a80610ee183390190565b6102338061112b83390190565b6001600160a01b038116811461028b57600080fd5b803560038110610bf857600080fd5b919050565b60008083601f840112610c0f57600080fd5b50813567ffffffffffffffff811115610c2757600080fd5b602083019150836020828501011115610c3f57600080fd5b9250929050565b60008060008060008060808789031215610c5f57600080fd5b8635610c6a81610bd4565b9550610c7860208801610be9565b9450604087013567ffffffffffffffff80821115610c9557600080fd5b610ca18a838b01610bfd565b90965094506060890135915080821115610cba57600080fd5b50610cc789828a01610bfd565b979a9699509497509295939492505050565b600060208284031215610ceb57600080fd5b8135610cf681610bd4565b9392505050565b60ff8116811461028b57600080fd5b600080600080600080600060a0888a031215610d2757600080fd5b8735610d3281610bd4565b96506020880135610d4281610cfd565b9550610d5060408901610be9565b9450606088013567ffffffffffffffff80821115610d6d57600080fd5b610d798b838c01610bfd565b909650945060808a0135915080821115610d9257600080fd5b50610d9f8a828b01610bfd565b989b979a50959850939692959293505050565b600060208284031215610dc457600080fd5b8151610cf681610cfd565b600060208284031215610de157600080fd5b8151610cf681610bd4565b6020808252602e908201527f496e697469616c697a61626c653a20636f6e747261637420697320616c72656160408201526d191e481a5b9a5d1a585b1a5e995960921b606082015260800190565b634e487b7160e01b600052602160045260246000fd5b81835281816020850137506000828201602090810191909152601f909101601f19169091010190565b6001600160a01b038716815260ff86166020820152608060408201819052600090610ea79083018688610e50565b8281036060840152610eba818587610e50565b9998505050505050505050565b600060208284031215610ed957600080fd5b505191905056fe608060405234801561001057600080fd5b5061022a806100206000396000f3fe6080604052600436106100225760003560e01c80634a0687ef1461003957610031565b366100315761002f610059565b005b61002f610059565b34801561004557600080fd5b5061002f6100543660046101c4565b61006b565b610069610064610171565b6101a0565b565b6001600160a01b0381166100c65760405162461bcd60e51b815260206004820152601760248201527f5555505350726f78793a207a65726f206164647265737300000000000000000060448201526064015b60405180910390fd5b60006100f07f360894a13ba1a3210667c828492db98dca3e2076cc3735a920a3ca505d382bbc5490565b6001600160a01b0316146101465760405162461bcd60e51b815260206004820152601e60248201527f5555505350726f78793a20616c726561647920696e697469616c697a6564000060448201526064016100bd565b61016e817f360894a13ba1a3210667c828492db98dca3e2076cc3735a920a3ca505d382bbc55565b50565b600061019b7f360894a13ba1a3210667c828492db98dca3e2076cc3735a920a3ca505d382bbc5490565b905090565b3660008037600080366000845af43d6000803e8080156101bf573d6000f35b3d6000fd5b6000602082840312156101d657600080fd5b81356001600160a01b03811681146101ed57600080fd5b939250505056fea2646970667358221220a57ba740f90bd95782f6bee62bc339294c451bcd144bb411f8501e4b1f093d3864736f6c63430008100033608060405234801561001057600080fd5b50610213806100206000396000f3fe6080604052600436106100225760003560e01c80638129fc1c1461003957610031565b366100315761002f61004e565b005b61002f61004e565b34801561004557600080fd5b5061002f610060565b61005e6100596100d0565b610173565b565b7fb8fcd5719b3ddf8626f3664705a89b7fc476129a58c1aa5eda57c600cc1821a0546001600160a01b038116156100aa576040516305c5d81960e01b815260040160405180910390fd5b50337fb8fcd5719b3ddf8626f3664705a89b7fc476129a58c1aa5eda57c600cc1821a055565b7fb8fcd5719b3ddf8626f3664705a89b7fc476129a58c1aa5eda57c600cc1821a0546000906001600160a01b03811661010b5761010b610197565b806001600160a01b0316639470a5b26040518163ffffffff1660e01b8152600401602060405180830381865afa158015610149573d6000803e3d6000fd5b505050506040513d601f19601f8201168201806040525081019061016d91906101ad565b91505090565b3660008037600080366000845af43d6000803e808015610192573d6000f35b3d6000fd5b634e487b7160e01b600052600160045260246000fd5b6000602082840312156101bf57600080fd5b81516001600160a01b03811681146101d657600080fd5b939250505056fea2646970667358221220825933242ad6c7e8f03e8e2b4b5164788cea44bce8263c4147d9c863bd2d292f64736f6c63430008100033a2646970667358221220a4f4e14daf5b15941a5fafb338e3fb206bad42894af0551f0f1939a74b22009e64736f6c63430008100033",
    "linkReferences": {}
  },
  "methodIdentifiers": {
    "castrate()": "9903ad38",
    "createERC20Wrapper(address,uint8,string,string)": "431f1481",
    "createERC20Wrapper(address,uint8,uint8,string,string)": "a6d0c534",
    "createSuperTokenLogic(address)": "4dcc4d79",
    "getCodeAddress()": "50d75d25",
    "getHost()": "20bc4425",
    "getSuperTokenLogic()": "9470a5b2",
    "initialize()": "8129fc1c",
    "initializeCustomSuperToken(address)": "d412d344",
    "proxiableUUID()": "52d1902d",
    "updateCode(address)": "46951954"
  },
  "id": 74
}