{
  "abi": [
    {
      "inputs": [
        {
          "internalType": "uint256",
          "name": "_code",
          "type": "uint256"
        }
      ],
      "name": "MUST_BE_CONTRACT",
      "type": "error"
    },
    {
      "inputs": [],
      "name": "SF_GOV_ARRAYS_NOT_SAME_LENGTH",
      "type": "error"
    },
    {
      "inputs": [],
      "name": "SF_GOV_INVALID_LIQUIDATION_OR_PATRICIAN_PERIOD",
      "type": "error"
    },
    {
      "anonymous": false,
      "inputs": [
        {
          "indexed": true,
          "internalType": "contract ISuperfluid",
          "name": "host",
          "type": "address"
        },
        {
          "indexed": true,
          "internalType": "address",
          "name": "factory",
          "type": "address"
        },
        {
          "indexed": false,
          "internalType": "bool",
          "name": "authorized",
          "type": "bool"
        }
      ],
      "name": "AppFactoryAuthorizationChanged",
      "type": "event"
    },
    {
      "anonymous": false,
      "inputs": [
        {
          "indexed": true,
          "internalType": "contract ISuperfluid",
          "name": "host",
          "type": "address"
        },
        {
          "indexed": true,
          "internalType": "address",
          "name": "deployer",
          "type": "address"
        },
        {
          "indexed": false,
          "internalType": "string",
          "name": "appRegistrationKey",
          "type": "string"
        },
        {
          "indexed": false,
          "internalType": "uint256",
          "name": "expirationTs",
          "type": "uint256"
        }
      ],
      "name": "AppRegistrationKeyChanged",
      "type": "event"
    },
    {
      "anonymous": false,
      "inputs": [
        {
          "indexed": true,
          "internalType": "contract ISuperfluid",
          "name": "host",
          "type": "address"
        },
        {
          "indexed": true,
          "internalType": "contract ISuperfluidToken",
          "name": "superToken",
          "type": "address"
        },
        {
          "indexed": false,
          "internalType": "bool",
          "name": "isKeySet",
          "type": "bool"
        },
        {
          "indexed": false,
          "internalType": "uint256",
          "name": "liquidationPeriod",
          "type": "uint256"
        }
      ],
      "name": "CFAv1LiquidationPeriodChanged",
      "type": "event"
    },
    {
      "anonymous": false,
      "inputs": [
        {
          "indexed": true,
          "internalType": "contract ISuperfluid",
          "name": "host",
          "type": "address"
        },
        {
          "indexed": true,
          "internalType": "contract ISuperfluidToken",
          "name": "superToken",
          "type": "address"
        },
        {
          "indexed": false,
          "internalType": "bytes32",
          "name": "key",
          "type": "bytes32"
        },
        {
          "indexed": false,
          "internalType": "bool",
          "name": "isKeySet",
          "type": "bool"
        },
        {
          "indexed": false,
          "internalType": "uint256",
          "name": "value",
          "type": "uint256"
        }
      ],
      "name": "ConfigChanged",
      "type": "event"
    },
    {
      "anonymous": false,
      "inputs": [
        {
          "indexed": true,
          "internalType": "address",
          "name": "previousOwner",
          "type": "address"
        },
        {
          "indexed": true,
          "internalType": "address",
          "name": "newOwner",
          "type": "address"
        }
      ],
      "name": "OwnershipTransferred",
      "type": "event"
    },
    {
      "anonymous": false,
      "inputs": [
        {
          "indexed": true,
          "internalType": "contract ISuperfluid",
          "name": "host",
          "type": "address"
        },
        {
          "indexed": true,
          "internalType": "contract ISuperfluidToken",
          "name": "superToken",
          "type": "address"
        },
        {
          "indexed": false,
          "internalType": "bool",
          "name": "isKeySet",
          "type": "bool"
        },
        {
          "indexed": false,
          "internalType": "uint256",
          "name": "liquidationPeriod",
          "type": "uint256"
        },
        {
          "indexed": false,
          "internalType": "uint256",
          "name": "patricianPeriod",
          "type": "uint256"
        }
      ],
      "name": "PPPConfigurationChanged",
      "type": "event"
    },
    {
      "anonymous": false,
      "inputs": [
        {
          "indexed": true,
          "internalType": "contract ISuperfluid",
          "name": "host",
          "type": "address"
        },
        {
          "indexed": true,
          "internalType": "contract ISuperfluidToken",
          "name": "superToken",
          "type": "address"
        },
        {
          "indexed": false,
          "internalType": "bool",
          "name": "isKeySet",
          "type": "bool"
        },
        {
          "indexed": false,
          "internalType": "address",
          "name": "rewardAddress",
          "type": "address"
        }
      ],
      "name": "RewardAddressChanged",
      "type": "event"
    },
    {
      "anonymous": false,
      "inputs": [
        {
          "indexed": true,
          "internalType": "contract ISuperfluid",
          "name": "host",
          "type": "address"
        },
        {
          "indexed": true,
          "internalType": "contract ISuperfluidToken",
          "name": "superToken",
          "type": "address"
        },
        {
          "indexed": false,
          "internalType": "bool",
          "name": "isKeySet",
          "type": "bool"
        },
        {
          "indexed": false,
          "internalType": "uint256",
          "name": "minimumDeposit",
          "type": "uint256"
        }
      ],
      "name": "SuperTokenMinimumDepositChanged",
      "type": "event"
    },
    {
      "anonymous": false,
      "inputs": [
        {
          "indexed": true,
          "internalType": "contract ISuperfluid",
          "name": "host",
          "type": "address"
        },
        {
          "indexed": true,
          "internalType": "contract ISuperfluidToken",
          "name": "superToken",
          "type": "address"
        },
        {
          "indexed": false,
          "internalType": "bool",
          "name": "isKeySet",
          "type": "bool"
        },
        {
          "indexed": false,
          "internalType": "address",
          "name": "forwarder",
          "type": "address"
        },
        {
          "indexed": false,
          "internalType": "bool",
          "name": "enabled",
          "type": "bool"
        }
      ],
      "name": "TrustedForwarderChanged",
      "type": "event"
    },
    {
      "inputs": [
        {
          "internalType": "contract ISuperfluid",
          "name": "host",
          "type": "address"
        },
        {
          "internalType": "address",
          "name": "factory",
          "type": "address"
        }
      ],
      "name": "authorizeAppFactory",
      "outputs": [],
      "stateMutability": "nonpayable",
      "type": "function"
    },
    {
      "inputs": [
        {
          "internalType": "contract ISuperfluid",
          "name": "host",
          "type": "address"
        },
        {
          "internalType": "contract ISuperToken[]",
          "name": "tokens",
          "type": "address[]"
        }
      ],
      "name": "batchUpdateSuperTokenLogic",
      "outputs": [],
      "stateMutability": "nonpayable",
      "type": "function"
    },
    {
      "inputs": [
        {
          "internalType": "contract ISuperfluid",
          "name": "host",
          "type": "address"
        },
        {
          "internalType": "contract ISuperToken[]",
          "name": "tokens",
          "type": "address[]"
        },
        {
          "internalType": "uint256[]",
          "name": "minimumDeposits",
          "type": "uint256[]"
        }
      ],
      "name": "batchUpdateSuperTokenMinimumDeposit",
      "outputs": [],
      "stateMutability": "nonpayable",
      "type": "function"
    },
    {
      "inputs": [
        {
          "internalType": "contract ISuperfluid",
          "name": "host",
          "type": "address"
        },
        {
          "internalType": "address",
          "name": "deployer",
          "type": "address"
        },
        {
          "internalType": "string",
          "name": "registrationKey",
          "type": "string"
        }
      ],
      "name": "clearAppRegistrationKey",
      "outputs": [],
      "stateMutability": "nonpayable",
      "type": "function"
    },
    {
      "inputs": [
        {
          "internalType": "contract ISuperfluid",
          "name": "host",
          "type": "address"
        },
        {
          "internalType": "contract ISuperfluidToken",
          "name": "superToken",
          "type": "address"
        },
        {
          "internalType": "bytes32",
          "name": "key",
          "type": "bytes32"
        }
      ],
      "name": "clearConfig",
      "outputs": [],
      "stateMutability": "nonpayable",
      "type": "function"
    },
    {
      "inputs": [
        {
          "internalType": "contract ISuperfluid",
          "name": "host",
          "type": "address"
        },
        {
          "internalType": "contract ISuperfluidToken",
          "name": "superToken",
          "type": "address"
        }
      ],
      "name": "clearPPPConfig",
      "outputs": [],
      "stateMutability": "nonpayable",
      "type": "function"
    },
    {
      "inputs": [
        {
          "internalType": "contract ISuperfluid",
          "name": "host",
          "type": "address"
        },
        {
          "internalType": "contract ISuperfluidToken",
          "name": "superToken",
          "type": "address"
        }
      ],
      "name": "clearRewardAddress",
      "outputs": [],
      "stateMutability": "nonpayable",
      "type": "function"
    },
    {
      "inputs": [
        {
          "internalType": "contract ISuperfluid",
          "name": "host",
          "type": "address"
        },
        {
          "internalType": "contract ISuperToken",
          "name": "superToken",
          "type": "address"
        }
      ],
      "name": "clearSuperTokenMinimumDeposit",
      "outputs": [],
      "stateMutability": "nonpayable",
      "type": "function"
    },
    {
      "inputs": [
        {
          "internalType": "contract ISuperfluid",
          "name": "host",
          "type": "address"
        },
        {
          "internalType": "contract ISuperfluidToken",
          "name": "superToken",
          "type": "address"
        },
        {
          "internalType": "address",
          "name": "forwarder",
          "type": "address"
        }
      ],
      "name": "disableTrustedForwarder",
      "outputs": [],
      "stateMutability": "nonpayable",
      "type": "function"
    },
    {
      "inputs": [
        {
          "internalType": "contract ISuperfluid",
          "name": "host",
          "type": "address"
        },
        {
          "internalType": "contract ISuperfluidToken",
          "name": "superToken",
          "type": "address"
        },
        {
          "internalType": "address",
          "name": "forwarder",
          "type": "address"
        }
      ],
      "name": "enableTrustedForwarder",
      "outputs": [],
      "stateMutability": "nonpayable",
      "type": "function"
    },
    {
      "inputs": [
        {
          "internalType": "contract ISuperfluid",
          "name": "host",
          "type": "address"
        },
        {
          "internalType": "contract ISuperfluidToken",
          "name": "superToken",
          "type": "address"
        },
        {
          "internalType": "bytes32",
          "name": "key",
          "type": "bytes32"
        }
      ],
      "name": "getConfigAsAddress",
      "outputs": [
        {
          "internalType": "address",
          "name": "value",
          "type": "address"
        }
      ],
      "stateMutability": "view",
      "type": "function"
    },
    {
      "inputs": [
        {
          "internalType": "contract ISuperfluid",
          "name": "host",
          "type": "address"
        },
        {
          "internalType": "contract ISuperfluidToken",
          "name": "superToken",
          "type": "address"
        },
        {
          "internalType": "bytes32",
          "name": "key",
          "type": "bytes32"
        }
      ],
      "name": "getConfigAsUint256",
      "outputs": [
        {
          "internalType": "uint256",
          "name": "period",
          "type": "uint256"
        }
      ],
      "stateMutability": "view",
      "type": "function"
    },
    {
      "inputs": [
        {
          "internalType": "contract ISuperfluid",
          "name": "host",
          "type": "address"
        },
        {
          "internalType": "contract ISuperfluidToken",
          "name": "superToken",
          "type": "address"
        }
      ],
      "name": "getPPPConfig",
      "outputs": [
        {
          "internalType": "uint256",
          "name": "liquidationPeriod",
          "type": "uint256"
        },
        {
          "internalType": "uint256",
          "name": "patricianPeriod",
          "type": "uint256"
        }
      ],
      "stateMutability": "view",
      "type": "function"
    },
    {
      "inputs": [
        {
          "internalType": "contract ISuperfluid",
          "name": "host",
          "type": "address"
        },
        {
          "internalType": "contract ISuperfluidToken",
          "name": "superToken",
          "type": "address"
        }
      ],
      "name": "getRewardAddress",
      "outputs": [
        {
          "internalType": "address",
          "name": "",
          "type": "address"
        }
      ],
      "stateMutability": "view",
      "type": "function"
    },
    {
      "inputs": [
        {
          "internalType": "contract ISuperfluid",
          "name": "host",
          "type": "address"
        },
        {
          "internalType": "contract ISuperfluidToken",
          "name": "superToken",
          "type": "address"
        }
      ],
      "name": "getSuperTokenMinimumDeposit",
      "outputs": [
        {
          "internalType": "uint256",
          "name": "value",
          "type": "uint256"
        }
      ],
      "stateMutability": "view",
      "type": "function"
    },
    {
      "inputs": [
        {
          "internalType": "contract ISuperfluid",
          "name": "host",
          "type": "address"
        },
        {
          "internalType": "address",
          "name": "rewardAddress",
          "type": "address"
        },
        {
          "internalType": "uint256",
          "name": "liquidationPeriod",
          "type": "uint256"
        },
        {
          "internalType": "uint256",
          "name": "patricianPeriod",
          "type": "uint256"
        },
        {
          "internalType": "address[]",
          "name": "trustedForwarders",
          "type": "address[]"
        }
      ],
      "name": "initialize",
      "outputs": [],
      "stateMutability": "nonpayable",
      "type": "function"
    },
    {
      "inputs": [
        {
          "internalType": "contract ISuperfluid",
          "name": "host",
          "type": "address"
        },
        {
          "internalType": "address",
          "name": "factory",
          "type": "address"
        }
      ],
      "name": "isAuthorizedAppFactory",
      "outputs": [
        {
          "internalType": "bool",
          "name": "",
          "type": "bool"
        }
      ],
      "stateMutability": "view",
      "type": "function"
    },
    {
      "inputs": [
        {
          "internalType": "contract ISuperfluid",
          "name": "host",
          "type": "address"
        },
        {
          "internalType": "contract ISuperfluidToken",
          "name": "superToken",
          "type": "address"
        },
        {
          "internalType": "address",
          "name": "forwarder",
          "type": "address"
        }
      ],
      "name": "isTrustedForwarder",
      "outputs": [
        {
          "internalType": "bool",
          "name": "",
          "type": "bool"
        }
      ],
      "stateMutability": "view",
      "type": "function"
    },
    {
      "inputs": [],
      "name": "owner",
      "outputs": [
        {
          "internalType": "address",
          "name": "",
          "type": "address"
        }
      ],
      "stateMutability": "view",
      "type": "function"
    },
    {
      "inputs": [
        {
          "internalType": "contract ISuperfluid",
          "name": "host",
          "type": "address"
        },
        {
          "internalType": "address",
          "name": "agreementClass",
          "type": "address"
        }
      ],
      "name": "registerAgreementClass",
      "outputs": [],
      "stateMutability": "nonpayable",
      "type": "function"
    },
    {
      "inputs": [],
      "name": "renounceOwnership",
      "outputs": [],
      "stateMutability": "nonpayable",
      "type": "function"
    },
    {
      "inputs": [
        {
          "internalType": "contract ISuperfluid",
          "name": "host",
          "type": "address"
        },
        {
          "internalType": "address",
          "name": "newGov",
          "type": "address"
        }
      ],
      "name": "replaceGovernance",
      "outputs": [],
      "stateMutability": "nonpayable",
      "type": "function"
    },
    {
      "inputs": [
        {
          "internalType": "contract ISuperfluid",
          "name": "host",
          "type": "address"
        },
        {
          "internalType": "address",
          "name": "deployer",
          "type": "address"
        },
        {
          "internalType": "string",
          "name": "registrationKey",
          "type": "string"
        },
        {
          "internalType": "uint256",
          "name": "expirationTs",
          "type": "uint256"
        }
      ],
      "name": "setAppRegistrationKey",
      "outputs": [],
      "stateMutability": "nonpayable",
      "type": "function"
    },
    {
      "inputs": [
        {
          "internalType": "contract ISuperfluid",
          "name": "host",
          "type": "address"
        },
        {
          "internalType": "contract ISuperfluidToken",
          "name": "superToken",
          "type": "address"
        },
        {
          "internalType": "bytes32",
          "name": "key",
          "type": "bytes32"
        },
        {
          "internalType": "address",
          "name": "value",
          "type": "address"
        }
      ],
      "name": "setConfig",
      "outputs": [],
      "stateMutability": "nonpayable",
      "type": "function"
    },
    {
      "inputs": [
        {
          "internalType": "contract ISuperfluid",
          "name": "host",
          "type": "address"
        },
        {
          "internalType": "contract ISuperfluidToken",
          "name": "superToken",
          "type": "address"
        },
        {
          "internalType": "bytes32",
          "name": "key",
          "type": "bytes32"
        },
        {
          "internalType": "uint256",
          "name": "value",
          "type": "uint256"
        }
      ],
      "name": "setConfig",
      "outputs": [],
      "stateMutability": "nonpayable",
      "type": "function"
    },
    {
      "inputs": [
        {
          "internalType": "contract ISuperfluid",
          "name": "host",
          "type": "address"
        },
        {
          "internalType": "contract ISuperfluidToken",
          "name": "superToken",
          "type": "address"
        },
        {
          "internalType": "uint256",
          "name": "liquidationPeriod",
          "type": "uint256"
        },
        {
          "internalType": "uint256",
          "name": "patricianPeriod",
          "type": "uint256"
        }
      ],
      "name": "setPPPConfig",
      "outputs": [],
      "stateMutability": "nonpayable",
      "type": "function"
    },
    {
      "inputs": [
        {
          "internalType": "contract ISuperfluid",
          "name": "host",
          "type": "address"
        },
        {
          "internalType": "contract ISuperfluidToken",
          "name": "superToken",
          "type": "address"
        },
        {
          "internalType": "address",
          "name": "rewardAddress",
          "type": "address"
        }
      ],
      "name": "setRewardAddress",
      "outputs": [],
      "stateMutability": "nonpayable",
      "type": "function"
    },
    {
      "inputs": [
        {
          "internalType": "contract ISuperfluid",
          "name": "host",
          "type": "address"
        },
        {
          "internalType": "contract ISuperfluidToken",
          "name": "superToken",
          "type": "address"
        },
        {
          "internalType": "uint256",
          "name": "value",
          "type": "uint256"
        }
      ],
      "name": "setSuperTokenMinimumDeposit",
      "outputs": [],
      "stateMutability": "nonpayable",
      "type": "function"
    },
    {
      "inputs": [
        {
          "internalType": "address",
          "name": "newOwner",
          "type": "address"
        }
      ],
      "name": "transferOwnership",
      "outputs": [],
      "stateMutability": "nonpayable",
      "type": "function"
    },
    {
      "inputs": [
        {
          "internalType": "contract ISuperfluid",
          "name": "host",
          "type": "address"
        },
        {
          "internalType": "address",
          "name": "factory",
          "type": "address"
        }
      ],
      "name": "unauthorizeAppFactory",
      "outputs": [],
      "stateMutability": "nonpayable",
      "type": "function"
    },
    {
      "inputs": [
        {
          "internalType": "contract ISuperfluid",
          "name": "host",
          "type": "address"
        },
        {
          "internalType": "address",
          "name": "hostNewLogic",
          "type": "address"
        },
        {
          "internalType": "address[]",
          "name": "agreementClassNewLogics",
          "type": "address[]"
        },
        {
          "internalType": "address",
          "name": "superTokenFactoryNewLogic",
          "type": "address"
        }
      ],
      "name": "updateContracts",
      "outputs": [],
      "stateMutability": "nonpayable",
      "type": "function"
    },
    {
      "inputs": [
        {
          "internalType": "contract ISuperfluid",
          "name": "host",
          "type": "address"
        },
        {
          "internalType": "address",
          "name": "deployer",
          "type": "address"
        },
        {
          "internalType": "string",
          "name": "registrationKey",
          "type": "string"
        }
      ],
      "name": "verifyAppRegistrationKey",
      "outputs": [
        {
          "internalType": "bool",
          "name": "validNow",
          "type": "bool"
        },
        {
          "internalType": "uint256",
          "name": "expirationTs",
          "type": "uint256"
        }
      ],
      "stateMutability": "view",
      "type": "function"
    }
  ],
  "bytecode": {
    "object": "0x608060405234801561001057600080fd5b5061001a3361001f565b61006f565b600080546001600160a01b038381166001600160a01b0319831681178455604051919092169283917f8be0079c531659141344cd1fd0a4f28419497f9722a3daafe3b4186f6b6457e09190a35050565b611ca58061007e6000396000f3fe608060405234801561001057600080fd5b50600436106101ef5760003560e01c80637f0558e41161010f578063948eda5e116100a2578063e447cc1d11610071578063e447cc1d1461045f578063f047a2d914610472578063f2fde38b14610485578063f79a8e631461049857600080fd5b8063948eda5e14610413578063ab846f1a14610426578063cadf8f8514610439578063d099b6a01461044c57600080fd5b80638abe04e9116100de5780638abe04e9146103b95780638b93b3f5146103dc5780638da5cb5b146103ef5780638ecbd87b1461040057600080fd5b80637f0558e41461036457806380f70cba146103775780638369a0f1146103985780638a7ff2f7146103a657600080fd5b8063427942a411610187578063640b6cc911610156578063640b6cc914610323578063715018a61461033657806378707cb81461033e5780637dce4f811461035157600080fd5b8063427942a4146102c257806344864b25146102d557806345228235146102e85780635a9078181461031057600080fd5b806321964473116101c3578063219644731461027657806325c955c314610289578063325529081461029c57806342148deb146102af57600080fd5b806286d555146101f457806301a06b971461020957806311cf00f11461021c57806319df62ab1461024b575b600080fd5b610207610202366004611620565b6104ab565b005b610207610217366004611666565b610578565b61022f61022a366004611742565b6105fc565b6040805192151583526020830191909152015b60405180910390f35b61025e610259366004611666565b61062c565b6040516001600160a01b039091168152602001610242565b6102076102843660046117f0565b610660565b610207610297366004611666565b6106ec565b6102076102aa366004611873565b610748565b6102076102bd3660046118be565b6107c5565b6102076102d0366004611913565b610881565b6102076102e3366004611666565b610b31565b6102fb6102f6366004611666565b610b9c565b60408051928352602083019190915201610242565b61020761031e366004611990565b610be4565b610207610331366004611a0c565b610c9e565b610207610cae565b61020761034c366004611a4d565b610cc2565b61020761035f366004611873565b610cd4565b610207610372366004611a0c565b610d34565b61038a610385366004611a0c565b610da7565b604051908152602001610242565b61025e610385366004611a0c565b61038a6103b4366004611666565b610e18565b6103cc6103c7366004611666565b610e45565b6040519015158152602001610242565b6102076103ea366004611666565b610e60565b6000546001600160a01b031661025e565b61020761040e366004611666565b610eec565b610207610421366004611742565b610f5d565b610207610434366004611873565b610fcb565b610207610447366004611666565b611027565b61020761045a366004611aa0565b61105f565b61020761046d366004611666565b6110bf565b6103cc610480366004611873565b611130565b610207610493366004611b0a565b61114b565b6102076104a6366004611620565b6111c4565b80821115806104be575063ffffffff8210155b806104cd575063ffffffff8110155b156104eb576040516370b8cc0560e11b815260040160405180910390fd5b602082901b811761051e85857fe420d96e81cb4a6b2abb2366c4f93312d4e2ae878a7d4b22e73472fdad891f78846111cc565b6040805160018152602081018590529081018390526001600160a01b0380861691908716907f60a59221512cd8cbfb226200f7ba6f20dc4b38a3cf04993d17ea4e56d26aa186906060015b60405180910390a35050505050565b6105a382827fe420d96e81cb4a6b2abb2366c4f93312d4e2ae878a7d4b22e73472fdad891f7861127f565b60408051600080825260208201819052918101919091526001600160a01b0380831691908416907f60a59221512cd8cbfb226200f7ba6f20dc4b38a3cf04993d17ea4e56d26aa186906060015b60405180910390a35050565b600080600061060b8585611340565b9050600061061b87600084610da7565b428110159890975095505050505050565b600061065983837f9f60ae461adf056670e03ae602566409933242392cb06744f5747c9f38b05d09610da7565b9392505050565b828114610680576040516313ba1d5360e11b815260040160405180910390fd5b60005b818110156106e4576106d4868686848181106106a1576106a1611b27565b90506020020160208101906106b69190611b0a565b8585858181106106c8576106c8611b27565b90506020020135610d34565b6106dd81611b3d565b9050610683565b505050505050565b6107008260006106fb84611373565b61127f565b806001600160a01b0316826001600160a01b03167f8bfde939e79b7e6c603d67aa576e5b75a3f370334b14a9b0e5e263190034d31d60006040516105f0911515815260200190565b61077483837f9f60ae461adf056670e03ae602566409933242392cb06744f5747c9f38b05d0984611406565b60408051600181526001600160a01b03838116602083015280851692908616917f14e12f219a4f9023456dc7832e10119ab768b8ccefc8cb79bc6de0419781eeeb91015b60405180910390a3505050565b826107cf816114bb565b60005b8281101561087a57846001600160a01b031663787afde78585848181106107fb576107fb611b27565b90506020020160208101906108109190611b0a565b6040516001600160e01b031960e084901b1681526001600160a01b039091166004820152602401600060405180830381600087803b15801561085157600080fd5b505af1158015610865573d6000803e3d6000fd5b505050508061087390611b3d565b90506107d2565b5050505050565b8461088b816114bb565b6001600160a01b03851615610949576040516311a5465560e21b81526001600160a01b038681166004830152871690634695195490602401600060405180830381600087803b1580156108dd57600080fd5b505af11580156108f1573d6000803e3d6000fd5b50505050846001600160a01b0316639903ad386040518163ffffffff1660e01b8152600401600060405180830381600087803b15801561093057600080fd5b505af1158015610944573d6000803e3d6000fd5b505050505b60005b83811015610a6d57866001600160a01b03166306cecba886868481811061097557610975611b27565b905060200201602081019061098a9190611b0a565b6040516001600160e01b031960e084901b1681526001600160a01b039091166004820152602401600060405180830381600087803b1580156109cb57600080fd5b505af11580156109df573d6000803e3d6000fd5b505050508484828181106109f5576109f5611b27565b9050602002016020810190610a0a9190611b0a565b6001600160a01b0316639903ad386040518163ffffffff1660e01b8152600401600060405180830381600087803b158015610a4457600080fd5b505af1158015610a58573d6000803e3d6000fd5b5050505080610a6690611b3d565b905061094c565b506001600160a01b038216156106e4576040516354fbc49360e01b81526001600160a01b0383811660048301528716906354fbc49390602401600060405180830381600087803b158015610ac057600080fd5b505af1158015610ad4573d6000803e3d6000fd5b50505050816001600160a01b0316639903ad386040518163ffffffff1660e01b8152600401600060405180830381600087803b158015610b1357600080fd5b505af1925050508015610b24575060015b156106e457505050505050565b81610b3b816114bb565b604051631ca0c40360e21b81526001600160a01b038381166004830152841690637283100c906024015b600060405180830381600087803b158015610b7f57600080fd5b505af1158015610b93573d6000803e3d6000fd5b50505050505050565b6000806000610bcc85857fe420d96e81cb4a6b2abb2366c4f93312d4e2ae878a7d4b22e73472fdad891f78610da7565b63ffffffff602082901c811697911695509350505050565b6001600160a01b038616610bfa57610bfa611b64565b6002546001600160a01b031615610c1357610c13611b64565b600280546001600160a01b0319166001600160a01b038816908117909155610c3d90600087610748565b610c4a86600086866104ab565b60005b81811015610b9357600254610c8e906001600160a01b03166000858585818110610c7957610c79611b27565b90506020020160208101906104349190611b0a565b610c9781611b3d565b9050610c4d565b610ca983838361127f565b505050565b610cb66114f2565b610cc0600061154c565b565b610cce84848484611406565b50505050565b610ce283836106fb8461159c565b60408051600181526001600160a01b038381166020830152600092820192909252818416918516907f168da2dec91b2e06e30d49955479383e76f71ba185807a8a5b75e2ed563e1d27906060016107b8565b610d6083837feae305fa863b373417e615b1044222e2806cefc7788d169ce6748a443c3f6cc4846111cc565b6040805160018152602081018390526001600160a01b0380851692908616917fc055c4a3853372c08a98805545379133f00f7261d956b9197729d67f37a82a5391016107b8565b6001600160a01b03808416600090815260016020908152604080832093861683529281528282208483529052908120805460ff16610e0c57506001600160a01b0384166000908152600160209081526040808320838052825280832085845290915290205b60010154949350505050565b600061065983837feae305fa863b373417e615b1044222e2806cefc7788d169ce6748a443c3f6cc4610da7565b6000610e5683600061038585611373565b6001149392505050565b803b6000819003610e8d57604051630db74dbd60e41b815261106860048201526024015b60405180910390fd5b50610ea4826000610e9d84611373565b60016111cc565b806001600160a01b0316826001600160a01b03167f8bfde939e79b7e6c603d67aa576e5b75a3f370334b14a9b0e5e263190034d31d60016040516105f0911515815260200190565b610f1782827feae305fa863b373417e615b1044222e2806cefc7788d169ce6748a443c3f6cc461127f565b60408051600080825260208201526001600160a01b0380841692908516917fc055c4a3853372c08a98805545379133f00f7261d956b9197729d67f37a82a5391016105f0565b6000610f698383611340565b9050610f778460008361127f565b826001600160a01b0316846001600160a01b03167fa22916b55c84301b9ba61d6494b1860339c075b3518e6db6f496bdf2a13d6ffc846000604051610fbd929190611bc0565b60405180910390a350505050565b610fd98383610e9d8461159c565b6040805160018082526001600160a01b03848116602084015292820152818416918516907f168da2dec91b2e06e30d49955479383e76f71ba185807a8a5b75e2ed563e1d27906060016107b8565b81611031816114bb565b6040516315a024e160e01b81526001600160a01b0383811660048301528416906315a024e190602401610b65565b600061106b8484611340565b905061107a85600083856111cc565b836001600160a01b0316856001600160a01b03167fa22916b55c84301b9ba61d6494b1860339c075b3518e6db6f496bdf2a13d6ffc8585604051610569929190611bc0565b6110ea82827f9f60ae461adf056670e03ae602566409933242392cb06744f5747c9f38b05d0961127f565b60408051600080825260208201526001600160a01b0380841692908516917f14e12f219a4f9023456dc7832e10119ab768b8ccefc8cb79bc6de0419781eeeb91016105f0565b600061114084846103858561159c565b600114949350505050565b6111536114f2565b6001600160a01b0381166111b85760405162461bcd60e51b815260206004820152602660248201527f4f776e61626c653a206e6577206f776e657220697320746865207a65726f206160448201526564647265737360d01b6064820152608401610e84565b6111c18161154c565b50565b610cce848484845b836111d6816114bb565b60408051848152600160208201529081018390526001600160a01b0380861691908716907f33afe19ae6902b933890ff48190fabdc4cf7f5ab499be9c4d9d98e3b4562e3909060600160405180910390a350604080518082018252600180825260208083019485526001600160a01b039788166000908152828252848120979098168852958652828720948752939094529093209151825460ff19169015151782559151910155565b82611289816114bb565b826001600160a01b0316846001600160a01b03167f33afe19ae6902b933890ff48190fabdc4cf7f5ab499be9c4d9d98e3b4562e390846000806040516112e2939291909283529015156020830152604082015260600190565b60405180910390a350604080518082018252600080825260208083018281526001600160a01b03978816835260018083528584209790981683529581528382209482529390935291209051815460ff19169015151781559051910155565b60008282604051602001611355929190611be2565b60405160208183030381529060405280519060200120905092915050565b6040805160208101829052603960608201527f6f72672e7375706572666c7569642d66696e616e63652e7375706572666c756960808201527f642e61707057686974654c697374696e672e666163746f72790000000000000060a08201526001600160a01b0383169181019190915260009060c0015b604051602081830303815290604052805190602001209050919050565b83611410816114bb565b60408051848152600160208201526001600160a01b03848116828401529151868316928816917f33afe19ae6902b933890ff48190fabdc4cf7f5ab499be9c4d9d98e3b4562e390919081900360600190a35060408051808201825260018082526001600160a01b03938416602080840191825297851660009081528289528481209790951685529587528284209484529390955290209251835460ff19169015151783559051910155565b6002546001600160a01b038281169116146114d8576114d8611b64565b6000546001600160a01b031633146111c1576111c1611b64565b6000546001600160a01b03163314610cc05760405162461bcd60e51b815260206004820181905260248201527f4f776e61626c653a2063616c6c6572206973206e6f7420746865206f776e65726044820152606401610e84565b600080546001600160a01b038381166001600160a01b0319831681178455604051919092169283917f8be0079c531659141344cd1fd0a4f28419497f9722a3daafe3b4186f6b6457e09190a35050565b6040805160208101829052603260608201527f6f72672e7375706572666c7569642d66696e616e63652e7375706572666c756960808201527132173a393ab9ba32b22337b93bb0b93232b960711b60a08201526001600160a01b0383169181019190915260009060c0016113e9565b6001600160a01b03811681146111c157600080fd5b6000806000806080858703121561163657600080fd5b84356116418161160b565b935060208501356116518161160b565b93969395505050506040820135916060013590565b6000806040838503121561167957600080fd5b82356116848161160b565b915060208301356116948161160b565b809150509250929050565b634e487b7160e01b600052604160045260246000fd5b600082601f8301126116c657600080fd5b813567ffffffffffffffff808211156116e1576116e161169f565b604051601f8301601f19908116603f011681019082821181831017156117095761170961169f565b8160405283815286602085880101111561172257600080fd5b836020870160208301376000602085830101528094505050505092915050565b60008060006060848603121561175757600080fd5b83356117628161160b565b925060208401356117728161160b565b9150604084013567ffffffffffffffff81111561178e57600080fd5b61179a868287016116b5565b9150509250925092565b60008083601f8401126117b657600080fd5b50813567ffffffffffffffff8111156117ce57600080fd5b6020830191508360208260051b85010111156117e957600080fd5b9250929050565b60008060008060006060868803121561180857600080fd5b85356118138161160b565b9450602086013567ffffffffffffffff8082111561183057600080fd5b61183c89838a016117a4565b9096509450604088013591508082111561185557600080fd5b50611862888289016117a4565b969995985093965092949392505050565b60008060006060848603121561188857600080fd5b83356118938161160b565b925060208401356118a38161160b565b915060408401356118b38161160b565b809150509250925092565b6000806000604084860312156118d357600080fd5b83356118de8161160b565b9250602084013567ffffffffffffffff8111156118fa57600080fd5b611906868287016117a4565b9497909650939450505050565b60008060008060006080868803121561192b57600080fd5b85356119368161160b565b945060208601356119468161160b565b9350604086013567ffffffffffffffff81111561196257600080fd5b61196e888289016117a4565b90945092505060608601356119828161160b565b809150509295509295909350565b60008060008060008060a087890312156119a957600080fd5b86356119b48161160b565b955060208701356119c48161160b565b94506040870135935060608701359250608087013567ffffffffffffffff8111156119ee57600080fd5b6119fa89828a016117a4565b979a9699509497509295939492505050565b600080600060608486031215611a2157600080fd5b8335611a2c8161160b565b92506020840135611a3c8161160b565b929592945050506040919091013590565b60008060008060808587031215611a6357600080fd5b8435611a6e8161160b565b93506020850135611a7e8161160b565b9250604085013591506060850135611a958161160b565b939692955090935050565b60008060008060808587031215611ab657600080fd5b8435611ac18161160b565b93506020850135611ad18161160b565b9250604085013567ffffffffffffffff811115611aed57600080fd5b611af9878288016116b5565b949793965093946060013593505050565b600060208284031215611b1c57600080fd5b81356106598161160b565b634e487b7160e01b600052603260045260246000fd5b600060018201611b5d57634e487b7160e01b600052601160045260246000fd5b5060010190565b634e487b7160e01b600052600160045260246000fd5b6000815180845260005b81811015611ba057602081850181015186830182015201611b84565b506000602082860101526020601f19601f83011685010191505092915050565b604081526000611bd36040830185611b7a565b90508260208301529392505050565b60608152604160608201527f6f72672e7375706572666c7569642d66696e616e63652e7375706572666c756960808201527f642e61707057686974654c697374696e672e726567697374726174696f6e4b6560a0820152607960f81b60c082015260018060a01b038316602082015260e060408201526000611c6760e0830184611b7a565b94935050505056fea264697066735822122064dd3694d30961355a902e74d2e5004f0a51d35de5ecba56be0afbc267a79f4564736f6c63430008100033",
    "linkReferences": {}
  },
  "methodIdentifiers": {
    "authorizeAppFactory(address,address)": "8b93b3f5",
    "batchUpdateSuperTokenLogic(address,address[])": "42148deb",
    "batchUpdateSuperTokenMinimumDeposit(address,address[],uint256[])": "21964473",
    "clearAppRegistrationKey(address,address,string)": "948eda5e",
    "clearConfig(address,address,bytes32)": "640b6cc9",
    "clearPPPConfig(address,address)": "01a06b97",
    "clearRewardAddress(address,address)": "e447cc1d",
    "clearSuperTokenMinimumDeposit(address,address)": "8ecbd87b",
    "disableTrustedForwarder(address,address,address)": "7dce4f81",
    "enableTrustedForwarder(address,address,address)": "ab846f1a",
    "getConfigAsAddress(address,address,bytes32)": "8369a0f1",
    "getConfigAsUint256(address,address,bytes32)": "80f70cba",
    "getPPPConfig(address,address)": "45228235",
    "getRewardAddress(address,address)": "19df62ab",
    "getSuperTokenMinimumDeposit(address,address)": "8a7ff2f7",
    "initialize(address,address,uint256,uint256,address[])": "5a907818",
    "isAuthorizedAppFactory(address,address)": "8abe04e9",
    "isTrustedForwarder(address,address,address)": "f047a2d9",
    "owner()": "8da5cb5b",
    "registerAgreementClass(address,address)": "cadf8f85",
    "renounceOwnership()": "715018a6",
    "replaceGovernance(address,address)": "44864b25",
    "setAppRegistrationKey(address,address,string,uint256)": "d099b6a0",
    "setConfig(address,address,bytes32,address)": "78707cb8",
    "setConfig(address,address,bytes32,uint256)": "f79a8e63",
    "setPPPConfig(address,address,uint256,uint256)": "0086d555",
    "setRewardAddress(address,address,address)": "32552908",
    "setSuperTokenMinimumDeposit(address,address,uint256)": "7f0558e4",
    "transferOwnership(address)": "f2fde38b",
    "unauthorizeAppFactory(address,address)": "25c955c3",
    "updateContracts(address,address,address[],address)": "427942a4",
    "verifyAppRegistrationKey(address,address,string)": "11cf00f1"
  },
  "id": 86
}