{
  "abi": [
    {
      "inputs": [
        {
          "internalType": "contract IcfaV1Forwarder",
          "name": "_cfaV1Forwarder",
          "type": "address"
        },
        {
          "internalType": "contract ISuperfluid",
          "name": "_host",
          "type": "address"
        },
        {
          "internalType": "address",
          "name": "_implementation",
          "type": "address"
        }
      ],
      "stateMutability": "nonpayable",
      "type": "constructor"
    },
    {
      "inputs": [],
      "name": "SameImplementationAddress",
      "type": "error"
    },
    {
      "inputs": [
        {
          "internalType": "string",
          "name": "name",
          "type": "string"
        }
      ],
      "name": "TapExists",
      "type": "error"
    },
    {
      "inputs": [
        {
          "internalType": "address",
          "name": "superToken",
          "type": "address"
        },
        {
          "internalType": "uint256",
          "name": "amount",
          "type": "uint256"
        }
      ],
      "name": "TransferFailed",
      "type": "error"
    },
    {
      "inputs": [],
      "name": "ZeroAddress",
      "type": "error"
    },
    {
      "anonymous": false,
      "inputs": [
        {
          "indexed": false,
          "internalType": "address",
          "name": "oldImplementation",
          "type": "address"
        },
        {
          "indexed": false,
          "internalType": "address",
          "name": "newImplementation",
          "type": "address"
        }
      ],
      "name": "ImplementationChanged",
      "type": "event"
    },
    {
      "anonymous": false,
      "inputs": [
        {
          "indexed": true,
          "internalType": "address",
          "name": "previousOwner",
          "type": "address"
        },
        {
          "indexed": true,
          "internalType": "address",
          "name": "newOwner",
          "type": "address"
        }
      ],
      "name": "OwnershipTransferred",
      "type": "event"
    },
    {
      "anonymous": false,
      "inputs": [
        {
          "indexed": false,
          "internalType": "string",
          "name": "name",
          "type": "string"
        },
        {
          "indexed": false,
          "internalType": "address",
          "name": "creator",
          "type": "address"
        },
        {
          "indexed": true,
          "internalType": "address",
          "name": "tap",
          "type": "address"
        },
        {
          "indexed": true,
          "internalType": "address",
          "name": "nft",
          "type": "address"
        },
        {
          "indexed": true,
          "internalType": "address",
          "name": "superToken",
          "type": "address"
        }
      ],
      "name": "TapCreated",
      "type": "event"
    },
    {
      "inputs": [],
      "name": "CFA_V1_FORWARDER",
      "outputs": [
        {
          "internalType": "contract IcfaV1Forwarder",
          "name": "",
          "type": "address"
        }
      ],
      "stateMutability": "view",
      "type": "function"
    },
    {
      "inputs": [],
      "name": "HOST",
      "outputs": [
        {
          "internalType": "contract ISuperfluid",
          "name": "",
          "type": "address"
        }
      ],
      "stateMutability": "view",
      "type": "function"
    },
    {
      "inputs": [
        {
          "internalType": "string",
          "name": "",
          "type": "string"
        }
      ],
      "name": "Taps",
      "outputs": [
        {
          "internalType": "address",
          "name": "",
          "type": "address"
        }
      ],
      "stateMutability": "view",
      "type": "function"
    },
    {
      "inputs": [
        {
          "internalType": "string",
          "name": "_name",
          "type": "string"
        },
        {
          "internalType": "uint96",
          "name": "_ratePerNFT",
          "type": "uint96"
        },
        {
          "internalType": "contract IERC721",
          "name": "_nft",
          "type": "address"
        },
        {
          "internalType": "contract ISuperToken",
          "name": "_streamToken",
          "type": "address"
        }
      ],
      "name": "createTap",
      "outputs": [
        {
          "internalType": "address",
          "name": "_newTap",
          "type": "address"
        }
      ],
      "stateMutability": "nonpayable",
      "type": "function"
    },
    {
      "inputs": [],
      "name": "implementation",
      "outputs": [
        {
          "internalType": "address",
          "name": "",
          "type": "address"
        }
      ],
      "stateMutability": "view",
      "type": "function"
    },
    {
      "inputs": [],
      "name": "owner",
      "outputs": [
        {
          "internalType": "address",
          "name": "",
          "type": "address"
        }
      ],
      "stateMutability": "view",
      "type": "function"
    },
    {
      "inputs": [],
      "name": "renounceOwnership",
      "outputs": [],
      "stateMutability": "nonpayable",
      "type": "function"
    },
    {
      "inputs": [
        {
          "internalType": "address",
          "name": "_newImplementation",
          "type": "address"
        }
      ],
      "name": "setImplementation",
      "outputs": [],
      "stateMutability": "nonpayable",
      "type": "function"
    },
    {
      "inputs": [
        {
          "internalType": "address",
          "name": "newOwner",
          "type": "address"
        }
      ],
      "name": "transferOwnership",
      "outputs": [],
      "stateMutability": "nonpayable",
      "type": "function"
    }
  ],
  "bytecode": {
    "object": "0x60c060405234801561001057600080fd5b50604051610b0d380380610b0d83398101604081905261002f91610109565b610038336100a1565b6001600160a01b038316158061005557506001600160a01b038216155b156100735760405163d92e233d60e01b815260040160405180910390fd5b6001600160a01b0392831660805290821660a052600180546001600160a01b03191691909216179055610156565b600080546001600160a01b038381166001600160a01b0319831681178455604051919092169283917f8be0079c531659141344cd1fd0a4f28419497f9722a3daafe3b4186f6b6457e09190a35050565b6001600160a01b038116811461010657600080fd5b50565b60008060006060848603121561011e57600080fd5b8351610129816100f1565b602085015190935061013a816100f1565b604085015190925061014b816100f1565b809150509250925092565b60805160a05161097e61018f60003960008181609d015281816102ba015261036601526000818161013401526102e0015261097e6000f3fe608060405234801561001057600080fd5b50600436106100935760003560e01c8063b99fbe2b11610066578063b99fbe2b14610109578063d784d4261461011c578063dbc341d41461012f578063f2fde38b14610156578063fc2d0f4c1461016957600080fd5b806349f289dc146100985780635c60da1b146100db578063715018a6146100ee5780638da5cb5b146100f8575b600080fd5b6100bf7f000000000000000000000000000000000000000000000000000000000000000081565b6040516001600160a01b03909116815260200160405180910390f35b6001546100bf906001600160a01b031681565b6100f661019d565b005b6000546001600160a01b03166100bf565b6100bf610117366004610756565b6101b1565b6100f661012a3660046107dc565b610423565b6100bf7f000000000000000000000000000000000000000000000000000000000000000081565b6100f66101643660046107dc565b6104e1565b6100bf610177366004610800565b80516020818301810180516002825292820191909301209152546001600160a01b031681565b6101a561055a565b6101af60006105b4565b565b60006001600160a01b03831615806101d057506001600160a01b038216155b156101ee5760405163d92e233d60e01b815260040160405180910390fd5b60006001600160a01b03166002866040516102099190610861565b908152604051908190036020019020546001600160a01b03161461024b5784604051635594717560e11b815260040161024291906108a9565b60405180910390fd5b600154610260906001600160a01b0316610604565b9050806002866040516102739190610861565b90815260405190819003602001812080546001600160a01b039384166001600160a01b0319909116179055630493f1a960e51b81529082169063927e35209061030c9088907f00000000000000000000000000000000000000000000000000000000000000009033908a907f0000000000000000000000000000000000000000000000000000000000000000908b908b906004016108bc565b600060405180830381600087803b15801561032657600080fd5b505af115801561033a573d6000803e3d6000fd5b50506040516379b9982960e11b81526001600160a01b038481166004830152641f0000000160248301527f000000000000000000000000000000000000000000000000000000000000000016925063f37330529150604401600060405180830381600087803b1580156103ac57600080fd5b505af11580156103c0573d6000803e3d6000fd5b50505050816001600160a01b0316836001600160a01b0316826001600160a01b03167f23c83c253cc492eb3c8c7195f38adcc093e4e9cc14d6c521f2c83377e50cba01883360405161041392919061091e565b60405180910390a4949350505050565b61042b61055a565b6001600160a01b0381166104525760405163d92e233d60e01b815260040160405180910390fd5b6001546001600160a01b0390811690821681036104825760405163779a174960e01b815260040160405180910390fd5b600180546001600160a01b0319166001600160a01b0384811691821790925560408051928416835260208301919091527fcfbf4028add9318bbf716f08c348595afb063b0e9feed1f86d33681a4b3ed4d3910160405180910390a15050565b6104e961055a565b6001600160a01b03811661054e5760405162461bcd60e51b815260206004820152602660248201527f4f776e61626c653a206e6577206f776e657220697320746865207a65726f206160448201526564647265737360d01b6064820152608401610242565b610557816105b4565b50565b6000546001600160a01b031633146101af5760405162461bcd60e51b815260206004820181905260248201527f4f776e61626c653a2063616c6c6572206973206e6f7420746865206f776e65726044820152606401610242565b600080546001600160a01b038381166001600160a01b0319831681178455604051919092169283917f8be0079c531659141344cd1fd0a4f28419497f9722a3daafe3b4186f6b6457e09190a35050565b6000763d602d80600a3d3981f3363d3d373d3d3d363d730000008260601b60e81c176000526e5af43d82803e903d91602b57fd5bf38260781b17602052603760096000f090506001600160a01b0381166106995760405162461bcd60e51b8152602060048201526016602482015275115490cc4c4d8dce8818dc99585d194819985a5b195960521b6044820152606401610242565b919050565b634e487b7160e01b600052604160045260246000fd5b600082601f8301126106c557600080fd5b813567ffffffffffffffff808211156106e0576106e061069e565b604051601f8301601f19908116603f011681019082821181831017156107085761070861069e565b8160405283815286602085880101111561072157600080fd5b836020870160208301376000602085830101528094505050505092915050565b6001600160a01b038116811461055757600080fd5b6000806000806080858703121561076c57600080fd5b843567ffffffffffffffff81111561078357600080fd5b61078f878288016106b4565b94505060208501356bffffffffffffffffffffffff811681146107b157600080fd5b925060408501356107c181610741565b915060608501356107d181610741565b939692955090935050565b6000602082840312156107ee57600080fd5b81356107f981610741565b9392505050565b60006020828403121561081257600080fd5b813567ffffffffffffffff81111561082957600080fd5b610835848285016106b4565b949350505050565b60005b83811015610858578181015183820152602001610840565b50506000910152565b6000825161087381846020870161083d565b9190910192915050565b6000815180845261089581602086016020860161083d565b601f01601f19169290920160200192915050565b6020815260006107f9602083018461087d565b60e0815260006108cf60e083018a61087d565b6001600160a01b0398891660208401529688166040830152506bffffffffffffffffffffffff9490941660608501529185166080840152841660a083015290921660c090920191909152919050565b604081526000610931604083018561087d565b905060018060a01b0383166020830152939250505056fea26469706673582212208df29cfda961b80a922800e93e5675c9ba38c8090fe579f6e41b1358e8f0c70764736f6c63430008100033",
    "linkReferences": {}
  },
  "methodIdentifiers": {
    "CFA_V1_FORWARDER()": "dbc341d4",
    "HOST()": "49f289dc",
    "Taps(string)": "fc2d0f4c",
    "createTap(string,uint96,address,address)": "b99fbe2b",
    "implementation()": "5c60da1b",
    "owner()": "8da5cb5b",
    "renounceOwnership()": "715018a6",
    "setImplementation(address)": "d784d426",
    "transferOwnership(address)": "f2fde38b"
  },
  "id": 95
}