{
  "abi": [
    {
      "inputs": [
        {
          "internalType": "contract IcfaV1Forwarder",
          "name": "_cfaV1Forwarder",
          "type": "address"
        },
        {
          "internalType": "bool",
          "name": "_pauseBulkClaims",
          "type": "bool"
        }
      ],
      "stateMutability": "nonpayable",
      "type": "constructor"
    },
    {
      "inputs": [],
      "name": "MethodPaused",
      "type": "error"
    },
    {
      "inputs": [
        {
          "internalType": "bytes32",
          "name": "id",
          "type": "bytes32"
        }
      ],
      "name": "NotTapCreator",
      "type": "error"
    },
    {
      "inputs": [
        {
          "internalType": "bytes32",
          "name": "id",
          "type": "bytes32"
        },
        {
          "internalType": "uint96",
          "name": "ratePerNFT",
          "type": "uint96"
        }
      ],
      "name": "SameTapRate",
      "type": "error"
    },
    {
      "inputs": [
        {
          "internalType": "bytes32",
          "name": "id",
          "type": "bytes32"
        }
      ],
      "name": "TapActive",
      "type": "error"
    },
    {
      "inputs": [
        {
          "internalType": "bytes32",
          "name": "id",
          "type": "bytes32"
        }
      ],
      "name": "TapExists",
      "type": "error"
    },
    {
      "inputs": [
        {
          "internalType": "bytes32",
          "name": "id",
          "type": "bytes32"
        }
      ],
      "name": "TapInactive",
      "type": "error"
    },
    {
      "inputs": [],
      "name": "ZeroAddress",
      "type": "error"
    },
    {
      "anonymous": false,
      "inputs": [
        {
          "indexed": true,
          "internalType": "bytes32",
          "name": "id",
          "type": "bytes32"
        }
      ],
      "name": "TapActivated",
      "type": "event"
    },
    {
      "anonymous": false,
      "inputs": [
        {
          "indexed": false,
          "internalType": "string",
          "name": "name",
          "type": "string"
        },
        {
          "indexed": false,
          "internalType": "address",
          "name": "creator",
          "type": "address"
        },
        {
          "indexed": true,
          "internalType": "address",
          "name": "nft",
          "type": "address"
        },
        {
          "indexed": true,
          "internalType": "address",
          "name": "superToken",
          "type": "address"
        },
        {
          "indexed": true,
          "internalType": "bytes32",
          "name": "id",
          "type": "bytes32"
        }
      ],
      "name": "TapCreated",
      "type": "event"
    },
    {
      "anonymous": false,
      "inputs": [
        {
          "indexed": true,
          "internalType": "bytes32",
          "name": "id",
          "type": "bytes32"
        }
      ],
      "name": "TapDeactivated",
      "type": "event"
    },
    {
      "anonymous": false,
      "inputs": [
        {
          "indexed": true,
          "internalType": "bytes32",
          "name": "id",
          "type": "bytes32"
        },
        {
          "indexed": false,
          "internalType": "uint96",
          "name": "oldRatePerNFT",
          "type": "uint96"
        },
        {
          "indexed": false,
          "internalType": "uint96",
          "name": "newRatePerNFT",
          "type": "uint96"
        }
      ],
      "name": "TapRateChanged",
      "type": "event"
    },
    {
      "inputs": [
        {
          "internalType": "bytes32",
          "name": "_id",
          "type": "bytes32"
        }
      ],
      "name": "activateTap",
      "outputs": [],
      "stateMutability": "nonpayable",
      "type": "function"
    },
    {
      "inputs": [
        {
          "internalType": "bytes32",
          "name": "_id",
          "type": "bytes32"
        },
        {
          "internalType": "uint96",
          "name": "_newRatePerNFT",
          "type": "uint96"
        }
      ],
      "name": "changeRate",
      "outputs": [],
      "stateMutability": "nonpayable",
      "type": "function"
    },
    {
      "inputs": [
        {
          "internalType": "bytes32",
          "name": "_id",
          "type": "bytes32"
        }
      ],
      "name": "claimStream",
      "outputs": [],
      "stateMutability": "nonpayable",
      "type": "function"
    },
    {
      "inputs": [
        {
          "internalType": "string",
          "name": "_name",
          "type": "string"
        },
        {
          "internalType": "address",
          "name": "_nft",
          "type": "address"
        },
        {
          "internalType": "uint96",
          "name": "_ratePerNFT",
          "type": "uint96"
        },
        {
          "internalType": "uint256",
          "name": "_amount",
          "type": "uint256"
        },
        {
          "internalType": "contract ISuperToken",
          "name": "_superToken",
          "type": "address"
        }
      ],
      "name": "createTap",
      "outputs": [
        {
          "internalType": "bytes32",
          "name": "_id",
          "type": "bytes32"
        }
      ],
      "stateMutability": "nonpayable",
      "type": "function"
    },
    {
      "inputs": [
        {
          "internalType": "bytes32",
          "name": "_id",
          "type": "bytes32"
        }
      ],
      "name": "deactivateTap",
      "outputs": [],
      "stateMutability": "nonpayable",
      "type": "function"
    },
    {
      "inputs": [
        {
          "internalType": "string",
          "name": "_name",
          "type": "string"
        },
        {
          "internalType": "address",
          "name": "_nft",
          "type": "address"
        },
        {
          "internalType": "address",
          "name": "_creator",
          "type": "address"
        }
      ],
      "name": "getTapId",
      "outputs": [
        {
          "internalType": "bytes32",
          "name": "_id",
          "type": "bytes32"
        }
      ],
      "stateMutability": "pure",
      "type": "function"
    },
    {
      "inputs": [],
      "name": "pauseBulkClaims",
      "outputs": [
        {
          "internalType": "bool",
          "name": "",
          "type": "bool"
        }
      ],
      "stateMutability": "view",
      "type": "function"
    },
    {
      "inputs": [
        {
          "internalType": "bytes32",
          "name": "_id",
          "type": "bytes32"
        }
      ],
      "name": "tapBalance",
      "outputs": [
        {
          "internalType": "uint256",
          "name": "_balance",
          "type": "uint256"
        }
      ],
      "stateMutability": "view",
      "type": "function"
    }
  ],
  "bytecode": {
    "object": "0x60a060405234801561001057600080fd5b5060405161114d38038061114d83398101604081905261002f9161007b565b6001600160a01b0382166100565760405163d92e233d60e01b815260040160405180910390fd5b6001600160a01b03919091166080526000805460ff19169115159190911790556100c6565b6000806040838503121561008e57600080fd5b82516001600160a01b03811681146100a557600080fd5b602084015190925080151581146100bb57600080fd5b809150509250929050565b6080516110656100e86000396000818161083d01526108f801526110656000f3fe608060405234801561001057600080fd5b50600436106100885760003560e01c80635c3c205e1161005b5780635c3c205e146100ee57806381d027991461010b5780639065912c1461011e578063d5e30f041461013157600080fd5b80630fb011aa1461008d57806310492623146100a25780631b9432a2146100b55780633b5b977c146100db575b600080fd5b6100a061009b366004610b09565b610144565b005b6100a06100b0366004610b09565b6101bb565b6100c86100c3366004610bf4565b610233565b6040519081526020015b60405180910390f35b6100a06100e9366004610c73565b6105c4565b6000546100fb9060ff1681565b60405190151581526020016100d2565b6100c8610119366004610b09565b6106b7565b6100a061012c366004610b09565b610721565b6100c861013f366004610c9f565b6109fd565b60008181526001602052604081208054909160ff90911615159003610184576040516310d7b9d960e31b8152600481018390526024015b60405180910390fd5b805460ff1916815560405182907fbfa6c15014a85dab1b077cee4498d1b079c9ba7bed4c0d4389e613fa7b41e51390600090a25050565b60008181526001602081905260409091208054909160ff909116151590036101f957604051635c2a573f60e01b81526004810183905260240161017b565b805460ff1916600117815560405182907ff3e95e14ea8c26d74670bedf251c9a33eefe5b6c19f2573a0a684dac336a711590600090a25050565b60006102408686336109fd565b60008181526001602081905260409091200154909150336001600160a01b0390911603610283576040516301fd49a360e61b81526004810182905260240161017b565b6001600160a01b03851615806102a057506001600160a01b038216155b156102be5760405163d92e233d60e01b815260040160405180910390fd5b6040516323b872dd60e01b8152336004820152306024820152604481018490526001600160a01b038316906323b872dd906064016020604051808303816000875af1158015610311573d6000803e3d6000fd5b505050506040513d601f19601f820116820180604052508101906103359190610d03565b50604080516101208101825260008082526020820181905291810182905260608082018390526080820183905260a0820183905260c0820183905260e082015261010081019190915260018160000190151590811515815250508481602001906001600160601b031690816001600160601b03168152505042816040019067ffffffffffffffff16908167ffffffffffffffff16815250503381606001906001600160a01b031690816001600160a01b0316815250508581608001906001600160a01b031690816001600160a01b031681525050868160e00181905250828161010001906001600160a01b031690816001600160a01b031681525050838160a0018181525050806001600084815260200190815260200160002060008201518160000160006101000a81548160ff02191690831515021790555060208201518160000160016101000a8154816001600160601b0302191690836001600160601b03160217905550604082015181600001600d6101000a81548167ffffffffffffffff021916908367ffffffffffffffff16021790555060608201518160010160006101000a8154816001600160a01b0302191690836001600160a01b0316021790555060808201518160020160006101000a8154816001600160a01b0302191690836001600160a01b0316021790555060a0820151816003015560c0820151816004015560e082015181600501908161054e9190610dae565b506101009190910151600690910180546001600160a01b0319166001600160a01b03928316179055604051839185811691908916907fc0a0636877596c021deaa3f2f427f5d353f70ee6ec31b866a6de5cd9d9851b09906105b2908c903390610eb4565b60405180910390a45095945050505050565b6000828152600160208190526040909120908101546001600160a01b0316331461060457604051633fee3d6360e01b81526004810184905260240161017b565b80546001600160601b036101009091048116908316810361064a57604051635afe972360e11b8152600481018590526001600160601b038416602482015260440161017b565b81546cffffffffffffffffffffffff0019166101006001600160601b03858116918202929092178455604080519284168352602083019190915285917fa5c51a214c18fd5a68f6ae3ce43be01e167e3de2d30b93e07f0ae19e0fd25862910160405180910390a250505050565b600081815260016020526040812080546106e290600160681b900467ffffffffffffffff1642610ef4565b815460048301546107019161010090046001600160601b031690610f0d565b61070b9190610f0d565b816003015461071a9190610ef4565b9392505050565b60005460ff161561074557604051632a38de2560e11b815260040160405180910390fd5b60008181526001602052604080822060068101548154600283015493516370a0823160e01b815233600482015292946001600160a01b03928316946101009092046001600160601b0316939092909116906370a0823190602401602060405180830381865afa1580156107bc573d6000803e3d6000fd5b505050506040513d601f19601f820116820180604052508101906107e09190610f2c565b905060006108076108026107fd6001600160601b03861685610f0d565b610a33565b610aa1565b6006860154604051630ec5b29360e11b81526001600160a01b0391821660048201523060248201523360448201529192506000917f000000000000000000000000000000000000000000000000000000000000000090911690631d8b652690606401602060405180830381865afa158015610886573d6000803e3d6000fd5b505050506040513d601f19601f820116820180604052508101906108aa9190610f45565b905060006108b88284610f68565b9050600082600b0b121580156108d25750600083600b0b12155b80156108e25750600081600b0b12155b6108ee576108ee610f9f565b6001600160a01b037f00000000000000000000000000000000000000000000000000000000000000001663e15536b687303361092a8789610f68565b6040516001600160e01b031960e087901b1681526001600160a01b039485166004820152928416602484015292166044820152600b9190910b606482015260a06084820152600260a482015261060f60f31b60c482015260e4016020604051808303816000875af11580156109a3573d6000803e3d6000fd5b505050506040513d601f19601f820116820180604052508101906109c79190610d03565b506109d28582610fb5565b6001600160601b03168760040160008282546109ee9190610fe9565b90915550505050505050505050565b6000838383604051602001610a1493929190610ffc565b6040516020818303038152906040528051906020012090509392505050565b60006001600160ff1b03821115610a9d5760405162461bcd60e51b815260206004820152602860248201527f53616665436173743a2076616c756520646f65736e27742066697420696e2061604482015267371034b73a191a9b60c11b606482015260840161017b565b5090565b80600b81900b8114610b045760405162461bcd60e51b815260206004820152602660248201527f53616665436173743a2076616c756520646f65736e27742066697420696e203960448201526536206269747360d01b606482015260840161017b565b919050565b600060208284031215610b1b57600080fd5b5035919050565b634e487b7160e01b600052604160045260246000fd5b600082601f830112610b4957600080fd5b813567ffffffffffffffff80821115610b6457610b64610b22565b604051601f8301601f19908116603f01168101908282118183101715610b8c57610b8c610b22565b81604052838152866020858801011115610ba557600080fd5b836020870160208301376000602085830101528094505050505092915050565b6001600160a01b0381168114610bda57600080fd5b50565b80356001600160601b0381168114610b0457600080fd5b600080600080600060a08688031215610c0c57600080fd5b853567ffffffffffffffff811115610c2357600080fd5b610c2f88828901610b38565b9550506020860135610c4081610bc5565b9350610c4e60408701610bdd565b9250606086013591506080860135610c6581610bc5565b809150509295509295909350565b60008060408385031215610c8657600080fd5b82359150610c9660208401610bdd565b90509250929050565b600080600060608486031215610cb457600080fd5b833567ffffffffffffffff811115610ccb57600080fd5b610cd786828701610b38565b9350506020840135610ce881610bc5565b91506040840135610cf881610bc5565b809150509250925092565b600060208284031215610d1557600080fd5b8151801515811461071a57600080fd5b600181811c90821680610d3957607f821691505b602082108103610d5957634e487b7160e01b600052602260045260246000fd5b50919050565b601f821115610da957600081815260208120601f850160051c81016020861015610d865750805b601f850160051c820191505b81811015610da557828155600101610d92565b5050505b505050565b815167ffffffffffffffff811115610dc857610dc8610b22565b610ddc81610dd68454610d25565b84610d5f565b602080601f831160018114610e115760008415610df95750858301515b600019600386901b1c1916600185901b178555610da5565b600085815260208120601f198616915b82811015610e4057888601518255948401946001909101908401610e21565b5085821015610e5e5787850151600019600388901b60f8161c191681555b5050505050600190811b01905550565b6000815180845260005b81811015610e9457602081850181015186830182015201610e78565b506000602082860101526020601f19601f83011685010191505092915050565b604081526000610ec76040830185610e6e565b905060018060a01b03831660208301529392505050565b634e487b7160e01b600052601160045260246000fd5b81810381811115610f0757610f07610ede565b92915050565b6000816000190483118215151615610f2757610f27610ede565b500290565b600060208284031215610f3e57600080fd5b5051919050565b600060208284031215610f5757600080fd5b815180600b0b811461071a57600080fd5b600b82810b9082900b036b7fffffffffffffffffffffff1981126b7fffffffffffffffffffffff82131715610f0757610f07610ede565b634e487b7160e01b600052600160045260246000fd5b60006001600160601b0380841680610fdd57634e487b7160e01b600052601260045260246000fd5b92169190910492915050565b80820180821115610f0757610f07610ede565b60608152600061100f6060830186610e6e565b6001600160a01b039485166020840152929093166040909101529291505056fea2646970667358221220db8656d5d7d4fdc3d3f4b0103e2ad38a7383ec932085b57606885c41d3bf954364736f6c63430008100033",
    "linkReferences": {}
  },
  "methodIdentifiers": {
    "activateTap(bytes32)": "10492623",
    "changeRate(bytes32,uint96)": "3b5b977c",
    "claimStream(bytes32)": "9065912c",
    "createTap(string,address,uint96,uint256,address)": "1b9432a2",
    "deactivateTap(bytes32)": "0fb011aa",
    "getTapId(string,address,address)": "d5e30f04",
    "pauseBulkClaims()": "5c3c205e",
    "tapBalance(bytes32)": "81d02799"
  },
  "id": 19
}