{
  "abi": [
    {
      "inputs": [
        {
          "internalType": "contract IcfaV1Forwarder",
          "name": "_cfaV1Forwarder",
          "type": "address"
        },
        {
          "internalType": "bool",
          "name": "_pauseBulkClaims",
          "type": "bool"
        }
      ],
      "stateMutability": "nonpayable",
      "type": "constructor"
    },
    {
      "inputs": [
        {
          "internalType": "bytes32",
          "name": "id",
          "type": "bytes32"
        }
      ],
      "name": "NotTapCreator",
      "type": "error"
    },
    {
      "inputs": [
        {
          "internalType": "bytes32",
          "name": "id",
          "type": "bytes32"
        },
        {
          "internalType": "uint96",
          "name": "ratePerNFT",
          "type": "uint96"
        }
      ],
      "name": "SameTapRate",
      "type": "error"
    },
    {
      "inputs": [
        {
          "internalType": "bytes32",
          "name": "id",
          "type": "bytes32"
        }
      ],
      "name": "TapActive",
      "type": "error"
    },
    {
      "inputs": [
        {
          "internalType": "bytes32",
          "name": "id",
          "type": "bytes32"
        }
      ],
      "name": "TapExists",
      "type": "error"
    },
    {
      "inputs": [
        {
          "internalType": "bytes32",
          "name": "id",
          "type": "bytes32"
        }
      ],
      "name": "TapInactive",
      "type": "error"
    },
    {
      "inputs": [],
      "name": "ZeroAddress",
      "type": "error"
    },
    {
      "anonymous": false,
      "inputs": [
        {
          "indexed": true,
          "internalType": "bytes32",
          "name": "id",
          "type": "bytes32"
        }
      ],
      "name": "TapActivated",
      "type": "event"
    },
    {
      "anonymous": false,
      "inputs": [
        {
          "indexed": false,
          "internalType": "string",
          "name": "name",
          "type": "string"
        },
        {
          "indexed": false,
          "internalType": "address",
          "name": "creator",
          "type": "address"
        },
        {
          "indexed": true,
          "internalType": "address",
          "name": "nft",
          "type": "address"
        },
        {
          "indexed": true,
          "internalType": "address",
          "name": "superToken",
          "type": "address"
        },
        {
          "indexed": true,
          "internalType": "bytes32",
          "name": "id",
          "type": "bytes32"
        }
      ],
      "name": "TapCreated",
      "type": "event"
    },
    {
      "anonymous": false,
      "inputs": [
        {
          "indexed": true,
          "internalType": "bytes32",
          "name": "id",
          "type": "bytes32"
        }
      ],
      "name": "TapDeactivated",
      "type": "event"
    },
    {
      "anonymous": false,
      "inputs": [
        {
          "indexed": true,
          "internalType": "bytes32",
          "name": "id",
          "type": "bytes32"
        },
        {
          "indexed": false,
          "internalType": "uint96",
          "name": "oldRatePerNFT",
          "type": "uint96"
        },
        {
          "indexed": false,
          "internalType": "uint96",
          "name": "newRatePerNFT",
          "type": "uint96"
        }
      ],
      "name": "TapRateChanged",
      "type": "event"
    },
    {
      "inputs": [
        {
          "internalType": "bytes32",
          "name": "_id",
          "type": "bytes32"
        }
      ],
      "name": "activateTap",
      "outputs": [],
      "stateMutability": "nonpayable",
      "type": "function"
    },
    {
      "inputs": [
        {
          "internalType": "bytes32",
          "name": "_id",
          "type": "bytes32"
        },
        {
          "internalType": "uint96",
          "name": "_newRatePerNFT",
          "type": "uint96"
        }
      ],
      "name": "changeRate",
      "outputs": [],
      "stateMutability": "nonpayable",
      "type": "function"
    },
    {
      "inputs": [
        {
          "internalType": "bytes32",
          "name": "_id",
          "type": "bytes32"
        }
      ],
      "name": "claimStream",
      "outputs": [],
      "stateMutability": "nonpayable",
      "type": "function"
    },
    {
      "inputs": [
        {
          "internalType": "string",
          "name": "_name",
          "type": "string"
        },
        {
          "internalType": "address",
          "name": "_nft",
          "type": "address"
        },
        {
          "internalType": "uint96",
          "name": "_ratePerNFT",
          "type": "uint96"
        },
        {
          "internalType": "uint256",
          "name": "_amount",
          "type": "uint256"
        },
        {
          "internalType": "contract ISuperToken",
          "name": "_superToken",
          "type": "address"
        }
      ],
      "name": "createTap",
      "outputs": [
        {
          "internalType": "bytes32",
          "name": "_id",
          "type": "bytes32"
        }
      ],
      "stateMutability": "nonpayable",
      "type": "function"
    },
    {
      "inputs": [
        {
          "internalType": "bytes32",
          "name": "_id",
          "type": "bytes32"
        }
      ],
      "name": "deactivateTap",
      "outputs": [],
      "stateMutability": "nonpayable",
      "type": "function"
    },
    {
      "inputs": [
        {
          "internalType": "string",
          "name": "_name",
          "type": "string"
        },
        {
          "internalType": "address",
          "name": "_nft",
          "type": "address"
        },
        {
          "internalType": "address",
          "name": "_creator",
          "type": "address"
        }
      ],
      "name": "getTapId",
      "outputs": [
        {
          "internalType": "bytes32",
          "name": "_id",
          "type": "bytes32"
        }
      ],
      "stateMutability": "pure",
      "type": "function"
    },
    {
      "inputs": [],
      "name": "pauseBulkClaims",
      "outputs": [
        {
          "internalType": "bool",
          "name": "",
          "type": "bool"
        }
      ],
      "stateMutability": "view",
      "type": "function"
    },
    {
      "inputs": [
        {
          "internalType": "bytes32",
          "name": "_id",
          "type": "bytes32"
        }
      ],
      "name": "tapBalance",
      "outputs": [
        {
          "internalType": "uint256",
          "name": "_balance",
          "type": "uint256"
        }
      ],
      "stateMutability": "view",
      "type": "function"
    }
  ],
  "bytecode": {
    "object": "0x60a060405234801561001057600080fd5b5060405161112938038061112983398101604081905261002f9161007b565b6001600160a01b0382166100565760405163d92e233d60e01b815260040160405180910390fd5b6001600160a01b03919091166080526000805460ff19169115159190911790556100c6565b6000806040838503121561008e57600080fd5b82516001600160a01b03811681146100a557600080fd5b602084015190925080151581146100bb57600080fd5b809150509250929050565b6080516110416100e86000396000818161081901526108d401526110416000f3fe608060405234801561001057600080fd5b50600436106100885760003560e01c80635c3c205e1161005b5780635c3c205e146100ee57806381d027991461010b5780639065912c1461011e578063d5e30f041461013157600080fd5b80630fb011aa1461008d57806310492623146100a25780631b9432a2146100b55780633b5b977c146100db575b600080fd5b6100a061009b366004610ae5565b610144565b005b6100a06100b0366004610ae5565b6101bb565b6100c86100c3366004610bd0565b610233565b6040519081526020015b60405180910390f35b6100a06100e9366004610c4f565b6105c4565b6000546100fb9060ff1681565b60405190151581526020016100d2565b6100c8610119366004610ae5565b6106b7565b6100a061012c366004610ae5565b610721565b6100c861013f366004610c7b565b6109d9565b60008181526001602052604081208054909160ff90911615159003610184576040516310d7b9d960e31b8152600481018390526024015b60405180910390fd5b805460ff1916815560405182907fbfa6c15014a85dab1b077cee4498d1b079c9ba7bed4c0d4389e613fa7b41e51390600090a25050565b60008181526001602081905260409091208054909160ff909116151590036101f957604051635c2a573f60e01b81526004810183905260240161017b565b805460ff1916600117815560405182907ff3e95e14ea8c26d74670bedf251c9a33eefe5b6c19f2573a0a684dac336a711590600090a25050565b60006102408686336109d9565b60008181526001602081905260409091200154909150336001600160a01b0390911603610283576040516301fd49a360e61b81526004810182905260240161017b565b6001600160a01b03851615806102a057506001600160a01b038216155b156102be5760405163d92e233d60e01b815260040160405180910390fd5b6040516323b872dd60e01b8152336004820152306024820152604481018490526001600160a01b038316906323b872dd906064016020604051808303816000875af1158015610311573d6000803e3d6000fd5b505050506040513d601f19601f820116820180604052508101906103359190610cdf565b50604080516101208101825260008082526020820181905291810182905260608082018390526080820183905260a0820183905260c0820183905260e082015261010081019190915260018160000190151590811515815250508481602001906001600160601b031690816001600160601b03168152505042816040019067ffffffffffffffff16908167ffffffffffffffff16815250503381606001906001600160a01b031690816001600160a01b0316815250508581608001906001600160a01b031690816001600160a01b031681525050868160e00181905250828161010001906001600160a01b031690816001600160a01b031681525050838160a0018181525050806001600084815260200190815260200160002060008201518160000160006101000a81548160ff02191690831515021790555060208201518160000160016101000a8154816001600160601b0302191690836001600160601b03160217905550604082015181600001600d6101000a81548167ffffffffffffffff021916908367ffffffffffffffff16021790555060608201518160010160006101000a8154816001600160a01b0302191690836001600160a01b0316021790555060808201518160020160006101000a8154816001600160a01b0302191690836001600160a01b0316021790555060a0820151816003015560c0820151816004015560e082015181600501908161054e9190610d8a565b506101009190910151600690910180546001600160a01b0319166001600160a01b03928316179055604051839185811691908916907fc0a0636877596c021deaa3f2f427f5d353f70ee6ec31b866a6de5cd9d9851b09906105b2908c903390610e90565b60405180910390a45095945050505050565b6000828152600160208190526040909120908101546001600160a01b0316331461060457604051633fee3d6360e01b81526004810184905260240161017b565b80546001600160601b036101009091048116908316810361064a57604051635afe972360e11b8152600481018590526001600160601b038416602482015260440161017b565b81546cffffffffffffffffffffffff0019166101006001600160601b03858116918202929092178455604080519284168352602083019190915285917fa5c51a214c18fd5a68f6ae3ce43be01e167e3de2d30b93e07f0ae19e0fd25862910160405180910390a250505050565b600081815260016020526040812080546106e290600160681b900467ffffffffffffffff1642610ed0565b815460048301546107019161010090046001600160601b031690610ee9565b61070b9190610ee9565b816003015461071a9190610ed0565b9392505050565b60008181526001602052604080822060068101548154600283015493516370a0823160e01b815233600482015292946001600160a01b03928316946101009092046001600160601b0316939092909116906370a0823190602401602060405180830381865afa158015610798573d6000803e3d6000fd5b505050506040513d601f19601f820116820180604052508101906107bc9190610f08565b905060006107e36107de6107d96001600160601b03861685610ee9565b610a0f565b610a7d565b6006860154604051630ec5b29360e11b81526001600160a01b0391821660048201523060248201523360448201529192506000917f000000000000000000000000000000000000000000000000000000000000000090911690631d8b652690606401602060405180830381865afa158015610862573d6000803e3d6000fd5b505050506040513d601f19601f820116820180604052508101906108869190610f21565b905060006108948284610f44565b9050600082600b0b121580156108ae5750600083600b0b12155b80156108be5750600081600b0b12155b6108ca576108ca610f7b565b6001600160a01b037f00000000000000000000000000000000000000000000000000000000000000001663e15536b68730336109068789610f44565b6040516001600160e01b031960e087901b1681526001600160a01b039485166004820152928416602484015292166044820152600b9190910b606482015260a06084820152600260a482015261060f60f31b60c482015260e4016020604051808303816000875af115801561097f573d6000803e3d6000fd5b505050506040513d601f19601f820116820180604052508101906109a39190610cdf565b506109ae8582610f91565b6001600160601b03168760040160008282546109ca9190610fc5565b90915550505050505050505050565b60008383836040516020016109f093929190610fd8565b6040516020818303038152906040528051906020012090509392505050565b60006001600160ff1b03821115610a795760405162461bcd60e51b815260206004820152602860248201527f53616665436173743a2076616c756520646f65736e27742066697420696e2061604482015267371034b73a191a9b60c11b606482015260840161017b565b5090565b80600b81900b8114610ae05760405162461bcd60e51b815260206004820152602660248201527f53616665436173743a2076616c756520646f65736e27742066697420696e203960448201526536206269747360d01b606482015260840161017b565b919050565b600060208284031215610af757600080fd5b5035919050565b634e487b7160e01b600052604160045260246000fd5b600082601f830112610b2557600080fd5b813567ffffffffffffffff80821115610b4057610b40610afe565b604051601f8301601f19908116603f01168101908282118183101715610b6857610b68610afe565b81604052838152866020858801011115610b8157600080fd5b836020870160208301376000602085830101528094505050505092915050565b6001600160a01b0381168114610bb657600080fd5b50565b80356001600160601b0381168114610ae057600080fd5b600080600080600060a08688031215610be857600080fd5b853567ffffffffffffffff811115610bff57600080fd5b610c0b88828901610b14565b9550506020860135610c1c81610ba1565b9350610c2a60408701610bb9565b9250606086013591506080860135610c4181610ba1565b809150509295509295909350565b60008060408385031215610c6257600080fd5b82359150610c7260208401610bb9565b90509250929050565b600080600060608486031215610c9057600080fd5b833567ffffffffffffffff811115610ca757600080fd5b610cb386828701610b14565b9350506020840135610cc481610ba1565b91506040840135610cd481610ba1565b809150509250925092565b600060208284031215610cf157600080fd5b8151801515811461071a57600080fd5b600181811c90821680610d1557607f821691505b602082108103610d3557634e487b7160e01b600052602260045260246000fd5b50919050565b601f821115610d8557600081815260208120601f850160051c81016020861015610d625750805b601f850160051c820191505b81811015610d8157828155600101610d6e565b5050505b505050565b815167ffffffffffffffff811115610da457610da4610afe565b610db881610db28454610d01565b84610d3b565b602080601f831160018114610ded5760008415610dd55750858301515b600019600386901b1c1916600185901b178555610d81565b600085815260208120601f198616915b82811015610e1c57888601518255948401946001909101908401610dfd565b5085821015610e3a5787850151600019600388901b60f8161c191681555b5050505050600190811b01905550565b6000815180845260005b81811015610e7057602081850181015186830182015201610e54565b506000602082860101526020601f19601f83011685010191505092915050565b604081526000610ea36040830185610e4a565b905060018060a01b03831660208301529392505050565b634e487b7160e01b600052601160045260246000fd5b81810381811115610ee357610ee3610eba565b92915050565b6000816000190483118215151615610f0357610f03610eba565b500290565b600060208284031215610f1a57600080fd5b5051919050565b600060208284031215610f3357600080fd5b815180600b0b811461071a57600080fd5b600b82810b9082900b036b7fffffffffffffffffffffff1981126b7fffffffffffffffffffffff82131715610ee357610ee3610eba565b634e487b7160e01b600052600160045260246000fd5b60006001600160601b0380841680610fb957634e487b7160e01b600052601260045260246000fd5b92169190910492915050565b80820180821115610ee357610ee3610eba565b606081526000610feb6060830186610e4a565b6001600160a01b039485166020840152929093166040909101529291505056fea264697066735822122096f2dae635641c317560a764b6d1e10267b40a1bb25b96360c6a0a5f111d27d764736f6c63430008100033",
    "linkReferences": {}
  },
  "methodIdentifiers": {
    "activateTap(bytes32)": "10492623",
    "changeRate(bytes32,uint96)": "3b5b977c",
    "claimStream(bytes32)": "9065912c",
    "createTap(string,address,uint96,uint256,address)": "1b9432a2",
    "deactivateTap(bytes32)": "0fb011aa",
    "getTapId(string,address,address)": "d5e30f04",
    "pauseBulkClaims()": "5c3c205e",
    "tapBalance(bytes32)": "81d02799"
  },
  "id": 19
}