{
  "abi": [
    {
      "inputs": [
        {
          "internalType": "contract IcfaV1Forwarder",
          "name": "_cfaV1Forwarder",
          "type": "address"
        },
        {
          "internalType": "contract ISuperfluid",
          "name": "_host",
          "type": "address"
        },
        {
          "internalType": "address",
          "name": "_implementation",
          "type": "address"
        }
      ],
      "stateMutability": "nonpayable",
      "type": "constructor"
    },
    {
      "inputs": [],
      "name": "SameImplementationAddress",
      "type": "error"
    },
    {
      "inputs": [
        {
          "internalType": "string",
          "name": "name",
          "type": "string"
        }
      ],
      "name": "TapExists",
      "type": "error"
    },
    {
      "inputs": [
        {
          "internalType": "address",
          "name": "superToken",
          "type": "address"
        },
        {
          "internalType": "uint256",
          "name": "amount",
          "type": "uint256"
        }
      ],
      "name": "TransferFailed",
      "type": "error"
    },
    {
      "inputs": [],
      "name": "ZeroAddress",
      "type": "error"
    },
    {
      "anonymous": false,
      "inputs": [
        {
          "indexed": false,
          "internalType": "address",
          "name": "oldImplementation",
          "type": "address"
        },
        {
          "indexed": false,
          "internalType": "address",
          "name": "newImplementation",
          "type": "address"
        }
      ],
      "name": "ImplementationChanged",
      "type": "event"
    },
    {
      "anonymous": false,
      "inputs": [
        {
          "indexed": true,
          "internalType": "address",
          "name": "previousOwner",
          "type": "address"
        },
        {
          "indexed": true,
          "internalType": "address",
          "name": "newOwner",
          "type": "address"
        }
      ],
      "name": "OwnershipTransferred",
      "type": "event"
    },
    {
      "anonymous": false,
      "inputs": [
        {
          "indexed": false,
          "internalType": "string",
          "name": "name",
          "type": "string"
        },
        {
          "indexed": false,
          "internalType": "address",
          "name": "creator",
          "type": "address"
        },
        {
          "indexed": true,
          "internalType": "address",
          "name": "nft",
          "type": "address"
        },
        {
          "indexed": true,
          "internalType": "address",
          "name": "superToken",
          "type": "address"
        }
      ],
      "name": "TapCreated",
      "type": "event"
    },
    {
      "inputs": [],
      "name": "CFA_V1_FORWARDER",
      "outputs": [
        {
          "internalType": "contract IcfaV1Forwarder",
          "name": "",
          "type": "address"
        }
      ],
      "stateMutability": "view",
      "type": "function"
    },
    {
      "inputs": [],
      "name": "HOST",
      "outputs": [
        {
          "internalType": "contract ISuperfluid",
          "name": "",
          "type": "address"
        }
      ],
      "stateMutability": "view",
      "type": "function"
    },
    {
      "inputs": [
        {
          "internalType": "string",
          "name": "_name",
          "type": "string"
        },
        {
          "internalType": "uint96",
          "name": "_ratePerNFT",
          "type": "uint96"
        },
        {
          "internalType": "contract IERC721",
          "name": "_nft",
          "type": "address"
        },
        {
          "internalType": "contract ISuperToken",
          "name": "_streamToken",
          "type": "address"
        }
      ],
      "name": "createTap",
      "outputs": [],
      "stateMutability": "nonpayable",
      "type": "function"
    },
    {
      "inputs": [],
      "name": "implementation",
      "outputs": [
        {
          "internalType": "address",
          "name": "",
          "type": "address"
        }
      ],
      "stateMutability": "view",
      "type": "function"
    },
    {
      "inputs": [],
      "name": "owner",
      "outputs": [
        {
          "internalType": "address",
          "name": "",
          "type": "address"
        }
      ],
      "stateMutability": "view",
      "type": "function"
    },
    {
      "inputs": [],
      "name": "renounceOwnership",
      "outputs": [],
      "stateMutability": "nonpayable",
      "type": "function"
    },
    {
      "inputs": [
        {
          "internalType": "address",
          "name": "_newImplementation",
          "type": "address"
        }
      ],
      "name": "setImplementation",
      "outputs": [],
      "stateMutability": "nonpayable",
      "type": "function"
    },
    {
      "inputs": [
        {
          "internalType": "address",
          "name": "newOwner",
          "type": "address"
        }
      ],
      "name": "transferOwnership",
      "outputs": [],
      "stateMutability": "nonpayable",
      "type": "function"
    }
  ],
  "bytecode": {
    "object": "0x60c060405234801561001057600080fd5b50604051610a7e380380610a7e83398101604081905261002f91610109565b610038336100a1565b6001600160a01b038316158061005557506001600160a01b038216155b156100735760405163d92e233d60e01b815260040160405180910390fd5b6001600160a01b0392831660805290821660a052600180546001600160a01b03191691909216179055610156565b600080546001600160a01b038381166001600160a01b0319831681178455604051919092169283917f8be0079c531659141344cd1fd0a4f28419497f9722a3daafe3b4186f6b6457e09190a35050565b6001600160a01b038116811461010657600080fd5b50565b60008060006060848603121561011e57600080fd5b8351610129816100f1565b602085015190935061013a816100f1565b604085015190925061014b816100f1565b809150509250925092565b60805160a0516108ef61018f6000396000818160920152818161027c015261032801526000818161012901526102a201526108ef6000f3fe608060405234801561001057600080fd5b50600436106100885760003560e01c8063b99fbe2b1161005b578063b99fbe2b146100fe578063d784d42614610111578063dbc341d414610124578063f2fde38b1461014b57600080fd5b806349f289dc1461008d5780635c60da1b146100d0578063715018a6146100e35780638da5cb5b146100ed575b600080fd5b6100b47f000000000000000000000000000000000000000000000000000000000000000081565b6040516001600160a01b03909116815260200160405180910390f35b6001546100b4906001600160a01b031681565b6100eb61015e565b005b6000546001600160a01b03166100b4565b6100eb61010c3660046106a7565b610172565b6100eb61011f36600461078a565b6103da565b6100b47f000000000000000000000000000000000000000000000000000000000000000081565b6100eb61015936600461078a565b610498565b610166610511565b610170600061056b565b565b6001600160a01b038216158061018f57506001600160a01b038116155b156101ad5760405163d92e233d60e01b815260040160405180910390fd5b60006001600160a01b03166002856040516101c891906107d2565b908152604051908190036020019020546001600160a01b03161461020a5783604051635594717560e11b8152600401610201919061081a565b60405180910390fd5b600154600090610222906001600160a01b03166105bb565b90508060028660405161023591906107d2565b90815260405190819003602001812080546001600160a01b039384166001600160a01b0319909116179055630493f1a960e51b81529082169063927e3520906102ce9088907f00000000000000000000000000000000000000000000000000000000000000009033908a907f0000000000000000000000000000000000000000000000000000000000000000908b908b9060040161082d565b600060405180830381600087803b1580156102e857600080fd5b505af11580156102fc573d6000803e3d6000fd5b50506040516379b9982960e11b81526001600160a01b038481166004830152641f0000000160248301527f000000000000000000000000000000000000000000000000000000000000000016925063f37330529150604401600060405180830381600087803b15801561036e57600080fd5b505af1158015610382573d6000803e3d6000fd5b50505050816001600160a01b0316836001600160a01b03167f45c022b6e7b90463614d292a3811fdbd813aa602a88ba62513f0998f2c86bf0787336040516103cb92919061088f565b60405180910390a35050505050565b6103e2610511565b6001600160a01b0381166104095760405163d92e233d60e01b815260040160405180910390fd5b6001546001600160a01b0390811690821681036104395760405163779a174960e01b815260040160405180910390fd5b600180546001600160a01b0319166001600160a01b0384811691821790925560408051928416835260208301919091527fcfbf4028add9318bbf716f08c348595afb063b0e9feed1f86d33681a4b3ed4d3910160405180910390a15050565b6104a0610511565b6001600160a01b0381166105055760405162461bcd60e51b815260206004820152602660248201527f4f776e61626c653a206e6577206f776e657220697320746865207a65726f206160448201526564647265737360d01b6064820152608401610201565b61050e8161056b565b50565b6000546001600160a01b031633146101705760405162461bcd60e51b815260206004820181905260248201527f4f776e61626c653a2063616c6c6572206973206e6f7420746865206f776e65726044820152606401610201565b600080546001600160a01b038381166001600160a01b0319831681178455604051919092169283917f8be0079c531659141344cd1fd0a4f28419497f9722a3daafe3b4186f6b6457e09190a35050565b6000763d602d80600a3d3981f3363d3d373d3d3d363d730000008260601b60e81c176000526e5af43d82803e903d91602b57fd5bf38260781b17602052603760096000f090506001600160a01b0381166106505760405162461bcd60e51b8152602060048201526016602482015275115490cc4c4d8dce8818dc99585d194819985a5b195960521b6044820152606401610201565b919050565b634e487b7160e01b600052604160045260246000fd5b80356bffffffffffffffffffffffff8116811461065057600080fd5b6001600160a01b038116811461050e57600080fd5b803561065081610687565b600080600080608085870312156106bd57600080fd5b843567ffffffffffffffff808211156106d557600080fd5b818701915087601f8301126106e957600080fd5b8135818111156106fb576106fb610655565b604051601f8201601f19908116603f0116810190838211818310171561072357610723610655565b816040528281528a602084870101111561073c57600080fd5b8260208601602083013760006020848301015280985050505050506107636020860161066b565b92506107716040860161069c565b915061077f6060860161069c565b905092959194509250565b60006020828403121561079c57600080fd5b81356107a781610687565b9392505050565b60005b838110156107c95781810151838201526020016107b1565b50506000910152565b600082516107e48184602087016107ae565b9190910192915050565b600081518084526108068160208601602086016107ae565b601f01601f19169290920160200192915050565b6020815260006107a760208301846107ee565b60e08152600061084060e083018a6107ee565b6001600160a01b0398891660208401529688166040830152506bffffffffffffffffffffffff9490941660608501529185166080840152841660a083015290921660c090920191909152919050565b6040815260006108a260408301856107ee565b905060018060a01b0383166020830152939250505056fea2646970667358221220da602ea5ce46ef6dffb477b2ea943ccd1e65058bab17ed8155d1efb87a9ba51364736f6c63430008100033",
    "linkReferences": {}
  },
  "methodIdentifiers": {
    "CFA_V1_FORWARDER()": "dbc341d4",
    "HOST()": "49f289dc",
    "createTap(string,uint96,address,address)": "b99fbe2b",
    "implementation()": "5c60da1b",
    "owner()": "8da5cb5b",
    "renounceOwnership()": "715018a6",
    "setImplementation(address)": "d784d426",
    "transferOwnership(address)": "f2fde38b"
  },
  "id": 25
}