{
  "abi": [
    {
      "inputs": [
        {
          "internalType": "contract IcfaV1Forwarder",
          "name": "_cfaV1Forwarder",
          "type": "address"
        },
        {
          "internalType": "bool",
          "name": "_pauseBulkClaims",
          "type": "bool"
        }
      ],
      "stateMutability": "nonpayable",
      "type": "constructor"
    },
    {
      "inputs": [],
      "name": "BulkClaimsPaused",
      "type": "error"
    },
    {
      "inputs": [
        {
          "internalType": "bytes32",
          "name": "id",
          "type": "bytes32"
        }
      ],
      "name": "IneligibleClaim",
      "type": "error"
    },
    {
      "inputs": [
        {
          "internalType": "bytes32",
          "name": "id",
          "type": "bytes32"
        },
        {
          "internalType": "uint256",
          "name": "tokenId",
          "type": "uint256"
        }
      ],
      "name": "NotOwnerOfNFT",
      "type": "error"
    },
    {
      "inputs": [
        {
          "internalType": "bytes32",
          "name": "id",
          "type": "bytes32"
        }
      ],
      "name": "NotTapCreator",
      "type": "error"
    },
    {
      "inputs": [
        {
          "internalType": "bytes32",
          "name": "id",
          "type": "bytes32"
        },
        {
          "internalType": "uint96",
          "name": "ratePerNFT",
          "type": "uint96"
        }
      ],
      "name": "SameTapRate",
      "type": "error"
    },
    {
      "inputs": [
        {
          "internalType": "bytes32",
          "name": "id",
          "type": "bytes32"
        },
        {
          "internalType": "uint256",
          "name": "tokenId",
          "type": "uint256"
        }
      ],
      "name": "StreamAlreadyClaimed",
      "type": "error"
    },
    {
      "inputs": [
        {
          "internalType": "bytes32",
          "name": "id",
          "type": "bytes32"
        },
        {
          "internalType": "uint256",
          "name": "tokenId",
          "type": "uint256"
        }
      ],
      "name": "StreamNotFound",
      "type": "error"
    },
    {
      "inputs": [
        {
          "internalType": "bytes32",
          "name": "id",
          "type": "bytes32"
        }
      ],
      "name": "TapActive",
      "type": "error"
    },
    {
      "inputs": [
        {
          "internalType": "bytes32",
          "name": "id",
          "type": "bytes32"
        },
        {
          "internalType": "uint256",
          "name": "currTapBalance",
          "type": "uint256"
        },
        {
          "internalType": "uint256",
          "name": "reqTapBalance",
          "type": "uint256"
        }
      ],
      "name": "TapBalanceInsufficient",
      "type": "error"
    },
    {
      "inputs": [
        {
          "internalType": "bytes32",
          "name": "id",
          "type": "bytes32"
        }
      ],
      "name": "TapExists",
      "type": "error"
    },
    {
      "inputs": [
        {
          "internalType": "bytes32",
          "name": "id",
          "type": "bytes32"
        }
      ],
      "name": "TapInactive",
      "type": "error"
    },
    {
      "inputs": [
        {
          "internalType": "bytes32",
          "name": "id",
          "type": "bytes32"
        },
        {
          "internalType": "uint256",
          "name": "remainingAmount",
          "type": "uint256"
        },
        {
          "internalType": "uint256",
          "name": "minAmountRequried",
          "type": "uint256"
        }
      ],
      "name": "TapMinAmountLimit",
      "type": "error"
    },
    {
      "inputs": [
        {
          "internalType": "bytes32",
          "name": "id",
          "type": "bytes32"
        }
      ],
      "name": "TapNotFound",
      "type": "error"
    },
    {
      "inputs": [
        {
          "internalType": "bytes32",
          "name": "id",
          "type": "bytes32"
        },
        {
          "internalType": "uint256",
          "name": "tokenId",
          "type": "uint256"
        }
      ],
      "name": "WrongStreamCloseAttempt",
      "type": "error"
    },
    {
      "inputs": [],
      "name": "ZeroAddress",
      "type": "error"
    },
    {
      "anonymous": false,
      "inputs": [
        {
          "indexed": true,
          "internalType": "bytes32",
          "name": "id",
          "type": "bytes32"
        },
        {
          "indexed": true,
          "internalType": "address",
          "name": "claimant",
          "type": "address"
        },
        {
          "indexed": false,
          "internalType": "uint256",
          "name": "tokenId",
          "type": "uint256"
        }
      ],
      "name": "StreamClaimedById",
      "type": "event"
    },
    {
      "anonymous": false,
      "inputs": [
        {
          "indexed": true,
          "internalType": "bytes32",
          "name": "id",
          "type": "bytes32"
        },
        {
          "indexed": true,
          "internalType": "address",
          "name": "claimant",
          "type": "address"
        },
        {
          "indexed": false,
          "internalType": "int96",
          "name": "oldStreamRate",
          "type": "int96"
        },
        {
          "indexed": false,
          "internalType": "int96",
          "name": "newStreamRate",
          "type": "int96"
        }
      ],
      "name": "StreamsClaimed",
      "type": "event"
    },
    {
      "anonymous": false,
      "inputs": [
        {
          "indexed": true,
          "internalType": "bytes32",
          "name": "id",
          "type": "bytes32"
        }
      ],
      "name": "TapActivated",
      "type": "event"
    },
    {
      "anonymous": false,
      "inputs": [
        {
          "indexed": false,
          "internalType": "string",
          "name": "name",
          "type": "string"
        },
        {
          "indexed": false,
          "internalType": "address",
          "name": "creator",
          "type": "address"
        },
        {
          "indexed": true,
          "internalType": "address",
          "name": "nft",
          "type": "address"
        },
        {
          "indexed": true,
          "internalType": "address",
          "name": "superToken",
          "type": "address"
        },
        {
          "indexed": true,
          "internalType": "bytes32",
          "name": "id",
          "type": "bytes32"
        }
      ],
      "name": "TapCreated",
      "type": "event"
    },
    {
      "anonymous": false,
      "inputs": [
        {
          "indexed": true,
          "internalType": "bytes32",
          "name": "id",
          "type": "bytes32"
        }
      ],
      "name": "TapDeactivated",
      "type": "event"
    },
    {
      "anonymous": false,
      "inputs": [
        {
          "indexed": true,
          "internalType": "bytes32",
          "name": "id",
          "type": "bytes32"
        },
        {
          "indexed": true,
          "internalType": "address",
          "name": "streamToken",
          "type": "address"
        },
        {
          "indexed": false,
          "internalType": "uint256",
          "name": "drainAmount",
          "type": "uint256"
        },
        {
          "indexed": false,
          "internalType": "uint256",
          "name": "remainingAmount",
          "type": "uint256"
        }
      ],
      "name": "TapDrained",
      "type": "event"
    },
    {
      "anonymous": false,
      "inputs": [
        {
          "indexed": true,
          "internalType": "bytes32",
          "name": "id",
          "type": "bytes32"
        },
        {
          "indexed": false,
          "internalType": "uint96",
          "name": "oldRatePerNFT",
          "type": "uint96"
        },
        {
          "indexed": false,
          "internalType": "uint96",
          "name": "newRatePerNFT",
          "type": "uint96"
        }
      ],
      "name": "TapRateChanged",
      "type": "event"
    },
    {
      "anonymous": false,
      "inputs": [
        {
          "indexed": true,
          "internalType": "bytes32",
          "name": "id",
          "type": "bytes32"
        },
        {
          "indexed": true,
          "internalType": "address",
          "name": "superToken",
          "type": "address"
        },
        {
          "indexed": false,
          "internalType": "uint256",
          "name": "amount",
          "type": "uint256"
        }
      ],
      "name": "TapToppedUp",
      "type": "event"
    },
    {
      "inputs": [
        {
          "internalType": "bytes32",
          "name": "_id",
          "type": "bytes32"
        }
      ],
      "name": "activateTap",
      "outputs": [],
      "stateMutability": "nonpayable",
      "type": "function"
    },
    {
      "inputs": [
        {
          "internalType": "bytes32",
          "name": "_id",
          "type": "bytes32"
        },
        {
          "internalType": "uint96",
          "name": "_newRatePerNFT",
          "type": "uint96"
        }
      ],
      "name": "changeRate",
      "outputs": [],
      "stateMutability": "nonpayable",
      "type": "function"
    },
    {
      "inputs": [
        {
          "internalType": "bytes32",
          "name": "_id",
          "type": "bytes32"
        }
      ],
      "name": "claimStream",
      "outputs": [],
      "stateMutability": "nonpayable",
      "type": "function"
    },
    {
      "inputs": [
        {
          "internalType": "bytes32",
          "name": "_id",
          "type": "bytes32"
        },
        {
          "internalType": "uint256",
          "name": "_tokenId",
          "type": "uint256"
        }
      ],
      "name": "claimStream",
      "outputs": [],
      "stateMutability": "nonpayable",
      "type": "function"
    },
    {
      "inputs": [
        {
          "internalType": "bytes32",
          "name": "_id",
          "type": "bytes32"
        },
        {
          "internalType": "uint256",
          "name": "_tokenId",
          "type": "uint256"
        }
      ],
      "name": "closeStream",
      "outputs": [],
      "stateMutability": "nonpayable",
      "type": "function"
    },
    {
      "inputs": [
        {
          "internalType": "string",
          "name": "_name",
          "type": "string"
        },
        {
          "internalType": "address",
          "name": "_nft",
          "type": "address"
        },
        {
          "internalType": "uint96",
          "name": "_ratePerNFT",
          "type": "uint96"
        },
        {
          "internalType": "uint256",
          "name": "_amount",
          "type": "uint256"
        },
        {
          "internalType": "contract ISuperToken",
          "name": "_superToken",
          "type": "address"
        }
      ],
      "name": "createTap",
      "outputs": [
        {
          "internalType": "bytes32",
          "name": "_id",
          "type": "bytes32"
        }
      ],
      "stateMutability": "nonpayable",
      "type": "function"
    },
    {
      "inputs": [
        {
          "internalType": "bytes32",
          "name": "_id",
          "type": "bytes32"
        }
      ],
      "name": "deactivateTap",
      "outputs": [],
      "stateMutability": "nonpayable",
      "type": "function"
    },
    {
      "inputs": [
        {
          "internalType": "bytes32",
          "name": "_id",
          "type": "bytes32"
        },
        {
          "internalType": "uint256",
          "name": "_amount",
          "type": "uint256"
        }
      ],
      "name": "drainTap",
      "outputs": [],
      "stateMutability": "nonpayable",
      "type": "function"
    },
    {
      "inputs": [
        {
          "internalType": "string",
          "name": "_name",
          "type": "string"
        },
        {
          "internalType": "address",
          "name": "_nft",
          "type": "address"
        },
        {
          "internalType": "address",
          "name": "_creator",
          "type": "address"
        }
      ],
      "name": "getTapId",
      "outputs": [
        {
          "internalType": "bytes32",
          "name": "_id",
          "type": "bytes32"
        }
      ],
      "stateMutability": "pure",
      "type": "function"
    },
    {
      "inputs": [],
      "name": "pauseBulkClaims",
      "outputs": [
        {
          "internalType": "bool",
          "name": "",
          "type": "bool"
        }
      ],
      "stateMutability": "view",
      "type": "function"
    },
    {
      "inputs": [
        {
          "internalType": "bytes32",
          "name": "_id",
          "type": "bytes32"
        }
      ],
      "name": "tapBalance",
      "outputs": [
        {
          "internalType": "uint256",
          "name": "_balance",
          "type": "uint256"
        }
      ],
      "stateMutability": "view",
      "type": "function"
    },
    {
      "inputs": [
        {
          "internalType": "bytes32",
          "name": "_id",
          "type": "bytes32"
        },
        {
          "internalType": "uint256",
          "name": "_amount",
          "type": "uint256"
        }
      ],
      "name": "topUpTap",
      "outputs": [],
      "stateMutability": "nonpayable",
      "type": "function"
    }
  ],
  "bytecode": {
    "object": "0x60a06040523480156200001157600080fd5b50604051620020cb380380620020cb833981016040819052620000349162000082565b6001600160a01b0382166200005c5760405163d92e233d60e01b815260040160405180910390fd5b6001600160a01b03919091166080526000805460ff1916911515919091179055620000d0565b600080604083850312156200009657600080fd5b82516001600160a01b0381168114620000ae57600080fd5b60208401519092508015158114620000c557600080fd5b809150509250929050565b608051611fa06200012b6000396000818161097f01528181610a7401528181610b3b01528181610dde01528181610e7801528181610f7a015281816111b3015281816112a00152818161132601526114240152611fa06000f3fe608060405234801561001057600080fd5b50600436106100b45760003560e01c80638f1c29e0116100715780638f1c29e01461014a5780639065912c1461015d578063ab0c0c0c14610170578063be3fe73414610183578063d5e30f0414610196578063e61b8fb6146101a957600080fd5b80630fb011aa146100b957806310492623146100ce5780631b9432a2146100e15780633b5b977c146101075780635c3c205e1461011a57806381d0279914610137575b600080fd5b6100cc6100c73660046118a9565b6101bc565b005b6100cc6100dc3660046118a9565b610233565b6100f46100ef366004611994565b6102ab565b6040519081526020015b60405180910390f35b6100cc610115366004611a13565b610589565b6000546101279060ff1681565b60405190151581526020016100fe565b6100f46101453660046118a9565b61067c565b6100cc610158366004611a3f565b6106e6565b6100cc61016b3660046118a9565b610841565b6100cc61017e366004611a3f565b610c49565b6100cc610191366004611a3f565b611045565b6100f46101a4366004611a61565b6114e8565b6100cc6101b7366004611a3f565b61151e565b60008181526001602052604081208054909160ff909116151590036101fc576040516310d7b9d960e31b8152600481018390526024015b60405180910390fd5b805460ff1916815560405182907fbfa6c15014a85dab1b077cee4498d1b079c9ba7bed4c0d4389e613fa7b41e51390600090a25050565b60008181526001602081905260409091208054909160ff9091161515900361027157604051635c2a573f60e01b8152600481018390526024016101f3565b805460ff1916600117815560405182907ff3e95e14ea8c26d74670bedf251c9a33eefe5b6c19f2573a0a684dac336a711590600090a25050565b60006102b88686336114e8565b60008181526001602081905260409091200154909150336001600160a01b03909116036102fb576040516301fd49a360e61b8152600481018290526024016101f3565b6001600160a01b038516158061031857506001600160a01b038216155b156103365760405163d92e233d60e01b815260040160405180910390fd5b6040516323b872dd60e01b8152336004820152306024820152604481018490526001600160a01b038316906323b872dd906064016020604051808303816000875af1158015610389573d6000803e3d6000fd5b505050506040513d601f19601f820116820180604052508101906103ad9190611ac5565b506040805161012081018252600091810182905260608082018390526080820183905260a0820183905260c0820183905260e0820152610100810191909152600181526001600160601b03851660208201526104084261172e565b67ffffffffffffffff908116604083810191825233606085019081526001600160a01b038a81166080870190815260e087018d8152898316610100808a019190915260a089018c815260008b815260016020818152989091208b518154998d01519a516cffffffffffffffffffffffffff19909a169015156cffffffffffffffffffffffff001916176001600160601b03909a169093029890981767ffffffffffffffff60681b1916600160681b9790991696909602979097178755925194860180546001600160a01b03199081169684169690961790555160028601805490951691161790925551600383015560c083015160048301555182919060058201906105139082611b70565b506101009190910151600690910180546001600160a01b0319166001600160a01b03928316179055604051839185811691908916907fc0a0636877596c021deaa3f2f427f5d353f70ee6ec31b866a6de5cd9d9851b0990610577908c903390611c76565b60405180910390a45095945050505050565b6000828152600160208190526040909120908101546001600160a01b031633146105c957604051633fee3d6360e01b8152600481018490526024016101f3565b80546001600160601b036101009091048116908316810361060f57604051635afe972360e11b8152600481018590526001600160601b03841660248201526044016101f3565b81546cffffffffffffffffffffffff0019166101006001600160601b03858116918202929092178455604080519284168352602083019190915285917fa5c51a214c18fd5a68f6ae3ce43be01e167e3de2d30b93e07f0ae19e0fd25862910160405180910390a250505050565b600081815260016020526040812080546106a790600160681b900467ffffffffffffffff1642611cb6565b815460048301546106c69161010090046001600160601b031690611ccf565b6106d09190611ccf565b81600301546106df9190611cb6565b9392505050565b6000828152600160208190526040909120908101546001600160a01b0316331461072657604051633fee3d6360e01b8152600481018490526024016101f3565b60068101546001600160a01b0316600061073f8561067c565b6040516323b872dd60e01b8152336004820152306024820152604481018690529091506001600160a01b038316906323b872dd906064016020604051808303816000875af1158015610795573d6000803e3d6000fd5b505050506040513d601f19601f820116820180604052508101906107b99190611ac5565b506107c34261172e565b835467ffffffffffffffff91909116600160681b0267ffffffffffffffff60681b199091161783556107f58482611cee565b60038401556040518481526001600160a01b0383169086907f6cba080f09553df1c5e9a534d813d0cf28e7cfa3bcdee7dbc2fd3ea2d25b09a29060200160405180910390a35050505050565b60005460ff16156108655760405163dc1772fd60e01b815260040160405180910390fd5b6000818152600160205260409020805460ff16610898576040516310d7b9d960e31b8152600481018390526024016101f3565b6006810154815460028301546040516370a0823160e01b81523360048201526001600160a01b03938416936101009093046001600160601b03169260009216906370a0823190602401602060405180830381865afa1580156108fe573d6000803e3d6000fd5b505050506040513d601f19601f820116820180604052508101906109229190611d01565b9050600061094961094461093f6001600160601b03861685611ccf565b61179b565b611805565b6006860154604051630ec5b29360e11b81526001600160a01b0391821660048201523060248201523360448201529192506000917f000000000000000000000000000000000000000000000000000000000000000090911690631d8b652690606401602060405180830381865afa1580156109c8573d6000803e3d6000fd5b505050506040513d601f19601f820116820180604052508101906109ec9190611d1a565b905060006109fa8284611d3d565b9050600081600b0b1215610a24576040516328ed831b60e11b8152600481018990526024016101f3565b600082600b0b12158015610a3c5750600083600b0b12155b610a4857610a48611d74565b6040516309f0b49560e01b81526001600160a01b038781166004830152600b83900b60248301526000917f0000000000000000000000000000000000000000000000000000000000000000909116906309f0b49590604401602060405180830381865afa158015610abd573d6000803e3d6000fd5b505050506040513d601f19601f82011682018060405250810190610ae19190611d01565b90506000610aee8a61067c565b90506000610afd836002611ccf565b905080821015610b3157604051636af341f160e11b8152600481018c905260248101839052604481018290526064016101f3565b6001600160a01b037f00000000000000000000000000000000000000000000000000000000000000001663e15536b68a3033610b6d8a8c611d3d565b6040518563ffffffff1660e01b8152600401610b8c9493929190611d8a565b6020604051808303816000875af1158015610bab573d6000803e3d6000fd5b505050506040513d601f19601f82011682018060405250810190610bcf9190611ac5565b50610bda8885611dd1565b6001600160601b03168a6004016000828254610bf69190611cee565b909155505060408051600b87810b825288900b602082015233918d917ef6e3cf7e4272d27bfb0b0a761161f8633daa55e7495d2383eed0782074946d910160405180910390a35050505050505050505050565b6000828152600160208190526040909120908101546001600160a01b031680610c8857604051632dd96d5560e01b8152600481018590526024016101f3565b6002828101546001600160a01b0390811660009081526020928352604080822087835290935291909120541680610cdc576040516330cc993160e01b815260048101869052602481018590526044016101f3565b6006830154835460028501546040516331a9108f60e11b8152600481018890526001600160a01b03938416936101009093046001600160601b031692909116906000908290636352211e90602401602060405180830381865afa158015610d47573d6000803e3d6000fd5b505050506040513d601f19601f82011682018060405250810190610d6b9190611e05565b90506001600160a01b038116331480610d8c57506001600160a01b03861633145b15611017576001600160a01b0382811660009081526002602090815260408083208c8452909152808220549051630ec5b29360e11b8152878416600482015230602482015290831660448201819052927f00000000000000000000000000000000000000000000000000000000000000001690631d8b652690606401602060405180830381865afa158015610e25573d6000803e3d6000fd5b505050506040513d601f19601f82011682018060405250810190610e499190611d1a565b6040516309f0b49560e01b81526001600160a01b038881166004830152600b88900b60248301529192506000917f000000000000000000000000000000000000000000000000000000000000000016906309f0b49590604401602060405180830381865afa158015610ebf573d6000803e3d6000fd5b505050506040513d601f19601f82011682018060405250810190610ee39190611d01565b905080610eef8d61067c565b610ef99190611cee565b60038b015560048a018054906000610f1083611e22565b9190505550610f1e4261172e565b8a5467ffffffffffffffff91909116600160681b0267ffffffffffffffff60681b19909116178a556001600160a01b0380861660009081526002602090815260408083208f8452909152902080546001600160a01b03191690557f000000000000000000000000000000000000000000000000000000000000000016630c033991883086610fac8b88611d3d565b6040518563ffffffff1660e01b8152600401610fcb9493929190611d8a565b6020604051808303816000875af1158015610fea573d6000803e3d6000fd5b505050506040513d601f19601f8201168201806040525081019061100e9190611ac5565b5050505061103a565b604051635f5dcf9b60e11b8152600481018a9052602481018990526044016101f3565b505050505050505050565b6000828152600160205260409020805460ff16611078576040516310d7b9d960e31b8152600481018490526024016101f3565b6002818101546001600160a01b039081166000818152602093845260408082208783529094528390205492516331a9108f60e11b81526004810186905290929091169033908390636352211e90602401602060405180830381865afa1580156110e5573d6000803e3d6000fd5b505050506040513d601f19601f820116820180604052508101906111099190611e05565b6001600160a01b03161461113a5760405163bcb9a3bd60e01b815260048101869052602481018590526044016101f3565b336001600160a01b0382160361116d5760405163144aa31160e01b815260048101869052602481018590526044016101f3565b600683015483546040516309f0b49560e01b81526001600160a01b03928316600482018190526101009092046001600160601b0316600b81900b602483015291926000917f0000000000000000000000000000000000000000000000000000000000000000909116906309f0b49590604401602060405180830381865afa1580156111fc573d6000803e3d6000fd5b505050506040513d601f19601f820116820180604052508101906112209190611d01565b9050600061122d8961067c565b9050600061123c836002611ccf565b90508082101561127057604051636af341f160e11b8152600481018b905260248101839052604481018290526064016101f3565b604051630ec5b29360e11b81526001600160a01b03868116600483015230602483015287811660448301526000917f000000000000000000000000000000000000000000000000000000000000000090911690631d8b652690606401602060405180830381865afa1580156112e9573d6000803e3d6000fd5b505050506040513d601f19601f8201168201806040525081019061130d9190611d1a565b905060008082600b0b13156113c0576001600160a01b037f000000000000000000000000000000000000000000000000000000000000000016630c03399188308b6113588b88611d3d565b6040518563ffffffff1660e01b81526004016113779493929190611d8a565b6020604051808303816000875af1158015611396573d6000803e3d6000fd5b505050506040513d601f19601f820116820180604052508101906113ba9190611ac5565b50600190505b806113dd5760048a0180549060006113d783611e39565b91905055505b6001600160a01b03808a1660009081526002602090815260408083208f84529091529081902080546001600160a01b0319163390811790915590516370aa9b5b60e11b81527f00000000000000000000000000000000000000000000000000000000000000009092169163e15536b69161145f918b9130918c90600401611d8a565b6020604051808303816000875af115801561147e573d6000803e3d6000fd5b505050506040513d601f19601f820116820180604052508101906114a29190611ac5565b506040518b815233908d907f0d0a27f4451b59340086d9e42f14ba23b67c75c81bf221a3cdcc785f655c27e19060200160405180910390a3505050505050505050505050565b60008383836040516020016114ff93929190611e52565b6040516020818303038152906040528051906020012090509392505050565b6000828152600160208190526040909120908101546001600160a01b0316331461155e57604051633fee3d6360e01b8152600481018490526024016101f3565b80546004820154600091611589916115849161010090046001600160601b031690611ccf565b61182e565b905060006115968561067c565b9050838110156115ca57604051636af341f160e11b81526004810186905260248101829052604481018590526064016101f3565b60006115e46115dc8462015180611e85565b600b0b611857565b905060006115f28684611cb6565b9050808210156116265760405163244c7ecd60e01b81526004810188905260248101829052604481018390526064016101f3565b6006850154600386018290556001600160a01b03166116444261172e565b865467ffffffffffffffff91909116600160681b0267ffffffffffffffff60681b1990911617865560405163a9059cbb60e01b8152336004820152602481018890526001600160a01b0382169063a9059cbb906044016020604051808303816000875af11580156116b9573d6000803e3d6000fd5b505050506040513d601f19601f820116820180604052508101906116dd9190611ac5565b5060408051888152602081018490526001600160a01b038316918a917f79e4fbf652e2520907ba3e370d5a94ad9e56ff87a54eb8a6bd31bf736b4edeae910160405180910390a35050505050505050565b600067ffffffffffffffff8211156117975760405162461bcd60e51b815260206004820152602660248201527f53616665436173743a2076616c756520646f65736e27742066697420696e203660448201526534206269747360d01b60648201526084016101f3565b5090565b60006001600160ff1b038211156117975760405162461bcd60e51b815260206004820152602860248201527f53616665436173743a2076616c756520646f65736e27742066697420696e2061604482015267371034b73a191a9b60c11b60648201526084016101f3565b80600b81900b81146118295760405162461bcd60e51b81526004016101f390611f24565b919050565b60006001600160601b038211156117975760405162461bcd60e51b81526004016101f390611f24565b6000808212156117975760405162461bcd60e51b815260206004820181905260248201527f53616665436173743a2076616c7565206d75737420626520706f73697469766560448201526064016101f3565b6000602082840312156118bb57600080fd5b5035919050565b634e487b7160e01b600052604160045260246000fd5b600082601f8301126118e957600080fd5b813567ffffffffffffffff80821115611904576119046118c2565b604051601f8301601f19908116603f0116810190828211818310171561192c5761192c6118c2565b8160405283815286602085880101111561194557600080fd5b836020870160208301376000602085830101528094505050505092915050565b6001600160a01b038116811461197a57600080fd5b50565b80356001600160601b038116811461182957600080fd5b600080600080600060a086880312156119ac57600080fd5b853567ffffffffffffffff8111156119c357600080fd5b6119cf888289016118d8565b95505060208601356119e081611965565b93506119ee6040870161197d565b9250606086013591506080860135611a0581611965565b809150509295509295909350565b60008060408385031215611a2657600080fd5b82359150611a366020840161197d565b90509250929050565b60008060408385031215611a5257600080fd5b50508035926020909101359150565b600080600060608486031215611a7657600080fd5b833567ffffffffffffffff811115611a8d57600080fd5b611a99868287016118d8565b9350506020840135611aaa81611965565b91506040840135611aba81611965565b809150509250925092565b600060208284031215611ad757600080fd5b815180151581146106df57600080fd5b600181811c90821680611afb57607f821691505b602082108103611b1b57634e487b7160e01b600052602260045260246000fd5b50919050565b601f821115611b6b57600081815260208120601f850160051c81016020861015611b485750805b601f850160051c820191505b81811015611b6757828155600101611b54565b5050505b505050565b815167ffffffffffffffff811115611b8a57611b8a6118c2565b611b9e81611b988454611ae7565b84611b21565b602080601f831160018114611bd35760008415611bbb5750858301515b600019600386901b1c1916600185901b178555611b67565b600085815260208120601f198616915b82811015611c0257888601518255948401946001909101908401611be3565b5085821015611c205787850151600019600388901b60f8161c191681555b5050505050600190811b01905550565b6000815180845260005b81811015611c5657602081850181015186830182015201611c3a565b506000602082860101526020601f19601f83011685010191505092915050565b604081526000611c896040830185611c30565b905060018060a01b03831660208301529392505050565b634e487b7160e01b600052601160045260246000fd5b81810381811115611cc957611cc9611ca0565b92915050565b6000816000190483118215151615611ce957611ce9611ca0565b500290565b80820180821115611cc957611cc9611ca0565b600060208284031215611d1357600080fd5b5051919050565b600060208284031215611d2c57600080fd5b815180600b0b81146106df57600080fd5b600b82810b9082900b036b7fffffffffffffffffffffff1981126b7fffffffffffffffffffffff82131715611cc957611cc9611ca0565b634e487b7160e01b600052600160045260246000fd5b6001600160a01b039485168152928416602084015292166040820152600b9190910b606082015260a06080820181905260029082015261060f60f31b60c082015260e00190565b60006001600160601b0380841680611df957634e487b7160e01b600052601260045260246000fd5b92169190910492915050565b600060208284031215611e1757600080fd5b81516106df81611965565b600081611e3157611e31611ca0565b506000190190565b600060018201611e4b57611e4b611ca0565b5060010190565b606081526000611e656060830186611c30565b6001600160a01b0394851660208401529290931660409091015292915050565b600081600b0b83600b0b6b7fffffffffffffffffffffff600082136000841383830485118282161615611eba57611eba611ca0565b6b7fffffffffffffffffffffff196000851282811687830587121615611ee257611ee2611ca0565b60008712925085820587128484161615611efe57611efe611ca0565b85850587128184161615611f1457611f14611ca0565b5050509290910295945050505050565b60208082526026908201527f53616665436173743a2076616c756520646f65736e27742066697420696e203960408201526536206269747360d01b60608201526080019056fea26469706673582212207b64e3e8369ca7f03fa73a7e40b9a2c51d37fdc8c28eaee8bb4bdb69d1652eb964736f6c63430008100033",
    "linkReferences": {}
  },
  "methodIdentifiers": {
    "activateTap(bytes32)": "10492623",
    "changeRate(bytes32,uint96)": "3b5b977c",
    "claimStream(bytes32)": "9065912c",
    "claimStream(bytes32,uint256)": "be3fe734",
    "closeStream(bytes32,uint256)": "ab0c0c0c",
    "createTap(string,address,uint96,uint256,address)": "1b9432a2",
    "deactivateTap(bytes32)": "0fb011aa",
    "drainTap(bytes32,uint256)": "e61b8fb6",
    "getTapId(string,address,address)": "d5e30f04",
    "pauseBulkClaims()": "5c3c205e",
    "tapBalance(bytes32)": "81d02799",
    "topUpTap(bytes32,uint256)": "8f1c29e0"
  },
  "id": 20
}