{
  "abi": [
    {
      "inputs": [
        {
          "internalType": "contract ISuperfluid",
          "name": "host",
          "type": "address"
        }
      ],
      "stateMutability": "nonpayable",
      "type": "constructor"
    },
    {
      "inputs": [
        {
          "internalType": "uint256",
          "name": "_code",
          "type": "uint256"
        }
      ],
      "name": "ALREADY_EXISTS",
      "type": "error"
    },
    {
      "inputs": [
        {
          "internalType": "uint256",
          "name": "_code",
          "type": "uint256"
        }
      ],
      "name": "DOES_NOT_EXIST",
      "type": "error"
    },
    {
      "inputs": [],
      "name": "IDA_INDEX_SHOULD_GROW",
      "type": "error"
    },
    {
      "inputs": [],
      "name": "IDA_OPERATION_NOT_ALLOWED",
      "type": "error"
    },
    {
      "inputs": [
        {
          "internalType": "uint256",
          "name": "_code",
          "type": "uint256"
        }
      ],
      "name": "INSUFFICIENT_BALANCE",
      "type": "error"
    },
    {
      "inputs": [
        {
          "internalType": "uint256",
          "name": "_code",
          "type": "uint256"
        }
      ],
      "name": "ONLY_HOST",
      "type": "error"
    },
    {
      "inputs": [
        {
          "internalType": "uint256",
          "name": "_code",
          "type": "uint256"
        }
      ],
      "name": "ZERO_ADDRESS",
      "type": "error"
    },
    {
      "anonymous": false,
      "inputs": [
        {
          "indexed": false,
          "internalType": "bytes32",
          "name": "uuid",
          "type": "bytes32"
        },
        {
          "indexed": false,
          "internalType": "address",
          "name": "codeAddress",
          "type": "address"
        }
      ],
      "name": "CodeUpdated",
      "type": "event"
    },
    {
      "anonymous": false,
      "inputs": [
        {
          "indexed": true,
          "internalType": "contract ISuperfluidToken",
          "name": "token",
          "type": "address"
        },
        {
          "indexed": true,
          "internalType": "address",
          "name": "publisher",
          "type": "address"
        },
        {
          "indexed": true,
          "internalType": "uint32",
          "name": "indexId",
          "type": "uint32"
        },
        {
          "indexed": false,
          "internalType": "bytes",
          "name": "userData",
          "type": "bytes"
        }
      ],
      "name": "IndexCreated",
      "type": "event"
    },
    {
      "anonymous": false,
      "inputs": [
        {
          "indexed": true,
          "internalType": "contract ISuperfluidToken",
          "name": "token",
          "type": "address"
        },
        {
          "indexed": true,
          "internalType": "address",
          "name": "publisher",
          "type": "address"
        },
        {
          "indexed": true,
          "internalType": "uint32",
          "name": "indexId",
          "type": "uint32"
        },
        {
          "indexed": false,
          "internalType": "address",
          "name": "subscriber",
          "type": "address"
        },
        {
          "indexed": false,
          "internalType": "uint256",
          "name": "amount",
          "type": "uint256"
        }
      ],
      "name": "IndexDistributionClaimed",
      "type": "event"
    },
    {
      "anonymous": false,
      "inputs": [
        {
          "indexed": true,
          "internalType": "contract ISuperfluidToken",
          "name": "token",
          "type": "address"
        },
        {
          "indexed": true,
          "internalType": "address",
          "name": "publisher",
          "type": "address"
        },
        {
          "indexed": true,
          "internalType": "uint32",
          "name": "indexId",
          "type": "uint32"
        },
        {
          "indexed": false,
          "internalType": "address",
          "name": "subscriber",
          "type": "address"
        },
        {
          "indexed": false,
          "internalType": "bytes",
          "name": "userData",
          "type": "bytes"
        }
      ],
      "name": "IndexSubscribed",
      "type": "event"
    },
    {
      "anonymous": false,
      "inputs": [
        {
          "indexed": true,
          "internalType": "contract ISuperfluidToken",
          "name": "token",
          "type": "address"
        },
        {
          "indexed": true,
          "internalType": "address",
          "name": "publisher",
          "type": "address"
        },
        {
          "indexed": true,
          "internalType": "uint32",
          "name": "indexId",
          "type": "uint32"
        },
        {
          "indexed": false,
          "internalType": "address",
          "name": "subscriber",
          "type": "address"
        },
        {
          "indexed": false,
          "internalType": "uint128",
          "name": "units",
          "type": "uint128"
        },
        {
          "indexed": false,
          "internalType": "bytes",
          "name": "userData",
          "type": "bytes"
        }
      ],
      "name": "IndexUnitsUpdated",
      "type": "event"
    },
    {
      "anonymous": false,
      "inputs": [
        {
          "indexed": true,
          "internalType": "contract ISuperfluidToken",
          "name": "token",
          "type": "address"
        },
        {
          "indexed": true,
          "internalType": "address",
          "name": "publisher",
          "type": "address"
        },
        {
          "indexed": true,
          "internalType": "uint32",
          "name": "indexId",
          "type": "uint32"
        },
        {
          "indexed": false,
          "internalType": "address",
          "name": "subscriber",
          "type": "address"
        },
        {
          "indexed": false,
          "internalType": "bytes",
          "name": "userData",
          "type": "bytes"
        }
      ],
      "name": "IndexUnsubscribed",
      "type": "event"
    },
    {
      "anonymous": false,
      "inputs": [
        {
          "indexed": true,
          "internalType": "contract ISuperfluidToken",
          "name": "token",
          "type": "address"
        },
        {
          "indexed": true,
          "internalType": "address",
          "name": "publisher",
          "type": "address"
        },
        {
          "indexed": true,
          "internalType": "uint32",
          "name": "indexId",
          "type": "uint32"
        },
        {
          "indexed": false,
          "internalType": "uint128",
          "name": "oldIndexValue",
          "type": "uint128"
        },
        {
          "indexed": false,
          "internalType": "uint128",
          "name": "newIndexValue",
          "type": "uint128"
        },
        {
          "indexed": false,
          "internalType": "uint128",
          "name": "totalUnitsPending",
          "type": "uint128"
        },
        {
          "indexed": false,
          "internalType": "uint128",
          "name": "totalUnitsApproved",
          "type": "uint128"
        },
        {
          "indexed": false,
          "internalType": "bytes",
          "name": "userData",
          "type": "bytes"
        }
      ],
      "name": "IndexUpdated",
      "type": "event"
    },
    {
      "anonymous": false,
      "inputs": [
        {
          "indexed": false,
          "internalType": "uint8",
          "name": "version",
          "type": "uint8"
        }
      ],
      "name": "Initialized",
      "type": "event"
    },
    {
      "anonymous": false,
      "inputs": [
        {
          "indexed": true,
          "internalType": "contract ISuperfluidToken",
          "name": "token",
          "type": "address"
        },
        {
          "indexed": true,
          "internalType": "address",
          "name": "subscriber",
          "type": "address"
        },
        {
          "indexed": false,
          "internalType": "address",
          "name": "publisher",
          "type": "address"
        },
        {
          "indexed": false,
          "internalType": "uint32",
          "name": "indexId",
          "type": "uint32"
        },
        {
          "indexed": false,
          "internalType": "bytes",
          "name": "userData",
          "type": "bytes"
        }
      ],
      "name": "SubscriptionApproved",
      "type": "event"
    },
    {
      "anonymous": false,
      "inputs": [
        {
          "indexed": true,
          "internalType": "contract ISuperfluidToken",
          "name": "token",
          "type": "address"
        },
        {
          "indexed": true,
          "internalType": "address",
          "name": "subscriber",
          "type": "address"
        },
        {
          "indexed": false,
          "internalType": "address",
          "name": "publisher",
          "type": "address"
        },
        {
          "indexed": false,
          "internalType": "uint32",
          "name": "indexId",
          "type": "uint32"
        },
        {
          "indexed": false,
          "internalType": "uint256",
          "name": "amount",
          "type": "uint256"
        }
      ],
      "name": "SubscriptionDistributionClaimed",
      "type": "event"
    },
    {
      "anonymous": false,
      "inputs": [
        {
          "indexed": true,
          "internalType": "contract ISuperfluidToken",
          "name": "token",
          "type": "address"
        },
        {
          "indexed": true,
          "internalType": "address",
          "name": "subscriber",
          "type": "address"
        },
        {
          "indexed": false,
          "internalType": "address",
          "name": "publisher",
          "type": "address"
        },
        {
          "indexed": false,
          "internalType": "uint32",
          "name": "indexId",
          "type": "uint32"
        },
        {
          "indexed": false,
          "internalType": "bytes",
          "name": "userData",
          "type": "bytes"
        }
      ],
      "name": "SubscriptionRevoked",
      "type": "event"
    },
    {
      "anonymous": false,
      "inputs": [
        {
          "indexed": true,
          "internalType": "contract ISuperfluidToken",
          "name": "token",
          "type": "address"
        },
        {
          "indexed": true,
          "internalType": "address",
          "name": "subscriber",
          "type": "address"
        },
        {
          "indexed": false,
          "internalType": "address",
          "name": "publisher",
          "type": "address"
        },
        {
          "indexed": false,
          "internalType": "uint32",
          "name": "indexId",
          "type": "uint32"
        },
        {
          "indexed": false,
          "internalType": "uint128",
          "name": "units",
          "type": "uint128"
        },
        {
          "indexed": false,
          "internalType": "bytes",
          "name": "userData",
          "type": "bytes"
        }
      ],
      "name": "SubscriptionUnitsUpdated",
      "type": "event"
    },
    {
      "inputs": [],
      "name": "SLOTS_BITMAP_LIBRARY_ADDRESS",
      "outputs": [
        {
          "internalType": "address",
          "name": "",
          "type": "address"
        }
      ],
      "stateMutability": "view",
      "type": "function"
    },
    {
      "inputs": [],
      "name": "agreementType",
      "outputs": [
        {
          "internalType": "bytes32",
          "name": "",
          "type": "bytes32"
        }
      ],
      "stateMutability": "pure",
      "type": "function"
    },
    {
      "inputs": [
        {
          "internalType": "contract ISuperfluidToken",
          "name": "token",
          "type": "address"
        },
        {
          "internalType": "address",
          "name": "publisher",
          "type": "address"
        },
        {
          "internalType": "uint32",
          "name": "indexId",
          "type": "uint32"
        },
        {
          "internalType": "bytes",
          "name": "ctx",
          "type": "bytes"
        }
      ],
      "name": "approveSubscription",
      "outputs": [
        {
          "internalType": "bytes",
          "name": "newCtx",
          "type": "bytes"
        }
      ],
      "stateMutability": "nonpayable",
      "type": "function"
    },
    {
      "inputs": [
        {
          "internalType": "contract ISuperfluidToken",
          "name": "token",
          "type": "address"
        },
        {
          "internalType": "address",
          "name": "publisher",
          "type": "address"
        },
        {
          "internalType": "uint32",
          "name": "indexId",
          "type": "uint32"
        },
        {
          "internalType": "uint256",
          "name": "amount",
          "type": "uint256"
        }
      ],
      "name": "calculateDistribution",
      "outputs": [
        {
          "internalType": "uint256",
          "name": "actualAmount",
          "type": "uint256"
        },
        {
          "internalType": "uint128",
          "name": "newIndexValue",
          "type": "uint128"
        }
      ],
      "stateMutability": "view",
      "type": "function"
    },
    {
      "inputs": [],
      "name": "castrate",
      "outputs": [],
      "stateMutability": "nonpayable",
      "type": "function"
    },
    {
      "inputs": [
        {
          "internalType": "contract ISuperfluidToken",
          "name": "token",
          "type": "address"
        },
        {
          "internalType": "address",
          "name": "publisher",
          "type": "address"
        },
        {
          "internalType": "uint32",
          "name": "indexId",
          "type": "uint32"
        },
        {
          "internalType": "address",
          "name": "subscriber",
          "type": "address"
        },
        {
          "internalType": "bytes",
          "name": "ctx",
          "type": "bytes"
        }
      ],
      "name": "claim",
      "outputs": [
        {
          "internalType": "bytes",
          "name": "newCtx",
          "type": "bytes"
        }
      ],
      "stateMutability": "nonpayable",
      "type": "function"
    },
    {
      "inputs": [
        {
          "internalType": "contract ISuperfluidToken",
          "name": "token",
          "type": "address"
        },
        {
          "internalType": "uint32",
          "name": "indexId",
          "type": "uint32"
        },
        {
          "internalType": "bytes",
          "name": "ctx",
          "type": "bytes"
        }
      ],
      "name": "createIndex",
      "outputs": [
        {
          "internalType": "bytes",
          "name": "newCtx",
          "type": "bytes"
        }
      ],
      "stateMutability": "nonpayable",
      "type": "function"
    },
    {
      "inputs": [
        {
          "internalType": "contract ISuperfluidToken",
          "name": "token",
          "type": "address"
        },
        {
          "internalType": "address",
          "name": "publisher",
          "type": "address"
        },
        {
          "internalType": "uint32",
          "name": "indexId",
          "type": "uint32"
        },
        {
          "internalType": "address",
          "name": "subscriber",
          "type": "address"
        },
        {
          "internalType": "bytes",
          "name": "ctx",
          "type": "bytes"
        }
      ],
      "name": "deleteSubscription",
      "outputs": [
        {
          "internalType": "bytes",
          "name": "newCtx",
          "type": "bytes"
        }
      ],
      "stateMutability": "nonpayable",
      "type": "function"
    },
    {
      "inputs": [
        {
          "internalType": "contract ISuperfluidToken",
          "name": "token",
          "type": "address"
        },
        {
          "internalType": "uint32",
          "name": "indexId",
          "type": "uint32"
        },
        {
          "internalType": "uint256",
          "name": "amount",
          "type": "uint256"
        },
        {
          "internalType": "bytes",
          "name": "ctx",
          "type": "bytes"
        }
      ],
      "name": "distribute",
      "outputs": [
        {
          "internalType": "bytes",
          "name": "newCtx",
          "type": "bytes"
        }
      ],
      "stateMutability": "nonpayable",
      "type": "function"
    },
    {
      "inputs": [],
      "name": "getCodeAddress",
      "outputs": [
        {
          "internalType": "address",
          "name": "codeAddress",
          "type": "address"
        }
      ],
      "stateMutability": "view",
      "type": "function"
    },
    {
      "inputs": [
        {
          "internalType": "contract ISuperfluidToken",
          "name": "token",
          "type": "address"
        },
        {
          "internalType": "address",
          "name": "publisher",
          "type": "address"
        },
        {
          "internalType": "uint32",
          "name": "indexId",
          "type": "uint32"
        }
      ],
      "name": "getIndex",
      "outputs": [
        {
          "internalType": "bool",
          "name": "exist",
          "type": "bool"
        },
        {
          "internalType": "uint128",
          "name": "indexValue",
          "type": "uint128"
        },
        {
          "internalType": "uint128",
          "name": "totalUnitsApproved",
          "type": "uint128"
        },
        {
          "internalType": "uint128",
          "name": "totalUnitsPending",
          "type": "uint128"
        }
      ],
      "stateMutability": "view",
      "type": "function"
    },
    {
      "inputs": [
        {
          "internalType": "contract ISuperfluidToken",
          "name": "token",
          "type": "address"
        },
        {
          "internalType": "address",
          "name": "publisher",
          "type": "address"
        },
        {
          "internalType": "uint32",
          "name": "indexId",
          "type": "uint32"
        },
        {
          "internalType": "address",
          "name": "subscriber",
          "type": "address"
        }
      ],
      "name": "getSubscription",
      "outputs": [
        {
          "internalType": "bool",
          "name": "exist",
          "type": "bool"
        },
        {
          "internalType": "bool",
          "name": "approved",
          "type": "bool"
        },
        {
          "internalType": "uint128",
          "name": "units",
          "type": "uint128"
        },
        {
          "internalType": "uint256",
          "name": "pendingDistribution",
          "type": "uint256"
        }
      ],
      "stateMutability": "view",
      "type": "function"
    },
    {
      "inputs": [
        {
          "internalType": "contract ISuperfluidToken",
          "name": "token",
          "type": "address"
        },
        {
          "internalType": "bytes32",
          "name": "agreementId",
          "type": "bytes32"
        }
      ],
      "name": "getSubscriptionByID",
      "outputs": [
        {
          "internalType": "address",
          "name": "publisher",
          "type": "address"
        },
        {
          "internalType": "uint32",
          "name": "indexId",
          "type": "uint32"
        },
        {
          "internalType": "bool",
          "name": "approved",
          "type": "bool"
        },
        {
          "internalType": "uint128",
          "name": "units",
          "type": "uint128"
        },
        {
          "internalType": "uint256",
          "name": "pendingDistribution",
          "type": "uint256"
        }
      ],
      "stateMutability": "view",
      "type": "function"
    },
    {
      "inputs": [
        {
          "internalType": "contract ISuperfluidToken",
          "name": "token",
          "type": "address"
        },
        {
          "internalType": "address",
          "name": "subscriber",
          "type": "address"
        }
      ],
      "name": "listSubscriptions",
      "outputs": [
        {
          "internalType": "address[]",
          "name": "publishers",
          "type": "address[]"
        },
        {
          "internalType": "uint32[]",
          "name": "indexIds",
          "type": "uint32[]"
        },
        {
          "internalType": "uint128[]",
          "name": "unitsList",
          "type": "uint128[]"
        }
      ],
      "stateMutability": "view",
      "type": "function"
    },
    {
      "inputs": [],
      "name": "proxiableUUID",
      "outputs": [
        {
          "internalType": "bytes32",
          "name": "",
          "type": "bytes32"
        }
      ],
      "stateMutability": "view",
      "type": "function"
    },
    {
      "inputs": [
        {
          "internalType": "contract ISuperfluidToken",
          "name": "token",
          "type": "address"
        },
        {
          "internalType": "address",
          "name": "account",
          "type": "address"
        },
        {
          "internalType": "uint256",
          "name": "",
          "type": "uint256"
        }
      ],
      "name": "realtimeBalanceOf",
      "outputs": [
        {
          "internalType": "int256",
          "name": "dynamicBalance",
          "type": "int256"
        },
        {
          "internalType": "uint256",
          "name": "deposit",
          "type": "uint256"
        },
        {
          "internalType": "uint256",
          "name": "owedDeposit",
          "type": "uint256"
        }
      ],
      "stateMutability": "view",
      "type": "function"
    },
    {
      "inputs": [
        {
          "internalType": "contract ISuperfluidToken",
          "name": "token",
          "type": "address"
        },
        {
          "internalType": "address",
          "name": "publisher",
          "type": "address"
        },
        {
          "internalType": "uint32",
          "name": "indexId",
          "type": "uint32"
        },
        {
          "internalType": "bytes",
          "name": "ctx",
          "type": "bytes"
        }
      ],
      "name": "revokeSubscription",
      "outputs": [
        {
          "internalType": "bytes",
          "name": "newCtx",
          "type": "bytes"
        }
      ],
      "stateMutability": "nonpayable",
      "type": "function"
    },
    {
      "inputs": [
        {
          "internalType": "address",
          "name": "newAddress",
          "type": "address"
        }
      ],
      "name": "updateCode",
      "outputs": [],
      "stateMutability": "nonpayable",
      "type": "function"
    },
    {
      "inputs": [
        {
          "internalType": "contract ISuperfluidToken",
          "name": "token",
          "type": "address"
        },
        {
          "internalType": "uint32",
          "name": "indexId",
          "type": "uint32"
        },
        {
          "internalType": "uint128",
          "name": "indexValue",
          "type": "uint128"
        },
        {
          "internalType": "bytes",
          "name": "ctx",
          "type": "bytes"
        }
      ],
      "name": "updateIndex",
      "outputs": [
        {
          "internalType": "bytes",
          "name": "newCtx",
          "type": "bytes"
        }
      ],
      "stateMutability": "nonpayable",
      "type": "function"
    },
    {
      "inputs": [
        {
          "internalType": "contract ISuperfluidToken",
          "name": "token",
          "type": "address"
        },
        {
          "internalType": "uint32",
          "name": "indexId",
          "type": "uint32"
        },
        {
          "internalType": "address",
          "name": "subscriber",
          "type": "address"
        },
        {
          "internalType": "uint128",
          "name": "units",
          "type": "uint128"
        },
        {
          "internalType": "bytes",
          "name": "ctx",
          "type": "bytes"
        }
      ],
      "name": "updateSubscription",
      "outputs": [
        {
          "internalType": "bytes",
          "name": "newCtx",
          "type": "bytes"
        }
      ],
      "stateMutability": "nonpayable",
      "type": "function"
    }
  ],
  "bytecode": {
    "object": "0x60a06040523480156200001157600080fd5b506040516200538238038062005382833981016040819052620000349162000046565b6001600160a01b031660805262000078565b6000602082840312156200005957600080fd5b81516001600160a01b03811681146200007157600080fd5b9392505050565b6080516152ee6200009460003960006110d701526152ee6000f3fe608060405234801561001057600080fd5b506004361061012c5760003560e01c80637fbc7639116100ad578063acf4a6c211610071578063acf4a6c214610320578063b6dacdb814610333578063b96731c214610355578063cd7245c514610368578063d787840a146103c057600080fd5b80637fbc763914610294578063899baaec146102a75780639903ad38146102d75780639b2e48bc146102df578063acafa1b81461030d57600080fd5b806350d75d25116100f457806350d75d25146101f957806352d1902d146102015780635b534051146102175780636041ae961461025b5780637730599e1461026e57600080fd5b8063232d2b581461013157806323fc23f31461015a5780632e5e74c61461019e5780633fd4176a146101b157806346951954146101e4575b600080fd5b61014461013f3660046143c7565b6103d3565b60405161015191906144a2565b60405180910390f35b61016d6101683660046144b5565b610af6565b6040805194151585526001600160801b03938416602086015291831691840191909152166060820152608001610151565b6101446101ac366004614500565b610b61565b6101cc73__$2ab93b044e48e21ae6c24b46e21748f7f9$__81565b6040516001600160a01b039091168152602001610151565b6101f76101f2366004614554565b6110cc565b005b6101cc611125565b610209611154565b604051908152602001610151565b61022a610225366004614578565b6111b8565b6040516101519493929190931515845291151560208401526001600160801b03166040830152606082015260800190565b6101446102693660046145d4565b61128e565b7f8aedc3b5d4bf031e11a7e2940f7251c005698405d58e02e1c247fed3b1b3a674610209565b6101446102a236600461464f565b6116b7565b6102ba6102b5366004614690565b6117a4565b604080519283526001600160801b03909116602083015201610151565b6101f761184d565b6102f26102ed3660046146e1565b611956565b60408051938452602084019290925290820152606001610151565b61014461031b366004614500565b611b61565b61014461032e3660046145d4565b611f6e565b610346610341366004614722565b61252c565b6040516101519392919061479f565b61014461036336600461483c565b612781565b61037b610376366004614891565b612881565b604080516001600160a01b03909616865263ffffffff9094166020860152911515928401929092526001600160801b039091166060830152608082015260a001610151565b6101446103ce3660046148bd565b612987565b60606001600160a01b0385166104055760405163e961d6ff60e01b81526109c460048201526024015b60405180910390fd5b61040d61421f565b61041561427d565b606060008061045a8c89898080601f016020809104026020016040519081016040528093929190818152602001838380828437600092019190915250612b4692505050565b90508060a00151925080606001519150506104798b828b8d6000612d13565b60808901521515602080890191909152606088019190915260408088018390529287528251908101909252600082526104b5918d918c91612e0e565b925086868080601f0160208091040260200160405190810160405280939291908181526020018383808284376000920191909152505050602086015191965050156105195764040000000060c084015261050f8386612e3c565b60a0850152610534565b64010000000060c084015261052e8386612e3c565b60a08501525b83602001518015610551575060808401515163ffffffff90811614155b1561062c576105a08460800151608001516001600160801b0316896001600160801b03168660600151602001516001600160801b03166105919190614937565b61059b919061494a565b612ff3565b6060850180516001600160801b03909216602090920191909152845190516001600160a01b038d169163a1b2bf8b916105d890613060565b6040518363ffffffff1660e01b81526004016105f592919061498d565b600060405180830381600087803b15801561060f57600080fd5b505af1158015610623573d6000803e3d6000fd5b50505050610813565b8360200151156106a9576106718460800151608001516001600160801b0316896001600160801b03168660600151604001516001600160801b03166105919190614937565b6060850180516001600160801b03909216604090920191909152845190516001600160a01b038d169163a1b2bf8b916105d890613060565b6040518060a0016040528063ffffffff80168152602001826001600160a01b031681526020018b63ffffffff1681526020018560600151600001516001600160801b03168152602001896001600160801b031681525084608001819052508a6001600160a01b03166312a6a3f8856040015161072887608001516130fe565b6040518363ffffffff1660e01b815260040161074592919061498d565b600060405180830381600087803b15801561075f57600080fd5b505af1158015610773573d6000803e3d6000fd5b505050508784606001516040015161078b91906149a6565b6060850180516001600160801b03909216604090920191909152845190516001600160a01b038d169163a1b2bf8b916107c390613060565b6040518363ffffffff1660e01b81526004016107e092919061498d565b600060405180830381600087803b1580156107fa57600080fd5b505af115801561080e573d6000803e3d6000fd5b505050505b60008460800151608001516001600160801b031685608001516060015186606001516000015161084391906149cd565b6001600160801b031661085691906149ed565b905063ffffffff801685608001516000015163ffffffff16036108ef576108868c8361088184614a72565b6131a5565b6001600160a01b038c1663cf97256d8361089f84614a72565b6040518363ffffffff1660e01b81526004016108bc929190614a8e565b600060405180830381600087803b1580156108d657600080fd5b505af11580156108ea573d6000803e3d6000fd5b505050505b60405163cf97256d60e01b81526001600160a01b038d169063cf97256d9061091d908d908590600401614a8e565b600060405180830381600087803b15801561093757600080fd5b505af115801561094b573d6000803e3d6000fd5b505050508460200151156109f15760608086015151608080880180516001600160801b039384169401939093528251918c16910152604086015190516001600160a01b038e169163a1b2bf8b916109a1906130fe565b6040518363ffffffff1660e01b81526004016109be92919061498d565b600060405180830381600087803b1580156109d857600080fd5b505af11580156109ec573d6000803e3d6000fd5b505050505b846020015115610a205764080000000060c085015260a0850151610a17908590886132f3565b9650610a409050565b64020000000060c085015260a0850151610a3c908590886132f3565b9650505b8a63ffffffff16826001600160a01b03168d6001600160a01b03167f0115987243fd19d615b5ea62a80372a06a2b37fec378b148ee7a507c5c4c0a398d8d88604051610a8e93929190614aa7565b60405180910390a4896001600160a01b03168c6001600160a01b03167fe0707ac7efb8b59c22189af8d004ed17dc9e4379e71b9066119b62c182524977848e8d88604051610adf9493929190614ae3565b60405180910390a350505050509695505050505050565b600080600080610b1f604080516060810182526000808252602082018190529181019190915290565b6000610b2b888861353f565b9050610b3789826135a6565b90965091508515610b5657815160208301516040840151919650945092505b505093509350935093565b6060610b6b61421f565b610b7361427d565b600060606000610bb98c89898080601f016020809104026020016040519081016040528093929190818152602001838380828437600092019190915250612b4692505050565b606081015160a0909101519093509150506001600160a01b038816610bf55760405163e961d6ff60e01b81526109c460048201526024016103fc565b896001600160a01b0316826001600160a01b031614610c27576040516392da6d1760e01b815260040160405180910390fd5b610c358b8b8a8c6001612d13565b6080890152506060870152604080870182905291865281516020810190925260008252610c65918d918b91612e0e565b925086868080601f0160208091040260200160405190810160405280939291908181526020018383808284376000920191909152505064100000000060c087015250909550610cb690508386612e3c565b60a08501526080808501519081015160609182015191860151516000926001600160801b0390921691610ce8916149cd565b6001600160801b0316610cfb91906149ed565b60808601515190915063ffffffff90811614610d4857846080015160800151856060015160200151610d2d91906149cd565b60608601516001600160801b03909116602090910152610d7b565b846080015160800151856060015160400151610d6491906149cd565b60608601516001600160801b039091166040909101525b8b6001600160a01b031663a1b2bf8b8660000151610d9c8860600151613060565b6040518363ffffffff1660e01b8152600401610db992919061498d565b600060405180830381600087803b158015610dd357600080fd5b505af1158015610de7573d6000803e3d6000fd5b5050505060808501515163ffffffff90811614610e1157610e118c8a8760800151600001516136ba565b60808501515163ffffffff1663fffffffe1901610e9f57610e368c8c61088184614a72565b6001600160a01b038c1663cf97256d8c610e4f84614a72565b6040518363ffffffff1660e01b8152600401610e6c929190614a8e565b600060405180830381600087803b158015610e8657600080fd5b505af1158015610e9a573d6000803e3d6000fd5b505050505b6040858101519051632704839760e01b81526004810191909152600260248201526001600160a01b038d1690632704839790604401600060405180830381600087803b158015610eee57600080fd5b505af1158015610f02573d6000803e3d6000fd5b505060405163cf97256d60e01b81526001600160a01b038f16925063cf97256d9150610f34908c908590600401614a8e565b600060405180830381600087803b158015610f4e57600080fd5b505af1158015610f62573d6000803e3d6000fd5b505064200000000060c0870152505060a0850151610f82908590886132f3565b9050809650508963ffffffff168b6001600160a01b03168d6001600160a01b03167fe1f8e9cd8061e5b251769965bda6ca9ef1674bc6541fb9131039fa53f024d1428c86604051610fd4929190614b2c565b60405180910390a4886001600160a01b03168c6001600160a01b03167f9e02127550b99adc8cc6ee332a36f31338facdbc396cebefce9a047247cd04558d8d8660405161102393929190614b50565b60405180910390a38963ffffffff168b6001600160a01b03168d6001600160a01b03167f0115987243fd19d615b5ea62a80372a06a2b37fec378b148ee7a507c5c4c0a398c60008760405161107a93929190614aa7565b60405180910390a4886001600160a01b03168c6001600160a01b03167fe0707ac7efb8b59c22189af8d004ed17dc9e4379e71b9066119b62c1825249778d8d600087604051610adf9493929190614ae3565b336001600160a01b037f0000000000000000000000000000000000000000000000000000000000000000161461111957604051632a94f67960e21b81526120d060048201526024016103fc565b61112281613745565b50565b600061114f7f360894a13ba1a3210667c828492db98dca3e2076cc3735a920a3ca505d382bbc5490565b905090565b6000306001600160a01b0316637730599e6040518163ffffffff1660e01b8152600401602060405180830381865afa158015611194573d6000803e3d6000fd5b505050506040513d601f19601f8201168201806040525081019061114f9190614b80565b6000806000806000806111e4604080516060810182526000808252602082018190529181019190915290565b6111ec6142b8565b6111fa8c8c8b8d6000612d13565b909b50929650909450925090508761122357600080600080975097509750975050505050611283565b8051608082015163ffffffff9182169091141597509550866112795780608001516001600160801b03168160600151836000015161126191906149cd565b6001600160801b03166112749190614b99565b61127c565b60005b9450505050505b945094509450949050565b606061129861421f565b6112a061427d565b6000606060006112e68b89898080601f016020809104026020016040519081016040528093929190818152602001838380828437600092019190915250612b4692505050565b9050806060015192508060a001519150506113058a8a848b6001612d13565b6080890181905260608901929092525060408701919091529085525163ffffffff1663fffffffe190161134f57604051639995b0c160e01b81526107d460048201526024016103fc565b61136e8a8a866040015160405180602001604052806000815250612e0e565b925086868080601f0160208091040260200160405190810160405280939291908181526020018383808284376000920191909152505064100000000060c0870152509095506113bf90508386612e3c565b60a08501526080808501519081015160609182015191860151516000926001600160801b03909216916113f1916149cd565b6001600160801b031661140491906149ed565b905084608001516080015185606001516020015161142291906149cd565b6060860180516001600160801b03909216602090920191909152608080870151015190516040015161145491906149a6565b6060860180516001600160801b03909216604090920191909152855190516001600160a01b038d169163a1b2bf8b9161148c90613060565b6040518363ffffffff1660e01b81526004016114a992919061498d565b600060405180830381600087803b1580156114c357600080fd5b505af11580156114d7573d6000803e3d6000fd5b505050506114ee8b848760800151600001516136ba565b606080860151516080870180516001600160801b039092169190920152805163ffffffff9052604086015190516001600160a01b038d169163a1b2bf8b91611535906130fe565b6040518363ffffffff1660e01b815260040161155292919061498d565b600060405180830381600087803b15801561156c57600080fd5b505af1158015611580573d6000803e3d6000fd5b505060405163cf97256d60e01b81526001600160a01b038e16925063cf97256d91506115b29086908590600401614a8e565b600060405180830381600087803b1580156115cc57600080fd5b505af11580156115e0573d6000803e3d6000fd5b505064200000000060c0870152505060a0850151611600908590886132f3565b9050809650508863ffffffff168a6001600160a01b03168c6001600160a01b03167fe1f8e9cd8061e5b251769965bda6ca9ef1674bc6541fb9131039fa53f024d1428686604051611652929190614b2c565b60405180910390a4826001600160a01b03168b6001600160a01b03167f9e02127550b99adc8cc6ee332a36f31338facdbc396cebefce9a047247cd04558c8c866040516116a193929190614b50565b60405180910390a3505050505095945050505050565b606060006116fb8785858080601f016020809104026020016040519081016040528093929190818152602001838380828437600092019190915250612b4692505050565b60608101519091506000806117118a848b61394d565b9150915080600001516001600160801b0316886001600160801b0316101561174c5760405163cfdca72560e01b815260040160405180910390fd5b61175f8a848b85858d8a60a001516139b0565b86868080601f016020809104026020016040519081016040528093929190818152602001838380828437600092019190915250929d9c50505050505050505050505050565b60008060006117b3868661353f565b90506000806117c289846135a6565b91509150816117e857604051639995b0c160e01b81526107d160048201526024016103fc565b6000816040015182602001516117fe91906149a6565b6001600160801b03169050600061181861059b838a614bb8565b83519091506118289082906149a6565b955061183d826001600160801b038316614b99565b9650505050505094509492505050565b600054610100900460ff161580801561186d5750600054600160ff909116105b806118875750303b158015611887575060005460ff166001145b6118ea5760405162461bcd60e51b815260206004820152602e60248201527f496e697469616c697a61626c653a20636f6e747261637420697320616c72656160448201526d191e481a5b9a5d1a585b1a5e995960921b60648201526084016103fc565b6000805460ff19166001179055801561190d576000805461ff0019166101001790555b8015611122576000805461ff0019169055604051600181527f7f26b83ff96e1f2b6a682f133852f6798a09c465da95921460cefb3847402498906020015b60405180910390a150565b60008060006060806119688888613be3565b909250905060005b81518163ffffffff161015611b455760006119896142b8565b600080868563ffffffff16815181106119a4576119a4614bda565b602002602001015190506119d78d878763ffffffff16815181106119ca576119ca614bda565b6020026020010151613cd6565b9094509250836119e9576119e9614bf0565b8063ffffffff16836000015163ffffffff1614611a0857611a08614bf0565b6001600160a01b038d16634b61cc33308e611a2d63ffffffff8616600160801b614937565b60016040518563ffffffff1660e01b8152600401611a4e9493929190614c06565b600060405180830381865afa158015611a6b573d6000803e3d6000fd5b505050506040513d6000823e601f3d908101601f19168201604052611a939190810190614d2c565b600081518110611aa557611aa5614bda565b6020026020010151915050611ad3604080516060810182526000808252602082018190529181019190915290565b611add8d836135a6565b909450905083611aef57611aef614bf0565b82608001516001600160801b031683606001518260000151611b1191906149cd565b6001600160801b0316611b2491906149ed565b611b2e908b614d60565b99505050505080611b3e90614d88565b9050611970565b50611b508888613df2565b935060009250505093509350939050565b6060611ba38784848080601f016020809104026020016040519081016040528093929190818152602001838380828437600092019190915250612b4692505050565b506001600160a01b038416611bcf5760405163e961d6ff60e01b81526109c460048201526024016103fc565b611bd761421f565b611bdf61427d565b611bed8989888a6001612d13565b6080870181905260608701929092525060408501919091529083525163ffffffff90811614611c3357604051635b5b42a560e01b81526107d360048201526024016103fc565b60008260800151608001516001600160801b0316836080015160600151846060015160000151611c6391906149cd565b6001600160801b0316611c769190614b99565b9050611c978a8a856040015160405180602001604052806000815250612e0e565b915085858080601f0160208091040260200160405190810160405280939291908181526020018383808284376000920191909152509296505082159150611f2790505764040000000060c0830152611cef8285612e3c565b60a0840152611d028a8a61088184614a72565b6001600160a01b038a1663cf97256d8a611d1b84614a72565b6040518363ffffffff1660e01b8152600401611d38929190614a8e565b600060405180830381600087803b158015611d5257600080fd5b505af1158015611d66573d6000803e3d6000fd5b50505050606083810151516080850180516001600160801b039092169190920152604084015190516001600160a01b038c169163a1b2bf8b91611da8906130fe565b6040518363ffffffff1660e01b8152600401611dc592919061498d565b600060405180830381600087803b158015611ddf57600080fd5b505af1158015611df3573d6000803e3d6000fd5b505060405163cf97256d60e01b81526001600160a01b038d16925063cf97256d9150611e25908a908590600401614a8e565b600060405180830381600087803b158015611e3f57600080fd5b505af1158015611e53573d6000803e3d6000fd5b505050508763ffffffff16896001600160a01b03168b6001600160a01b03167f467eccd248ef31c8bcef16d94856855799a8783aeef10f3759e43614059a6bb18a85604051611ea3929190614a8e565b60405180910390a4604080516001600160a01b038b8116825263ffffffff8b166020830152918101839052818916918c16907f48a3d91d4a07e4982b081260e24f922bd33bb965882772d6de19c922c3eabdea9060600160405180910390a364080000000060c083015260a0830151611f1e908390866132f3565b9450611f619050565b85858080601f0160208091040260200160405190810160405280939291908181526020018383808284376000920191909152509296505050505b5050509695505050505050565b6060611f7861421f565b611f8061427d565b600060606000611fc68b89898080601f016020809104026020016040519081016040528093929190818152602001838380828437600092019190915250612b4692505050565b9050806060015192508060a00151915050611fe58a8a848b6000612d13565b60808901521580156020890152606088019190915260408701919091529085526120395760808401515163ffffffff9081161461203957604051635b5b42a560e01b81526107d360048201526024016103fc565b86868080601f01602080910402602001604051908101604052809392919081815260200183838082843760009201829052506040808a0151815160208101909252918152949950612092948f94508e9350909150612e0e565b925083602001516121bb5764010000000060c08401526120b28386612e3c565b60a08086019190915260408051918201815260008083526001600160a01b038c16602084015263ffffffff8b1691830191909152606080870151516001600160801b0316908301526080808301919091528501528351612115908b908490613e9b565b60808501805163ffffffff909216909152604085015190516001600160a01b038c16916312a6a3f891612147906130fe565b6040518363ffffffff1660e01b815260040161216492919061498d565b600060405180830381600087803b15801561217e57600080fd5b505af1158015612192573d6000803e3d6000fd5b505064020000000060c0860152505060a08401516121b2908490876132f3565b955061247c9050565b64040000000060c08401526121d08386612e3c565b60a08501526080808501519081015160609182015191860151516000926001600160801b0390921691612202916149cd565b6001600160801b031661221591906149ed565b9050846080015160800151856060015160200181815161223591906149a6565b6001600160801b031690525060808086015101516060860151604001805161225e9083906149cd565b6001600160801b0316905250845160608601516001600160a01b038d169163a1b2bf8b9161228b90613060565b6040518363ffffffff1660e01b81526004016122a892919061498d565b600060405180830381600087803b1580156122c257600080fd5b505af11580156122d6573d6000803e3d6000fd5b505050506122e98b8b8361088190614a72565b6001600160a01b038b1663cf97256d8b61230284614a72565b6040518363ffffffff1660e01b815260040161231f929190614a8e565b600060405180830381600087803b15801561233957600080fd5b505af115801561234d573d6000803e3d6000fd5b505060405163cf97256d60e01b81526001600160a01b038e16925063cf97256d915061237f9086908590600401614a8e565b600060405180830381600087803b15801561239957600080fd5b505af11580156123ad573d6000803e3d6000fd5b5050506060808701515160808801516001600160801b039091169101525084516123da908c908590613e9b565b60808601805163ffffffff909216909152604086015190516001600160a01b038d169163a1b2bf8b9161240c906130fe565b6040518363ffffffff1660e01b815260040161242992919061498d565b600060405180830381600087803b15801561244357600080fd5b505af1158015612457573d6000803e3d6000fd5b505064080000000060c0870152505060a0850151612477908590886132f3565b965050505b8763ffffffff16896001600160a01b03168b6001600160a01b03167f492d2641617cfaf24ac7328f85bc5bdf5113537d78dc7671afa4f49a73f053c285856040516124c8929190614b2c565b60405180910390a4816001600160a01b03168a6001600160a01b03167fc0b8396b655615cdb85fe462a9a1792480816f909cd46d9517a940b386dfbf6b8b8b8560405161251793929190614b50565b60405180910390a35050505095945050505050565b606080606080606061253e8787613be3565b9092509050600061254d6142b8565b82516001600160401b0381111561256657612566614c2f565b60405190808252806020026020018201604052801561258f578160200160208202803683370190505b50965082516001600160401b038111156125ab576125ab614c2f565b6040519080825280602002602001820160405280156125d4578160200160208202803683370190505b50955082516001600160401b038111156125f0576125f0614c2f565b604051908082528060200260200182016040528015612619578160200160208202803683370190505b50945060005b83518163ffffffff161015612775576000858263ffffffff168151811061264857612648614bda565b602002602001015190506000858363ffffffff168151811061266c5761266c614bda565b602002602001015190506126808c82613cd6565b90955093508461269257612692614bf0565b8163ffffffff16846000015163ffffffff16146126b1576126b1614bf0565b83602001518a8463ffffffff16815181106126ce576126ce614bda565b60200260200101906001600160a01b031690816001600160a01b0316815250508360400151898463ffffffff168151811061270b5761270b614bda565b602002602001019063ffffffff16908163ffffffff16815250508360800151888463ffffffff168151811061274257612742614bda565b60200260200101906001600160801b031690816001600160801b03168152505050508061276e90614d88565b905061261f565b50505050509250925092565b606060006127c58785858080601f016020809104026020016040519081016040528093929190818152602001838380828437600092019190915250612b4692505050565b60608101519091506000806127db8a848b61394d565b915091506000816040015182602001516127f591906149a6565b6001600160801b03169050801561283b57600061281561059b838c614bb8565b90506128398c868d878786896000015161282f91906149a6565b8c60a001516139b0565b505b87878080601f016020809104026020016040519081016040528093929190818152602001838380828437600092019190915250929e9d5050505050505050505050505050565b60008060008060008060006128af604080516060810182526000808252602082018190529181019190915290565b6128b76142b8565b6128c18b8b613cd6565b9094509050836128e857604051639995b0c160e01b81526107d260048201526024016103fc565b8060200151985080604001519750612900898961353f565b925061290c8b846135a6565b90945091508361291e5761291e614bf0565b8051608082015163ffffffff9182169091141597509550866129745780608001516001600160801b03168160600151836000015161295c91906149cd565b6001600160801b031661296f9190614b99565b612977565b60005b9450505050509295509295909350565b606060006129cb8685858080601f016020809104026020016040519081016040528093929190818152602001838380828437600092019190915250612b4692505050565b606081015190915060006129df828861353f565b90506129eb8882613f42565b15612a0d57604051635b5b42a560e01b81526107d060048201526024016103fc565b876001600160a01b03166312a6a3f882612a5e604051806060016040528060006001600160801b0316815260200160006001600160801b0316815260200160006001600160801b0316815250613060565b6040518363ffffffff1660e01b8152600401612a7b92919061498d565b600060405180830381600087803b158015612a9557600080fd5b505af1158015612aa9573d6000803e3d6000fd5b505050508663ffffffff16826001600160a01b0316896001600160a01b03167f01ab8663165edfb7390d9e5f75d960a66dacf4f01fa9787e3a731c870d0da9218660a00151604051612afb91906144a2565b60405180910390a485858080601f016020809104026020016040519081016040528093929190818152602001838380828437600092019190915250929b9a5050505050505050505050565b612b4e6142e6565b336001600160a01b0316836001600160a01b03166320bc44256040518163ffffffff1660e01b8152600401602060405180830381865afa158015612b96573d6000803e3d6000fd5b505050506040513d601f19601f82011682018060405250810190612bba9190614db6565b6001600160a01b031614612c045760405162461bcd60e51b81526020600482015260116024820152701d5b985d5d1a1bdc9a5e9959081a1bdcdd607a1b60448201526064016103fc565b604051632fd0a1cd60e21b8152339063bf42873490612c279085906004016144a2565b602060405180830381865afa158015612c44573d6000803e3d6000fd5b505050506040513d601f19601f82011682018060405250810190612c689190614de3565b612ca25760405162461bcd60e51b815260206004820152600b60248201526a0d2dcecc2d8d2c840c6e8f60ab1b60448201526064016103fc565b604051631fb6491d60e11b81523390633f6c923a90612cc59085906004016144a2565b600060405180830381865afa158015612ce2573d6000803e3d6000fd5b505050506040513d6000823e601f3d908101601f19168201604052612d0a9190810190614e8a565b90505b92915050565b6040805160608101825260008082526020820181905291810182905281906000612d3b6142b8565b6000612d478a8961353f565b9550612d538987613fee565b9450612d5f8b876135a6565b9450905080612d8557604051639995b0c160e01b81526107d160048201526024016103fc565b612d8f8b86613cd6565b90935091508615612e005782612dbc57604051639995b0c160e01b81526107d260048201526024016103fc565b896001600160a01b031682602001516001600160a01b031614612de157612de1614bf0565b8763ffffffff16826040015163ffffffff1614612e0057612e00614bf0565b509550955095509550959050565b612e1661427d565b6001600160a01b0394851681529290931660208301526040820152606081019190915290565b6020820151604051633e7d48bd60e21b81526001600160a01b03909116600482015260609060009081908190339063f9f522f490602401606060405180830381865afa158015612e90573d6000803e3d6000fd5b505050506040513d601f19601f82011682018060405250810190612eb49190614f90565b91945092509050828015612ec6575081155b15612fea576000612ed7868861402f565b90508660c001518216600003612fdc576000612ef68860c001516140ad565b88516040808b015160608c015182516000815260208101909352612f2293923092919060448101614fcc565b60408051601f19818403018152918152602080830180516001600160e01b03166001600160e01b031990951694909417909352918a015160c08b01519251633a020f0160e11b815291935033926374041e0292612f919291869164100000000091909114908890600401615011565b6000604051808303816000875af1158015612fb0573d6000803e3d6000fd5b505050506040513d6000823e601f3d908101601f19168201604052612fd8919081019061505a565b9550505b612fe7866000614144565b50505b50505092915050565b60006001600160801b0382111561305c5760405162461bcd60e51b815260206004820152602760248201527f53616665436173743a2076616c756520646f65736e27742066697420696e20316044820152663238206269747360c81b60648201526084016103fc565b5090565b604080516002808252606080830184529260208301908036833701905050905081600001516001600160801b0316600160801b1760001b816000815181106130aa576130aa614bda565b602002602001018181525050608082604001516001600160801b0316901b82602001516001600160801b03161760001b816001815181106130ed576130ed614bda565b602002602001018181525050919050565b6040805160028082526060808301845292602083019080368337019050509050816000015163ffffffff166020836040015163ffffffff16901b606084602001516001600160a01b0316901b171760001b8160008151811061316257613162614bda565b602002602001018181525050608082608001516001600160801b0316901b82606001516001600160801b03161760001b816001815181106130ed576130ed614bda565b806000036131b257505050565b604051634b61cc3360e01b81526000906001600160a01b03851690634b61cc33906131ed903090879064010000000090600190600401614c06565b600060405180830381865afa15801561320a573d6000803e3d6000fd5b505050506040513d6000823e601f3d908101601f191682016040526132329190810190614d2c565b90508161325b8260008151811061324b5761324b614bda565b602002602001015160001c61416c565b6132659190614d60565b60001b8160008151811061327b5761327b614bda565b602090810291909101015260405163048620af60e11b81526001600160a01b0385169063090c415e906132bb90869064010000000090869060040161508e565b600060405180830381600087803b1580156132d557600080fd5b505af11580156132e9573d6000803e3d6000fd5b5050505050505050565b6132fb6142e6565b6020840151604051633e7d48bd60e21b81526001600160a01b03909116600482015260609060009081908190339063f9f522f490602401606060405180830381865afa15801561334f573d6000803e3d6000fd5b505050506040513d601f19601f820116820180604052508101906133739190614f90565b88965091945092509050828015613388575081155b1561353457613397848961402f565b93508760c0015181166000036135225760006133b68960c001516140ad565b89516040808c015160608d0151825160008152602081019093526133e49392309291908e90604481016150b5565b60408051601f19818403018152918152602080830180516001600160e01b03166001600160e01b031990951694909417909352918b015160c08c0151925163079b42a160e21b81529193503392631e6d0a84926134539291869164200000000091909114908b90600401615011565b6000604051808303816000875af1158015613472573d6000803e3d6000fd5b505050506040513d6000823e601f3d908101601f1916820160405261349a919081019061505a565b604051631fb6491d60e11b81529095503390633f6c923a906134c09088906004016144a2565b600060405180830381865afa1580156134dd573d6000803e3d6000fd5b505050506040513d6000823e601f3d908101601f191682016040526135059190810190614e8a565b955061351a89608001518761010001516141d6565b610100870152505b61353186866101000151614144565b93505b505050935093915050565b60405168383ab13634b9b432b960b91b60208201526bffffffffffffffffffffffff19606084901b1660298201526001600160e01b031960e083901b16603d8201526000906041015b60405160208183030381529060405280519060200120905092915050565b60408051606081018252600080825260208201819052918101829052604051636c2d9f2f60e01b815230600482015260248101849052600260448201526000906001600160a01b03861690636c2d9f2f90606401600060405180830381865afa158015613617573d6000803e3d6000fd5b505050506040513d6000823e601f3d908101601f1916820160405261363f9190810190614d2c565b905060008160008151811061365657613656614bda565b602002602001015160001c905060008260018151811061367857613678614bda565b602002602001015160001c905060008211945084156136b0576001600160801b03808316855281166020850152608081901c60408501525b5050509250929050565b604051631528e57f60e31b81526001600160a01b038085166004830152831660248201526000604482015263ffffffff8216606482015273__$2ab93b044e48e21ae6c24b46e21748f7f9$__9063a9472bf89060840160006040518083038186803b15801561372857600080fd5b505af415801561373c573d6000803e3d6000fd5b50505050505050565b600061376f7f360894a13ba1a3210667c828492db98dca3e2076cc3735a920a3ca505d382bbc5490565b6001600160a01b0316036137c55760405162461bcd60e51b815260206004820152601d60248201527f5555505350726f786961626c653a206e6f742075706772616461626c6500000060448201526064016103fc565b806001600160a01b03166352d1902d6040518163ffffffff1660e01b8152600401602060405180830381865afa158015613803573d6000803e3d6000fd5b505050506040513d601f19601f820116820180604052508101906138279190614b80565b61382f611154565b146138885760405162461bcd60e51b815260206004820152602360248201527f5555505350726f786961626c653a206e6f7420636f6d70617469626c65206c6f60448201526267696360e81b60648201526084016103fc565b6001600160a01b03811630036138e05760405162461bcd60e51b815260206004820152601960248201527f5555505350726f786961626c653a2070726f7879206c6f6f700000000000000060448201526064016103fc565b613908817f360894a13ba1a3210667c828492db98dca3e2076cc3735a920a3ca505d382bbc55565b7fe011bc04c286c344a8fcbb8de77f953da762c3e25d8cdea984147fc4168a5dcc613931611154565b604080519182526001600160a01b03841660208301520161194b565b604080516060810182526000808252602082018190529181018290526000613975858561353f565b925061398186846135a6565b92509050806139a757604051639995b0c160e01b81526107d160048201526024016103fc565b50935093915050565b866001600160a01b031663cf97256d8785602001516001600160801b03168660000151866139de91906149cd565b6001600160801b03166139f090614a72565b6139fa91906149ed565b6040518363ffffffff1660e01b8152600401613a17929190614a8e565b600060405180830381600087803b158015613a3157600080fd5b505af1158015613a45573d6000803e3d6000fd5b50505050613a7f878785604001516001600160801b0316866000015186613a6c91906149cd565b6001600160801b031661088191906149ed565b82516001600160801b03831684526001600160a01b03881663a1b2bf8b86613aa687613060565b6040518363ffffffff1660e01b8152600401613ac392919061498d565b600060405180830381600087803b158015613add57600080fd5b505af1158015613af1573d6000803e3d6000fd5b505050508563ffffffff16876001600160a01b0316896001600160a01b03167f81e37f3d9f16cbf29a62d6a1c21d79b23ef29b54124ec44af43a50fffb9304f3848789604001518a6020015189604051613b4f95949392919061511b565b60405180910390a46040516379359f6f60e01b81526001600160a01b0388811660048301528916906379359f6f90602401602060405180830381865afa158015613b9d573d6000803e3d6000fd5b505050506040513d601f19601f82011682018060405250810190613bc19190614de3565b156132e957604051636212897360e01b815261083460048201526024016103fc565b60608073__$2ab93b044e48e21ae6c24b46e21748f7f9$__6306967a8c85856000600160801b6040518563ffffffff1660e01b8152600401613c289493929190614c06565b600060405180830381865af4158015613c45573d6000803e3d6000fd5b505050506040513d6000823e601f3d908101601f19168201604052613c6d9190810190615157565b909250905060005b8151811015613cce57613ca184838381518110613c9457613c94614bda565b6020026020010151613fee565b828281518110613cb357613cb3614bda565b6020908102919091010152613cc78161521b565b9050613c75565b509250929050565b6000613ce06142b8565b604051636c2d9f2f60e01b815230600482015260248101849052600260448201526000906001600160a01b03861690636c2d9f2f90606401600060405180830381865afa158015613d35573d6000803e3d6000fd5b505050506040513d6000823e601f3d908101601f19168201604052613d5d9190810190614d2c565b9050600081600081518110613d7457613d74614bda565b602002602001015160001c9050600082600181518110613d9657613d96614bda565b602002602001015160001c905060008211945084156136b057606082811c60208087019190915283901c63ffffffff9081166040870152831685526001600160801b03821690850152608081811c908501525050509250929050565b600080836001600160a01b0316634b61cc33308564010000000060016040518563ffffffff1660e01b8152600401613e2d9493929190614c06565b600060405180830381865afa158015613e4a573d6000803e3d6000fd5b505050506040513d6000823e601f3d908101601f19168201604052613e729190810190614d2c565b905080600081518110613e8757613e87614bda565b602002602001015160001c91505092915050565b604051630a32470160e41b81526001600160a01b03808516600483015283166024820152600060448201819052600160801b6064830152608482018390529073__$2ab93b044e48e21ae6c24b46e21748f7f9$__9063a32470109060a401602060405180830381865af4158015613f16573d6000803e3d6000fd5b505050506040513d601f19601f82011682018060405250810190613f3a9190615234565b949350505050565b604051636c2d9f2f60e01b8152306004820152602481018290526002604482015260009081906001600160a01b03851690636c2d9f2f90606401600060405180830381865afa158015613f99573d6000803e3d6000fd5b505050506040513d6000823e601f3d908101601f19168201604052613fc19190810190614d2c565b9050600081600081518110613fd857613fd8614bda565b6020908102919091010151151595945050505050565b604080516b39bab139b1b934b83a34b7b760a11b6020820152606084811b6bffffffffffffffffffffffff1916602c83015291810183905260009101613588565b6020810151608082015160a08301518351604051630768fabb60e41b8152606094339463768fabb094614066948a94600401615251565b6000604051808303816000875af1158015614085573d6000803e3d6000fd5b505050506040513d6000823e601f3d908101601f19168201604052612d0a919081019061505a565b600064010000000082036140c957506330d9c91560e01b919050565b64040000000082036140e35750630221347d60e61b919050565b64100000000082036140fd5750635f9e7d7760e01b919050565b6402000000008203614117575063d86ed3e560e01b919050565b6408000000008203614131575063230dbd2960e01b919050565b506353c11f9960e01b919050565b919050565b604051634c4d861f60e11b8152606090339063989b0c3e906140669086908690600401615296565b60006001600160ff1b0382111561305c5760405162461bcd60e51b815260206004820152602860248201527f53616665436173743a2076616c756520646f65736e27742066697420696e2061604482015267371034b73a191a9b60c11b60648201526084016103fc565b6000612d0a60006141ef6141e98661416c565b856141f4565b614209565b60008183136142035782612d0a565b50919050565b60008183136142185781612d0a565b5090919050565b6040805160c0810182526000808252602082018190529181019190915260608101614263604080516060810182526000808252602082018190529181019190915290565b81526020016142706142b8565b8152602001606081525090565b6040805160e0810182526000808252602082018190529181018290526060808201526080810182905260a0810182905260c081019190915290565b6040805160a08101825260008082526020820181905291810182905260608101829052608081019190915290565b604080516101608101825260008082526020820181905291810182905260608082018390526080820183905260a082015260c0810182905260e081018290526101008101829052610120810182905261014081019190915290565b6001600160a01b038116811461112257600080fd5b63ffffffff8116811461112257600080fd5b80356001600160801b038116811461413f57600080fd5b60008083601f84011261439157600080fd5b5081356001600160401b038111156143a857600080fd5b6020830191508360208285010111156143c057600080fd5b9250929050565b60008060008060008060a087890312156143e057600080fd5b86356143eb81614341565b955060208701356143fb81614356565b9450604087013561440b81614341565b935061441960608801614368565b925060808701356001600160401b0381111561443457600080fd5b61444089828a0161437f565b979a9699509497509295939492505050565b60005b8381101561446d578181015183820152602001614455565b50506000910152565b6000815180845261448e816020860160208601614452565b601f01601f19169290920160200192915050565b602081526000612d0a6020830184614476565b6000806000606084860312156144ca57600080fd5b83356144d581614341565b925060208401356144e581614341565b915060408401356144f581614356565b809150509250925092565b60008060008060008060a0878903121561451957600080fd5b863561452481614341565b9550602087013561453481614341565b9450604087013561454481614356565b9350606087013561441981614341565b60006020828403121561456657600080fd5b813561457181614341565b9392505050565b6000806000806080858703121561458e57600080fd5b843561459981614341565b935060208501356145a981614341565b925060408501356145b981614356565b915060608501356145c981614341565b939692955090935050565b6000806000806000608086880312156145ec57600080fd5b85356145f781614341565b9450602086013561460781614341565b9350604086013561461781614356565b925060608601356001600160401b0381111561463257600080fd5b61463e8882890161437f565b969995985093965092949392505050565b60008060008060006080868803121561466757600080fd5b853561467281614341565b9450602086013561468281614356565b935061461760408701614368565b600080600080608085870312156146a657600080fd5b84356146b181614341565b935060208501356146c181614341565b925060408501356146d181614356565b9396929550929360600135925050565b6000806000606084860312156146f657600080fd5b833561470181614341565b9250602084013561471181614341565b929592945050506040919091013590565b6000806040838503121561473557600080fd5b823561474081614341565b9150602083013561475081614341565b809150509250929050565b600081518084526020808501945080840160005b838110156147945781516001600160801b03168752958201959082019060010161476f565b509495945050505050565b606080825284519082018190526000906020906080840190828801845b828110156147e15781516001600160a01b0316845292840192908401906001016147bc565b5050508381038285015285518082528683019183019060005b8181101561481c57835163ffffffff16835292840192918401916001016147fa565b50508481036040860152614830818761475b565b98975050505050505050565b60008060008060006080868803121561485457600080fd5b853561485f81614341565b9450602086013561486f81614356565b93506040860135925060608601356001600160401b0381111561463257600080fd5b600080604083850312156148a457600080fd5b82356148af81614341565b946020939093013593505050565b600080600080606085870312156148d357600080fd5b84356148de81614341565b935060208501356148ee81614356565b925060408501356001600160401b0381111561490957600080fd5b6149158782880161437f565b95989497509550505050565b634e487b7160e01b600052601160045260246000fd5b80820180821115612d0d57612d0d614921565b81810381811115612d0d57612d0d614921565b600081518084526020808501945080840160005b8381101561479457815187529582019590820190600101614971565b828152604060208201526000613f3a604083018461495d565b6001600160801b038181168382160190808211156149c6576149c6614921565b5092915050565b6001600160801b038281168282160390808211156149c6576149c6614921565b60006001600160ff1b0381841382841380821686840486111615614a1357614a13614921565b600160ff1b6000871282811687830589121615614a3257614a32614921565b60008712925087820587128484161615614a4e57614a4e614921565b87850587128184161615614a6457614a64614921565b505050929093029392505050565b6000600160ff1b8201614a8757614a87614921565b5060000390565b6001600160a01b03929092168252602082015260400190565b6001600160a01b03841681526001600160801b0383166020820152606060408201819052600090614ada90830184614476565b95945050505050565b6001600160a01b038516815263ffffffff841660208201526001600160801b0383166040820152608060608201819052600090614b2290830184614476565b9695505050505050565b6001600160a01b0383168152604060208201819052600090613f3a90830184614476565b6001600160a01b038416815263ffffffff83166020820152606060408201819052600090614ada90830184614476565b600060208284031215614b9257600080fd5b5051919050565b6000816000190483118215151615614bb357614bb3614921565b500290565b600082614bd557634e487b7160e01b600052601260045260246000fd5b500490565b634e487b7160e01b600052603260045260246000fd5b634e487b7160e01b600052600160045260246000fd5b6001600160a01b0394851681529290931660208301526040820152606081019190915260800190565b634e487b7160e01b600052604160045260246000fd5b60405161016081016001600160401b0381118282101715614c6857614c68614c2f565b60405290565b604051601f8201601f191681016001600160401b0381118282101715614c9657614c96614c2f565b604052919050565b60006001600160401b03821115614cb757614cb7614c2f565b5060051b60200190565b600082601f830112614cd257600080fd5b81516020614ce7614ce283614c9e565b614c6e565b82815260059290921b84018101918181019086841115614d0657600080fd5b8286015b84811015614d215780518352918301918301614d0a565b509695505050505050565b600060208284031215614d3e57600080fd5b81516001600160401b03811115614d5457600080fd5b613f3a84828501614cc1565b8082018281126000831280158216821582161715614d8057614d80614921565b505092915050565b600063ffffffff808316818103614da157614da1614921565b6001019392505050565b805161413f81614341565b600060208284031215614dc857600080fd5b815161457181614341565b8051801515811461413f57600080fd5b600060208284031215614df557600080fd5b612d0a82614dd3565b805160ff8116811461413f57600080fd5b80516001600160e01b03198116811461413f57600080fd5b600082601f830112614e3857600080fd5b81516001600160401b03811115614e5157614e51614c2f565b614e64601f8201601f1916602001614c6e565b818152846020838601011115614e7957600080fd5b613f3a826020830160208701614452565b600060208284031215614e9c57600080fd5b81516001600160401b0380821115614eb357600080fd5b908301906101608286031215614ec857600080fd5b614ed0614c45565b614ed983614dfe565b8152614ee760208401614dfe565b602082015260408301516040820152614f0260608401614dab565b6060820152614f1360808401614e0f565b608082015260a083015182811115614f2a57600080fd5b614f3687828601614e27565b60a08301525060c083015160c082015260e083015160e0820152610100915081830151828201526101209150614f6d828401614dab565b828201526101409150614f81828401614dab565b91810191909152949350505050565b600080600060608486031215614fa557600080fd5b614fae84614dd3565b9250614fbc60208501614dd3565b9150604084015190509250925092565b6001600160a01b038681168252851660208201526040810184905260a060608201819052600090614fff90830185614476565b82810360808401526148308185614476565b6001600160a01b038516815260806020820181905260009061503590830186614476565b8415156040840152828103606084015261504f8185614476565b979650505050505050565b60006020828403121561506c57600080fd5b81516001600160401b0381111561508257600080fd5b613f3a84828501614e27565b60018060a01b0384168152826020820152606060408201526000614ada606083018461495d565b6001600160a01b038781168252861660208201526040810185905260c0606082018190526000906150e890830186614476565b82810360808401526150fa8186614476565b905082810360a084015261510e8185614476565b9998505050505050505050565b60006001600160801b0380881683528087166020840152808616604084015280851660608401525060a0608083015261504f60a0830184614476565b6000806040838503121561516a57600080fd5b82516001600160401b038082111561518157600080fd5b818501915085601f83011261519557600080fd5b815160206151a5614ce283614c9e565b82815260059290921b840181019181810190898411156151c457600080fd5b948201945b838610156151eb5785516151dc81614356565b825294820194908201906151c9565b9188015191965090935050508082111561520457600080fd5b5061521185828601614cc1565b9150509250929050565b60006001820161522d5761522d614921565b5060010190565b60006020828403121561524657600080fd5b815161457181614356565b60a08152600061526460a0830188614476565b6001600160a01b0396871660208401526040830195909552506060810192909252909216608090920191909152919050565b6040815260006152a96040830185614476565b9050826020830152939250505056fea264697066735822122092f94e519fca0c8b2c0f1dbae36d98323313cf9aeacbf0cebc5fc2346a6c59d464736f6c63430008100033",
    "linkReferences": {
      "lib/protocol-monorepo/packages/ethereum-contracts/contracts/libs/SlotsBitmapLibrary.sol": {
        "SlotsBitmapLibrary": [
          {
            "start": 586,
            "length": 20
          },
          {
            "start": 14215,
            "length": 20
          },
          {
            "start": 15484,
            "length": 20
          },
          {
            "start": 16240,
            "length": 20
          }
        ]
      }
    }
  },
  "methodIdentifiers": {
    "SLOTS_BITMAP_LIBRARY_ADDRESS()": "3fd4176a",
    "agreementType()": "7730599e",
    "approveSubscription(address,address,uint32,bytes)": "acf4a6c2",
    "calculateDistribution(address,address,uint32,uint256)": "899baaec",
    "castrate()": "9903ad38",
    "claim(address,address,uint32,address,bytes)": "acafa1b8",
    "createIndex(address,uint32,bytes)": "d787840a",
    "deleteSubscription(address,address,uint32,address,bytes)": "2e5e74c6",
    "distribute(address,uint32,uint256,bytes)": "b96731c2",
    "getCodeAddress()": "50d75d25",
    "getIndex(address,address,uint32)": "23fc23f3",
    "getSubscription(address,address,uint32,address)": "5b534051",
    "getSubscriptionByID(address,bytes32)": "cd7245c5",
    "listSubscriptions(address,address)": "b6dacdb8",
    "proxiableUUID()": "52d1902d",
    "realtimeBalanceOf(address,address,uint256)": "9b2e48bc",
    "revokeSubscription(address,address,uint32,bytes)": "6041ae96",
    "updateCode(address)": "46951954",
    "updateIndex(address,uint32,uint128,bytes)": "7fbc7639",
    "updateSubscription(address,uint32,address,uint128,bytes)": "232d2b58"
  },
  "id": 43
}